{
	"SimpleSwap.sol": {
		"SimpleSwap": {
			"abi": [
				{
					"inputs": [
						{
							"internalType": "address",
							"name": "_tokenA",
							"type": "address"
						},
						{
							"internalType": "address",
							"name": "_tokenB",
							"type": "address"
						}
					],
					"stateMutability": "nonpayable",
					"type": "constructor"
				},
				{
					"inputs": [
						{
							"internalType": "address",
							"name": "spender",
							"type": "address"
						},
						{
							"internalType": "uint256",
							"name": "allowance",
							"type": "uint256"
						},
						{
							"internalType": "uint256",
							"name": "needed",
							"type": "uint256"
						}
					],
					"name": "ERC20InsufficientAllowance",
					"type": "error"
				},
				{
					"inputs": [
						{
							"internalType": "address",
							"name": "sender",
							"type": "address"
						},
						{
							"internalType": "uint256",
							"name": "balance",
							"type": "uint256"
						},
						{
							"internalType": "uint256",
							"name": "needed",
							"type": "uint256"
						}
					],
					"name": "ERC20InsufficientBalance",
					"type": "error"
				},
				{
					"inputs": [
						{
							"internalType": "address",
							"name": "approver",
							"type": "address"
						}
					],
					"name": "ERC20InvalidApprover",
					"type": "error"
				},
				{
					"inputs": [
						{
							"internalType": "address",
							"name": "receiver",
							"type": "address"
						}
					],
					"name": "ERC20InvalidReceiver",
					"type": "error"
				},
				{
					"inputs": [
						{
							"internalType": "address",
							"name": "sender",
							"type": "address"
						}
					],
					"name": "ERC20InvalidSender",
					"type": "error"
				},
				{
					"inputs": [
						{
							"internalType": "address",
							"name": "spender",
							"type": "address"
						}
					],
					"name": "ERC20InvalidSpender",
					"type": "error"
				},
				{
					"anonymous": false,
					"inputs": [
						{
							"indexed": true,
							"internalType": "address",
							"name": "owner",
							"type": "address"
						},
						{
							"indexed": true,
							"internalType": "address",
							"name": "spender",
							"type": "address"
						},
						{
							"indexed": false,
							"internalType": "uint256",
							"name": "value",
							"type": "uint256"
						}
					],
					"name": "Approval",
					"type": "event"
				},
				{
					"anonymous": false,
					"inputs": [
						{
							"indexed": true,
							"internalType": "address",
							"name": "from",
							"type": "address"
						},
						{
							"indexed": true,
							"internalType": "address",
							"name": "to",
							"type": "address"
						},
						{
							"indexed": false,
							"internalType": "uint256",
							"name": "value",
							"type": "uint256"
						}
					],
					"name": "Transfer",
					"type": "event"
				},
				{
					"inputs": [
						{
							"internalType": "address",
							"name": "_tokenA",
							"type": "address"
						},
						{
							"internalType": "address",
							"name": "_tokenB",
							"type": "address"
						},
						{
							"internalType": "uint256",
							"name": "amountADesired",
							"type": "uint256"
						},
						{
							"internalType": "uint256",
							"name": "amountBDesired",
							"type": "uint256"
						},
						{
							"internalType": "uint256",
							"name": "amountAMin",
							"type": "uint256"
						},
						{
							"internalType": "uint256",
							"name": "amountBMin",
							"type": "uint256"
						},
						{
							"internalType": "address",
							"name": "to",
							"type": "address"
						},
						{
							"internalType": "uint256",
							"name": "deadline",
							"type": "uint256"
						}
					],
					"name": "addLiquidity",
					"outputs": [
						{
							"internalType": "uint256",
							"name": "amountA",
							"type": "uint256"
						},
						{
							"internalType": "uint256",
							"name": "amountB",
							"type": "uint256"
						},
						{
							"internalType": "uint256",
							"name": "liquidity",
							"type": "uint256"
						}
					],
					"stateMutability": "nonpayable",
					"type": "function"
				},
				{
					"inputs": [
						{
							"internalType": "address",
							"name": "owner",
							"type": "address"
						},
						{
							"internalType": "address",
							"name": "spender",
							"type": "address"
						}
					],
					"name": "allowance",
					"outputs": [
						{
							"internalType": "uint256",
							"name": "",
							"type": "uint256"
						}
					],
					"stateMutability": "view",
					"type": "function"
				},
				{
					"inputs": [
						{
							"internalType": "address",
							"name": "spender",
							"type": "address"
						},
						{
							"internalType": "uint256",
							"name": "value",
							"type": "uint256"
						}
					],
					"name": "approve",
					"outputs": [
						{
							"internalType": "bool",
							"name": "",
							"type": "bool"
						}
					],
					"stateMutability": "nonpayable",
					"type": "function"
				},
				{
					"inputs": [
						{
							"internalType": "address",
							"name": "account",
							"type": "address"
						}
					],
					"name": "balanceOf",
					"outputs": [
						{
							"internalType": "uint256",
							"name": "",
							"type": "uint256"
						}
					],
					"stateMutability": "view",
					"type": "function"
				},
				{
					"inputs": [],
					"name": "decimals",
					"outputs": [
						{
							"internalType": "uint8",
							"name": "",
							"type": "uint8"
						}
					],
					"stateMutability": "view",
					"type": "function"
				},
				{
					"inputs": [
						{
							"internalType": "uint256",
							"name": "amountIn",
							"type": "uint256"
						},
						{
							"internalType": "uint256",
							"name": "reserveIn",
							"type": "uint256"
						},
						{
							"internalType": "uint256",
							"name": "reserveOut",
							"type": "uint256"
						}
					],
					"name": "getAmountOut",
					"outputs": [
						{
							"internalType": "uint256",
							"name": "amountOut",
							"type": "uint256"
						}
					],
					"stateMutability": "pure",
					"type": "function"
				},
				{
					"inputs": [
						{
							"internalType": "address",
							"name": "_tokenA",
							"type": "address"
						},
						{
							"internalType": "address",
							"name": "_tokenB",
							"type": "address"
						}
					],
					"name": "getPrice",
					"outputs": [
						{
							"internalType": "uint256",
							"name": "price",
							"type": "uint256"
						}
					],
					"stateMutability": "view",
					"type": "function"
				},
				{
					"inputs": [],
					"name": "name",
					"outputs": [
						{
							"internalType": "string",
							"name": "",
							"type": "string"
						}
					],
					"stateMutability": "view",
					"type": "function"
				},
				{
					"inputs": [
						{
							"internalType": "address",
							"name": "_tokenA",
							"type": "address"
						},
						{
							"internalType": "address",
							"name": "_tokenB",
							"type": "address"
						},
						{
							"internalType": "uint256",
							"name": "liquidity",
							"type": "uint256"
						},
						{
							"internalType": "uint256",
							"name": "amountAMin",
							"type": "uint256"
						},
						{
							"internalType": "uint256",
							"name": "amountBMin",
							"type": "uint256"
						},
						{
							"internalType": "address",
							"name": "to",
							"type": "address"
						},
						{
							"internalType": "uint256",
							"name": "deadline",
							"type": "uint256"
						}
					],
					"name": "removeLiquidity",
					"outputs": [
						{
							"internalType": "uint256",
							"name": "amountA",
							"type": "uint256"
						},
						{
							"internalType": "uint256",
							"name": "amountB",
							"type": "uint256"
						}
					],
					"stateMutability": "nonpayable",
					"type": "function"
				},
				{
					"inputs": [],
					"name": "reserveA",
					"outputs": [
						{
							"internalType": "uint256",
							"name": "",
							"type": "uint256"
						}
					],
					"stateMutability": "view",
					"type": "function"
				},
				{
					"inputs": [],
					"name": "reserveB",
					"outputs": [
						{
							"internalType": "uint256",
							"name": "",
							"type": "uint256"
						}
					],
					"stateMutability": "view",
					"type": "function"
				},
				{
					"inputs": [
						{
							"internalType": "uint256",
							"name": "amountIn",
							"type": "uint256"
						},
						{
							"internalType": "uint256",
							"name": "amountOutMin",
							"type": "uint256"
						},
						{
							"internalType": "address[]",
							"name": "path",
							"type": "address[]"
						},
						{
							"internalType": "address",
							"name": "to",
							"type": "address"
						},
						{
							"internalType": "uint256",
							"name": "deadline",
							"type": "uint256"
						}
					],
					"name": "swapExactTokensForTokens",
					"outputs": [
						{
							"internalType": "uint256[]",
							"name": "amounts",
							"type": "uint256[]"
						}
					],
					"stateMutability": "nonpayable",
					"type": "function"
				},
				{
					"inputs": [],
					"name": "symbol",
					"outputs": [
						{
							"internalType": "string",
							"name": "",
							"type": "string"
						}
					],
					"stateMutability": "view",
					"type": "function"
				},
				{
					"inputs": [],
					"name": "tokenA",
					"outputs": [
						{
							"internalType": "contract IERC20",
							"name": "",
							"type": "address"
						}
					],
					"stateMutability": "view",
					"type": "function"
				},
				{
					"inputs": [],
					"name": "tokenB",
					"outputs": [
						{
							"internalType": "contract IERC20",
							"name": "",
							"type": "address"
						}
					],
					"stateMutability": "view",
					"type": "function"
				},
				{
					"inputs": [],
					"name": "totalSupply",
					"outputs": [
						{
							"internalType": "uint256",
							"name": "",
							"type": "uint256"
						}
					],
					"stateMutability": "view",
					"type": "function"
				},
				{
					"inputs": [
						{
							"internalType": "address",
							"name": "to",
							"type": "address"
						},
						{
							"internalType": "uint256",
							"name": "value",
							"type": "uint256"
						}
					],
					"name": "transfer",
					"outputs": [
						{
							"internalType": "bool",
							"name": "",
							"type": "bool"
						}
					],
					"stateMutability": "nonpayable",
					"type": "function"
				},
				{
					"inputs": [
						{
							"internalType": "address",
							"name": "from",
							"type": "address"
						},
						{
							"internalType": "address",
							"name": "to",
							"type": "address"
						},
						{
							"internalType": "uint256",
							"name": "value",
							"type": "uint256"
						}
					],
					"name": "transferFrom",
					"outputs": [
						{
							"internalType": "bool",
							"name": "",
							"type": "bool"
						}
					],
					"stateMutability": "nonpayable",
					"type": "function"
				}
			],
			"devdoc": {
				"errors": {
					"ERC20InsufficientAllowance(address,uint256,uint256)": [
						{
							"details": "Indicates a failure with the `spender`’s `allowance`. Used in transfers.",
							"params": {
								"allowance": "Amount of tokens a `spender` is allowed to operate with.",
								"needed": "Minimum amount required to perform a transfer.",
								"spender": "Address that may be allowed to operate on tokens without being their owner."
							}
						}
					],
					"ERC20InsufficientBalance(address,uint256,uint256)": [
						{
							"details": "Indicates an error related to the current `balance` of a `sender`. Used in transfers.",
							"params": {
								"balance": "Current balance for the interacting account.",
								"needed": "Minimum amount required to perform a transfer.",
								"sender": "Address whose tokens are being transferred."
							}
						}
					],
					"ERC20InvalidApprover(address)": [
						{
							"details": "Indicates a failure with the `approver` of a token to be approved. Used in approvals.",
							"params": {
								"approver": "Address initiating an approval operation."
							}
						}
					],
					"ERC20InvalidReceiver(address)": [
						{
							"details": "Indicates a failure with the token `receiver`. Used in transfers.",
							"params": {
								"receiver": "Address to which tokens are being transferred."
							}
						}
					],
					"ERC20InvalidSender(address)": [
						{
							"details": "Indicates a failure with the token `sender`. Used in transfers.",
							"params": {
								"sender": "Address whose tokens are being transferred."
							}
						}
					],
					"ERC20InvalidSpender(address)": [
						{
							"details": "Indicates a failure with the `spender` to be approved. Used in approvals.",
							"params": {
								"spender": "Address that may be allowed to operate on tokens without being their owner."
							}
						}
					]
				},
				"events": {
					"Approval(address,address,uint256)": {
						"details": "Emitted when the allowance of a `spender` for an `owner` is set by a call to {approve}. `value` is the new allowance."
					},
					"Transfer(address,address,uint256)": {
						"details": "Emitted when `value` tokens are moved from one account (`from`) to another (`to`). Note that `value` may be zero."
					}
				},
				"kind": "dev",
				"methods": {
					"addLiquidity(address,address,uint256,uint256,uint256,uint256,address,uint256)": {
						"params": {
							"_tokenA": "Address of token A.",
							"_tokenB": "Address of token B.",
							"amountADesired": "Amount of token A user wants to deposit.",
							"amountAMin": "Minimum amount of token A accepted.",
							"amountBDesired": "Amount of token B user wants to deposit.",
							"amountBMin": "Minimum amount of token B accepted.",
							"deadline": "Timestamp after which the transaction is invalid.",
							"to": "Address to receive LP tokens."
						},
						"returns": {
							"amountA": "Final amount of token A added.",
							"amountB": "Final amount of token B added.",
							"liquidity": "Amount of LP tokens minted."
						}
					},
					"allowance(address,address)": {
						"details": "See {IERC20-allowance}."
					},
					"approve(address,uint256)": {
						"details": "See {IERC20-approve}. NOTE: If `value` is the maximum `uint256`, the allowance is not updated on `transferFrom`. This is semantically equivalent to an infinite approval. Requirements: - `spender` cannot be the zero address."
					},
					"balanceOf(address)": {
						"details": "See {IERC20-balanceOf}."
					},
					"constructor": {
						"params": {
							"_tokenA": "Address of token A.",
							"_tokenB": "Address of token B."
						}
					},
					"decimals()": {
						"details": "Returns the number of decimals used to get its user representation. For example, if `decimals` equals `2`, a balance of `505` tokens should be displayed to a user as `5.05` (`505 / 10 ** 2`). Tokens usually opt for a value of 18, imitating the relationship between Ether and Wei. This is the default value returned by this function, unless it's overridden. NOTE: This information is only used for _display_ purposes: it in no way affects any of the arithmetic of the contract, including {IERC20-balanceOf} and {IERC20-transfer}."
					},
					"getAmountOut(uint256,uint256,uint256)": {
						"params": {
							"amountIn": "Amount of input token.",
							"reserveIn": "Reserve of input token in the pool.",
							"reserveOut": "Reserve of output token in the pool."
						},
						"returns": {
							"amountOut": "Calculated output token amount."
						}
					},
					"getPrice(address,address)": {
						"params": {
							"_tokenA": "Address of token A.",
							"_tokenB": "Address of token B."
						},
						"returns": {
							"price": "Current price of tokenB per tokenA (scaled by 1e18)."
						}
					},
					"name()": {
						"details": "Returns the name of the token."
					},
					"removeLiquidity(address,address,uint256,uint256,uint256,address,uint256)": {
						"params": {
							"_tokenA": "Address of token A.",
							"_tokenB": "Address of token B.",
							"amountAMin": "Minimum amount of token A expected.",
							"amountBMin": "Minimum amount of token B expected.",
							"deadline": "Timestamp after which the transaction is invalid.",
							"liquidity": "Amount of LP tokens to burn.",
							"to": "Address that will receive the tokens."
						},
						"returns": {
							"amountA": "Final amount of token A returned.",
							"amountB": "Final amount of token B returned."
						}
					},
					"swapExactTokensForTokens(uint256,uint256,address[],address,uint256)": {
						"params": {
							"amountIn": "Amount of input token to swap.",
							"amountOutMin": "Minimum output token amount accepted.",
							"deadline": "Timestamp after which the transaction is invalid.",
							"path": "Array with two addresses: input token and output token.",
							"to": "Address that will receive the output tokens."
						},
						"returns": {
							"amounts": "Array of two elements: [amountIn, amountOut]."
						}
					},
					"symbol()": {
						"details": "Returns the symbol of the token, usually a shorter version of the name."
					},
					"totalSupply()": {
						"details": "See {IERC20-totalSupply}."
					},
					"transfer(address,uint256)": {
						"details": "See {IERC20-transfer}. Requirements: - `to` cannot be the zero address. - the caller must have a balance of at least `value`."
					},
					"transferFrom(address,address,uint256)": {
						"details": "See {IERC20-transferFrom}. Skips emitting an {Approval} event indicating an allowance update. This is not required by the ERC. See {xref-ERC20-_approve-address-address-uint256-bool-}[_approve]. NOTE: Does not update the allowance if the current allowance is the maximum `uint256`. Requirements: - `from` and `to` cannot be the zero address. - `from` must have a balance of at least `value`. - the caller must have allowance for ``from``'s tokens of at least `value`."
					}
				},
				"title": "SimpleSwap Liquidity Pool",
				"version": 1
			},
			"evm": {
				"assembly": "    /* \"SimpleSwap.sol\":978:10913  contract SimpleSwap is ERC20 {... */\n  mstore(0x40, 0x80)\n    /* \"SimpleSwap.sol\":1491:1640  constructor(address _tokenA, address _tokenB) ERC20(\"LP Token\", \"LPT\") {... */\n  callvalue\n  dup1\n  iszero\n  tag_1\n  jumpi\n  revert(0x00, 0x00)\ntag_1:\n  pop\n  mload(0x40)\n  sub(codesize, bytecodeSize)\n  dup1\n  bytecodeSize\n  dup4\n  codecopy\n  dup2\n  dup2\n  add\n  0x40\n  mstore\n  dup2\n  add\n  swap1\n  tag_2\n  swap2\n  swap1\n  tag_3\n  jump\t// in\ntag_2:\n    /* \"@openzeppelin/contracts/token/ERC20/ERC20.sol\":1582:1695  constructor(string memory name_, string memory symbol_) {... */\n  mload(0x40)\n  dup1\n  0x40\n  add\n  0x40\n  mstore\n  dup1\n  0x08\n  dup2\n  mstore\n  0x20\n  add\n  0x4c5020546f6b656e000000000000000000000000000000000000000000000000\n  dup2\n  mstore\n  pop\n  mload(0x40)\n  dup1\n  0x40\n  add\n  0x40\n  mstore\n  dup1\n  0x03\n  dup2\n  mstore\n  0x20\n  add\n  0x4c50540000000000000000000000000000000000000000000000000000000000\n  dup2\n  mstore\n  pop\n    /* \"@openzeppelin/contracts/token/ERC20/ERC20.sol\":1656:1661  name_ */\n  dup2\n    /* \"@openzeppelin/contracts/token/ERC20/ERC20.sol\":1648:1653  _name */\n  0x03\n    /* \"@openzeppelin/contracts/token/ERC20/ERC20.sol\":1648:1661  _name = name_ */\n  swap1\n  dup2\n  tag_7\n  swap2\n  swap1\n  tag_8\n  jump\t// in\ntag_7:\n  pop\n    /* \"@openzeppelin/contracts/token/ERC20/ERC20.sol\":1681:1688  symbol_ */\n  dup1\n    /* \"@openzeppelin/contracts/token/ERC20/ERC20.sol\":1671:1678  _symbol */\n  0x04\n    /* \"@openzeppelin/contracts/token/ERC20/ERC20.sol\":1671:1688  _symbol = symbol_ */\n  swap1\n  dup2\n  tag_9\n  swap2\n  swap1\n  tag_8\n  jump\t// in\ntag_9:\n  pop\n    /* \"@openzeppelin/contracts/token/ERC20/ERC20.sol\":1582:1695  constructor(string memory name_, string memory symbol_) {... */\n  pop\n  pop\n    /* \"SimpleSwap.sol\":1589:1596  _tokenA */\n  dup2\n    /* \"SimpleSwap.sol\":1573:1579  tokenA */\n  0x05\n  0x00\n    /* \"SimpleSwap.sol\":1573:1597  tokenA = IERC20(_tokenA) */\n  0x0100\n  exp\n  dup2\n  sload\n  dup2\n  0xffffffffffffffffffffffffffffffffffffffff\n  mul\n  not\n  and\n  swap1\n  dup4\n  0xffffffffffffffffffffffffffffffffffffffff\n  and\n  mul\n  or\n  swap1\n  sstore\n  pop\n    /* \"SimpleSwap.sol\":1624:1631  _tokenB */\n  dup1\n    /* \"SimpleSwap.sol\":1608:1614  tokenB */\n  0x06\n  0x00\n    /* \"SimpleSwap.sol\":1608:1632  tokenB = IERC20(_tokenB) */\n  0x0100\n  exp\n  dup2\n  sload\n  dup2\n  0xffffffffffffffffffffffffffffffffffffffff\n  mul\n  not\n  and\n  swap1\n  dup4\n  0xffffffffffffffffffffffffffffffffffffffff\n  and\n  mul\n  or\n  swap1\n  sstore\n  pop\n    /* \"SimpleSwap.sol\":1491:1640  constructor(address _tokenA, address _tokenB) ERC20(\"LP Token\", \"LPT\") {... */\n  pop\n  pop\n    /* \"SimpleSwap.sol\":978:10913  contract SimpleSwap is ERC20 {... */\n  jump(tag_11)\n    /* \"#utility.yul\":88:205   */\ntag_13:\n    /* \"#utility.yul\":197:198   */\n  0x00\n    /* \"#utility.yul\":194:195   */\n  0x00\n    /* \"#utility.yul\":187:199   */\n  revert\n    /* \"#utility.yul\":334:460   */\ntag_15:\n    /* \"#utility.yul\":371:378   */\n  0x00\n    /* \"#utility.yul\":411:453   */\n  0xffffffffffffffffffffffffffffffffffffffff\n    /* \"#utility.yul\":404:409   */\n  dup3\n    /* \"#utility.yul\":400:454   */\n  and\n    /* \"#utility.yul\":389:454   */\n  swap1\n  pop\n    /* \"#utility.yul\":334:460   */\n  swap2\n  swap1\n  pop\n  jump\t// out\n    /* \"#utility.yul\":466:562   */\ntag_16:\n    /* \"#utility.yul\":503:510   */\n  0x00\n    /* \"#utility.yul\":532:556   */\n  tag_45\n    /* \"#utility.yul\":550:555   */\n  dup3\n    /* \"#utility.yul\":532:556   */\n  tag_15\n  jump\t// in\ntag_45:\n    /* \"#utility.yul\":521:556   */\n  swap1\n  pop\n    /* \"#utility.yul\":466:562   */\n  swap2\n  swap1\n  pop\n  jump\t// out\n    /* \"#utility.yul\":568:690   */\ntag_17:\n    /* \"#utility.yul\":641:665   */\n  tag_47\n    /* \"#utility.yul\":659:664   */\n  dup2\n    /* \"#utility.yul\":641:665   */\n  tag_16\n  jump\t// in\ntag_47:\n    /* \"#utility.yul\":634:639   */\n  dup2\n    /* \"#utility.yul\":631:666   */\n  eq\n    /* \"#utility.yul\":621:684   */\n  tag_48\n  jumpi\n    /* \"#utility.yul\":680:681   */\n  0x00\n    /* \"#utility.yul\":677:678   */\n  0x00\n    /* \"#utility.yul\":670:682   */\n  revert\n    /* \"#utility.yul\":621:684   */\ntag_48:\n    /* \"#utility.yul\":568:690   */\n  pop\n  jump\t// out\n    /* \"#utility.yul\":696:839   */\ntag_18:\n    /* \"#utility.yul\":753:758   */\n  0x00\n    /* \"#utility.yul\":784:790   */\n  dup2\n    /* \"#utility.yul\":778:791   */\n  mload\n    /* \"#utility.yul\":769:791   */\n  swap1\n  pop\n    /* \"#utility.yul\":800:833   */\n  tag_50\n    /* \"#utility.yul\":827:832   */\n  dup2\n    /* \"#utility.yul\":800:833   */\n  tag_17\n  jump\t// in\ntag_50:\n    /* \"#utility.yul\":696:839   */\n  swap3\n  swap2\n  pop\n  pop\n  jump\t// out\n    /* \"#utility.yul\":845:1352   */\ntag_3:\n    /* \"#utility.yul\":924:930   */\n  0x00\n    /* \"#utility.yul\":932:938   */\n  0x00\n    /* \"#utility.yul\":981:983   */\n  0x40\n    /* \"#utility.yul\":969:978   */\n  dup4\n    /* \"#utility.yul\":960:967   */\n  dup6\n    /* \"#utility.yul\":956:979   */\n  sub\n    /* \"#utility.yul\":952:984   */\n  slt\n    /* \"#utility.yul\":949:1068   */\n  iszero\n  tag_52\n  jumpi\n    /* \"#utility.yul\":987:1066   */\n  tag_53\n  tag_13\n  jump\t// in\ntag_53:\n    /* \"#utility.yul\":949:1068   */\ntag_52:\n    /* \"#utility.yul\":1107:1108   */\n  0x00\n    /* \"#utility.yul\":1132:1196   */\n  tag_54\n    /* \"#utility.yul\":1188:1195   */\n  dup6\n    /* \"#utility.yul\":1179:1185   */\n  dup3\n    /* \"#utility.yul\":1168:1177   */\n  dup7\n    /* \"#utility.yul\":1164:1186   */\n  add\n    /* \"#utility.yul\":1132:1196   */\n  tag_18\n  jump\t// in\ntag_54:\n    /* \"#utility.yul\":1122:1196   */\n  swap3\n  pop\n    /* \"#utility.yul\":1078:1206   */\n  pop\n    /* \"#utility.yul\":1245:1247   */\n  0x20\n    /* \"#utility.yul\":1271:1335   */\n  tag_55\n    /* \"#utility.yul\":1327:1334   */\n  dup6\n    /* \"#utility.yul\":1318:1324   */\n  dup3\n    /* \"#utility.yul\":1307:1316   */\n  dup7\n    /* \"#utility.yul\":1303:1325   */\n  add\n    /* \"#utility.yul\":1271:1335   */\n  tag_18\n  jump\t// in\ntag_55:\n    /* \"#utility.yul\":1261:1335   */\n  swap2\n  pop\n    /* \"#utility.yul\":1216:1345   */\n  pop\n    /* \"#utility.yul\":845:1352   */\n  swap3\n  pop\n  swap3\n  swap1\n  pop\n  jump\t// out\n    /* \"#utility.yul\":1358:1457   */\ntag_19:\n    /* \"#utility.yul\":1410:1416   */\n  0x00\n    /* \"#utility.yul\":1444:1449   */\n  dup2\n    /* \"#utility.yul\":1438:1450   */\n  mload\n    /* \"#utility.yul\":1428:1450   */\n  swap1\n  pop\n    /* \"#utility.yul\":1358:1457   */\n  swap2\n  swap1\n  pop\n  jump\t// out\n    /* \"#utility.yul\":1463:1643   */\ntag_20:\n    /* \"#utility.yul\":1511:1588   */\n  0x4e487b7100000000000000000000000000000000000000000000000000000000\n    /* \"#utility.yul\":1508:1509   */\n  0x00\n    /* \"#utility.yul\":1501:1589   */\n  mstore\n    /* \"#utility.yul\":1608:1612   */\n  0x41\n    /* \"#utility.yul\":1605:1606   */\n  0x04\n    /* \"#utility.yul\":1598:1613   */\n  mstore\n    /* \"#utility.yul\":1632:1636   */\n  0x24\n    /* \"#utility.yul\":1629:1630   */\n  0x00\n    /* \"#utility.yul\":1622:1637   */\n  revert\n    /* \"#utility.yul\":1649:1829   */\ntag_21:\n    /* \"#utility.yul\":1697:1774   */\n  0x4e487b7100000000000000000000000000000000000000000000000000000000\n    /* \"#utility.yul\":1694:1695   */\n  0x00\n    /* \"#utility.yul\":1687:1775   */\n  mstore\n    /* \"#utility.yul\":1794:1798   */\n  0x22\n    /* \"#utility.yul\":1791:1792   */\n  0x04\n    /* \"#utility.yul\":1784:1799   */\n  mstore\n    /* \"#utility.yul\":1818:1822   */\n  0x24\n    /* \"#utility.yul\":1815:1816   */\n  0x00\n    /* \"#utility.yul\":1808:1823   */\n  revert\n    /* \"#utility.yul\":1835:2155   */\ntag_22:\n    /* \"#utility.yul\":1879:1885   */\n  0x00\n    /* \"#utility.yul\":1916:1917   */\n  0x02\n    /* \"#utility.yul\":1910:1914   */\n  dup3\n    /* \"#utility.yul\":1906:1918   */\n  div\n    /* \"#utility.yul\":1896:1918   */\n  swap1\n  pop\n    /* \"#utility.yul\":1963:1964   */\n  0x01\n    /* \"#utility.yul\":1957:1961   */\n  dup3\n    /* \"#utility.yul\":1953:1965   */\n  and\n    /* \"#utility.yul\":1984:2002   */\n  dup1\n    /* \"#utility.yul\":1974:2055   */\n  tag_60\n  jumpi\n    /* \"#utility.yul\":2040:2044   */\n  0x7f\n    /* \"#utility.yul\":2032:2038   */\n  dup3\n    /* \"#utility.yul\":2028:2045   */\n  and\n    /* \"#utility.yul\":2018:2045   */\n  swap2\n  pop\n    /* \"#utility.yul\":1974:2055   */\ntag_60:\n    /* \"#utility.yul\":2102:2104   */\n  0x20\n    /* \"#utility.yul\":2094:2100   */\n  dup3\n    /* \"#utility.yul\":2091:2105   */\n  lt\n    /* \"#utility.yul\":2071:2089   */\n  dup2\n    /* \"#utility.yul\":2068:2106   */\n  sub\n    /* \"#utility.yul\":2065:2149   */\n  tag_61\n  jumpi\n    /* \"#utility.yul\":2121:2139   */\n  tag_62\n  tag_21\n  jump\t// in\ntag_62:\n    /* \"#utility.yul\":2065:2149   */\ntag_61:\n    /* \"#utility.yul\":1886:2155   */\n  pop\n    /* \"#utility.yul\":1835:2155   */\n  swap2\n  swap1\n  pop\n  jump\t// out\n    /* \"#utility.yul\":2161:2302   */\ntag_23:\n    /* \"#utility.yul\":2210:2214   */\n  0x00\n    /* \"#utility.yul\":2233:2236   */\n  dup2\n    /* \"#utility.yul\":2225:2236   */\n  swap1\n  pop\n    /* \"#utility.yul\":2256:2259   */\n  dup2\n    /* \"#utility.yul\":2253:2254   */\n  0x00\n    /* \"#utility.yul\":2246:2260   */\n  mstore\n    /* \"#utility.yul\":2290:2294   */\n  0x20\n    /* \"#utility.yul\":2287:2288   */\n  0x00\n    /* \"#utility.yul\":2277:2295   */\n  keccak256\n    /* \"#utility.yul\":2269:2295   */\n  swap1\n  pop\n    /* \"#utility.yul\":2161:2302   */\n  swap2\n  swap1\n  pop\n  jump\t// out\n    /* \"#utility.yul\":2308:2401   */\ntag_24:\n    /* \"#utility.yul\":2345:2351   */\n  0x00\n    /* \"#utility.yul\":2392:2394   */\n  0x20\n    /* \"#utility.yul\":2387:2389   */\n  0x1f\n    /* \"#utility.yul\":2380:2385   */\n  dup4\n    /* \"#utility.yul\":2376:2390   */\n  add\n    /* \"#utility.yul\":2372:2395   */\n  div\n    /* \"#utility.yul\":2362:2395   */\n  swap1\n  pop\n    /* \"#utility.yul\":2308:2401   */\n  swap2\n  swap1\n  pop\n  jump\t// out\n    /* \"#utility.yul\":2407:2514   */\ntag_25:\n    /* \"#utility.yul\":2451:2459   */\n  0x00\n    /* \"#utility.yul\":2501:2506   */\n  dup3\n    /* \"#utility.yul\":2495:2499   */\n  dup3\n    /* \"#utility.yul\":2491:2507   */\n  shl\n    /* \"#utility.yul\":2470:2507   */\n  swap1\n  pop\n    /* \"#utility.yul\":2407:2514   */\n  swap3\n  swap2\n  pop\n  pop\n  jump\t// out\n    /* \"#utility.yul\":2520:2913   */\ntag_26:\n    /* \"#utility.yul\":2589:2595   */\n  0x00\n    /* \"#utility.yul\":2639:2640   */\n  0x08\n    /* \"#utility.yul\":2627:2637   */\n  dup4\n    /* \"#utility.yul\":2623:2641   */\n  mul\n    /* \"#utility.yul\":2662:2759   */\n  tag_67\n    /* \"#utility.yul\":2692:2758   */\n  0xffffffffffffffffffffffffffffffffffffffffffffffffffffffffffffffff\n    /* \"#utility.yul\":2681:2690   */\n  dup3\n    /* \"#utility.yul\":2662:2759   */\n  tag_25\n  jump\t// in\ntag_67:\n    /* \"#utility.yul\":2780:2819   */\n  tag_68\n    /* \"#utility.yul\":2810:2818   */\n  dup7\n    /* \"#utility.yul\":2799:2808   */\n  dup4\n    /* \"#utility.yul\":2780:2819   */\n  tag_25\n  jump\t// in\ntag_68:\n    /* \"#utility.yul\":2768:2819   */\n  swap6\n  pop\n    /* \"#utility.yul\":2852:2856   */\n  dup1\n    /* \"#utility.yul\":2848:2857   */\n  not\n    /* \"#utility.yul\":2841:2846   */\n  dup5\n    /* \"#utility.yul\":2837:2858   */\n  and\n    /* \"#utility.yul\":2828:2858   */\n  swap4\n  pop\n    /* \"#utility.yul\":2901:2905   */\n  dup1\n    /* \"#utility.yul\":2891:2899   */\n  dup7\n    /* \"#utility.yul\":2887:2906   */\n  and\n    /* \"#utility.yul\":2880:2885   */\n  dup5\n    /* \"#utility.yul\":2877:2907   */\n  or\n    /* \"#utility.yul\":2867:2907   */\n  swap3\n  pop\n    /* \"#utility.yul\":2596:2913   */\n  pop\n  pop\n    /* \"#utility.yul\":2520:2913   */\n  swap4\n  swap3\n  pop\n  pop\n  pop\n  jump\t// out\n    /* \"#utility.yul\":2919:2996   */\ntag_27:\n    /* \"#utility.yul\":2956:2963   */\n  0x00\n    /* \"#utility.yul\":2985:2990   */\n  dup2\n    /* \"#utility.yul\":2974:2990   */\n  swap1\n  pop\n    /* \"#utility.yul\":2919:2996   */\n  swap2\n  swap1\n  pop\n  jump\t// out\n    /* \"#utility.yul\":3002:3062   */\ntag_28:\n    /* \"#utility.yul\":3030:3033   */\n  0x00\n    /* \"#utility.yul\":3051:3056   */\n  dup2\n    /* \"#utility.yul\":3044:3056   */\n  swap1\n  pop\n    /* \"#utility.yul\":3002:3062   */\n  swap2\n  swap1\n  pop\n  jump\t// out\n    /* \"#utility.yul\":3068:3210   */\ntag_29:\n    /* \"#utility.yul\":3118:3127   */\n  0x00\n    /* \"#utility.yul\":3151:3204   */\n  tag_72\n    /* \"#utility.yul\":3169:3203   */\n  tag_73\n    /* \"#utility.yul\":3178:3202   */\n  tag_74\n    /* \"#utility.yul\":3196:3201   */\n  dup5\n    /* \"#utility.yul\":3178:3202   */\n  tag_27\n  jump\t// in\ntag_74:\n    /* \"#utility.yul\":3169:3203   */\n  tag_28\n  jump\t// in\ntag_73:\n    /* \"#utility.yul\":3151:3204   */\n  tag_27\n  jump\t// in\ntag_72:\n    /* \"#utility.yul\":3138:3204   */\n  swap1\n  pop\n    /* \"#utility.yul\":3068:3210   */\n  swap2\n  swap1\n  pop\n  jump\t// out\n    /* \"#utility.yul\":3216:3291   */\ntag_30:\n    /* \"#utility.yul\":3259:3262   */\n  0x00\n    /* \"#utility.yul\":3280:3285   */\n  dup2\n    /* \"#utility.yul\":3273:3285   */\n  swap1\n  pop\n    /* \"#utility.yul\":3216:3291   */\n  swap2\n  swap1\n  pop\n  jump\t// out\n    /* \"#utility.yul\":3297:3566   */\ntag_31:\n    /* \"#utility.yul\":3407:3446   */\n  tag_77\n    /* \"#utility.yul\":3438:3445   */\n  dup4\n    /* \"#utility.yul\":3407:3446   */\n  tag_29\n  jump\t// in\ntag_77:\n    /* \"#utility.yul\":3468:3559   */\n  tag_78\n    /* \"#utility.yul\":3517:3558   */\n  tag_79\n    /* \"#utility.yul\":3541:3557   */\n  dup3\n    /* \"#utility.yul\":3517:3558   */\n  tag_30\n  jump\t// in\ntag_79:\n    /* \"#utility.yul\":3509:3515   */\n  dup5\n    /* \"#utility.yul\":3502:3506   */\n  dup5\n    /* \"#utility.yul\":3496:3507   */\n  sload\n    /* \"#utility.yul\":3468:3559   */\n  tag_26\n  jump\t// in\ntag_78:\n    /* \"#utility.yul\":3462:3466   */\n  dup3\n    /* \"#utility.yul\":3455:3560   */\n  sstore\n    /* \"#utility.yul\":3373:3566   */\n  pop\n    /* \"#utility.yul\":3297:3566   */\n  pop\n  pop\n  pop\n  jump\t// out\n    /* \"#utility.yul\":3572:3645   */\ntag_32:\n    /* \"#utility.yul\":3617:3620   */\n  0x00\n    /* \"#utility.yul\":3638:3639   */\n  0x00\n    /* \"#utility.yul\":3631:3639   */\n  swap1\n  pop\n    /* \"#utility.yul\":3572:3645   */\n  swap1\n  jump\t// out\n    /* \"#utility.yul\":3651:3840   */\ntag_33:\n    /* \"#utility.yul\":3728:3760   */\n  tag_82\n  tag_32\n  jump\t// in\ntag_82:\n    /* \"#utility.yul\":3769:3834   */\n  tag_83\n    /* \"#utility.yul\":3827:3833   */\n  dup2\n    /* \"#utility.yul\":3819:3825   */\n  dup5\n    /* \"#utility.yul\":3813:3817   */\n  dup5\n    /* \"#utility.yul\":3769:3834   */\n  tag_31\n  jump\t// in\ntag_83:\n    /* \"#utility.yul\":3704:3840   */\n  pop\n    /* \"#utility.yul\":3651:3840   */\n  pop\n  pop\n  jump\t// out\n    /* \"#utility.yul\":3846:4032   */\ntag_34:\n    /* \"#utility.yul\":3906:4026   */\ntag_85:\n    /* \"#utility.yul\":3923:3926   */\n  dup2\n    /* \"#utility.yul\":3916:3921   */\n  dup2\n    /* \"#utility.yul\":3913:3927   */\n  lt\n    /* \"#utility.yul\":3906:4026   */\n  iszero\n  tag_87\n  jumpi\n    /* \"#utility.yul\":3977:4016   */\n  tag_88\n    /* \"#utility.yul\":4014:4015   */\n  0x00\n    /* \"#utility.yul\":4007:4012   */\n  dup3\n    /* \"#utility.yul\":3977:4016   */\n  tag_33\n  jump\t// in\ntag_88:\n    /* \"#utility.yul\":3950:3951   */\n  0x01\n    /* \"#utility.yul\":3943:3948   */\n  dup2\n    /* \"#utility.yul\":3939:3952   */\n  add\n    /* \"#utility.yul\":3930:3952   */\n  swap1\n  pop\n    /* \"#utility.yul\":3906:4026   */\n  jump(tag_85)\ntag_87:\n    /* \"#utility.yul\":3846:4032   */\n  pop\n  pop\n  jump\t// out\n    /* \"#utility.yul\":4038:4581   */\ntag_35:\n    /* \"#utility.yul\":4139:4141   */\n  0x1f\n    /* \"#utility.yul\":4134:4137   */\n  dup3\n    /* \"#utility.yul\":4131:4142   */\n  gt\n    /* \"#utility.yul\":4128:4574   */\n  iszero\n  tag_90\n  jumpi\n    /* \"#utility.yul\":4173:4211   */\n  tag_91\n    /* \"#utility.yul\":4205:4210   */\n  dup2\n    /* \"#utility.yul\":4173:4211   */\n  tag_23\n  jump\t// in\ntag_91:\n    /* \"#utility.yul\":4257:4286   */\n  tag_92\n    /* \"#utility.yul\":4275:4285   */\n  dup5\n    /* \"#utility.yul\":4257:4286   */\n  tag_24\n  jump\t// in\ntag_92:\n    /* \"#utility.yul\":4247:4255   */\n  dup2\n    /* \"#utility.yul\":4243:4287   */\n  add\n    /* \"#utility.yul\":4440:4442   */\n  0x20\n    /* \"#utility.yul\":4428:4438   */\n  dup6\n    /* \"#utility.yul\":4425:4443   */\n  lt\n    /* \"#utility.yul\":4422:4471   */\n  iszero\n  tag_93\n  jumpi\n    /* \"#utility.yul\":4461:4469   */\n  dup2\n    /* \"#utility.yul\":4446:4469   */\n  swap1\n  pop\n    /* \"#utility.yul\":4422:4471   */\ntag_93:\n    /* \"#utility.yul\":4484:4564   */\n  tag_94\n    /* \"#utility.yul\":4540:4562   */\n  tag_95\n    /* \"#utility.yul\":4558:4561   */\n  dup6\n    /* \"#utility.yul\":4540:4562   */\n  tag_24\n  jump\t// in\ntag_95:\n    /* \"#utility.yul\":4530:4538   */\n  dup4\n    /* \"#utility.yul\":4526:4563   */\n  add\n    /* \"#utility.yul\":4513:4524   */\n  dup3\n    /* \"#utility.yul\":4484:4564   */\n  tag_34\n  jump\t// in\ntag_94:\n    /* \"#utility.yul\":4143:4574   */\n  pop\n  pop\n    /* \"#utility.yul\":4128:4574   */\ntag_90:\n    /* \"#utility.yul\":4038:4581   */\n  pop\n  pop\n  pop\n  jump\t// out\n    /* \"#utility.yul\":4587:4704   */\ntag_36:\n    /* \"#utility.yul\":4641:4649   */\n  0x00\n    /* \"#utility.yul\":4691:4696   */\n  dup3\n    /* \"#utility.yul\":4685:4689   */\n  dup3\n    /* \"#utility.yul\":4681:4697   */\n  shr\n    /* \"#utility.yul\":4660:4697   */\n  swap1\n  pop\n    /* \"#utility.yul\":4587:4704   */\n  swap3\n  swap2\n  pop\n  pop\n  jump\t// out\n    /* \"#utility.yul\":4710:4879   */\ntag_37:\n    /* \"#utility.yul\":4754:4760   */\n  0x00\n    /* \"#utility.yul\":4787:4838   */\n  tag_98\n    /* \"#utility.yul\":4835:4836   */\n  0x00\n    /* \"#utility.yul\":4831:4837   */\n  not\n    /* \"#utility.yul\":4823:4828   */\n  dup5\n    /* \"#utility.yul\":4820:4821   */\n  0x08\n    /* \"#utility.yul\":4816:4829   */\n  mul\n    /* \"#utility.yul\":4787:4838   */\n  tag_36\n  jump\t// in\ntag_98:\n    /* \"#utility.yul\":4783:4839   */\n  not\n    /* \"#utility.yul\":4868:4872   */\n  dup1\n    /* \"#utility.yul\":4862:4866   */\n  dup4\n    /* \"#utility.yul\":4858:4873   */\n  and\n    /* \"#utility.yul\":4848:4873   */\n  swap2\n  pop\n    /* \"#utility.yul\":4761:4879   */\n  pop\n    /* \"#utility.yul\":4710:4879   */\n  swap3\n  swap2\n  pop\n  pop\n  jump\t// out\n    /* \"#utility.yul\":4884:5179   */\ntag_38:\n    /* \"#utility.yul\":4960:4964   */\n  0x00\n    /* \"#utility.yul\":5106:5135   */\n  tag_100\n    /* \"#utility.yul\":5131:5134   */\n  dup4\n    /* \"#utility.yul\":5125:5129   */\n  dup4\n    /* \"#utility.yul\":5106:5135   */\n  tag_37\n  jump\t// in\ntag_100:\n    /* \"#utility.yul\":5098:5135   */\n  swap2\n  pop\n    /* \"#utility.yul\":5168:5171   */\n  dup3\n    /* \"#utility.yul\":5165:5166   */\n  0x02\n    /* \"#utility.yul\":5161:5172   */\n  mul\n    /* \"#utility.yul\":5155:5159   */\n  dup3\n    /* \"#utility.yul\":5152:5173   */\n  or\n    /* \"#utility.yul\":5144:5173   */\n  swap1\n  pop\n    /* \"#utility.yul\":4884:5179   */\n  swap3\n  swap2\n  pop\n  pop\n  jump\t// out\n    /* \"#utility.yul\":5184:6579   */\ntag_8:\n    /* \"#utility.yul\":5301:5338   */\n  tag_102\n    /* \"#utility.yul\":5334:5337   */\n  dup3\n    /* \"#utility.yul\":5301:5338   */\n  tag_19\n  jump\t// in\ntag_102:\n    /* \"#utility.yul\":5403:5421   */\n  0xffffffffffffffff\n    /* \"#utility.yul\":5395:5401   */\n  dup2\n    /* \"#utility.yul\":5392:5422   */\n  gt\n    /* \"#utility.yul\":5389:5445   */\n  iszero\n  tag_103\n  jumpi\n    /* \"#utility.yul\":5425:5443   */\n  tag_104\n  tag_20\n  jump\t// in\ntag_104:\n    /* \"#utility.yul\":5389:5445   */\ntag_103:\n    /* \"#utility.yul\":5469:5507   */\n  tag_105\n    /* \"#utility.yul\":5501:5505   */\n  dup3\n    /* \"#utility.yul\":5495:5506   */\n  sload\n    /* \"#utility.yul\":5469:5507   */\n  tag_22\n  jump\t// in\ntag_105:\n    /* \"#utility.yul\":5554:5621   */\n  tag_106\n    /* \"#utility.yul\":5614:5620   */\n  dup3\n    /* \"#utility.yul\":5606:5612   */\n  dup3\n    /* \"#utility.yul\":5600:5604   */\n  dup6\n    /* \"#utility.yul\":5554:5621   */\n  tag_35\n  jump\t// in\ntag_106:\n    /* \"#utility.yul\":5648:5649   */\n  0x00\n    /* \"#utility.yul\":5672:5676   */\n  0x20\n    /* \"#utility.yul\":5659:5676   */\n  swap1\n  pop\n    /* \"#utility.yul\":5704:5706   */\n  0x1f\n    /* \"#utility.yul\":5696:5702   */\n  dup4\n    /* \"#utility.yul\":5693:5707   */\n  gt\n    /* \"#utility.yul\":5721:5722   */\n  0x01\n    /* \"#utility.yul\":5716:6334   */\n  dup2\n  eq\n  tag_108\n  jumpi\n    /* \"#utility.yul\":6378:6379   */\n  0x00\n    /* \"#utility.yul\":6395:6401   */\n  dup5\n    /* \"#utility.yul\":6392:6469   */\n  iszero\n  tag_109\n  jumpi\n    /* \"#utility.yul\":6444:6453   */\n  dup3\n    /* \"#utility.yul\":6439:6442   */\n  dup8\n    /* \"#utility.yul\":6435:6454   */\n  add\n    /* \"#utility.yul\":6429:6455   */\n  mload\n    /* \"#utility.yul\":6420:6455   */\n  swap1\n  pop\n    /* \"#utility.yul\":6392:6469   */\ntag_109:\n    /* \"#utility.yul\":6495:6562   */\n  tag_110\n    /* \"#utility.yul\":6555:6561   */\n  dup6\n    /* \"#utility.yul\":6548:6553   */\n  dup3\n    /* \"#utility.yul\":6495:6562   */\n  tag_38\n  jump\t// in\ntag_110:\n    /* \"#utility.yul\":6489:6493   */\n  dup7\n    /* \"#utility.yul\":6482:6563   */\n  sstore\n    /* \"#utility.yul\":6351:6573   */\n  pop\n    /* \"#utility.yul\":5686:6573   */\n  jump(tag_107)\n    /* \"#utility.yul\":5716:6334   */\ntag_108:\n    /* \"#utility.yul\":5768:5772   */\n  0x1f\n    /* \"#utility.yul\":5764:5773   */\n  not\n    /* \"#utility.yul\":5756:5762   */\n  dup5\n    /* \"#utility.yul\":5752:5774   */\n  and\n    /* \"#utility.yul\":5802:5839   */\n  tag_111\n    /* \"#utility.yul\":5834:5838   */\n  dup7\n    /* \"#utility.yul\":5802:5839   */\n  tag_23\n  jump\t// in\ntag_111:\n    /* \"#utility.yul\":5861:5862   */\n  0x00\n    /* \"#utility.yul\":5875:6083   */\ntag_112:\n    /* \"#utility.yul\":5889:5896   */\n  dup3\n    /* \"#utility.yul\":5886:5887   */\n  dup2\n    /* \"#utility.yul\":5883:5897   */\n  lt\n    /* \"#utility.yul\":5875:6083   */\n  iszero\n  tag_114\n  jumpi\n    /* \"#utility.yul\":5968:5977   */\n  dup5\n    /* \"#utility.yul\":5963:5966   */\n  dup10\n    /* \"#utility.yul\":5959:5978   */\n  add\n    /* \"#utility.yul\":5953:5979   */\n  mload\n    /* \"#utility.yul\":5945:5951   */\n  dup3\n    /* \"#utility.yul\":5938:5980   */\n  sstore\n    /* \"#utility.yul\":6019:6020   */\n  0x01\n    /* \"#utility.yul\":6011:6017   */\n  dup3\n    /* \"#utility.yul\":6007:6021   */\n  add\n    /* \"#utility.yul\":5997:6021   */\n  swap2\n  pop\n    /* \"#utility.yul\":6066:6068   */\n  0x20\n    /* \"#utility.yul\":6055:6064   */\n  dup6\n    /* \"#utility.yul\":6051:6069   */\n  add\n    /* \"#utility.yul\":6038:6069   */\n  swap5\n  pop\n    /* \"#utility.yul\":5912:5916   */\n  0x20\n    /* \"#utility.yul\":5909:5910   */\n  dup2\n    /* \"#utility.yul\":5905:5917   */\n  add\n    /* \"#utility.yul\":5900:5917   */\n  swap1\n  pop\n    /* \"#utility.yul\":5875:6083   */\n  jump(tag_112)\ntag_114:\n    /* \"#utility.yul\":6111:6117   */\n  dup7\n    /* \"#utility.yul\":6102:6109   */\n  dup4\n    /* \"#utility.yul\":6099:6118   */\n  lt\n    /* \"#utility.yul\":6096:6275   */\n  iszero\n  tag_115\n  jumpi\n    /* \"#utility.yul\":6169:6178   */\n  dup5\n    /* \"#utility.yul\":6164:6167   */\n  dup10\n    /* \"#utility.yul\":6160:6179   */\n  add\n    /* \"#utility.yul\":6154:6180   */\n  mload\n    /* \"#utility.yul\":6212:6260   */\n  tag_116\n    /* \"#utility.yul\":6254:6258   */\n  0x1f\n    /* \"#utility.yul\":6246:6252   */\n  dup10\n    /* \"#utility.yul\":6242:6259   */\n  and\n    /* \"#utility.yul\":6231:6240   */\n  dup3\n    /* \"#utility.yul\":6212:6260   */\n  tag_37\n  jump\t// in\ntag_116:\n    /* \"#utility.yul\":6204:6210   */\n  dup4\n    /* \"#utility.yul\":6197:6261   */\n  sstore\n    /* \"#utility.yul\":6119:6275   */\n  pop\n    /* \"#utility.yul\":6096:6275   */\ntag_115:\n    /* \"#utility.yul\":6321:6322   */\n  0x01\n    /* \"#utility.yul\":6317:6318   */\n  0x02\n    /* \"#utility.yul\":6309:6315   */\n  dup9\n    /* \"#utility.yul\":6305:6319   */\n  mul\n    /* \"#utility.yul\":6301:6323   */\n  add\n    /* \"#utility.yul\":6295:6299   */\n  dup9\n    /* \"#utility.yul\":6288:6324   */\n  sstore\n    /* \"#utility.yul\":5723:6334   */\n  pop\n  pop\n  pop\n    /* \"#utility.yul\":5686:6573   */\ntag_107:\n  pop\n    /* \"#utility.yul\":5276:6579   */\n  pop\n  pop\n  pop\n    /* \"#utility.yul\":5184:6579   */\n  pop\n  pop\n  jump\t// out\n    /* \"SimpleSwap.sol\":978:10913  contract SimpleSwap is ERC20 {... */\ntag_11:\n  dataSize(sub_0)\n  dup1\n  dataOffset(sub_0)\n  0x00\n  codecopy\n  0x00\n  return\nstop\n\nsub_0: assembly {\n        /* \"SimpleSwap.sol\":978:10913  contract SimpleSwap is ERC20 {... */\n      mstore(0x40, 0x80)\n      callvalue\n      dup1\n      iszero\n      tag_1\n      jumpi\n      revert(0x00, 0x00)\n    tag_1:\n      pop\n      jumpi(tag_2, lt(calldatasize, 0x04))\n      shr(0xe0, calldataload(0x00))\n      dup1\n      0x5f64b55b\n      gt\n      tag_21\n      jumpi\n      dup1\n      0xac41865a\n      gt\n      tag_22\n      jumpi\n      dup1\n      0xac41865a\n      eq\n      tag_16\n      jumpi\n      dup1\n      0xbaa2abde\n      eq\n      tag_17\n      jumpi\n      dup1\n      0xdc5fa6c5\n      eq\n      tag_18\n      jumpi\n      dup1\n      0xdd62ed3e\n      eq\n      tag_19\n      jumpi\n      dup1\n      0xe8e33700\n      eq\n      tag_20\n      jumpi\n      jump(tag_2)\n    tag_22:\n      dup1\n      0x5f64b55b\n      eq\n      tag_12\n      jumpi\n      dup1\n      0x70a08231\n      eq\n      tag_13\n      jumpi\n      dup1\n      0x95d89b41\n      eq\n      tag_14\n      jumpi\n      dup1\n      0xa9059cbb\n      eq\n      tag_15\n      jumpi\n      jump(tag_2)\n    tag_21:\n      dup1\n      0x18160ddd\n      gt\n      tag_23\n      jumpi\n      dup1\n      0x18160ddd\n      eq\n      tag_7\n      jumpi\n      dup1\n      0x19e36f3b\n      eq\n      tag_8\n      jumpi\n      dup1\n      0x23b872dd\n      eq\n      tag_9\n      jumpi\n      dup1\n      0x313ce567\n      eq\n      tag_10\n      jumpi\n      dup1\n      0x38ed1739\n      eq\n      tag_11\n      jumpi\n      jump(tag_2)\n    tag_23:\n      dup1\n      0x054d50d4\n      eq\n      tag_3\n      jumpi\n      dup1\n      0x06fdde03\n      eq\n      tag_4\n      jumpi\n      dup1\n      0x095ea7b3\n      eq\n      tag_5\n      jumpi\n      dup1\n      0x0fc63d10\n      eq\n      tag_6\n      jumpi\n    tag_2:\n      revert(0x00, 0x00)\n        /* \"SimpleSwap.sol\":10525:10908  function getAmountOut(uint amountIn, uint reserveIn, uint reserveOut) external pure returns (uint amountOut) {... */\n    tag_3:\n      tag_24\n      0x04\n      dup1\n      calldatasize\n      sub\n      dup2\n      add\n      swap1\n      tag_25\n      swap2\n      swap1\n      tag_26\n      jump\t// in\n    tag_25:\n      tag_27\n      jump\t// in\n    tag_24:\n      mload(0x40)\n      tag_28\n      swap2\n      swap1\n      tag_29\n      jump\t// in\n    tag_28:\n      mload(0x40)\n      dup1\n      swap2\n      sub\n      swap1\n      return\n        /* \"@openzeppelin/contracts/token/ERC20/ERC20.sol\":1760:1849  function name() public view virtual returns (string memory) {... */\n    tag_4:\n      tag_30\n      tag_31\n      jump\t// in\n    tag_30:\n      mload(0x40)\n      tag_32\n      swap2\n      swap1\n      tag_33\n      jump\t// in\n    tag_32:\n      mload(0x40)\n      dup1\n      swap2\n      sub\n      swap1\n      return\n        /* \"@openzeppelin/contracts/token/ERC20/ERC20.sol\":3979:4165  function approve(address spender, uint256 value) public virtual returns (bool) {... */\n    tag_5:\n      tag_34\n      0x04\n      dup1\n      calldatasize\n      sub\n      dup2\n      add\n      swap1\n      tag_35\n      swap2\n      swap1\n      tag_36\n      jump\t// in\n    tag_35:\n      tag_37\n      jump\t// in\n    tag_34:\n      mload(0x40)\n      tag_38\n      swap2\n      swap1\n      tag_39\n      jump\t// in\n    tag_38:\n      mload(0x40)\n      dup1\n      swap2\n      sub\n      swap1\n      return\n        /* \"SimpleSwap.sol\":1063:1083  IERC20 public tokenA */\n    tag_6:\n      tag_40\n      tag_41\n      jump\t// in\n    tag_40:\n      mload(0x40)\n      tag_42\n      swap2\n      swap1\n      tag_43\n      jump\t// in\n    tag_42:\n      mload(0x40)\n      dup1\n      swap2\n      sub\n      swap1\n      return\n        /* \"@openzeppelin/contracts/token/ERC20/ERC20.sol\":2830:2927  function totalSupply() public view virtual returns (uint256) {... */\n    tag_7:\n      tag_44\n      tag_45\n      jump\t// in\n    tag_44:\n      mload(0x40)\n      tag_46\n      swap2\n      swap1\n      tag_29\n      jump\t// in\n    tag_46:\n      mload(0x40)\n      dup1\n      swap2\n      sub\n      swap1\n      return\n        /* \"SimpleSwap.sol\":1288:1311  uint256 public reserveB */\n    tag_8:\n      tag_47\n      tag_48\n      jump\t// in\n    tag_47:\n      mload(0x40)\n      tag_49\n      swap2\n      swap1\n      tag_29\n      jump\t// in\n    tag_49:\n      mload(0x40)\n      dup1\n      swap2\n      sub\n      swap1\n      return\n        /* \"@openzeppelin/contracts/token/ERC20/ERC20.sol\":4757:5001  function transferFrom(address from, address to, uint256 value) public virtual returns (bool) {... */\n    tag_9:\n      tag_50\n      0x04\n      dup1\n      calldatasize\n      sub\n      dup2\n      add\n      swap1\n      tag_51\n      swap2\n      swap1\n      tag_52\n      jump\t// in\n    tag_51:\n      tag_53\n      jump\t// in\n    tag_50:\n      mload(0x40)\n      tag_54\n      swap2\n      swap1\n      tag_39\n      jump\t// in\n    tag_54:\n      mload(0x40)\n      dup1\n      swap2\n      sub\n      swap1\n      return\n        /* \"@openzeppelin/contracts/token/ERC20/ERC20.sol\":2688:2770  function decimals() public view virtual returns (uint8) {... */\n    tag_10:\n      tag_55\n      tag_56\n      jump\t// in\n    tag_55:\n      mload(0x40)\n      tag_57\n      swap2\n      swap1\n      tag_58\n      jump\t// in\n    tag_57:\n      mload(0x40)\n      dup1\n      swap2\n      sub\n      swap1\n      return\n        /* \"SimpleSwap.sol\":8180:9630  function swapExactTokensForTokens(... */\n    tag_11:\n      tag_59\n      0x04\n      dup1\n      calldatasize\n      sub\n      dup2\n      add\n      swap1\n      tag_60\n      swap2\n      swap1\n      tag_61\n      jump\t// in\n    tag_60:\n      tag_62\n      jump\t// in\n    tag_59:\n      mload(0x40)\n      tag_63\n      swap2\n      swap1\n      tag_64\n      jump\t// in\n    tag_63:\n      mload(0x40)\n      dup1\n      swap2\n      sub\n      swap1\n      return\n        /* \"SimpleSwap.sol\":1139:1159  IERC20 public tokenB */\n    tag_12:\n      tag_65\n      tag_66\n      jump\t// in\n    tag_65:\n      mload(0x40)\n      tag_67\n      swap2\n      swap1\n      tag_43\n      jump\t// in\n    tag_67:\n      mload(0x40)\n      dup1\n      swap2\n      sub\n      swap1\n      return\n        /* \"@openzeppelin/contracts/token/ERC20/ERC20.sol\":2985:3101  function balanceOf(address account) public view virtual returns (uint256) {... */\n    tag_13:\n      tag_68\n      0x04\n      dup1\n      calldatasize\n      sub\n      dup2\n      add\n      swap1\n      tag_69\n      swap2\n      swap1\n      tag_70\n      jump\t// in\n    tag_69:\n      tag_71\n      jump\t// in\n    tag_68:\n      mload(0x40)\n      tag_72\n      swap2\n      swap1\n      tag_29\n      jump\t// in\n    tag_72:\n      mload(0x40)\n      dup1\n      swap2\n      sub\n      swap1\n      return\n        /* \"@openzeppelin/contracts/token/ERC20/ERC20.sol\":1962:2055  function symbol() public view virtual returns (string memory) {... */\n    tag_14:\n      tag_73\n      tag_74\n      jump\t// in\n    tag_73:\n      mload(0x40)\n      tag_75\n      swap2\n      swap1\n      tag_33\n      jump\t// in\n    tag_75:\n      mload(0x40)\n      dup1\n      swap2\n      sub\n      swap1\n      return\n        /* \"@openzeppelin/contracts/token/ERC20/ERC20.sol\":3296:3474  function transfer(address to, uint256 value) public virtual returns (bool) {... */\n    tag_15:\n      tag_76\n      0x04\n      dup1\n      calldatasize\n      sub\n      dup2\n      add\n      swap1\n      tag_77\n      swap2\n      swap1\n      tag_36\n      jump\t// in\n    tag_77:\n      tag_78\n      jump\t// in\n    tag_76:\n      mload(0x40)\n      tag_79\n      swap2\n      swap1\n      tag_39\n      jump\t// in\n    tag_79:\n      mload(0x40)\n      dup1\n      swap2\n      sub\n      swap1\n      return\n        /* \"SimpleSwap.sol\":9867:10203  function getPrice(... */\n    tag_16:\n      tag_80\n      0x04\n      dup1\n      calldatasize\n      sub\n      dup2\n      add\n      swap1\n      tag_81\n      swap2\n      swap1\n      tag_82\n      jump\t// in\n    tag_81:\n      tag_83\n      jump\t// in\n    tag_80:\n      mload(0x40)\n      tag_84\n      swap2\n      swap1\n      tag_29\n      jump\t// in\n    tag_84:\n      mload(0x40)\n      dup1\n      swap2\n      sub\n      swap1\n      return\n        /* \"SimpleSwap.sol\":6471:7700  function removeLiquidity(... */\n    tag_17:\n      tag_85\n      0x04\n      dup1\n      calldatasize\n      sub\n      dup2\n      add\n      swap1\n      tag_86\n      swap2\n      swap1\n      tag_87\n      jump\t// in\n    tag_86:\n      tag_88\n      jump\t// in\n    tag_85:\n      mload(0x40)\n      tag_89\n      swap3\n      swap2\n      swap1\n      tag_90\n      jump\t// in\n    tag_89:\n      mload(0x40)\n      dup1\n      swap2\n      sub\n      swap1\n      return\n        /* \"SimpleSwap.sol\":1213:1236  uint256 public reserveA */\n    tag_18:\n      tag_91\n      tag_92\n      jump\t// in\n    tag_91:\n      mload(0x40)\n      tag_93\n      swap2\n      swap1\n      tag_29\n      jump\t// in\n    tag_93:\n      mload(0x40)\n      dup1\n      swap2\n      sub\n      swap1\n      return\n        /* \"@openzeppelin/contracts/token/ERC20/ERC20.sol\":3532:3672  function allowance(address owner, address spender) public view virtual returns (uint256) {... */\n    tag_19:\n      tag_94\n      0x04\n      dup1\n      calldatasize\n      sub\n      dup2\n      add\n      swap1\n      tag_95\n      swap2\n      swap1\n      tag_82\n      jump\t// in\n    tag_95:\n      tag_96\n      jump\t// in\n    tag_94:\n      mload(0x40)\n      tag_97\n      swap2\n      swap1\n      tag_29\n      jump\t// in\n    tag_97:\n      mload(0x40)\n      dup1\n      swap2\n      sub\n      swap1\n      return\n        /* \"SimpleSwap.sol\":2374:3736  function addLiquidity(... */\n    tag_20:\n      tag_98\n      0x04\n      dup1\n      calldatasize\n      sub\n      dup2\n      add\n      swap1\n      tag_99\n      swap2\n      swap1\n      tag_100\n      jump\t// in\n    tag_99:\n      tag_101\n      jump\t// in\n    tag_98:\n      mload(0x40)\n      tag_102\n      swap4\n      swap3\n      swap2\n      swap1\n      tag_103\n      jump\t// in\n    tag_102:\n      mload(0x40)\n      dup1\n      swap2\n      sub\n      swap1\n      return\n        /* \"SimpleSwap.sol\":10525:10908  function getAmountOut(uint amountIn, uint reserveIn, uint reserveOut) external pure returns (uint amountOut) {... */\n    tag_27:\n        /* \"SimpleSwap.sol\":10618:10632  uint amountOut */\n      0x00\n        /* \"SimpleSwap.sol\":10664:10665  0 */\n      0x00\n        /* \"SimpleSwap.sol\":10653:10661  amountIn */\n      dup5\n        /* \"SimpleSwap.sol\":10653:10665  amountIn > 0 */\n      gt\n        /* \"SimpleSwap.sol\":10645:10686  require(amountIn > 0, \"Invalid amountIn\") */\n      tag_105\n      jumpi\n      mload(0x40)\n      0x08c379a000000000000000000000000000000000000000000000000000000000\n      dup2\n      mstore\n      0x04\n      add\n      tag_106\n      swap1\n      tag_107\n      jump\t// in\n    tag_106:\n      mload(0x40)\n      dup1\n      swap2\n      sub\n      swap1\n      revert\n    tag_105:\n        /* \"SimpleSwap.sol\":10717:10718  0 */\n      0x00\n        /* \"SimpleSwap.sol\":10705:10714  reserveIn */\n      dup4\n        /* \"SimpleSwap.sol\":10705:10718  reserveIn > 0 */\n      gt\n        /* \"SimpleSwap.sol\":10697:10740  require(reserveIn > 0, \"Invalid reserveIn\") */\n      tag_108\n      jumpi\n      mload(0x40)\n      0x08c379a000000000000000000000000000000000000000000000000000000000\n      dup2\n      mstore\n      0x04\n      add\n      tag_109\n      swap1\n      tag_110\n      jump\t// in\n    tag_109:\n      mload(0x40)\n      dup1\n      swap2\n      sub\n      swap1\n      revert\n    tag_108:\n        /* \"SimpleSwap.sol\":10772:10773  0 */\n      0x00\n        /* \"SimpleSwap.sol\":10759:10769  reserveOut */\n      dup3\n        /* \"SimpleSwap.sol\":10759:10773  reserveOut > 0 */\n      gt\n        /* \"SimpleSwap.sol\":10751:10796  require(reserveOut > 0, \"Invalid reserveOut\") */\n      tag_111\n      jumpi\n      mload(0x40)\n      0x08c379a000000000000000000000000000000000000000000000000000000000\n      dup2\n      mstore\n      0x04\n      add\n      tag_112\n      swap1\n      tag_113\n      jump\t// in\n    tag_112:\n      mload(0x40)\n      dup1\n      swap2\n      sub\n      swap1\n      revert\n    tag_111:\n        /* \"SimpleSwap.sol\":10891:10899  amountIn */\n      dup4\n        /* \"SimpleSwap.sol\":10879:10888  reserveIn */\n      dup4\n        /* \"SimpleSwap.sol\":10879:10899  reserveIn + amountIn */\n      tag_114\n      swap2\n      swap1\n      tag_115\n      jump\t// in\n    tag_114:\n        /* \"SimpleSwap.sol\":10864:10874  reserveOut */\n      dup3\n        /* \"SimpleSwap.sol\":10853:10861  amountIn */\n      dup6\n        /* \"SimpleSwap.sol\":10853:10874  amountIn * reserveOut */\n      tag_116\n      swap2\n      swap1\n      tag_117\n      jump\t// in\n    tag_116:\n        /* \"SimpleSwap.sol\":10852:10900  (amountIn * reserveOut) / (reserveIn + amountIn) */\n      tag_118\n      swap2\n      swap1\n      tag_119\n      jump\t// in\n    tag_118:\n        /* \"SimpleSwap.sol\":10840:10900  amountOut = (amountIn * reserveOut) / (reserveIn + amountIn) */\n      swap1\n      pop\n        /* \"SimpleSwap.sol\":10525:10908  function getAmountOut(uint amountIn, uint reserveIn, uint reserveOut) external pure returns (uint amountOut) {... */\n      swap4\n      swap3\n      pop\n      pop\n      pop\n      jump\t// out\n        /* \"@openzeppelin/contracts/token/ERC20/ERC20.sol\":1760:1849  function name() public view virtual returns (string memory) {... */\n    tag_31:\n        /* \"@openzeppelin/contracts/token/ERC20/ERC20.sol\":1805:1818  string memory */\n      0x60\n        /* \"@openzeppelin/contracts/token/ERC20/ERC20.sol\":1837:1842  _name */\n      0x03\n        /* \"@openzeppelin/contracts/token/ERC20/ERC20.sol\":1830:1842  return _name */\n      dup1\n      sload\n      tag_121\n      swap1\n      tag_122\n      jump\t// in\n    tag_121:\n      dup1\n      0x1f\n      add\n      0x20\n      dup1\n      swap2\n      div\n      mul\n      0x20\n      add\n      mload(0x40)\n      swap1\n      dup2\n      add\n      0x40\n      mstore\n      dup1\n      swap3\n      swap2\n      swap1\n      dup2\n      dup2\n      mstore\n      0x20\n      add\n      dup3\n      dup1\n      sload\n      tag_123\n      swap1\n      tag_122\n      jump\t// in\n    tag_123:\n      dup1\n      iszero\n      tag_124\n      jumpi\n      dup1\n      0x1f\n      lt\n      tag_125\n      jumpi\n      0x0100\n      dup1\n      dup4\n      sload\n      div\n      mul\n      dup4\n      mstore\n      swap2\n      0x20\n      add\n      swap2\n      jump(tag_124)\n    tag_125:\n      dup3\n      add\n      swap2\n      swap1\n      0x00\n      mstore\n      keccak256(0x00, 0x20)\n      swap1\n    tag_126:\n      dup2\n      sload\n      dup2\n      mstore\n      swap1\n      0x01\n      add\n      swap1\n      0x20\n      add\n      dup1\n      dup4\n      gt\n      tag_126\n      jumpi\n      dup3\n      swap1\n      sub\n      0x1f\n      and\n      dup3\n      add\n      swap2\n    tag_124:\n      pop\n      pop\n      pop\n      pop\n      pop\n      swap1\n      pop\n        /* \"@openzeppelin/contracts/token/ERC20/ERC20.sol\":1760:1849  function name() public view virtual returns (string memory) {... */\n      swap1\n      jump\t// out\n        /* \"@openzeppelin/contracts/token/ERC20/ERC20.sol\":3979:4165  function approve(address spender, uint256 value) public virtual returns (bool) {... */\n    tag_37:\n        /* \"@openzeppelin/contracts/token/ERC20/ERC20.sol\":4052:4056  bool */\n      0x00\n        /* \"@openzeppelin/contracts/token/ERC20/ERC20.sol\":4068:4081  address owner */\n      0x00\n        /* \"@openzeppelin/contracts/token/ERC20/ERC20.sol\":4084:4096  _msgSender() */\n      tag_128\n        /* \"@openzeppelin/contracts/token/ERC20/ERC20.sol\":4084:4094  _msgSender */\n      tag_129\n        /* \"@openzeppelin/contracts/token/ERC20/ERC20.sol\":4084:4096  _msgSender() */\n      jump\t// in\n    tag_128:\n        /* \"@openzeppelin/contracts/token/ERC20/ERC20.sol\":4068:4096  address owner = _msgSender() */\n      swap1\n      pop\n        /* \"@openzeppelin/contracts/token/ERC20/ERC20.sol\":4106:4137  _approve(owner, spender, value) */\n      tag_130\n        /* \"@openzeppelin/contracts/token/ERC20/ERC20.sol\":4115:4120  owner */\n      dup2\n        /* \"@openzeppelin/contracts/token/ERC20/ERC20.sol\":4122:4129  spender */\n      dup6\n        /* \"@openzeppelin/contracts/token/ERC20/ERC20.sol\":4131:4136  value */\n      dup6\n        /* \"@openzeppelin/contracts/token/ERC20/ERC20.sol\":4106:4114  _approve */\n      tag_131\n        /* \"@openzeppelin/contracts/token/ERC20/ERC20.sol\":4106:4137  _approve(owner, spender, value) */\n      jump\t// in\n    tag_130:\n        /* \"@openzeppelin/contracts/token/ERC20/ERC20.sol\":4154:4158  true */\n      0x01\n        /* \"@openzeppelin/contracts/token/ERC20/ERC20.sol\":4147:4158  return true */\n      swap2\n      pop\n      pop\n        /* \"@openzeppelin/contracts/token/ERC20/ERC20.sol\":3979:4165  function approve(address spender, uint256 value) public virtual returns (bool) {... */\n      swap3\n      swap2\n      pop\n      pop\n      jump\t// out\n        /* \"SimpleSwap.sol\":1063:1083  IERC20 public tokenA */\n    tag_41:\n      0x05\n      0x00\n      swap1\n      sload\n      swap1\n      0x0100\n      exp\n      swap1\n      div\n      0xffffffffffffffffffffffffffffffffffffffff\n      and\n      dup2\n      jump\t// out\n        /* \"@openzeppelin/contracts/token/ERC20/ERC20.sol\":2830:2927  function totalSupply() public view virtual returns (uint256) {... */\n    tag_45:\n        /* \"@openzeppelin/contracts/token/ERC20/ERC20.sol\":2882:2889  uint256 */\n      0x00\n        /* \"@openzeppelin/contracts/token/ERC20/ERC20.sol\":2908:2920  _totalSupply */\n      sload(0x02)\n        /* \"@openzeppelin/contracts/token/ERC20/ERC20.sol\":2901:2920  return _totalSupply */\n      swap1\n      pop\n        /* \"@openzeppelin/contracts/token/ERC20/ERC20.sol\":2830:2927  function totalSupply() public view virtual returns (uint256) {... */\n      swap1\n      jump\t// out\n        /* \"SimpleSwap.sol\":1288:1311  uint256 public reserveB */\n    tag_48:\n      sload(0x08)\n      dup2\n      jump\t// out\n        /* \"@openzeppelin/contracts/token/ERC20/ERC20.sol\":4757:5001  function transferFrom(address from, address to, uint256 value) public virtual returns (bool) {... */\n    tag_53:\n        /* \"@openzeppelin/contracts/token/ERC20/ERC20.sol\":4844:4848  bool */\n      0x00\n        /* \"@openzeppelin/contracts/token/ERC20/ERC20.sol\":4860:4875  address spender */\n      0x00\n        /* \"@openzeppelin/contracts/token/ERC20/ERC20.sol\":4878:4890  _msgSender() */\n      tag_134\n        /* \"@openzeppelin/contracts/token/ERC20/ERC20.sol\":4878:4888  _msgSender */\n      tag_129\n        /* \"@openzeppelin/contracts/token/ERC20/ERC20.sol\":4878:4890  _msgSender() */\n      jump\t// in\n    tag_134:\n        /* \"@openzeppelin/contracts/token/ERC20/ERC20.sol\":4860:4890  address spender = _msgSender() */\n      swap1\n      pop\n        /* \"@openzeppelin/contracts/token/ERC20/ERC20.sol\":4900:4937  _spendAllowance(from, spender, value) */\n      tag_135\n        /* \"@openzeppelin/contracts/token/ERC20/ERC20.sol\":4916:4920  from */\n      dup6\n        /* \"@openzeppelin/contracts/token/ERC20/ERC20.sol\":4922:4929  spender */\n      dup3\n        /* \"@openzeppelin/contracts/token/ERC20/ERC20.sol\":4931:4936  value */\n      dup6\n        /* \"@openzeppelin/contracts/token/ERC20/ERC20.sol\":4900:4915  _spendAllowance */\n      tag_136\n        /* \"@openzeppelin/contracts/token/ERC20/ERC20.sol\":4900:4937  _spendAllowance(from, spender, value) */\n      jump\t// in\n    tag_135:\n        /* \"@openzeppelin/contracts/token/ERC20/ERC20.sol\":4947:4973  _transfer(from, to, value) */\n      tag_137\n        /* \"@openzeppelin/contracts/token/ERC20/ERC20.sol\":4957:4961  from */\n      dup6\n        /* \"@openzeppelin/contracts/token/ERC20/ERC20.sol\":4963:4965  to */\n      dup6\n        /* \"@openzeppelin/contracts/token/ERC20/ERC20.sol\":4967:4972  value */\n      dup6\n        /* \"@openzeppelin/contracts/token/ERC20/ERC20.sol\":4947:4956  _transfer */\n      tag_138\n        /* \"@openzeppelin/contracts/token/ERC20/ERC20.sol\":4947:4973  _transfer(from, to, value) */\n      jump\t// in\n    tag_137:\n        /* \"@openzeppelin/contracts/token/ERC20/ERC20.sol\":4990:4994  true */\n      0x01\n        /* \"@openzeppelin/contracts/token/ERC20/ERC20.sol\":4983:4994  return true */\n      swap2\n      pop\n      pop\n        /* \"@openzeppelin/contracts/token/ERC20/ERC20.sol\":4757:5001  function transferFrom(address from, address to, uint256 value) public virtual returns (bool) {... */\n      swap4\n      swap3\n      pop\n      pop\n      pop\n      jump\t// out\n        /* \"@openzeppelin/contracts/token/ERC20/ERC20.sol\":2688:2770  function decimals() public view virtual returns (uint8) {... */\n    tag_56:\n        /* \"@openzeppelin/contracts/token/ERC20/ERC20.sol\":2737:2742  uint8 */\n      0x00\n        /* \"@openzeppelin/contracts/token/ERC20/ERC20.sol\":2761:2763  18 */\n      0x12\n        /* \"@openzeppelin/contracts/token/ERC20/ERC20.sol\":2754:2763  return 18 */\n      swap1\n      pop\n        /* \"@openzeppelin/contracts/token/ERC20/ERC20.sol\":2688:2770  function decimals() public view virtual returns (uint8) {... */\n      swap1\n      jump\t// out\n        /* \"SimpleSwap.sol\":8180:9630  function swapExactTokensForTokens(... */\n    tag_62:\n        /* \"SimpleSwap.sol\":8374:8395  uint[] memory amounts */\n      0x60\n        /* \"SimpleSwap.sol\":8427:8428  0 */\n      0x00\n        /* \"SimpleSwap.sol\":8416:8424  amountIn */\n      dup8\n        /* \"SimpleSwap.sol\":8416:8428  amountIn > 0 */\n      gt\n        /* \"SimpleSwap.sol\":8416:8448  amountIn > 0 && amountOutMin > 0 */\n      dup1\n      iszero\n      tag_141\n      jumpi\n      pop\n        /* \"SimpleSwap.sol\":8447:8448  0 */\n      0x00\n        /* \"SimpleSwap.sol\":8432:8444  amountOutMin */\n      dup7\n        /* \"SimpleSwap.sol\":8432:8448  amountOutMin > 0 */\n      gt\n        /* \"SimpleSwap.sol\":8416:8448  amountIn > 0 && amountOutMin > 0 */\n    tag_141:\n        /* \"SimpleSwap.sol\":8408:8468  require(amountIn > 0 && amountOutMin > 0, \"Invalid amounts\") */\n      tag_142\n      jumpi\n      mload(0x40)\n      0x08c379a000000000000000000000000000000000000000000000000000000000\n      dup2\n      mstore\n      0x04\n      add\n      tag_143\n      swap1\n      tag_144\n      jump\t// in\n    tag_143:\n      mload(0x40)\n      dup1\n      swap2\n      sub\n      swap1\n      revert\n    tag_142:\n        /* \"SimpleSwap.sol\":8506:8514  deadline */\n      dup2\n        /* \"SimpleSwap.sol\":8487:8502  block.timestamp */\n      timestamp\n        /* \"SimpleSwap.sol\":8487:8514  block.timestamp <= deadline */\n      gt\n      iszero\n        /* \"SimpleSwap.sol\":8479:8538  require(block.timestamp <= deadline, \"Transaction expired\") */\n      tag_145\n      jumpi\n      mload(0x40)\n      0x08c379a000000000000000000000000000000000000000000000000000000000\n      dup2\n      mstore\n      0x04\n      add\n      tag_146\n      swap1\n      tag_147\n      jump\t// in\n    tag_146:\n      mload(0x40)\n      dup1\n      swap2\n      sub\n      swap1\n      revert\n    tag_145:\n        /* \"SimpleSwap.sol\":8572:8573  2 */\n      0x02\n        /* \"SimpleSwap.sol\":8557:8561  path */\n      dup6\n      dup6\n        /* \"SimpleSwap.sol\":8557:8568  path.length */\n      swap1\n      pop\n        /* \"SimpleSwap.sol\":8557:8573  path.length == 2 */\n      eq\n        /* \"SimpleSwap.sol\":8549:8598  require(path.length == 2, \"Invalid tokens count\") */\n      tag_148\n      jumpi\n      mload(0x40)\n      0x08c379a000000000000000000000000000000000000000000000000000000000\n      dup2\n      mstore\n      0x04\n      add\n      tag_149\n      swap1\n      tag_150\n      jump\t// in\n    tag_149:\n      mload(0x40)\n      dup1\n      swap2\n      sub\n      swap1\n      revert\n    tag_148:\n        /* \"SimpleSwap.sol\":8611:8630  address tokenInAddr */\n      0x00\n        /* \"SimpleSwap.sol\":8633:8637  path */\n      dup6\n      dup6\n        /* \"SimpleSwap.sol\":8638:8639  0 */\n      0x00\n        /* \"SimpleSwap.sol\":8633:8640  path[0] */\n      dup2\n      dup2\n      lt\n      tag_151\n      jumpi\n      tag_152\n      tag_153\n      jump\t// in\n    tag_152:\n    tag_151:\n      swap1\n      pop\n      0x20\n      mul\n      add\n      0x20\n      dup2\n      add\n      swap1\n      tag_154\n      swap2\n      swap1\n      tag_70\n      jump\t// in\n    tag_154:\n        /* \"SimpleSwap.sol\":8611:8640  address tokenInAddr = path[0] */\n      swap1\n      pop\n        /* \"SimpleSwap.sol\":8651:8671  address tokenOutAddr */\n      0x00\n        /* \"SimpleSwap.sol\":8674:8678  path */\n      dup7\n      dup7\n        /* \"SimpleSwap.sol\":8679:8680  1 */\n      0x01\n        /* \"SimpleSwap.sol\":8674:8681  path[1] */\n      dup2\n      dup2\n      lt\n      tag_155\n      jumpi\n      tag_156\n      tag_153\n      jump\t// in\n    tag_156:\n    tag_155:\n      swap1\n      pop\n      0x20\n      mul\n      add\n      0x20\n      dup2\n      add\n      swap1\n      tag_157\n      swap2\n      swap1\n      tag_70\n      jump\t// in\n    tag_157:\n        /* \"SimpleSwap.sol\":8651:8681  address tokenOutAddr = path[1] */\n      swap1\n      pop\n        /* \"SimpleSwap.sol\":8738:8744  tokenA */\n      0x05\n      0x00\n      swap1\n      sload\n      swap1\n      0x0100\n      exp\n      swap1\n      div\n      0xffffffffffffffffffffffffffffffffffffffff\n      and\n        /* \"SimpleSwap.sol\":8715:8745  tokenInAddr == address(tokenA) */\n      0xffffffffffffffffffffffffffffffffffffffff\n      and\n        /* \"SimpleSwap.sol\":8715:8726  tokenInAddr */\n      dup3\n        /* \"SimpleSwap.sol\":8715:8745  tokenInAddr == address(tokenA) */\n      0xffffffffffffffffffffffffffffffffffffffff\n      and\n      eq\n        /* \"SimpleSwap.sol\":8715:8780  tokenInAddr == address(tokenA) && tokenOutAddr == address(tokenB) */\n      dup1\n      iszero\n      tag_158\n      jumpi\n      pop\n        /* \"SimpleSwap.sol\":8773:8779  tokenB */\n      0x06\n      0x00\n      swap1\n      sload\n      swap1\n      0x0100\n      exp\n      swap1\n      div\n      0xffffffffffffffffffffffffffffffffffffffff\n      and\n        /* \"SimpleSwap.sol\":8749:8780  tokenOutAddr == address(tokenB) */\n      0xffffffffffffffffffffffffffffffffffffffff\n      and\n        /* \"SimpleSwap.sol\":8749:8761  tokenOutAddr */\n      dup2\n        /* \"SimpleSwap.sol\":8749:8780  tokenOutAddr == address(tokenB) */\n      0xffffffffffffffffffffffffffffffffffffffff\n      and\n      eq\n        /* \"SimpleSwap.sol\":8715:8780  tokenInAddr == address(tokenA) && tokenOutAddr == address(tokenB) */\n    tag_158:\n        /* \"SimpleSwap.sol\":8706:8800  require((tokenInAddr == address(tokenA) && tokenOutAddr == address(tokenB)), \"Invalid tokens\") */\n      tag_159\n      jumpi\n      mload(0x40)\n      0x08c379a000000000000000000000000000000000000000000000000000000000\n      dup2\n      mstore\n      0x04\n      add\n      tag_160\n      swap1\n      tag_161\n      jump\t// in\n    tag_160:\n      mload(0x40)\n      dup1\n      swap2\n      sub\n      swap1\n      revert\n    tag_159:\n        /* \"SimpleSwap.sol\":8813:8830  IERC20 inputToken */\n      0x00\n        /* \"SimpleSwap.sol\":8840:8851  tokenInAddr */\n      dup3\n        /* \"SimpleSwap.sol\":8813:8852  IERC20 inputToken = IERC20(tokenInAddr) */\n      swap1\n      pop\n        /* \"SimpleSwap.sol\":8863:8881  IERC20 outputToken */\n      0x00\n        /* \"SimpleSwap.sol\":8891:8903  tokenOutAddr */\n      dup3\n        /* \"SimpleSwap.sol\":8863:8904  IERC20 outputToken = IERC20(tokenOutAddr) */\n      swap1\n      pop\n        /* \"SimpleSwap.sol\":8917:8934  uint256 reserveIn */\n      0x00\n        /* \"SimpleSwap.sol\":8937:8945  reserveA */\n      sload(0x07)\n        /* \"SimpleSwap.sol\":8917:8945  uint256 reserveIn = reserveA */\n      swap1\n      pop\n        /* \"SimpleSwap.sol\":8956:8974  uint256 reserveOut */\n      0x00\n        /* \"SimpleSwap.sol\":8977:8985  reserveB */\n      sload(0x08)\n        /* \"SimpleSwap.sol\":8956:8985  uint256 reserveOut = reserveB */\n      swap1\n      pop\n        /* \"SimpleSwap.sol\":8998:9017  uint256 amountIn256 */\n      0x00\n        /* \"SimpleSwap.sol\":9020:9028  amountIn */\n      dup14\n        /* \"SimpleSwap.sol\":8998:9028  uint256 amountIn256 = amountIn */\n      swap1\n      pop\n        /* \"SimpleSwap.sol\":9101:9111  inputToken */\n      dup5\n        /* \"SimpleSwap.sol\":9101:9124  inputToken.transferFrom */\n      0xffffffffffffffffffffffffffffffffffffffff\n      and\n      0x23b872dd\n        /* \"SimpleSwap.sol\":9125:9135  msg.sender */\n      caller\n        /* \"SimpleSwap.sol\":9145:9149  this */\n      address\n        /* \"SimpleSwap.sol\":9152:9163  amountIn256 */\n      dup5\n        /* \"SimpleSwap.sol\":9101:9164  inputToken.transferFrom(msg.sender, address(this), amountIn256) */\n      mload(0x40)\n      dup5\n      0xffffffff\n      and\n      0xe0\n      shl\n      dup2\n      mstore\n      0x04\n      add\n      tag_162\n      swap4\n      swap3\n      swap2\n      swap1\n      tag_163\n      jump\t// in\n    tag_162:\n      0x20\n      mload(0x40)\n      dup1\n      dup4\n      sub\n      dup2\n      0x00\n      dup8\n      gas\n      call\n      iszero\n      dup1\n      iszero\n      tag_165\n      jumpi\n      returndatacopy(0x00, 0x00, returndatasize)\n      revert(0x00, returndatasize)\n    tag_165:\n      pop\n      pop\n      pop\n      pop\n      mload(0x40)\n      returndatasize\n      not(0x1f)\n      0x1f\n      dup3\n      add\n      and\n      dup3\n      add\n      dup1\n      0x40\n      mstore\n      pop\n      dup2\n      add\n      swap1\n      tag_166\n      swap2\n      swap1\n      tag_167\n      jump\t// in\n    tag_166:\n      pop\n        /* \"SimpleSwap.sol\":9177:9191  uint amountOut */\n      0x00\n        /* \"SimpleSwap.sol\":9236:9247  amountIn256 */\n      dup2\n        /* \"SimpleSwap.sol\":9224:9233  reserveIn */\n      dup5\n        /* \"SimpleSwap.sol\":9224:9247  reserveIn + amountIn256 */\n      tag_168\n      swap2\n      swap1\n      tag_115\n      jump\t// in\n    tag_168:\n        /* \"SimpleSwap.sol\":9209:9219  reserveOut */\n      dup4\n        /* \"SimpleSwap.sol\":9195:9206  amountIn256 */\n      dup4\n        /* \"SimpleSwap.sol\":9195:9219  amountIn256 * reserveOut */\n      tag_169\n      swap2\n      swap1\n      tag_117\n      jump\t// in\n    tag_169:\n        /* \"SimpleSwap.sol\":9194:9248  (amountIn256 * reserveOut) / (reserveIn + amountIn256) */\n      tag_170\n      swap2\n      swap1\n      tag_119\n      jump\t// in\n    tag_170:\n        /* \"SimpleSwap.sol\":9177:9248  uint amountOut = (amountIn256 * reserveOut) / (reserveIn + amountIn256) */\n      swap1\n      pop\n        /* \"SimpleSwap.sol\":9280:9292  amountOutMin */\n      dup14\n        /* \"SimpleSwap.sol\":9267:9276  amountOut */\n      dup2\n        /* \"SimpleSwap.sol\":9267:9292  amountOut >= amountOutMin */\n      lt\n      iszero\n        /* \"SimpleSwap.sol\":9259:9323  require(amountOut >= amountOutMin, \"Insufficient output amount\") */\n      tag_171\n      jumpi\n      mload(0x40)\n      0x08c379a000000000000000000000000000000000000000000000000000000000\n      dup2\n      mstore\n      0x04\n      add\n      tag_172\n      swap1\n      tag_173\n      jump\t// in\n    tag_172:\n      mload(0x40)\n      dup1\n      swap2\n      sub\n      swap1\n      revert\n    tag_171:\n        /* \"SimpleSwap.sol\":9366:9377  outputToken */\n      dup5\n        /* \"SimpleSwap.sol\":9366:9386  outputToken.transfer */\n      0xffffffffffffffffffffffffffffffffffffffff\n      and\n      0xa9059cbb\n        /* \"SimpleSwap.sol\":9387:9389  to */\n      dup13\n        /* \"SimpleSwap.sol\":9391:9400  amountOut */\n      dup4\n        /* \"SimpleSwap.sol\":9366:9401  outputToken.transfer(to, amountOut) */\n      mload(0x40)\n      dup4\n      0xffffffff\n      and\n      0xe0\n      shl\n      dup2\n      mstore\n      0x04\n      add\n      tag_174\n      swap3\n      swap2\n      swap1\n      tag_175\n      jump\t// in\n    tag_174:\n      0x20\n      mload(0x40)\n      dup1\n      dup4\n      sub\n      dup2\n      0x00\n      dup8\n      gas\n      call\n      iszero\n      dup1\n      iszero\n      tag_177\n      jumpi\n      returndatacopy(0x00, 0x00, returndatasize)\n      revert(0x00, returndatasize)\n    tag_177:\n      pop\n      pop\n      pop\n      pop\n      mload(0x40)\n      returndatasize\n      not(0x1f)\n      0x1f\n      dup3\n      add\n      and\n      dup3\n      add\n      dup1\n      0x40\n      mstore\n      pop\n      dup2\n      add\n      swap1\n      tag_178\n      swap2\n      swap1\n      tag_167\n      jump\t// in\n    tag_178:\n      pop\n        /* \"SimpleSwap.sol\":9454:9462  amountIn */\n      dup15\n        /* \"SimpleSwap.sol\":9442:9450  reserveA */\n      0x07\n      0x00\n        /* \"SimpleSwap.sol\":9442:9462  reserveA += amountIn */\n      dup3\n      dup3\n      sload\n      tag_179\n      swap2\n      swap1\n      tag_115\n      jump\t// in\n    tag_179:\n      swap3\n      pop\n      pop\n      dup2\n      swap1\n      sstore\n      pop\n        /* \"SimpleSwap.sol\":9485:9494  amountOut */\n      dup1\n        /* \"SimpleSwap.sol\":9473:9481  reserveB */\n      0x08\n      0x00\n        /* \"SimpleSwap.sol\":9473:9494  reserveB -= amountOut */\n      dup3\n      dup3\n      sload\n      tag_180\n      swap2\n      swap1\n      tag_181\n      jump\t// in\n    tag_180:\n      swap3\n      pop\n      pop\n      dup2\n      swap1\n      sstore\n      pop\n        /* \"SimpleSwap.sol\":9555:9556  2 */\n      0x02\n        /* \"SimpleSwap.sol\":9544:9557  new uint[](2) */\n      0xffffffffffffffff\n      dup2\n      gt\n      iszero\n      tag_182\n      jumpi\n      tag_183\n      tag_184\n      jump\t// in\n    tag_183:\n    tag_182:\n      mload(0x40)\n      swap1\n      dup1\n      dup3\n      mstore\n      dup1\n      0x20\n      mul\n      0x20\n      add\n      dup3\n      add\n      0x40\n      mstore\n      dup1\n      iszero\n      tag_185\n      jumpi\n      dup2\n      0x20\n      add\n      0x20\n      dup3\n      mul\n      dup1\n      calldatasize\n      dup4\n      calldatacopy\n      dup1\n      dup3\n      add\n      swap2\n      pop\n      pop\n      swap1\n      pop\n    tag_185:\n      pop\n        /* \"SimpleSwap.sol\":9534:9557  amounts = new uint[](2) */\n      swap9\n      pop\n        /* \"SimpleSwap.sol\":9581:9589  amountIn */\n      dup15\n        /* \"SimpleSwap.sol\":9568:9575  amounts */\n      dup10\n        /* \"SimpleSwap.sol\":9576:9577  0 */\n      0x00\n        /* \"SimpleSwap.sol\":9568:9578  amounts[0] */\n      dup2\n      mload\n      dup2\n      lt\n      tag_186\n      jumpi\n      tag_187\n      tag_153\n      jump\t// in\n    tag_187:\n    tag_186:\n      0x20\n      mul\n      0x20\n      add\n      add\n        /* \"SimpleSwap.sol\":9568:9589  amounts[0] = amountIn */\n      dup2\n      dup2\n      mstore\n      pop\n      pop\n        /* \"SimpleSwap.sol\":9613:9622  amountOut */\n      dup1\n        /* \"SimpleSwap.sol\":9600:9607  amounts */\n      dup10\n        /* \"SimpleSwap.sol\":9608:9609  1 */\n      0x01\n        /* \"SimpleSwap.sol\":9600:9610  amounts[1] */\n      dup2\n      mload\n      dup2\n      lt\n      tag_188\n      jumpi\n      tag_189\n      tag_153\n      jump\t// in\n    tag_189:\n    tag_188:\n      0x20\n      mul\n      0x20\n      add\n      add\n        /* \"SimpleSwap.sol\":9600:9622  amounts[1] = amountOut */\n      dup2\n      dup2\n      mstore\n      pop\n      pop\n        /* \"SimpleSwap.sol\":8397:9630  {... */\n      pop\n      pop\n      pop\n      pop\n      pop\n      pop\n      pop\n      pop\n        /* \"SimpleSwap.sol\":8180:9630  function swapExactTokensForTokens(... */\n      swap7\n      swap6\n      pop\n      pop\n      pop\n      pop\n      pop\n      pop\n      jump\t// out\n        /* \"SimpleSwap.sol\":1139:1159  IERC20 public tokenB */\n    tag_66:\n      0x06\n      0x00\n      swap1\n      sload\n      swap1\n      0x0100\n      exp\n      swap1\n      div\n      0xffffffffffffffffffffffffffffffffffffffff\n      and\n      dup2\n      jump\t// out\n        /* \"@openzeppelin/contracts/token/ERC20/ERC20.sol\":2985:3101  function balanceOf(address account) public view virtual returns (uint256) {... */\n    tag_71:\n        /* \"@openzeppelin/contracts/token/ERC20/ERC20.sol\":3050:3057  uint256 */\n      0x00\n        /* \"@openzeppelin/contracts/token/ERC20/ERC20.sol\":3076:3085  _balances */\n      0x00\n        /* \"@openzeppelin/contracts/token/ERC20/ERC20.sol\":3076:3094  _balances[account] */\n      0x00\n        /* \"@openzeppelin/contracts/token/ERC20/ERC20.sol\":3086:3093  account */\n      dup4\n        /* \"@openzeppelin/contracts/token/ERC20/ERC20.sol\":3076:3094  _balances[account] */\n      0xffffffffffffffffffffffffffffffffffffffff\n      and\n      0xffffffffffffffffffffffffffffffffffffffff\n      and\n      dup2\n      mstore\n      0x20\n      add\n      swap1\n      dup2\n      mstore\n      0x20\n      add\n      0x00\n      keccak256\n      sload\n        /* \"@openzeppelin/contracts/token/ERC20/ERC20.sol\":3069:3094  return _balances[account] */\n      swap1\n      pop\n        /* \"@openzeppelin/contracts/token/ERC20/ERC20.sol\":2985:3101  function balanceOf(address account) public view virtual returns (uint256) {... */\n      swap2\n      swap1\n      pop\n      jump\t// out\n        /* \"@openzeppelin/contracts/token/ERC20/ERC20.sol\":1962:2055  function symbol() public view virtual returns (string memory) {... */\n    tag_74:\n        /* \"@openzeppelin/contracts/token/ERC20/ERC20.sol\":2009:2022  string memory */\n      0x60\n        /* \"@openzeppelin/contracts/token/ERC20/ERC20.sol\":2041:2048  _symbol */\n      0x04\n        /* \"@openzeppelin/contracts/token/ERC20/ERC20.sol\":2034:2048  return _symbol */\n      dup1\n      sload\n      tag_192\n      swap1\n      tag_122\n      jump\t// in\n    tag_192:\n      dup1\n      0x1f\n      add\n      0x20\n      dup1\n      swap2\n      div\n      mul\n      0x20\n      add\n      mload(0x40)\n      swap1\n      dup2\n      add\n      0x40\n      mstore\n      dup1\n      swap3\n      swap2\n      swap1\n      dup2\n      dup2\n      mstore\n      0x20\n      add\n      dup3\n      dup1\n      sload\n      tag_193\n      swap1\n      tag_122\n      jump\t// in\n    tag_193:\n      dup1\n      iszero\n      tag_194\n      jumpi\n      dup1\n      0x1f\n      lt\n      tag_195\n      jumpi\n      0x0100\n      dup1\n      dup4\n      sload\n      div\n      mul\n      dup4\n      mstore\n      swap2\n      0x20\n      add\n      swap2\n      jump(tag_194)\n    tag_195:\n      dup3\n      add\n      swap2\n      swap1\n      0x00\n      mstore\n      keccak256(0x00, 0x20)\n      swap1\n    tag_196:\n      dup2\n      sload\n      dup2\n      mstore\n      swap1\n      0x01\n      add\n      swap1\n      0x20\n      add\n      dup1\n      dup4\n      gt\n      tag_196\n      jumpi\n      dup3\n      swap1\n      sub\n      0x1f\n      and\n      dup3\n      add\n      swap2\n    tag_194:\n      pop\n      pop\n      pop\n      pop\n      pop\n      swap1\n      pop\n        /* \"@openzeppelin/contracts/token/ERC20/ERC20.sol\":1962:2055  function symbol() public view virtual returns (string memory) {... */\n      swap1\n      jump\t// out\n        /* \"@openzeppelin/contracts/token/ERC20/ERC20.sol\":3296:3474  function transfer(address to, uint256 value) public virtual returns (bool) {... */\n    tag_78:\n        /* \"@openzeppelin/contracts/token/ERC20/ERC20.sol\":3365:3369  bool */\n      0x00\n        /* \"@openzeppelin/contracts/token/ERC20/ERC20.sol\":3381:3394  address owner */\n      0x00\n        /* \"@openzeppelin/contracts/token/ERC20/ERC20.sol\":3397:3409  _msgSender() */\n      tag_198\n        /* \"@openzeppelin/contracts/token/ERC20/ERC20.sol\":3397:3407  _msgSender */\n      tag_129\n        /* \"@openzeppelin/contracts/token/ERC20/ERC20.sol\":3397:3409  _msgSender() */\n      jump\t// in\n    tag_198:\n        /* \"@openzeppelin/contracts/token/ERC20/ERC20.sol\":3381:3409  address owner = _msgSender() */\n      swap1\n      pop\n        /* \"@openzeppelin/contracts/token/ERC20/ERC20.sol\":3419:3446  _transfer(owner, to, value) */\n      tag_199\n        /* \"@openzeppelin/contracts/token/ERC20/ERC20.sol\":3429:3434  owner */\n      dup2\n        /* \"@openzeppelin/contracts/token/ERC20/ERC20.sol\":3436:3438  to */\n      dup6\n        /* \"@openzeppelin/contracts/token/ERC20/ERC20.sol\":3440:3445  value */\n      dup6\n        /* \"@openzeppelin/contracts/token/ERC20/ERC20.sol\":3419:3428  _transfer */\n      tag_138\n        /* \"@openzeppelin/contracts/token/ERC20/ERC20.sol\":3419:3446  _transfer(owner, to, value) */\n      jump\t// in\n    tag_199:\n        /* \"@openzeppelin/contracts/token/ERC20/ERC20.sol\":3463:3467  true */\n      0x01\n        /* \"@openzeppelin/contracts/token/ERC20/ERC20.sol\":3456:3467  return true */\n      swap2\n      pop\n      pop\n        /* \"@openzeppelin/contracts/token/ERC20/ERC20.sol\":3296:3474  function transfer(address to, uint256 value) public virtual returns (bool) {... */\n      swap3\n      swap2\n      pop\n      pop\n      jump\t// out\n        /* \"SimpleSwap.sol\":9867:10203  function getPrice(... */\n    tag_83:\n        /* \"SimpleSwap.sol\":9968:9978  uint price */\n      0x00\n        /* \"SimpleSwap.sol\":10018:10024  tokenA */\n      0x05\n      0x00\n      swap1\n      sload\n      swap1\n      0x0100\n      exp\n      swap1\n      div\n      0xffffffffffffffffffffffffffffffffffffffff\n      and\n        /* \"SimpleSwap.sol\":9999:10025  _tokenA == address(tokenA) */\n      0xffffffffffffffffffffffffffffffffffffffff\n      and\n        /* \"SimpleSwap.sol\":9999:10006  _tokenA */\n      dup4\n        /* \"SimpleSwap.sol\":9999:10025  _tokenA == address(tokenA) */\n      0xffffffffffffffffffffffffffffffffffffffff\n      and\n      eq\n        /* \"SimpleSwap.sol\":9999:10055  _tokenA == address(tokenA) && _tokenB == address(tokenB) */\n      dup1\n      iszero\n      tag_201\n      jumpi\n      pop\n        /* \"SimpleSwap.sol\":10048:10054  tokenB */\n      0x06\n      0x00\n      swap1\n      sload\n      swap1\n      0x0100\n      exp\n      swap1\n      div\n      0xffffffffffffffffffffffffffffffffffffffff\n      and\n        /* \"SimpleSwap.sol\":10029:10055  _tokenB == address(tokenB) */\n      0xffffffffffffffffffffffffffffffffffffffff\n      and\n        /* \"SimpleSwap.sol\":10029:10036  _tokenB */\n      dup3\n        /* \"SimpleSwap.sol\":10029:10055  _tokenB == address(tokenB) */\n      0xffffffffffffffffffffffffffffffffffffffff\n      and\n      eq\n        /* \"SimpleSwap.sol\":9999:10055  _tokenA == address(tokenA) && _tokenB == address(tokenB) */\n    tag_201:\n        /* \"SimpleSwap.sol\":9991:10074  require(_tokenA == address(tokenA) && _tokenB == address(tokenB), \"Invalid tokens\") */\n      tag_202\n      jumpi\n      mload(0x40)\n      0x08c379a000000000000000000000000000000000000000000000000000000000\n      dup2\n      mstore\n      0x04\n      add\n      tag_203\n      swap1\n      tag_161\n      jump\t// in\n    tag_203:\n      mload(0x40)\n      dup1\n      swap2\n      sub\n      swap1\n      revert\n    tag_202:\n        /* \"SimpleSwap.sol\":10104:10105  0 */\n      0x00\n        /* \"SimpleSwap.sol\":10093:10101  reserveA */\n      sload(0x07)\n        /* \"SimpleSwap.sol\":10093:10105  reserveA > 0 */\n      gt\n        /* \"SimpleSwap.sol\":10093:10121  reserveA > 0 && reserveB > 0 */\n      dup1\n      iszero\n      tag_204\n      jumpi\n      pop\n        /* \"SimpleSwap.sol\":10120:10121  0 */\n      0x00\n        /* \"SimpleSwap.sol\":10109:10117  reserveB */\n      sload(0x08)\n        /* \"SimpleSwap.sol\":10109:10121  reserveB > 0 */\n      gt\n        /* \"SimpleSwap.sol\":10093:10121  reserveA > 0 && reserveB > 0 */\n    tag_204:\n        /* \"SimpleSwap.sol\":10085:10142  require(reserveA > 0 && reserveB > 0, \"Invalid reserves\") */\n      tag_205\n      jumpi\n      mload(0x40)\n      0x08c379a000000000000000000000000000000000000000000000000000000000\n      dup2\n      mstore\n      0x04\n      add\n      tag_206\n      swap1\n      tag_207\n      jump\t// in\n    tag_206:\n      mload(0x40)\n      dup1\n      swap2\n      sub\n      swap1\n      revert\n    tag_205:\n        /* \"SimpleSwap.sol\":10187:10195  reserveA */\n      sload(0x07)\n        /* \"SimpleSwap.sol\":10179:10183  1e18 */\n      0x0de0b6b3a7640000\n        /* \"SimpleSwap.sol\":10168:10176  reserveB */\n      sload(0x08)\n        /* \"SimpleSwap.sol\":10168:10183  reserveB * 1e18 */\n      tag_208\n      swap2\n      swap1\n      tag_117\n      jump\t// in\n    tag_208:\n        /* \"SimpleSwap.sol\":10167:10195  (reserveB * 1e18) / reserveA */\n      tag_209\n      swap2\n      swap1\n      tag_119\n      jump\t// in\n    tag_209:\n        /* \"SimpleSwap.sol\":10159:10195  price = (reserveB * 1e18) / reserveA */\n      swap1\n      pop\n        /* \"SimpleSwap.sol\":9867:10203  function getPrice(... */\n      swap3\n      swap2\n      pop\n      pop\n      jump\t// out\n        /* \"SimpleSwap.sol\":6471:7700  function removeLiquidity(... */\n    tag_88:\n        /* \"SimpleSwap.sol\":6701:6713  uint amountA */\n      0x00\n        /* \"SimpleSwap.sol\":6715:6727  uint amountB */\n      0x00\n        /* \"SimpleSwap.sol\":6767:6773  tokenA */\n      0x05\n      0x00\n      swap1\n      sload\n      swap1\n      0x0100\n      exp\n      swap1\n      div\n      0xffffffffffffffffffffffffffffffffffffffff\n      and\n        /* \"SimpleSwap.sol\":6748:6774  _tokenA == address(tokenA) */\n      0xffffffffffffffffffffffffffffffffffffffff\n      and\n        /* \"SimpleSwap.sol\":6748:6755  _tokenA */\n      dup10\n        /* \"SimpleSwap.sol\":6748:6774  _tokenA == address(tokenA) */\n      0xffffffffffffffffffffffffffffffffffffffff\n      and\n      eq\n        /* \"SimpleSwap.sol\":6748:6804  _tokenA == address(tokenA) && _tokenB == address(tokenB) */\n      dup1\n      iszero\n      tag_211\n      jumpi\n      pop\n        /* \"SimpleSwap.sol\":6797:6803  tokenB */\n      0x06\n      0x00\n      swap1\n      sload\n      swap1\n      0x0100\n      exp\n      swap1\n      div\n      0xffffffffffffffffffffffffffffffffffffffff\n      and\n        /* \"SimpleSwap.sol\":6778:6804  _tokenB == address(tokenB) */\n      0xffffffffffffffffffffffffffffffffffffffff\n      and\n        /* \"SimpleSwap.sol\":6778:6785  _tokenB */\n      dup9\n        /* \"SimpleSwap.sol\":6778:6804  _tokenB == address(tokenB) */\n      0xffffffffffffffffffffffffffffffffffffffff\n      and\n      eq\n        /* \"SimpleSwap.sol\":6748:6804  _tokenA == address(tokenA) && _tokenB == address(tokenB) */\n    tag_211:\n        /* \"SimpleSwap.sol\":6740:6823  require(_tokenA == address(tokenA) && _tokenB == address(tokenB), \"Invalid tokens\") */\n      tag_212\n      jumpi\n      mload(0x40)\n      0x08c379a000000000000000000000000000000000000000000000000000000000\n      dup2\n      mstore\n      0x04\n      add\n      tag_213\n      swap1\n      tag_161\n      jump\t// in\n    tag_213:\n      mload(0x40)\n      dup1\n      swap2\n      sub\n      swap1\n      revert\n    tag_212:\n        /* \"SimpleSwap.sol\":6861:6869  deadline */\n      dup3\n        /* \"SimpleSwap.sol\":6842:6857  block.timestamp */\n      timestamp\n        /* \"SimpleSwap.sol\":6842:6869  block.timestamp <= deadline */\n      gt\n      iszero\n        /* \"SimpleSwap.sol\":6834:6893  require(block.timestamp <= deadline, \"Transaction expired\") */\n      tag_214\n      jumpi\n      mload(0x40)\n      0x08c379a000000000000000000000000000000000000000000000000000000000\n      dup2\n      mstore\n      0x04\n      add\n      tag_215\n      swap1\n      tag_147\n      jump\t// in\n    tag_215:\n      mload(0x40)\n      dup1\n      swap2\n      sub\n      swap1\n      revert\n    tag_214:\n        /* \"SimpleSwap.sol\":6924:6925  0 */\n      0x00\n        /* \"SimpleSwap.sol\":6912:6921  liquidity */\n      dup8\n        /* \"SimpleSwap.sol\":6912:6925  liquidity > 0 */\n      gt\n        /* \"SimpleSwap.sol\":6904:6947  require(liquidity > 0, \"Invalid liquidity\") */\n      tag_216\n      jumpi\n      mload(0x40)\n      0x08c379a000000000000000000000000000000000000000000000000000000000\n      dup2\n      mstore\n      0x04\n      add\n      tag_217\n      swap1\n      tag_218\n      jump\t// in\n    tag_217:\n      mload(0x40)\n      dup1\n      swap2\n      sub\n      swap1\n      revert\n    tag_216:\n        /* \"SimpleSwap.sol\":6980:6981  0 */\n      0x00\n        /* \"SimpleSwap.sol\":6966:6976  amountBMin */\n      dup6\n        /* \"SimpleSwap.sol\":6966:6981  amountBMin >= 0 */\n      lt\n      iszero\n        /* \"SimpleSwap.sol\":6966:7000  amountBMin >= 0 && amountAMin >= 0 */\n      dup1\n      iszero\n      tag_219\n      jumpi\n      pop\n        /* \"SimpleSwap.sol\":6999:7000  0 */\n      0x00\n        /* \"SimpleSwap.sol\":6985:6995  amountAMin */\n      dup7\n        /* \"SimpleSwap.sol\":6985:7000  amountAMin >= 0 */\n      lt\n      iszero\n        /* \"SimpleSwap.sol\":6966:7000  amountBMin >= 0 && amountAMin >= 0 */\n    tag_219:\n        /* \"SimpleSwap.sol\":6958:7024  require(amountBMin >= 0 && amountAMin >= 0, \"Invalid amounts min\") */\n      tag_220\n      jumpi\n      mload(0x40)\n      0x08c379a000000000000000000000000000000000000000000000000000000000\n      dup2\n      mstore\n      0x04\n      add\n      tag_221\n      swap1\n      tag_222\n      jump\t// in\n    tag_221:\n      mload(0x40)\n      dup1\n      swap2\n      sub\n      swap1\n      revert\n    tag_220:\n        /* \"SimpleSwap.sol\":7045:7063  uint totalLPTokens */\n      0x00\n        /* \"SimpleSwap.sol\":7066:7079  totalSupply() */\n      tag_223\n        /* \"SimpleSwap.sol\":7066:7077  totalSupply */\n      tag_45\n        /* \"SimpleSwap.sol\":7066:7079  totalSupply() */\n      jump\t// in\n    tag_223:\n        /* \"SimpleSwap.sol\":7045:7079  uint totalLPTokens = totalSupply() */\n      swap1\n      pop\n        /* \"SimpleSwap.sol\":7114:7115  0 */\n      0x00\n        /* \"SimpleSwap.sol\":7098:7111  totalLPTokens */\n      dup2\n        /* \"SimpleSwap.sol\":7098:7115  totalLPTokens > 0 */\n      gt\n        /* \"SimpleSwap.sol\":7090:7134  require(totalLPTokens > 0, \"Invalid supply\") */\n      tag_224\n      jumpi\n      mload(0x40)\n      0x08c379a000000000000000000000000000000000000000000000000000000000\n      dup2\n      mstore\n      0x04\n      add\n      tag_225\n      swap1\n      tag_226\n      jump\t// in\n    tag_225:\n      mload(0x40)\n      dup1\n      swap2\n      sub\n      swap1\n      revert\n    tag_224:\n        /* \"SimpleSwap.sol\":7240:7253  totalLPTokens */\n      dup1\n        /* \"SimpleSwap.sol\":7228:7236  reserveA */\n      sload(0x07)\n        /* \"SimpleSwap.sol\":7216:7225  liquidity */\n      dup10\n        /* \"SimpleSwap.sol\":7216:7236  liquidity * reserveA */\n      tag_227\n      swap2\n      swap1\n      tag_117\n      jump\t// in\n    tag_227:\n        /* \"SimpleSwap.sol\":7215:7253  (liquidity * reserveA) / totalLPTokens */\n      tag_228\n      swap2\n      swap1\n      tag_119\n      jump\t// in\n    tag_228:\n        /* \"SimpleSwap.sol\":7205:7253  amountA = (liquidity * reserveA) / totalLPTokens */\n      swap3\n      pop\n        /* \"SimpleSwap.sol\":7299:7312  totalLPTokens */\n      dup1\n        /* \"SimpleSwap.sol\":7287:7295  reserveB */\n      sload(0x08)\n        /* \"SimpleSwap.sol\":7275:7284  liquidity */\n      dup10\n        /* \"SimpleSwap.sol\":7275:7295  liquidity * reserveB */\n      tag_229\n      swap2\n      swap1\n      tag_117\n      jump\t// in\n    tag_229:\n        /* \"SimpleSwap.sol\":7274:7312  (liquidity * reserveB) / totalLPTokens */\n      tag_230\n      swap2\n      swap1\n      tag_119\n      jump\t// in\n    tag_230:\n        /* \"SimpleSwap.sol\":7264:7312  amountB = (liquidity * reserveB) / totalLPTokens */\n      swap2\n      pop\n        /* \"SimpleSwap.sol\":7344:7354  amountAMin */\n      dup7\n        /* \"SimpleSwap.sol\":7333:7340  amountA */\n      dup4\n        /* \"SimpleSwap.sol\":7333:7354  amountA >= amountAMin */\n      lt\n      iszero\n        /* \"SimpleSwap.sol\":7325:7376  require(amountA >= amountAMin, \"amountA below min\") */\n      tag_231\n      jumpi\n      mload(0x40)\n      0x08c379a000000000000000000000000000000000000000000000000000000000\n      dup2\n      mstore\n      0x04\n      add\n      tag_232\n      swap1\n      tag_233\n      jump\t// in\n    tag_232:\n      mload(0x40)\n      dup1\n      swap2\n      sub\n      swap1\n      revert\n    tag_231:\n        /* \"SimpleSwap.sol\":7406:7416  amountBMin */\n      dup6\n        /* \"SimpleSwap.sol\":7395:7402  amountB */\n      dup3\n        /* \"SimpleSwap.sol\":7395:7416  amountB >= amountBMin */\n      lt\n      iszero\n        /* \"SimpleSwap.sol\":7387:7438  require(amountB >= amountBMin, \"amountB below min\") */\n      tag_234\n      jumpi\n      mload(0x40)\n      0x08c379a000000000000000000000000000000000000000000000000000000000\n      dup2\n      mstore\n      0x04\n      add\n      tag_235\n      swap1\n      tag_236\n      jump\t// in\n    tag_235:\n      mload(0x40)\n      dup1\n      swap2\n      sub\n      swap1\n      revert\n    tag_234:\n        /* \"SimpleSwap.sol\":7475:7481  tokenA */\n      0x05\n      0x00\n      swap1\n      sload\n      swap1\n      0x0100\n      exp\n      swap1\n      div\n      0xffffffffffffffffffffffffffffffffffffffff\n      and\n        /* \"SimpleSwap.sol\":7475:7490  tokenA.transfer */\n      0xffffffffffffffffffffffffffffffffffffffff\n      and\n      0xa9059cbb\n        /* \"SimpleSwap.sol\":7491:7493  to */\n      dup7\n        /* \"SimpleSwap.sol\":7495:7502  amountA */\n      dup6\n        /* \"SimpleSwap.sol\":7475:7503  tokenA.transfer(to, amountA) */\n      mload(0x40)\n      dup4\n      0xffffffff\n      and\n      0xe0\n      shl\n      dup2\n      mstore\n      0x04\n      add\n      tag_237\n      swap3\n      swap2\n      swap1\n      tag_175\n      jump\t// in\n    tag_237:\n      0x20\n      mload(0x40)\n      dup1\n      dup4\n      sub\n      dup2\n      0x00\n      dup8\n      gas\n      call\n      iszero\n      dup1\n      iszero\n      tag_239\n      jumpi\n      returndatacopy(0x00, 0x00, returndatasize)\n      revert(0x00, returndatasize)\n    tag_239:\n      pop\n      pop\n      pop\n      pop\n      mload(0x40)\n      returndatasize\n      not(0x1f)\n      0x1f\n      dup3\n      add\n      and\n      dup3\n      add\n      dup1\n      0x40\n      mstore\n      pop\n      dup2\n      add\n      swap1\n      tag_240\n      swap2\n      swap1\n      tag_167\n      jump\t// in\n    tag_240:\n      pop\n        /* \"SimpleSwap.sol\":7514:7520  tokenB */\n      0x06\n      0x00\n      swap1\n      sload\n      swap1\n      0x0100\n      exp\n      swap1\n      div\n      0xffffffffffffffffffffffffffffffffffffffff\n      and\n        /* \"SimpleSwap.sol\":7514:7529  tokenB.transfer */\n      0xffffffffffffffffffffffffffffffffffffffff\n      and\n      0xa9059cbb\n        /* \"SimpleSwap.sol\":7530:7532  to */\n      dup7\n        /* \"SimpleSwap.sol\":7534:7541  amountB */\n      dup5\n        /* \"SimpleSwap.sol\":7514:7542  tokenB.transfer(to, amountB) */\n      mload(0x40)\n      dup4\n      0xffffffff\n      and\n      0xe0\n      shl\n      dup2\n      mstore\n      0x04\n      add\n      tag_241\n      swap3\n      swap2\n      swap1\n      tag_175\n      jump\t// in\n    tag_241:\n      0x20\n      mload(0x40)\n      dup1\n      dup4\n      sub\n      dup2\n      0x00\n      dup8\n      gas\n      call\n      iszero\n      dup1\n      iszero\n      tag_243\n      jumpi\n      returndatacopy(0x00, 0x00, returndatasize)\n      revert(0x00, returndatasize)\n    tag_243:\n      pop\n      pop\n      pop\n      pop\n      mload(0x40)\n      returndatasize\n      not(0x1f)\n      0x1f\n      dup3\n      add\n      and\n      dup3\n      add\n      dup1\n      0x40\n      mstore\n      pop\n      dup2\n      add\n      swap1\n      tag_244\n      swap2\n      swap1\n      tag_167\n      jump\t// in\n    tag_244:\n      pop\n        /* \"SimpleSwap.sol\":7582:7602  _burn(to, liquidity) */\n      tag_245\n        /* \"SimpleSwap.sol\":7588:7590  to */\n      dup6\n        /* \"SimpleSwap.sol\":7592:7601  liquidity */\n      dup10\n        /* \"SimpleSwap.sol\":7582:7587  _burn */\n      tag_246\n        /* \"SimpleSwap.sol\":7582:7602  _burn(to, liquidity) */\n      jump\t// in\n    tag_245:\n        /* \"SimpleSwap.sol\":7655:7662  amountA */\n      dup3\n        /* \"SimpleSwap.sol\":7643:7651  reserveA */\n      0x07\n      0x00\n        /* \"SimpleSwap.sol\":7643:7662  reserveA -= amountA */\n      dup3\n      dup3\n      sload\n      tag_247\n      swap2\n      swap1\n      tag_181\n      jump\t// in\n    tag_247:\n      swap3\n      pop\n      pop\n      dup2\n      swap1\n      sstore\n      pop\n        /* \"SimpleSwap.sol\":7685:7692  amountB */\n      dup2\n        /* \"SimpleSwap.sol\":7673:7681  reserveB */\n      0x08\n      0x00\n        /* \"SimpleSwap.sol\":7673:7692  reserveB -= amountB */\n      dup3\n      dup3\n      sload\n      tag_248\n      swap2\n      swap1\n      tag_181\n      jump\t// in\n    tag_248:\n      swap3\n      pop\n      pop\n      dup2\n      swap1\n      sstore\n      pop\n        /* \"SimpleSwap.sol\":6729:7700  {... */\n      pop\n        /* \"SimpleSwap.sol\":6471:7700  function removeLiquidity(... */\n      swap8\n      pop\n      swap8\n      swap6\n      pop\n      pop\n      pop\n      pop\n      pop\n      pop\n      jump\t// out\n        /* \"SimpleSwap.sol\":1213:1236  uint256 public reserveA */\n    tag_92:\n      sload(0x07)\n      dup2\n      jump\t// out\n        /* \"@openzeppelin/contracts/token/ERC20/ERC20.sol\":3532:3672  function allowance(address owner, address spender) public view virtual returns (uint256) {... */\n    tag_96:\n        /* \"@openzeppelin/contracts/token/ERC20/ERC20.sol\":3612:3619  uint256 */\n      0x00\n        /* \"@openzeppelin/contracts/token/ERC20/ERC20.sol\":3638:3649  _allowances */\n      0x01\n        /* \"@openzeppelin/contracts/token/ERC20/ERC20.sol\":3638:3656  _allowances[owner] */\n      0x00\n        /* \"@openzeppelin/contracts/token/ERC20/ERC20.sol\":3650:3655  owner */\n      dup5\n        /* \"@openzeppelin/contracts/token/ERC20/ERC20.sol\":3638:3656  _allowances[owner] */\n      0xffffffffffffffffffffffffffffffffffffffff\n      and\n      0xffffffffffffffffffffffffffffffffffffffff\n      and\n      dup2\n      mstore\n      0x20\n      add\n      swap1\n      dup2\n      mstore\n      0x20\n      add\n      0x00\n      keccak256\n        /* \"@openzeppelin/contracts/token/ERC20/ERC20.sol\":3638:3665  _allowances[owner][spender] */\n      0x00\n        /* \"@openzeppelin/contracts/token/ERC20/ERC20.sol\":3657:3664  spender */\n      dup4\n        /* \"@openzeppelin/contracts/token/ERC20/ERC20.sol\":3638:3665  _allowances[owner][spender] */\n      0xffffffffffffffffffffffffffffffffffffffff\n      and\n      0xffffffffffffffffffffffffffffffffffffffff\n      and\n      dup2\n      mstore\n      0x20\n      add\n      swap1\n      dup2\n      mstore\n      0x20\n      add\n      0x00\n      keccak256\n      sload\n        /* \"@openzeppelin/contracts/token/ERC20/ERC20.sol\":3631:3665  return _allowances[owner][spender] */\n      swap1\n      pop\n        /* \"@openzeppelin/contracts/token/ERC20/ERC20.sol\":3532:3672  function allowance(address owner, address spender) public view virtual returns (uint256) {... */\n      swap3\n      swap2\n      pop\n      pop\n      jump\t// out\n        /* \"SimpleSwap.sol\":2374:3736  function addLiquidity(... */\n    tag_101:\n        /* \"SimpleSwap.sol\":2630:2642  uint amountA */\n      0x00\n        /* \"SimpleSwap.sol\":2644:2656  uint amountB */\n      0x00\n        /* \"SimpleSwap.sol\":2658:2672  uint liquidity */\n      0x00\n        /* \"SimpleSwap.sol\":2712:2720  deadline */\n      dup4\n        /* \"SimpleSwap.sol\":2693:2708  block.timestamp */\n      timestamp\n        /* \"SimpleSwap.sol\":2693:2720  block.timestamp <= deadline */\n      gt\n      iszero\n        /* \"SimpleSwap.sol\":2685:2744  require(block.timestamp <= deadline, \"Transaction expired\") */\n      tag_251\n      jumpi\n      mload(0x40)\n      0x08c379a000000000000000000000000000000000000000000000000000000000\n      dup2\n      mstore\n      0x04\n      add\n      tag_252\n      swap1\n      tag_147\n      jump\t// in\n    tag_252:\n      mload(0x40)\n      dup1\n      swap2\n      sub\n      swap1\n      revert\n    tag_251:\n        /* \"SimpleSwap.sol\":2782:2788  tokenA */\n      0x05\n      0x00\n      swap1\n      sload\n      swap1\n      0x0100\n      exp\n      swap1\n      div\n      0xffffffffffffffffffffffffffffffffffffffff\n      and\n        /* \"SimpleSwap.sol\":2763:2789  _tokenA == address(tokenA) */\n      0xffffffffffffffffffffffffffffffffffffffff\n      and\n        /* \"SimpleSwap.sol\":2763:2770  _tokenA */\n      dup12\n        /* \"SimpleSwap.sol\":2763:2789  _tokenA == address(tokenA) */\n      0xffffffffffffffffffffffffffffffffffffffff\n      and\n      eq\n        /* \"SimpleSwap.sol\":2763:2819  _tokenA == address(tokenA) && _tokenB == address(tokenB) */\n      dup1\n      iszero\n      tag_253\n      jumpi\n      pop\n        /* \"SimpleSwap.sol\":2812:2818  tokenB */\n      0x06\n      0x00\n      swap1\n      sload\n      swap1\n      0x0100\n      exp\n      swap1\n      div\n      0xffffffffffffffffffffffffffffffffffffffff\n      and\n        /* \"SimpleSwap.sol\":2793:2819  _tokenB == address(tokenB) */\n      0xffffffffffffffffffffffffffffffffffffffff\n      and\n        /* \"SimpleSwap.sol\":2793:2800  _tokenB */\n      dup11\n        /* \"SimpleSwap.sol\":2793:2819  _tokenB == address(tokenB) */\n      0xffffffffffffffffffffffffffffffffffffffff\n      and\n      eq\n        /* \"SimpleSwap.sol\":2763:2819  _tokenA == address(tokenA) && _tokenB == address(tokenB) */\n    tag_253:\n        /* \"SimpleSwap.sol\":2755:2838  require(_tokenA == address(tokenA) && _tokenB == address(tokenB), \"Invalid tokens\") */\n      tag_254\n      jumpi\n      mload(0x40)\n      0x08c379a000000000000000000000000000000000000000000000000000000000\n      dup2\n      mstore\n      0x04\n      add\n      tag_255\n      swap1\n      tag_161\n      jump\t// in\n    tag_255:\n      mload(0x40)\n      dup1\n      swap2\n      sub\n      swap1\n      revert\n    tag_254:\n        /* \"SimpleSwap.sol\":2918:2991  _calculateAmounts(amountADesired, amountBDesired, amountAMin, amountBMin) */\n      tag_256\n        /* \"SimpleSwap.sol\":2936:2950  amountADesired */\n      dup10\n        /* \"SimpleSwap.sol\":2952:2966  amountBDesired */\n      dup10\n        /* \"SimpleSwap.sol\":2968:2978  amountAMin */\n      dup10\n        /* \"SimpleSwap.sol\":2980:2990  amountBMin */\n      dup10\n        /* \"SimpleSwap.sol\":2918:2935  _calculateAmounts */\n      tag_257\n        /* \"SimpleSwap.sol\":2918:2991  _calculateAmounts(amountADesired, amountBDesired, amountAMin, amountBMin) */\n      jump\t// in\n    tag_256:\n        /* \"SimpleSwap.sol\":2897:2991  (amountA, amountB) = _calculateAmounts(amountADesired, amountBDesired, amountAMin, amountBMin) */\n      dup1\n      swap4\n      pop\n      dup2\n      swap5\n      pop\n      pop\n      pop\n        /* \"SimpleSwap.sol\":3055:3061  tokenA */\n      0x05\n      0x00\n      swap1\n      sload\n      swap1\n      0x0100\n      exp\n      swap1\n      div\n      0xffffffffffffffffffffffffffffffffffffffff\n      and\n        /* \"SimpleSwap.sol\":3055:3074  tokenA.transferFrom */\n      0xffffffffffffffffffffffffffffffffffffffff\n      and\n      0x23b872dd\n        /* \"SimpleSwap.sol\":3075:3085  msg.sender */\n      caller\n        /* \"SimpleSwap.sol\":3095:3099  this */\n      address\n        /* \"SimpleSwap.sol\":3102:3109  amountA */\n      dup7\n        /* \"SimpleSwap.sol\":3055:3110  tokenA.transferFrom(msg.sender, address(this), amountA) */\n      mload(0x40)\n      dup5\n      0xffffffff\n      and\n      0xe0\n      shl\n      dup2\n      mstore\n      0x04\n      add\n      tag_258\n      swap4\n      swap3\n      swap2\n      swap1\n      tag_163\n      jump\t// in\n    tag_258:\n      0x20\n      mload(0x40)\n      dup1\n      dup4\n      sub\n      dup2\n      0x00\n      dup8\n      gas\n      call\n      iszero\n      dup1\n      iszero\n      tag_260\n      jumpi\n      returndatacopy(0x00, 0x00, returndatasize)\n      revert(0x00, returndatasize)\n    tag_260:\n      pop\n      pop\n      pop\n      pop\n      mload(0x40)\n      returndatasize\n      not(0x1f)\n      0x1f\n      dup3\n      add\n      and\n      dup3\n      add\n      dup1\n      0x40\n      mstore\n      pop\n      dup2\n      add\n      swap1\n      tag_261\n      swap2\n      swap1\n      tag_167\n      jump\t// in\n    tag_261:\n      pop\n        /* \"SimpleSwap.sol\":3121:3127  tokenB */\n      0x06\n      0x00\n      swap1\n      sload\n      swap1\n      0x0100\n      exp\n      swap1\n      div\n      0xffffffffffffffffffffffffffffffffffffffff\n      and\n        /* \"SimpleSwap.sol\":3121:3140  tokenB.transferFrom */\n      0xffffffffffffffffffffffffffffffffffffffff\n      and\n      0x23b872dd\n        /* \"SimpleSwap.sol\":3141:3151  msg.sender */\n      caller\n        /* \"SimpleSwap.sol\":3161:3165  this */\n      address\n        /* \"SimpleSwap.sol\":3168:3175  amountB */\n      dup6\n        /* \"SimpleSwap.sol\":3121:3176  tokenB.transferFrom(msg.sender, address(this), amountB) */\n      mload(0x40)\n      dup5\n      0xffffffff\n      and\n      0xe0\n      shl\n      dup2\n      mstore\n      0x04\n      add\n      tag_262\n      swap4\n      swap3\n      swap2\n      swap1\n      tag_163\n      jump\t// in\n    tag_262:\n      0x20\n      mload(0x40)\n      dup1\n      dup4\n      sub\n      dup2\n      0x00\n      dup8\n      gas\n      call\n      iszero\n      dup1\n      iszero\n      tag_264\n      jumpi\n      returndatacopy(0x00, 0x00, returndatasize)\n      revert(0x00, returndatasize)\n    tag_264:\n      pop\n      pop\n      pop\n      pop\n      mload(0x40)\n      returndatasize\n      not(0x1f)\n      0x1f\n      dup3\n      add\n      and\n      dup3\n      add\n      dup1\n      0x40\n      mstore\n      pop\n      dup2\n      add\n      swap1\n      tag_265\n      swap2\n      swap1\n      tag_167\n      jump\t// in\n    tag_265:\n      pop\n        /* \"SimpleSwap.sol\":3285:3286  0 */\n      0x00\n        /* \"SimpleSwap.sol\":3268:3281  totalSupply() */\n      tag_266\n        /* \"SimpleSwap.sol\":3268:3279  totalSupply */\n      tag_45\n        /* \"SimpleSwap.sol\":3268:3281  totalSupply() */\n      jump\t// in\n    tag_266:\n        /* \"SimpleSwap.sol\":3268:3286  totalSupply() == 0 */\n      sub\n        /* \"SimpleSwap.sol\":3264:3525  if (totalSupply() == 0) {... */\n      tag_267\n      jumpi\n        /* \"SimpleSwap.sol\":3315:3339  _sqrt(amountA * amountB) */\n      tag_268\n        /* \"SimpleSwap.sol\":3331:3338  amountB */\n      dup3\n        /* \"SimpleSwap.sol\":3321:3328  amountA */\n      dup5\n        /* \"SimpleSwap.sol\":3321:3338  amountA * amountB */\n      tag_269\n      swap2\n      swap1\n      tag_117\n      jump\t// in\n    tag_269:\n        /* \"SimpleSwap.sol\":3315:3320  _sqrt */\n      tag_270\n        /* \"SimpleSwap.sol\":3315:3339  _sqrt(amountA * amountB) */\n      jump\t// in\n    tag_268:\n        /* \"SimpleSwap.sol\":3303:3339  liquidity = _sqrt(amountA * amountB) */\n      swap1\n      pop\n        /* \"SimpleSwap.sol\":3264:3525  if (totalSupply() == 0) {... */\n      jump(tag_271)\n    tag_267:\n        /* \"SimpleSwap.sol\":3384:3513  _min(... */\n      tag_272\n        /* \"SimpleSwap.sol\":3435:3443  reserveA */\n      sload(0x07)\n        /* \"SimpleSwap.sol\":3418:3431  totalSupply() */\n      tag_273\n        /* \"SimpleSwap.sol\":3418:3429  totalSupply */\n      tag_45\n        /* \"SimpleSwap.sol\":3418:3431  totalSupply() */\n      jump\t// in\n    tag_273:\n        /* \"SimpleSwap.sol\":3408:3415  amountA */\n      dup6\n        /* \"SimpleSwap.sol\":3408:3431  amountA * totalSupply() */\n      tag_274\n      swap2\n      swap1\n      tag_117\n      jump\t// in\n    tag_274:\n        /* \"SimpleSwap.sol\":3407:3443  (amountA * totalSupply()) / reserveA */\n      tag_275\n      swap2\n      swap1\n      tag_119\n      jump\t// in\n    tag_275:\n        /* \"SimpleSwap.sol\":3490:3498  reserveB */\n      sload(0x08)\n        /* \"SimpleSwap.sol\":3473:3486  totalSupply() */\n      tag_276\n        /* \"SimpleSwap.sol\":3473:3484  totalSupply */\n      tag_45\n        /* \"SimpleSwap.sol\":3473:3486  totalSupply() */\n      jump\t// in\n    tag_276:\n        /* \"SimpleSwap.sol\":3463:3470  amountB */\n      dup6\n        /* \"SimpleSwap.sol\":3463:3486  amountB * totalSupply() */\n      tag_277\n      swap2\n      swap1\n      tag_117\n      jump\t// in\n    tag_277:\n        /* \"SimpleSwap.sol\":3462:3498  (amountB * totalSupply()) / reserveB */\n      tag_278\n      swap2\n      swap1\n      tag_119\n      jump\t// in\n    tag_278:\n        /* \"SimpleSwap.sol\":3384:3388  _min */\n      tag_279\n        /* \"SimpleSwap.sol\":3384:3513  _min(... */\n      jump\t// in\n    tag_272:\n        /* \"SimpleSwap.sol\":3372:3513  liquidity = _min(... */\n      swap1\n      pop\n        /* \"SimpleSwap.sol\":3264:3525  if (totalSupply() == 0) {... */\n    tag_271:\n        /* \"SimpleSwap.sol\":3557:3558  0 */\n      0x00\n        /* \"SimpleSwap.sol\":3545:3554  liquidity */\n      dup2\n        /* \"SimpleSwap.sol\":3545:3558  liquidity > 0 */\n      gt\n        /* \"SimpleSwap.sol\":3537:3580  require(liquidity > 0, \"Invalid liquidity\") */\n      tag_280\n      jumpi\n      mload(0x40)\n      0x08c379a000000000000000000000000000000000000000000000000000000000\n      dup2\n      mstore\n      0x04\n      add\n      tag_281\n      swap1\n      tag_218\n      jump\t// in\n    tag_281:\n      mload(0x40)\n      dup1\n      swap2\n      sub\n      swap1\n      revert\n    tag_280:\n        /* \"SimpleSwap.sol\":3618:3638  _mint(to, liquidity) */\n      tag_282\n        /* \"SimpleSwap.sol\":3624:3626  to */\n      dup6\n        /* \"SimpleSwap.sol\":3628:3637  liquidity */\n      dup3\n        /* \"SimpleSwap.sol\":3618:3623  _mint */\n      tag_283\n        /* \"SimpleSwap.sol\":3618:3638  _mint(to, liquidity) */\n      jump\t// in\n    tag_282:\n        /* \"SimpleSwap.sol\":3691:3698  amountA */\n      dup3\n        /* \"SimpleSwap.sol\":3679:3687  reserveA */\n      0x07\n      0x00\n        /* \"SimpleSwap.sol\":3679:3698  reserveA += amountA */\n      dup3\n      dup3\n      sload\n      tag_284\n      swap2\n      swap1\n      tag_115\n      jump\t// in\n    tag_284:\n      swap3\n      pop\n      pop\n      dup2\n      swap1\n      sstore\n      pop\n        /* \"SimpleSwap.sol\":3721:3728  amountB */\n      dup2\n        /* \"SimpleSwap.sol\":3709:3717  reserveB */\n      0x08\n      0x00\n        /* \"SimpleSwap.sol\":3709:3728  reserveB += amountB */\n      dup3\n      dup3\n      sload\n      tag_285\n      swap2\n      swap1\n      tag_115\n      jump\t// in\n    tag_285:\n      swap3\n      pop\n      pop\n      dup2\n      swap1\n      sstore\n      pop\n        /* \"SimpleSwap.sol\":2374:3736  function addLiquidity(... */\n      swap9\n      pop\n      swap9\n      pop\n      swap9\n      swap6\n      pop\n      pop\n      pop\n      pop\n      pop\n      pop\n      jump\t// out\n        /* \"@openzeppelin/contracts/utils/Context.sol\":656:752  function _msgSender() internal view virtual returns (address) {... */\n    tag_129:\n        /* \"@openzeppelin/contracts/utils/Context.sol\":709:716  address */\n      0x00\n        /* \"@openzeppelin/contracts/utils/Context.sol\":735:745  msg.sender */\n      caller\n        /* \"@openzeppelin/contracts/utils/Context.sol\":728:745  return msg.sender */\n      swap1\n      pop\n        /* \"@openzeppelin/contracts/utils/Context.sol\":656:752  function _msgSender() internal view virtual returns (address) {... */\n      swap1\n      jump\t// out\n        /* \"@openzeppelin/contracts/token/ERC20/ERC20.sol\":8707:8835  function _approve(address owner, address spender, uint256 value) internal {... */\n    tag_131:\n        /* \"@openzeppelin/contracts/token/ERC20/ERC20.sol\":8791:8828  _approve(owner, spender, value, true) */\n      tag_288\n        /* \"@openzeppelin/contracts/token/ERC20/ERC20.sol\":8800:8805  owner */\n      dup4\n        /* \"@openzeppelin/contracts/token/ERC20/ERC20.sol\":8807:8814  spender */\n      dup4\n        /* \"@openzeppelin/contracts/token/ERC20/ERC20.sol\":8816:8821  value */\n      dup4\n        /* \"@openzeppelin/contracts/token/ERC20/ERC20.sol\":8823:8827  true */\n      0x01\n        /* \"@openzeppelin/contracts/token/ERC20/ERC20.sol\":8791:8799  _approve */\n      tag_289\n        /* \"@openzeppelin/contracts/token/ERC20/ERC20.sol\":8791:8828  _approve(owner, spender, value, true) */\n      jump\t// in\n    tag_288:\n        /* \"@openzeppelin/contracts/token/ERC20/ERC20.sol\":8707:8835  function _approve(address owner, address spender, uint256 value) internal {... */\n      pop\n      pop\n      pop\n      jump\t// out\n        /* \"@openzeppelin/contracts/token/ERC20/ERC20.sol\":10396:10872  function _spendAllowance(address owner, address spender, uint256 value) internal virtual {... */\n    tag_136:\n        /* \"@openzeppelin/contracts/token/ERC20/ERC20.sol\":10495:10519  uint256 currentAllowance */\n      0x00\n        /* \"@openzeppelin/contracts/token/ERC20/ERC20.sol\":10522:10547  allowance(owner, spender) */\n      tag_291\n        /* \"@openzeppelin/contracts/token/ERC20/ERC20.sol\":10532:10537  owner */\n      dup5\n        /* \"@openzeppelin/contracts/token/ERC20/ERC20.sol\":10539:10546  spender */\n      dup5\n        /* \"@openzeppelin/contracts/token/ERC20/ERC20.sol\":10522:10531  allowance */\n      tag_96\n        /* \"@openzeppelin/contracts/token/ERC20/ERC20.sol\":10522:10547  allowance(owner, spender) */\n      jump\t// in\n    tag_291:\n        /* \"@openzeppelin/contracts/token/ERC20/ERC20.sol\":10495:10547  uint256 currentAllowance = allowance(owner, spender) */\n      swap1\n      pop\n        /* \"@openzeppelin/contracts/token/ERC20/ERC20.sol\":10580:10597  type(uint256).max */\n      0xffffffffffffffffffffffffffffffffffffffffffffffffffffffffffffffff\n        /* \"@openzeppelin/contracts/token/ERC20/ERC20.sol\":10561:10577  currentAllowance */\n      dup2\n        /* \"@openzeppelin/contracts/token/ERC20/ERC20.sol\":10561:10597  currentAllowance < type(uint256).max */\n      lt\n        /* \"@openzeppelin/contracts/token/ERC20/ERC20.sol\":10557:10866  if (currentAllowance < type(uint256).max) {... */\n      iszero\n      tag_292\n      jumpi\n        /* \"@openzeppelin/contracts/token/ERC20/ERC20.sol\":10636:10641  value */\n      dup2\n        /* \"@openzeppelin/contracts/token/ERC20/ERC20.sol\":10617:10633  currentAllowance */\n      dup2\n        /* \"@openzeppelin/contracts/token/ERC20/ERC20.sol\":10617:10641  currentAllowance < value */\n      lt\n        /* \"@openzeppelin/contracts/token/ERC20/ERC20.sol\":10613:10743  if (currentAllowance < value) {... */\n      iszero\n      tag_293\n      jumpi\n        /* \"@openzeppelin/contracts/token/ERC20/ERC20.sol\":10695:10702  spender */\n      dup3\n        /* \"@openzeppelin/contracts/token/ERC20/ERC20.sol\":10704:10720  currentAllowance */\n      dup2\n        /* \"@openzeppelin/contracts/token/ERC20/ERC20.sol\":10722:10727  value */\n      dup4\n        /* \"@openzeppelin/contracts/token/ERC20/ERC20.sol\":10668:10728  ERC20InsufficientAllowance(spender, currentAllowance, value) */\n      mload(0x40)\n      0xfb8f41b200000000000000000000000000000000000000000000000000000000\n      dup2\n      mstore\n      0x04\n      add\n      tag_294\n      swap4\n      swap3\n      swap2\n      swap1\n      tag_295\n      jump\t// in\n    tag_294:\n      mload(0x40)\n      dup1\n      swap2\n      sub\n      swap1\n      revert\n        /* \"@openzeppelin/contracts/token/ERC20/ERC20.sol\":10613:10743  if (currentAllowance < value) {... */\n    tag_293:\n        /* \"@openzeppelin/contracts/token/ERC20/ERC20.sol\":10784:10841  _approve(owner, spender, currentAllowance - value, false) */\n      tag_296\n        /* \"@openzeppelin/contracts/token/ERC20/ERC20.sol\":10793:10798  owner */\n      dup5\n        /* \"@openzeppelin/contracts/token/ERC20/ERC20.sol\":10800:10807  spender */\n      dup5\n        /* \"@openzeppelin/contracts/token/ERC20/ERC20.sol\":10828:10833  value */\n      dup5\n        /* \"@openzeppelin/contracts/token/ERC20/ERC20.sol\":10809:10825  currentAllowance */\n      dup5\n        /* \"@openzeppelin/contracts/token/ERC20/ERC20.sol\":10809:10833  currentAllowance - value */\n      sub\n        /* \"@openzeppelin/contracts/token/ERC20/ERC20.sol\":10835:10840  false */\n      0x00\n        /* \"@openzeppelin/contracts/token/ERC20/ERC20.sol\":10784:10792  _approve */\n      tag_289\n        /* \"@openzeppelin/contracts/token/ERC20/ERC20.sol\":10784:10841  _approve(owner, spender, currentAllowance - value, false) */\n      jump\t// in\n    tag_296:\n        /* \"@openzeppelin/contracts/token/ERC20/ERC20.sol\":10557:10866  if (currentAllowance < type(uint256).max) {... */\n    tag_292:\n        /* \"@openzeppelin/contracts/token/ERC20/ERC20.sol\":10485:10872  {... */\n      pop\n        /* \"@openzeppelin/contracts/token/ERC20/ERC20.sol\":10396:10872  function _spendAllowance(address owner, address spender, uint256 value) internal virtual {... */\n      pop\n      pop\n      pop\n      jump\t// out\n        /* \"@openzeppelin/contracts/token/ERC20/ERC20.sol\":5374:5674  function _transfer(address from, address to, uint256 value) internal {... */\n    tag_138:\n        /* \"@openzeppelin/contracts/token/ERC20/ERC20.sol\":5473:5474  0 */\n      0x00\n        /* \"@openzeppelin/contracts/token/ERC20/ERC20.sol\":5457:5475  from == address(0) */\n      0xffffffffffffffffffffffffffffffffffffffff\n      and\n        /* \"@openzeppelin/contracts/token/ERC20/ERC20.sol\":5457:5461  from */\n      dup4\n        /* \"@openzeppelin/contracts/token/ERC20/ERC20.sol\":5457:5475  from == address(0) */\n      0xffffffffffffffffffffffffffffffffffffffff\n      and\n      sub\n        /* \"@openzeppelin/contracts/token/ERC20/ERC20.sol\":5453:5539  if (from == address(0)) {... */\n      tag_298\n      jumpi\n        /* \"@openzeppelin/contracts/token/ERC20/ERC20.sol\":5525:5526  0 */\n      0x00\n        /* \"@openzeppelin/contracts/token/ERC20/ERC20.sol\":5498:5528  ERC20InvalidSender(address(0)) */\n      mload(0x40)\n      0x96c6fd1e00000000000000000000000000000000000000000000000000000000\n      dup2\n      mstore\n      0x04\n      add\n      tag_299\n      swap2\n      swap1\n      tag_300\n      jump\t// in\n    tag_299:\n      mload(0x40)\n      dup1\n      swap2\n      sub\n      swap1\n      revert\n        /* \"@openzeppelin/contracts/token/ERC20/ERC20.sol\":5453:5539  if (from == address(0)) {... */\n    tag_298:\n        /* \"@openzeppelin/contracts/token/ERC20/ERC20.sol\":5566:5567  0 */\n      0x00\n        /* \"@openzeppelin/contracts/token/ERC20/ERC20.sol\":5552:5568  to == address(0) */\n      0xffffffffffffffffffffffffffffffffffffffff\n      and\n        /* \"@openzeppelin/contracts/token/ERC20/ERC20.sol\":5552:5554  to */\n      dup3\n        /* \"@openzeppelin/contracts/token/ERC20/ERC20.sol\":5552:5568  to == address(0) */\n      0xffffffffffffffffffffffffffffffffffffffff\n      and\n      sub\n        /* \"@openzeppelin/contracts/token/ERC20/ERC20.sol\":5548:5634  if (to == address(0)) {... */\n      tag_301\n      jumpi\n        /* \"@openzeppelin/contracts/token/ERC20/ERC20.sol\":5620:5621  0 */\n      0x00\n        /* \"@openzeppelin/contracts/token/ERC20/ERC20.sol\":5591:5623  ERC20InvalidReceiver(address(0)) */\n      mload(0x40)\n      0xec442f0500000000000000000000000000000000000000000000000000000000\n      dup2\n      mstore\n      0x04\n      add\n      tag_302\n      swap2\n      swap1\n      tag_300\n      jump\t// in\n    tag_302:\n      mload(0x40)\n      dup1\n      swap2\n      sub\n      swap1\n      revert\n        /* \"@openzeppelin/contracts/token/ERC20/ERC20.sol\":5548:5634  if (to == address(0)) {... */\n    tag_301:\n        /* \"@openzeppelin/contracts/token/ERC20/ERC20.sol\":5643:5667  _update(from, to, value) */\n      tag_303\n        /* \"@openzeppelin/contracts/token/ERC20/ERC20.sol\":5651:5655  from */\n      dup4\n        /* \"@openzeppelin/contracts/token/ERC20/ERC20.sol\":5657:5659  to */\n      dup4\n        /* \"@openzeppelin/contracts/token/ERC20/ERC20.sol\":5661:5666  value */\n      dup4\n        /* \"@openzeppelin/contracts/token/ERC20/ERC20.sol\":5643:5650  _update */\n      tag_304\n        /* \"@openzeppelin/contracts/token/ERC20/ERC20.sol\":5643:5667  _update(from, to, value) */\n      jump\t// in\n    tag_303:\n        /* \"@openzeppelin/contracts/token/ERC20/ERC20.sol\":5374:5674  function _transfer(address from, address to, uint256 value) internal {... */\n      pop\n      pop\n      pop\n      jump\t// out\n        /* \"@openzeppelin/contracts/token/ERC20/ERC20.sol\":7965:8171  function _burn(address account, uint256 value) internal {... */\n    tag_246:\n        /* \"@openzeppelin/contracts/token/ERC20/ERC20.sol\":8054:8055  0 */\n      0x00\n        /* \"@openzeppelin/contracts/token/ERC20/ERC20.sol\":8035:8056  account == address(0) */\n      0xffffffffffffffffffffffffffffffffffffffff\n      and\n        /* \"@openzeppelin/contracts/token/ERC20/ERC20.sol\":8035:8042  account */\n      dup3\n        /* \"@openzeppelin/contracts/token/ERC20/ERC20.sol\":8035:8056  account == address(0) */\n      0xffffffffffffffffffffffffffffffffffffffff\n      and\n      sub\n        /* \"@openzeppelin/contracts/token/ERC20/ERC20.sol\":8031:8120  if (account == address(0)) {... */\n      tag_306\n      jumpi\n        /* \"@openzeppelin/contracts/token/ERC20/ERC20.sol\":8106:8107  0 */\n      0x00\n        /* \"@openzeppelin/contracts/token/ERC20/ERC20.sol\":8079:8109  ERC20InvalidSender(address(0)) */\n      mload(0x40)\n      0x96c6fd1e00000000000000000000000000000000000000000000000000000000\n      dup2\n      mstore\n      0x04\n      add\n      tag_307\n      swap2\n      swap1\n      tag_300\n      jump\t// in\n    tag_307:\n      mload(0x40)\n      dup1\n      swap2\n      sub\n      swap1\n      revert\n        /* \"@openzeppelin/contracts/token/ERC20/ERC20.sol\":8031:8120  if (account == address(0)) {... */\n    tag_306:\n        /* \"@openzeppelin/contracts/token/ERC20/ERC20.sol\":8129:8164  _update(account, address(0), value) */\n      tag_308\n        /* \"@openzeppelin/contracts/token/ERC20/ERC20.sol\":8137:8144  account */\n      dup3\n        /* \"@openzeppelin/contracts/token/ERC20/ERC20.sol\":8154:8155  0 */\n      0x00\n        /* \"@openzeppelin/contracts/token/ERC20/ERC20.sol\":8158:8163  value */\n      dup4\n        /* \"@openzeppelin/contracts/token/ERC20/ERC20.sol\":8129:8136  _update */\n      tag_304\n        /* \"@openzeppelin/contracts/token/ERC20/ERC20.sol\":8129:8164  _update(account, address(0), value) */\n      jump\t// in\n    tag_308:\n        /* \"@openzeppelin/contracts/token/ERC20/ERC20.sol\":7965:8171  function _burn(address account, uint256 value) internal {... */\n      pop\n      pop\n      jump\t// out\n        /* \"SimpleSwap.sol\":4193:5118  function _calculateAmounts(... */\n    tag_257:\n        /* \"SimpleSwap.sol\":4362:4374  uint amountA */\n      0x00\n        /* \"SimpleSwap.sol\":4376:4388  uint amountB */\n      0x00\n        /* \"SimpleSwap.sol\":4417:4418  0 */\n      0x00\n        /* \"SimpleSwap.sol\":4405:4413  reserveA */\n      sload(0x07)\n        /* \"SimpleSwap.sol\":4405:4418  reserveA == 0 */\n      eq\n        /* \"SimpleSwap.sol\":4405:4435  reserveA == 0 && reserveB == 0 */\n      dup1\n      iszero\n      tag_310\n      jumpi\n      pop\n        /* \"SimpleSwap.sol\":4434:4435  0 */\n      0x00\n        /* \"SimpleSwap.sol\":4422:4430  reserveB */\n      sload(0x08)\n        /* \"SimpleSwap.sol\":4422:4435  reserveB == 0 */\n      eq\n        /* \"SimpleSwap.sol\":4405:4435  reserveA == 0 && reserveB == 0 */\n    tag_310:\n        /* \"SimpleSwap.sol\":4401:5111  if (reserveA == 0 && reserveB == 0) {... */\n      iszero\n      tag_311\n      jumpi\n        /* \"SimpleSwap.sol\":4462:4476  amountADesired */\n      dup6\n        /* \"SimpleSwap.sol\":4452:4476  amountA = amountADesired */\n      swap2\n      pop\n        /* \"SimpleSwap.sol\":4501:4515  amountBDesired */\n      dup5\n        /* \"SimpleSwap.sol\":4491:4515  amountB = amountBDesired */\n      swap1\n      pop\n        /* \"SimpleSwap.sol\":4401:5111  if (reserveA == 0 && reserveB == 0) {... */\n      jump(tag_312)\n    tag_311:\n        /* \"SimpleSwap.sol\":4548:4567  uint amountBOptimal */\n      0x00\n        /* \"SimpleSwap.sol\":4600:4608  reserveA */\n      sload(0x07)\n        /* \"SimpleSwap.sol\":4588:4596  reserveB */\n      sload(0x08)\n        /* \"SimpleSwap.sol\":4571:4585  amountADesired */\n      dup9\n        /* \"SimpleSwap.sol\":4571:4596  amountADesired * reserveB */\n      tag_313\n      swap2\n      swap1\n      tag_117\n      jump\t// in\n    tag_313:\n        /* \"SimpleSwap.sol\":4570:4608  (amountADesired * reserveB) / reserveA */\n      tag_314\n      swap2\n      swap1\n      tag_119\n      jump\t// in\n    tag_314:\n        /* \"SimpleSwap.sol\":4548:4608  uint amountBOptimal = (amountADesired * reserveB) / reserveA */\n      swap1\n      pop\n        /* \"SimpleSwap.sol\":4645:4659  amountBDesired */\n      dup6\n        /* \"SimpleSwap.sol\":4627:4641  amountBOptimal */\n      dup2\n        /* \"SimpleSwap.sol\":4627:4659  amountBOptimal <= amountBDesired */\n      gt\n        /* \"SimpleSwap.sol\":4623:5100  if (amountBOptimal <= amountBDesired) {... */\n      tag_315\n      jumpi\n        /* \"SimpleSwap.sol\":4706:4716  amountBMin */\n      dup4\n        /* \"SimpleSwap.sol\":4688:4702  amountBOptimal */\n      dup2\n        /* \"SimpleSwap.sol\":4688:4716  amountBOptimal >= amountBMin */\n      lt\n      iszero\n        /* \"SimpleSwap.sol\":4680:4736  require(amountBOptimal >= amountBMin, \"amountB too low\") */\n      tag_316\n      jumpi\n      mload(0x40)\n      0x08c379a000000000000000000000000000000000000000000000000000000000\n      dup2\n      mstore\n      0x04\n      add\n      tag_317\n      swap1\n      tag_318\n      jump\t// in\n    tag_317:\n      mload(0x40)\n      dup1\n      swap2\n      sub\n      swap1\n      revert\n    tag_316:\n        /* \"SimpleSwap.sol\":4765:4779  amountADesired */\n      dup7\n        /* \"SimpleSwap.sol\":4755:4779  amountA = amountADesired */\n      swap3\n      pop\n        /* \"SimpleSwap.sol\":4808:4822  amountBOptimal */\n      dup1\n        /* \"SimpleSwap.sol\":4798:4822  amountB = amountBOptimal */\n      swap2\n      pop\n        /* \"SimpleSwap.sol\":4623:5100  if (amountBOptimal <= amountBDesired) {... */\n      jump(tag_319)\n    tag_315:\n        /* \"SimpleSwap.sol\":4863:4882  uint amountAOptimal */\n      0x00\n        /* \"SimpleSwap.sol\":4915:4923  reserveB */\n      sload(0x08)\n        /* \"SimpleSwap.sol\":4903:4911  reserveA */\n      sload(0x07)\n        /* \"SimpleSwap.sol\":4886:4900  amountBDesired */\n      dup9\n        /* \"SimpleSwap.sol\":4886:4911  amountBDesired * reserveA */\n      tag_320\n      swap2\n      swap1\n      tag_117\n      jump\t// in\n    tag_320:\n        /* \"SimpleSwap.sol\":4885:4923  (amountBDesired * reserveA) / reserveB */\n      tag_321\n      swap2\n      swap1\n      tag_119\n      jump\t// in\n    tag_321:\n        /* \"SimpleSwap.sol\":4863:4923  uint amountAOptimal = (amountBDesired * reserveA) / reserveB */\n      swap1\n      pop\n        /* \"SimpleSwap.sol\":4968:4978  amountAMin */\n      dup6\n        /* \"SimpleSwap.sol\":4950:4964  amountAOptimal */\n      dup2\n        /* \"SimpleSwap.sol\":4950:4978  amountAOptimal >= amountAMin */\n      lt\n      iszero\n        /* \"SimpleSwap.sol\":4942:4998  require(amountAOptimal >= amountAMin, \"amountA too low\") */\n      tag_322\n      jumpi\n      mload(0x40)\n      0x08c379a000000000000000000000000000000000000000000000000000000000\n      dup2\n      mstore\n      0x04\n      add\n      tag_323\n      swap1\n      tag_324\n      jump\t// in\n    tag_323:\n      mload(0x40)\n      dup1\n      swap2\n      sub\n      swap1\n      revert\n    tag_322:\n        /* \"SimpleSwap.sol\":5027:5041  amountAOptimal */\n      dup1\n        /* \"SimpleSwap.sol\":5017:5041  amountA = amountAOptimal */\n      swap4\n      pop\n        /* \"SimpleSwap.sol\":5070:5084  amountBDesired */\n      dup7\n        /* \"SimpleSwap.sol\":5060:5084  amountB = amountBDesired */\n      swap3\n      pop\n        /* \"SimpleSwap.sol\":4844:5100  {... */\n      pop\n        /* \"SimpleSwap.sol\":4623:5100  if (amountBOptimal <= amountBDesired) {... */\n    tag_319:\n        /* \"SimpleSwap.sol\":4533:5111  {... */\n      pop\n        /* \"SimpleSwap.sol\":4401:5111  if (reserveA == 0 && reserveB == 0) {... */\n    tag_312:\n        /* \"SimpleSwap.sol\":4193:5118  function _calculateAmounts(... */\n      swap5\n      pop\n      swap5\n      swap3\n      pop\n      pop\n      pop\n      jump\t// out\n        /* \"SimpleSwap.sol\":5570:5874  function _sqrt(uint y) internal pure returns (uint z) {... */\n    tag_270:\n        /* \"SimpleSwap.sol\":5616:5622  uint z */\n      0x00\n        /* \"SimpleSwap.sol\":5643:5644  3 */\n      0x03\n        /* \"SimpleSwap.sol\":5639:5640  y */\n      dup3\n        /* \"SimpleSwap.sol\":5639:5644  y > 3 */\n      gt\n        /* \"SimpleSwap.sol\":5635:5867  if (y > 3) {... */\n      iszero\n      tag_326\n      jumpi\n        /* \"SimpleSwap.sol\":5665:5666  y */\n      dup2\n        /* \"SimpleSwap.sol\":5661:5666  z = y */\n      swap1\n      pop\n        /* \"SimpleSwap.sol\":5681:5687  uint x */\n      0x00\n        /* \"SimpleSwap.sol\":5698:5699  1 */\n      0x01\n        /* \"SimpleSwap.sol\":5694:5695  2 */\n      0x02\n        /* \"SimpleSwap.sol\":5690:5691  y */\n      dup5\n        /* \"SimpleSwap.sol\":5690:5695  y / 2 */\n      tag_327\n      swap2\n      swap1\n      tag_119\n      jump\t// in\n    tag_327:\n        /* \"SimpleSwap.sol\":5690:5699  y / 2 + 1 */\n      tag_328\n      swap2\n      swap1\n      tag_115\n      jump\t// in\n    tag_328:\n        /* \"SimpleSwap.sol\":5681:5699  uint x = y / 2 + 1 */\n      swap1\n      pop\n        /* \"SimpleSwap.sol\":5714:5806  while (x < z) {... */\n    tag_329:\n        /* \"SimpleSwap.sol\":5725:5726  z */\n      dup2\n        /* \"SimpleSwap.sol\":5721:5722  x */\n      dup2\n        /* \"SimpleSwap.sol\":5721:5726  x < z */\n      lt\n        /* \"SimpleSwap.sol\":5714:5806  while (x < z) {... */\n      iszero\n      tag_330\n      jumpi\n        /* \"SimpleSwap.sol\":5751:5752  x */\n      dup1\n        /* \"SimpleSwap.sol\":5747:5752  z = x */\n      swap2\n      pop\n        /* \"SimpleSwap.sol\":5789:5790  2 */\n      0x02\n        /* \"SimpleSwap.sol\":5784:5785  x */\n      dup2\n        /* \"SimpleSwap.sol\":5780:5781  x */\n      dup3\n        /* \"SimpleSwap.sol\":5776:5777  y */\n      dup6\n        /* \"SimpleSwap.sol\":5776:5781  y / x */\n      tag_331\n      swap2\n      swap1\n      tag_119\n      jump\t// in\n    tag_331:\n        /* \"SimpleSwap.sol\":5776:5785  y / x + x */\n      tag_332\n      swap2\n      swap1\n      tag_115\n      jump\t// in\n    tag_332:\n        /* \"SimpleSwap.sol\":5775:5790  (y / x + x) / 2 */\n      tag_333\n      swap2\n      swap1\n      tag_119\n      jump\t// in\n    tag_333:\n        /* \"SimpleSwap.sol\":5771:5790  x = (y / x + x) / 2 */\n      swap1\n      pop\n        /* \"SimpleSwap.sol\":5714:5806  while (x < z) {... */\n      jump(tag_329)\n    tag_330:\n        /* \"SimpleSwap.sol\":5646:5817  {... */\n      pop\n        /* \"SimpleSwap.sol\":5635:5867  if (y > 3) {... */\n      jump(tag_334)\n    tag_326:\n        /* \"SimpleSwap.sol\":5832:5833  0 */\n      0x00\n        /* \"SimpleSwap.sol\":5827:5828  y */\n      dup3\n        /* \"SimpleSwap.sol\":5827:5833  y != 0 */\n      eq\n        /* \"SimpleSwap.sol\":5823:5867  if (y != 0) {... */\n      tag_335\n      jumpi\n        /* \"SimpleSwap.sol\":5854:5855  1 */\n      0x01\n        /* \"SimpleSwap.sol\":5850:5855  z = 1 */\n      swap1\n      pop\n        /* \"SimpleSwap.sol\":5823:5867  if (y != 0) {... */\n    tag_335:\n        /* \"SimpleSwap.sol\":5635:5867  if (y > 3) {... */\n    tag_334:\n        /* \"SimpleSwap.sol\":5570:5874  function _sqrt(uint y) internal pure returns (uint z) {... */\n      swap2\n      swap1\n      pop\n      jump\t// out\n        /* \"SimpleSwap.sol\":5297:5395  function _min(uint x, uint y) internal pure returns (uint) {... */\n    tag_279:\n        /* \"SimpleSwap.sol\":5350:5354  uint */\n      0x00\n        /* \"SimpleSwap.sol\":5378:5379  y */\n      dup2\n        /* \"SimpleSwap.sol\":5374:5375  x */\n      dup4\n        /* \"SimpleSwap.sol\":5374:5379  x < y */\n      lt\n        /* \"SimpleSwap.sol\":5374:5387  x < y ? x : y */\n      tag_337\n      jumpi\n        /* \"SimpleSwap.sol\":5386:5387  y */\n      dup2\n        /* \"SimpleSwap.sol\":5374:5387  x < y ? x : y */\n      jump(tag_338)\n    tag_337:\n        /* \"SimpleSwap.sol\":5382:5383  x */\n      dup3\n        /* \"SimpleSwap.sol\":5374:5387  x < y ? x : y */\n    tag_338:\n        /* \"SimpleSwap.sol\":5367:5387  return x < y ? x : y */\n      swap1\n      pop\n        /* \"SimpleSwap.sol\":5297:5395  function _min(uint x, uint y) internal pure returns (uint) {... */\n      swap3\n      swap2\n      pop\n      pop\n      jump\t// out\n        /* \"@openzeppelin/contracts/token/ERC20/ERC20.sol\":7439:7647  function _mint(address account, uint256 value) internal {... */\n    tag_283:\n        /* \"@openzeppelin/contracts/token/ERC20/ERC20.sol\":7528:7529  0 */\n      0x00\n        /* \"@openzeppelin/contracts/token/ERC20/ERC20.sol\":7509:7530  account == address(0) */\n      0xffffffffffffffffffffffffffffffffffffffff\n      and\n        /* \"@openzeppelin/contracts/token/ERC20/ERC20.sol\":7509:7516  account */\n      dup3\n        /* \"@openzeppelin/contracts/token/ERC20/ERC20.sol\":7509:7530  account == address(0) */\n      0xffffffffffffffffffffffffffffffffffffffff\n      and\n      sub\n        /* \"@openzeppelin/contracts/token/ERC20/ERC20.sol\":7505:7596  if (account == address(0)) {... */\n      tag_340\n      jumpi\n        /* \"@openzeppelin/contracts/token/ERC20/ERC20.sol\":7582:7583  0 */\n      0x00\n        /* \"@openzeppelin/contracts/token/ERC20/ERC20.sol\":7553:7585  ERC20InvalidReceiver(address(0)) */\n      mload(0x40)\n      0xec442f0500000000000000000000000000000000000000000000000000000000\n      dup2\n      mstore\n      0x04\n      add\n      tag_341\n      swap2\n      swap1\n      tag_300\n      jump\t// in\n    tag_341:\n      mload(0x40)\n      dup1\n      swap2\n      sub\n      swap1\n      revert\n        /* \"@openzeppelin/contracts/token/ERC20/ERC20.sol\":7505:7596  if (account == address(0)) {... */\n    tag_340:\n        /* \"@openzeppelin/contracts/token/ERC20/ERC20.sol\":7605:7640  _update(address(0), account, value) */\n      tag_342\n        /* \"@openzeppelin/contracts/token/ERC20/ERC20.sol\":7621:7622  0 */\n      0x00\n        /* \"@openzeppelin/contracts/token/ERC20/ERC20.sol\":7625:7632  account */\n      dup4\n        /* \"@openzeppelin/contracts/token/ERC20/ERC20.sol\":7634:7639  value */\n      dup4\n        /* \"@openzeppelin/contracts/token/ERC20/ERC20.sol\":7605:7612  _update */\n      tag_304\n        /* \"@openzeppelin/contracts/token/ERC20/ERC20.sol\":7605:7640  _update(address(0), account, value) */\n      jump\t// in\n    tag_342:\n        /* \"@openzeppelin/contracts/token/ERC20/ERC20.sol\":7439:7647  function _mint(address account, uint256 value) internal {... */\n      pop\n      pop\n      jump\t// out\n        /* \"@openzeppelin/contracts/token/ERC20/ERC20.sol\":9682:10114  function _approve(address owner, address spender, uint256 value, bool emitEvent) internal virtual {... */\n    tag_289:\n        /* \"@openzeppelin/contracts/token/ERC20/ERC20.sol\":9811:9812  0 */\n      0x00\n        /* \"@openzeppelin/contracts/token/ERC20/ERC20.sol\":9794:9813  owner == address(0) */\n      0xffffffffffffffffffffffffffffffffffffffff\n      and\n        /* \"@openzeppelin/contracts/token/ERC20/ERC20.sol\":9794:9799  owner */\n      dup5\n        /* \"@openzeppelin/contracts/token/ERC20/ERC20.sol\":9794:9813  owner == address(0) */\n      0xffffffffffffffffffffffffffffffffffffffff\n      and\n      sub\n        /* \"@openzeppelin/contracts/token/ERC20/ERC20.sol\":9790:9879  if (owner == address(0)) {... */\n      tag_344\n      jumpi\n        /* \"@openzeppelin/contracts/token/ERC20/ERC20.sol\":9865:9866  0 */\n      0x00\n        /* \"@openzeppelin/contracts/token/ERC20/ERC20.sol\":9836:9868  ERC20InvalidApprover(address(0)) */\n      mload(0x40)\n      0xe602df0500000000000000000000000000000000000000000000000000000000\n      dup2\n      mstore\n      0x04\n      add\n      tag_345\n      swap2\n      swap1\n      tag_300\n      jump\t// in\n    tag_345:\n      mload(0x40)\n      dup1\n      swap2\n      sub\n      swap1\n      revert\n        /* \"@openzeppelin/contracts/token/ERC20/ERC20.sol\":9790:9879  if (owner == address(0)) {... */\n    tag_344:\n        /* \"@openzeppelin/contracts/token/ERC20/ERC20.sol\":9911:9912  0 */\n      0x00\n        /* \"@openzeppelin/contracts/token/ERC20/ERC20.sol\":9892:9913  spender == address(0) */\n      0xffffffffffffffffffffffffffffffffffffffff\n      and\n        /* \"@openzeppelin/contracts/token/ERC20/ERC20.sol\":9892:9899  spender */\n      dup4\n        /* \"@openzeppelin/contracts/token/ERC20/ERC20.sol\":9892:9913  spender == address(0) */\n      0xffffffffffffffffffffffffffffffffffffffff\n      and\n      sub\n        /* \"@openzeppelin/contracts/token/ERC20/ERC20.sol\":9888:9978  if (spender == address(0)) {... */\n      tag_346\n      jumpi\n        /* \"@openzeppelin/contracts/token/ERC20/ERC20.sol\":9964:9965  0 */\n      0x00\n        /* \"@openzeppelin/contracts/token/ERC20/ERC20.sol\":9936:9967  ERC20InvalidSpender(address(0)) */\n      mload(0x40)\n      0x94280d6200000000000000000000000000000000000000000000000000000000\n      dup2\n      mstore\n      0x04\n      add\n      tag_347\n      swap2\n      swap1\n      tag_300\n      jump\t// in\n    tag_347:\n      mload(0x40)\n      dup1\n      swap2\n      sub\n      swap1\n      revert\n        /* \"@openzeppelin/contracts/token/ERC20/ERC20.sol\":9888:9978  if (spender == address(0)) {... */\n    tag_346:\n        /* \"@openzeppelin/contracts/token/ERC20/ERC20.sol\":10017:10022  value */\n      dup2\n        /* \"@openzeppelin/contracts/token/ERC20/ERC20.sol\":9987:9998  _allowances */\n      0x01\n        /* \"@openzeppelin/contracts/token/ERC20/ERC20.sol\":9987:10005  _allowances[owner] */\n      0x00\n        /* \"@openzeppelin/contracts/token/ERC20/ERC20.sol\":9999:10004  owner */\n      dup7\n        /* \"@openzeppelin/contracts/token/ERC20/ERC20.sol\":9987:10005  _allowances[owner] */\n      0xffffffffffffffffffffffffffffffffffffffff\n      and\n      0xffffffffffffffffffffffffffffffffffffffff\n      and\n      dup2\n      mstore\n      0x20\n      add\n      swap1\n      dup2\n      mstore\n      0x20\n      add\n      0x00\n      keccak256\n        /* \"@openzeppelin/contracts/token/ERC20/ERC20.sol\":9987:10014  _allowances[owner][spender] */\n      0x00\n        /* \"@openzeppelin/contracts/token/ERC20/ERC20.sol\":10006:10013  spender */\n      dup6\n        /* \"@openzeppelin/contracts/token/ERC20/ERC20.sol\":9987:10014  _allowances[owner][spender] */\n      0xffffffffffffffffffffffffffffffffffffffff\n      and\n      0xffffffffffffffffffffffffffffffffffffffff\n      and\n      dup2\n      mstore\n      0x20\n      add\n      swap1\n      dup2\n      mstore\n      0x20\n      add\n      0x00\n      keccak256\n        /* \"@openzeppelin/contracts/token/ERC20/ERC20.sol\":9987:10022  _allowances[owner][spender] = value */\n      dup2\n      swap1\n      sstore\n      pop\n        /* \"@openzeppelin/contracts/token/ERC20/ERC20.sol\":10036:10045  emitEvent */\n      dup1\n        /* \"@openzeppelin/contracts/token/ERC20/ERC20.sol\":10032:10108  if (emitEvent) {... */\n      iszero\n      tag_348\n      jumpi\n        /* \"@openzeppelin/contracts/token/ERC20/ERC20.sol\":10082:10089  spender */\n      dup3\n        /* \"@openzeppelin/contracts/token/ERC20/ERC20.sol\":10066:10097  Approval(owner, spender, value) */\n      0xffffffffffffffffffffffffffffffffffffffff\n      and\n        /* \"@openzeppelin/contracts/token/ERC20/ERC20.sol\":10075:10080  owner */\n      dup5\n        /* \"@openzeppelin/contracts/token/ERC20/ERC20.sol\":10066:10097  Approval(owner, spender, value) */\n      0xffffffffffffffffffffffffffffffffffffffff\n      and\n      0x8c5be1e5ebec7d5bd14f71427d1e84f3dd0314c0f7b2291e5b200ac8c7c3b925\n        /* \"@openzeppelin/contracts/token/ERC20/ERC20.sol\":10091:10096  value */\n      dup5\n        /* \"@openzeppelin/contracts/token/ERC20/ERC20.sol\":10066:10097  Approval(owner, spender, value) */\n      mload(0x40)\n      tag_349\n      swap2\n      swap1\n      tag_29\n      jump\t// in\n    tag_349:\n      mload(0x40)\n      dup1\n      swap2\n      sub\n      swap1\n      log3\n        /* \"@openzeppelin/contracts/token/ERC20/ERC20.sol\":10032:10108  if (emitEvent) {... */\n    tag_348:\n        /* \"@openzeppelin/contracts/token/ERC20/ERC20.sol\":9682:10114  function _approve(address owner, address spender, uint256 value, bool emitEvent) internal virtual {... */\n      pop\n      pop\n      pop\n      pop\n      jump\t// out\n        /* \"@openzeppelin/contracts/token/ERC20/ERC20.sol\":5989:7096  function _update(address from, address to, uint256 value) internal virtual {... */\n    tag_304:\n        /* \"@openzeppelin/contracts/token/ERC20/ERC20.sol\":6094:6095  0 */\n      0x00\n        /* \"@openzeppelin/contracts/token/ERC20/ERC20.sol\":6078:6096  from == address(0) */\n      0xffffffffffffffffffffffffffffffffffffffff\n      and\n        /* \"@openzeppelin/contracts/token/ERC20/ERC20.sol\":6078:6082  from */\n      dup4\n        /* \"@openzeppelin/contracts/token/ERC20/ERC20.sol\":6078:6096  from == address(0) */\n      0xffffffffffffffffffffffffffffffffffffffff\n      and\n      sub\n        /* \"@openzeppelin/contracts/token/ERC20/ERC20.sol\":6074:6614  if (from == address(0)) {... */\n      tag_351\n      jumpi\n        /* \"@openzeppelin/contracts/token/ERC20/ERC20.sol\":6230:6235  value */\n      dup1\n        /* \"@openzeppelin/contracts/token/ERC20/ERC20.sol\":6214:6226  _totalSupply */\n      0x02\n      0x00\n        /* \"@openzeppelin/contracts/token/ERC20/ERC20.sol\":6214:6235  _totalSupply += value */\n      dup3\n      dup3\n      sload\n      tag_352\n      swap2\n      swap1\n      tag_115\n      jump\t// in\n    tag_352:\n      swap3\n      pop\n      pop\n      dup2\n      swap1\n      sstore\n      pop\n        /* \"@openzeppelin/contracts/token/ERC20/ERC20.sol\":6074:6614  if (from == address(0)) {... */\n      jump(tag_353)\n    tag_351:\n        /* \"@openzeppelin/contracts/token/ERC20/ERC20.sol\":6266:6285  uint256 fromBalance */\n      0x00\n        /* \"@openzeppelin/contracts/token/ERC20/ERC20.sol\":6288:6297  _balances */\n      0x00\n        /* \"@openzeppelin/contracts/token/ERC20/ERC20.sol\":6288:6303  _balances[from] */\n      0x00\n        /* \"@openzeppelin/contracts/token/ERC20/ERC20.sol\":6298:6302  from */\n      dup6\n        /* \"@openzeppelin/contracts/token/ERC20/ERC20.sol\":6288:6303  _balances[from] */\n      0xffffffffffffffffffffffffffffffffffffffff\n      and\n      0xffffffffffffffffffffffffffffffffffffffff\n      and\n      dup2\n      mstore\n      0x20\n      add\n      swap1\n      dup2\n      mstore\n      0x20\n      add\n      0x00\n      keccak256\n      sload\n        /* \"@openzeppelin/contracts/token/ERC20/ERC20.sol\":6266:6303  uint256 fromBalance = _balances[from] */\n      swap1\n      pop\n        /* \"@openzeppelin/contracts/token/ERC20/ERC20.sol\":6335:6340  value */\n      dup2\n        /* \"@openzeppelin/contracts/token/ERC20/ERC20.sol\":6321:6332  fromBalance */\n      dup2\n        /* \"@openzeppelin/contracts/token/ERC20/ERC20.sol\":6321:6340  fromBalance < value */\n      lt\n        /* \"@openzeppelin/contracts/token/ERC20/ERC20.sol\":6317:6432  if (fromBalance < value) {... */\n      iszero\n      tag_354\n      jumpi\n        /* \"@openzeppelin/contracts/token/ERC20/ERC20.sol\":6392:6396  from */\n      dup4\n        /* \"@openzeppelin/contracts/token/ERC20/ERC20.sol\":6398:6409  fromBalance */\n      dup2\n        /* \"@openzeppelin/contracts/token/ERC20/ERC20.sol\":6411:6416  value */\n      dup4\n        /* \"@openzeppelin/contracts/token/ERC20/ERC20.sol\":6367:6417  ERC20InsufficientBalance(from, fromBalance, value) */\n      mload(0x40)\n      0xe450d38c00000000000000000000000000000000000000000000000000000000\n      dup2\n      mstore\n      0x04\n      add\n      tag_355\n      swap4\n      swap3\n      swap2\n      swap1\n      tag_295\n      jump\t// in\n    tag_355:\n      mload(0x40)\n      dup1\n      swap2\n      sub\n      swap1\n      revert\n        /* \"@openzeppelin/contracts/token/ERC20/ERC20.sol\":6317:6432  if (fromBalance < value) {... */\n    tag_354:\n        /* \"@openzeppelin/contracts/token/ERC20/ERC20.sol\":6584:6589  value */\n      dup2\n        /* \"@openzeppelin/contracts/token/ERC20/ERC20.sol\":6570:6581  fromBalance */\n      dup2\n        /* \"@openzeppelin/contracts/token/ERC20/ERC20.sol\":6570:6589  fromBalance - value */\n      sub\n        /* \"@openzeppelin/contracts/token/ERC20/ERC20.sol\":6552:6561  _balances */\n      0x00\n        /* \"@openzeppelin/contracts/token/ERC20/ERC20.sol\":6552:6567  _balances[from] */\n      0x00\n        /* \"@openzeppelin/contracts/token/ERC20/ERC20.sol\":6562:6566  from */\n      dup7\n        /* \"@openzeppelin/contracts/token/ERC20/ERC20.sol\":6552:6567  _balances[from] */\n      0xffffffffffffffffffffffffffffffffffffffff\n      and\n      0xffffffffffffffffffffffffffffffffffffffff\n      and\n      dup2\n      mstore\n      0x20\n      add\n      swap1\n      dup2\n      mstore\n      0x20\n      add\n      0x00\n      keccak256\n        /* \"@openzeppelin/contracts/token/ERC20/ERC20.sol\":6552:6589  _balances[from] = fromBalance - value */\n      dup2\n      swap1\n      sstore\n      pop\n        /* \"@openzeppelin/contracts/token/ERC20/ERC20.sol\":6252:6614  {... */\n      pop\n        /* \"@openzeppelin/contracts/token/ERC20/ERC20.sol\":6074:6614  if (from == address(0)) {... */\n    tag_353:\n        /* \"@openzeppelin/contracts/token/ERC20/ERC20.sol\":6642:6643  0 */\n      0x00\n        /* \"@openzeppelin/contracts/token/ERC20/ERC20.sol\":6628:6644  to == address(0) */\n      0xffffffffffffffffffffffffffffffffffffffff\n      and\n        /* \"@openzeppelin/contracts/token/ERC20/ERC20.sol\":6628:6630  to */\n      dup3\n        /* \"@openzeppelin/contracts/token/ERC20/ERC20.sol\":6628:6644  to == address(0) */\n      0xffffffffffffffffffffffffffffffffffffffff\n      and\n      sub\n        /* \"@openzeppelin/contracts/token/ERC20/ERC20.sol\":6624:7049  if (to == address(0)) {... */\n      tag_356\n      jumpi\n        /* \"@openzeppelin/contracts/token/ERC20/ERC20.sol\":6807:6812  value */\n      dup1\n        /* \"@openzeppelin/contracts/token/ERC20/ERC20.sol\":6791:6803  _totalSupply */\n      0x02\n      0x00\n        /* \"@openzeppelin/contracts/token/ERC20/ERC20.sol\":6791:6812  _totalSupply -= value */\n      dup3\n      dup3\n      sload\n      sub\n      swap3\n      pop\n      pop\n      dup2\n      swap1\n      sstore\n      pop\n        /* \"@openzeppelin/contracts/token/ERC20/ERC20.sol\":6624:7049  if (to == address(0)) {... */\n      jump(tag_357)\n    tag_356:\n        /* \"@openzeppelin/contracts/token/ERC20/ERC20.sol\":7019:7024  value */\n      dup1\n        /* \"@openzeppelin/contracts/token/ERC20/ERC20.sol\":7002:7011  _balances */\n      0x00\n        /* \"@openzeppelin/contracts/token/ERC20/ERC20.sol\":7002:7015  _balances[to] */\n      0x00\n        /* \"@openzeppelin/contracts/token/ERC20/ERC20.sol\":7012:7014  to */\n      dup5\n        /* \"@openzeppelin/contracts/token/ERC20/ERC20.sol\":7002:7015  _balances[to] */\n      0xffffffffffffffffffffffffffffffffffffffff\n      and\n      0xffffffffffffffffffffffffffffffffffffffff\n      and\n      dup2\n      mstore\n      0x20\n      add\n      swap1\n      dup2\n      mstore\n      0x20\n      add\n      0x00\n      keccak256\n      0x00\n        /* \"@openzeppelin/contracts/token/ERC20/ERC20.sol\":7002:7024  _balances[to] += value */\n      dup3\n      dup3\n      sload\n      add\n      swap3\n      pop\n      pop\n      dup2\n      swap1\n      sstore\n      pop\n        /* \"@openzeppelin/contracts/token/ERC20/ERC20.sol\":6624:7049  if (to == address(0)) {... */\n    tag_357:\n        /* \"@openzeppelin/contracts/token/ERC20/ERC20.sol\":7079:7081  to */\n      dup2\n        /* \"@openzeppelin/contracts/token/ERC20/ERC20.sol\":7064:7089  Transfer(from, to, value) */\n      0xffffffffffffffffffffffffffffffffffffffff\n      and\n        /* \"@openzeppelin/contracts/token/ERC20/ERC20.sol\":7073:7077  from */\n      dup4\n        /* \"@openzeppelin/contracts/token/ERC20/ERC20.sol\":7064:7089  Transfer(from, to, value) */\n      0xffffffffffffffffffffffffffffffffffffffff\n      and\n      0xddf252ad1be2c89b69c2b068fc378daa952ba7f163c4a11628f55a4df523b3ef\n        /* \"@openzeppelin/contracts/token/ERC20/ERC20.sol\":7083:7088  value */\n      dup4\n        /* \"@openzeppelin/contracts/token/ERC20/ERC20.sol\":7064:7089  Transfer(from, to, value) */\n      mload(0x40)\n      tag_358\n      swap2\n      swap1\n      tag_29\n      jump\t// in\n    tag_358:\n      mload(0x40)\n      dup1\n      swap2\n      sub\n      swap1\n      log3\n        /* \"@openzeppelin/contracts/token/ERC20/ERC20.sol\":5989:7096  function _update(address from, address to, uint256 value) internal virtual {... */\n      pop\n      pop\n      pop\n      jump\t// out\n        /* \"#utility.yul\":88:205   */\n    tag_360:\n        /* \"#utility.yul\":197:198   */\n      0x00\n        /* \"#utility.yul\":194:195   */\n      0x00\n        /* \"#utility.yul\":187:199   */\n      revert\n        /* \"#utility.yul\":211:328   */\n    tag_361:\n        /* \"#utility.yul\":320:321   */\n      0x00\n        /* \"#utility.yul\":317:318   */\n      0x00\n        /* \"#utility.yul\":310:322   */\n      revert\n        /* \"#utility.yul\":334:411   */\n    tag_362:\n        /* \"#utility.yul\":371:378   */\n      0x00\n        /* \"#utility.yul\":400:405   */\n      dup2\n        /* \"#utility.yul\":389:405   */\n      swap1\n      pop\n        /* \"#utility.yul\":334:411   */\n      swap2\n      swap1\n      pop\n      jump\t// out\n        /* \"#utility.yul\":417:539   */\n    tag_363:\n        /* \"#utility.yul\":490:514   */\n      tag_439\n        /* \"#utility.yul\":508:513   */\n      dup2\n        /* \"#utility.yul\":490:514   */\n      tag_362\n      jump\t// in\n    tag_439:\n        /* \"#utility.yul\":483:488   */\n      dup2\n        /* \"#utility.yul\":480:515   */\n      eq\n        /* \"#utility.yul\":470:533   */\n      tag_440\n      jumpi\n        /* \"#utility.yul\":529:530   */\n      0x00\n        /* \"#utility.yul\":526:527   */\n      0x00\n        /* \"#utility.yul\":519:531   */\n      revert\n        /* \"#utility.yul\":470:533   */\n    tag_440:\n        /* \"#utility.yul\":417:539   */\n      pop\n      jump\t// out\n        /* \"#utility.yul\":545:684   */\n    tag_364:\n        /* \"#utility.yul\":591:596   */\n      0x00\n        /* \"#utility.yul\":629:635   */\n      dup2\n        /* \"#utility.yul\":616:636   */\n      calldataload\n        /* \"#utility.yul\":607:636   */\n      swap1\n      pop\n        /* \"#utility.yul\":645:678   */\n      tag_442\n        /* \"#utility.yul\":672:677   */\n      dup2\n        /* \"#utility.yul\":645:678   */\n      tag_363\n      jump\t// in\n    tag_442:\n        /* \"#utility.yul\":545:684   */\n      swap3\n      swap2\n      pop\n      pop\n      jump\t// out\n        /* \"#utility.yul\":690:1309   */\n    tag_26:\n        /* \"#utility.yul\":767:773   */\n      0x00\n        /* \"#utility.yul\":775:781   */\n      0x00\n        /* \"#utility.yul\":783:789   */\n      0x00\n        /* \"#utility.yul\":832:834   */\n      0x60\n        /* \"#utility.yul\":820:829   */\n      dup5\n        /* \"#utility.yul\":811:818   */\n      dup7\n        /* \"#utility.yul\":807:830   */\n      sub\n        /* \"#utility.yul\":803:835   */\n      slt\n        /* \"#utility.yul\":800:919   */\n      iszero\n      tag_444\n      jumpi\n        /* \"#utility.yul\":838:917   */\n      tag_445\n      tag_360\n      jump\t// in\n    tag_445:\n        /* \"#utility.yul\":800:919   */\n    tag_444:\n        /* \"#utility.yul\":958:959   */\n      0x00\n        /* \"#utility.yul\":983:1036   */\n      tag_446\n        /* \"#utility.yul\":1028:1035   */\n      dup7\n        /* \"#utility.yul\":1019:1025   */\n      dup3\n        /* \"#utility.yul\":1008:1017   */\n      dup8\n        /* \"#utility.yul\":1004:1026   */\n      add\n        /* \"#utility.yul\":983:1036   */\n      tag_364\n      jump\t// in\n    tag_446:\n        /* \"#utility.yul\":973:1036   */\n      swap4\n      pop\n        /* \"#utility.yul\":929:1046   */\n      pop\n        /* \"#utility.yul\":1085:1087   */\n      0x20\n        /* \"#utility.yul\":1111:1164   */\n      tag_447\n        /* \"#utility.yul\":1156:1163   */\n      dup7\n        /* \"#utility.yul\":1147:1153   */\n      dup3\n        /* \"#utility.yul\":1136:1145   */\n      dup8\n        /* \"#utility.yul\":1132:1154   */\n      add\n        /* \"#utility.yul\":1111:1164   */\n      tag_364\n      jump\t// in\n    tag_447:\n        /* \"#utility.yul\":1101:1164   */\n      swap3\n      pop\n        /* \"#utility.yul\":1056:1174   */\n      pop\n        /* \"#utility.yul\":1213:1215   */\n      0x40\n        /* \"#utility.yul\":1239:1292   */\n      tag_448\n        /* \"#utility.yul\":1284:1291   */\n      dup7\n        /* \"#utility.yul\":1275:1281   */\n      dup3\n        /* \"#utility.yul\":1264:1273   */\n      dup8\n        /* \"#utility.yul\":1260:1282   */\n      add\n        /* \"#utility.yul\":1239:1292   */\n      tag_364\n      jump\t// in\n    tag_448:\n        /* \"#utility.yul\":1229:1292   */\n      swap2\n      pop\n        /* \"#utility.yul\":1184:1302   */\n      pop\n        /* \"#utility.yul\":690:1309   */\n      swap3\n      pop\n      swap3\n      pop\n      swap3\n      jump\t// out\n        /* \"#utility.yul\":1315:1433   */\n    tag_365:\n        /* \"#utility.yul\":1402:1426   */\n      tag_450\n        /* \"#utility.yul\":1420:1425   */\n      dup2\n        /* \"#utility.yul\":1402:1426   */\n      tag_362\n      jump\t// in\n    tag_450:\n        /* \"#utility.yul\":1397:1400   */\n      dup3\n        /* \"#utility.yul\":1390:1427   */\n      mstore\n        /* \"#utility.yul\":1315:1433   */\n      pop\n      pop\n      jump\t// out\n        /* \"#utility.yul\":1439:1661   */\n    tag_29:\n        /* \"#utility.yul\":1532:1536   */\n      0x00\n        /* \"#utility.yul\":1570:1572   */\n      0x20\n        /* \"#utility.yul\":1559:1568   */\n      dup3\n        /* \"#utility.yul\":1555:1573   */\n      add\n        /* \"#utility.yul\":1547:1573   */\n      swap1\n      pop\n        /* \"#utility.yul\":1583:1654   */\n      tag_452\n        /* \"#utility.yul\":1651:1652   */\n      0x00\n        /* \"#utility.yul\":1640:1649   */\n      dup4\n        /* \"#utility.yul\":1636:1653   */\n      add\n        /* \"#utility.yul\":1627:1633   */\n      dup5\n        /* \"#utility.yul\":1583:1654   */\n      tag_365\n      jump\t// in\n    tag_452:\n        /* \"#utility.yul\":1439:1661   */\n      swap3\n      swap2\n      pop\n      pop\n      jump\t// out\n        /* \"#utility.yul\":1667:1766   */\n    tag_366:\n        /* \"#utility.yul\":1719:1725   */\n      0x00\n        /* \"#utility.yul\":1753:1758   */\n      dup2\n        /* \"#utility.yul\":1747:1759   */\n      mload\n        /* \"#utility.yul\":1737:1759   */\n      swap1\n      pop\n        /* \"#utility.yul\":1667:1766   */\n      swap2\n      swap1\n      pop\n      jump\t// out\n        /* \"#utility.yul\":1772:1941   */\n    tag_367:\n        /* \"#utility.yul\":1856:1867   */\n      0x00\n        /* \"#utility.yul\":1890:1896   */\n      dup3\n        /* \"#utility.yul\":1885:1888   */\n      dup3\n        /* \"#utility.yul\":1878:1897   */\n      mstore\n        /* \"#utility.yul\":1930:1934   */\n      0x20\n        /* \"#utility.yul\":1925:1928   */\n      dup3\n        /* \"#utility.yul\":1921:1935   */\n      add\n        /* \"#utility.yul\":1906:1935   */\n      swap1\n      pop\n        /* \"#utility.yul\":1772:1941   */\n      swap3\n      swap2\n      pop\n      pop\n      jump\t// out\n        /* \"#utility.yul\":1947:2086   */\n    tag_368:\n        /* \"#utility.yul\":2036:2042   */\n      dup3\n        /* \"#utility.yul\":2031:2034   */\n      dup2\n        /* \"#utility.yul\":2026:2029   */\n      dup4\n        /* \"#utility.yul\":2020:2043   */\n      mcopy\n        /* \"#utility.yul\":2077:2078   */\n      0x00\n        /* \"#utility.yul\":2068:2074   */\n      dup4\n        /* \"#utility.yul\":2063:2066   */\n      dup4\n        /* \"#utility.yul\":2059:2075   */\n      add\n        /* \"#utility.yul\":2052:2079   */\n      mstore\n        /* \"#utility.yul\":1947:2086   */\n      pop\n      pop\n      pop\n      jump\t// out\n        /* \"#utility.yul\":2092:2194   */\n    tag_369:\n        /* \"#utility.yul\":2133:2139   */\n      0x00\n        /* \"#utility.yul\":2184:2186   */\n      0x1f\n        /* \"#utility.yul\":2180:2187   */\n      not\n        /* \"#utility.yul\":2175:2177   */\n      0x1f\n        /* \"#utility.yul\":2168:2173   */\n      dup4\n        /* \"#utility.yul\":2164:2178   */\n      add\n        /* \"#utility.yul\":2160:2188   */\n      and\n        /* \"#utility.yul\":2150:2188   */\n      swap1\n      pop\n        /* \"#utility.yul\":2092:2194   */\n      swap2\n      swap1\n      pop\n      jump\t// out\n        /* \"#utility.yul\":2200:2577   */\n    tag_370:\n        /* \"#utility.yul\":2288:2291   */\n      0x00\n        /* \"#utility.yul\":2316:2355   */\n      tag_458\n        /* \"#utility.yul\":2349:2354   */\n      dup3\n        /* \"#utility.yul\":2316:2355   */\n      tag_366\n      jump\t// in\n    tag_458:\n        /* \"#utility.yul\":2371:2442   */\n      tag_459\n        /* \"#utility.yul\":2435:2441   */\n      dup2\n        /* \"#utility.yul\":2430:2433   */\n      dup6\n        /* \"#utility.yul\":2371:2442   */\n      tag_367\n      jump\t// in\n    tag_459:\n        /* \"#utility.yul\":2364:2442   */\n      swap4\n      pop\n        /* \"#utility.yul\":2451:2516   */\n      tag_460\n        /* \"#utility.yul\":2509:2515   */\n      dup2\n        /* \"#utility.yul\":2504:2507   */\n      dup6\n        /* \"#utility.yul\":2497:2501   */\n      0x20\n        /* \"#utility.yul\":2490:2495   */\n      dup7\n        /* \"#utility.yul\":2486:2502   */\n      add\n        /* \"#utility.yul\":2451:2516   */\n      tag_368\n      jump\t// in\n    tag_460:\n        /* \"#utility.yul\":2541:2570   */\n      tag_461\n        /* \"#utility.yul\":2563:2569   */\n      dup2\n        /* \"#utility.yul\":2541:2570   */\n      tag_369\n      jump\t// in\n    tag_461:\n        /* \"#utility.yul\":2536:2539   */\n      dup5\n        /* \"#utility.yul\":2532:2571   */\n      add\n        /* \"#utility.yul\":2525:2571   */\n      swap2\n      pop\n        /* \"#utility.yul\":2292:2577   */\n      pop\n        /* \"#utility.yul\":2200:2577   */\n      swap3\n      swap2\n      pop\n      pop\n      jump\t// out\n        /* \"#utility.yul\":2583:2896   */\n    tag_33:\n        /* \"#utility.yul\":2696:2700   */\n      0x00\n        /* \"#utility.yul\":2734:2736   */\n      0x20\n        /* \"#utility.yul\":2723:2732   */\n      dup3\n        /* \"#utility.yul\":2719:2737   */\n      add\n        /* \"#utility.yul\":2711:2737   */\n      swap1\n      pop\n        /* \"#utility.yul\":2783:2792   */\n      dup2\n        /* \"#utility.yul\":2777:2781   */\n      dup2\n        /* \"#utility.yul\":2773:2793   */\n      sub\n        /* \"#utility.yul\":2769:2770   */\n      0x00\n        /* \"#utility.yul\":2758:2767   */\n      dup4\n        /* \"#utility.yul\":2754:2771   */\n      add\n        /* \"#utility.yul\":2747:2794   */\n      mstore\n        /* \"#utility.yul\":2811:2889   */\n      tag_463\n        /* \"#utility.yul\":2884:2888   */\n      dup2\n        /* \"#utility.yul\":2875:2881   */\n      dup5\n        /* \"#utility.yul\":2811:2889   */\n      tag_370\n      jump\t// in\n    tag_463:\n        /* \"#utility.yul\":2803:2889   */\n      swap1\n      pop\n        /* \"#utility.yul\":2583:2896   */\n      swap3\n      swap2\n      pop\n      pop\n      jump\t// out\n        /* \"#utility.yul\":2902:3028   */\n    tag_371:\n        /* \"#utility.yul\":2939:2946   */\n      0x00\n        /* \"#utility.yul\":2979:3021   */\n      0xffffffffffffffffffffffffffffffffffffffff\n        /* \"#utility.yul\":2972:2977   */\n      dup3\n        /* \"#utility.yul\":2968:3022   */\n      and\n        /* \"#utility.yul\":2957:3022   */\n      swap1\n      pop\n        /* \"#utility.yul\":2902:3028   */\n      swap2\n      swap1\n      pop\n      jump\t// out\n        /* \"#utility.yul\":3034:3130   */\n    tag_372:\n        /* \"#utility.yul\":3071:3078   */\n      0x00\n        /* \"#utility.yul\":3100:3124   */\n      tag_466\n        /* \"#utility.yul\":3118:3123   */\n      dup3\n        /* \"#utility.yul\":3100:3124   */\n      tag_371\n      jump\t// in\n    tag_466:\n        /* \"#utility.yul\":3089:3124   */\n      swap1\n      pop\n        /* \"#utility.yul\":3034:3130   */\n      swap2\n      swap1\n      pop\n      jump\t// out\n        /* \"#utility.yul\":3136:3258   */\n    tag_373:\n        /* \"#utility.yul\":3209:3233   */\n      tag_468\n        /* \"#utility.yul\":3227:3232   */\n      dup2\n        /* \"#utility.yul\":3209:3233   */\n      tag_372\n      jump\t// in\n    tag_468:\n        /* \"#utility.yul\":3202:3207   */\n      dup2\n        /* \"#utility.yul\":3199:3234   */\n      eq\n        /* \"#utility.yul\":3189:3252   */\n      tag_469\n      jumpi\n        /* \"#utility.yul\":3248:3249   */\n      0x00\n        /* \"#utility.yul\":3245:3246   */\n      0x00\n        /* \"#utility.yul\":3238:3250   */\n      revert\n        /* \"#utility.yul\":3189:3252   */\n    tag_469:\n        /* \"#utility.yul\":3136:3258   */\n      pop\n      jump\t// out\n        /* \"#utility.yul\":3264:3403   */\n    tag_374:\n        /* \"#utility.yul\":3310:3315   */\n      0x00\n        /* \"#utility.yul\":3348:3354   */\n      dup2\n        /* \"#utility.yul\":3335:3355   */\n      calldataload\n        /* \"#utility.yul\":3326:3355   */\n      swap1\n      pop\n        /* \"#utility.yul\":3364:3397   */\n      tag_471\n        /* \"#utility.yul\":3391:3396   */\n      dup2\n        /* \"#utility.yul\":3364:3397   */\n      tag_373\n      jump\t// in\n    tag_471:\n        /* \"#utility.yul\":3264:3403   */\n      swap3\n      swap2\n      pop\n      pop\n      jump\t// out\n        /* \"#utility.yul\":3409:3883   */\n    tag_36:\n        /* \"#utility.yul\":3477:3483   */\n      0x00\n        /* \"#utility.yul\":3485:3491   */\n      0x00\n        /* \"#utility.yul\":3534:3536   */\n      0x40\n        /* \"#utility.yul\":3522:3531   */\n      dup4\n        /* \"#utility.yul\":3513:3520   */\n      dup6\n        /* \"#utility.yul\":3509:3532   */\n      sub\n        /* \"#utility.yul\":3505:3537   */\n      slt\n        /* \"#utility.yul\":3502:3621   */\n      iszero\n      tag_473\n      jumpi\n        /* \"#utility.yul\":3540:3619   */\n      tag_474\n      tag_360\n      jump\t// in\n    tag_474:\n        /* \"#utility.yul\":3502:3621   */\n    tag_473:\n        /* \"#utility.yul\":3660:3661   */\n      0x00\n        /* \"#utility.yul\":3685:3738   */\n      tag_475\n        /* \"#utility.yul\":3730:3737   */\n      dup6\n        /* \"#utility.yul\":3721:3727   */\n      dup3\n        /* \"#utility.yul\":3710:3719   */\n      dup7\n        /* \"#utility.yul\":3706:3728   */\n      add\n        /* \"#utility.yul\":3685:3738   */\n      tag_374\n      jump\t// in\n    tag_475:\n        /* \"#utility.yul\":3675:3738   */\n      swap3\n      pop\n        /* \"#utility.yul\":3631:3748   */\n      pop\n        /* \"#utility.yul\":3787:3789   */\n      0x20\n        /* \"#utility.yul\":3813:3866   */\n      tag_476\n        /* \"#utility.yul\":3858:3865   */\n      dup6\n        /* \"#utility.yul\":3849:3855   */\n      dup3\n        /* \"#utility.yul\":3838:3847   */\n      dup7\n        /* \"#utility.yul\":3834:3856   */\n      add\n        /* \"#utility.yul\":3813:3866   */\n      tag_364\n      jump\t// in\n    tag_476:\n        /* \"#utility.yul\":3803:3866   */\n      swap2\n      pop\n        /* \"#utility.yul\":3758:3876   */\n      pop\n        /* \"#utility.yul\":3409:3883   */\n      swap3\n      pop\n      swap3\n      swap1\n      pop\n      jump\t// out\n        /* \"#utility.yul\":3889:3979   */\n    tag_375:\n        /* \"#utility.yul\":3923:3930   */\n      0x00\n        /* \"#utility.yul\":3966:3971   */\n      dup2\n        /* \"#utility.yul\":3959:3972   */\n      iszero\n        /* \"#utility.yul\":3952:3973   */\n      iszero\n        /* \"#utility.yul\":3941:3973   */\n      swap1\n      pop\n        /* \"#utility.yul\":3889:3979   */\n      swap2\n      swap1\n      pop\n      jump\t// out\n        /* \"#utility.yul\":3985:4094   */\n    tag_376:\n        /* \"#utility.yul\":4066:4087   */\n      tag_479\n        /* \"#utility.yul\":4081:4086   */\n      dup2\n        /* \"#utility.yul\":4066:4087   */\n      tag_375\n      jump\t// in\n    tag_479:\n        /* \"#utility.yul\":4061:4064   */\n      dup3\n        /* \"#utility.yul\":4054:4088   */\n      mstore\n        /* \"#utility.yul\":3985:4094   */\n      pop\n      pop\n      jump\t// out\n        /* \"#utility.yul\":4100:4310   */\n    tag_39:\n        /* \"#utility.yul\":4187:4191   */\n      0x00\n        /* \"#utility.yul\":4225:4227   */\n      0x20\n        /* \"#utility.yul\":4214:4223   */\n      dup3\n        /* \"#utility.yul\":4210:4228   */\n      add\n        /* \"#utility.yul\":4202:4228   */\n      swap1\n      pop\n        /* \"#utility.yul\":4238:4303   */\n      tag_481\n        /* \"#utility.yul\":4300:4301   */\n      0x00\n        /* \"#utility.yul\":4289:4298   */\n      dup4\n        /* \"#utility.yul\":4285:4302   */\n      add\n        /* \"#utility.yul\":4276:4282   */\n      dup5\n        /* \"#utility.yul\":4238:4303   */\n      tag_376\n      jump\t// in\n    tag_481:\n        /* \"#utility.yul\":4100:4310   */\n      swap3\n      swap2\n      pop\n      pop\n      jump\t// out\n        /* \"#utility.yul\":4316:4376   */\n    tag_377:\n        /* \"#utility.yul\":4344:4347   */\n      0x00\n        /* \"#utility.yul\":4365:4370   */\n      dup2\n        /* \"#utility.yul\":4358:4370   */\n      swap1\n      pop\n        /* \"#utility.yul\":4316:4376   */\n      swap2\n      swap1\n      pop\n      jump\t// out\n        /* \"#utility.yul\":4382:4524   */\n    tag_378:\n        /* \"#utility.yul\":4432:4441   */\n      0x00\n        /* \"#utility.yul\":4465:4518   */\n      tag_484\n        /* \"#utility.yul\":4483:4517   */\n      tag_485\n        /* \"#utility.yul\":4492:4516   */\n      tag_486\n        /* \"#utility.yul\":4510:4515   */\n      dup5\n        /* \"#utility.yul\":4492:4516   */\n      tag_371\n      jump\t// in\n    tag_486:\n        /* \"#utility.yul\":4483:4517   */\n      tag_377\n      jump\t// in\n    tag_485:\n        /* \"#utility.yul\":4465:4518   */\n      tag_371\n      jump\t// in\n    tag_484:\n        /* \"#utility.yul\":4452:4518   */\n      swap1\n      pop\n        /* \"#utility.yul\":4382:4524   */\n      swap2\n      swap1\n      pop\n      jump\t// out\n        /* \"#utility.yul\":4530:4656   */\n    tag_379:\n        /* \"#utility.yul\":4580:4589   */\n      0x00\n        /* \"#utility.yul\":4613:4650   */\n      tag_488\n        /* \"#utility.yul\":4644:4649   */\n      dup3\n        /* \"#utility.yul\":4613:4650   */\n      tag_378\n      jump\t// in\n    tag_488:\n        /* \"#utility.yul\":4600:4650   */\n      swap1\n      pop\n        /* \"#utility.yul\":4530:4656   */\n      swap2\n      swap1\n      pop\n      jump\t// out\n        /* \"#utility.yul\":4662:4802   */\n    tag_380:\n        /* \"#utility.yul\":4726:4735   */\n      0x00\n        /* \"#utility.yul\":4759:4796   */\n      tag_490\n        /* \"#utility.yul\":4790:4795   */\n      dup3\n        /* \"#utility.yul\":4759:4796   */\n      tag_379\n      jump\t// in\n    tag_490:\n        /* \"#utility.yul\":4746:4796   */\n      swap1\n      pop\n        /* \"#utility.yul\":4662:4802   */\n      swap2\n      swap1\n      pop\n      jump\t// out\n        /* \"#utility.yul\":4808:4967   */\n    tag_381:\n        /* \"#utility.yul\":4909:4960   */\n      tag_492\n        /* \"#utility.yul\":4954:4959   */\n      dup2\n        /* \"#utility.yul\":4909:4960   */\n      tag_380\n      jump\t// in\n    tag_492:\n        /* \"#utility.yul\":4904:4907   */\n      dup3\n        /* \"#utility.yul\":4897:4961   */\n      mstore\n        /* \"#utility.yul\":4808:4967   */\n      pop\n      pop\n      jump\t// out\n        /* \"#utility.yul\":4973:5223   */\n    tag_43:\n        /* \"#utility.yul\":5080:5084   */\n      0x00\n        /* \"#utility.yul\":5118:5120   */\n      0x20\n        /* \"#utility.yul\":5107:5116   */\n      dup3\n        /* \"#utility.yul\":5103:5121   */\n      add\n        /* \"#utility.yul\":5095:5121   */\n      swap1\n      pop\n        /* \"#utility.yul\":5131:5216   */\n      tag_494\n        /* \"#utility.yul\":5213:5214   */\n      0x00\n        /* \"#utility.yul\":5202:5211   */\n      dup4\n        /* \"#utility.yul\":5198:5215   */\n      add\n        /* \"#utility.yul\":5189:5195   */\n      dup5\n        /* \"#utility.yul\":5131:5216   */\n      tag_381\n      jump\t// in\n    tag_494:\n        /* \"#utility.yul\":4973:5223   */\n      swap3\n      swap2\n      pop\n      pop\n      jump\t// out\n        /* \"#utility.yul\":5229:5848   */\n    tag_52:\n        /* \"#utility.yul\":5306:5312   */\n      0x00\n        /* \"#utility.yul\":5314:5320   */\n      0x00\n        /* \"#utility.yul\":5322:5328   */\n      0x00\n        /* \"#utility.yul\":5371:5373   */\n      0x60\n        /* \"#utility.yul\":5359:5368   */\n      dup5\n        /* \"#utility.yul\":5350:5357   */\n      dup7\n        /* \"#utility.yul\":5346:5369   */\n      sub\n        /* \"#utility.yul\":5342:5374   */\n      slt\n        /* \"#utility.yul\":5339:5458   */\n      iszero\n      tag_496\n      jumpi\n        /* \"#utility.yul\":5377:5456   */\n      tag_497\n      tag_360\n      jump\t// in\n    tag_497:\n        /* \"#utility.yul\":5339:5458   */\n    tag_496:\n        /* \"#utility.yul\":5497:5498   */\n      0x00\n        /* \"#utility.yul\":5522:5575   */\n      tag_498\n        /* \"#utility.yul\":5567:5574   */\n      dup7\n        /* \"#utility.yul\":5558:5564   */\n      dup3\n        /* \"#utility.yul\":5547:5556   */\n      dup8\n        /* \"#utility.yul\":5543:5565   */\n      add\n        /* \"#utility.yul\":5522:5575   */\n      tag_374\n      jump\t// in\n    tag_498:\n        /* \"#utility.yul\":5512:5575   */\n      swap4\n      pop\n        /* \"#utility.yul\":5468:5585   */\n      pop\n        /* \"#utility.yul\":5624:5626   */\n      0x20\n        /* \"#utility.yul\":5650:5703   */\n      tag_499\n        /* \"#utility.yul\":5695:5702   */\n      dup7\n        /* \"#utility.yul\":5686:5692   */\n      dup3\n        /* \"#utility.yul\":5675:5684   */\n      dup8\n        /* \"#utility.yul\":5671:5693   */\n      add\n        /* \"#utility.yul\":5650:5703   */\n      tag_374\n      jump\t// in\n    tag_499:\n        /* \"#utility.yul\":5640:5703   */\n      swap3\n      pop\n        /* \"#utility.yul\":5595:5713   */\n      pop\n        /* \"#utility.yul\":5752:5754   */\n      0x40\n        /* \"#utility.yul\":5778:5831   */\n      tag_500\n        /* \"#utility.yul\":5823:5830   */\n      dup7\n        /* \"#utility.yul\":5814:5820   */\n      dup3\n        /* \"#utility.yul\":5803:5812   */\n      dup8\n        /* \"#utility.yul\":5799:5821   */\n      add\n        /* \"#utility.yul\":5778:5831   */\n      tag_364\n      jump\t// in\n    tag_500:\n        /* \"#utility.yul\":5768:5831   */\n      swap2\n      pop\n        /* \"#utility.yul\":5723:5841   */\n      pop\n        /* \"#utility.yul\":5229:5848   */\n      swap3\n      pop\n      swap3\n      pop\n      swap3\n      jump\t// out\n        /* \"#utility.yul\":5854:5940   */\n    tag_382:\n        /* \"#utility.yul\":5889:5896   */\n      0x00\n        /* \"#utility.yul\":5929:5933   */\n      0xff\n        /* \"#utility.yul\":5922:5927   */\n      dup3\n        /* \"#utility.yul\":5918:5934   */\n      and\n        /* \"#utility.yul\":5907:5934   */\n      swap1\n      pop\n        /* \"#utility.yul\":5854:5940   */\n      swap2\n      swap1\n      pop\n      jump\t// out\n        /* \"#utility.yul\":5946:6058   */\n    tag_383:\n        /* \"#utility.yul\":6029:6051   */\n      tag_503\n        /* \"#utility.yul\":6045:6050   */\n      dup2\n        /* \"#utility.yul\":6029:6051   */\n      tag_382\n      jump\t// in\n    tag_503:\n        /* \"#utility.yul\":6024:6027   */\n      dup3\n        /* \"#utility.yul\":6017:6052   */\n      mstore\n        /* \"#utility.yul\":5946:6058   */\n      pop\n      pop\n      jump\t// out\n        /* \"#utility.yul\":6064:6278   */\n    tag_58:\n        /* \"#utility.yul\":6153:6157   */\n      0x00\n        /* \"#utility.yul\":6191:6193   */\n      0x20\n        /* \"#utility.yul\":6180:6189   */\n      dup3\n        /* \"#utility.yul\":6176:6194   */\n      add\n        /* \"#utility.yul\":6168:6194   */\n      swap1\n      pop\n        /* \"#utility.yul\":6204:6271   */\n      tag_505\n        /* \"#utility.yul\":6268:6269   */\n      0x00\n        /* \"#utility.yul\":6257:6266   */\n      dup4\n        /* \"#utility.yul\":6253:6270   */\n      add\n        /* \"#utility.yul\":6244:6250   */\n      dup5\n        /* \"#utility.yul\":6204:6271   */\n      tag_383\n      jump\t// in\n    tag_505:\n        /* \"#utility.yul\":6064:6278   */\n      swap3\n      swap2\n      pop\n      pop\n      jump\t// out\n        /* \"#utility.yul\":6284:6401   */\n    tag_384:\n        /* \"#utility.yul\":6393:6394   */\n      0x00\n        /* \"#utility.yul\":6390:6391   */\n      0x00\n        /* \"#utility.yul\":6383:6395   */\n      revert\n        /* \"#utility.yul\":6407:6524   */\n    tag_385:\n        /* \"#utility.yul\":6516:6517   */\n      0x00\n        /* \"#utility.yul\":6513:6514   */\n      0x00\n        /* \"#utility.yul\":6506:6518   */\n      revert\n        /* \"#utility.yul\":6530:6647   */\n    tag_386:\n        /* \"#utility.yul\":6639:6640   */\n      0x00\n        /* \"#utility.yul\":6636:6637   */\n      0x00\n        /* \"#utility.yul\":6629:6641   */\n      revert\n        /* \"#utility.yul\":6670:7238   */\n    tag_387:\n        /* \"#utility.yul\":6743:6751   */\n      0x00\n        /* \"#utility.yul\":6753:6759   */\n      0x00\n        /* \"#utility.yul\":6803:6806   */\n      dup4\n        /* \"#utility.yul\":6796:6800   */\n      0x1f\n        /* \"#utility.yul\":6788:6794   */\n      dup5\n        /* \"#utility.yul\":6784:6801   */\n      add\n        /* \"#utility.yul\":6780:6807   */\n      slt\n        /* \"#utility.yul\":6770:6892   */\n      tag_510\n      jumpi\n        /* \"#utility.yul\":6811:6890   */\n      tag_511\n      tag_384\n      jump\t// in\n    tag_511:\n        /* \"#utility.yul\":6770:6892   */\n    tag_510:\n        /* \"#utility.yul\":6924:6930   */\n      dup3\n        /* \"#utility.yul\":6911:6931   */\n      calldataload\n        /* \"#utility.yul\":6901:6931   */\n      swap1\n      pop\n        /* \"#utility.yul\":6954:6972   */\n      0xffffffffffffffff\n        /* \"#utility.yul\":6946:6952   */\n      dup2\n        /* \"#utility.yul\":6943:6973   */\n      gt\n        /* \"#utility.yul\":6940:7057   */\n      iszero\n      tag_512\n      jumpi\n        /* \"#utility.yul\":6976:7055   */\n      tag_513\n      tag_385\n      jump\t// in\n    tag_513:\n        /* \"#utility.yul\":6940:7057   */\n    tag_512:\n        /* \"#utility.yul\":7090:7094   */\n      0x20\n        /* \"#utility.yul\":7082:7088   */\n      dup4\n        /* \"#utility.yul\":7078:7095   */\n      add\n        /* \"#utility.yul\":7066:7095   */\n      swap2\n      pop\n        /* \"#utility.yul\":7144:7147   */\n      dup4\n        /* \"#utility.yul\":7136:7140   */\n      0x20\n        /* \"#utility.yul\":7128:7134   */\n      dup3\n        /* \"#utility.yul\":7124:7141   */\n      mul\n        /* \"#utility.yul\":7114:7122   */\n      dup4\n        /* \"#utility.yul\":7110:7142   */\n      add\n        /* \"#utility.yul\":7107:7148   */\n      gt\n        /* \"#utility.yul\":7104:7232   */\n      iszero\n      tag_514\n      jumpi\n        /* \"#utility.yul\":7151:7230   */\n      tag_515\n      tag_386\n      jump\t// in\n    tag_515:\n        /* \"#utility.yul\":7104:7232   */\n    tag_514:\n        /* \"#utility.yul\":6670:7238   */\n      swap3\n      pop\n      swap3\n      swap1\n      pop\n      jump\t// out\n        /* \"#utility.yul\":7244:8385   */\n    tag_61:\n        /* \"#utility.yul\":7366:7372   */\n      0x00\n        /* \"#utility.yul\":7374:7380   */\n      0x00\n        /* \"#utility.yul\":7382:7388   */\n      0x00\n        /* \"#utility.yul\":7390:7396   */\n      0x00\n        /* \"#utility.yul\":7398:7404   */\n      0x00\n        /* \"#utility.yul\":7406:7412   */\n      0x00\n        /* \"#utility.yul\":7455:7458   */\n      0xa0\n        /* \"#utility.yul\":7443:7452   */\n      dup8\n        /* \"#utility.yul\":7434:7441   */\n      dup10\n        /* \"#utility.yul\":7430:7453   */\n      sub\n        /* \"#utility.yul\":7426:7459   */\n      slt\n        /* \"#utility.yul\":7423:7543   */\n      iszero\n      tag_517\n      jumpi\n        /* \"#utility.yul\":7462:7541   */\n      tag_518\n      tag_360\n      jump\t// in\n    tag_518:\n        /* \"#utility.yul\":7423:7543   */\n    tag_517:\n        /* \"#utility.yul\":7582:7583   */\n      0x00\n        /* \"#utility.yul\":7607:7660   */\n      tag_519\n        /* \"#utility.yul\":7652:7659   */\n      dup10\n        /* \"#utility.yul\":7643:7649   */\n      dup3\n        /* \"#utility.yul\":7632:7641   */\n      dup11\n        /* \"#utility.yul\":7628:7650   */\n      add\n        /* \"#utility.yul\":7607:7660   */\n      tag_364\n      jump\t// in\n    tag_519:\n        /* \"#utility.yul\":7597:7660   */\n      swap7\n      pop\n        /* \"#utility.yul\":7553:7670   */\n      pop\n        /* \"#utility.yul\":7709:7711   */\n      0x20\n        /* \"#utility.yul\":7735:7788   */\n      tag_520\n        /* \"#utility.yul\":7780:7787   */\n      dup10\n        /* \"#utility.yul\":7771:7777   */\n      dup3\n        /* \"#utility.yul\":7760:7769   */\n      dup11\n        /* \"#utility.yul\":7756:7778   */\n      add\n        /* \"#utility.yul\":7735:7788   */\n      tag_364\n      jump\t// in\n    tag_520:\n        /* \"#utility.yul\":7725:7788   */\n      swap6\n      pop\n        /* \"#utility.yul\":7680:7798   */\n      pop\n        /* \"#utility.yul\":7865:7867   */\n      0x40\n        /* \"#utility.yul\":7854:7863   */\n      dup8\n        /* \"#utility.yul\":7850:7868   */\n      add\n        /* \"#utility.yul\":7837:7869   */\n      calldataload\n        /* \"#utility.yul\":7896:7914   */\n      0xffffffffffffffff\n        /* \"#utility.yul\":7888:7894   */\n      dup2\n        /* \"#utility.yul\":7885:7915   */\n      gt\n        /* \"#utility.yul\":7882:7999   */\n      iszero\n      tag_521\n      jumpi\n        /* \"#utility.yul\":7918:7997   */\n      tag_522\n      tag_361\n      jump\t// in\n    tag_522:\n        /* \"#utility.yul\":7882:7999   */\n    tag_521:\n        /* \"#utility.yul\":8031:8111   */\n      tag_523\n        /* \"#utility.yul\":8103:8110   */\n      dup10\n        /* \"#utility.yul\":8094:8100   */\n      dup3\n        /* \"#utility.yul\":8083:8092   */\n      dup11\n        /* \"#utility.yul\":8079:8101   */\n      add\n        /* \"#utility.yul\":8031:8111   */\n      tag_387\n      jump\t// in\n    tag_523:\n        /* \"#utility.yul\":8013:8111   */\n      swap5\n      pop\n      swap5\n      pop\n        /* \"#utility.yul\":7808:8121   */\n      pop\n        /* \"#utility.yul\":8160:8162   */\n      0x60\n        /* \"#utility.yul\":8186:8239   */\n      tag_524\n        /* \"#utility.yul\":8231:8238   */\n      dup10\n        /* \"#utility.yul\":8222:8228   */\n      dup3\n        /* \"#utility.yul\":8211:8220   */\n      dup11\n        /* \"#utility.yul\":8207:8229   */\n      add\n        /* \"#utility.yul\":8186:8239   */\n      tag_374\n      jump\t// in\n    tag_524:\n        /* \"#utility.yul\":8176:8239   */\n      swap3\n      pop\n        /* \"#utility.yul\":8131:8249   */\n      pop\n        /* \"#utility.yul\":8288:8291   */\n      0x80\n        /* \"#utility.yul\":8315:8368   */\n      tag_525\n        /* \"#utility.yul\":8360:8367   */\n      dup10\n        /* \"#utility.yul\":8351:8357   */\n      dup3\n        /* \"#utility.yul\":8340:8349   */\n      dup11\n        /* \"#utility.yul\":8336:8358   */\n      add\n        /* \"#utility.yul\":8315:8368   */\n      tag_364\n      jump\t// in\n    tag_525:\n        /* \"#utility.yul\":8305:8368   */\n      swap2\n      pop\n        /* \"#utility.yul\":8259:8378   */\n      pop\n        /* \"#utility.yul\":7244:8385   */\n      swap3\n      swap6\n      pop\n      swap3\n      swap6\n      pop\n      swap3\n      swap6\n      jump\t// out\n        /* \"#utility.yul\":8391:8505   */\n    tag_388:\n        /* \"#utility.yul\":8458:8464   */\n      0x00\n        /* \"#utility.yul\":8492:8497   */\n      dup2\n        /* \"#utility.yul\":8486:8498   */\n      mload\n        /* \"#utility.yul\":8476:8498   */\n      swap1\n      pop\n        /* \"#utility.yul\":8391:8505   */\n      swap2\n      swap1\n      pop\n      jump\t// out\n        /* \"#utility.yul\":8511:8695   */\n    tag_389:\n        /* \"#utility.yul\":8610:8621   */\n      0x00\n        /* \"#utility.yul\":8644:8650   */\n      dup3\n        /* \"#utility.yul\":8639:8642   */\n      dup3\n        /* \"#utility.yul\":8632:8651   */\n      mstore\n        /* \"#utility.yul\":8684:8688   */\n      0x20\n        /* \"#utility.yul\":8679:8682   */\n      dup3\n        /* \"#utility.yul\":8675:8689   */\n      add\n        /* \"#utility.yul\":8660:8689   */\n      swap1\n      pop\n        /* \"#utility.yul\":8511:8695   */\n      swap3\n      swap2\n      pop\n      pop\n      jump\t// out\n        /* \"#utility.yul\":8701:8833   */\n    tag_390:\n        /* \"#utility.yul\":8768:8772   */\n      0x00\n        /* \"#utility.yul\":8791:8794   */\n      dup2\n        /* \"#utility.yul\":8783:8794   */\n      swap1\n      pop\n        /* \"#utility.yul\":8821:8825   */\n      0x20\n        /* \"#utility.yul\":8816:8819   */\n      dup3\n        /* \"#utility.yul\":8812:8826   */\n      add\n        /* \"#utility.yul\":8804:8826   */\n      swap1\n      pop\n        /* \"#utility.yul\":8701:8833   */\n      swap2\n      swap1\n      pop\n      jump\t// out\n        /* \"#utility.yul\":8839:8947   */\n    tag_391:\n        /* \"#utility.yul\":8916:8940   */\n      tag_530\n        /* \"#utility.yul\":8934:8939   */\n      dup2\n        /* \"#utility.yul\":8916:8940   */\n      tag_362\n      jump\t// in\n    tag_530:\n        /* \"#utility.yul\":8911:8914   */\n      dup3\n        /* \"#utility.yul\":8904:8941   */\n      mstore\n        /* \"#utility.yul\":8839:8947   */\n      pop\n      pop\n      jump\t// out\n        /* \"#utility.yul\":8953:9132   */\n    tag_392:\n        /* \"#utility.yul\":9022:9032   */\n      0x00\n        /* \"#utility.yul\":9043:9089   */\n      tag_532\n        /* \"#utility.yul\":9085:9088   */\n      dup4\n        /* \"#utility.yul\":9077:9083   */\n      dup4\n        /* \"#utility.yul\":9043:9089   */\n      tag_391\n      jump\t// in\n    tag_532:\n        /* \"#utility.yul\":9121:9125   */\n      0x20\n        /* \"#utility.yul\":9116:9119   */\n      dup4\n        /* \"#utility.yul\":9112:9126   */\n      add\n        /* \"#utility.yul\":9098:9126   */\n      swap1\n      pop\n        /* \"#utility.yul\":8953:9132   */\n      swap3\n      swap2\n      pop\n      pop\n      jump\t// out\n        /* \"#utility.yul\":9138:9251   */\n    tag_393:\n        /* \"#utility.yul\":9208:9212   */\n      0x00\n        /* \"#utility.yul\":9240:9244   */\n      0x20\n        /* \"#utility.yul\":9235:9238   */\n      dup3\n        /* \"#utility.yul\":9231:9245   */\n      add\n        /* \"#utility.yul\":9223:9245   */\n      swap1\n      pop\n        /* \"#utility.yul\":9138:9251   */\n      swap2\n      swap1\n      pop\n      jump\t// out\n        /* \"#utility.yul\":9287:10019   */\n    tag_394:\n        /* \"#utility.yul\":9406:9409   */\n      0x00\n        /* \"#utility.yul\":9435:9489   */\n      tag_535\n        /* \"#utility.yul\":9483:9488   */\n      dup3\n        /* \"#utility.yul\":9435:9489   */\n      tag_388\n      jump\t// in\n    tag_535:\n        /* \"#utility.yul\":9505:9591   */\n      tag_536\n        /* \"#utility.yul\":9584:9590   */\n      dup2\n        /* \"#utility.yul\":9579:9582   */\n      dup6\n        /* \"#utility.yul\":9505:9591   */\n      tag_389\n      jump\t// in\n    tag_536:\n        /* \"#utility.yul\":9498:9591   */\n      swap4\n      pop\n        /* \"#utility.yul\":9615:9671   */\n      tag_537\n        /* \"#utility.yul\":9665:9670   */\n      dup4\n        /* \"#utility.yul\":9615:9671   */\n      tag_390\n      jump\t// in\n    tag_537:\n        /* \"#utility.yul\":9694:9701   */\n      dup1\n        /* \"#utility.yul\":9725:9726   */\n      0x00\n        /* \"#utility.yul\":9710:9994   */\n    tag_538:\n        /* \"#utility.yul\":9735:9741   */\n      dup4\n        /* \"#utility.yul\":9732:9733   */\n      dup2\n        /* \"#utility.yul\":9729:9742   */\n      lt\n        /* \"#utility.yul\":9710:9994   */\n      iszero\n      tag_540\n      jumpi\n        /* \"#utility.yul\":9811:9817   */\n      dup2\n        /* \"#utility.yul\":9805:9818   */\n      mload\n        /* \"#utility.yul\":9838:9901   */\n      tag_541\n        /* \"#utility.yul\":9897:9900   */\n      dup9\n        /* \"#utility.yul\":9882:9895   */\n      dup3\n        /* \"#utility.yul\":9838:9901   */\n      tag_392\n      jump\t// in\n    tag_541:\n        /* \"#utility.yul\":9831:9901   */\n      swap8\n      pop\n        /* \"#utility.yul\":9924:9984   */\n      tag_542\n        /* \"#utility.yul\":9977:9983   */\n      dup4\n        /* \"#utility.yul\":9924:9984   */\n      tag_393\n      jump\t// in\n    tag_542:\n        /* \"#utility.yul\":9914:9984   */\n      swap3\n      pop\n        /* \"#utility.yul\":9770:9994   */\n      pop\n        /* \"#utility.yul\":9757:9758   */\n      0x01\n        /* \"#utility.yul\":9754:9755   */\n      dup2\n        /* \"#utility.yul\":9750:9759   */\n      add\n        /* \"#utility.yul\":9745:9759   */\n      swap1\n      pop\n        /* \"#utility.yul\":9710:9994   */\n      jump(tag_538)\n    tag_540:\n        /* \"#utility.yul\":9714:9728   */\n      pop\n        /* \"#utility.yul\":10010:10013   */\n      dup6\n        /* \"#utility.yul\":10003:10013   */\n      swap4\n      pop\n        /* \"#utility.yul\":9411:10019   */\n      pop\n      pop\n      pop\n        /* \"#utility.yul\":9287:10019   */\n      swap3\n      swap2\n      pop\n      pop\n      jump\t// out\n        /* \"#utility.yul\":10025:10398   */\n    tag_64:\n        /* \"#utility.yul\":10168:10172   */\n      0x00\n        /* \"#utility.yul\":10206:10208   */\n      0x20\n        /* \"#utility.yul\":10195:10204   */\n      dup3\n        /* \"#utility.yul\":10191:10209   */\n      add\n        /* \"#utility.yul\":10183:10209   */\n      swap1\n      pop\n        /* \"#utility.yul\":10255:10264   */\n      dup2\n        /* \"#utility.yul\":10249:10253   */\n      dup2\n        /* \"#utility.yul\":10245:10265   */\n      sub\n        /* \"#utility.yul\":10241:10242   */\n      0x00\n        /* \"#utility.yul\":10230:10239   */\n      dup4\n        /* \"#utility.yul\":10226:10243   */\n      add\n        /* \"#utility.yul\":10219:10266   */\n      mstore\n        /* \"#utility.yul\":10283:10391   */\n      tag_544\n        /* \"#utility.yul\":10386:10390   */\n      dup2\n        /* \"#utility.yul\":10377:10383   */\n      dup5\n        /* \"#utility.yul\":10283:10391   */\n      tag_394\n      jump\t// in\n    tag_544:\n        /* \"#utility.yul\":10275:10391   */\n      swap1\n      pop\n        /* \"#utility.yul\":10025:10398   */\n      swap3\n      swap2\n      pop\n      pop\n      jump\t// out\n        /* \"#utility.yul\":10404:10733   */\n    tag_70:\n        /* \"#utility.yul\":10463:10469   */\n      0x00\n        /* \"#utility.yul\":10512:10514   */\n      0x20\n        /* \"#utility.yul\":10500:10509   */\n      dup3\n        /* \"#utility.yul\":10491:10498   */\n      dup5\n        /* \"#utility.yul\":10487:10510   */\n      sub\n        /* \"#utility.yul\":10483:10515   */\n      slt\n        /* \"#utility.yul\":10480:10599   */\n      iszero\n      tag_546\n      jumpi\n        /* \"#utility.yul\":10518:10597   */\n      tag_547\n      tag_360\n      jump\t// in\n    tag_547:\n        /* \"#utility.yul\":10480:10599   */\n    tag_546:\n        /* \"#utility.yul\":10638:10639   */\n      0x00\n        /* \"#utility.yul\":10663:10716   */\n      tag_548\n        /* \"#utility.yul\":10708:10715   */\n      dup5\n        /* \"#utility.yul\":10699:10705   */\n      dup3\n        /* \"#utility.yul\":10688:10697   */\n      dup6\n        /* \"#utility.yul\":10684:10706   */\n      add\n        /* \"#utility.yul\":10663:10716   */\n      tag_374\n      jump\t// in\n    tag_548:\n        /* \"#utility.yul\":10653:10716   */\n      swap2\n      pop\n        /* \"#utility.yul\":10609:10726   */\n      pop\n        /* \"#utility.yul\":10404:10733   */\n      swap3\n      swap2\n      pop\n      pop\n      jump\t// out\n        /* \"#utility.yul\":10739:11213   */\n    tag_82:\n        /* \"#utility.yul\":10807:10813   */\n      0x00\n        /* \"#utility.yul\":10815:10821   */\n      0x00\n        /* \"#utility.yul\":10864:10866   */\n      0x40\n        /* \"#utility.yul\":10852:10861   */\n      dup4\n        /* \"#utility.yul\":10843:10850   */\n      dup6\n        /* \"#utility.yul\":10839:10862   */\n      sub\n        /* \"#utility.yul\":10835:10867   */\n      slt\n        /* \"#utility.yul\":10832:10951   */\n      iszero\n      tag_550\n      jumpi\n        /* \"#utility.yul\":10870:10949   */\n      tag_551\n      tag_360\n      jump\t// in\n    tag_551:\n        /* \"#utility.yul\":10832:10951   */\n    tag_550:\n        /* \"#utility.yul\":10990:10991   */\n      0x00\n        /* \"#utility.yul\":11015:11068   */\n      tag_552\n        /* \"#utility.yul\":11060:11067   */\n      dup6\n        /* \"#utility.yul\":11051:11057   */\n      dup3\n        /* \"#utility.yul\":11040:11049   */\n      dup7\n        /* \"#utility.yul\":11036:11058   */\n      add\n        /* \"#utility.yul\":11015:11068   */\n      tag_374\n      jump\t// in\n    tag_552:\n        /* \"#utility.yul\":11005:11068   */\n      swap3\n      pop\n        /* \"#utility.yul\":10961:11078   */\n      pop\n        /* \"#utility.yul\":11117:11119   */\n      0x20\n        /* \"#utility.yul\":11143:11196   */\n      tag_553\n        /* \"#utility.yul\":11188:11195   */\n      dup6\n        /* \"#utility.yul\":11179:11185   */\n      dup3\n        /* \"#utility.yul\":11168:11177   */\n      dup7\n        /* \"#utility.yul\":11164:11186   */\n      add\n        /* \"#utility.yul\":11143:11196   */\n      tag_374\n      jump\t// in\n    tag_553:\n        /* \"#utility.yul\":11133:11196   */\n      swap2\n      pop\n        /* \"#utility.yul\":11088:11206   */\n      pop\n        /* \"#utility.yul\":10739:11213   */\n      swap3\n      pop\n      swap3\n      swap1\n      pop\n      jump\t// out\n        /* \"#utility.yul\":11219:12422   */\n    tag_87:\n        /* \"#utility.yul\":11332:11338   */\n      0x00\n        /* \"#utility.yul\":11340:11346   */\n      0x00\n        /* \"#utility.yul\":11348:11354   */\n      0x00\n        /* \"#utility.yul\":11356:11362   */\n      0x00\n        /* \"#utility.yul\":11364:11370   */\n      0x00\n        /* \"#utility.yul\":11372:11378   */\n      0x00\n        /* \"#utility.yul\":11380:11386   */\n      0x00\n        /* \"#utility.yul\":11429:11432   */\n      0xe0\n        /* \"#utility.yul\":11417:11426   */\n      dup9\n        /* \"#utility.yul\":11408:11415   */\n      dup11\n        /* \"#utility.yul\":11404:11427   */\n      sub\n        /* \"#utility.yul\":11400:11433   */\n      slt\n        /* \"#utility.yul\":11397:11517   */\n      iszero\n      tag_555\n      jumpi\n        /* \"#utility.yul\":11436:11515   */\n      tag_556\n      tag_360\n      jump\t// in\n    tag_556:\n        /* \"#utility.yul\":11397:11517   */\n    tag_555:\n        /* \"#utility.yul\":11556:11557   */\n      0x00\n        /* \"#utility.yul\":11581:11634   */\n      tag_557\n        /* \"#utility.yul\":11626:11633   */\n      dup11\n        /* \"#utility.yul\":11617:11623   */\n      dup3\n        /* \"#utility.yul\":11606:11615   */\n      dup12\n        /* \"#utility.yul\":11602:11624   */\n      add\n        /* \"#utility.yul\":11581:11634   */\n      tag_374\n      jump\t// in\n    tag_557:\n        /* \"#utility.yul\":11571:11634   */\n      swap8\n      pop\n        /* \"#utility.yul\":11527:11644   */\n      pop\n        /* \"#utility.yul\":11683:11685   */\n      0x20\n        /* \"#utility.yul\":11709:11762   */\n      tag_558\n        /* \"#utility.yul\":11754:11761   */\n      dup11\n        /* \"#utility.yul\":11745:11751   */\n      dup3\n        /* \"#utility.yul\":11734:11743   */\n      dup12\n        /* \"#utility.yul\":11730:11752   */\n      add\n        /* \"#utility.yul\":11709:11762   */\n      tag_374\n      jump\t// in\n    tag_558:\n        /* \"#utility.yul\":11699:11762   */\n      swap7\n      pop\n        /* \"#utility.yul\":11654:11772   */\n      pop\n        /* \"#utility.yul\":11811:11813   */\n      0x40\n        /* \"#utility.yul\":11837:11890   */\n      tag_559\n        /* \"#utility.yul\":11882:11889   */\n      dup11\n        /* \"#utility.yul\":11873:11879   */\n      dup3\n        /* \"#utility.yul\":11862:11871   */\n      dup12\n        /* \"#utility.yul\":11858:11880   */\n      add\n        /* \"#utility.yul\":11837:11890   */\n      tag_364\n      jump\t// in\n    tag_559:\n        /* \"#utility.yul\":11827:11890   */\n      swap6\n      pop\n        /* \"#utility.yul\":11782:11900   */\n      pop\n        /* \"#utility.yul\":11939:11941   */\n      0x60\n        /* \"#utility.yul\":11965:12018   */\n      tag_560\n        /* \"#utility.yul\":12010:12017   */\n      dup11\n        /* \"#utility.yul\":12001:12007   */\n      dup3\n        /* \"#utility.yul\":11990:11999   */\n      dup12\n        /* \"#utility.yul\":11986:12008   */\n      add\n        /* \"#utility.yul\":11965:12018   */\n      tag_364\n      jump\t// in\n    tag_560:\n        /* \"#utility.yul\":11955:12018   */\n      swap5\n      pop\n        /* \"#utility.yul\":11910:12028   */\n      pop\n        /* \"#utility.yul\":12067:12070   */\n      0x80\n        /* \"#utility.yul\":12094:12147   */\n      tag_561\n        /* \"#utility.yul\":12139:12146   */\n      dup11\n        /* \"#utility.yul\":12130:12136   */\n      dup3\n        /* \"#utility.yul\":12119:12128   */\n      dup12\n        /* \"#utility.yul\":12115:12137   */\n      add\n        /* \"#utility.yul\":12094:12147   */\n      tag_364\n      jump\t// in\n    tag_561:\n        /* \"#utility.yul\":12084:12147   */\n      swap4\n      pop\n        /* \"#utility.yul\":12038:12157   */\n      pop\n        /* \"#utility.yul\":12196:12199   */\n      0xa0\n        /* \"#utility.yul\":12223:12276   */\n      tag_562\n        /* \"#utility.yul\":12268:12275   */\n      dup11\n        /* \"#utility.yul\":12259:12265   */\n      dup3\n        /* \"#utility.yul\":12248:12257   */\n      dup12\n        /* \"#utility.yul\":12244:12266   */\n      add\n        /* \"#utility.yul\":12223:12276   */\n      tag_374\n      jump\t// in\n    tag_562:\n        /* \"#utility.yul\":12213:12276   */\n      swap3\n      pop\n        /* \"#utility.yul\":12167:12286   */\n      pop\n        /* \"#utility.yul\":12325:12328   */\n      0xc0\n        /* \"#utility.yul\":12352:12405   */\n      tag_563\n        /* \"#utility.yul\":12397:12404   */\n      dup11\n        /* \"#utility.yul\":12388:12394   */\n      dup3\n        /* \"#utility.yul\":12377:12386   */\n      dup12\n        /* \"#utility.yul\":12373:12395   */\n      add\n        /* \"#utility.yul\":12352:12405   */\n      tag_364\n      jump\t// in\n    tag_563:\n        /* \"#utility.yul\":12342:12405   */\n      swap2\n      pop\n        /* \"#utility.yul\":12296:12415   */\n      pop\n        /* \"#utility.yul\":11219:12422   */\n      swap3\n      swap6\n      swap9\n      swap2\n      swap5\n      swap8\n      pop\n      swap3\n      swap6\n      pop\n      jump\t// out\n        /* \"#utility.yul\":12428:12760   */\n    tag_90:\n        /* \"#utility.yul\":12549:12553   */\n      0x00\n        /* \"#utility.yul\":12587:12589   */\n      0x40\n        /* \"#utility.yul\":12576:12585   */\n      dup3\n        /* \"#utility.yul\":12572:12590   */\n      add\n        /* \"#utility.yul\":12564:12590   */\n      swap1\n      pop\n        /* \"#utility.yul\":12600:12671   */\n      tag_565\n        /* \"#utility.yul\":12668:12669   */\n      0x00\n        /* \"#utility.yul\":12657:12666   */\n      dup4\n        /* \"#utility.yul\":12653:12670   */\n      add\n        /* \"#utility.yul\":12644:12650   */\n      dup6\n        /* \"#utility.yul\":12600:12671   */\n      tag_365\n      jump\t// in\n    tag_565:\n        /* \"#utility.yul\":12681:12753   */\n      tag_566\n        /* \"#utility.yul\":12749:12751   */\n      0x20\n        /* \"#utility.yul\":12738:12747   */\n      dup4\n        /* \"#utility.yul\":12734:12752   */\n      add\n        /* \"#utility.yul\":12725:12731   */\n      dup5\n        /* \"#utility.yul\":12681:12753   */\n      tag_365\n      jump\t// in\n    tag_566:\n        /* \"#utility.yul\":12428:12760   */\n      swap4\n      swap3\n      pop\n      pop\n      pop\n      jump\t// out\n        /* \"#utility.yul\":12766:14115   */\n    tag_100:\n        /* \"#utility.yul\":12888:12894   */\n      0x00\n        /* \"#utility.yul\":12896:12902   */\n      0x00\n        /* \"#utility.yul\":12904:12910   */\n      0x00\n        /* \"#utility.yul\":12912:12918   */\n      0x00\n        /* \"#utility.yul\":12920:12926   */\n      0x00\n        /* \"#utility.yul\":12928:12934   */\n      0x00\n        /* \"#utility.yul\":12936:12942   */\n      0x00\n        /* \"#utility.yul\":12944:12950   */\n      0x00\n        /* \"#utility.yul\":12993:12996   */\n      0x0100\n        /* \"#utility.yul\":12981:12990   */\n      dup10\n        /* \"#utility.yul\":12972:12979   */\n      dup12\n        /* \"#utility.yul\":12968:12991   */\n      sub\n        /* \"#utility.yul\":12964:12997   */\n      slt\n        /* \"#utility.yul\":12961:13081   */\n      iszero\n      tag_568\n      jumpi\n        /* \"#utility.yul\":13000:13079   */\n      tag_569\n      tag_360\n      jump\t// in\n    tag_569:\n        /* \"#utility.yul\":12961:13081   */\n    tag_568:\n        /* \"#utility.yul\":13120:13121   */\n      0x00\n        /* \"#utility.yul\":13145:13198   */\n      tag_570\n        /* \"#utility.yul\":13190:13197   */\n      dup12\n        /* \"#utility.yul\":13181:13187   */\n      dup3\n        /* \"#utility.yul\":13170:13179   */\n      dup13\n        /* \"#utility.yul\":13166:13188   */\n      add\n        /* \"#utility.yul\":13145:13198   */\n      tag_374\n      jump\t// in\n    tag_570:\n        /* \"#utility.yul\":13135:13198   */\n      swap9\n      pop\n        /* \"#utility.yul\":13091:13208   */\n      pop\n        /* \"#utility.yul\":13247:13249   */\n      0x20\n        /* \"#utility.yul\":13273:13326   */\n      tag_571\n        /* \"#utility.yul\":13318:13325   */\n      dup12\n        /* \"#utility.yul\":13309:13315   */\n      dup3\n        /* \"#utility.yul\":13298:13307   */\n      dup13\n        /* \"#utility.yul\":13294:13316   */\n      add\n        /* \"#utility.yul\":13273:13326   */\n      tag_374\n      jump\t// in\n    tag_571:\n        /* \"#utility.yul\":13263:13326   */\n      swap8\n      pop\n        /* \"#utility.yul\":13218:13336   */\n      pop\n        /* \"#utility.yul\":13375:13377   */\n      0x40\n        /* \"#utility.yul\":13401:13454   */\n      tag_572\n        /* \"#utility.yul\":13446:13453   */\n      dup12\n        /* \"#utility.yul\":13437:13443   */\n      dup3\n        /* \"#utility.yul\":13426:13435   */\n      dup13\n        /* \"#utility.yul\":13422:13444   */\n      add\n        /* \"#utility.yul\":13401:13454   */\n      tag_364\n      jump\t// in\n    tag_572:\n        /* \"#utility.yul\":13391:13454   */\n      swap7\n      pop\n        /* \"#utility.yul\":13346:13464   */\n      pop\n        /* \"#utility.yul\":13503:13505   */\n      0x60\n        /* \"#utility.yul\":13529:13582   */\n      tag_573\n        /* \"#utility.yul\":13574:13581   */\n      dup12\n        /* \"#utility.yul\":13565:13571   */\n      dup3\n        /* \"#utility.yul\":13554:13563   */\n      dup13\n        /* \"#utility.yul\":13550:13572   */\n      add\n        /* \"#utility.yul\":13529:13582   */\n      tag_364\n      jump\t// in\n    tag_573:\n        /* \"#utility.yul\":13519:13582   */\n      swap6\n      pop\n        /* \"#utility.yul\":13474:13592   */\n      pop\n        /* \"#utility.yul\":13631:13634   */\n      0x80\n        /* \"#utility.yul\":13658:13711   */\n      tag_574\n        /* \"#utility.yul\":13703:13710   */\n      dup12\n        /* \"#utility.yul\":13694:13700   */\n      dup3\n        /* \"#utility.yul\":13683:13692   */\n      dup13\n        /* \"#utility.yul\":13679:13701   */\n      add\n        /* \"#utility.yul\":13658:13711   */\n      tag_364\n      jump\t// in\n    tag_574:\n        /* \"#utility.yul\":13648:13711   */\n      swap5\n      pop\n        /* \"#utility.yul\":13602:13721   */\n      pop\n        /* \"#utility.yul\":13760:13763   */\n      0xa0\n        /* \"#utility.yul\":13787:13840   */\n      tag_575\n        /* \"#utility.yul\":13832:13839   */\n      dup12\n        /* \"#utility.yul\":13823:13829   */\n      dup3\n        /* \"#utility.yul\":13812:13821   */\n      dup13\n        /* \"#utility.yul\":13808:13830   */\n      add\n        /* \"#utility.yul\":13787:13840   */\n      tag_364\n      jump\t// in\n    tag_575:\n        /* \"#utility.yul\":13777:13840   */\n      swap4\n      pop\n        /* \"#utility.yul\":13731:13850   */\n      pop\n        /* \"#utility.yul\":13889:13892   */\n      0xc0\n        /* \"#utility.yul\":13916:13969   */\n      tag_576\n        /* \"#utility.yul\":13961:13968   */\n      dup12\n        /* \"#utility.yul\":13952:13958   */\n      dup3\n        /* \"#utility.yul\":13941:13950   */\n      dup13\n        /* \"#utility.yul\":13937:13959   */\n      add\n        /* \"#utility.yul\":13916:13969   */\n      tag_374\n      jump\t// in\n    tag_576:\n        /* \"#utility.yul\":13906:13969   */\n      swap3\n      pop\n        /* \"#utility.yul\":13860:13979   */\n      pop\n        /* \"#utility.yul\":14018:14021   */\n      0xe0\n        /* \"#utility.yul\":14045:14098   */\n      tag_577\n        /* \"#utility.yul\":14090:14097   */\n      dup12\n        /* \"#utility.yul\":14081:14087   */\n      dup3\n        /* \"#utility.yul\":14070:14079   */\n      dup13\n        /* \"#utility.yul\":14066:14088   */\n      add\n        /* \"#utility.yul\":14045:14098   */\n      tag_364\n      jump\t// in\n    tag_577:\n        /* \"#utility.yul\":14035:14098   */\n      swap2\n      pop\n        /* \"#utility.yul\":13989:14108   */\n      pop\n        /* \"#utility.yul\":12766:14115   */\n      swap3\n      swap6\n      swap9\n      pop\n      swap3\n      swap6\n      swap9\n      swap1\n      swap4\n      swap7\n      pop\n      jump\t// out\n        /* \"#utility.yul\":14121:14563   */\n    tag_103:\n        /* \"#utility.yul\":14270:14274   */\n      0x00\n        /* \"#utility.yul\":14308:14310   */\n      0x60\n        /* \"#utility.yul\":14297:14306   */\n      dup3\n        /* \"#utility.yul\":14293:14311   */\n      add\n        /* \"#utility.yul\":14285:14311   */\n      swap1\n      pop\n        /* \"#utility.yul\":14321:14392   */\n      tag_579\n        /* \"#utility.yul\":14389:14390   */\n      0x00\n        /* \"#utility.yul\":14378:14387   */\n      dup4\n        /* \"#utility.yul\":14374:14391   */\n      add\n        /* \"#utility.yul\":14365:14371   */\n      dup7\n        /* \"#utility.yul\":14321:14392   */\n      tag_365\n      jump\t// in\n    tag_579:\n        /* \"#utility.yul\":14402:14474   */\n      tag_580\n        /* \"#utility.yul\":14470:14472   */\n      0x20\n        /* \"#utility.yul\":14459:14468   */\n      dup4\n        /* \"#utility.yul\":14455:14473   */\n      add\n        /* \"#utility.yul\":14446:14452   */\n      dup6\n        /* \"#utility.yul\":14402:14474   */\n      tag_365\n      jump\t// in\n    tag_580:\n        /* \"#utility.yul\":14484:14556   */\n      tag_581\n        /* \"#utility.yul\":14552:14554   */\n      0x40\n        /* \"#utility.yul\":14541:14550   */\n      dup4\n        /* \"#utility.yul\":14537:14555   */\n      add\n        /* \"#utility.yul\":14528:14534   */\n      dup5\n        /* \"#utility.yul\":14484:14556   */\n      tag_365\n      jump\t// in\n    tag_581:\n        /* \"#utility.yul\":14121:14563   */\n      swap5\n      swap4\n      pop\n      pop\n      pop\n      pop\n      jump\t// out\n        /* \"#utility.yul\":14569:14735   */\n    tag_395:\n        /* \"#utility.yul\":14709:14727   */\n      0x496e76616c696420616d6f756e74496e00000000000000000000000000000000\n        /* \"#utility.yul\":14705:14706   */\n      0x00\n        /* \"#utility.yul\":14697:14703   */\n      dup3\n        /* \"#utility.yul\":14693:14707   */\n      add\n        /* \"#utility.yul\":14686:14728   */\n      mstore\n        /* \"#utility.yul\":14569:14735   */\n      pop\n      jump\t// out\n        /* \"#utility.yul\":14741:15107   */\n    tag_396:\n        /* \"#utility.yul\":14883:14886   */\n      0x00\n        /* \"#utility.yul\":14904:14971   */\n      tag_584\n        /* \"#utility.yul\":14968:14970   */\n      0x10\n        /* \"#utility.yul\":14963:14966   */\n      dup4\n        /* \"#utility.yul\":14904:14971   */\n      tag_367\n      jump\t// in\n    tag_584:\n        /* \"#utility.yul\":14897:14971   */\n      swap2\n      pop\n        /* \"#utility.yul\":14980:15073   */\n      tag_585\n        /* \"#utility.yul\":15069:15072   */\n      dup3\n        /* \"#utility.yul\":14980:15073   */\n      tag_395\n      jump\t// in\n    tag_585:\n        /* \"#utility.yul\":15098:15100   */\n      0x20\n        /* \"#utility.yul\":15093:15096   */\n      dup3\n        /* \"#utility.yul\":15089:15101   */\n      add\n        /* \"#utility.yul\":15082:15101   */\n      swap1\n      pop\n        /* \"#utility.yul\":14741:15107   */\n      swap2\n      swap1\n      pop\n      jump\t// out\n        /* \"#utility.yul\":15113:15532   */\n    tag_107:\n        /* \"#utility.yul\":15279:15283   */\n      0x00\n        /* \"#utility.yul\":15317:15319   */\n      0x20\n        /* \"#utility.yul\":15306:15315   */\n      dup3\n        /* \"#utility.yul\":15302:15320   */\n      add\n        /* \"#utility.yul\":15294:15320   */\n      swap1\n      pop\n        /* \"#utility.yul\":15366:15375   */\n      dup2\n        /* \"#utility.yul\":15360:15364   */\n      dup2\n        /* \"#utility.yul\":15356:15376   */\n      sub\n        /* \"#utility.yul\":15352:15353   */\n      0x00\n        /* \"#utility.yul\":15341:15350   */\n      dup4\n        /* \"#utility.yul\":15337:15354   */\n      add\n        /* \"#utility.yul\":15330:15377   */\n      mstore\n        /* \"#utility.yul\":15394:15525   */\n      tag_587\n        /* \"#utility.yul\":15520:15524   */\n      dup2\n        /* \"#utility.yul\":15394:15525   */\n      tag_396\n      jump\t// in\n    tag_587:\n        /* \"#utility.yul\":15386:15525   */\n      swap1\n      pop\n        /* \"#utility.yul\":15113:15532   */\n      swap2\n      swap1\n      pop\n      jump\t// out\n        /* \"#utility.yul\":15538:15705   */\n    tag_397:\n        /* \"#utility.yul\":15678:15697   */\n      0x496e76616c69642072657365727665496e000000000000000000000000000000\n        /* \"#utility.yul\":15674:15675   */\n      0x00\n        /* \"#utility.yul\":15666:15672   */\n      dup3\n        /* \"#utility.yul\":15662:15676   */\n      add\n        /* \"#utility.yul\":15655:15698   */\n      mstore\n        /* \"#utility.yul\":15538:15705   */\n      pop\n      jump\t// out\n        /* \"#utility.yul\":15711:16077   */\n    tag_398:\n        /* \"#utility.yul\":15853:15856   */\n      0x00\n        /* \"#utility.yul\":15874:15941   */\n      tag_590\n        /* \"#utility.yul\":15938:15940   */\n      0x11\n        /* \"#utility.yul\":15933:15936   */\n      dup4\n        /* \"#utility.yul\":15874:15941   */\n      tag_367\n      jump\t// in\n    tag_590:\n        /* \"#utility.yul\":15867:15941   */\n      swap2\n      pop\n        /* \"#utility.yul\":15950:16043   */\n      tag_591\n        /* \"#utility.yul\":16039:16042   */\n      dup3\n        /* \"#utility.yul\":15950:16043   */\n      tag_397\n      jump\t// in\n    tag_591:\n        /* \"#utility.yul\":16068:16070   */\n      0x20\n        /* \"#utility.yul\":16063:16066   */\n      dup3\n        /* \"#utility.yul\":16059:16071   */\n      add\n        /* \"#utility.yul\":16052:16071   */\n      swap1\n      pop\n        /* \"#utility.yul\":15711:16077   */\n      swap2\n      swap1\n      pop\n      jump\t// out\n        /* \"#utility.yul\":16083:16502   */\n    tag_110:\n        /* \"#utility.yul\":16249:16253   */\n      0x00\n        /* \"#utility.yul\":16287:16289   */\n      0x20\n        /* \"#utility.yul\":16276:16285   */\n      dup3\n        /* \"#utility.yul\":16272:16290   */\n      add\n        /* \"#utility.yul\":16264:16290   */\n      swap1\n      pop\n        /* \"#utility.yul\":16336:16345   */\n      dup2\n        /* \"#utility.yul\":16330:16334   */\n      dup2\n        /* \"#utility.yul\":16326:16346   */\n      sub\n        /* \"#utility.yul\":16322:16323   */\n      0x00\n        /* \"#utility.yul\":16311:16320   */\n      dup4\n        /* \"#utility.yul\":16307:16324   */\n      add\n        /* \"#utility.yul\":16300:16347   */\n      mstore\n        /* \"#utility.yul\":16364:16495   */\n      tag_593\n        /* \"#utility.yul\":16490:16494   */\n      dup2\n        /* \"#utility.yul\":16364:16495   */\n      tag_398\n      jump\t// in\n    tag_593:\n        /* \"#utility.yul\":16356:16495   */\n      swap1\n      pop\n        /* \"#utility.yul\":16083:16502   */\n      swap2\n      swap1\n      pop\n      jump\t// out\n        /* \"#utility.yul\":16508:16676   */\n    tag_399:\n        /* \"#utility.yul\":16648:16668   */\n      0x496e76616c696420726573657276654f75740000000000000000000000000000\n        /* \"#utility.yul\":16644:16645   */\n      0x00\n        /* \"#utility.yul\":16636:16642   */\n      dup3\n        /* \"#utility.yul\":16632:16646   */\n      add\n        /* \"#utility.yul\":16625:16669   */\n      mstore\n        /* \"#utility.yul\":16508:16676   */\n      pop\n      jump\t// out\n        /* \"#utility.yul\":16682:17048   */\n    tag_400:\n        /* \"#utility.yul\":16824:16827   */\n      0x00\n        /* \"#utility.yul\":16845:16912   */\n      tag_596\n        /* \"#utility.yul\":16909:16911   */\n      0x12\n        /* \"#utility.yul\":16904:16907   */\n      dup4\n        /* \"#utility.yul\":16845:16912   */\n      tag_367\n      jump\t// in\n    tag_596:\n        /* \"#utility.yul\":16838:16912   */\n      swap2\n      pop\n        /* \"#utility.yul\":16921:17014   */\n      tag_597\n        /* \"#utility.yul\":17010:17013   */\n      dup3\n        /* \"#utility.yul\":16921:17014   */\n      tag_399\n      jump\t// in\n    tag_597:\n        /* \"#utility.yul\":17039:17041   */\n      0x20\n        /* \"#utility.yul\":17034:17037   */\n      dup3\n        /* \"#utility.yul\":17030:17042   */\n      add\n        /* \"#utility.yul\":17023:17042   */\n      swap1\n      pop\n        /* \"#utility.yul\":16682:17048   */\n      swap2\n      swap1\n      pop\n      jump\t// out\n        /* \"#utility.yul\":17054:17473   */\n    tag_113:\n        /* \"#utility.yul\":17220:17224   */\n      0x00\n        /* \"#utility.yul\":17258:17260   */\n      0x20\n        /* \"#utility.yul\":17247:17256   */\n      dup3\n        /* \"#utility.yul\":17243:17261   */\n      add\n        /* \"#utility.yul\":17235:17261   */\n      swap1\n      pop\n        /* \"#utility.yul\":17307:17316   */\n      dup2\n        /* \"#utility.yul\":17301:17305   */\n      dup2\n        /* \"#utility.yul\":17297:17317   */\n      sub\n        /* \"#utility.yul\":17293:17294   */\n      0x00\n        /* \"#utility.yul\":17282:17291   */\n      dup4\n        /* \"#utility.yul\":17278:17295   */\n      add\n        /* \"#utility.yul\":17271:17318   */\n      mstore\n        /* \"#utility.yul\":17335:17466   */\n      tag_599\n        /* \"#utility.yul\":17461:17465   */\n      dup2\n        /* \"#utility.yul\":17335:17466   */\n      tag_400\n      jump\t// in\n    tag_599:\n        /* \"#utility.yul\":17327:17466   */\n      swap1\n      pop\n        /* \"#utility.yul\":17054:17473   */\n      swap2\n      swap1\n      pop\n      jump\t// out\n        /* \"#utility.yul\":17479:17659   */\n    tag_401:\n        /* \"#utility.yul\":17527:17604   */\n      0x4e487b7100000000000000000000000000000000000000000000000000000000\n        /* \"#utility.yul\":17524:17525   */\n      0x00\n        /* \"#utility.yul\":17517:17605   */\n      mstore\n        /* \"#utility.yul\":17624:17628   */\n      0x11\n        /* \"#utility.yul\":17621:17622   */\n      0x04\n        /* \"#utility.yul\":17614:17629   */\n      mstore\n        /* \"#utility.yul\":17648:17652   */\n      0x24\n        /* \"#utility.yul\":17645:17646   */\n      0x00\n        /* \"#utility.yul\":17638:17653   */\n      revert\n        /* \"#utility.yul\":17665:17856   */\n    tag_115:\n        /* \"#utility.yul\":17705:17708   */\n      0x00\n        /* \"#utility.yul\":17724:17744   */\n      tag_602\n        /* \"#utility.yul\":17742:17743   */\n      dup3\n        /* \"#utility.yul\":17724:17744   */\n      tag_362\n      jump\t// in\n    tag_602:\n        /* \"#utility.yul\":17719:17744   */\n      swap2\n      pop\n        /* \"#utility.yul\":17758:17778   */\n      tag_603\n        /* \"#utility.yul\":17776:17777   */\n      dup4\n        /* \"#utility.yul\":17758:17778   */\n      tag_362\n      jump\t// in\n    tag_603:\n        /* \"#utility.yul\":17753:17778   */\n      swap3\n      pop\n        /* \"#utility.yul\":17801:17802   */\n      dup3\n        /* \"#utility.yul\":17798:17799   */\n      dup3\n        /* \"#utility.yul\":17794:17803   */\n      add\n        /* \"#utility.yul\":17787:17803   */\n      swap1\n      pop\n        /* \"#utility.yul\":17822:17825   */\n      dup1\n        /* \"#utility.yul\":17819:17820   */\n      dup3\n        /* \"#utility.yul\":17816:17826   */\n      gt\n        /* \"#utility.yul\":17813:17849   */\n      iszero\n      tag_604\n      jumpi\n        /* \"#utility.yul\":17829:17847   */\n      tag_605\n      tag_401\n      jump\t// in\n    tag_605:\n        /* \"#utility.yul\":17813:17849   */\n    tag_604:\n        /* \"#utility.yul\":17665:17856   */\n      swap3\n      swap2\n      pop\n      pop\n      jump\t// out\n        /* \"#utility.yul\":17862:18272   */\n    tag_117:\n        /* \"#utility.yul\":17902:17909   */\n      0x00\n        /* \"#utility.yul\":17925:17945   */\n      tag_607\n        /* \"#utility.yul\":17943:17944   */\n      dup3\n        /* \"#utility.yul\":17925:17945   */\n      tag_362\n      jump\t// in\n    tag_607:\n        /* \"#utility.yul\":17920:17945   */\n      swap2\n      pop\n        /* \"#utility.yul\":17959:17979   */\n      tag_608\n        /* \"#utility.yul\":17977:17978   */\n      dup4\n        /* \"#utility.yul\":17959:17979   */\n      tag_362\n      jump\t// in\n    tag_608:\n        /* \"#utility.yul\":17954:17979   */\n      swap3\n      pop\n        /* \"#utility.yul\":18014:18015   */\n      dup3\n        /* \"#utility.yul\":18011:18012   */\n      dup3\n        /* \"#utility.yul\":18007:18016   */\n      mul\n        /* \"#utility.yul\":18036:18066   */\n      tag_609\n        /* \"#utility.yul\":18054:18065   */\n      dup2\n        /* \"#utility.yul\":18036:18066   */\n      tag_362\n      jump\t// in\n    tag_609:\n        /* \"#utility.yul\":18025:18066   */\n      swap2\n      pop\n        /* \"#utility.yul\":18215:18216   */\n      dup3\n        /* \"#utility.yul\":18206:18213   */\n      dup3\n        /* \"#utility.yul\":18202:18217   */\n      div\n        /* \"#utility.yul\":18199:18200   */\n      dup5\n        /* \"#utility.yul\":18196:18218   */\n      eq\n        /* \"#utility.yul\":18176:18177   */\n      dup4\n        /* \"#utility.yul\":18169:18178   */\n      iszero\n        /* \"#utility.yul\":18149:18232   */\n      or\n        /* \"#utility.yul\":18126:18265   */\n      tag_610\n      jumpi\n        /* \"#utility.yul\":18245:18263   */\n      tag_611\n      tag_401\n      jump\t// in\n    tag_611:\n        /* \"#utility.yul\":18126:18265   */\n    tag_610:\n        /* \"#utility.yul\":17910:18272   */\n      pop\n        /* \"#utility.yul\":17862:18272   */\n      swap3\n      swap2\n      pop\n      pop\n      jump\t// out\n        /* \"#utility.yul\":18278:18458   */\n    tag_402:\n        /* \"#utility.yul\":18326:18403   */\n      0x4e487b7100000000000000000000000000000000000000000000000000000000\n        /* \"#utility.yul\":18323:18324   */\n      0x00\n        /* \"#utility.yul\":18316:18404   */\n      mstore\n        /* \"#utility.yul\":18423:18427   */\n      0x12\n        /* \"#utility.yul\":18420:18421   */\n      0x04\n        /* \"#utility.yul\":18413:18428   */\n      mstore\n        /* \"#utility.yul\":18447:18451   */\n      0x24\n        /* \"#utility.yul\":18444:18445   */\n      0x00\n        /* \"#utility.yul\":18437:18452   */\n      revert\n        /* \"#utility.yul\":18464:18649   */\n    tag_119:\n        /* \"#utility.yul\":18504:18505   */\n      0x00\n        /* \"#utility.yul\":18521:18541   */\n      tag_614\n        /* \"#utility.yul\":18539:18540   */\n      dup3\n        /* \"#utility.yul\":18521:18541   */\n      tag_362\n      jump\t// in\n    tag_614:\n        /* \"#utility.yul\":18516:18541   */\n      swap2\n      pop\n        /* \"#utility.yul\":18555:18575   */\n      tag_615\n        /* \"#utility.yul\":18573:18574   */\n      dup4\n        /* \"#utility.yul\":18555:18575   */\n      tag_362\n      jump\t// in\n    tag_615:\n        /* \"#utility.yul\":18550:18575   */\n      swap3\n      pop\n        /* \"#utility.yul\":18594:18595   */\n      dup3\n        /* \"#utility.yul\":18584:18619   */\n      tag_616\n      jumpi\n        /* \"#utility.yul\":18599:18617   */\n      tag_617\n      tag_402\n      jump\t// in\n    tag_617:\n        /* \"#utility.yul\":18584:18619   */\n    tag_616:\n        /* \"#utility.yul\":18641:18642   */\n      dup3\n        /* \"#utility.yul\":18638:18639   */\n      dup3\n        /* \"#utility.yul\":18634:18643   */\n      div\n        /* \"#utility.yul\":18629:18643   */\n      swap1\n      pop\n        /* \"#utility.yul\":18464:18649   */\n      swap3\n      swap2\n      pop\n      pop\n      jump\t// out\n        /* \"#utility.yul\":18655:18835   */\n    tag_403:\n        /* \"#utility.yul\":18703:18780   */\n      0x4e487b7100000000000000000000000000000000000000000000000000000000\n        /* \"#utility.yul\":18700:18701   */\n      0x00\n        /* \"#utility.yul\":18693:18781   */\n      mstore\n        /* \"#utility.yul\":18800:18804   */\n      0x22\n        /* \"#utility.yul\":18797:18798   */\n      0x04\n        /* \"#utility.yul\":18790:18805   */\n      mstore\n        /* \"#utility.yul\":18824:18828   */\n      0x24\n        /* \"#utility.yul\":18821:18822   */\n      0x00\n        /* \"#utility.yul\":18814:18829   */\n      revert\n        /* \"#utility.yul\":18841:19161   */\n    tag_122:\n        /* \"#utility.yul\":18885:18891   */\n      0x00\n        /* \"#utility.yul\":18922:18923   */\n      0x02\n        /* \"#utility.yul\":18916:18920   */\n      dup3\n        /* \"#utility.yul\":18912:18924   */\n      div\n        /* \"#utility.yul\":18902:18924   */\n      swap1\n      pop\n        /* \"#utility.yul\":18969:18970   */\n      0x01\n        /* \"#utility.yul\":18963:18967   */\n      dup3\n        /* \"#utility.yul\":18959:18971   */\n      and\n        /* \"#utility.yul\":18990:19008   */\n      dup1\n        /* \"#utility.yul\":18980:19061   */\n      tag_620\n      jumpi\n        /* \"#utility.yul\":19046:19050   */\n      0x7f\n        /* \"#utility.yul\":19038:19044   */\n      dup3\n        /* \"#utility.yul\":19034:19051   */\n      and\n        /* \"#utility.yul\":19024:19051   */\n      swap2\n      pop\n        /* \"#utility.yul\":18980:19061   */\n    tag_620:\n        /* \"#utility.yul\":19108:19110   */\n      0x20\n        /* \"#utility.yul\":19100:19106   */\n      dup3\n        /* \"#utility.yul\":19097:19111   */\n      lt\n        /* \"#utility.yul\":19077:19095   */\n      dup2\n        /* \"#utility.yul\":19074:19112   */\n      sub\n        /* \"#utility.yul\":19071:19155   */\n      tag_621\n      jumpi\n        /* \"#utility.yul\":19127:19145   */\n      tag_622\n      tag_403\n      jump\t// in\n    tag_622:\n        /* \"#utility.yul\":19071:19155   */\n    tag_621:\n        /* \"#utility.yul\":18892:19161   */\n      pop\n        /* \"#utility.yul\":18841:19161   */\n      swap2\n      swap1\n      pop\n      jump\t// out\n        /* \"#utility.yul\":19167:19332   */\n    tag_404:\n        /* \"#utility.yul\":19307:19324   */\n      0x496e76616c696420616d6f756e74730000000000000000000000000000000000\n        /* \"#utility.yul\":19303:19304   */\n      0x00\n        /* \"#utility.yul\":19295:19301   */\n      dup3\n        /* \"#utility.yul\":19291:19305   */\n      add\n        /* \"#utility.yul\":19284:19325   */\n      mstore\n        /* \"#utility.yul\":19167:19332   */\n      pop\n      jump\t// out\n        /* \"#utility.yul\":19338:19704   */\n    tag_405:\n        /* \"#utility.yul\":19480:19483   */\n      0x00\n        /* \"#utility.yul\":19501:19568   */\n      tag_625\n        /* \"#utility.yul\":19565:19567   */\n      0x0f\n        /* \"#utility.yul\":19560:19563   */\n      dup4\n        /* \"#utility.yul\":19501:19568   */\n      tag_367\n      jump\t// in\n    tag_625:\n        /* \"#utility.yul\":19494:19568   */\n      swap2\n      pop\n        /* \"#utility.yul\":19577:19670   */\n      tag_626\n        /* \"#utility.yul\":19666:19669   */\n      dup3\n        /* \"#utility.yul\":19577:19670   */\n      tag_404\n      jump\t// in\n    tag_626:\n        /* \"#utility.yul\":19695:19697   */\n      0x20\n        /* \"#utility.yul\":19690:19693   */\n      dup3\n        /* \"#utility.yul\":19686:19698   */\n      add\n        /* \"#utility.yul\":19679:19698   */\n      swap1\n      pop\n        /* \"#utility.yul\":19338:19704   */\n      swap2\n      swap1\n      pop\n      jump\t// out\n        /* \"#utility.yul\":19710:20129   */\n    tag_144:\n        /* \"#utility.yul\":19876:19880   */\n      0x00\n        /* \"#utility.yul\":19914:19916   */\n      0x20\n        /* \"#utility.yul\":19903:19912   */\n      dup3\n        /* \"#utility.yul\":19899:19917   */\n      add\n        /* \"#utility.yul\":19891:19917   */\n      swap1\n      pop\n        /* \"#utility.yul\":19963:19972   */\n      dup2\n        /* \"#utility.yul\":19957:19961   */\n      dup2\n        /* \"#utility.yul\":19953:19973   */\n      sub\n        /* \"#utility.yul\":19949:19950   */\n      0x00\n        /* \"#utility.yul\":19938:19947   */\n      dup4\n        /* \"#utility.yul\":19934:19951   */\n      add\n        /* \"#utility.yul\":19927:19974   */\n      mstore\n        /* \"#utility.yul\":19991:20122   */\n      tag_628\n        /* \"#utility.yul\":20117:20121   */\n      dup2\n        /* \"#utility.yul\":19991:20122   */\n      tag_405\n      jump\t// in\n    tag_628:\n        /* \"#utility.yul\":19983:20122   */\n      swap1\n      pop\n        /* \"#utility.yul\":19710:20129   */\n      swap2\n      swap1\n      pop\n      jump\t// out\n        /* \"#utility.yul\":20135:20304   */\n    tag_406:\n        /* \"#utility.yul\":20275:20296   */\n      0x5472616e73616374696f6e206578706972656400000000000000000000000000\n        /* \"#utility.yul\":20271:20272   */\n      0x00\n        /* \"#utility.yul\":20263:20269   */\n      dup3\n        /* \"#utility.yul\":20259:20273   */\n      add\n        /* \"#utility.yul\":20252:20297   */\n      mstore\n        /* \"#utility.yul\":20135:20304   */\n      pop\n      jump\t// out\n        /* \"#utility.yul\":20310:20676   */\n    tag_407:\n        /* \"#utility.yul\":20452:20455   */\n      0x00\n        /* \"#utility.yul\":20473:20540   */\n      tag_631\n        /* \"#utility.yul\":20537:20539   */\n      0x13\n        /* \"#utility.yul\":20532:20535   */\n      dup4\n        /* \"#utility.yul\":20473:20540   */\n      tag_367\n      jump\t// in\n    tag_631:\n        /* \"#utility.yul\":20466:20540   */\n      swap2\n      pop\n        /* \"#utility.yul\":20549:20642   */\n      tag_632\n        /* \"#utility.yul\":20638:20641   */\n      dup3\n        /* \"#utility.yul\":20549:20642   */\n      tag_406\n      jump\t// in\n    tag_632:\n        /* \"#utility.yul\":20667:20669   */\n      0x20\n        /* \"#utility.yul\":20662:20665   */\n      dup3\n        /* \"#utility.yul\":20658:20670   */\n      add\n        /* \"#utility.yul\":20651:20670   */\n      swap1\n      pop\n        /* \"#utility.yul\":20310:20676   */\n      swap2\n      swap1\n      pop\n      jump\t// out\n        /* \"#utility.yul\":20682:21101   */\n    tag_147:\n        /* \"#utility.yul\":20848:20852   */\n      0x00\n        /* \"#utility.yul\":20886:20888   */\n      0x20\n        /* \"#utility.yul\":20875:20884   */\n      dup3\n        /* \"#utility.yul\":20871:20889   */\n      add\n        /* \"#utility.yul\":20863:20889   */\n      swap1\n      pop\n        /* \"#utility.yul\":20935:20944   */\n      dup2\n        /* \"#utility.yul\":20929:20933   */\n      dup2\n        /* \"#utility.yul\":20925:20945   */\n      sub\n        /* \"#utility.yul\":20921:20922   */\n      0x00\n        /* \"#utility.yul\":20910:20919   */\n      dup4\n        /* \"#utility.yul\":20906:20923   */\n      add\n        /* \"#utility.yul\":20899:20946   */\n      mstore\n        /* \"#utility.yul\":20963:21094   */\n      tag_634\n        /* \"#utility.yul\":21089:21093   */\n      dup2\n        /* \"#utility.yul\":20963:21094   */\n      tag_407\n      jump\t// in\n    tag_634:\n        /* \"#utility.yul\":20955:21094   */\n      swap1\n      pop\n        /* \"#utility.yul\":20682:21101   */\n      swap2\n      swap1\n      pop\n      jump\t// out\n        /* \"#utility.yul\":21107:21277   */\n    tag_408:\n        /* \"#utility.yul\":21247:21269   */\n      0x496e76616c696420746f6b656e7320636f756e74000000000000000000000000\n        /* \"#utility.yul\":21243:21244   */\n      0x00\n        /* \"#utility.yul\":21235:21241   */\n      dup3\n        /* \"#utility.yul\":21231:21245   */\n      add\n        /* \"#utility.yul\":21224:21270   */\n      mstore\n        /* \"#utility.yul\":21107:21277   */\n      pop\n      jump\t// out\n        /* \"#utility.yul\":21283:21649   */\n    tag_409:\n        /* \"#utility.yul\":21425:21428   */\n      0x00\n        /* \"#utility.yul\":21446:21513   */\n      tag_637\n        /* \"#utility.yul\":21510:21512   */\n      0x14\n        /* \"#utility.yul\":21505:21508   */\n      dup4\n        /* \"#utility.yul\":21446:21513   */\n      tag_367\n      jump\t// in\n    tag_637:\n        /* \"#utility.yul\":21439:21513   */\n      swap2\n      pop\n        /* \"#utility.yul\":21522:21615   */\n      tag_638\n        /* \"#utility.yul\":21611:21614   */\n      dup3\n        /* \"#utility.yul\":21522:21615   */\n      tag_408\n      jump\t// in\n    tag_638:\n        /* \"#utility.yul\":21640:21642   */\n      0x20\n        /* \"#utility.yul\":21635:21638   */\n      dup3\n        /* \"#utility.yul\":21631:21643   */\n      add\n        /* \"#utility.yul\":21624:21643   */\n      swap1\n      pop\n        /* \"#utility.yul\":21283:21649   */\n      swap2\n      swap1\n      pop\n      jump\t// out\n        /* \"#utility.yul\":21655:22074   */\n    tag_150:\n        /* \"#utility.yul\":21821:21825   */\n      0x00\n        /* \"#utility.yul\":21859:21861   */\n      0x20\n        /* \"#utility.yul\":21848:21857   */\n      dup3\n        /* \"#utility.yul\":21844:21862   */\n      add\n        /* \"#utility.yul\":21836:21862   */\n      swap1\n      pop\n        /* \"#utility.yul\":21908:21917   */\n      dup2\n        /* \"#utility.yul\":21902:21906   */\n      dup2\n        /* \"#utility.yul\":21898:21918   */\n      sub\n        /* \"#utility.yul\":21894:21895   */\n      0x00\n        /* \"#utility.yul\":21883:21892   */\n      dup4\n        /* \"#utility.yul\":21879:21896   */\n      add\n        /* \"#utility.yul\":21872:21919   */\n      mstore\n        /* \"#utility.yul\":21936:22067   */\n      tag_640\n        /* \"#utility.yul\":22062:22066   */\n      dup2\n        /* \"#utility.yul\":21936:22067   */\n      tag_409\n      jump\t// in\n    tag_640:\n        /* \"#utility.yul\":21928:22067   */\n      swap1\n      pop\n        /* \"#utility.yul\":21655:22074   */\n      swap2\n      swap1\n      pop\n      jump\t// out\n        /* \"#utility.yul\":22080:22260   */\n    tag_153:\n        /* \"#utility.yul\":22128:22205   */\n      0x4e487b7100000000000000000000000000000000000000000000000000000000\n        /* \"#utility.yul\":22125:22126   */\n      0x00\n        /* \"#utility.yul\":22118:22206   */\n      mstore\n        /* \"#utility.yul\":22225:22229   */\n      0x32\n        /* \"#utility.yul\":22222:22223   */\n      0x04\n        /* \"#utility.yul\":22215:22230   */\n      mstore\n        /* \"#utility.yul\":22249:22253   */\n      0x24\n        /* \"#utility.yul\":22246:22247   */\n      0x00\n        /* \"#utility.yul\":22239:22254   */\n      revert\n        /* \"#utility.yul\":22266:22430   */\n    tag_410:\n        /* \"#utility.yul\":22406:22422   */\n      0x496e76616c696420746f6b656e73000000000000000000000000000000000000\n        /* \"#utility.yul\":22402:22403   */\n      0x00\n        /* \"#utility.yul\":22394:22400   */\n      dup3\n        /* \"#utility.yul\":22390:22404   */\n      add\n        /* \"#utility.yul\":22383:22423   */\n      mstore\n        /* \"#utility.yul\":22266:22430   */\n      pop\n      jump\t// out\n        /* \"#utility.yul\":22436:22802   */\n    tag_411:\n        /* \"#utility.yul\":22578:22581   */\n      0x00\n        /* \"#utility.yul\":22599:22666   */\n      tag_644\n        /* \"#utility.yul\":22663:22665   */\n      0x0e\n        /* \"#utility.yul\":22658:22661   */\n      dup4\n        /* \"#utility.yul\":22599:22666   */\n      tag_367\n      jump\t// in\n    tag_644:\n        /* \"#utility.yul\":22592:22666   */\n      swap2\n      pop\n        /* \"#utility.yul\":22675:22768   */\n      tag_645\n        /* \"#utility.yul\":22764:22767   */\n      dup3\n        /* \"#utility.yul\":22675:22768   */\n      tag_410\n      jump\t// in\n    tag_645:\n        /* \"#utility.yul\":22793:22795   */\n      0x20\n        /* \"#utility.yul\":22788:22791   */\n      dup3\n        /* \"#utility.yul\":22784:22796   */\n      add\n        /* \"#utility.yul\":22777:22796   */\n      swap1\n      pop\n        /* \"#utility.yul\":22436:22802   */\n      swap2\n      swap1\n      pop\n      jump\t// out\n        /* \"#utility.yul\":22808:23227   */\n    tag_161:\n        /* \"#utility.yul\":22974:22978   */\n      0x00\n        /* \"#utility.yul\":23012:23014   */\n      0x20\n        /* \"#utility.yul\":23001:23010   */\n      dup3\n        /* \"#utility.yul\":22997:23015   */\n      add\n        /* \"#utility.yul\":22989:23015   */\n      swap1\n      pop\n        /* \"#utility.yul\":23061:23070   */\n      dup2\n        /* \"#utility.yul\":23055:23059   */\n      dup2\n        /* \"#utility.yul\":23051:23071   */\n      sub\n        /* \"#utility.yul\":23047:23048   */\n      0x00\n        /* \"#utility.yul\":23036:23045   */\n      dup4\n        /* \"#utility.yul\":23032:23049   */\n      add\n        /* \"#utility.yul\":23025:23072   */\n      mstore\n        /* \"#utility.yul\":23089:23220   */\n      tag_647\n        /* \"#utility.yul\":23215:23219   */\n      dup2\n        /* \"#utility.yul\":23089:23220   */\n      tag_411\n      jump\t// in\n    tag_647:\n        /* \"#utility.yul\":23081:23220   */\n      swap1\n      pop\n        /* \"#utility.yul\":22808:23227   */\n      swap2\n      swap1\n      pop\n      jump\t// out\n        /* \"#utility.yul\":23233:23351   */\n    tag_412:\n        /* \"#utility.yul\":23320:23344   */\n      tag_649\n        /* \"#utility.yul\":23338:23343   */\n      dup2\n        /* \"#utility.yul\":23320:23344   */\n      tag_372\n      jump\t// in\n    tag_649:\n        /* \"#utility.yul\":23315:23318   */\n      dup3\n        /* \"#utility.yul\":23308:23345   */\n      mstore\n        /* \"#utility.yul\":23233:23351   */\n      pop\n      pop\n      jump\t// out\n        /* \"#utility.yul\":23357:23799   */\n    tag_163:\n        /* \"#utility.yul\":23506:23510   */\n      0x00\n        /* \"#utility.yul\":23544:23546   */\n      0x60\n        /* \"#utility.yul\":23533:23542   */\n      dup3\n        /* \"#utility.yul\":23529:23547   */\n      add\n        /* \"#utility.yul\":23521:23547   */\n      swap1\n      pop\n        /* \"#utility.yul\":23557:23628   */\n      tag_651\n        /* \"#utility.yul\":23625:23626   */\n      0x00\n        /* \"#utility.yul\":23614:23623   */\n      dup4\n        /* \"#utility.yul\":23610:23627   */\n      add\n        /* \"#utility.yul\":23601:23607   */\n      dup7\n        /* \"#utility.yul\":23557:23628   */\n      tag_412\n      jump\t// in\n    tag_651:\n        /* \"#utility.yul\":23638:23710   */\n      tag_652\n        /* \"#utility.yul\":23706:23708   */\n      0x20\n        /* \"#utility.yul\":23695:23704   */\n      dup4\n        /* \"#utility.yul\":23691:23709   */\n      add\n        /* \"#utility.yul\":23682:23688   */\n      dup6\n        /* \"#utility.yul\":23638:23710   */\n      tag_412\n      jump\t// in\n    tag_652:\n        /* \"#utility.yul\":23720:23792   */\n      tag_653\n        /* \"#utility.yul\":23788:23790   */\n      0x40\n        /* \"#utility.yul\":23777:23786   */\n      dup4\n        /* \"#utility.yul\":23773:23791   */\n      add\n        /* \"#utility.yul\":23764:23770   */\n      dup5\n        /* \"#utility.yul\":23720:23792   */\n      tag_365\n      jump\t// in\n    tag_653:\n        /* \"#utility.yul\":23357:23799   */\n      swap5\n      swap4\n      pop\n      pop\n      pop\n      pop\n      jump\t// out\n        /* \"#utility.yul\":23805:23921   */\n    tag_413:\n        /* \"#utility.yul\":23875:23896   */\n      tag_655\n        /* \"#utility.yul\":23890:23895   */\n      dup2\n        /* \"#utility.yul\":23875:23896   */\n      tag_375\n      jump\t// in\n    tag_655:\n        /* \"#utility.yul\":23868:23873   */\n      dup2\n        /* \"#utility.yul\":23865:23897   */\n      eq\n        /* \"#utility.yul\":23855:23915   */\n      tag_656\n      jumpi\n        /* \"#utility.yul\":23911:23912   */\n      0x00\n        /* \"#utility.yul\":23908:23909   */\n      0x00\n        /* \"#utility.yul\":23901:23913   */\n      revert\n        /* \"#utility.yul\":23855:23915   */\n    tag_656:\n        /* \"#utility.yul\":23805:23921   */\n      pop\n      jump\t// out\n        /* \"#utility.yul\":23927:24064   */\n    tag_414:\n        /* \"#utility.yul\":23981:23986   */\n      0x00\n        /* \"#utility.yul\":24012:24018   */\n      dup2\n        /* \"#utility.yul\":24006:24019   */\n      mload\n        /* \"#utility.yul\":23997:24019   */\n      swap1\n      pop\n        /* \"#utility.yul\":24028:24058   */\n      tag_658\n        /* \"#utility.yul\":24052:24057   */\n      dup2\n        /* \"#utility.yul\":24028:24058   */\n      tag_413\n      jump\t// in\n    tag_658:\n        /* \"#utility.yul\":23927:24064   */\n      swap3\n      swap2\n      pop\n      pop\n      jump\t// out\n        /* \"#utility.yul\":24070:24415   */\n    tag_167:\n        /* \"#utility.yul\":24137:24143   */\n      0x00\n        /* \"#utility.yul\":24186:24188   */\n      0x20\n        /* \"#utility.yul\":24174:24183   */\n      dup3\n        /* \"#utility.yul\":24165:24172   */\n      dup5\n        /* \"#utility.yul\":24161:24184   */\n      sub\n        /* \"#utility.yul\":24157:24189   */\n      slt\n        /* \"#utility.yul\":24154:24273   */\n      iszero\n      tag_660\n      jumpi\n        /* \"#utility.yul\":24192:24271   */\n      tag_661\n      tag_360\n      jump\t// in\n    tag_661:\n        /* \"#utility.yul\":24154:24273   */\n    tag_660:\n        /* \"#utility.yul\":24312:24313   */\n      0x00\n        /* \"#utility.yul\":24337:24398   */\n      tag_662\n        /* \"#utility.yul\":24390:24397   */\n      dup5\n        /* \"#utility.yul\":24381:24387   */\n      dup3\n        /* \"#utility.yul\":24370:24379   */\n      dup6\n        /* \"#utility.yul\":24366:24388   */\n      add\n        /* \"#utility.yul\":24337:24398   */\n      tag_414\n      jump\t// in\n    tag_662:\n        /* \"#utility.yul\":24327:24398   */\n      swap2\n      pop\n        /* \"#utility.yul\":24283:24408   */\n      pop\n        /* \"#utility.yul\":24070:24415   */\n      swap3\n      swap2\n      pop\n      pop\n      jump\t// out\n        /* \"#utility.yul\":24421:24597   */\n    tag_415:\n        /* \"#utility.yul\":24561:24589   */\n      0x496e73756666696369656e74206f757470757420616d6f756e74000000000000\n        /* \"#utility.yul\":24557:24558   */\n      0x00\n        /* \"#utility.yul\":24549:24555   */\n      dup3\n        /* \"#utility.yul\":24545:24559   */\n      add\n        /* \"#utility.yul\":24538:24590   */\n      mstore\n        /* \"#utility.yul\":24421:24597   */\n      pop\n      jump\t// out\n        /* \"#utility.yul\":24603:24969   */\n    tag_416:\n        /* \"#utility.yul\":24745:24748   */\n      0x00\n        /* \"#utility.yul\":24766:24833   */\n      tag_665\n        /* \"#utility.yul\":24830:24832   */\n      0x1a\n        /* \"#utility.yul\":24825:24828   */\n      dup4\n        /* \"#utility.yul\":24766:24833   */\n      tag_367\n      jump\t// in\n    tag_665:\n        /* \"#utility.yul\":24759:24833   */\n      swap2\n      pop\n        /* \"#utility.yul\":24842:24935   */\n      tag_666\n        /* \"#utility.yul\":24931:24934   */\n      dup3\n        /* \"#utility.yul\":24842:24935   */\n      tag_415\n      jump\t// in\n    tag_666:\n        /* \"#utility.yul\":24960:24962   */\n      0x20\n        /* \"#utility.yul\":24955:24958   */\n      dup3\n        /* \"#utility.yul\":24951:24963   */\n      add\n        /* \"#utility.yul\":24944:24963   */\n      swap1\n      pop\n        /* \"#utility.yul\":24603:24969   */\n      swap2\n      swap1\n      pop\n      jump\t// out\n        /* \"#utility.yul\":24975:25394   */\n    tag_173:\n        /* \"#utility.yul\":25141:25145   */\n      0x00\n        /* \"#utility.yul\":25179:25181   */\n      0x20\n        /* \"#utility.yul\":25168:25177   */\n      dup3\n        /* \"#utility.yul\":25164:25182   */\n      add\n        /* \"#utility.yul\":25156:25182   */\n      swap1\n      pop\n        /* \"#utility.yul\":25228:25237   */\n      dup2\n        /* \"#utility.yul\":25222:25226   */\n      dup2\n        /* \"#utility.yul\":25218:25238   */\n      sub\n        /* \"#utility.yul\":25214:25215   */\n      0x00\n        /* \"#utility.yul\":25203:25212   */\n      dup4\n        /* \"#utility.yul\":25199:25216   */\n      add\n        /* \"#utility.yul\":25192:25239   */\n      mstore\n        /* \"#utility.yul\":25256:25387   */\n      tag_668\n        /* \"#utility.yul\":25382:25386   */\n      dup2\n        /* \"#utility.yul\":25256:25387   */\n      tag_416\n      jump\t// in\n    tag_668:\n        /* \"#utility.yul\":25248:25387   */\n      swap1\n      pop\n        /* \"#utility.yul\":24975:25394   */\n      swap2\n      swap1\n      pop\n      jump\t// out\n        /* \"#utility.yul\":25400:25732   */\n    tag_175:\n        /* \"#utility.yul\":25521:25525   */\n      0x00\n        /* \"#utility.yul\":25559:25561   */\n      0x40\n        /* \"#utility.yul\":25548:25557   */\n      dup3\n        /* \"#utility.yul\":25544:25562   */\n      add\n        /* \"#utility.yul\":25536:25562   */\n      swap1\n      pop\n        /* \"#utility.yul\":25572:25643   */\n      tag_670\n        /* \"#utility.yul\":25640:25641   */\n      0x00\n        /* \"#utility.yul\":25629:25638   */\n      dup4\n        /* \"#utility.yul\":25625:25642   */\n      add\n        /* \"#utility.yul\":25616:25622   */\n      dup6\n        /* \"#utility.yul\":25572:25643   */\n      tag_412\n      jump\t// in\n    tag_670:\n        /* \"#utility.yul\":25653:25725   */\n      tag_671\n        /* \"#utility.yul\":25721:25723   */\n      0x20\n        /* \"#utility.yul\":25710:25719   */\n      dup4\n        /* \"#utility.yul\":25706:25724   */\n      add\n        /* \"#utility.yul\":25697:25703   */\n      dup5\n        /* \"#utility.yul\":25653:25725   */\n      tag_365\n      jump\t// in\n    tag_671:\n        /* \"#utility.yul\":25400:25732   */\n      swap4\n      swap3\n      pop\n      pop\n      pop\n      jump\t// out\n        /* \"#utility.yul\":25738:25932   */\n    tag_181:\n        /* \"#utility.yul\":25778:25782   */\n      0x00\n        /* \"#utility.yul\":25798:25818   */\n      tag_673\n        /* \"#utility.yul\":25816:25817   */\n      dup3\n        /* \"#utility.yul\":25798:25818   */\n      tag_362\n      jump\t// in\n    tag_673:\n        /* \"#utility.yul\":25793:25818   */\n      swap2\n      pop\n        /* \"#utility.yul\":25832:25852   */\n      tag_674\n        /* \"#utility.yul\":25850:25851   */\n      dup4\n        /* \"#utility.yul\":25832:25852   */\n      tag_362\n      jump\t// in\n    tag_674:\n        /* \"#utility.yul\":25827:25852   */\n      swap3\n      pop\n        /* \"#utility.yul\":25876:25877   */\n      dup3\n        /* \"#utility.yul\":25873:25874   */\n      dup3\n        /* \"#utility.yul\":25869:25878   */\n      sub\n        /* \"#utility.yul\":25861:25878   */\n      swap1\n      pop\n        /* \"#utility.yul\":25900:25901   */\n      dup2\n        /* \"#utility.yul\":25894:25898   */\n      dup2\n        /* \"#utility.yul\":25891:25902   */\n      gt\n        /* \"#utility.yul\":25888:25925   */\n      iszero\n      tag_675\n      jumpi\n        /* \"#utility.yul\":25905:25923   */\n      tag_676\n      tag_401\n      jump\t// in\n    tag_676:\n        /* \"#utility.yul\":25888:25925   */\n    tag_675:\n        /* \"#utility.yul\":25738:25932   */\n      swap3\n      swap2\n      pop\n      pop\n      jump\t// out\n        /* \"#utility.yul\":25938:26118   */\n    tag_184:\n        /* \"#utility.yul\":25986:26063   */\n      0x4e487b7100000000000000000000000000000000000000000000000000000000\n        /* \"#utility.yul\":25983:25984   */\n      0x00\n        /* \"#utility.yul\":25976:26064   */\n      mstore\n        /* \"#utility.yul\":26083:26087   */\n      0x41\n        /* \"#utility.yul\":26080:26081   */\n      0x04\n        /* \"#utility.yul\":26073:26088   */\n      mstore\n        /* \"#utility.yul\":26107:26111   */\n      0x24\n        /* \"#utility.yul\":26104:26105   */\n      0x00\n        /* \"#utility.yul\":26097:26112   */\n      revert\n        /* \"#utility.yul\":26124:26290   */\n    tag_417:\n        /* \"#utility.yul\":26264:26282   */\n      0x496e76616c696420726573657276657300000000000000000000000000000000\n        /* \"#utility.yul\":26260:26261   */\n      0x00\n        /* \"#utility.yul\":26252:26258   */\n      dup3\n        /* \"#utility.yul\":26248:26262   */\n      add\n        /* \"#utility.yul\":26241:26283   */\n      mstore\n        /* \"#utility.yul\":26124:26290   */\n      pop\n      jump\t// out\n        /* \"#utility.yul\":26296:26662   */\n    tag_418:\n        /* \"#utility.yul\":26438:26441   */\n      0x00\n        /* \"#utility.yul\":26459:26526   */\n      tag_680\n        /* \"#utility.yul\":26523:26525   */\n      0x10\n        /* \"#utility.yul\":26518:26521   */\n      dup4\n        /* \"#utility.yul\":26459:26526   */\n      tag_367\n      jump\t// in\n    tag_680:\n        /* \"#utility.yul\":26452:26526   */\n      swap2\n      pop\n        /* \"#utility.yul\":26535:26628   */\n      tag_681\n        /* \"#utility.yul\":26624:26627   */\n      dup3\n        /* \"#utility.yul\":26535:26628   */\n      tag_417\n      jump\t// in\n    tag_681:\n        /* \"#utility.yul\":26653:26655   */\n      0x20\n        /* \"#utility.yul\":26648:26651   */\n      dup3\n        /* \"#utility.yul\":26644:26656   */\n      add\n        /* \"#utility.yul\":26637:26656   */\n      swap1\n      pop\n        /* \"#utility.yul\":26296:26662   */\n      swap2\n      swap1\n      pop\n      jump\t// out\n        /* \"#utility.yul\":26668:27087   */\n    tag_207:\n        /* \"#utility.yul\":26834:26838   */\n      0x00\n        /* \"#utility.yul\":26872:26874   */\n      0x20\n        /* \"#utility.yul\":26861:26870   */\n      dup3\n        /* \"#utility.yul\":26857:26875   */\n      add\n        /* \"#utility.yul\":26849:26875   */\n      swap1\n      pop\n        /* \"#utility.yul\":26921:26930   */\n      dup2\n        /* \"#utility.yul\":26915:26919   */\n      dup2\n        /* \"#utility.yul\":26911:26931   */\n      sub\n        /* \"#utility.yul\":26907:26908   */\n      0x00\n        /* \"#utility.yul\":26896:26905   */\n      dup4\n        /* \"#utility.yul\":26892:26909   */\n      add\n        /* \"#utility.yul\":26885:26932   */\n      mstore\n        /* \"#utility.yul\":26949:27080   */\n      tag_683\n        /* \"#utility.yul\":27075:27079   */\n      dup2\n        /* \"#utility.yul\":26949:27080   */\n      tag_418\n      jump\t// in\n    tag_683:\n        /* \"#utility.yul\":26941:27080   */\n      swap1\n      pop\n        /* \"#utility.yul\":26668:27087   */\n      swap2\n      swap1\n      pop\n      jump\t// out\n        /* \"#utility.yul\":27093:27260   */\n    tag_419:\n        /* \"#utility.yul\":27233:27252   */\n      0x496e76616c6964206c6971756964697479000000000000000000000000000000\n        /* \"#utility.yul\":27229:27230   */\n      0x00\n        /* \"#utility.yul\":27221:27227   */\n      dup3\n        /* \"#utility.yul\":27217:27231   */\n      add\n        /* \"#utility.yul\":27210:27253   */\n      mstore\n        /* \"#utility.yul\":27093:27260   */\n      pop\n      jump\t// out\n        /* \"#utility.yul\":27266:27632   */\n    tag_420:\n        /* \"#utility.yul\":27408:27411   */\n      0x00\n        /* \"#utility.yul\":27429:27496   */\n      tag_686\n        /* \"#utility.yul\":27493:27495   */\n      0x11\n        /* \"#utility.yul\":27488:27491   */\n      dup4\n        /* \"#utility.yul\":27429:27496   */\n      tag_367\n      jump\t// in\n    tag_686:\n        /* \"#utility.yul\":27422:27496   */\n      swap2\n      pop\n        /* \"#utility.yul\":27505:27598   */\n      tag_687\n        /* \"#utility.yul\":27594:27597   */\n      dup3\n        /* \"#utility.yul\":27505:27598   */\n      tag_419\n      jump\t// in\n    tag_687:\n        /* \"#utility.yul\":27623:27625   */\n      0x20\n        /* \"#utility.yul\":27618:27621   */\n      dup3\n        /* \"#utility.yul\":27614:27626   */\n      add\n        /* \"#utility.yul\":27607:27626   */\n      swap1\n      pop\n        /* \"#utility.yul\":27266:27632   */\n      swap2\n      swap1\n      pop\n      jump\t// out\n        /* \"#utility.yul\":27638:28057   */\n    tag_218:\n        /* \"#utility.yul\":27804:27808   */\n      0x00\n        /* \"#utility.yul\":27842:27844   */\n      0x20\n        /* \"#utility.yul\":27831:27840   */\n      dup3\n        /* \"#utility.yul\":27827:27845   */\n      add\n        /* \"#utility.yul\":27819:27845   */\n      swap1\n      pop\n        /* \"#utility.yul\":27891:27900   */\n      dup2\n        /* \"#utility.yul\":27885:27889   */\n      dup2\n        /* \"#utility.yul\":27881:27901   */\n      sub\n        /* \"#utility.yul\":27877:27878   */\n      0x00\n        /* \"#utility.yul\":27866:27875   */\n      dup4\n        /* \"#utility.yul\":27862:27879   */\n      add\n        /* \"#utility.yul\":27855:27902   */\n      mstore\n        /* \"#utility.yul\":27919:28050   */\n      tag_689\n        /* \"#utility.yul\":28045:28049   */\n      dup2\n        /* \"#utility.yul\":27919:28050   */\n      tag_420\n      jump\t// in\n    tag_689:\n        /* \"#utility.yul\":27911:28050   */\n      swap1\n      pop\n        /* \"#utility.yul\":27638:28057   */\n      swap2\n      swap1\n      pop\n      jump\t// out\n        /* \"#utility.yul\":28063:28232   */\n    tag_421:\n        /* \"#utility.yul\":28203:28224   */\n      0x496e76616c696420616d6f756e7473206d696e00000000000000000000000000\n        /* \"#utility.yul\":28199:28200   */\n      0x00\n        /* \"#utility.yul\":28191:28197   */\n      dup3\n        /* \"#utility.yul\":28187:28201   */\n      add\n        /* \"#utility.yul\":28180:28225   */\n      mstore\n        /* \"#utility.yul\":28063:28232   */\n      pop\n      jump\t// out\n        /* \"#utility.yul\":28238:28604   */\n    tag_422:\n        /* \"#utility.yul\":28380:28383   */\n      0x00\n        /* \"#utility.yul\":28401:28468   */\n      tag_692\n        /* \"#utility.yul\":28465:28467   */\n      0x13\n        /* \"#utility.yul\":28460:28463   */\n      dup4\n        /* \"#utility.yul\":28401:28468   */\n      tag_367\n      jump\t// in\n    tag_692:\n        /* \"#utility.yul\":28394:28468   */\n      swap2\n      pop\n        /* \"#utility.yul\":28477:28570   */\n      tag_693\n        /* \"#utility.yul\":28566:28569   */\n      dup3\n        /* \"#utility.yul\":28477:28570   */\n      tag_421\n      jump\t// in\n    tag_693:\n        /* \"#utility.yul\":28595:28597   */\n      0x20\n        /* \"#utility.yul\":28590:28593   */\n      dup3\n        /* \"#utility.yul\":28586:28598   */\n      add\n        /* \"#utility.yul\":28579:28598   */\n      swap1\n      pop\n        /* \"#utility.yul\":28238:28604   */\n      swap2\n      swap1\n      pop\n      jump\t// out\n        /* \"#utility.yul\":28610:29029   */\n    tag_222:\n        /* \"#utility.yul\":28776:28780   */\n      0x00\n        /* \"#utility.yul\":28814:28816   */\n      0x20\n        /* \"#utility.yul\":28803:28812   */\n      dup3\n        /* \"#utility.yul\":28799:28817   */\n      add\n        /* \"#utility.yul\":28791:28817   */\n      swap1\n      pop\n        /* \"#utility.yul\":28863:28872   */\n      dup2\n        /* \"#utility.yul\":28857:28861   */\n      dup2\n        /* \"#utility.yul\":28853:28873   */\n      sub\n        /* \"#utility.yul\":28849:28850   */\n      0x00\n        /* \"#utility.yul\":28838:28847   */\n      dup4\n        /* \"#utility.yul\":28834:28851   */\n      add\n        /* \"#utility.yul\":28827:28874   */\n      mstore\n        /* \"#utility.yul\":28891:29022   */\n      tag_695\n        /* \"#utility.yul\":29017:29021   */\n      dup2\n        /* \"#utility.yul\":28891:29022   */\n      tag_422\n      jump\t// in\n    tag_695:\n        /* \"#utility.yul\":28883:29022   */\n      swap1\n      pop\n        /* \"#utility.yul\":28610:29029   */\n      swap2\n      swap1\n      pop\n      jump\t// out\n        /* \"#utility.yul\":29035:29199   */\n    tag_423:\n        /* \"#utility.yul\":29175:29191   */\n      0x496e76616c696420737570706c79000000000000000000000000000000000000\n        /* \"#utility.yul\":29171:29172   */\n      0x00\n        /* \"#utility.yul\":29163:29169   */\n      dup3\n        /* \"#utility.yul\":29159:29173   */\n      add\n        /* \"#utility.yul\":29152:29192   */\n      mstore\n        /* \"#utility.yul\":29035:29199   */\n      pop\n      jump\t// out\n        /* \"#utility.yul\":29205:29571   */\n    tag_424:\n        /* \"#utility.yul\":29347:29350   */\n      0x00\n        /* \"#utility.yul\":29368:29435   */\n      tag_698\n        /* \"#utility.yul\":29432:29434   */\n      0x0e\n        /* \"#utility.yul\":29427:29430   */\n      dup4\n        /* \"#utility.yul\":29368:29435   */\n      tag_367\n      jump\t// in\n    tag_698:\n        /* \"#utility.yul\":29361:29435   */\n      swap2\n      pop\n        /* \"#utility.yul\":29444:29537   */\n      tag_699\n        /* \"#utility.yul\":29533:29536   */\n      dup3\n        /* \"#utility.yul\":29444:29537   */\n      tag_423\n      jump\t// in\n    tag_699:\n        /* \"#utility.yul\":29562:29564   */\n      0x20\n        /* \"#utility.yul\":29557:29560   */\n      dup3\n        /* \"#utility.yul\":29553:29565   */\n      add\n        /* \"#utility.yul\":29546:29565   */\n      swap1\n      pop\n        /* \"#utility.yul\":29205:29571   */\n      swap2\n      swap1\n      pop\n      jump\t// out\n        /* \"#utility.yul\":29577:29996   */\n    tag_226:\n        /* \"#utility.yul\":29743:29747   */\n      0x00\n        /* \"#utility.yul\":29781:29783   */\n      0x20\n        /* \"#utility.yul\":29770:29779   */\n      dup3\n        /* \"#utility.yul\":29766:29784   */\n      add\n        /* \"#utility.yul\":29758:29784   */\n      swap1\n      pop\n        /* \"#utility.yul\":29830:29839   */\n      dup2\n        /* \"#utility.yul\":29824:29828   */\n      dup2\n        /* \"#utility.yul\":29820:29840   */\n      sub\n        /* \"#utility.yul\":29816:29817   */\n      0x00\n        /* \"#utility.yul\":29805:29814   */\n      dup4\n        /* \"#utility.yul\":29801:29818   */\n      add\n        /* \"#utility.yul\":29794:29841   */\n      mstore\n        /* \"#utility.yul\":29858:29989   */\n      tag_701\n        /* \"#utility.yul\":29984:29988   */\n      dup2\n        /* \"#utility.yul\":29858:29989   */\n      tag_424\n      jump\t// in\n    tag_701:\n        /* \"#utility.yul\":29850:29989   */\n      swap1\n      pop\n        /* \"#utility.yul\":29577:29996   */\n      swap2\n      swap1\n      pop\n      jump\t// out\n        /* \"#utility.yul\":30002:30169   */\n    tag_425:\n        /* \"#utility.yul\":30142:30161   */\n      0x616d6f756e74412062656c6f77206d696e000000000000000000000000000000\n        /* \"#utility.yul\":30138:30139   */\n      0x00\n        /* \"#utility.yul\":30130:30136   */\n      dup3\n        /* \"#utility.yul\":30126:30140   */\n      add\n        /* \"#utility.yul\":30119:30162   */\n      mstore\n        /* \"#utility.yul\":30002:30169   */\n      pop\n      jump\t// out\n        /* \"#utility.yul\":30175:30541   */\n    tag_426:\n        /* \"#utility.yul\":30317:30320   */\n      0x00\n        /* \"#utility.yul\":30338:30405   */\n      tag_704\n        /* \"#utility.yul\":30402:30404   */\n      0x11\n        /* \"#utility.yul\":30397:30400   */\n      dup4\n        /* \"#utility.yul\":30338:30405   */\n      tag_367\n      jump\t// in\n    tag_704:\n        /* \"#utility.yul\":30331:30405   */\n      swap2\n      pop\n        /* \"#utility.yul\":30414:30507   */\n      tag_705\n        /* \"#utility.yul\":30503:30506   */\n      dup3\n        /* \"#utility.yul\":30414:30507   */\n      tag_425\n      jump\t// in\n    tag_705:\n        /* \"#utility.yul\":30532:30534   */\n      0x20\n        /* \"#utility.yul\":30527:30530   */\n      dup3\n        /* \"#utility.yul\":30523:30535   */\n      add\n        /* \"#utility.yul\":30516:30535   */\n      swap1\n      pop\n        /* \"#utility.yul\":30175:30541   */\n      swap2\n      swap1\n      pop\n      jump\t// out\n        /* \"#utility.yul\":30547:30966   */\n    tag_233:\n        /* \"#utility.yul\":30713:30717   */\n      0x00\n        /* \"#utility.yul\":30751:30753   */\n      0x20\n        /* \"#utility.yul\":30740:30749   */\n      dup3\n        /* \"#utility.yul\":30736:30754   */\n      add\n        /* \"#utility.yul\":30728:30754   */\n      swap1\n      pop\n        /* \"#utility.yul\":30800:30809   */\n      dup2\n        /* \"#utility.yul\":30794:30798   */\n      dup2\n        /* \"#utility.yul\":30790:30810   */\n      sub\n        /* \"#utility.yul\":30786:30787   */\n      0x00\n        /* \"#utility.yul\":30775:30784   */\n      dup4\n        /* \"#utility.yul\":30771:30788   */\n      add\n        /* \"#utility.yul\":30764:30811   */\n      mstore\n        /* \"#utility.yul\":30828:30959   */\n      tag_707\n        /* \"#utility.yul\":30954:30958   */\n      dup2\n        /* \"#utility.yul\":30828:30959   */\n      tag_426\n      jump\t// in\n    tag_707:\n        /* \"#utility.yul\":30820:30959   */\n      swap1\n      pop\n        /* \"#utility.yul\":30547:30966   */\n      swap2\n      swap1\n      pop\n      jump\t// out\n        /* \"#utility.yul\":30972:31139   */\n    tag_427:\n        /* \"#utility.yul\":31112:31131   */\n      0x616d6f756e74422062656c6f77206d696e000000000000000000000000000000\n        /* \"#utility.yul\":31108:31109   */\n      0x00\n        /* \"#utility.yul\":31100:31106   */\n      dup3\n        /* \"#utility.yul\":31096:31110   */\n      add\n        /* \"#utility.yul\":31089:31132   */\n      mstore\n        /* \"#utility.yul\":30972:31139   */\n      pop\n      jump\t// out\n        /* \"#utility.yul\":31145:31511   */\n    tag_428:\n        /* \"#utility.yul\":31287:31290   */\n      0x00\n        /* \"#utility.yul\":31308:31375   */\n      tag_710\n        /* \"#utility.yul\":31372:31374   */\n      0x11\n        /* \"#utility.yul\":31367:31370   */\n      dup4\n        /* \"#utility.yul\":31308:31375   */\n      tag_367\n      jump\t// in\n    tag_710:\n        /* \"#utility.yul\":31301:31375   */\n      swap2\n      pop\n        /* \"#utility.yul\":31384:31477   */\n      tag_711\n        /* \"#utility.yul\":31473:31476   */\n      dup3\n        /* \"#utility.yul\":31384:31477   */\n      tag_427\n      jump\t// in\n    tag_711:\n        /* \"#utility.yul\":31502:31504   */\n      0x20\n        /* \"#utility.yul\":31497:31500   */\n      dup3\n        /* \"#utility.yul\":31493:31505   */\n      add\n        /* \"#utility.yul\":31486:31505   */\n      swap1\n      pop\n        /* \"#utility.yul\":31145:31511   */\n      swap2\n      swap1\n      pop\n      jump\t// out\n        /* \"#utility.yul\":31517:31936   */\n    tag_236:\n        /* \"#utility.yul\":31683:31687   */\n      0x00\n        /* \"#utility.yul\":31721:31723   */\n      0x20\n        /* \"#utility.yul\":31710:31719   */\n      dup3\n        /* \"#utility.yul\":31706:31724   */\n      add\n        /* \"#utility.yul\":31698:31724   */\n      swap1\n      pop\n        /* \"#utility.yul\":31770:31779   */\n      dup2\n        /* \"#utility.yul\":31764:31768   */\n      dup2\n        /* \"#utility.yul\":31760:31780   */\n      sub\n        /* \"#utility.yul\":31756:31757   */\n      0x00\n        /* \"#utility.yul\":31745:31754   */\n      dup4\n        /* \"#utility.yul\":31741:31758   */\n      add\n        /* \"#utility.yul\":31734:31781   */\n      mstore\n        /* \"#utility.yul\":31798:31929   */\n      tag_713\n        /* \"#utility.yul\":31924:31928   */\n      dup2\n        /* \"#utility.yul\":31798:31929   */\n      tag_428\n      jump\t// in\n    tag_713:\n        /* \"#utility.yul\":31790:31929   */\n      swap1\n      pop\n        /* \"#utility.yul\":31517:31936   */\n      swap2\n      swap1\n      pop\n      jump\t// out\n        /* \"#utility.yul\":31942:32384   */\n    tag_295:\n        /* \"#utility.yul\":32091:32095   */\n      0x00\n        /* \"#utility.yul\":32129:32131   */\n      0x60\n        /* \"#utility.yul\":32118:32127   */\n      dup3\n        /* \"#utility.yul\":32114:32132   */\n      add\n        /* \"#utility.yul\":32106:32132   */\n      swap1\n      pop\n        /* \"#utility.yul\":32142:32213   */\n      tag_715\n        /* \"#utility.yul\":32210:32211   */\n      0x00\n        /* \"#utility.yul\":32199:32208   */\n      dup4\n        /* \"#utility.yul\":32195:32212   */\n      add\n        /* \"#utility.yul\":32186:32192   */\n      dup7\n        /* \"#utility.yul\":32142:32213   */\n      tag_412\n      jump\t// in\n    tag_715:\n        /* \"#utility.yul\":32223:32295   */\n      tag_716\n        /* \"#utility.yul\":32291:32293   */\n      0x20\n        /* \"#utility.yul\":32280:32289   */\n      dup4\n        /* \"#utility.yul\":32276:32294   */\n      add\n        /* \"#utility.yul\":32267:32273   */\n      dup6\n        /* \"#utility.yul\":32223:32295   */\n      tag_365\n      jump\t// in\n    tag_716:\n        /* \"#utility.yul\":32305:32377   */\n      tag_717\n        /* \"#utility.yul\":32373:32375   */\n      0x40\n        /* \"#utility.yul\":32362:32371   */\n      dup4\n        /* \"#utility.yul\":32358:32376   */\n      add\n        /* \"#utility.yul\":32349:32355   */\n      dup5\n        /* \"#utility.yul\":32305:32377   */\n      tag_365\n      jump\t// in\n    tag_717:\n        /* \"#utility.yul\":31942:32384   */\n      swap5\n      swap4\n      pop\n      pop\n      pop\n      pop\n      jump\t// out\n        /* \"#utility.yul\":32390:32612   */\n    tag_300:\n        /* \"#utility.yul\":32483:32487   */\n      0x00\n        /* \"#utility.yul\":32521:32523   */\n      0x20\n        /* \"#utility.yul\":32510:32519   */\n      dup3\n        /* \"#utility.yul\":32506:32524   */\n      add\n        /* \"#utility.yul\":32498:32524   */\n      swap1\n      pop\n        /* \"#utility.yul\":32534:32605   */\n      tag_719\n        /* \"#utility.yul\":32602:32603   */\n      0x00\n        /* \"#utility.yul\":32591:32600   */\n      dup4\n        /* \"#utility.yul\":32587:32604   */\n      add\n        /* \"#utility.yul\":32578:32584   */\n      dup5\n        /* \"#utility.yul\":32534:32605   */\n      tag_412\n      jump\t// in\n    tag_719:\n        /* \"#utility.yul\":32390:32612   */\n      swap3\n      swap2\n      pop\n      pop\n      jump\t// out\n        /* \"#utility.yul\":32618:32783   */\n    tag_429:\n        /* \"#utility.yul\":32758:32775   */\n      0x616d6f756e744220746f6f206c6f770000000000000000000000000000000000\n        /* \"#utility.yul\":32754:32755   */\n      0x00\n        /* \"#utility.yul\":32746:32752   */\n      dup3\n        /* \"#utility.yul\":32742:32756   */\n      add\n        /* \"#utility.yul\":32735:32776   */\n      mstore\n        /* \"#utility.yul\":32618:32783   */\n      pop\n      jump\t// out\n        /* \"#utility.yul\":32789:33155   */\n    tag_430:\n        /* \"#utility.yul\":32931:32934   */\n      0x00\n        /* \"#utility.yul\":32952:33019   */\n      tag_722\n        /* \"#utility.yul\":33016:33018   */\n      0x0f\n        /* \"#utility.yul\":33011:33014   */\n      dup4\n        /* \"#utility.yul\":32952:33019   */\n      tag_367\n      jump\t// in\n    tag_722:\n        /* \"#utility.yul\":32945:33019   */\n      swap2\n      pop\n        /* \"#utility.yul\":33028:33121   */\n      tag_723\n        /* \"#utility.yul\":33117:33120   */\n      dup3\n        /* \"#utility.yul\":33028:33121   */\n      tag_429\n      jump\t// in\n    tag_723:\n        /* \"#utility.yul\":33146:33148   */\n      0x20\n        /* \"#utility.yul\":33141:33144   */\n      dup3\n        /* \"#utility.yul\":33137:33149   */\n      add\n        /* \"#utility.yul\":33130:33149   */\n      swap1\n      pop\n        /* \"#utility.yul\":32789:33155   */\n      swap2\n      swap1\n      pop\n      jump\t// out\n        /* \"#utility.yul\":33161:33580   */\n    tag_318:\n        /* \"#utility.yul\":33327:33331   */\n      0x00\n        /* \"#utility.yul\":33365:33367   */\n      0x20\n        /* \"#utility.yul\":33354:33363   */\n      dup3\n        /* \"#utility.yul\":33350:33368   */\n      add\n        /* \"#utility.yul\":33342:33368   */\n      swap1\n      pop\n        /* \"#utility.yul\":33414:33423   */\n      dup2\n        /* \"#utility.yul\":33408:33412   */\n      dup2\n        /* \"#utility.yul\":33404:33424   */\n      sub\n        /* \"#utility.yul\":33400:33401   */\n      0x00\n        /* \"#utility.yul\":33389:33398   */\n      dup4\n        /* \"#utility.yul\":33385:33402   */\n      add\n        /* \"#utility.yul\":33378:33425   */\n      mstore\n        /* \"#utility.yul\":33442:33573   */\n      tag_725\n        /* \"#utility.yul\":33568:33572   */\n      dup2\n        /* \"#utility.yul\":33442:33573   */\n      tag_430\n      jump\t// in\n    tag_725:\n        /* \"#utility.yul\":33434:33573   */\n      swap1\n      pop\n        /* \"#utility.yul\":33161:33580   */\n      swap2\n      swap1\n      pop\n      jump\t// out\n        /* \"#utility.yul\":33586:33751   */\n    tag_431:\n        /* \"#utility.yul\":33726:33743   */\n      0x616d6f756e744120746f6f206c6f770000000000000000000000000000000000\n        /* \"#utility.yul\":33722:33723   */\n      0x00\n        /* \"#utility.yul\":33714:33720   */\n      dup3\n        /* \"#utility.yul\":33710:33724   */\n      add\n        /* \"#utility.yul\":33703:33744   */\n      mstore\n        /* \"#utility.yul\":33586:33751   */\n      pop\n      jump\t// out\n        /* \"#utility.yul\":33757:34123   */\n    tag_432:\n        /* \"#utility.yul\":33899:33902   */\n      0x00\n        /* \"#utility.yul\":33920:33987   */\n      tag_728\n        /* \"#utility.yul\":33984:33986   */\n      0x0f\n        /* \"#utility.yul\":33979:33982   */\n      dup4\n        /* \"#utility.yul\":33920:33987   */\n      tag_367\n      jump\t// in\n    tag_728:\n        /* \"#utility.yul\":33913:33987   */\n      swap2\n      pop\n        /* \"#utility.yul\":33996:34089   */\n      tag_729\n        /* \"#utility.yul\":34085:34088   */\n      dup3\n        /* \"#utility.yul\":33996:34089   */\n      tag_431\n      jump\t// in\n    tag_729:\n        /* \"#utility.yul\":34114:34116   */\n      0x20\n        /* \"#utility.yul\":34109:34112   */\n      dup3\n        /* \"#utility.yul\":34105:34117   */\n      add\n        /* \"#utility.yul\":34098:34117   */\n      swap1\n      pop\n        /* \"#utility.yul\":33757:34123   */\n      swap2\n      swap1\n      pop\n      jump\t// out\n        /* \"#utility.yul\":34129:34548   */\n    tag_324:\n        /* \"#utility.yul\":34295:34299   */\n      0x00\n        /* \"#utility.yul\":34333:34335   */\n      0x20\n        /* \"#utility.yul\":34322:34331   */\n      dup3\n        /* \"#utility.yul\":34318:34336   */\n      add\n        /* \"#utility.yul\":34310:34336   */\n      swap1\n      pop\n        /* \"#utility.yul\":34382:34391   */\n      dup2\n        /* \"#utility.yul\":34376:34380   */\n      dup2\n        /* \"#utility.yul\":34372:34392   */\n      sub\n        /* \"#utility.yul\":34368:34369   */\n      0x00\n        /* \"#utility.yul\":34357:34366   */\n      dup4\n        /* \"#utility.yul\":34353:34370   */\n      add\n        /* \"#utility.yul\":34346:34393   */\n      mstore\n        /* \"#utility.yul\":34410:34541   */\n      tag_731\n        /* \"#utility.yul\":34536:34540   */\n      dup2\n        /* \"#utility.yul\":34410:34541   */\n      tag_432\n      jump\t// in\n    tag_731:\n        /* \"#utility.yul\":34402:34541   */\n      swap1\n      pop\n        /* \"#utility.yul\":34129:34548   */\n      swap2\n      swap1\n      pop\n      jump\t// out\n\n    auxdata: 0xa2646970667358221220edf372217fe8148da4b445993ba77f039ce9c33bf45a13419eb0d5058b4234e964736f6c634300081e0033\n}\n",
				"bytecode": {
					"linkReferences": {},
					"object": "608060405234801561000f575f5ffd5b506040516132ce3803806132ce833981810160405281019061003191906101a4565b6040518060400160405280600881526020017f4c5020546f6b656e0000000000000000000000000000000000000000000000008152506040518060400160405280600381526020017f4c5054000000000000000000000000000000000000000000000000000000000081525081600390816100ac919061041f565b5080600490816100bc919061041f565b5050508160055f6101000a81548173ffffffffffffffffffffffffffffffffffffffff021916908373ffffffffffffffffffffffffffffffffffffffff1602179055508060065f6101000a81548173ffffffffffffffffffffffffffffffffffffffff021916908373ffffffffffffffffffffffffffffffffffffffff16021790555050506104ee565b5f5ffd5b5f73ffffffffffffffffffffffffffffffffffffffff82169050919050565b5f6101738261014a565b9050919050565b61018381610169565b811461018d575f5ffd5b50565b5f8151905061019e8161017a565b92915050565b5f5f604083850312156101ba576101b9610146565b5b5f6101c785828601610190565b92505060206101d885828601610190565b9150509250929050565b5f81519050919050565b7f4e487b71000000000000000000000000000000000000000000000000000000005f52604160045260245ffd5b7f4e487b71000000000000000000000000000000000000000000000000000000005f52602260045260245ffd5b5f600282049050600182168061025d57607f821691505b6020821081036102705761026f610219565b5b50919050565b5f819050815f5260205f209050919050565b5f6020601f8301049050919050565b5f82821b905092915050565b5f600883026102d27fffffffffffffffffffffffffffffffffffffffffffffffffffffffffffffffff82610297565b6102dc8683610297565b95508019841693508086168417925050509392505050565b5f819050919050565b5f819050919050565b5f61032061031b610316846102f4565b6102fd565b6102f4565b9050919050565b5f819050919050565b61033983610306565b61034d61034582610327565b8484546102a3565b825550505050565b5f5f905090565b610364610355565b61036f818484610330565b505050565b5b81811015610392576103875f8261035c565b600181019050610375565b5050565b601f8211156103d7576103a881610276565b6103b184610288565b810160208510156103c0578190505b6103d46103cc85610288565b830182610374565b50505b505050565b5f82821c905092915050565b5f6103f75f19846008026103dc565b1980831691505092915050565b5f61040f83836103e8565b9150826002028217905092915050565b610428826101e2565b67ffffffffffffffff811115610441576104406101ec565b5b61044b8254610246565b610456828285610396565b5f60209050601f831160018114610487575f8415610475578287015190505b61047f8582610404565b8655506104e6565b601f19841661049586610276565b5f5b828110156104bc57848901518255600182019150602085019450602081019050610497565b868310156104d957848901516104d5601f8916826103e8565b8355505b6001600288020188555050505b505050505050565b612dd3806104fb5f395ff3fe608060405234801561000f575f5ffd5b5060043610610114575f3560e01c80635f64b55b116100a0578063ac41865a1161006f578063ac41865a1461030a578063baa2abde1461033a578063dc5fa6c51461036b578063dd62ed3e14610389578063e8e33700146103b957610114565b80635f64b55b1461026e57806370a082311461028c57806395d89b41146102bc578063a9059cbb146102da57610114565b806318160ddd116100e757806318160ddd146101b457806319e36f3b146101d257806323b872dd146101f0578063313ce5671461022057806338ed17391461023e57610114565b8063054d50d41461011857806306fdde0314610148578063095ea7b3146101665780630fc63d1014610196575b5f5ffd5b610132600480360381019061012d9190611d7b565b6103eb565b60405161013f9190611dda565b60405180910390f35b6101506104dd565b60405161015d9190611e63565b60405180910390f35b610180600480360381019061017b9190611edd565b61056d565b60405161018d9190611f35565b60405180910390f35b61019e61058f565b6040516101ab9190611fa9565b60405180910390f35b6101bc6105b4565b6040516101c99190611dda565b60405180910390f35b6101da6105bd565b6040516101e79190611dda565b60405180910390f35b61020a60048036038101906102059190611fc2565b6105c3565b6040516102179190611f35565b60405180910390f35b6102286105f1565b604051610235919061202d565b60405180910390f35b610258600480360381019061025391906120a7565b6105f9565b60405161026591906121f4565b60405180910390f35b610276610a58565b6040516102839190611fa9565b60405180910390f35b6102a660048036038101906102a19190612214565b610a7d565b6040516102b39190611dda565b60405180910390f35b6102c4610ac2565b6040516102d19190611e63565b60405180910390f35b6102f460048036038101906102ef9190611edd565b610b52565b6040516103019190611f35565b60405180910390f35b610324600480360381019061031f919061223f565b610b74565b6040516103319190611dda565b60405180910390f35b610354600480360381019061034f919061227d565b610cd8565b60405161036292919061231a565b60405180910390f35b61037361111f565b6040516103809190611dda565b60405180910390f35b6103a3600480360381019061039e919061223f565b611125565b6040516103b09190611dda565b60405180910390f35b6103d360048036038101906103ce9190612341565b6111a7565b6040516103e2939291906123f2565b60405180910390f35b5f5f841161042e576040517f08c379a000000000000000000000000000000000000000000000000000000000815260040161042590612471565b60405180910390fd5b5f8311610470576040517f08c379a0000000000000000000000000000000000000000000000000000000008152600401610467906124d9565b60405180910390fd5b5f82116104b2576040517f08c379a00000000000000000000000000000000000000000000000000000000081526004016104a990612541565b60405180910390fd5b83836104be919061258c565b82856104ca91906125bf565b6104d4919061262d565b90509392505050565b6060600380546104ec9061268a565b80601f01602080910402602001604051908101604052809291908181526020018280546105189061268a565b80156105635780601f1061053a57610100808354040283529160200191610563565b820191905f5260205f20905b81548152906001019060200180831161054657829003601f168201915b5050505050905090565b5f5f610577611524565b905061058481858561152b565b600191505092915050565b60055f9054906101000a900473ffffffffffffffffffffffffffffffffffffffff1681565b5f600254905090565b60085481565b5f5f6105cd611524565b90506105da85828561153d565b6105e58585856115d0565b60019150509392505050565b5f6012905090565b60605f8711801561060957505f86115b610648576040517f08c379a000000000000000000000000000000000000000000000000000000000815260040161063f90612704565b60405180910390fd5b8142111561068b576040517f08c379a00000000000000000000000000000000000000000000000000000000081526004016106829061276c565b60405180910390fd5b600285859050146106d1576040517f08c379a00000000000000000000000000000000000000000000000000000000081526004016106c8906127d4565b60405180910390fd5b5f85855f8181106106e5576106e46127f2565b5b90506020020160208101906106fa9190612214565b90505f86866001818110610711576107106127f2565b5b90506020020160208101906107269190612214565b905060055f9054906101000a900473ffffffffffffffffffffffffffffffffffffffff1673ffffffffffffffffffffffffffffffffffffffff168273ffffffffffffffffffffffffffffffffffffffff161480156107d0575060065f9054906101000a900473ffffffffffffffffffffffffffffffffffffffff1673ffffffffffffffffffffffffffffffffffffffff168173ffffffffffffffffffffffffffffffffffffffff16145b61080f576040517f08c379a000000000000000000000000000000000000000000000000000000000815260040161080690612869565b60405180910390fd5b5f8290505f8290505f60075490505f60085490505f8d90508473ffffffffffffffffffffffffffffffffffffffff166323b872dd3330846040518463ffffffff1660e01b815260040161086493929190612896565b6020604051808303815f875af1158015610880573d5f5f3e3d5ffd5b505050506040513d601f19601f820116820180604052508101906108a491906128f5565b505f81846108b2919061258c565b83836108be91906125bf565b6108c8919061262d565b90508d81101561090d576040517f08c379a00000000000000000000000000000000000000000000000000000000081526004016109049061296a565b60405180910390fd5b8473ffffffffffffffffffffffffffffffffffffffff1663a9059cbb8c836040518363ffffffff1660e01b8152600401610948929190612988565b6020604051808303815f875af1158015610964573d5f5f3e3d5ffd5b505050506040513d601f19601f8201168201806040525081019061098891906128f5565b508e60075f82825461099a919061258c565b925050819055508060085f8282546109b291906129af565b92505081905550600267ffffffffffffffff8111156109d4576109d36129e2565b5b604051908082528060200260200182016040528015610a025781602001602082028036833780820191505090505b5098508e895f81518110610a1957610a186127f2565b5b6020026020010181815250508089600181518110610a3a57610a396127f2565b5b60200260200101818152505050505050505050509695505050505050565b60065f9054906101000a900473ffffffffffffffffffffffffffffffffffffffff1681565b5f5f5f8373ffffffffffffffffffffffffffffffffffffffff1673ffffffffffffffffffffffffffffffffffffffff1681526020019081526020015f20549050919050565b606060048054610ad19061268a565b80601f0160208091040260200160405190810160405280929190818152602001828054610afd9061268a565b8015610b485780601f10610b1f57610100808354040283529160200191610b48565b820191905f5260205f20905b815481529060010190602001808311610b2b57829003601f168201915b5050505050905090565b5f5f610b5c611524565b9050610b698185856115d0565b600191505092915050565b5f60055f9054906101000a900473ffffffffffffffffffffffffffffffffffffffff1673ffffffffffffffffffffffffffffffffffffffff168373ffffffffffffffffffffffffffffffffffffffff16148015610c1d575060065f9054906101000a900473ffffffffffffffffffffffffffffffffffffffff1673ffffffffffffffffffffffffffffffffffffffff168273ffffffffffffffffffffffffffffffffffffffff16145b610c5c576040517f08c379a0000000000000000000000000000000000000000000000000000000008152600401610c5390612869565b60405180910390fd5b5f600754118015610c6e57505f600854115b610cad576040517f08c379a0000000000000000000000000000000000000000000000000000000008152600401610ca490612a59565b60405180910390fd5b600754670de0b6b3a7640000600854610cc691906125bf565b610cd0919061262d565b905092915050565b5f5f60055f9054906101000a900473ffffffffffffffffffffffffffffffffffffffff1673ffffffffffffffffffffffffffffffffffffffff168973ffffffffffffffffffffffffffffffffffffffff16148015610d82575060065f9054906101000a900473ffffffffffffffffffffffffffffffffffffffff1673ffffffffffffffffffffffffffffffffffffffff168873ffffffffffffffffffffffffffffffffffffffff16145b610dc1576040517f08c379a0000000000000000000000000000000000000000000000000000000008152600401610db890612869565b60405180910390fd5b82421115610e04576040517f08c379a0000000000000000000000000000000000000000000000000000000008152600401610dfb9061276c565b60405180910390fd5b5f8711610e46576040517f08c379a0000000000000000000000000000000000000000000000000000000008152600401610e3d90612ac1565b60405180910390fd5b5f8510158015610e5657505f8610155b610e95576040517f08c379a0000000000000000000000000000000000000000000000000000000008152600401610e8c90612b29565b60405180910390fd5b5f610e9e6105b4565b90505f8111610ee2576040517f08c379a0000000000000000000000000000000000000000000000000000000008152600401610ed990612b91565b60405180910390fd5b8060075489610ef191906125bf565b610efb919061262d565b92508060085489610f0c91906125bf565b610f16919061262d565b915086831015610f5b576040517f08c379a0000000000000000000000000000000000000000000000000000000008152600401610f5290612bf9565b60405180910390fd5b85821015610f9e576040517f08c379a0000000000000000000000000000000000000000000000000000000008152600401610f9590612c61565b60405180910390fd5b60055f9054906101000a900473ffffffffffffffffffffffffffffffffffffffff1673ffffffffffffffffffffffffffffffffffffffff1663a9059cbb86856040518363ffffffff1660e01b8152600401610ffa929190612988565b6020604051808303815f875af1158015611016573d5f5f3e3d5ffd5b505050506040513d601f19601f8201168201806040525081019061103a91906128f5565b5060065f9054906101000a900473ffffffffffffffffffffffffffffffffffffffff1673ffffffffffffffffffffffffffffffffffffffff1663a9059cbb86846040518363ffffffff1660e01b8152600401611097929190612988565b6020604051808303815f875af11580156110b3573d5f5f3e3d5ffd5b505050506040513d601f19601f820116820180604052508101906110d791906128f5565b506110e285896116c0565b8260075f8282546110f391906129af565b925050819055508160085f82825461110b91906129af565b925050819055505097509795505050505050565b60075481565b5f60015f8473ffffffffffffffffffffffffffffffffffffffff1673ffffffffffffffffffffffffffffffffffffffff1681526020019081526020015f205f8373ffffffffffffffffffffffffffffffffffffffff1673ffffffffffffffffffffffffffffffffffffffff1681526020019081526020015f2054905092915050565b5f5f5f834211156111ed576040517f08c379a00000000000000000000000000000000000000000000000000000000081526004016111e49061276c565b60405180910390fd5b60055f9054906101000a900473ffffffffffffffffffffffffffffffffffffffff1673ffffffffffffffffffffffffffffffffffffffff168b73ffffffffffffffffffffffffffffffffffffffff16148015611295575060065f9054906101000a900473ffffffffffffffffffffffffffffffffffffffff1673ffffffffffffffffffffffffffffffffffffffff168a73ffffffffffffffffffffffffffffffffffffffff16145b6112d4576040517f08c379a00000000000000000000000000000000000000000000000000000000081526004016112cb90612869565b60405180910390fd5b6112e08989898961173f565b809350819450505060055f9054906101000a900473ffffffffffffffffffffffffffffffffffffffff1673ffffffffffffffffffffffffffffffffffffffff166323b872dd3330866040518463ffffffff1660e01b815260040161134693929190612896565b6020604051808303815f875af1158015611362573d5f5f3e3d5ffd5b505050506040513d601f19601f8201168201806040525081019061138691906128f5565b5060065f9054906101000a900473ffffffffffffffffffffffffffffffffffffffff1673ffffffffffffffffffffffffffffffffffffffff166323b872dd3330856040518463ffffffff1660e01b81526004016113e593929190612896565b6020604051808303815f875af1158015611401573d5f5f3e3d5ffd5b505050506040513d601f19601f8201168201806040525081019061142591906128f5565b505f61142f6105b4565b0361144f57611448828461144391906125bf565b61184a565b905061149a565b61149760075461145d6105b4565b8561146891906125bf565b611472919061262d565b60085461147d6105b4565b8561148891906125bf565b611492919061262d565b6118c1565b90505b5f81116114dc576040517f08c379a00000000000000000000000000000000000000000000000000000000081526004016114d390612ac1565b60405180910390fd5b6114e685826118d9565b8260075f8282546114f7919061258c565b925050819055508160085f82825461150f919061258c565b92505081905550985098509895505050505050565b5f33905090565b6115388383836001611958565b505050565b5f6115488484611125565b90507fffffffffffffffffffffffffffffffffffffffffffffffffffffffffffffffff8110156115ca57818110156115bb578281836040517ffb8f41b20000000000000000000000000000000000000000000000000000000081526004016115b293929190612c7f565b60405180910390fd5b6115c984848484035f611958565b5b50505050565b5f73ffffffffffffffffffffffffffffffffffffffff168373ffffffffffffffffffffffffffffffffffffffff1603611640575f6040517f96c6fd1e0000000000000000000000000000000000000000000000000000000081526004016116379190612cb4565b60405180910390fd5b5f73ffffffffffffffffffffffffffffffffffffffff168273ffffffffffffffffffffffffffffffffffffffff16036116b0575f6040517fec442f050000000000000000000000000000000000000000000000000000000081526004016116a79190612cb4565b60405180910390fd5b6116bb838383611b27565b505050565b5f73ffffffffffffffffffffffffffffffffffffffff168273ffffffffffffffffffffffffffffffffffffffff1603611730575f6040517f96c6fd1e0000000000000000000000000000000000000000000000000000000081526004016117279190612cb4565b60405180910390fd5b61173b825f83611b27565b5050565b5f5f5f60075414801561175357505f600854145b1561176357859150849050611841565b5f6007546008548861177591906125bf565b61177f919061262d565b90508581116117d657838110156117cb576040517f08c379a00000000000000000000000000000000000000000000000000000000081526004016117c290612d17565b60405180910390fd5b86925080915061183f565b5f600854600754886117e891906125bf565b6117f2919061262d565b905085811015611837576040517f08c379a000000000000000000000000000000000000000000000000000000000815260040161182e90612d7f565b60405180910390fd5b809350869250505b505b94509492505050565b5f60038211156118af578190505f6001600284611867919061262d565b611871919061258c565b90505b818110156118a957809150600281828561188e919061262d565b611898919061258c565b6118a2919061262d565b9050611874565b506118bc565b5f82146118bb57600190505b5b919050565b5f8183106118cf57816118d1565b825b905092915050565b5f73ffffffffffffffffffffffffffffffffffffffff168273ffffffffffffffffffffffffffffffffffffffff1603611949575f6040517fec442f050000000000000000000000000000000000000000000000000000000081526004016119409190612cb4565b60405180910390fd5b6119545f8383611b27565b5050565b5f73ffffffffffffffffffffffffffffffffffffffff168473ffffffffffffffffffffffffffffffffffffffff16036119c8575f6040517fe602df050000000000000000000000000000000000000000000000000000000081526004016119bf9190612cb4565b60405180910390fd5b5f73ffffffffffffffffffffffffffffffffffffffff168373ffffffffffffffffffffffffffffffffffffffff1603611a38575f6040517f94280d62000000000000000000000000000000000000000000000000000000008152600401611a2f9190612cb4565b60405180910390fd5b8160015f8673ffffffffffffffffffffffffffffffffffffffff1673ffffffffffffffffffffffffffffffffffffffff1681526020019081526020015f205f8573ffffffffffffffffffffffffffffffffffffffff1673ffffffffffffffffffffffffffffffffffffffff1681526020019081526020015f20819055508015611b21578273ffffffffffffffffffffffffffffffffffffffff168473ffffffffffffffffffffffffffffffffffffffff167f8c5be1e5ebec7d5bd14f71427d1e84f3dd0314c0f7b2291e5b200ac8c7c3b92584604051611b189190611dda565b60405180910390a35b50505050565b5f73ffffffffffffffffffffffffffffffffffffffff168373ffffffffffffffffffffffffffffffffffffffff1603611b77578060025f828254611b6b919061258c565b92505081905550611c45565b5f5f5f8573ffffffffffffffffffffffffffffffffffffffff1673ffffffffffffffffffffffffffffffffffffffff1681526020019081526020015f2054905081811015611c00578381836040517fe450d38c000000000000000000000000000000000000000000000000000000008152600401611bf793929190612c7f565b60405180910390fd5b8181035f5f8673ffffffffffffffffffffffffffffffffffffffff1673ffffffffffffffffffffffffffffffffffffffff1681526020019081526020015f2081905550505b5f73ffffffffffffffffffffffffffffffffffffffff168273ffffffffffffffffffffffffffffffffffffffff1603611c8c578060025f8282540392505081905550611cd6565b805f5f8473ffffffffffffffffffffffffffffffffffffffff1673ffffffffffffffffffffffffffffffffffffffff1681526020019081526020015f205f82825401925050819055505b8173ffffffffffffffffffffffffffffffffffffffff168373ffffffffffffffffffffffffffffffffffffffff167fddf252ad1be2c89b69c2b068fc378daa952ba7f163c4a11628f55a4df523b3ef83604051611d339190611dda565b60405180910390a3505050565b5f5ffd5b5f5ffd5b5f819050919050565b611d5a81611d48565b8114611d64575f5ffd5b50565b5f81359050611d7581611d51565b92915050565b5f5f5f60608486031215611d9257611d91611d40565b5b5f611d9f86828701611d67565b9350506020611db086828701611d67565b9250506040611dc186828701611d67565b9150509250925092565b611dd481611d48565b82525050565b5f602082019050611ded5f830184611dcb565b92915050565b5f81519050919050565b5f82825260208201905092915050565b8281835e5f83830152505050565b5f601f19601f8301169050919050565b5f611e3582611df3565b611e3f8185611dfd565b9350611e4f818560208601611e0d565b611e5881611e1b565b840191505092915050565b5f6020820190508181035f830152611e7b8184611e2b565b905092915050565b5f73ffffffffffffffffffffffffffffffffffffffff82169050919050565b5f611eac82611e83565b9050919050565b611ebc81611ea2565b8114611ec6575f5ffd5b50565b5f81359050611ed781611eb3565b92915050565b5f5f60408385031215611ef357611ef2611d40565b5b5f611f0085828601611ec9565b9250506020611f1185828601611d67565b9150509250929050565b5f8115159050919050565b611f2f81611f1b565b82525050565b5f602082019050611f485f830184611f26565b92915050565b5f819050919050565b5f611f71611f6c611f6784611e83565b611f4e565b611e83565b9050919050565b5f611f8282611f57565b9050919050565b5f611f9382611f78565b9050919050565b611fa381611f89565b82525050565b5f602082019050611fbc5f830184611f9a565b92915050565b5f5f5f60608486031215611fd957611fd8611d40565b5b5f611fe686828701611ec9565b9350506020611ff786828701611ec9565b925050604061200886828701611d67565b9150509250925092565b5f60ff82169050919050565b61202781612012565b82525050565b5f6020820190506120405f83018461201e565b92915050565b5f5ffd5b5f5ffd5b5f5ffd5b5f5f83601f84011261206757612066612046565b5b8235905067ffffffffffffffff8111156120845761208361204a565b5b6020830191508360208202830111156120a05761209f61204e565b5b9250929050565b5f5f5f5f5f5f60a087890312156120c1576120c0611d40565b5b5f6120ce89828a01611d67565b96505060206120df89828a01611d67565b955050604087013567ffffffffffffffff811115612100576120ff611d44565b5b61210c89828a01612052565b9450945050606061211f89828a01611ec9565b925050608061213089828a01611d67565b9150509295509295509295565b5f81519050919050565b5f82825260208201905092915050565b5f819050602082019050919050565b61216f81611d48565b82525050565b5f6121808383612166565b60208301905092915050565b5f602082019050919050565b5f6121a28261213d565b6121ac8185612147565b93506121b783612157565b805f5b838110156121e75781516121ce8882612175565b97506121d98361218c565b9250506001810190506121ba565b5085935050505092915050565b5f6020820190508181035f83015261220c8184612198565b905092915050565b5f6020828403121561222957612228611d40565b5b5f61223684828501611ec9565b91505092915050565b5f5f6040838503121561225557612254611d40565b5b5f61226285828601611ec9565b925050602061227385828601611ec9565b9150509250929050565b5f5f5f5f5f5f5f60e0888a03121561229857612297611d40565b5b5f6122a58a828b01611ec9565b97505060206122b68a828b01611ec9565b96505060406122c78a828b01611d67565b95505060606122d88a828b01611d67565b94505060806122e98a828b01611d67565b93505060a06122fa8a828b01611ec9565b92505060c061230b8a828b01611d67565b91505092959891949750929550565b5f60408201905061232d5f830185611dcb565b61233a6020830184611dcb565b9392505050565b5f5f5f5f5f5f5f5f610100898b03121561235e5761235d611d40565b5b5f61236b8b828c01611ec9565b985050602061237c8b828c01611ec9565b975050604061238d8b828c01611d67565b965050606061239e8b828c01611d67565b95505060806123af8b828c01611d67565b94505060a06123c08b828c01611d67565b93505060c06123d18b828c01611ec9565b92505060e06123e28b828c01611d67565b9150509295985092959890939650565b5f6060820190506124055f830186611dcb565b6124126020830185611dcb565b61241f6040830184611dcb565b949350505050565b7f496e76616c696420616d6f756e74496e000000000000000000000000000000005f82015250565b5f61245b601083611dfd565b915061246682612427565b602082019050919050565b5f6020820190508181035f8301526124888161244f565b9050919050565b7f496e76616c69642072657365727665496e0000000000000000000000000000005f82015250565b5f6124c3601183611dfd565b91506124ce8261248f565b602082019050919050565b5f6020820190508181035f8301526124f0816124b7565b9050919050565b7f496e76616c696420726573657276654f757400000000000000000000000000005f82015250565b5f61252b601283611dfd565b9150612536826124f7565b602082019050919050565b5f6020820190508181035f8301526125588161251f565b9050919050565b7f4e487b71000000000000000000000000000000000000000000000000000000005f52601160045260245ffd5b5f61259682611d48565b91506125a183611d48565b92508282019050808211156125b9576125b861255f565b5b92915050565b5f6125c982611d48565b91506125d483611d48565b92508282026125e281611d48565b915082820484148315176125f9576125f861255f565b5b5092915050565b7f4e487b71000000000000000000000000000000000000000000000000000000005f52601260045260245ffd5b5f61263782611d48565b915061264283611d48565b92508261265257612651612600565b5b828204905092915050565b7f4e487b71000000000000000000000000000000000000000000000000000000005f52602260045260245ffd5b5f60028204905060018216806126a157607f821691505b6020821081036126b4576126b361265d565b5b50919050565b7f496e76616c696420616d6f756e747300000000000000000000000000000000005f82015250565b5f6126ee600f83611dfd565b91506126f9826126ba565b602082019050919050565b5f6020820190508181035f83015261271b816126e2565b9050919050565b7f5472616e73616374696f6e2065787069726564000000000000000000000000005f82015250565b5f612756601383611dfd565b915061276182612722565b602082019050919050565b5f6020820190508181035f8301526127838161274a565b9050919050565b7f496e76616c696420746f6b656e7320636f756e740000000000000000000000005f82015250565b5f6127be601483611dfd565b91506127c98261278a565b602082019050919050565b5f6020820190508181035f8301526127eb816127b2565b9050919050565b7f4e487b71000000000000000000000000000000000000000000000000000000005f52603260045260245ffd5b7f496e76616c696420746f6b656e730000000000000000000000000000000000005f82015250565b5f612853600e83611dfd565b915061285e8261281f565b602082019050919050565b5f6020820190508181035f83015261288081612847565b9050919050565b61289081611ea2565b82525050565b5f6060820190506128a95f830186612887565b6128b66020830185612887565b6128c36040830184611dcb565b949350505050565b6128d481611f1b565b81146128de575f5ffd5b50565b5f815190506128ef816128cb565b92915050565b5f6020828403121561290a57612909611d40565b5b5f612917848285016128e1565b91505092915050565b7f496e73756666696369656e74206f757470757420616d6f756e740000000000005f82015250565b5f612954601a83611dfd565b915061295f82612920565b602082019050919050565b5f6020820190508181035f83015261298181612948565b9050919050565b5f60408201905061299b5f830185612887565b6129a86020830184611dcb565b9392505050565b5f6129b982611d48565b91506129c483611d48565b92508282039050818111156129dc576129db61255f565b5b92915050565b7f4e487b71000000000000000000000000000000000000000000000000000000005f52604160045260245ffd5b7f496e76616c6964207265736572766573000000000000000000000000000000005f82015250565b5f612a43601083611dfd565b9150612a4e82612a0f565b602082019050919050565b5f6020820190508181035f830152612a7081612a37565b9050919050565b7f496e76616c6964206c69717569646974790000000000000000000000000000005f82015250565b5f612aab601183611dfd565b9150612ab682612a77565b602082019050919050565b5f6020820190508181035f830152612ad881612a9f565b9050919050565b7f496e76616c696420616d6f756e7473206d696e000000000000000000000000005f82015250565b5f612b13601383611dfd565b9150612b1e82612adf565b602082019050919050565b5f6020820190508181035f830152612b4081612b07565b9050919050565b7f496e76616c696420737570706c790000000000000000000000000000000000005f82015250565b5f612b7b600e83611dfd565b9150612b8682612b47565b602082019050919050565b5f6020820190508181035f830152612ba881612b6f565b9050919050565b7f616d6f756e74412062656c6f77206d696e0000000000000000000000000000005f82015250565b5f612be3601183611dfd565b9150612bee82612baf565b602082019050919050565b5f6020820190508181035f830152612c1081612bd7565b9050919050565b7f616d6f756e74422062656c6f77206d696e0000000000000000000000000000005f82015250565b5f612c4b601183611dfd565b9150612c5682612c17565b602082019050919050565b5f6020820190508181035f830152612c7881612c3f565b9050919050565b5f606082019050612c925f830186612887565b612c9f6020830185611dcb565b612cac6040830184611dcb565b949350505050565b5f602082019050612cc75f830184612887565b92915050565b7f616d6f756e744220746f6f206c6f7700000000000000000000000000000000005f82015250565b5f612d01600f83611dfd565b9150612d0c82612ccd565b602082019050919050565b5f6020820190508181035f830152612d2e81612cf5565b9050919050565b7f616d6f756e744120746f6f206c6f7700000000000000000000000000000000005f82015250565b5f612d69600f83611dfd565b9150612d7482612d35565b602082019050919050565b5f6020820190508181035f830152612d9681612d5d565b905091905056fea2646970667358221220edf372217fe8148da4b445993ba77f039ce9c33bf45a13419eb0d5058b4234e964736f6c634300081e0033",
					"opcodes": "PUSH1 0x80 PUSH1 0x40 MSTORE CALLVALUE DUP1 ISZERO PUSH2 0xF JUMPI PUSH0 PUSH0 REVERT JUMPDEST POP PUSH1 0x40 MLOAD PUSH2 0x32CE CODESIZE SUB DUP1 PUSH2 0x32CE DUP4 CODECOPY DUP2 DUP2 ADD PUSH1 0x40 MSTORE DUP2 ADD SWAP1 PUSH2 0x31 SWAP2 SWAP1 PUSH2 0x1A4 JUMP JUMPDEST PUSH1 0x40 MLOAD DUP1 PUSH1 0x40 ADD PUSH1 0x40 MSTORE DUP1 PUSH1 0x8 DUP2 MSTORE PUSH1 0x20 ADD PUSH32 0x4C5020546F6B656E000000000000000000000000000000000000000000000000 DUP2 MSTORE POP PUSH1 0x40 MLOAD DUP1 PUSH1 0x40 ADD PUSH1 0x40 MSTORE DUP1 PUSH1 0x3 DUP2 MSTORE PUSH1 0x20 ADD PUSH32 0x4C50540000000000000000000000000000000000000000000000000000000000 DUP2 MSTORE POP DUP2 PUSH1 0x3 SWAP1 DUP2 PUSH2 0xAC SWAP2 SWAP1 PUSH2 0x41F JUMP JUMPDEST POP DUP1 PUSH1 0x4 SWAP1 DUP2 PUSH2 0xBC SWAP2 SWAP1 PUSH2 0x41F JUMP JUMPDEST POP POP POP DUP2 PUSH1 0x5 PUSH0 PUSH2 0x100 EXP DUP2 SLOAD DUP2 PUSH20 0xFFFFFFFFFFFFFFFFFFFFFFFFFFFFFFFFFFFFFFFF MUL NOT AND SWAP1 DUP4 PUSH20 0xFFFFFFFFFFFFFFFFFFFFFFFFFFFFFFFFFFFFFFFF AND MUL OR SWAP1 SSTORE POP DUP1 PUSH1 0x6 PUSH0 PUSH2 0x100 EXP DUP2 SLOAD DUP2 PUSH20 0xFFFFFFFFFFFFFFFFFFFFFFFFFFFFFFFFFFFFFFFF MUL NOT AND SWAP1 DUP4 PUSH20 0xFFFFFFFFFFFFFFFFFFFFFFFFFFFFFFFFFFFFFFFF AND MUL OR SWAP1 SSTORE POP POP POP PUSH2 0x4EE JUMP JUMPDEST PUSH0 PUSH0 REVERT JUMPDEST PUSH0 PUSH20 0xFFFFFFFFFFFFFFFFFFFFFFFFFFFFFFFFFFFFFFFF DUP3 AND SWAP1 POP SWAP2 SWAP1 POP JUMP JUMPDEST PUSH0 PUSH2 0x173 DUP3 PUSH2 0x14A JUMP JUMPDEST SWAP1 POP SWAP2 SWAP1 POP JUMP JUMPDEST PUSH2 0x183 DUP2 PUSH2 0x169 JUMP JUMPDEST DUP2 EQ PUSH2 0x18D JUMPI PUSH0 PUSH0 REVERT JUMPDEST POP JUMP JUMPDEST PUSH0 DUP2 MLOAD SWAP1 POP PUSH2 0x19E DUP2 PUSH2 0x17A JUMP JUMPDEST SWAP3 SWAP2 POP POP JUMP JUMPDEST PUSH0 PUSH0 PUSH1 0x40 DUP4 DUP6 SUB SLT ISZERO PUSH2 0x1BA JUMPI PUSH2 0x1B9 PUSH2 0x146 JUMP JUMPDEST JUMPDEST PUSH0 PUSH2 0x1C7 DUP6 DUP3 DUP7 ADD PUSH2 0x190 JUMP JUMPDEST SWAP3 POP POP PUSH1 0x20 PUSH2 0x1D8 DUP6 DUP3 DUP7 ADD PUSH2 0x190 JUMP JUMPDEST SWAP2 POP POP SWAP3 POP SWAP3 SWAP1 POP JUMP JUMPDEST PUSH0 DUP2 MLOAD SWAP1 POP SWAP2 SWAP1 POP JUMP JUMPDEST PUSH32 0x4E487B7100000000000000000000000000000000000000000000000000000000 PUSH0 MSTORE PUSH1 0x41 PUSH1 0x4 MSTORE PUSH1 0x24 PUSH0 REVERT JUMPDEST PUSH32 0x4E487B7100000000000000000000000000000000000000000000000000000000 PUSH0 MSTORE PUSH1 0x22 PUSH1 0x4 MSTORE PUSH1 0x24 PUSH0 REVERT JUMPDEST PUSH0 PUSH1 0x2 DUP3 DIV SWAP1 POP PUSH1 0x1 DUP3 AND DUP1 PUSH2 0x25D JUMPI PUSH1 0x7F DUP3 AND SWAP2 POP JUMPDEST PUSH1 0x20 DUP3 LT DUP2 SUB PUSH2 0x270 JUMPI PUSH2 0x26F PUSH2 0x219 JUMP JUMPDEST JUMPDEST POP SWAP2 SWAP1 POP JUMP JUMPDEST PUSH0 DUP2 SWAP1 POP DUP2 PUSH0 MSTORE PUSH1 0x20 PUSH0 KECCAK256 SWAP1 POP SWAP2 SWAP1 POP JUMP JUMPDEST PUSH0 PUSH1 0x20 PUSH1 0x1F DUP4 ADD DIV SWAP1 POP SWAP2 SWAP1 POP JUMP JUMPDEST PUSH0 DUP3 DUP3 SHL SWAP1 POP SWAP3 SWAP2 POP POP JUMP JUMPDEST PUSH0 PUSH1 0x8 DUP4 MUL PUSH2 0x2D2 PUSH32 0xFFFFFFFFFFFFFFFFFFFFFFFFFFFFFFFFFFFFFFFFFFFFFFFFFFFFFFFFFFFFFFFF DUP3 PUSH2 0x297 JUMP JUMPDEST PUSH2 0x2DC DUP7 DUP4 PUSH2 0x297 JUMP JUMPDEST SWAP6 POP DUP1 NOT DUP5 AND SWAP4 POP DUP1 DUP7 AND DUP5 OR SWAP3 POP POP POP SWAP4 SWAP3 POP POP POP JUMP JUMPDEST PUSH0 DUP2 SWAP1 POP SWAP2 SWAP1 POP JUMP JUMPDEST PUSH0 DUP2 SWAP1 POP SWAP2 SWAP1 POP JUMP JUMPDEST PUSH0 PUSH2 0x320 PUSH2 0x31B PUSH2 0x316 DUP5 PUSH2 0x2F4 JUMP JUMPDEST PUSH2 0x2FD JUMP JUMPDEST PUSH2 0x2F4 JUMP JUMPDEST SWAP1 POP SWAP2 SWAP1 POP JUMP JUMPDEST PUSH0 DUP2 SWAP1 POP SWAP2 SWAP1 POP JUMP JUMPDEST PUSH2 0x339 DUP4 PUSH2 0x306 JUMP JUMPDEST PUSH2 0x34D PUSH2 0x345 DUP3 PUSH2 0x327 JUMP JUMPDEST DUP5 DUP5 SLOAD PUSH2 0x2A3 JUMP JUMPDEST DUP3 SSTORE POP POP POP POP JUMP JUMPDEST PUSH0 PUSH0 SWAP1 POP SWAP1 JUMP JUMPDEST PUSH2 0x364 PUSH2 0x355 JUMP JUMPDEST PUSH2 0x36F DUP2 DUP5 DUP5 PUSH2 0x330 JUMP JUMPDEST POP POP POP JUMP JUMPDEST JUMPDEST DUP2 DUP2 LT ISZERO PUSH2 0x392 JUMPI PUSH2 0x387 PUSH0 DUP3 PUSH2 0x35C JUMP JUMPDEST PUSH1 0x1 DUP2 ADD SWAP1 POP PUSH2 0x375 JUMP JUMPDEST POP POP JUMP JUMPDEST PUSH1 0x1F DUP3 GT ISZERO PUSH2 0x3D7 JUMPI PUSH2 0x3A8 DUP2 PUSH2 0x276 JUMP JUMPDEST PUSH2 0x3B1 DUP5 PUSH2 0x288 JUMP JUMPDEST DUP2 ADD PUSH1 0x20 DUP6 LT ISZERO PUSH2 0x3C0 JUMPI DUP2 SWAP1 POP JUMPDEST PUSH2 0x3D4 PUSH2 0x3CC DUP6 PUSH2 0x288 JUMP JUMPDEST DUP4 ADD DUP3 PUSH2 0x374 JUMP JUMPDEST POP POP JUMPDEST POP POP POP JUMP JUMPDEST PUSH0 DUP3 DUP3 SHR SWAP1 POP SWAP3 SWAP2 POP POP JUMP JUMPDEST PUSH0 PUSH2 0x3F7 PUSH0 NOT DUP5 PUSH1 0x8 MUL PUSH2 0x3DC JUMP JUMPDEST NOT DUP1 DUP4 AND SWAP2 POP POP SWAP3 SWAP2 POP POP JUMP JUMPDEST PUSH0 PUSH2 0x40F DUP4 DUP4 PUSH2 0x3E8 JUMP JUMPDEST SWAP2 POP DUP3 PUSH1 0x2 MUL DUP3 OR SWAP1 POP SWAP3 SWAP2 POP POP JUMP JUMPDEST PUSH2 0x428 DUP3 PUSH2 0x1E2 JUMP JUMPDEST PUSH8 0xFFFFFFFFFFFFFFFF DUP2 GT ISZERO PUSH2 0x441 JUMPI PUSH2 0x440 PUSH2 0x1EC JUMP JUMPDEST JUMPDEST PUSH2 0x44B DUP3 SLOAD PUSH2 0x246 JUMP JUMPDEST PUSH2 0x456 DUP3 DUP3 DUP6 PUSH2 0x396 JUMP JUMPDEST PUSH0 PUSH1 0x20 SWAP1 POP PUSH1 0x1F DUP4 GT PUSH1 0x1 DUP2 EQ PUSH2 0x487 JUMPI PUSH0 DUP5 ISZERO PUSH2 0x475 JUMPI DUP3 DUP8 ADD MLOAD SWAP1 POP JUMPDEST PUSH2 0x47F DUP6 DUP3 PUSH2 0x404 JUMP JUMPDEST DUP7 SSTORE POP PUSH2 0x4E6 JUMP JUMPDEST PUSH1 0x1F NOT DUP5 AND PUSH2 0x495 DUP7 PUSH2 0x276 JUMP JUMPDEST PUSH0 JUMPDEST DUP3 DUP2 LT ISZERO PUSH2 0x4BC JUMPI DUP5 DUP10 ADD MLOAD DUP3 SSTORE PUSH1 0x1 DUP3 ADD SWAP2 POP PUSH1 0x20 DUP6 ADD SWAP5 POP PUSH1 0x20 DUP2 ADD SWAP1 POP PUSH2 0x497 JUMP JUMPDEST DUP7 DUP4 LT ISZERO PUSH2 0x4D9 JUMPI DUP5 DUP10 ADD MLOAD PUSH2 0x4D5 PUSH1 0x1F DUP10 AND DUP3 PUSH2 0x3E8 JUMP JUMPDEST DUP4 SSTORE POP JUMPDEST PUSH1 0x1 PUSH1 0x2 DUP9 MUL ADD DUP9 SSTORE POP POP POP JUMPDEST POP POP POP POP POP POP JUMP JUMPDEST PUSH2 0x2DD3 DUP1 PUSH2 0x4FB PUSH0 CODECOPY PUSH0 RETURN INVALID PUSH1 0x80 PUSH1 0x40 MSTORE CALLVALUE DUP1 ISZERO PUSH2 0xF JUMPI PUSH0 PUSH0 REVERT JUMPDEST POP PUSH1 0x4 CALLDATASIZE LT PUSH2 0x114 JUMPI PUSH0 CALLDATALOAD PUSH1 0xE0 SHR DUP1 PUSH4 0x5F64B55B GT PUSH2 0xA0 JUMPI DUP1 PUSH4 0xAC41865A GT PUSH2 0x6F JUMPI DUP1 PUSH4 0xAC41865A EQ PUSH2 0x30A JUMPI DUP1 PUSH4 0xBAA2ABDE EQ PUSH2 0x33A JUMPI DUP1 PUSH4 0xDC5FA6C5 EQ PUSH2 0x36B JUMPI DUP1 PUSH4 0xDD62ED3E EQ PUSH2 0x389 JUMPI DUP1 PUSH4 0xE8E33700 EQ PUSH2 0x3B9 JUMPI PUSH2 0x114 JUMP JUMPDEST DUP1 PUSH4 0x5F64B55B EQ PUSH2 0x26E JUMPI DUP1 PUSH4 0x70A08231 EQ PUSH2 0x28C JUMPI DUP1 PUSH4 0x95D89B41 EQ PUSH2 0x2BC JUMPI DUP1 PUSH4 0xA9059CBB EQ PUSH2 0x2DA JUMPI PUSH2 0x114 JUMP JUMPDEST DUP1 PUSH4 0x18160DDD GT PUSH2 0xE7 JUMPI DUP1 PUSH4 0x18160DDD EQ PUSH2 0x1B4 JUMPI DUP1 PUSH4 0x19E36F3B EQ PUSH2 0x1D2 JUMPI DUP1 PUSH4 0x23B872DD EQ PUSH2 0x1F0 JUMPI DUP1 PUSH4 0x313CE567 EQ PUSH2 0x220 JUMPI DUP1 PUSH4 0x38ED1739 EQ PUSH2 0x23E JUMPI PUSH2 0x114 JUMP JUMPDEST DUP1 PUSH4 0x54D50D4 EQ PUSH2 0x118 JUMPI DUP1 PUSH4 0x6FDDE03 EQ PUSH2 0x148 JUMPI DUP1 PUSH4 0x95EA7B3 EQ PUSH2 0x166 JUMPI DUP1 PUSH4 0xFC63D10 EQ PUSH2 0x196 JUMPI JUMPDEST PUSH0 PUSH0 REVERT JUMPDEST PUSH2 0x132 PUSH1 0x4 DUP1 CALLDATASIZE SUB DUP2 ADD SWAP1 PUSH2 0x12D SWAP2 SWAP1 PUSH2 0x1D7B JUMP JUMPDEST PUSH2 0x3EB JUMP JUMPDEST PUSH1 0x40 MLOAD PUSH2 0x13F SWAP2 SWAP1 PUSH2 0x1DDA JUMP JUMPDEST PUSH1 0x40 MLOAD DUP1 SWAP2 SUB SWAP1 RETURN JUMPDEST PUSH2 0x150 PUSH2 0x4DD JUMP JUMPDEST PUSH1 0x40 MLOAD PUSH2 0x15D SWAP2 SWAP1 PUSH2 0x1E63 JUMP JUMPDEST PUSH1 0x40 MLOAD DUP1 SWAP2 SUB SWAP1 RETURN JUMPDEST PUSH2 0x180 PUSH1 0x4 DUP1 CALLDATASIZE SUB DUP2 ADD SWAP1 PUSH2 0x17B SWAP2 SWAP1 PUSH2 0x1EDD JUMP JUMPDEST PUSH2 0x56D JUMP JUMPDEST PUSH1 0x40 MLOAD PUSH2 0x18D SWAP2 SWAP1 PUSH2 0x1F35 JUMP JUMPDEST PUSH1 0x40 MLOAD DUP1 SWAP2 SUB SWAP1 RETURN JUMPDEST PUSH2 0x19E PUSH2 0x58F JUMP JUMPDEST PUSH1 0x40 MLOAD PUSH2 0x1AB SWAP2 SWAP1 PUSH2 0x1FA9 JUMP JUMPDEST PUSH1 0x40 MLOAD DUP1 SWAP2 SUB SWAP1 RETURN JUMPDEST PUSH2 0x1BC PUSH2 0x5B4 JUMP JUMPDEST PUSH1 0x40 MLOAD PUSH2 0x1C9 SWAP2 SWAP1 PUSH2 0x1DDA JUMP JUMPDEST PUSH1 0x40 MLOAD DUP1 SWAP2 SUB SWAP1 RETURN JUMPDEST PUSH2 0x1DA PUSH2 0x5BD JUMP JUMPDEST PUSH1 0x40 MLOAD PUSH2 0x1E7 SWAP2 SWAP1 PUSH2 0x1DDA JUMP JUMPDEST PUSH1 0x40 MLOAD DUP1 SWAP2 SUB SWAP1 RETURN JUMPDEST PUSH2 0x20A PUSH1 0x4 DUP1 CALLDATASIZE SUB DUP2 ADD SWAP1 PUSH2 0x205 SWAP2 SWAP1 PUSH2 0x1FC2 JUMP JUMPDEST PUSH2 0x5C3 JUMP JUMPDEST PUSH1 0x40 MLOAD PUSH2 0x217 SWAP2 SWAP1 PUSH2 0x1F35 JUMP JUMPDEST PUSH1 0x40 MLOAD DUP1 SWAP2 SUB SWAP1 RETURN JUMPDEST PUSH2 0x228 PUSH2 0x5F1 JUMP JUMPDEST PUSH1 0x40 MLOAD PUSH2 0x235 SWAP2 SWAP1 PUSH2 0x202D JUMP JUMPDEST PUSH1 0x40 MLOAD DUP1 SWAP2 SUB SWAP1 RETURN JUMPDEST PUSH2 0x258 PUSH1 0x4 DUP1 CALLDATASIZE SUB DUP2 ADD SWAP1 PUSH2 0x253 SWAP2 SWAP1 PUSH2 0x20A7 JUMP JUMPDEST PUSH2 0x5F9 JUMP JUMPDEST PUSH1 0x40 MLOAD PUSH2 0x265 SWAP2 SWAP1 PUSH2 0x21F4 JUMP JUMPDEST PUSH1 0x40 MLOAD DUP1 SWAP2 SUB SWAP1 RETURN JUMPDEST PUSH2 0x276 PUSH2 0xA58 JUMP JUMPDEST PUSH1 0x40 MLOAD PUSH2 0x283 SWAP2 SWAP1 PUSH2 0x1FA9 JUMP JUMPDEST PUSH1 0x40 MLOAD DUP1 SWAP2 SUB SWAP1 RETURN JUMPDEST PUSH2 0x2A6 PUSH1 0x4 DUP1 CALLDATASIZE SUB DUP2 ADD SWAP1 PUSH2 0x2A1 SWAP2 SWAP1 PUSH2 0x2214 JUMP JUMPDEST PUSH2 0xA7D JUMP JUMPDEST PUSH1 0x40 MLOAD PUSH2 0x2B3 SWAP2 SWAP1 PUSH2 0x1DDA JUMP JUMPDEST PUSH1 0x40 MLOAD DUP1 SWAP2 SUB SWAP1 RETURN JUMPDEST PUSH2 0x2C4 PUSH2 0xAC2 JUMP JUMPDEST PUSH1 0x40 MLOAD PUSH2 0x2D1 SWAP2 SWAP1 PUSH2 0x1E63 JUMP JUMPDEST PUSH1 0x40 MLOAD DUP1 SWAP2 SUB SWAP1 RETURN JUMPDEST PUSH2 0x2F4 PUSH1 0x4 DUP1 CALLDATASIZE SUB DUP2 ADD SWAP1 PUSH2 0x2EF SWAP2 SWAP1 PUSH2 0x1EDD JUMP JUMPDEST PUSH2 0xB52 JUMP JUMPDEST PUSH1 0x40 MLOAD PUSH2 0x301 SWAP2 SWAP1 PUSH2 0x1F35 JUMP JUMPDEST PUSH1 0x40 MLOAD DUP1 SWAP2 SUB SWAP1 RETURN JUMPDEST PUSH2 0x324 PUSH1 0x4 DUP1 CALLDATASIZE SUB DUP2 ADD SWAP1 PUSH2 0x31F SWAP2 SWAP1 PUSH2 0x223F JUMP JUMPDEST PUSH2 0xB74 JUMP JUMPDEST PUSH1 0x40 MLOAD PUSH2 0x331 SWAP2 SWAP1 PUSH2 0x1DDA JUMP JUMPDEST PUSH1 0x40 MLOAD DUP1 SWAP2 SUB SWAP1 RETURN JUMPDEST PUSH2 0x354 PUSH1 0x4 DUP1 CALLDATASIZE SUB DUP2 ADD SWAP1 PUSH2 0x34F SWAP2 SWAP1 PUSH2 0x227D JUMP JUMPDEST PUSH2 0xCD8 JUMP JUMPDEST PUSH1 0x40 MLOAD PUSH2 0x362 SWAP3 SWAP2 SWAP1 PUSH2 0x231A JUMP JUMPDEST PUSH1 0x40 MLOAD DUP1 SWAP2 SUB SWAP1 RETURN JUMPDEST PUSH2 0x373 PUSH2 0x111F JUMP JUMPDEST PUSH1 0x40 MLOAD PUSH2 0x380 SWAP2 SWAP1 PUSH2 0x1DDA JUMP JUMPDEST PUSH1 0x40 MLOAD DUP1 SWAP2 SUB SWAP1 RETURN JUMPDEST PUSH2 0x3A3 PUSH1 0x4 DUP1 CALLDATASIZE SUB DUP2 ADD SWAP1 PUSH2 0x39E SWAP2 SWAP1 PUSH2 0x223F JUMP JUMPDEST PUSH2 0x1125 JUMP JUMPDEST PUSH1 0x40 MLOAD PUSH2 0x3B0 SWAP2 SWAP1 PUSH2 0x1DDA JUMP JUMPDEST PUSH1 0x40 MLOAD DUP1 SWAP2 SUB SWAP1 RETURN JUMPDEST PUSH2 0x3D3 PUSH1 0x4 DUP1 CALLDATASIZE SUB DUP2 ADD SWAP1 PUSH2 0x3CE SWAP2 SWAP1 PUSH2 0x2341 JUMP JUMPDEST PUSH2 0x11A7 JUMP JUMPDEST PUSH1 0x40 MLOAD PUSH2 0x3E2 SWAP4 SWAP3 SWAP2 SWAP1 PUSH2 0x23F2 JUMP JUMPDEST PUSH1 0x40 MLOAD DUP1 SWAP2 SUB SWAP1 RETURN JUMPDEST PUSH0 PUSH0 DUP5 GT PUSH2 0x42E JUMPI PUSH1 0x40 MLOAD PUSH32 0x8C379A000000000000000000000000000000000000000000000000000000000 DUP2 MSTORE PUSH1 0x4 ADD PUSH2 0x425 SWAP1 PUSH2 0x2471 JUMP JUMPDEST PUSH1 0x40 MLOAD DUP1 SWAP2 SUB SWAP1 REVERT JUMPDEST PUSH0 DUP4 GT PUSH2 0x470 JUMPI PUSH1 0x40 MLOAD PUSH32 0x8C379A000000000000000000000000000000000000000000000000000000000 DUP2 MSTORE PUSH1 0x4 ADD PUSH2 0x467 SWAP1 PUSH2 0x24D9 JUMP JUMPDEST PUSH1 0x40 MLOAD DUP1 SWAP2 SUB SWAP1 REVERT JUMPDEST PUSH0 DUP3 GT PUSH2 0x4B2 JUMPI PUSH1 0x40 MLOAD PUSH32 0x8C379A000000000000000000000000000000000000000000000000000000000 DUP2 MSTORE PUSH1 0x4 ADD PUSH2 0x4A9 SWAP1 PUSH2 0x2541 JUMP JUMPDEST PUSH1 0x40 MLOAD DUP1 SWAP2 SUB SWAP1 REVERT JUMPDEST DUP4 DUP4 PUSH2 0x4BE SWAP2 SWAP1 PUSH2 0x258C JUMP JUMPDEST DUP3 DUP6 PUSH2 0x4CA SWAP2 SWAP1 PUSH2 0x25BF JUMP JUMPDEST PUSH2 0x4D4 SWAP2 SWAP1 PUSH2 0x262D JUMP JUMPDEST SWAP1 POP SWAP4 SWAP3 POP POP POP JUMP JUMPDEST PUSH1 0x60 PUSH1 0x3 DUP1 SLOAD PUSH2 0x4EC SWAP1 PUSH2 0x268A JUMP JUMPDEST DUP1 PUSH1 0x1F ADD PUSH1 0x20 DUP1 SWAP2 DIV MUL PUSH1 0x20 ADD PUSH1 0x40 MLOAD SWAP1 DUP2 ADD PUSH1 0x40 MSTORE DUP1 SWAP3 SWAP2 SWAP1 DUP2 DUP2 MSTORE PUSH1 0x20 ADD DUP3 DUP1 SLOAD PUSH2 0x518 SWAP1 PUSH2 0x268A JUMP JUMPDEST DUP1 ISZERO PUSH2 0x563 JUMPI DUP1 PUSH1 0x1F LT PUSH2 0x53A JUMPI PUSH2 0x100 DUP1 DUP4 SLOAD DIV MUL DUP4 MSTORE SWAP2 PUSH1 0x20 ADD SWAP2 PUSH2 0x563 JUMP JUMPDEST DUP3 ADD SWAP2 SWAP1 PUSH0 MSTORE PUSH1 0x20 PUSH0 KECCAK256 SWAP1 JUMPDEST DUP2 SLOAD DUP2 MSTORE SWAP1 PUSH1 0x1 ADD SWAP1 PUSH1 0x20 ADD DUP1 DUP4 GT PUSH2 0x546 JUMPI DUP3 SWAP1 SUB PUSH1 0x1F AND DUP3 ADD SWAP2 JUMPDEST POP POP POP POP POP SWAP1 POP SWAP1 JUMP JUMPDEST PUSH0 PUSH0 PUSH2 0x577 PUSH2 0x1524 JUMP JUMPDEST SWAP1 POP PUSH2 0x584 DUP2 DUP6 DUP6 PUSH2 0x152B JUMP JUMPDEST PUSH1 0x1 SWAP2 POP POP SWAP3 SWAP2 POP POP JUMP JUMPDEST PUSH1 0x5 PUSH0 SWAP1 SLOAD SWAP1 PUSH2 0x100 EXP SWAP1 DIV PUSH20 0xFFFFFFFFFFFFFFFFFFFFFFFFFFFFFFFFFFFFFFFF AND DUP2 JUMP JUMPDEST PUSH0 PUSH1 0x2 SLOAD SWAP1 POP SWAP1 JUMP JUMPDEST PUSH1 0x8 SLOAD DUP2 JUMP JUMPDEST PUSH0 PUSH0 PUSH2 0x5CD PUSH2 0x1524 JUMP JUMPDEST SWAP1 POP PUSH2 0x5DA DUP6 DUP3 DUP6 PUSH2 0x153D JUMP JUMPDEST PUSH2 0x5E5 DUP6 DUP6 DUP6 PUSH2 0x15D0 JUMP JUMPDEST PUSH1 0x1 SWAP2 POP POP SWAP4 SWAP3 POP POP POP JUMP JUMPDEST PUSH0 PUSH1 0x12 SWAP1 POP SWAP1 JUMP JUMPDEST PUSH1 0x60 PUSH0 DUP8 GT DUP1 ISZERO PUSH2 0x609 JUMPI POP PUSH0 DUP7 GT JUMPDEST PUSH2 0x648 JUMPI PUSH1 0x40 MLOAD PUSH32 0x8C379A000000000000000000000000000000000000000000000000000000000 DUP2 MSTORE PUSH1 0x4 ADD PUSH2 0x63F SWAP1 PUSH2 0x2704 JUMP JUMPDEST PUSH1 0x40 MLOAD DUP1 SWAP2 SUB SWAP1 REVERT JUMPDEST DUP2 TIMESTAMP GT ISZERO PUSH2 0x68B JUMPI PUSH1 0x40 MLOAD PUSH32 0x8C379A000000000000000000000000000000000000000000000000000000000 DUP2 MSTORE PUSH1 0x4 ADD PUSH2 0x682 SWAP1 PUSH2 0x276C JUMP JUMPDEST PUSH1 0x40 MLOAD DUP1 SWAP2 SUB SWAP1 REVERT JUMPDEST PUSH1 0x2 DUP6 DUP6 SWAP1 POP EQ PUSH2 0x6D1 JUMPI PUSH1 0x40 MLOAD PUSH32 0x8C379A000000000000000000000000000000000000000000000000000000000 DUP2 MSTORE PUSH1 0x4 ADD PUSH2 0x6C8 SWAP1 PUSH2 0x27D4 JUMP JUMPDEST PUSH1 0x40 MLOAD DUP1 SWAP2 SUB SWAP1 REVERT JUMPDEST PUSH0 DUP6 DUP6 PUSH0 DUP2 DUP2 LT PUSH2 0x6E5 JUMPI PUSH2 0x6E4 PUSH2 0x27F2 JUMP JUMPDEST JUMPDEST SWAP1 POP PUSH1 0x20 MUL ADD PUSH1 0x20 DUP2 ADD SWAP1 PUSH2 0x6FA SWAP2 SWAP1 PUSH2 0x2214 JUMP JUMPDEST SWAP1 POP PUSH0 DUP7 DUP7 PUSH1 0x1 DUP2 DUP2 LT PUSH2 0x711 JUMPI PUSH2 0x710 PUSH2 0x27F2 JUMP JUMPDEST JUMPDEST SWAP1 POP PUSH1 0x20 MUL ADD PUSH1 0x20 DUP2 ADD SWAP1 PUSH2 0x726 SWAP2 SWAP1 PUSH2 0x2214 JUMP JUMPDEST SWAP1 POP PUSH1 0x5 PUSH0 SWAP1 SLOAD SWAP1 PUSH2 0x100 EXP SWAP1 DIV PUSH20 0xFFFFFFFFFFFFFFFFFFFFFFFFFFFFFFFFFFFFFFFF AND PUSH20 0xFFFFFFFFFFFFFFFFFFFFFFFFFFFFFFFFFFFFFFFF AND DUP3 PUSH20 0xFFFFFFFFFFFFFFFFFFFFFFFFFFFFFFFFFFFFFFFF AND EQ DUP1 ISZERO PUSH2 0x7D0 JUMPI POP PUSH1 0x6 PUSH0 SWAP1 SLOAD SWAP1 PUSH2 0x100 EXP SWAP1 DIV PUSH20 0xFFFFFFFFFFFFFFFFFFFFFFFFFFFFFFFFFFFFFFFF AND PUSH20 0xFFFFFFFFFFFFFFFFFFFFFFFFFFFFFFFFFFFFFFFF AND DUP2 PUSH20 0xFFFFFFFFFFFFFFFFFFFFFFFFFFFFFFFFFFFFFFFF AND EQ JUMPDEST PUSH2 0x80F JUMPI PUSH1 0x40 MLOAD PUSH32 0x8C379A000000000000000000000000000000000000000000000000000000000 DUP2 MSTORE PUSH1 0x4 ADD PUSH2 0x806 SWAP1 PUSH2 0x2869 JUMP JUMPDEST PUSH1 0x40 MLOAD DUP1 SWAP2 SUB SWAP1 REVERT JUMPDEST PUSH0 DUP3 SWAP1 POP PUSH0 DUP3 SWAP1 POP PUSH0 PUSH1 0x7 SLOAD SWAP1 POP PUSH0 PUSH1 0x8 SLOAD SWAP1 POP PUSH0 DUP14 SWAP1 POP DUP5 PUSH20 0xFFFFFFFFFFFFFFFFFFFFFFFFFFFFFFFFFFFFFFFF AND PUSH4 0x23B872DD CALLER ADDRESS DUP5 PUSH1 0x40 MLOAD DUP5 PUSH4 0xFFFFFFFF AND PUSH1 0xE0 SHL DUP2 MSTORE PUSH1 0x4 ADD PUSH2 0x864 SWAP4 SWAP3 SWAP2 SWAP1 PUSH2 0x2896 JUMP JUMPDEST PUSH1 0x20 PUSH1 0x40 MLOAD DUP1 DUP4 SUB DUP2 PUSH0 DUP8 GAS CALL ISZERO DUP1 ISZERO PUSH2 0x880 JUMPI RETURNDATASIZE PUSH0 PUSH0 RETURNDATACOPY RETURNDATASIZE PUSH0 REVERT JUMPDEST POP POP POP POP PUSH1 0x40 MLOAD RETURNDATASIZE PUSH1 0x1F NOT PUSH1 0x1F DUP3 ADD AND DUP3 ADD DUP1 PUSH1 0x40 MSTORE POP DUP2 ADD SWAP1 PUSH2 0x8A4 SWAP2 SWAP1 PUSH2 0x28F5 JUMP JUMPDEST POP PUSH0 DUP2 DUP5 PUSH2 0x8B2 SWAP2 SWAP1 PUSH2 0x258C JUMP JUMPDEST DUP4 DUP4 PUSH2 0x8BE SWAP2 SWAP1 PUSH2 0x25BF JUMP JUMPDEST PUSH2 0x8C8 SWAP2 SWAP1 PUSH2 0x262D JUMP JUMPDEST SWAP1 POP DUP14 DUP2 LT ISZERO PUSH2 0x90D JUMPI PUSH1 0x40 MLOAD PUSH32 0x8C379A000000000000000000000000000000000000000000000000000000000 DUP2 MSTORE PUSH1 0x4 ADD PUSH2 0x904 SWAP1 PUSH2 0x296A JUMP JUMPDEST PUSH1 0x40 MLOAD DUP1 SWAP2 SUB SWAP1 REVERT JUMPDEST DUP5 PUSH20 0xFFFFFFFFFFFFFFFFFFFFFFFFFFFFFFFFFFFFFFFF AND PUSH4 0xA9059CBB DUP13 DUP4 PUSH1 0x40 MLOAD DUP4 PUSH4 0xFFFFFFFF AND PUSH1 0xE0 SHL DUP2 MSTORE PUSH1 0x4 ADD PUSH2 0x948 SWAP3 SWAP2 SWAP1 PUSH2 0x2988 JUMP JUMPDEST PUSH1 0x20 PUSH1 0x40 MLOAD DUP1 DUP4 SUB DUP2 PUSH0 DUP8 GAS CALL ISZERO DUP1 ISZERO PUSH2 0x964 JUMPI RETURNDATASIZE PUSH0 PUSH0 RETURNDATACOPY RETURNDATASIZE PUSH0 REVERT JUMPDEST POP POP POP POP PUSH1 0x40 MLOAD RETURNDATASIZE PUSH1 0x1F NOT PUSH1 0x1F DUP3 ADD AND DUP3 ADD DUP1 PUSH1 0x40 MSTORE POP DUP2 ADD SWAP1 PUSH2 0x988 SWAP2 SWAP1 PUSH2 0x28F5 JUMP JUMPDEST POP DUP15 PUSH1 0x7 PUSH0 DUP3 DUP3 SLOAD PUSH2 0x99A SWAP2 SWAP1 PUSH2 0x258C JUMP JUMPDEST SWAP3 POP POP DUP2 SWAP1 SSTORE POP DUP1 PUSH1 0x8 PUSH0 DUP3 DUP3 SLOAD PUSH2 0x9B2 SWAP2 SWAP1 PUSH2 0x29AF JUMP JUMPDEST SWAP3 POP POP DUP2 SWAP1 SSTORE POP PUSH1 0x2 PUSH8 0xFFFFFFFFFFFFFFFF DUP2 GT ISZERO PUSH2 0x9D4 JUMPI PUSH2 0x9D3 PUSH2 0x29E2 JUMP JUMPDEST JUMPDEST PUSH1 0x40 MLOAD SWAP1 DUP1 DUP3 MSTORE DUP1 PUSH1 0x20 MUL PUSH1 0x20 ADD DUP3 ADD PUSH1 0x40 MSTORE DUP1 ISZERO PUSH2 0xA02 JUMPI DUP2 PUSH1 0x20 ADD PUSH1 0x20 DUP3 MUL DUP1 CALLDATASIZE DUP4 CALLDATACOPY DUP1 DUP3 ADD SWAP2 POP POP SWAP1 POP JUMPDEST POP SWAP9 POP DUP15 DUP10 PUSH0 DUP2 MLOAD DUP2 LT PUSH2 0xA19 JUMPI PUSH2 0xA18 PUSH2 0x27F2 JUMP JUMPDEST JUMPDEST PUSH1 0x20 MUL PUSH1 0x20 ADD ADD DUP2 DUP2 MSTORE POP POP DUP1 DUP10 PUSH1 0x1 DUP2 MLOAD DUP2 LT PUSH2 0xA3A JUMPI PUSH2 0xA39 PUSH2 0x27F2 JUMP JUMPDEST JUMPDEST PUSH1 0x20 MUL PUSH1 0x20 ADD ADD DUP2 DUP2 MSTORE POP POP POP POP POP POP POP POP POP POP SWAP7 SWAP6 POP POP POP POP POP POP JUMP JUMPDEST PUSH1 0x6 PUSH0 SWAP1 SLOAD SWAP1 PUSH2 0x100 EXP SWAP1 DIV PUSH20 0xFFFFFFFFFFFFFFFFFFFFFFFFFFFFFFFFFFFFFFFF AND DUP2 JUMP JUMPDEST PUSH0 PUSH0 PUSH0 DUP4 PUSH20 0xFFFFFFFFFFFFFFFFFFFFFFFFFFFFFFFFFFFFFFFF AND PUSH20 0xFFFFFFFFFFFFFFFFFFFFFFFFFFFFFFFFFFFFFFFF AND DUP2 MSTORE PUSH1 0x20 ADD SWAP1 DUP2 MSTORE PUSH1 0x20 ADD PUSH0 KECCAK256 SLOAD SWAP1 POP SWAP2 SWAP1 POP JUMP JUMPDEST PUSH1 0x60 PUSH1 0x4 DUP1 SLOAD PUSH2 0xAD1 SWAP1 PUSH2 0x268A JUMP JUMPDEST DUP1 PUSH1 0x1F ADD PUSH1 0x20 DUP1 SWAP2 DIV MUL PUSH1 0x20 ADD PUSH1 0x40 MLOAD SWAP1 DUP2 ADD PUSH1 0x40 MSTORE DUP1 SWAP3 SWAP2 SWAP1 DUP2 DUP2 MSTORE PUSH1 0x20 ADD DUP3 DUP1 SLOAD PUSH2 0xAFD SWAP1 PUSH2 0x268A JUMP JUMPDEST DUP1 ISZERO PUSH2 0xB48 JUMPI DUP1 PUSH1 0x1F LT PUSH2 0xB1F JUMPI PUSH2 0x100 DUP1 DUP4 SLOAD DIV MUL DUP4 MSTORE SWAP2 PUSH1 0x20 ADD SWAP2 PUSH2 0xB48 JUMP JUMPDEST DUP3 ADD SWAP2 SWAP1 PUSH0 MSTORE PUSH1 0x20 PUSH0 KECCAK256 SWAP1 JUMPDEST DUP2 SLOAD DUP2 MSTORE SWAP1 PUSH1 0x1 ADD SWAP1 PUSH1 0x20 ADD DUP1 DUP4 GT PUSH2 0xB2B JUMPI DUP3 SWAP1 SUB PUSH1 0x1F AND DUP3 ADD SWAP2 JUMPDEST POP POP POP POP POP SWAP1 POP SWAP1 JUMP JUMPDEST PUSH0 PUSH0 PUSH2 0xB5C PUSH2 0x1524 JUMP JUMPDEST SWAP1 POP PUSH2 0xB69 DUP2 DUP6 DUP6 PUSH2 0x15D0 JUMP JUMPDEST PUSH1 0x1 SWAP2 POP POP SWAP3 SWAP2 POP POP JUMP JUMPDEST PUSH0 PUSH1 0x5 PUSH0 SWAP1 SLOAD SWAP1 PUSH2 0x100 EXP SWAP1 DIV PUSH20 0xFFFFFFFFFFFFFFFFFFFFFFFFFFFFFFFFFFFFFFFF AND PUSH20 0xFFFFFFFFFFFFFFFFFFFFFFFFFFFFFFFFFFFFFFFF AND DUP4 PUSH20 0xFFFFFFFFFFFFFFFFFFFFFFFFFFFFFFFFFFFFFFFF AND EQ DUP1 ISZERO PUSH2 0xC1D JUMPI POP PUSH1 0x6 PUSH0 SWAP1 SLOAD SWAP1 PUSH2 0x100 EXP SWAP1 DIV PUSH20 0xFFFFFFFFFFFFFFFFFFFFFFFFFFFFFFFFFFFFFFFF AND PUSH20 0xFFFFFFFFFFFFFFFFFFFFFFFFFFFFFFFFFFFFFFFF AND DUP3 PUSH20 0xFFFFFFFFFFFFFFFFFFFFFFFFFFFFFFFFFFFFFFFF AND EQ JUMPDEST PUSH2 0xC5C JUMPI PUSH1 0x40 MLOAD PUSH32 0x8C379A000000000000000000000000000000000000000000000000000000000 DUP2 MSTORE PUSH1 0x4 ADD PUSH2 0xC53 SWAP1 PUSH2 0x2869 JUMP JUMPDEST PUSH1 0x40 MLOAD DUP1 SWAP2 SUB SWAP1 REVERT JUMPDEST PUSH0 PUSH1 0x7 SLOAD GT DUP1 ISZERO PUSH2 0xC6E JUMPI POP PUSH0 PUSH1 0x8 SLOAD GT JUMPDEST PUSH2 0xCAD JUMPI PUSH1 0x40 MLOAD PUSH32 0x8C379A000000000000000000000000000000000000000000000000000000000 DUP2 MSTORE PUSH1 0x4 ADD PUSH2 0xCA4 SWAP1 PUSH2 0x2A59 JUMP JUMPDEST PUSH1 0x40 MLOAD DUP1 SWAP2 SUB SWAP1 REVERT JUMPDEST PUSH1 0x7 SLOAD PUSH8 0xDE0B6B3A7640000 PUSH1 0x8 SLOAD PUSH2 0xCC6 SWAP2 SWAP1 PUSH2 0x25BF JUMP JUMPDEST PUSH2 0xCD0 SWAP2 SWAP1 PUSH2 0x262D JUMP JUMPDEST SWAP1 POP SWAP3 SWAP2 POP POP JUMP JUMPDEST PUSH0 PUSH0 PUSH1 0x5 PUSH0 SWAP1 SLOAD SWAP1 PUSH2 0x100 EXP SWAP1 DIV PUSH20 0xFFFFFFFFFFFFFFFFFFFFFFFFFFFFFFFFFFFFFFFF AND PUSH20 0xFFFFFFFFFFFFFFFFFFFFFFFFFFFFFFFFFFFFFFFF AND DUP10 PUSH20 0xFFFFFFFFFFFFFFFFFFFFFFFFFFFFFFFFFFFFFFFF AND EQ DUP1 ISZERO PUSH2 0xD82 JUMPI POP PUSH1 0x6 PUSH0 SWAP1 SLOAD SWAP1 PUSH2 0x100 EXP SWAP1 DIV PUSH20 0xFFFFFFFFFFFFFFFFFFFFFFFFFFFFFFFFFFFFFFFF AND PUSH20 0xFFFFFFFFFFFFFFFFFFFFFFFFFFFFFFFFFFFFFFFF AND DUP9 PUSH20 0xFFFFFFFFFFFFFFFFFFFFFFFFFFFFFFFFFFFFFFFF AND EQ JUMPDEST PUSH2 0xDC1 JUMPI PUSH1 0x40 MLOAD PUSH32 0x8C379A000000000000000000000000000000000000000000000000000000000 DUP2 MSTORE PUSH1 0x4 ADD PUSH2 0xDB8 SWAP1 PUSH2 0x2869 JUMP JUMPDEST PUSH1 0x40 MLOAD DUP1 SWAP2 SUB SWAP1 REVERT JUMPDEST DUP3 TIMESTAMP GT ISZERO PUSH2 0xE04 JUMPI PUSH1 0x40 MLOAD PUSH32 0x8C379A000000000000000000000000000000000000000000000000000000000 DUP2 MSTORE PUSH1 0x4 ADD PUSH2 0xDFB SWAP1 PUSH2 0x276C JUMP JUMPDEST PUSH1 0x40 MLOAD DUP1 SWAP2 SUB SWAP1 REVERT JUMPDEST PUSH0 DUP8 GT PUSH2 0xE46 JUMPI PUSH1 0x40 MLOAD PUSH32 0x8C379A000000000000000000000000000000000000000000000000000000000 DUP2 MSTORE PUSH1 0x4 ADD PUSH2 0xE3D SWAP1 PUSH2 0x2AC1 JUMP JUMPDEST PUSH1 0x40 MLOAD DUP1 SWAP2 SUB SWAP1 REVERT JUMPDEST PUSH0 DUP6 LT ISZERO DUP1 ISZERO PUSH2 0xE56 JUMPI POP PUSH0 DUP7 LT ISZERO JUMPDEST PUSH2 0xE95 JUMPI PUSH1 0x40 MLOAD PUSH32 0x8C379A000000000000000000000000000000000000000000000000000000000 DUP2 MSTORE PUSH1 0x4 ADD PUSH2 0xE8C SWAP1 PUSH2 0x2B29 JUMP JUMPDEST PUSH1 0x40 MLOAD DUP1 SWAP2 SUB SWAP1 REVERT JUMPDEST PUSH0 PUSH2 0xE9E PUSH2 0x5B4 JUMP JUMPDEST SWAP1 POP PUSH0 DUP2 GT PUSH2 0xEE2 JUMPI PUSH1 0x40 MLOAD PUSH32 0x8C379A000000000000000000000000000000000000000000000000000000000 DUP2 MSTORE PUSH1 0x4 ADD PUSH2 0xED9 SWAP1 PUSH2 0x2B91 JUMP JUMPDEST PUSH1 0x40 MLOAD DUP1 SWAP2 SUB SWAP1 REVERT JUMPDEST DUP1 PUSH1 0x7 SLOAD DUP10 PUSH2 0xEF1 SWAP2 SWAP1 PUSH2 0x25BF JUMP JUMPDEST PUSH2 0xEFB SWAP2 SWAP1 PUSH2 0x262D JUMP JUMPDEST SWAP3 POP DUP1 PUSH1 0x8 SLOAD DUP10 PUSH2 0xF0C SWAP2 SWAP1 PUSH2 0x25BF JUMP JUMPDEST PUSH2 0xF16 SWAP2 SWAP1 PUSH2 0x262D JUMP JUMPDEST SWAP2 POP DUP7 DUP4 LT ISZERO PUSH2 0xF5B JUMPI PUSH1 0x40 MLOAD PUSH32 0x8C379A000000000000000000000000000000000000000000000000000000000 DUP2 MSTORE PUSH1 0x4 ADD PUSH2 0xF52 SWAP1 PUSH2 0x2BF9 JUMP JUMPDEST PUSH1 0x40 MLOAD DUP1 SWAP2 SUB SWAP1 REVERT JUMPDEST DUP6 DUP3 LT ISZERO PUSH2 0xF9E JUMPI PUSH1 0x40 MLOAD PUSH32 0x8C379A000000000000000000000000000000000000000000000000000000000 DUP2 MSTORE PUSH1 0x4 ADD PUSH2 0xF95 SWAP1 PUSH2 0x2C61 JUMP JUMPDEST PUSH1 0x40 MLOAD DUP1 SWAP2 SUB SWAP1 REVERT JUMPDEST PUSH1 0x5 PUSH0 SWAP1 SLOAD SWAP1 PUSH2 0x100 EXP SWAP1 DIV PUSH20 0xFFFFFFFFFFFFFFFFFFFFFFFFFFFFFFFFFFFFFFFF AND PUSH20 0xFFFFFFFFFFFFFFFFFFFFFFFFFFFFFFFFFFFFFFFF AND PUSH4 0xA9059CBB DUP7 DUP6 PUSH1 0x40 MLOAD DUP4 PUSH4 0xFFFFFFFF AND PUSH1 0xE0 SHL DUP2 MSTORE PUSH1 0x4 ADD PUSH2 0xFFA SWAP3 SWAP2 SWAP1 PUSH2 0x2988 JUMP JUMPDEST PUSH1 0x20 PUSH1 0x40 MLOAD DUP1 DUP4 SUB DUP2 PUSH0 DUP8 GAS CALL ISZERO DUP1 ISZERO PUSH2 0x1016 JUMPI RETURNDATASIZE PUSH0 PUSH0 RETURNDATACOPY RETURNDATASIZE PUSH0 REVERT JUMPDEST POP POP POP POP PUSH1 0x40 MLOAD RETURNDATASIZE PUSH1 0x1F NOT PUSH1 0x1F DUP3 ADD AND DUP3 ADD DUP1 PUSH1 0x40 MSTORE POP DUP2 ADD SWAP1 PUSH2 0x103A SWAP2 SWAP1 PUSH2 0x28F5 JUMP JUMPDEST POP PUSH1 0x6 PUSH0 SWAP1 SLOAD SWAP1 PUSH2 0x100 EXP SWAP1 DIV PUSH20 0xFFFFFFFFFFFFFFFFFFFFFFFFFFFFFFFFFFFFFFFF AND PUSH20 0xFFFFFFFFFFFFFFFFFFFFFFFFFFFFFFFFFFFFFFFF AND PUSH4 0xA9059CBB DUP7 DUP5 PUSH1 0x40 MLOAD DUP4 PUSH4 0xFFFFFFFF AND PUSH1 0xE0 SHL DUP2 MSTORE PUSH1 0x4 ADD PUSH2 0x1097 SWAP3 SWAP2 SWAP1 PUSH2 0x2988 JUMP JUMPDEST PUSH1 0x20 PUSH1 0x40 MLOAD DUP1 DUP4 SUB DUP2 PUSH0 DUP8 GAS CALL ISZERO DUP1 ISZERO PUSH2 0x10B3 JUMPI RETURNDATASIZE PUSH0 PUSH0 RETURNDATACOPY RETURNDATASIZE PUSH0 REVERT JUMPDEST POP POP POP POP PUSH1 0x40 MLOAD RETURNDATASIZE PUSH1 0x1F NOT PUSH1 0x1F DUP3 ADD AND DUP3 ADD DUP1 PUSH1 0x40 MSTORE POP DUP2 ADD SWAP1 PUSH2 0x10D7 SWAP2 SWAP1 PUSH2 0x28F5 JUMP JUMPDEST POP PUSH2 0x10E2 DUP6 DUP10 PUSH2 0x16C0 JUMP JUMPDEST DUP3 PUSH1 0x7 PUSH0 DUP3 DUP3 SLOAD PUSH2 0x10F3 SWAP2 SWAP1 PUSH2 0x29AF JUMP JUMPDEST SWAP3 POP POP DUP2 SWAP1 SSTORE POP DUP2 PUSH1 0x8 PUSH0 DUP3 DUP3 SLOAD PUSH2 0x110B SWAP2 SWAP1 PUSH2 0x29AF JUMP JUMPDEST SWAP3 POP POP DUP2 SWAP1 SSTORE POP POP SWAP8 POP SWAP8 SWAP6 POP POP POP POP POP POP JUMP JUMPDEST PUSH1 0x7 SLOAD DUP2 JUMP JUMPDEST PUSH0 PUSH1 0x1 PUSH0 DUP5 PUSH20 0xFFFFFFFFFFFFFFFFFFFFFFFFFFFFFFFFFFFFFFFF AND PUSH20 0xFFFFFFFFFFFFFFFFFFFFFFFFFFFFFFFFFFFFFFFF AND DUP2 MSTORE PUSH1 0x20 ADD SWAP1 DUP2 MSTORE PUSH1 0x20 ADD PUSH0 KECCAK256 PUSH0 DUP4 PUSH20 0xFFFFFFFFFFFFFFFFFFFFFFFFFFFFFFFFFFFFFFFF AND PUSH20 0xFFFFFFFFFFFFFFFFFFFFFFFFFFFFFFFFFFFFFFFF AND DUP2 MSTORE PUSH1 0x20 ADD SWAP1 DUP2 MSTORE PUSH1 0x20 ADD PUSH0 KECCAK256 SLOAD SWAP1 POP SWAP3 SWAP2 POP POP JUMP JUMPDEST PUSH0 PUSH0 PUSH0 DUP4 TIMESTAMP GT ISZERO PUSH2 0x11ED JUMPI PUSH1 0x40 MLOAD PUSH32 0x8C379A000000000000000000000000000000000000000000000000000000000 DUP2 MSTORE PUSH1 0x4 ADD PUSH2 0x11E4 SWAP1 PUSH2 0x276C JUMP JUMPDEST PUSH1 0x40 MLOAD DUP1 SWAP2 SUB SWAP1 REVERT JUMPDEST PUSH1 0x5 PUSH0 SWAP1 SLOAD SWAP1 PUSH2 0x100 EXP SWAP1 DIV PUSH20 0xFFFFFFFFFFFFFFFFFFFFFFFFFFFFFFFFFFFFFFFF AND PUSH20 0xFFFFFFFFFFFFFFFFFFFFFFFFFFFFFFFFFFFFFFFF AND DUP12 PUSH20 0xFFFFFFFFFFFFFFFFFFFFFFFFFFFFFFFFFFFFFFFF AND EQ DUP1 ISZERO PUSH2 0x1295 JUMPI POP PUSH1 0x6 PUSH0 SWAP1 SLOAD SWAP1 PUSH2 0x100 EXP SWAP1 DIV PUSH20 0xFFFFFFFFFFFFFFFFFFFFFFFFFFFFFFFFFFFFFFFF AND PUSH20 0xFFFFFFFFFFFFFFFFFFFFFFFFFFFFFFFFFFFFFFFF AND DUP11 PUSH20 0xFFFFFFFFFFFFFFFFFFFFFFFFFFFFFFFFFFFFFFFF AND EQ JUMPDEST PUSH2 0x12D4 JUMPI PUSH1 0x40 MLOAD PUSH32 0x8C379A000000000000000000000000000000000000000000000000000000000 DUP2 MSTORE PUSH1 0x4 ADD PUSH2 0x12CB SWAP1 PUSH2 0x2869 JUMP JUMPDEST PUSH1 0x40 MLOAD DUP1 SWAP2 SUB SWAP1 REVERT JUMPDEST PUSH2 0x12E0 DUP10 DUP10 DUP10 DUP10 PUSH2 0x173F JUMP JUMPDEST DUP1 SWAP4 POP DUP2 SWAP5 POP POP POP PUSH1 0x5 PUSH0 SWAP1 SLOAD SWAP1 PUSH2 0x100 EXP SWAP1 DIV PUSH20 0xFFFFFFFFFFFFFFFFFFFFFFFFFFFFFFFFFFFFFFFF AND PUSH20 0xFFFFFFFFFFFFFFFFFFFFFFFFFFFFFFFFFFFFFFFF AND PUSH4 0x23B872DD CALLER ADDRESS DUP7 PUSH1 0x40 MLOAD DUP5 PUSH4 0xFFFFFFFF AND PUSH1 0xE0 SHL DUP2 MSTORE PUSH1 0x4 ADD PUSH2 0x1346 SWAP4 SWAP3 SWAP2 SWAP1 PUSH2 0x2896 JUMP JUMPDEST PUSH1 0x20 PUSH1 0x40 MLOAD DUP1 DUP4 SUB DUP2 PUSH0 DUP8 GAS CALL ISZERO DUP1 ISZERO PUSH2 0x1362 JUMPI RETURNDATASIZE PUSH0 PUSH0 RETURNDATACOPY RETURNDATASIZE PUSH0 REVERT JUMPDEST POP POP POP POP PUSH1 0x40 MLOAD RETURNDATASIZE PUSH1 0x1F NOT PUSH1 0x1F DUP3 ADD AND DUP3 ADD DUP1 PUSH1 0x40 MSTORE POP DUP2 ADD SWAP1 PUSH2 0x1386 SWAP2 SWAP1 PUSH2 0x28F5 JUMP JUMPDEST POP PUSH1 0x6 PUSH0 SWAP1 SLOAD SWAP1 PUSH2 0x100 EXP SWAP1 DIV PUSH20 0xFFFFFFFFFFFFFFFFFFFFFFFFFFFFFFFFFFFFFFFF AND PUSH20 0xFFFFFFFFFFFFFFFFFFFFFFFFFFFFFFFFFFFFFFFF AND PUSH4 0x23B872DD CALLER ADDRESS DUP6 PUSH1 0x40 MLOAD DUP5 PUSH4 0xFFFFFFFF AND PUSH1 0xE0 SHL DUP2 MSTORE PUSH1 0x4 ADD PUSH2 0x13E5 SWAP4 SWAP3 SWAP2 SWAP1 PUSH2 0x2896 JUMP JUMPDEST PUSH1 0x20 PUSH1 0x40 MLOAD DUP1 DUP4 SUB DUP2 PUSH0 DUP8 GAS CALL ISZERO DUP1 ISZERO PUSH2 0x1401 JUMPI RETURNDATASIZE PUSH0 PUSH0 RETURNDATACOPY RETURNDATASIZE PUSH0 REVERT JUMPDEST POP POP POP POP PUSH1 0x40 MLOAD RETURNDATASIZE PUSH1 0x1F NOT PUSH1 0x1F DUP3 ADD AND DUP3 ADD DUP1 PUSH1 0x40 MSTORE POP DUP2 ADD SWAP1 PUSH2 0x1425 SWAP2 SWAP1 PUSH2 0x28F5 JUMP JUMPDEST POP PUSH0 PUSH2 0x142F PUSH2 0x5B4 JUMP JUMPDEST SUB PUSH2 0x144F JUMPI PUSH2 0x1448 DUP3 DUP5 PUSH2 0x1443 SWAP2 SWAP1 PUSH2 0x25BF JUMP JUMPDEST PUSH2 0x184A JUMP JUMPDEST SWAP1 POP PUSH2 0x149A JUMP JUMPDEST PUSH2 0x1497 PUSH1 0x7 SLOAD PUSH2 0x145D PUSH2 0x5B4 JUMP JUMPDEST DUP6 PUSH2 0x1468 SWAP2 SWAP1 PUSH2 0x25BF JUMP JUMPDEST PUSH2 0x1472 SWAP2 SWAP1 PUSH2 0x262D JUMP JUMPDEST PUSH1 0x8 SLOAD PUSH2 0x147D PUSH2 0x5B4 JUMP JUMPDEST DUP6 PUSH2 0x1488 SWAP2 SWAP1 PUSH2 0x25BF JUMP JUMPDEST PUSH2 0x1492 SWAP2 SWAP1 PUSH2 0x262D JUMP JUMPDEST PUSH2 0x18C1 JUMP JUMPDEST SWAP1 POP JUMPDEST PUSH0 DUP2 GT PUSH2 0x14DC JUMPI PUSH1 0x40 MLOAD PUSH32 0x8C379A000000000000000000000000000000000000000000000000000000000 DUP2 MSTORE PUSH1 0x4 ADD PUSH2 0x14D3 SWAP1 PUSH2 0x2AC1 JUMP JUMPDEST PUSH1 0x40 MLOAD DUP1 SWAP2 SUB SWAP1 REVERT JUMPDEST PUSH2 0x14E6 DUP6 DUP3 PUSH2 0x18D9 JUMP JUMPDEST DUP3 PUSH1 0x7 PUSH0 DUP3 DUP3 SLOAD PUSH2 0x14F7 SWAP2 SWAP1 PUSH2 0x258C JUMP JUMPDEST SWAP3 POP POP DUP2 SWAP1 SSTORE POP DUP2 PUSH1 0x8 PUSH0 DUP3 DUP3 SLOAD PUSH2 0x150F SWAP2 SWAP1 PUSH2 0x258C JUMP JUMPDEST SWAP3 POP POP DUP2 SWAP1 SSTORE POP SWAP9 POP SWAP9 POP SWAP9 SWAP6 POP POP POP POP POP POP JUMP JUMPDEST PUSH0 CALLER SWAP1 POP SWAP1 JUMP JUMPDEST PUSH2 0x1538 DUP4 DUP4 DUP4 PUSH1 0x1 PUSH2 0x1958 JUMP JUMPDEST POP POP POP JUMP JUMPDEST PUSH0 PUSH2 0x1548 DUP5 DUP5 PUSH2 0x1125 JUMP JUMPDEST SWAP1 POP PUSH32 0xFFFFFFFFFFFFFFFFFFFFFFFFFFFFFFFFFFFFFFFFFFFFFFFFFFFFFFFFFFFFFFFF DUP2 LT ISZERO PUSH2 0x15CA JUMPI DUP2 DUP2 LT ISZERO PUSH2 0x15BB JUMPI DUP3 DUP2 DUP4 PUSH1 0x40 MLOAD PUSH32 0xFB8F41B200000000000000000000000000000000000000000000000000000000 DUP2 MSTORE PUSH1 0x4 ADD PUSH2 0x15B2 SWAP4 SWAP3 SWAP2 SWAP1 PUSH2 0x2C7F JUMP JUMPDEST PUSH1 0x40 MLOAD DUP1 SWAP2 SUB SWAP1 REVERT JUMPDEST PUSH2 0x15C9 DUP5 DUP5 DUP5 DUP5 SUB PUSH0 PUSH2 0x1958 JUMP JUMPDEST JUMPDEST POP POP POP POP JUMP JUMPDEST PUSH0 PUSH20 0xFFFFFFFFFFFFFFFFFFFFFFFFFFFFFFFFFFFFFFFF AND DUP4 PUSH20 0xFFFFFFFFFFFFFFFFFFFFFFFFFFFFFFFFFFFFFFFF AND SUB PUSH2 0x1640 JUMPI PUSH0 PUSH1 0x40 MLOAD PUSH32 0x96C6FD1E00000000000000000000000000000000000000000000000000000000 DUP2 MSTORE PUSH1 0x4 ADD PUSH2 0x1637 SWAP2 SWAP1 PUSH2 0x2CB4 JUMP JUMPDEST PUSH1 0x40 MLOAD DUP1 SWAP2 SUB SWAP1 REVERT JUMPDEST PUSH0 PUSH20 0xFFFFFFFFFFFFFFFFFFFFFFFFFFFFFFFFFFFFFFFF AND DUP3 PUSH20 0xFFFFFFFFFFFFFFFFFFFFFFFFFFFFFFFFFFFFFFFF AND SUB PUSH2 0x16B0 JUMPI PUSH0 PUSH1 0x40 MLOAD PUSH32 0xEC442F0500000000000000000000000000000000000000000000000000000000 DUP2 MSTORE PUSH1 0x4 ADD PUSH2 0x16A7 SWAP2 SWAP1 PUSH2 0x2CB4 JUMP JUMPDEST PUSH1 0x40 MLOAD DUP1 SWAP2 SUB SWAP1 REVERT JUMPDEST PUSH2 0x16BB DUP4 DUP4 DUP4 PUSH2 0x1B27 JUMP JUMPDEST POP POP POP JUMP JUMPDEST PUSH0 PUSH20 0xFFFFFFFFFFFFFFFFFFFFFFFFFFFFFFFFFFFFFFFF AND DUP3 PUSH20 0xFFFFFFFFFFFFFFFFFFFFFFFFFFFFFFFFFFFFFFFF AND SUB PUSH2 0x1730 JUMPI PUSH0 PUSH1 0x40 MLOAD PUSH32 0x96C6FD1E00000000000000000000000000000000000000000000000000000000 DUP2 MSTORE PUSH1 0x4 ADD PUSH2 0x1727 SWAP2 SWAP1 PUSH2 0x2CB4 JUMP JUMPDEST PUSH1 0x40 MLOAD DUP1 SWAP2 SUB SWAP1 REVERT JUMPDEST PUSH2 0x173B DUP3 PUSH0 DUP4 PUSH2 0x1B27 JUMP JUMPDEST POP POP JUMP JUMPDEST PUSH0 PUSH0 PUSH0 PUSH1 0x7 SLOAD EQ DUP1 ISZERO PUSH2 0x1753 JUMPI POP PUSH0 PUSH1 0x8 SLOAD EQ JUMPDEST ISZERO PUSH2 0x1763 JUMPI DUP6 SWAP2 POP DUP5 SWAP1 POP PUSH2 0x1841 JUMP JUMPDEST PUSH0 PUSH1 0x7 SLOAD PUSH1 0x8 SLOAD DUP9 PUSH2 0x1775 SWAP2 SWAP1 PUSH2 0x25BF JUMP JUMPDEST PUSH2 0x177F SWAP2 SWAP1 PUSH2 0x262D JUMP JUMPDEST SWAP1 POP DUP6 DUP2 GT PUSH2 0x17D6 JUMPI DUP4 DUP2 LT ISZERO PUSH2 0x17CB JUMPI PUSH1 0x40 MLOAD PUSH32 0x8C379A000000000000000000000000000000000000000000000000000000000 DUP2 MSTORE PUSH1 0x4 ADD PUSH2 0x17C2 SWAP1 PUSH2 0x2D17 JUMP JUMPDEST PUSH1 0x40 MLOAD DUP1 SWAP2 SUB SWAP1 REVERT JUMPDEST DUP7 SWAP3 POP DUP1 SWAP2 POP PUSH2 0x183F JUMP JUMPDEST PUSH0 PUSH1 0x8 SLOAD PUSH1 0x7 SLOAD DUP9 PUSH2 0x17E8 SWAP2 SWAP1 PUSH2 0x25BF JUMP JUMPDEST PUSH2 0x17F2 SWAP2 SWAP1 PUSH2 0x262D JUMP JUMPDEST SWAP1 POP DUP6 DUP2 LT ISZERO PUSH2 0x1837 JUMPI PUSH1 0x40 MLOAD PUSH32 0x8C379A000000000000000000000000000000000000000000000000000000000 DUP2 MSTORE PUSH1 0x4 ADD PUSH2 0x182E SWAP1 PUSH2 0x2D7F JUMP JUMPDEST PUSH1 0x40 MLOAD DUP1 SWAP2 SUB SWAP1 REVERT JUMPDEST DUP1 SWAP4 POP DUP7 SWAP3 POP POP JUMPDEST POP JUMPDEST SWAP5 POP SWAP5 SWAP3 POP POP POP JUMP JUMPDEST PUSH0 PUSH1 0x3 DUP3 GT ISZERO PUSH2 0x18AF JUMPI DUP2 SWAP1 POP PUSH0 PUSH1 0x1 PUSH1 0x2 DUP5 PUSH2 0x1867 SWAP2 SWAP1 PUSH2 0x262D JUMP JUMPDEST PUSH2 0x1871 SWAP2 SWAP1 PUSH2 0x258C JUMP JUMPDEST SWAP1 POP JUMPDEST DUP2 DUP2 LT ISZERO PUSH2 0x18A9 JUMPI DUP1 SWAP2 POP PUSH1 0x2 DUP2 DUP3 DUP6 PUSH2 0x188E SWAP2 SWAP1 PUSH2 0x262D JUMP JUMPDEST PUSH2 0x1898 SWAP2 SWAP1 PUSH2 0x258C JUMP JUMPDEST PUSH2 0x18A2 SWAP2 SWAP1 PUSH2 0x262D JUMP JUMPDEST SWAP1 POP PUSH2 0x1874 JUMP JUMPDEST POP PUSH2 0x18BC JUMP JUMPDEST PUSH0 DUP3 EQ PUSH2 0x18BB JUMPI PUSH1 0x1 SWAP1 POP JUMPDEST JUMPDEST SWAP2 SWAP1 POP JUMP JUMPDEST PUSH0 DUP2 DUP4 LT PUSH2 0x18CF JUMPI DUP2 PUSH2 0x18D1 JUMP JUMPDEST DUP3 JUMPDEST SWAP1 POP SWAP3 SWAP2 POP POP JUMP JUMPDEST PUSH0 PUSH20 0xFFFFFFFFFFFFFFFFFFFFFFFFFFFFFFFFFFFFFFFF AND DUP3 PUSH20 0xFFFFFFFFFFFFFFFFFFFFFFFFFFFFFFFFFFFFFFFF AND SUB PUSH2 0x1949 JUMPI PUSH0 PUSH1 0x40 MLOAD PUSH32 0xEC442F0500000000000000000000000000000000000000000000000000000000 DUP2 MSTORE PUSH1 0x4 ADD PUSH2 0x1940 SWAP2 SWAP1 PUSH2 0x2CB4 JUMP JUMPDEST PUSH1 0x40 MLOAD DUP1 SWAP2 SUB SWAP1 REVERT JUMPDEST PUSH2 0x1954 PUSH0 DUP4 DUP4 PUSH2 0x1B27 JUMP JUMPDEST POP POP JUMP JUMPDEST PUSH0 PUSH20 0xFFFFFFFFFFFFFFFFFFFFFFFFFFFFFFFFFFFFFFFF AND DUP5 PUSH20 0xFFFFFFFFFFFFFFFFFFFFFFFFFFFFFFFFFFFFFFFF AND SUB PUSH2 0x19C8 JUMPI PUSH0 PUSH1 0x40 MLOAD PUSH32 0xE602DF0500000000000000000000000000000000000000000000000000000000 DUP2 MSTORE PUSH1 0x4 ADD PUSH2 0x19BF SWAP2 SWAP1 PUSH2 0x2CB4 JUMP JUMPDEST PUSH1 0x40 MLOAD DUP1 SWAP2 SUB SWAP1 REVERT JUMPDEST PUSH0 PUSH20 0xFFFFFFFFFFFFFFFFFFFFFFFFFFFFFFFFFFFFFFFF AND DUP4 PUSH20 0xFFFFFFFFFFFFFFFFFFFFFFFFFFFFFFFFFFFFFFFF AND SUB PUSH2 0x1A38 JUMPI PUSH0 PUSH1 0x40 MLOAD PUSH32 0x94280D6200000000000000000000000000000000000000000000000000000000 DUP2 MSTORE PUSH1 0x4 ADD PUSH2 0x1A2F SWAP2 SWAP1 PUSH2 0x2CB4 JUMP JUMPDEST PUSH1 0x40 MLOAD DUP1 SWAP2 SUB SWAP1 REVERT JUMPDEST DUP2 PUSH1 0x1 PUSH0 DUP7 PUSH20 0xFFFFFFFFFFFFFFFFFFFFFFFFFFFFFFFFFFFFFFFF AND PUSH20 0xFFFFFFFFFFFFFFFFFFFFFFFFFFFFFFFFFFFFFFFF AND DUP2 MSTORE PUSH1 0x20 ADD SWAP1 DUP2 MSTORE PUSH1 0x20 ADD PUSH0 KECCAK256 PUSH0 DUP6 PUSH20 0xFFFFFFFFFFFFFFFFFFFFFFFFFFFFFFFFFFFFFFFF AND PUSH20 0xFFFFFFFFFFFFFFFFFFFFFFFFFFFFFFFFFFFFFFFF AND DUP2 MSTORE PUSH1 0x20 ADD SWAP1 DUP2 MSTORE PUSH1 0x20 ADD PUSH0 KECCAK256 DUP2 SWAP1 SSTORE POP DUP1 ISZERO PUSH2 0x1B21 JUMPI DUP3 PUSH20 0xFFFFFFFFFFFFFFFFFFFFFFFFFFFFFFFFFFFFFFFF AND DUP5 PUSH20 0xFFFFFFFFFFFFFFFFFFFFFFFFFFFFFFFFFFFFFFFF AND PUSH32 0x8C5BE1E5EBEC7D5BD14F71427D1E84F3DD0314C0F7B2291E5B200AC8C7C3B925 DUP5 PUSH1 0x40 MLOAD PUSH2 0x1B18 SWAP2 SWAP1 PUSH2 0x1DDA JUMP JUMPDEST PUSH1 0x40 MLOAD DUP1 SWAP2 SUB SWAP1 LOG3 JUMPDEST POP POP POP POP JUMP JUMPDEST PUSH0 PUSH20 0xFFFFFFFFFFFFFFFFFFFFFFFFFFFFFFFFFFFFFFFF AND DUP4 PUSH20 0xFFFFFFFFFFFFFFFFFFFFFFFFFFFFFFFFFFFFFFFF AND SUB PUSH2 0x1B77 JUMPI DUP1 PUSH1 0x2 PUSH0 DUP3 DUP3 SLOAD PUSH2 0x1B6B SWAP2 SWAP1 PUSH2 0x258C JUMP JUMPDEST SWAP3 POP POP DUP2 SWAP1 SSTORE POP PUSH2 0x1C45 JUMP JUMPDEST PUSH0 PUSH0 PUSH0 DUP6 PUSH20 0xFFFFFFFFFFFFFFFFFFFFFFFFFFFFFFFFFFFFFFFF AND PUSH20 0xFFFFFFFFFFFFFFFFFFFFFFFFFFFFFFFFFFFFFFFF AND DUP2 MSTORE PUSH1 0x20 ADD SWAP1 DUP2 MSTORE PUSH1 0x20 ADD PUSH0 KECCAK256 SLOAD SWAP1 POP DUP2 DUP2 LT ISZERO PUSH2 0x1C00 JUMPI DUP4 DUP2 DUP4 PUSH1 0x40 MLOAD PUSH32 0xE450D38C00000000000000000000000000000000000000000000000000000000 DUP2 MSTORE PUSH1 0x4 ADD PUSH2 0x1BF7 SWAP4 SWAP3 SWAP2 SWAP1 PUSH2 0x2C7F JUMP JUMPDEST PUSH1 0x40 MLOAD DUP1 SWAP2 SUB SWAP1 REVERT JUMPDEST DUP2 DUP2 SUB PUSH0 PUSH0 DUP7 PUSH20 0xFFFFFFFFFFFFFFFFFFFFFFFFFFFFFFFFFFFFFFFF AND PUSH20 0xFFFFFFFFFFFFFFFFFFFFFFFFFFFFFFFFFFFFFFFF AND DUP2 MSTORE PUSH1 0x20 ADD SWAP1 DUP2 MSTORE PUSH1 0x20 ADD PUSH0 KECCAK256 DUP2 SWAP1 SSTORE POP POP JUMPDEST PUSH0 PUSH20 0xFFFFFFFFFFFFFFFFFFFFFFFFFFFFFFFFFFFFFFFF AND DUP3 PUSH20 0xFFFFFFFFFFFFFFFFFFFFFFFFFFFFFFFFFFFFFFFF AND SUB PUSH2 0x1C8C JUMPI DUP1 PUSH1 0x2 PUSH0 DUP3 DUP3 SLOAD SUB SWAP3 POP POP DUP2 SWAP1 SSTORE POP PUSH2 0x1CD6 JUMP JUMPDEST DUP1 PUSH0 PUSH0 DUP5 PUSH20 0xFFFFFFFFFFFFFFFFFFFFFFFFFFFFFFFFFFFFFFFF AND PUSH20 0xFFFFFFFFFFFFFFFFFFFFFFFFFFFFFFFFFFFFFFFF AND DUP2 MSTORE PUSH1 0x20 ADD SWAP1 DUP2 MSTORE PUSH1 0x20 ADD PUSH0 KECCAK256 PUSH0 DUP3 DUP3 SLOAD ADD SWAP3 POP POP DUP2 SWAP1 SSTORE POP JUMPDEST DUP2 PUSH20 0xFFFFFFFFFFFFFFFFFFFFFFFFFFFFFFFFFFFFFFFF AND DUP4 PUSH20 0xFFFFFFFFFFFFFFFFFFFFFFFFFFFFFFFFFFFFFFFF AND PUSH32 0xDDF252AD1BE2C89B69C2B068FC378DAA952BA7F163C4A11628F55A4DF523B3EF DUP4 PUSH1 0x40 MLOAD PUSH2 0x1D33 SWAP2 SWAP1 PUSH2 0x1DDA JUMP JUMPDEST PUSH1 0x40 MLOAD DUP1 SWAP2 SUB SWAP1 LOG3 POP POP POP JUMP JUMPDEST PUSH0 PUSH0 REVERT JUMPDEST PUSH0 PUSH0 REVERT JUMPDEST PUSH0 DUP2 SWAP1 POP SWAP2 SWAP1 POP JUMP JUMPDEST PUSH2 0x1D5A DUP2 PUSH2 0x1D48 JUMP JUMPDEST DUP2 EQ PUSH2 0x1D64 JUMPI PUSH0 PUSH0 REVERT JUMPDEST POP JUMP JUMPDEST PUSH0 DUP2 CALLDATALOAD SWAP1 POP PUSH2 0x1D75 DUP2 PUSH2 0x1D51 JUMP JUMPDEST SWAP3 SWAP2 POP POP JUMP JUMPDEST PUSH0 PUSH0 PUSH0 PUSH1 0x60 DUP5 DUP7 SUB SLT ISZERO PUSH2 0x1D92 JUMPI PUSH2 0x1D91 PUSH2 0x1D40 JUMP JUMPDEST JUMPDEST PUSH0 PUSH2 0x1D9F DUP7 DUP3 DUP8 ADD PUSH2 0x1D67 JUMP JUMPDEST SWAP4 POP POP PUSH1 0x20 PUSH2 0x1DB0 DUP7 DUP3 DUP8 ADD PUSH2 0x1D67 JUMP JUMPDEST SWAP3 POP POP PUSH1 0x40 PUSH2 0x1DC1 DUP7 DUP3 DUP8 ADD PUSH2 0x1D67 JUMP JUMPDEST SWAP2 POP POP SWAP3 POP SWAP3 POP SWAP3 JUMP JUMPDEST PUSH2 0x1DD4 DUP2 PUSH2 0x1D48 JUMP JUMPDEST DUP3 MSTORE POP POP JUMP JUMPDEST PUSH0 PUSH1 0x20 DUP3 ADD SWAP1 POP PUSH2 0x1DED PUSH0 DUP4 ADD DUP5 PUSH2 0x1DCB JUMP JUMPDEST SWAP3 SWAP2 POP POP JUMP JUMPDEST PUSH0 DUP2 MLOAD SWAP1 POP SWAP2 SWAP1 POP JUMP JUMPDEST PUSH0 DUP3 DUP3 MSTORE PUSH1 0x20 DUP3 ADD SWAP1 POP SWAP3 SWAP2 POP POP JUMP JUMPDEST DUP3 DUP2 DUP4 MCOPY PUSH0 DUP4 DUP4 ADD MSTORE POP POP POP JUMP JUMPDEST PUSH0 PUSH1 0x1F NOT PUSH1 0x1F DUP4 ADD AND SWAP1 POP SWAP2 SWAP1 POP JUMP JUMPDEST PUSH0 PUSH2 0x1E35 DUP3 PUSH2 0x1DF3 JUMP JUMPDEST PUSH2 0x1E3F DUP2 DUP6 PUSH2 0x1DFD JUMP JUMPDEST SWAP4 POP PUSH2 0x1E4F DUP2 DUP6 PUSH1 0x20 DUP7 ADD PUSH2 0x1E0D JUMP JUMPDEST PUSH2 0x1E58 DUP2 PUSH2 0x1E1B JUMP JUMPDEST DUP5 ADD SWAP2 POP POP SWAP3 SWAP2 POP POP JUMP JUMPDEST PUSH0 PUSH1 0x20 DUP3 ADD SWAP1 POP DUP2 DUP2 SUB PUSH0 DUP4 ADD MSTORE PUSH2 0x1E7B DUP2 DUP5 PUSH2 0x1E2B JUMP JUMPDEST SWAP1 POP SWAP3 SWAP2 POP POP JUMP JUMPDEST PUSH0 PUSH20 0xFFFFFFFFFFFFFFFFFFFFFFFFFFFFFFFFFFFFFFFF DUP3 AND SWAP1 POP SWAP2 SWAP1 POP JUMP JUMPDEST PUSH0 PUSH2 0x1EAC DUP3 PUSH2 0x1E83 JUMP JUMPDEST SWAP1 POP SWAP2 SWAP1 POP JUMP JUMPDEST PUSH2 0x1EBC DUP2 PUSH2 0x1EA2 JUMP JUMPDEST DUP2 EQ PUSH2 0x1EC6 JUMPI PUSH0 PUSH0 REVERT JUMPDEST POP JUMP JUMPDEST PUSH0 DUP2 CALLDATALOAD SWAP1 POP PUSH2 0x1ED7 DUP2 PUSH2 0x1EB3 JUMP JUMPDEST SWAP3 SWAP2 POP POP JUMP JUMPDEST PUSH0 PUSH0 PUSH1 0x40 DUP4 DUP6 SUB SLT ISZERO PUSH2 0x1EF3 JUMPI PUSH2 0x1EF2 PUSH2 0x1D40 JUMP JUMPDEST JUMPDEST PUSH0 PUSH2 0x1F00 DUP6 DUP3 DUP7 ADD PUSH2 0x1EC9 JUMP JUMPDEST SWAP3 POP POP PUSH1 0x20 PUSH2 0x1F11 DUP6 DUP3 DUP7 ADD PUSH2 0x1D67 JUMP JUMPDEST SWAP2 POP POP SWAP3 POP SWAP3 SWAP1 POP JUMP JUMPDEST PUSH0 DUP2 ISZERO ISZERO SWAP1 POP SWAP2 SWAP1 POP JUMP JUMPDEST PUSH2 0x1F2F DUP2 PUSH2 0x1F1B JUMP JUMPDEST DUP3 MSTORE POP POP JUMP JUMPDEST PUSH0 PUSH1 0x20 DUP3 ADD SWAP1 POP PUSH2 0x1F48 PUSH0 DUP4 ADD DUP5 PUSH2 0x1F26 JUMP JUMPDEST SWAP3 SWAP2 POP POP JUMP JUMPDEST PUSH0 DUP2 SWAP1 POP SWAP2 SWAP1 POP JUMP JUMPDEST PUSH0 PUSH2 0x1F71 PUSH2 0x1F6C PUSH2 0x1F67 DUP5 PUSH2 0x1E83 JUMP JUMPDEST PUSH2 0x1F4E JUMP JUMPDEST PUSH2 0x1E83 JUMP JUMPDEST SWAP1 POP SWAP2 SWAP1 POP JUMP JUMPDEST PUSH0 PUSH2 0x1F82 DUP3 PUSH2 0x1F57 JUMP JUMPDEST SWAP1 POP SWAP2 SWAP1 POP JUMP JUMPDEST PUSH0 PUSH2 0x1F93 DUP3 PUSH2 0x1F78 JUMP JUMPDEST SWAP1 POP SWAP2 SWAP1 POP JUMP JUMPDEST PUSH2 0x1FA3 DUP2 PUSH2 0x1F89 JUMP JUMPDEST DUP3 MSTORE POP POP JUMP JUMPDEST PUSH0 PUSH1 0x20 DUP3 ADD SWAP1 POP PUSH2 0x1FBC PUSH0 DUP4 ADD DUP5 PUSH2 0x1F9A JUMP JUMPDEST SWAP3 SWAP2 POP POP JUMP JUMPDEST PUSH0 PUSH0 PUSH0 PUSH1 0x60 DUP5 DUP7 SUB SLT ISZERO PUSH2 0x1FD9 JUMPI PUSH2 0x1FD8 PUSH2 0x1D40 JUMP JUMPDEST JUMPDEST PUSH0 PUSH2 0x1FE6 DUP7 DUP3 DUP8 ADD PUSH2 0x1EC9 JUMP JUMPDEST SWAP4 POP POP PUSH1 0x20 PUSH2 0x1FF7 DUP7 DUP3 DUP8 ADD PUSH2 0x1EC9 JUMP JUMPDEST SWAP3 POP POP PUSH1 0x40 PUSH2 0x2008 DUP7 DUP3 DUP8 ADD PUSH2 0x1D67 JUMP JUMPDEST SWAP2 POP POP SWAP3 POP SWAP3 POP SWAP3 JUMP JUMPDEST PUSH0 PUSH1 0xFF DUP3 AND SWAP1 POP SWAP2 SWAP1 POP JUMP JUMPDEST PUSH2 0x2027 DUP2 PUSH2 0x2012 JUMP JUMPDEST DUP3 MSTORE POP POP JUMP JUMPDEST PUSH0 PUSH1 0x20 DUP3 ADD SWAP1 POP PUSH2 0x2040 PUSH0 DUP4 ADD DUP5 PUSH2 0x201E JUMP JUMPDEST SWAP3 SWAP2 POP POP JUMP JUMPDEST PUSH0 PUSH0 REVERT JUMPDEST PUSH0 PUSH0 REVERT JUMPDEST PUSH0 PUSH0 REVERT JUMPDEST PUSH0 PUSH0 DUP4 PUSH1 0x1F DUP5 ADD SLT PUSH2 0x2067 JUMPI PUSH2 0x2066 PUSH2 0x2046 JUMP JUMPDEST JUMPDEST DUP3 CALLDATALOAD SWAP1 POP PUSH8 0xFFFFFFFFFFFFFFFF DUP2 GT ISZERO PUSH2 0x2084 JUMPI PUSH2 0x2083 PUSH2 0x204A JUMP JUMPDEST JUMPDEST PUSH1 0x20 DUP4 ADD SWAP2 POP DUP4 PUSH1 0x20 DUP3 MUL DUP4 ADD GT ISZERO PUSH2 0x20A0 JUMPI PUSH2 0x209F PUSH2 0x204E JUMP JUMPDEST JUMPDEST SWAP3 POP SWAP3 SWAP1 POP JUMP JUMPDEST PUSH0 PUSH0 PUSH0 PUSH0 PUSH0 PUSH0 PUSH1 0xA0 DUP8 DUP10 SUB SLT ISZERO PUSH2 0x20C1 JUMPI PUSH2 0x20C0 PUSH2 0x1D40 JUMP JUMPDEST JUMPDEST PUSH0 PUSH2 0x20CE DUP10 DUP3 DUP11 ADD PUSH2 0x1D67 JUMP JUMPDEST SWAP7 POP POP PUSH1 0x20 PUSH2 0x20DF DUP10 DUP3 DUP11 ADD PUSH2 0x1D67 JUMP JUMPDEST SWAP6 POP POP PUSH1 0x40 DUP8 ADD CALLDATALOAD PUSH8 0xFFFFFFFFFFFFFFFF DUP2 GT ISZERO PUSH2 0x2100 JUMPI PUSH2 0x20FF PUSH2 0x1D44 JUMP JUMPDEST JUMPDEST PUSH2 0x210C DUP10 DUP3 DUP11 ADD PUSH2 0x2052 JUMP JUMPDEST SWAP5 POP SWAP5 POP POP PUSH1 0x60 PUSH2 0x211F DUP10 DUP3 DUP11 ADD PUSH2 0x1EC9 JUMP JUMPDEST SWAP3 POP POP PUSH1 0x80 PUSH2 0x2130 DUP10 DUP3 DUP11 ADD PUSH2 0x1D67 JUMP JUMPDEST SWAP2 POP POP SWAP3 SWAP6 POP SWAP3 SWAP6 POP SWAP3 SWAP6 JUMP JUMPDEST PUSH0 DUP2 MLOAD SWAP1 POP SWAP2 SWAP1 POP JUMP JUMPDEST PUSH0 DUP3 DUP3 MSTORE PUSH1 0x20 DUP3 ADD SWAP1 POP SWAP3 SWAP2 POP POP JUMP JUMPDEST PUSH0 DUP2 SWAP1 POP PUSH1 0x20 DUP3 ADD SWAP1 POP SWAP2 SWAP1 POP JUMP JUMPDEST PUSH2 0x216F DUP2 PUSH2 0x1D48 JUMP JUMPDEST DUP3 MSTORE POP POP JUMP JUMPDEST PUSH0 PUSH2 0x2180 DUP4 DUP4 PUSH2 0x2166 JUMP JUMPDEST PUSH1 0x20 DUP4 ADD SWAP1 POP SWAP3 SWAP2 POP POP JUMP JUMPDEST PUSH0 PUSH1 0x20 DUP3 ADD SWAP1 POP SWAP2 SWAP1 POP JUMP JUMPDEST PUSH0 PUSH2 0x21A2 DUP3 PUSH2 0x213D JUMP JUMPDEST PUSH2 0x21AC DUP2 DUP6 PUSH2 0x2147 JUMP JUMPDEST SWAP4 POP PUSH2 0x21B7 DUP4 PUSH2 0x2157 JUMP JUMPDEST DUP1 PUSH0 JUMPDEST DUP4 DUP2 LT ISZERO PUSH2 0x21E7 JUMPI DUP2 MLOAD PUSH2 0x21CE DUP9 DUP3 PUSH2 0x2175 JUMP JUMPDEST SWAP8 POP PUSH2 0x21D9 DUP4 PUSH2 0x218C JUMP JUMPDEST SWAP3 POP POP PUSH1 0x1 DUP2 ADD SWAP1 POP PUSH2 0x21BA JUMP JUMPDEST POP DUP6 SWAP4 POP POP POP POP SWAP3 SWAP2 POP POP JUMP JUMPDEST PUSH0 PUSH1 0x20 DUP3 ADD SWAP1 POP DUP2 DUP2 SUB PUSH0 DUP4 ADD MSTORE PUSH2 0x220C DUP2 DUP5 PUSH2 0x2198 JUMP JUMPDEST SWAP1 POP SWAP3 SWAP2 POP POP JUMP JUMPDEST PUSH0 PUSH1 0x20 DUP3 DUP5 SUB SLT ISZERO PUSH2 0x2229 JUMPI PUSH2 0x2228 PUSH2 0x1D40 JUMP JUMPDEST JUMPDEST PUSH0 PUSH2 0x2236 DUP5 DUP3 DUP6 ADD PUSH2 0x1EC9 JUMP JUMPDEST SWAP2 POP POP SWAP3 SWAP2 POP POP JUMP JUMPDEST PUSH0 PUSH0 PUSH1 0x40 DUP4 DUP6 SUB SLT ISZERO PUSH2 0x2255 JUMPI PUSH2 0x2254 PUSH2 0x1D40 JUMP JUMPDEST JUMPDEST PUSH0 PUSH2 0x2262 DUP6 DUP3 DUP7 ADD PUSH2 0x1EC9 JUMP JUMPDEST SWAP3 POP POP PUSH1 0x20 PUSH2 0x2273 DUP6 DUP3 DUP7 ADD PUSH2 0x1EC9 JUMP JUMPDEST SWAP2 POP POP SWAP3 POP SWAP3 SWAP1 POP JUMP JUMPDEST PUSH0 PUSH0 PUSH0 PUSH0 PUSH0 PUSH0 PUSH0 PUSH1 0xE0 DUP9 DUP11 SUB SLT ISZERO PUSH2 0x2298 JUMPI PUSH2 0x2297 PUSH2 0x1D40 JUMP JUMPDEST JUMPDEST PUSH0 PUSH2 0x22A5 DUP11 DUP3 DUP12 ADD PUSH2 0x1EC9 JUMP JUMPDEST SWAP8 POP POP PUSH1 0x20 PUSH2 0x22B6 DUP11 DUP3 DUP12 ADD PUSH2 0x1EC9 JUMP JUMPDEST SWAP7 POP POP PUSH1 0x40 PUSH2 0x22C7 DUP11 DUP3 DUP12 ADD PUSH2 0x1D67 JUMP JUMPDEST SWAP6 POP POP PUSH1 0x60 PUSH2 0x22D8 DUP11 DUP3 DUP12 ADD PUSH2 0x1D67 JUMP JUMPDEST SWAP5 POP POP PUSH1 0x80 PUSH2 0x22E9 DUP11 DUP3 DUP12 ADD PUSH2 0x1D67 JUMP JUMPDEST SWAP4 POP POP PUSH1 0xA0 PUSH2 0x22FA DUP11 DUP3 DUP12 ADD PUSH2 0x1EC9 JUMP JUMPDEST SWAP3 POP POP PUSH1 0xC0 PUSH2 0x230B DUP11 DUP3 DUP12 ADD PUSH2 0x1D67 JUMP JUMPDEST SWAP2 POP POP SWAP3 SWAP6 SWAP9 SWAP2 SWAP5 SWAP8 POP SWAP3 SWAP6 POP JUMP JUMPDEST PUSH0 PUSH1 0x40 DUP3 ADD SWAP1 POP PUSH2 0x232D PUSH0 DUP4 ADD DUP6 PUSH2 0x1DCB JUMP JUMPDEST PUSH2 0x233A PUSH1 0x20 DUP4 ADD DUP5 PUSH2 0x1DCB JUMP JUMPDEST SWAP4 SWAP3 POP POP POP JUMP JUMPDEST PUSH0 PUSH0 PUSH0 PUSH0 PUSH0 PUSH0 PUSH0 PUSH0 PUSH2 0x100 DUP10 DUP12 SUB SLT ISZERO PUSH2 0x235E JUMPI PUSH2 0x235D PUSH2 0x1D40 JUMP JUMPDEST JUMPDEST PUSH0 PUSH2 0x236B DUP12 DUP3 DUP13 ADD PUSH2 0x1EC9 JUMP JUMPDEST SWAP9 POP POP PUSH1 0x20 PUSH2 0x237C DUP12 DUP3 DUP13 ADD PUSH2 0x1EC9 JUMP JUMPDEST SWAP8 POP POP PUSH1 0x40 PUSH2 0x238D DUP12 DUP3 DUP13 ADD PUSH2 0x1D67 JUMP JUMPDEST SWAP7 POP POP PUSH1 0x60 PUSH2 0x239E DUP12 DUP3 DUP13 ADD PUSH2 0x1D67 JUMP JUMPDEST SWAP6 POP POP PUSH1 0x80 PUSH2 0x23AF DUP12 DUP3 DUP13 ADD PUSH2 0x1D67 JUMP JUMPDEST SWAP5 POP POP PUSH1 0xA0 PUSH2 0x23C0 DUP12 DUP3 DUP13 ADD PUSH2 0x1D67 JUMP JUMPDEST SWAP4 POP POP PUSH1 0xC0 PUSH2 0x23D1 DUP12 DUP3 DUP13 ADD PUSH2 0x1EC9 JUMP JUMPDEST SWAP3 POP POP PUSH1 0xE0 PUSH2 0x23E2 DUP12 DUP3 DUP13 ADD PUSH2 0x1D67 JUMP JUMPDEST SWAP2 POP POP SWAP3 SWAP6 SWAP9 POP SWAP3 SWAP6 SWAP9 SWAP1 SWAP4 SWAP7 POP JUMP JUMPDEST PUSH0 PUSH1 0x60 DUP3 ADD SWAP1 POP PUSH2 0x2405 PUSH0 DUP4 ADD DUP7 PUSH2 0x1DCB JUMP JUMPDEST PUSH2 0x2412 PUSH1 0x20 DUP4 ADD DUP6 PUSH2 0x1DCB JUMP JUMPDEST PUSH2 0x241F PUSH1 0x40 DUP4 ADD DUP5 PUSH2 0x1DCB JUMP JUMPDEST SWAP5 SWAP4 POP POP POP POP JUMP JUMPDEST PUSH32 0x496E76616C696420616D6F756E74496E00000000000000000000000000000000 PUSH0 DUP3 ADD MSTORE POP JUMP JUMPDEST PUSH0 PUSH2 0x245B PUSH1 0x10 DUP4 PUSH2 0x1DFD JUMP JUMPDEST SWAP2 POP PUSH2 0x2466 DUP3 PUSH2 0x2427 JUMP JUMPDEST PUSH1 0x20 DUP3 ADD SWAP1 POP SWAP2 SWAP1 POP JUMP JUMPDEST PUSH0 PUSH1 0x20 DUP3 ADD SWAP1 POP DUP2 DUP2 SUB PUSH0 DUP4 ADD MSTORE PUSH2 0x2488 DUP2 PUSH2 0x244F JUMP JUMPDEST SWAP1 POP SWAP2 SWAP1 POP JUMP JUMPDEST PUSH32 0x496E76616C69642072657365727665496E000000000000000000000000000000 PUSH0 DUP3 ADD MSTORE POP JUMP JUMPDEST PUSH0 PUSH2 0x24C3 PUSH1 0x11 DUP4 PUSH2 0x1DFD JUMP JUMPDEST SWAP2 POP PUSH2 0x24CE DUP3 PUSH2 0x248F JUMP JUMPDEST PUSH1 0x20 DUP3 ADD SWAP1 POP SWAP2 SWAP1 POP JUMP JUMPDEST PUSH0 PUSH1 0x20 DUP3 ADD SWAP1 POP DUP2 DUP2 SUB PUSH0 DUP4 ADD MSTORE PUSH2 0x24F0 DUP2 PUSH2 0x24B7 JUMP JUMPDEST SWAP1 POP SWAP2 SWAP1 POP JUMP JUMPDEST PUSH32 0x496E76616C696420726573657276654F75740000000000000000000000000000 PUSH0 DUP3 ADD MSTORE POP JUMP JUMPDEST PUSH0 PUSH2 0x252B PUSH1 0x12 DUP4 PUSH2 0x1DFD JUMP JUMPDEST SWAP2 POP PUSH2 0x2536 DUP3 PUSH2 0x24F7 JUMP JUMPDEST PUSH1 0x20 DUP3 ADD SWAP1 POP SWAP2 SWAP1 POP JUMP JUMPDEST PUSH0 PUSH1 0x20 DUP3 ADD SWAP1 POP DUP2 DUP2 SUB PUSH0 DUP4 ADD MSTORE PUSH2 0x2558 DUP2 PUSH2 0x251F JUMP JUMPDEST SWAP1 POP SWAP2 SWAP1 POP JUMP JUMPDEST PUSH32 0x4E487B7100000000000000000000000000000000000000000000000000000000 PUSH0 MSTORE PUSH1 0x11 PUSH1 0x4 MSTORE PUSH1 0x24 PUSH0 REVERT JUMPDEST PUSH0 PUSH2 0x2596 DUP3 PUSH2 0x1D48 JUMP JUMPDEST SWAP2 POP PUSH2 0x25A1 DUP4 PUSH2 0x1D48 JUMP JUMPDEST SWAP3 POP DUP3 DUP3 ADD SWAP1 POP DUP1 DUP3 GT ISZERO PUSH2 0x25B9 JUMPI PUSH2 0x25B8 PUSH2 0x255F JUMP JUMPDEST JUMPDEST SWAP3 SWAP2 POP POP JUMP JUMPDEST PUSH0 PUSH2 0x25C9 DUP3 PUSH2 0x1D48 JUMP JUMPDEST SWAP2 POP PUSH2 0x25D4 DUP4 PUSH2 0x1D48 JUMP JUMPDEST SWAP3 POP DUP3 DUP3 MUL PUSH2 0x25E2 DUP2 PUSH2 0x1D48 JUMP JUMPDEST SWAP2 POP DUP3 DUP3 DIV DUP5 EQ DUP4 ISZERO OR PUSH2 0x25F9 JUMPI PUSH2 0x25F8 PUSH2 0x255F JUMP JUMPDEST JUMPDEST POP SWAP3 SWAP2 POP POP JUMP JUMPDEST PUSH32 0x4E487B7100000000000000000000000000000000000000000000000000000000 PUSH0 MSTORE PUSH1 0x12 PUSH1 0x4 MSTORE PUSH1 0x24 PUSH0 REVERT JUMPDEST PUSH0 PUSH2 0x2637 DUP3 PUSH2 0x1D48 JUMP JUMPDEST SWAP2 POP PUSH2 0x2642 DUP4 PUSH2 0x1D48 JUMP JUMPDEST SWAP3 POP DUP3 PUSH2 0x2652 JUMPI PUSH2 0x2651 PUSH2 0x2600 JUMP JUMPDEST JUMPDEST DUP3 DUP3 DIV SWAP1 POP SWAP3 SWAP2 POP POP JUMP JUMPDEST PUSH32 0x4E487B7100000000000000000000000000000000000000000000000000000000 PUSH0 MSTORE PUSH1 0x22 PUSH1 0x4 MSTORE PUSH1 0x24 PUSH0 REVERT JUMPDEST PUSH0 PUSH1 0x2 DUP3 DIV SWAP1 POP PUSH1 0x1 DUP3 AND DUP1 PUSH2 0x26A1 JUMPI PUSH1 0x7F DUP3 AND SWAP2 POP JUMPDEST PUSH1 0x20 DUP3 LT DUP2 SUB PUSH2 0x26B4 JUMPI PUSH2 0x26B3 PUSH2 0x265D JUMP JUMPDEST JUMPDEST POP SWAP2 SWAP1 POP JUMP JUMPDEST PUSH32 0x496E76616C696420616D6F756E74730000000000000000000000000000000000 PUSH0 DUP3 ADD MSTORE POP JUMP JUMPDEST PUSH0 PUSH2 0x26EE PUSH1 0xF DUP4 PUSH2 0x1DFD JUMP JUMPDEST SWAP2 POP PUSH2 0x26F9 DUP3 PUSH2 0x26BA JUMP JUMPDEST PUSH1 0x20 DUP3 ADD SWAP1 POP SWAP2 SWAP1 POP JUMP JUMPDEST PUSH0 PUSH1 0x20 DUP3 ADD SWAP1 POP DUP2 DUP2 SUB PUSH0 DUP4 ADD MSTORE PUSH2 0x271B DUP2 PUSH2 0x26E2 JUMP JUMPDEST SWAP1 POP SWAP2 SWAP1 POP JUMP JUMPDEST PUSH32 0x5472616E73616374696F6E206578706972656400000000000000000000000000 PUSH0 DUP3 ADD MSTORE POP JUMP JUMPDEST PUSH0 PUSH2 0x2756 PUSH1 0x13 DUP4 PUSH2 0x1DFD JUMP JUMPDEST SWAP2 POP PUSH2 0x2761 DUP3 PUSH2 0x2722 JUMP JUMPDEST PUSH1 0x20 DUP3 ADD SWAP1 POP SWAP2 SWAP1 POP JUMP JUMPDEST PUSH0 PUSH1 0x20 DUP3 ADD SWAP1 POP DUP2 DUP2 SUB PUSH0 DUP4 ADD MSTORE PUSH2 0x2783 DUP2 PUSH2 0x274A JUMP JUMPDEST SWAP1 POP SWAP2 SWAP1 POP JUMP JUMPDEST PUSH32 0x496E76616C696420746F6B656E7320636F756E74000000000000000000000000 PUSH0 DUP3 ADD MSTORE POP JUMP JUMPDEST PUSH0 PUSH2 0x27BE PUSH1 0x14 DUP4 PUSH2 0x1DFD JUMP JUMPDEST SWAP2 POP PUSH2 0x27C9 DUP3 PUSH2 0x278A JUMP JUMPDEST PUSH1 0x20 DUP3 ADD SWAP1 POP SWAP2 SWAP1 POP JUMP JUMPDEST PUSH0 PUSH1 0x20 DUP3 ADD SWAP1 POP DUP2 DUP2 SUB PUSH0 DUP4 ADD MSTORE PUSH2 0x27EB DUP2 PUSH2 0x27B2 JUMP JUMPDEST SWAP1 POP SWAP2 SWAP1 POP JUMP JUMPDEST PUSH32 0x4E487B7100000000000000000000000000000000000000000000000000000000 PUSH0 MSTORE PUSH1 0x32 PUSH1 0x4 MSTORE PUSH1 0x24 PUSH0 REVERT JUMPDEST PUSH32 0x496E76616C696420746F6B656E73000000000000000000000000000000000000 PUSH0 DUP3 ADD MSTORE POP JUMP JUMPDEST PUSH0 PUSH2 0x2853 PUSH1 0xE DUP4 PUSH2 0x1DFD JUMP JUMPDEST SWAP2 POP PUSH2 0x285E DUP3 PUSH2 0x281F JUMP JUMPDEST PUSH1 0x20 DUP3 ADD SWAP1 POP SWAP2 SWAP1 POP JUMP JUMPDEST PUSH0 PUSH1 0x20 DUP3 ADD SWAP1 POP DUP2 DUP2 SUB PUSH0 DUP4 ADD MSTORE PUSH2 0x2880 DUP2 PUSH2 0x2847 JUMP JUMPDEST SWAP1 POP SWAP2 SWAP1 POP JUMP JUMPDEST PUSH2 0x2890 DUP2 PUSH2 0x1EA2 JUMP JUMPDEST DUP3 MSTORE POP POP JUMP JUMPDEST PUSH0 PUSH1 0x60 DUP3 ADD SWAP1 POP PUSH2 0x28A9 PUSH0 DUP4 ADD DUP7 PUSH2 0x2887 JUMP JUMPDEST PUSH2 0x28B6 PUSH1 0x20 DUP4 ADD DUP6 PUSH2 0x2887 JUMP JUMPDEST PUSH2 0x28C3 PUSH1 0x40 DUP4 ADD DUP5 PUSH2 0x1DCB JUMP JUMPDEST SWAP5 SWAP4 POP POP POP POP JUMP JUMPDEST PUSH2 0x28D4 DUP2 PUSH2 0x1F1B JUMP JUMPDEST DUP2 EQ PUSH2 0x28DE JUMPI PUSH0 PUSH0 REVERT JUMPDEST POP JUMP JUMPDEST PUSH0 DUP2 MLOAD SWAP1 POP PUSH2 0x28EF DUP2 PUSH2 0x28CB JUMP JUMPDEST SWAP3 SWAP2 POP POP JUMP JUMPDEST PUSH0 PUSH1 0x20 DUP3 DUP5 SUB SLT ISZERO PUSH2 0x290A JUMPI PUSH2 0x2909 PUSH2 0x1D40 JUMP JUMPDEST JUMPDEST PUSH0 PUSH2 0x2917 DUP5 DUP3 DUP6 ADD PUSH2 0x28E1 JUMP JUMPDEST SWAP2 POP POP SWAP3 SWAP2 POP POP JUMP JUMPDEST PUSH32 0x496E73756666696369656E74206F757470757420616D6F756E74000000000000 PUSH0 DUP3 ADD MSTORE POP JUMP JUMPDEST PUSH0 PUSH2 0x2954 PUSH1 0x1A DUP4 PUSH2 0x1DFD JUMP JUMPDEST SWAP2 POP PUSH2 0x295F DUP3 PUSH2 0x2920 JUMP JUMPDEST PUSH1 0x20 DUP3 ADD SWAP1 POP SWAP2 SWAP1 POP JUMP JUMPDEST PUSH0 PUSH1 0x20 DUP3 ADD SWAP1 POP DUP2 DUP2 SUB PUSH0 DUP4 ADD MSTORE PUSH2 0x2981 DUP2 PUSH2 0x2948 JUMP JUMPDEST SWAP1 POP SWAP2 SWAP1 POP JUMP JUMPDEST PUSH0 PUSH1 0x40 DUP3 ADD SWAP1 POP PUSH2 0x299B PUSH0 DUP4 ADD DUP6 PUSH2 0x2887 JUMP JUMPDEST PUSH2 0x29A8 PUSH1 0x20 DUP4 ADD DUP5 PUSH2 0x1DCB JUMP JUMPDEST SWAP4 SWAP3 POP POP POP JUMP JUMPDEST PUSH0 PUSH2 0x29B9 DUP3 PUSH2 0x1D48 JUMP JUMPDEST SWAP2 POP PUSH2 0x29C4 DUP4 PUSH2 0x1D48 JUMP JUMPDEST SWAP3 POP DUP3 DUP3 SUB SWAP1 POP DUP2 DUP2 GT ISZERO PUSH2 0x29DC JUMPI PUSH2 0x29DB PUSH2 0x255F JUMP JUMPDEST JUMPDEST SWAP3 SWAP2 POP POP JUMP JUMPDEST PUSH32 0x4E487B7100000000000000000000000000000000000000000000000000000000 PUSH0 MSTORE PUSH1 0x41 PUSH1 0x4 MSTORE PUSH1 0x24 PUSH0 REVERT JUMPDEST PUSH32 0x496E76616C696420726573657276657300000000000000000000000000000000 PUSH0 DUP3 ADD MSTORE POP JUMP JUMPDEST PUSH0 PUSH2 0x2A43 PUSH1 0x10 DUP4 PUSH2 0x1DFD JUMP JUMPDEST SWAP2 POP PUSH2 0x2A4E DUP3 PUSH2 0x2A0F JUMP JUMPDEST PUSH1 0x20 DUP3 ADD SWAP1 POP SWAP2 SWAP1 POP JUMP JUMPDEST PUSH0 PUSH1 0x20 DUP3 ADD SWAP1 POP DUP2 DUP2 SUB PUSH0 DUP4 ADD MSTORE PUSH2 0x2A70 DUP2 PUSH2 0x2A37 JUMP JUMPDEST SWAP1 POP SWAP2 SWAP1 POP JUMP JUMPDEST PUSH32 0x496E76616C6964206C6971756964697479000000000000000000000000000000 PUSH0 DUP3 ADD MSTORE POP JUMP JUMPDEST PUSH0 PUSH2 0x2AAB PUSH1 0x11 DUP4 PUSH2 0x1DFD JUMP JUMPDEST SWAP2 POP PUSH2 0x2AB6 DUP3 PUSH2 0x2A77 JUMP JUMPDEST PUSH1 0x20 DUP3 ADD SWAP1 POP SWAP2 SWAP1 POP JUMP JUMPDEST PUSH0 PUSH1 0x20 DUP3 ADD SWAP1 POP DUP2 DUP2 SUB PUSH0 DUP4 ADD MSTORE PUSH2 0x2AD8 DUP2 PUSH2 0x2A9F JUMP JUMPDEST SWAP1 POP SWAP2 SWAP1 POP JUMP JUMPDEST PUSH32 0x496E76616C696420616D6F756E7473206D696E00000000000000000000000000 PUSH0 DUP3 ADD MSTORE POP JUMP JUMPDEST PUSH0 PUSH2 0x2B13 PUSH1 0x13 DUP4 PUSH2 0x1DFD JUMP JUMPDEST SWAP2 POP PUSH2 0x2B1E DUP3 PUSH2 0x2ADF JUMP JUMPDEST PUSH1 0x20 DUP3 ADD SWAP1 POP SWAP2 SWAP1 POP JUMP JUMPDEST PUSH0 PUSH1 0x20 DUP3 ADD SWAP1 POP DUP2 DUP2 SUB PUSH0 DUP4 ADD MSTORE PUSH2 0x2B40 DUP2 PUSH2 0x2B07 JUMP JUMPDEST SWAP1 POP SWAP2 SWAP1 POP JUMP JUMPDEST PUSH32 0x496E76616C696420737570706C79000000000000000000000000000000000000 PUSH0 DUP3 ADD MSTORE POP JUMP JUMPDEST PUSH0 PUSH2 0x2B7B PUSH1 0xE DUP4 PUSH2 0x1DFD JUMP JUMPDEST SWAP2 POP PUSH2 0x2B86 DUP3 PUSH2 0x2B47 JUMP JUMPDEST PUSH1 0x20 DUP3 ADD SWAP1 POP SWAP2 SWAP1 POP JUMP JUMPDEST PUSH0 PUSH1 0x20 DUP3 ADD SWAP1 POP DUP2 DUP2 SUB PUSH0 DUP4 ADD MSTORE PUSH2 0x2BA8 DUP2 PUSH2 0x2B6F JUMP JUMPDEST SWAP1 POP SWAP2 SWAP1 POP JUMP JUMPDEST PUSH32 0x616D6F756E74412062656C6F77206D696E000000000000000000000000000000 PUSH0 DUP3 ADD MSTORE POP JUMP JUMPDEST PUSH0 PUSH2 0x2BE3 PUSH1 0x11 DUP4 PUSH2 0x1DFD JUMP JUMPDEST SWAP2 POP PUSH2 0x2BEE DUP3 PUSH2 0x2BAF JUMP JUMPDEST PUSH1 0x20 DUP3 ADD SWAP1 POP SWAP2 SWAP1 POP JUMP JUMPDEST PUSH0 PUSH1 0x20 DUP3 ADD SWAP1 POP DUP2 DUP2 SUB PUSH0 DUP4 ADD MSTORE PUSH2 0x2C10 DUP2 PUSH2 0x2BD7 JUMP JUMPDEST SWAP1 POP SWAP2 SWAP1 POP JUMP JUMPDEST PUSH32 0x616D6F756E74422062656C6F77206D696E000000000000000000000000000000 PUSH0 DUP3 ADD MSTORE POP JUMP JUMPDEST PUSH0 PUSH2 0x2C4B PUSH1 0x11 DUP4 PUSH2 0x1DFD JUMP JUMPDEST SWAP2 POP PUSH2 0x2C56 DUP3 PUSH2 0x2C17 JUMP JUMPDEST PUSH1 0x20 DUP3 ADD SWAP1 POP SWAP2 SWAP1 POP JUMP JUMPDEST PUSH0 PUSH1 0x20 DUP3 ADD SWAP1 POP DUP2 DUP2 SUB PUSH0 DUP4 ADD MSTORE PUSH2 0x2C78 DUP2 PUSH2 0x2C3F JUMP JUMPDEST SWAP1 POP SWAP2 SWAP1 POP JUMP JUMPDEST PUSH0 PUSH1 0x60 DUP3 ADD SWAP1 POP PUSH2 0x2C92 PUSH0 DUP4 ADD DUP7 PUSH2 0x2887 JUMP JUMPDEST PUSH2 0x2C9F PUSH1 0x20 DUP4 ADD DUP6 PUSH2 0x1DCB JUMP JUMPDEST PUSH2 0x2CAC PUSH1 0x40 DUP4 ADD DUP5 PUSH2 0x1DCB JUMP JUMPDEST SWAP5 SWAP4 POP POP POP POP JUMP JUMPDEST PUSH0 PUSH1 0x20 DUP3 ADD SWAP1 POP PUSH2 0x2CC7 PUSH0 DUP4 ADD DUP5 PUSH2 0x2887 JUMP JUMPDEST SWAP3 SWAP2 POP POP JUMP JUMPDEST PUSH32 0x616D6F756E744220746F6F206C6F770000000000000000000000000000000000 PUSH0 DUP3 ADD MSTORE POP JUMP JUMPDEST PUSH0 PUSH2 0x2D01 PUSH1 0xF DUP4 PUSH2 0x1DFD JUMP JUMPDEST SWAP2 POP PUSH2 0x2D0C DUP3 PUSH2 0x2CCD JUMP JUMPDEST PUSH1 0x20 DUP3 ADD SWAP1 POP SWAP2 SWAP1 POP JUMP JUMPDEST PUSH0 PUSH1 0x20 DUP3 ADD SWAP1 POP DUP2 DUP2 SUB PUSH0 DUP4 ADD MSTORE PUSH2 0x2D2E DUP2 PUSH2 0x2CF5 JUMP JUMPDEST SWAP1 POP SWAP2 SWAP1 POP JUMP JUMPDEST PUSH32 0x616D6F756E744120746F6F206C6F770000000000000000000000000000000000 PUSH0 DUP3 ADD MSTORE POP JUMP JUMPDEST PUSH0 PUSH2 0x2D69 PUSH1 0xF DUP4 PUSH2 0x1DFD JUMP JUMPDEST SWAP2 POP PUSH2 0x2D74 DUP3 PUSH2 0x2D35 JUMP JUMPDEST PUSH1 0x20 DUP3 ADD SWAP1 POP SWAP2 SWAP1 POP JUMP JUMPDEST PUSH0 PUSH1 0x20 DUP3 ADD SWAP1 POP DUP2 DUP2 SUB PUSH0 DUP4 ADD MSTORE PUSH2 0x2D96 DUP2 PUSH2 0x2D5D JUMP JUMPDEST SWAP1 POP SWAP2 SWAP1 POP JUMP INVALID LOG2 PUSH5 0x6970667358 0x22 SLT KECCAK256 0xED RETURN PUSH19 0x217FE8148DA4B445993BA77F039CE9C33BF45A SGT COINBASE SWAP15 0xB0 0xD5 SDIV DUP12 TIMESTAMP CALLVALUE 0xE9 PUSH5 0x736F6C6343 STOP ADDMOD 0x1E STOP CALLER "
				},
				"gasEstimates": {
					"creation": {
						"codeDepositCost": "2346200",
						"executionCost": "infinite",
						"totalCost": "infinite"
					},
					"external": {
						"addLiquidity(address,address,uint256,uint256,uint256,uint256,address,uint256)": "infinite",
						"allowance(address,address)": "infinite",
						"approve(address,uint256)": "infinite",
						"balanceOf(address)": "2873",
						"decimals()": "427",
						"getAmountOut(uint256,uint256,uint256)": "infinite",
						"getPrice(address,address)": "infinite",
						"name()": "infinite",
						"removeLiquidity(address,address,uint256,uint256,uint256,address,uint256)": "infinite",
						"reserveA()": "2491",
						"reserveB()": "2470",
						"swapExactTokensForTokens(uint256,uint256,address[],address,uint256)": "infinite",
						"symbol()": "infinite",
						"tokenA()": "infinite",
						"tokenB()": "infinite",
						"totalSupply()": "2455",
						"transfer(address,uint256)": "infinite",
						"transferFrom(address,address,uint256)": "infinite"
					},
					"internal": {
						"_calculateAmounts(uint256,uint256,uint256,uint256)": "infinite",
						"_min(uint256,uint256)": "63",
						"_sqrt(uint256)": "infinite"
					}
				},
				"methodIdentifiers": {
					"addLiquidity(address,address,uint256,uint256,uint256,uint256,address,uint256)": "e8e33700",
					"allowance(address,address)": "dd62ed3e",
					"approve(address,uint256)": "095ea7b3",
					"balanceOf(address)": "70a08231",
					"decimals()": "313ce567",
					"getAmountOut(uint256,uint256,uint256)": "054d50d4",
					"getPrice(address,address)": "ac41865a",
					"name()": "06fdde03",
					"removeLiquidity(address,address,uint256,uint256,uint256,address,uint256)": "baa2abde",
					"reserveA()": "dc5fa6c5",
					"reserveB()": "19e36f3b",
					"swapExactTokensForTokens(uint256,uint256,address[],address,uint256)": "38ed1739",
					"symbol()": "95d89b41",
					"tokenA()": "0fc63d10",
					"tokenB()": "5f64b55b",
					"totalSupply()": "18160ddd",
					"transfer(address,uint256)": "a9059cbb",
					"transferFrom(address,address,uint256)": "23b872dd"
				}
			},
			"storageLayout": {
				"storage": [
					{
						"astId": 159,
						"contract": "SimpleSwap.sol:SimpleSwap",
						"label": "_balances",
						"offset": 0,
						"slot": "0",
						"type": "t_mapping(t_address,t_uint256)"
					},
					{
						"astId": 165,
						"contract": "SimpleSwap.sol:SimpleSwap",
						"label": "_allowances",
						"offset": 0,
						"slot": "1",
						"type": "t_mapping(t_address,t_mapping(t_address,t_uint256))"
					},
					{
						"astId": 167,
						"contract": "SimpleSwap.sol:SimpleSwap",
						"label": "_totalSupply",
						"offset": 0,
						"slot": "2",
						"type": "t_uint256"
					},
					{
						"astId": 169,
						"contract": "SimpleSwap.sol:SimpleSwap",
						"label": "_name",
						"offset": 0,
						"slot": "3",
						"type": "t_string_storage"
					},
					{
						"astId": 171,
						"contract": "SimpleSwap.sol:SimpleSwap",
						"label": "_symbol",
						"offset": 0,
						"slot": "4",
						"type": "t_string_storage"
					},
					{
						"astId": 827,
						"contract": "SimpleSwap.sol:SimpleSwap",
						"label": "tokenA",
						"offset": 0,
						"slot": "5",
						"type": "t_contract(IERC20)729"
					},
					{
						"astId": 831,
						"contract": "SimpleSwap.sol:SimpleSwap",
						"label": "tokenB",
						"offset": 0,
						"slot": "6",
						"type": "t_contract(IERC20)729"
					},
					{
						"astId": 834,
						"contract": "SimpleSwap.sol:SimpleSwap",
						"label": "reserveA",
						"offset": 0,
						"slot": "7",
						"type": "t_uint256"
					},
					{
						"astId": 837,
						"contract": "SimpleSwap.sol:SimpleSwap",
						"label": "reserveB",
						"offset": 0,
						"slot": "8",
						"type": "t_uint256"
					}
				],
				"types": {
					"t_address": {
						"encoding": "inplace",
						"label": "address",
						"numberOfBytes": "20"
					},
					"t_contract(IERC20)729": {
						"encoding": "inplace",
						"label": "contract IERC20",
						"numberOfBytes": "20"
					},
					"t_mapping(t_address,t_mapping(t_address,t_uint256))": {
						"encoding": "mapping",
						"key": "t_address",
						"label": "mapping(address => mapping(address => uint256))",
						"numberOfBytes": "32",
						"value": "t_mapping(t_address,t_uint256)"
					},
					"t_mapping(t_address,t_uint256)": {
						"encoding": "mapping",
						"key": "t_address",
						"label": "mapping(address => uint256)",
						"numberOfBytes": "32",
						"value": "t_uint256"
					},
					"t_string_storage": {
						"encoding": "bytes",
						"label": "string",
						"numberOfBytes": "32"
					},
					"t_uint256": {
						"encoding": "inplace",
						"label": "uint256",
						"numberOfBytes": "32"
					}
				}
			},
			"userdoc": {
				"kind": "user",
				"methods": {
					"addLiquidity(address,address,uint256,uint256,uint256,uint256,address,uint256)": {
						"notice": "Adds liquidity to the pool and mints LP tokens to the user."
					},
					"constructor": {
						"notice": "Deploys the SimpleSwap contract with tokenA and tokenB addresses."
					},
					"getAmountOut(uint256,uint256,uint256)": {
						"notice": "Calculates the output token amount based on input and reserves."
					},
					"getPrice(address,address)": {
						"notice": "Returns the current price of tokenB per tokenA."
					},
					"removeLiquidity(address,address,uint256,uint256,uint256,address,uint256)": {
						"notice": "Removes liquidity from the pool and burns LP tokens."
					},
					"reserveA()": {
						"notice": "Current reserve of Token A."
					},
					"reserveB()": {
						"notice": "Current reserve of Token B."
					},
					"swapExactTokensForTokens(uint256,uint256,address[],address,uint256)": {
						"notice": "Swaps a fixed amount of token A for token B."
					},
					"tokenA()": {
						"notice": "Address of Token A in the pool."
					},
					"tokenB()": {
						"notice": "Address of Token B in the pool."
					}
				},
				"notice": "A basic implementation of a decentralized exchange (DEX) similar to Uniswap.",
				"version": 1
			}
		}
	}
}