{
	"LiquidityPool.sol": {
		"LiquidityPool": {
			"abi": [
				{
					"inputs": [
						{
							"internalType": "address",
							"name": "_tokenA",
							"type": "address"
						},
						{
							"internalType": "address",
							"name": "_tokenB",
							"type": "address"
						}
					],
					"stateMutability": "nonpayable",
					"type": "constructor"
				},
				{
					"inputs": [
						{
							"internalType": "address",
							"name": "spender",
							"type": "address"
						},
						{
							"internalType": "uint256",
							"name": "allowance",
							"type": "uint256"
						},
						{
							"internalType": "uint256",
							"name": "needed",
							"type": "uint256"
						}
					],
					"name": "ERC20InsufficientAllowance",
					"type": "error"
				},
				{
					"inputs": [
						{
							"internalType": "address",
							"name": "sender",
							"type": "address"
						},
						{
							"internalType": "uint256",
							"name": "balance",
							"type": "uint256"
						},
						{
							"internalType": "uint256",
							"name": "needed",
							"type": "uint256"
						}
					],
					"name": "ERC20InsufficientBalance",
					"type": "error"
				},
				{
					"inputs": [
						{
							"internalType": "address",
							"name": "approver",
							"type": "address"
						}
					],
					"name": "ERC20InvalidApprover",
					"type": "error"
				},
				{
					"inputs": [
						{
							"internalType": "address",
							"name": "receiver",
							"type": "address"
						}
					],
					"name": "ERC20InvalidReceiver",
					"type": "error"
				},
				{
					"inputs": [
						{
							"internalType": "address",
							"name": "sender",
							"type": "address"
						}
					],
					"name": "ERC20InvalidSender",
					"type": "error"
				},
				{
					"inputs": [
						{
							"internalType": "address",
							"name": "spender",
							"type": "address"
						}
					],
					"name": "ERC20InvalidSpender",
					"type": "error"
				},
				{
					"anonymous": false,
					"inputs": [
						{
							"indexed": true,
							"internalType": "address",
							"name": "owner",
							"type": "address"
						},
						{
							"indexed": true,
							"internalType": "address",
							"name": "spender",
							"type": "address"
						},
						{
							"indexed": false,
							"internalType": "uint256",
							"name": "value",
							"type": "uint256"
						}
					],
					"name": "Approval",
					"type": "event"
				},
				{
					"anonymous": false,
					"inputs": [
						{
							"indexed": false,
							"internalType": "string",
							"name": "txt",
							"type": "string"
						}
					],
					"name": "Debug",
					"type": "event"
				},
				{
					"anonymous": false,
					"inputs": [
						{
							"indexed": true,
							"internalType": "address",
							"name": "from",
							"type": "address"
						},
						{
							"indexed": true,
							"internalType": "address",
							"name": "to",
							"type": "address"
						},
						{
							"indexed": false,
							"internalType": "uint256",
							"name": "value",
							"type": "uint256"
						}
					],
					"name": "Transfer",
					"type": "event"
				},
				{
					"inputs": [
						{
							"internalType": "address",
							"name": "_tokenA",
							"type": "address"
						},
						{
							"internalType": "address",
							"name": "_tokenB",
							"type": "address"
						},
						{
							"internalType": "uint256",
							"name": "amountADesired",
							"type": "uint256"
						},
						{
							"internalType": "uint256",
							"name": "amountBDesired",
							"type": "uint256"
						},
						{
							"internalType": "uint256",
							"name": "amountAMin",
							"type": "uint256"
						},
						{
							"internalType": "uint256",
							"name": "amountBMin",
							"type": "uint256"
						},
						{
							"internalType": "address",
							"name": "to",
							"type": "address"
						},
						{
							"internalType": "uint256",
							"name": "deadline",
							"type": "uint256"
						}
					],
					"name": "addLiquidity",
					"outputs": [
						{
							"internalType": "uint256",
							"name": "amountA",
							"type": "uint256"
						},
						{
							"internalType": "uint256",
							"name": "amountB",
							"type": "uint256"
						},
						{
							"internalType": "uint256",
							"name": "liquidity",
							"type": "uint256"
						}
					],
					"stateMutability": "nonpayable",
					"type": "function"
				},
				{
					"inputs": [
						{
							"internalType": "address",
							"name": "owner",
							"type": "address"
						},
						{
							"internalType": "address",
							"name": "spender",
							"type": "address"
						}
					],
					"name": "allowance",
					"outputs": [
						{
							"internalType": "uint256",
							"name": "",
							"type": "uint256"
						}
					],
					"stateMutability": "view",
					"type": "function"
				},
				{
					"inputs": [
						{
							"internalType": "address",
							"name": "spender",
							"type": "address"
						},
						{
							"internalType": "uint256",
							"name": "value",
							"type": "uint256"
						}
					],
					"name": "approve",
					"outputs": [
						{
							"internalType": "bool",
							"name": "",
							"type": "bool"
						}
					],
					"stateMutability": "nonpayable",
					"type": "function"
				},
				{
					"inputs": [
						{
							"internalType": "address",
							"name": "account",
							"type": "address"
						}
					],
					"name": "balanceOf",
					"outputs": [
						{
							"internalType": "uint256",
							"name": "",
							"type": "uint256"
						}
					],
					"stateMutability": "view",
					"type": "function"
				},
				{
					"inputs": [],
					"name": "decimals",
					"outputs": [
						{
							"internalType": "uint8",
							"name": "",
							"type": "uint8"
						}
					],
					"stateMutability": "view",
					"type": "function"
				},
				{
					"inputs": [
						{
							"internalType": "uint256",
							"name": "amountIn",
							"type": "uint256"
						},
						{
							"internalType": "uint256",
							"name": "reserveIn",
							"type": "uint256"
						},
						{
							"internalType": "uint256",
							"name": "reserveOut",
							"type": "uint256"
						}
					],
					"name": "getAmountOut",
					"outputs": [
						{
							"internalType": "uint256",
							"name": "amountOut",
							"type": "uint256"
						}
					],
					"stateMutability": "pure",
					"type": "function"
				},
				{
					"inputs": [
						{
							"internalType": "address",
							"name": "_tokenA",
							"type": "address"
						},
						{
							"internalType": "address",
							"name": "_tokenB",
							"type": "address"
						}
					],
					"name": "getPrice",
					"outputs": [
						{
							"internalType": "uint256",
							"name": "price",
							"type": "uint256"
						}
					],
					"stateMutability": "view",
					"type": "function"
				},
				{
					"inputs": [],
					"name": "name",
					"outputs": [
						{
							"internalType": "string",
							"name": "",
							"type": "string"
						}
					],
					"stateMutability": "view",
					"type": "function"
				},
				{
					"inputs": [
						{
							"internalType": "address",
							"name": "_tokenA",
							"type": "address"
						},
						{
							"internalType": "address",
							"name": "_tokenB",
							"type": "address"
						},
						{
							"internalType": "uint256",
							"name": "liquidity",
							"type": "uint256"
						},
						{
							"internalType": "uint256",
							"name": "amountAMin",
							"type": "uint256"
						},
						{
							"internalType": "uint256",
							"name": "amountBMin",
							"type": "uint256"
						},
						{
							"internalType": "address",
							"name": "to",
							"type": "address"
						},
						{
							"internalType": "uint256",
							"name": "deadline",
							"type": "uint256"
						}
					],
					"name": "removeLiquidity",
					"outputs": [
						{
							"internalType": "uint256",
							"name": "amountA",
							"type": "uint256"
						},
						{
							"internalType": "uint256",
							"name": "amountB",
							"type": "uint256"
						}
					],
					"stateMutability": "nonpayable",
					"type": "function"
				},
				{
					"inputs": [],
					"name": "reserveA",
					"outputs": [
						{
							"internalType": "uint256",
							"name": "",
							"type": "uint256"
						}
					],
					"stateMutability": "view",
					"type": "function"
				},
				{
					"inputs": [],
					"name": "reserveB",
					"outputs": [
						{
							"internalType": "uint256",
							"name": "",
							"type": "uint256"
						}
					],
					"stateMutability": "view",
					"type": "function"
				},
				{
					"inputs": [
						{
							"internalType": "uint256",
							"name": "amountIn",
							"type": "uint256"
						},
						{
							"internalType": "uint256",
							"name": "amountOutMin",
							"type": "uint256"
						},
						{
							"internalType": "address[]",
							"name": "path",
							"type": "address[]"
						},
						{
							"internalType": "address",
							"name": "to",
							"type": "address"
						},
						{
							"internalType": "uint256",
							"name": "deadline",
							"type": "uint256"
						}
					],
					"name": "swapExactTokensForTokens",
					"outputs": [
						{
							"internalType": "uint256[]",
							"name": "amounts",
							"type": "uint256[]"
						}
					],
					"stateMutability": "nonpayable",
					"type": "function"
				},
				{
					"inputs": [],
					"name": "symbol",
					"outputs": [
						{
							"internalType": "string",
							"name": "",
							"type": "string"
						}
					],
					"stateMutability": "view",
					"type": "function"
				},
				{
					"inputs": [],
					"name": "tokenA",
					"outputs": [
						{
							"internalType": "contract IERC20",
							"name": "",
							"type": "address"
						}
					],
					"stateMutability": "view",
					"type": "function"
				},
				{
					"inputs": [],
					"name": "tokenB",
					"outputs": [
						{
							"internalType": "contract IERC20",
							"name": "",
							"type": "address"
						}
					],
					"stateMutability": "view",
					"type": "function"
				},
				{
					"inputs": [],
					"name": "totalSupply",
					"outputs": [
						{
							"internalType": "uint256",
							"name": "",
							"type": "uint256"
						}
					],
					"stateMutability": "view",
					"type": "function"
				},
				{
					"inputs": [
						{
							"internalType": "address",
							"name": "to",
							"type": "address"
						},
						{
							"internalType": "uint256",
							"name": "value",
							"type": "uint256"
						}
					],
					"name": "transfer",
					"outputs": [
						{
							"internalType": "bool",
							"name": "",
							"type": "bool"
						}
					],
					"stateMutability": "nonpayable",
					"type": "function"
				},
				{
					"inputs": [
						{
							"internalType": "address",
							"name": "from",
							"type": "address"
						},
						{
							"internalType": "address",
							"name": "to",
							"type": "address"
						},
						{
							"internalType": "uint256",
							"name": "value",
							"type": "uint256"
						}
					],
					"name": "transferFrom",
					"outputs": [
						{
							"internalType": "bool",
							"name": "",
							"type": "bool"
						}
					],
					"stateMutability": "nonpayable",
					"type": "function"
				}
			],
			"devdoc": {
				"errors": {
					"ERC20InsufficientAllowance(address,uint256,uint256)": [
						{
							"details": "Indicates a failure with the `spender`’s `allowance`. Used in transfers.",
							"params": {
								"allowance": "Amount of tokens a `spender` is allowed to operate with.",
								"needed": "Minimum amount required to perform a transfer.",
								"spender": "Address that may be allowed to operate on tokens without being their owner."
							}
						}
					],
					"ERC20InsufficientBalance(address,uint256,uint256)": [
						{
							"details": "Indicates an error related to the current `balance` of a `sender`. Used in transfers.",
							"params": {
								"balance": "Current balance for the interacting account.",
								"needed": "Minimum amount required to perform a transfer.",
								"sender": "Address whose tokens are being transferred."
							}
						}
					],
					"ERC20InvalidApprover(address)": [
						{
							"details": "Indicates a failure with the `approver` of a token to be approved. Used in approvals.",
							"params": {
								"approver": "Address initiating an approval operation."
							}
						}
					],
					"ERC20InvalidReceiver(address)": [
						{
							"details": "Indicates a failure with the token `receiver`. Used in transfers.",
							"params": {
								"receiver": "Address to which tokens are being transferred."
							}
						}
					],
					"ERC20InvalidSender(address)": [
						{
							"details": "Indicates a failure with the token `sender`. Used in transfers.",
							"params": {
								"sender": "Address whose tokens are being transferred."
							}
						}
					],
					"ERC20InvalidSpender(address)": [
						{
							"details": "Indicates a failure with the `spender` to be approved. Used in approvals.",
							"params": {
								"spender": "Address that may be allowed to operate on tokens without being their owner."
							}
						}
					]
				},
				"events": {
					"Approval(address,address,uint256)": {
						"details": "Emitted when the allowance of a `spender` for an `owner` is set by a call to {approve}. `value` is the new allowance."
					},
					"Transfer(address,address,uint256)": {
						"details": "Emitted when `value` tokens are moved from one account (`from`) to another (`to`). Note that `value` may be zero."
					}
				},
				"kind": "dev",
				"methods": {
					"allowance(address,address)": {
						"details": "See {IERC20-allowance}."
					},
					"approve(address,uint256)": {
						"details": "See {IERC20-approve}. NOTE: If `value` is the maximum `uint256`, the allowance is not updated on `transferFrom`. This is semantically equivalent to an infinite approval. Requirements: - `spender` cannot be the zero address."
					},
					"balanceOf(address)": {
						"details": "See {IERC20-balanceOf}."
					},
					"decimals()": {
						"details": "Returns the number of decimals used to get its user representation. For example, if `decimals` equals `2`, a balance of `505` tokens should be displayed to a user as `5.05` (`505 / 10 ** 2`). Tokens usually opt for a value of 18, imitating the relationship between Ether and Wei. This is the default value returned by this function, unless it's overridden. NOTE: This information is only used for _display_ purposes: it in no way affects any of the arithmetic of the contract, including {IERC20-balanceOf} and {IERC20-transfer}."
					},
					"name()": {
						"details": "Returns the name of the token."
					},
					"symbol()": {
						"details": "Returns the symbol of the token, usually a shorter version of the name."
					},
					"totalSupply()": {
						"details": "See {IERC20-totalSupply}."
					},
					"transfer(address,uint256)": {
						"details": "See {IERC20-transfer}. Requirements: - `to` cannot be the zero address. - the caller must have a balance of at least `value`."
					},
					"transferFrom(address,address,uint256)": {
						"details": "See {IERC20-transferFrom}. Skips emitting an {Approval} event indicating an allowance update. This is not required by the ERC. See {xref-ERC20-_approve-address-address-uint256-bool-}[_approve]. NOTE: Does not update the allowance if the current allowance is the maximum `uint256`. Requirements: - `from` and `to` cannot be the zero address. - `from` must have a balance of at least `value`. - the caller must have allowance for ``from``'s tokens of at least `value`."
					}
				},
				"version": 1
			},
			"evm": {
				"assembly": "    /* \"LiquidityPool.sol\":177:13529  contract LiquidityPool is ERC20 {... */\n  mstore(0x40, 0x80)\n    /* \"LiquidityPool.sol\":456:628  constructor(address _tokenA, address _tokenB) ERC20(\"LP Token\", \"LPT\") {... */\n  callvalue\n  dup1\n  iszero\n  tag_1\n  jumpi\n  revert(0x00, 0x00)\ntag_1:\n  pop\n  mload(0x40)\n  sub(codesize, bytecodeSize)\n  dup1\n  bytecodeSize\n  dup4\n  codecopy\n  dup2\n  dup2\n  add\n  0x40\n  mstore\n  dup2\n  add\n  swap1\n  tag_2\n  swap2\n  swap1\n  tag_3\n  jump\t// in\ntag_2:\n    /* \"@openzeppelin/contracts/token/ERC20/ERC20.sol\":1582:1695  constructor(string memory name_, string memory symbol_) {... */\n  mload(0x40)\n  dup1\n  0x40\n  add\n  0x40\n  mstore\n  dup1\n  0x08\n  dup2\n  mstore\n  0x20\n  add\n  0x4c5020546f6b656e000000000000000000000000000000000000000000000000\n  dup2\n  mstore\n  pop\n  mload(0x40)\n  dup1\n  0x40\n  add\n  0x40\n  mstore\n  dup1\n  0x03\n  dup2\n  mstore\n  0x20\n  add\n  0x4c50540000000000000000000000000000000000000000000000000000000000\n  dup2\n  mstore\n  pop\n    /* \"@openzeppelin/contracts/token/ERC20/ERC20.sol\":1656:1661  name_ */\n  dup2\n    /* \"@openzeppelin/contracts/token/ERC20/ERC20.sol\":1648:1653  _name */\n  0x03\n    /* \"@openzeppelin/contracts/token/ERC20/ERC20.sol\":1648:1661  _name = name_ */\n  swap1\n  dup2\n  tag_7\n  swap2\n  swap1\n  tag_8\n  jump\t// in\ntag_7:\n  pop\n    /* \"@openzeppelin/contracts/token/ERC20/ERC20.sol\":1681:1688  symbol_ */\n  dup1\n    /* \"@openzeppelin/contracts/token/ERC20/ERC20.sol\":1671:1678  _symbol */\n  0x04\n    /* \"@openzeppelin/contracts/token/ERC20/ERC20.sol\":1671:1688  _symbol = symbol_ */\n  swap1\n  dup2\n  tag_9\n  swap2\n  swap1\n  tag_8\n  jump\t// in\ntag_9:\n  pop\n    /* \"@openzeppelin/contracts/token/ERC20/ERC20.sol\":1582:1695  constructor(string memory name_, string memory symbol_) {... */\n  pop\n  pop\n    /* \"LiquidityPool.sol\":554:561  _tokenA */\n  dup2\n    /* \"LiquidityPool.sol\":538:544  tokenA */\n  0x05\n  0x00\n    /* \"LiquidityPool.sol\":538:562  tokenA = IERC20(_tokenA) */\n  0x0100\n  exp\n  dup2\n  sload\n  dup2\n  0xffffffffffffffffffffffffffffffffffffffff\n  mul\n  not\n  and\n  swap1\n  dup4\n  0xffffffffffffffffffffffffffffffffffffffff\n  and\n  mul\n  or\n  swap1\n  sstore\n  pop\n    /* \"LiquidityPool.sol\":589:596  _tokenB */\n  dup1\n    /* \"LiquidityPool.sol\":573:579  tokenB */\n  0x06\n  0x00\n    /* \"LiquidityPool.sol\":573:597  tokenB = IERC20(_tokenB) */\n  0x0100\n  exp\n  dup2\n  sload\n  dup2\n  0xffffffffffffffffffffffffffffffffffffffff\n  mul\n  not\n  and\n  swap1\n  dup4\n  0xffffffffffffffffffffffffffffffffffffffff\n  and\n  mul\n  or\n  swap1\n  sstore\n  pop\n    /* \"LiquidityPool.sol\":456:628  constructor(address _tokenA, address _tokenB) ERC20(\"LP Token\", \"LPT\") {... */\n  pop\n  pop\n    /* \"LiquidityPool.sol\":177:13529  contract LiquidityPool is ERC20 {... */\n  jump(tag_11)\n    /* \"#utility.yul\":88:205   */\ntag_13:\n    /* \"#utility.yul\":197:198   */\n  0x00\n    /* \"#utility.yul\":194:195   */\n  0x00\n    /* \"#utility.yul\":187:199   */\n  revert\n    /* \"#utility.yul\":334:460   */\ntag_15:\n    /* \"#utility.yul\":371:378   */\n  0x00\n    /* \"#utility.yul\":411:453   */\n  0xffffffffffffffffffffffffffffffffffffffff\n    /* \"#utility.yul\":404:409   */\n  dup3\n    /* \"#utility.yul\":400:454   */\n  and\n    /* \"#utility.yul\":389:454   */\n  swap1\n  pop\n    /* \"#utility.yul\":334:460   */\n  swap2\n  swap1\n  pop\n  jump\t// out\n    /* \"#utility.yul\":466:562   */\ntag_16:\n    /* \"#utility.yul\":503:510   */\n  0x00\n    /* \"#utility.yul\":532:556   */\n  tag_45\n    /* \"#utility.yul\":550:555   */\n  dup3\n    /* \"#utility.yul\":532:556   */\n  tag_15\n  jump\t// in\ntag_45:\n    /* \"#utility.yul\":521:556   */\n  swap1\n  pop\n    /* \"#utility.yul\":466:562   */\n  swap2\n  swap1\n  pop\n  jump\t// out\n    /* \"#utility.yul\":568:690   */\ntag_17:\n    /* \"#utility.yul\":641:665   */\n  tag_47\n    /* \"#utility.yul\":659:664   */\n  dup2\n    /* \"#utility.yul\":641:665   */\n  tag_16\n  jump\t// in\ntag_47:\n    /* \"#utility.yul\":634:639   */\n  dup2\n    /* \"#utility.yul\":631:666   */\n  eq\n    /* \"#utility.yul\":621:684   */\n  tag_48\n  jumpi\n    /* \"#utility.yul\":680:681   */\n  0x00\n    /* \"#utility.yul\":677:678   */\n  0x00\n    /* \"#utility.yul\":670:682   */\n  revert\n    /* \"#utility.yul\":621:684   */\ntag_48:\n    /* \"#utility.yul\":568:690   */\n  pop\n  jump\t// out\n    /* \"#utility.yul\":696:839   */\ntag_18:\n    /* \"#utility.yul\":753:758   */\n  0x00\n    /* \"#utility.yul\":784:790   */\n  dup2\n    /* \"#utility.yul\":778:791   */\n  mload\n    /* \"#utility.yul\":769:791   */\n  swap1\n  pop\n    /* \"#utility.yul\":800:833   */\n  tag_50\n    /* \"#utility.yul\":827:832   */\n  dup2\n    /* \"#utility.yul\":800:833   */\n  tag_17\n  jump\t// in\ntag_50:\n    /* \"#utility.yul\":696:839   */\n  swap3\n  swap2\n  pop\n  pop\n  jump\t// out\n    /* \"#utility.yul\":845:1352   */\ntag_3:\n    /* \"#utility.yul\":924:930   */\n  0x00\n    /* \"#utility.yul\":932:938   */\n  0x00\n    /* \"#utility.yul\":981:983   */\n  0x40\n    /* \"#utility.yul\":969:978   */\n  dup4\n    /* \"#utility.yul\":960:967   */\n  dup6\n    /* \"#utility.yul\":956:979   */\n  sub\n    /* \"#utility.yul\":952:984   */\n  slt\n    /* \"#utility.yul\":949:1068   */\n  iszero\n  tag_52\n  jumpi\n    /* \"#utility.yul\":987:1066   */\n  tag_53\n  tag_13\n  jump\t// in\ntag_53:\n    /* \"#utility.yul\":949:1068   */\ntag_52:\n    /* \"#utility.yul\":1107:1108   */\n  0x00\n    /* \"#utility.yul\":1132:1196   */\n  tag_54\n    /* \"#utility.yul\":1188:1195   */\n  dup6\n    /* \"#utility.yul\":1179:1185   */\n  dup3\n    /* \"#utility.yul\":1168:1177   */\n  dup7\n    /* \"#utility.yul\":1164:1186   */\n  add\n    /* \"#utility.yul\":1132:1196   */\n  tag_18\n  jump\t// in\ntag_54:\n    /* \"#utility.yul\":1122:1196   */\n  swap3\n  pop\n    /* \"#utility.yul\":1078:1206   */\n  pop\n    /* \"#utility.yul\":1245:1247   */\n  0x20\n    /* \"#utility.yul\":1271:1335   */\n  tag_55\n    /* \"#utility.yul\":1327:1334   */\n  dup6\n    /* \"#utility.yul\":1318:1324   */\n  dup3\n    /* \"#utility.yul\":1307:1316   */\n  dup7\n    /* \"#utility.yul\":1303:1325   */\n  add\n    /* \"#utility.yul\":1271:1335   */\n  tag_18\n  jump\t// in\ntag_55:\n    /* \"#utility.yul\":1261:1335   */\n  swap2\n  pop\n    /* \"#utility.yul\":1216:1345   */\n  pop\n    /* \"#utility.yul\":845:1352   */\n  swap3\n  pop\n  swap3\n  swap1\n  pop\n  jump\t// out\n    /* \"#utility.yul\":1358:1457   */\ntag_19:\n    /* \"#utility.yul\":1410:1416   */\n  0x00\n    /* \"#utility.yul\":1444:1449   */\n  dup2\n    /* \"#utility.yul\":1438:1450   */\n  mload\n    /* \"#utility.yul\":1428:1450   */\n  swap1\n  pop\n    /* \"#utility.yul\":1358:1457   */\n  swap2\n  swap1\n  pop\n  jump\t// out\n    /* \"#utility.yul\":1463:1643   */\ntag_20:\n    /* \"#utility.yul\":1511:1588   */\n  0x4e487b7100000000000000000000000000000000000000000000000000000000\n    /* \"#utility.yul\":1508:1509   */\n  0x00\n    /* \"#utility.yul\":1501:1589   */\n  mstore\n    /* \"#utility.yul\":1608:1612   */\n  0x41\n    /* \"#utility.yul\":1605:1606   */\n  0x04\n    /* \"#utility.yul\":1598:1613   */\n  mstore\n    /* \"#utility.yul\":1632:1636   */\n  0x24\n    /* \"#utility.yul\":1629:1630   */\n  0x00\n    /* \"#utility.yul\":1622:1637   */\n  revert\n    /* \"#utility.yul\":1649:1829   */\ntag_21:\n    /* \"#utility.yul\":1697:1774   */\n  0x4e487b7100000000000000000000000000000000000000000000000000000000\n    /* \"#utility.yul\":1694:1695   */\n  0x00\n    /* \"#utility.yul\":1687:1775   */\n  mstore\n    /* \"#utility.yul\":1794:1798   */\n  0x22\n    /* \"#utility.yul\":1791:1792   */\n  0x04\n    /* \"#utility.yul\":1784:1799   */\n  mstore\n    /* \"#utility.yul\":1818:1822   */\n  0x24\n    /* \"#utility.yul\":1815:1816   */\n  0x00\n    /* \"#utility.yul\":1808:1823   */\n  revert\n    /* \"#utility.yul\":1835:2155   */\ntag_22:\n    /* \"#utility.yul\":1879:1885   */\n  0x00\n    /* \"#utility.yul\":1916:1917   */\n  0x02\n    /* \"#utility.yul\":1910:1914   */\n  dup3\n    /* \"#utility.yul\":1906:1918   */\n  div\n    /* \"#utility.yul\":1896:1918   */\n  swap1\n  pop\n    /* \"#utility.yul\":1963:1964   */\n  0x01\n    /* \"#utility.yul\":1957:1961   */\n  dup3\n    /* \"#utility.yul\":1953:1965   */\n  and\n    /* \"#utility.yul\":1984:2002   */\n  dup1\n    /* \"#utility.yul\":1974:2055   */\n  tag_60\n  jumpi\n    /* \"#utility.yul\":2040:2044   */\n  0x7f\n    /* \"#utility.yul\":2032:2038   */\n  dup3\n    /* \"#utility.yul\":2028:2045   */\n  and\n    /* \"#utility.yul\":2018:2045   */\n  swap2\n  pop\n    /* \"#utility.yul\":1974:2055   */\ntag_60:\n    /* \"#utility.yul\":2102:2104   */\n  0x20\n    /* \"#utility.yul\":2094:2100   */\n  dup3\n    /* \"#utility.yul\":2091:2105   */\n  lt\n    /* \"#utility.yul\":2071:2089   */\n  dup2\n    /* \"#utility.yul\":2068:2106   */\n  sub\n    /* \"#utility.yul\":2065:2149   */\n  tag_61\n  jumpi\n    /* \"#utility.yul\":2121:2139   */\n  tag_62\n  tag_21\n  jump\t// in\ntag_62:\n    /* \"#utility.yul\":2065:2149   */\ntag_61:\n    /* \"#utility.yul\":1886:2155   */\n  pop\n    /* \"#utility.yul\":1835:2155   */\n  swap2\n  swap1\n  pop\n  jump\t// out\n    /* \"#utility.yul\":2161:2302   */\ntag_23:\n    /* \"#utility.yul\":2210:2214   */\n  0x00\n    /* \"#utility.yul\":2233:2236   */\n  dup2\n    /* \"#utility.yul\":2225:2236   */\n  swap1\n  pop\n    /* \"#utility.yul\":2256:2259   */\n  dup2\n    /* \"#utility.yul\":2253:2254   */\n  0x00\n    /* \"#utility.yul\":2246:2260   */\n  mstore\n    /* \"#utility.yul\":2290:2294   */\n  0x20\n    /* \"#utility.yul\":2287:2288   */\n  0x00\n    /* \"#utility.yul\":2277:2295   */\n  keccak256\n    /* \"#utility.yul\":2269:2295   */\n  swap1\n  pop\n    /* \"#utility.yul\":2161:2302   */\n  swap2\n  swap1\n  pop\n  jump\t// out\n    /* \"#utility.yul\":2308:2401   */\ntag_24:\n    /* \"#utility.yul\":2345:2351   */\n  0x00\n    /* \"#utility.yul\":2392:2394   */\n  0x20\n    /* \"#utility.yul\":2387:2389   */\n  0x1f\n    /* \"#utility.yul\":2380:2385   */\n  dup4\n    /* \"#utility.yul\":2376:2390   */\n  add\n    /* \"#utility.yul\":2372:2395   */\n  div\n    /* \"#utility.yul\":2362:2395   */\n  swap1\n  pop\n    /* \"#utility.yul\":2308:2401   */\n  swap2\n  swap1\n  pop\n  jump\t// out\n    /* \"#utility.yul\":2407:2514   */\ntag_25:\n    /* \"#utility.yul\":2451:2459   */\n  0x00\n    /* \"#utility.yul\":2501:2506   */\n  dup3\n    /* \"#utility.yul\":2495:2499   */\n  dup3\n    /* \"#utility.yul\":2491:2507   */\n  shl\n    /* \"#utility.yul\":2470:2507   */\n  swap1\n  pop\n    /* \"#utility.yul\":2407:2514   */\n  swap3\n  swap2\n  pop\n  pop\n  jump\t// out\n    /* \"#utility.yul\":2520:2913   */\ntag_26:\n    /* \"#utility.yul\":2589:2595   */\n  0x00\n    /* \"#utility.yul\":2639:2640   */\n  0x08\n    /* \"#utility.yul\":2627:2637   */\n  dup4\n    /* \"#utility.yul\":2623:2641   */\n  mul\n    /* \"#utility.yul\":2662:2759   */\n  tag_67\n    /* \"#utility.yul\":2692:2758   */\n  0xffffffffffffffffffffffffffffffffffffffffffffffffffffffffffffffff\n    /* \"#utility.yul\":2681:2690   */\n  dup3\n    /* \"#utility.yul\":2662:2759   */\n  tag_25\n  jump\t// in\ntag_67:\n    /* \"#utility.yul\":2780:2819   */\n  tag_68\n    /* \"#utility.yul\":2810:2818   */\n  dup7\n    /* \"#utility.yul\":2799:2808   */\n  dup4\n    /* \"#utility.yul\":2780:2819   */\n  tag_25\n  jump\t// in\ntag_68:\n    /* \"#utility.yul\":2768:2819   */\n  swap6\n  pop\n    /* \"#utility.yul\":2852:2856   */\n  dup1\n    /* \"#utility.yul\":2848:2857   */\n  not\n    /* \"#utility.yul\":2841:2846   */\n  dup5\n    /* \"#utility.yul\":2837:2858   */\n  and\n    /* \"#utility.yul\":2828:2858   */\n  swap4\n  pop\n    /* \"#utility.yul\":2901:2905   */\n  dup1\n    /* \"#utility.yul\":2891:2899   */\n  dup7\n    /* \"#utility.yul\":2887:2906   */\n  and\n    /* \"#utility.yul\":2880:2885   */\n  dup5\n    /* \"#utility.yul\":2877:2907   */\n  or\n    /* \"#utility.yul\":2867:2907   */\n  swap3\n  pop\n    /* \"#utility.yul\":2596:2913   */\n  pop\n  pop\n    /* \"#utility.yul\":2520:2913   */\n  swap4\n  swap3\n  pop\n  pop\n  pop\n  jump\t// out\n    /* \"#utility.yul\":2919:2996   */\ntag_27:\n    /* \"#utility.yul\":2956:2963   */\n  0x00\n    /* \"#utility.yul\":2985:2990   */\n  dup2\n    /* \"#utility.yul\":2974:2990   */\n  swap1\n  pop\n    /* \"#utility.yul\":2919:2996   */\n  swap2\n  swap1\n  pop\n  jump\t// out\n    /* \"#utility.yul\":3002:3062   */\ntag_28:\n    /* \"#utility.yul\":3030:3033   */\n  0x00\n    /* \"#utility.yul\":3051:3056   */\n  dup2\n    /* \"#utility.yul\":3044:3056   */\n  swap1\n  pop\n    /* \"#utility.yul\":3002:3062   */\n  swap2\n  swap1\n  pop\n  jump\t// out\n    /* \"#utility.yul\":3068:3210   */\ntag_29:\n    /* \"#utility.yul\":3118:3127   */\n  0x00\n    /* \"#utility.yul\":3151:3204   */\n  tag_72\n    /* \"#utility.yul\":3169:3203   */\n  tag_73\n    /* \"#utility.yul\":3178:3202   */\n  tag_74\n    /* \"#utility.yul\":3196:3201   */\n  dup5\n    /* \"#utility.yul\":3178:3202   */\n  tag_27\n  jump\t// in\ntag_74:\n    /* \"#utility.yul\":3169:3203   */\n  tag_28\n  jump\t// in\ntag_73:\n    /* \"#utility.yul\":3151:3204   */\n  tag_27\n  jump\t// in\ntag_72:\n    /* \"#utility.yul\":3138:3204   */\n  swap1\n  pop\n    /* \"#utility.yul\":3068:3210   */\n  swap2\n  swap1\n  pop\n  jump\t// out\n    /* \"#utility.yul\":3216:3291   */\ntag_30:\n    /* \"#utility.yul\":3259:3262   */\n  0x00\n    /* \"#utility.yul\":3280:3285   */\n  dup2\n    /* \"#utility.yul\":3273:3285   */\n  swap1\n  pop\n    /* \"#utility.yul\":3216:3291   */\n  swap2\n  swap1\n  pop\n  jump\t// out\n    /* \"#utility.yul\":3297:3566   */\ntag_31:\n    /* \"#utility.yul\":3407:3446   */\n  tag_77\n    /* \"#utility.yul\":3438:3445   */\n  dup4\n    /* \"#utility.yul\":3407:3446   */\n  tag_29\n  jump\t// in\ntag_77:\n    /* \"#utility.yul\":3468:3559   */\n  tag_78\n    /* \"#utility.yul\":3517:3558   */\n  tag_79\n    /* \"#utility.yul\":3541:3557   */\n  dup3\n    /* \"#utility.yul\":3517:3558   */\n  tag_30\n  jump\t// in\ntag_79:\n    /* \"#utility.yul\":3509:3515   */\n  dup5\n    /* \"#utility.yul\":3502:3506   */\n  dup5\n    /* \"#utility.yul\":3496:3507   */\n  sload\n    /* \"#utility.yul\":3468:3559   */\n  tag_26\n  jump\t// in\ntag_78:\n    /* \"#utility.yul\":3462:3466   */\n  dup3\n    /* \"#utility.yul\":3455:3560   */\n  sstore\n    /* \"#utility.yul\":3373:3566   */\n  pop\n    /* \"#utility.yul\":3297:3566   */\n  pop\n  pop\n  pop\n  jump\t// out\n    /* \"#utility.yul\":3572:3645   */\ntag_32:\n    /* \"#utility.yul\":3617:3620   */\n  0x00\n    /* \"#utility.yul\":3638:3639   */\n  0x00\n    /* \"#utility.yul\":3631:3639   */\n  swap1\n  pop\n    /* \"#utility.yul\":3572:3645   */\n  swap1\n  jump\t// out\n    /* \"#utility.yul\":3651:3840   */\ntag_33:\n    /* \"#utility.yul\":3728:3760   */\n  tag_82\n  tag_32\n  jump\t// in\ntag_82:\n    /* \"#utility.yul\":3769:3834   */\n  tag_83\n    /* \"#utility.yul\":3827:3833   */\n  dup2\n    /* \"#utility.yul\":3819:3825   */\n  dup5\n    /* \"#utility.yul\":3813:3817   */\n  dup5\n    /* \"#utility.yul\":3769:3834   */\n  tag_31\n  jump\t// in\ntag_83:\n    /* \"#utility.yul\":3704:3840   */\n  pop\n    /* \"#utility.yul\":3651:3840   */\n  pop\n  pop\n  jump\t// out\n    /* \"#utility.yul\":3846:4032   */\ntag_34:\n    /* \"#utility.yul\":3906:4026   */\ntag_85:\n    /* \"#utility.yul\":3923:3926   */\n  dup2\n    /* \"#utility.yul\":3916:3921   */\n  dup2\n    /* \"#utility.yul\":3913:3927   */\n  lt\n    /* \"#utility.yul\":3906:4026   */\n  iszero\n  tag_87\n  jumpi\n    /* \"#utility.yul\":3977:4016   */\n  tag_88\n    /* \"#utility.yul\":4014:4015   */\n  0x00\n    /* \"#utility.yul\":4007:4012   */\n  dup3\n    /* \"#utility.yul\":3977:4016   */\n  tag_33\n  jump\t// in\ntag_88:\n    /* \"#utility.yul\":3950:3951   */\n  0x01\n    /* \"#utility.yul\":3943:3948   */\n  dup2\n    /* \"#utility.yul\":3939:3952   */\n  add\n    /* \"#utility.yul\":3930:3952   */\n  swap1\n  pop\n    /* \"#utility.yul\":3906:4026   */\n  jump(tag_85)\ntag_87:\n    /* \"#utility.yul\":3846:4032   */\n  pop\n  pop\n  jump\t// out\n    /* \"#utility.yul\":4038:4581   */\ntag_35:\n    /* \"#utility.yul\":4139:4141   */\n  0x1f\n    /* \"#utility.yul\":4134:4137   */\n  dup3\n    /* \"#utility.yul\":4131:4142   */\n  gt\n    /* \"#utility.yul\":4128:4574   */\n  iszero\n  tag_90\n  jumpi\n    /* \"#utility.yul\":4173:4211   */\n  tag_91\n    /* \"#utility.yul\":4205:4210   */\n  dup2\n    /* \"#utility.yul\":4173:4211   */\n  tag_23\n  jump\t// in\ntag_91:\n    /* \"#utility.yul\":4257:4286   */\n  tag_92\n    /* \"#utility.yul\":4275:4285   */\n  dup5\n    /* \"#utility.yul\":4257:4286   */\n  tag_24\n  jump\t// in\ntag_92:\n    /* \"#utility.yul\":4247:4255   */\n  dup2\n    /* \"#utility.yul\":4243:4287   */\n  add\n    /* \"#utility.yul\":4440:4442   */\n  0x20\n    /* \"#utility.yul\":4428:4438   */\n  dup6\n    /* \"#utility.yul\":4425:4443   */\n  lt\n    /* \"#utility.yul\":4422:4471   */\n  iszero\n  tag_93\n  jumpi\n    /* \"#utility.yul\":4461:4469   */\n  dup2\n    /* \"#utility.yul\":4446:4469   */\n  swap1\n  pop\n    /* \"#utility.yul\":4422:4471   */\ntag_93:\n    /* \"#utility.yul\":4484:4564   */\n  tag_94\n    /* \"#utility.yul\":4540:4562   */\n  tag_95\n    /* \"#utility.yul\":4558:4561   */\n  dup6\n    /* \"#utility.yul\":4540:4562   */\n  tag_24\n  jump\t// in\ntag_95:\n    /* \"#utility.yul\":4530:4538   */\n  dup4\n    /* \"#utility.yul\":4526:4563   */\n  add\n    /* \"#utility.yul\":4513:4524   */\n  dup3\n    /* \"#utility.yul\":4484:4564   */\n  tag_34\n  jump\t// in\ntag_94:\n    /* \"#utility.yul\":4143:4574   */\n  pop\n  pop\n    /* \"#utility.yul\":4128:4574   */\ntag_90:\n    /* \"#utility.yul\":4038:4581   */\n  pop\n  pop\n  pop\n  jump\t// out\n    /* \"#utility.yul\":4587:4704   */\ntag_36:\n    /* \"#utility.yul\":4641:4649   */\n  0x00\n    /* \"#utility.yul\":4691:4696   */\n  dup3\n    /* \"#utility.yul\":4685:4689   */\n  dup3\n    /* \"#utility.yul\":4681:4697   */\n  shr\n    /* \"#utility.yul\":4660:4697   */\n  swap1\n  pop\n    /* \"#utility.yul\":4587:4704   */\n  swap3\n  swap2\n  pop\n  pop\n  jump\t// out\n    /* \"#utility.yul\":4710:4879   */\ntag_37:\n    /* \"#utility.yul\":4754:4760   */\n  0x00\n    /* \"#utility.yul\":4787:4838   */\n  tag_98\n    /* \"#utility.yul\":4835:4836   */\n  0x00\n    /* \"#utility.yul\":4831:4837   */\n  not\n    /* \"#utility.yul\":4823:4828   */\n  dup5\n    /* \"#utility.yul\":4820:4821   */\n  0x08\n    /* \"#utility.yul\":4816:4829   */\n  mul\n    /* \"#utility.yul\":4787:4838   */\n  tag_36\n  jump\t// in\ntag_98:\n    /* \"#utility.yul\":4783:4839   */\n  not\n    /* \"#utility.yul\":4868:4872   */\n  dup1\n    /* \"#utility.yul\":4862:4866   */\n  dup4\n    /* \"#utility.yul\":4858:4873   */\n  and\n    /* \"#utility.yul\":4848:4873   */\n  swap2\n  pop\n    /* \"#utility.yul\":4761:4879   */\n  pop\n    /* \"#utility.yul\":4710:4879   */\n  swap3\n  swap2\n  pop\n  pop\n  jump\t// out\n    /* \"#utility.yul\":4884:5179   */\ntag_38:\n    /* \"#utility.yul\":4960:4964   */\n  0x00\n    /* \"#utility.yul\":5106:5135   */\n  tag_100\n    /* \"#utility.yul\":5131:5134   */\n  dup4\n    /* \"#utility.yul\":5125:5129   */\n  dup4\n    /* \"#utility.yul\":5106:5135   */\n  tag_37\n  jump\t// in\ntag_100:\n    /* \"#utility.yul\":5098:5135   */\n  swap2\n  pop\n    /* \"#utility.yul\":5168:5171   */\n  dup3\n    /* \"#utility.yul\":5165:5166   */\n  0x02\n    /* \"#utility.yul\":5161:5172   */\n  mul\n    /* \"#utility.yul\":5155:5159   */\n  dup3\n    /* \"#utility.yul\":5152:5173   */\n  or\n    /* \"#utility.yul\":5144:5173   */\n  swap1\n  pop\n    /* \"#utility.yul\":4884:5179   */\n  swap3\n  swap2\n  pop\n  pop\n  jump\t// out\n    /* \"#utility.yul\":5184:6579   */\ntag_8:\n    /* \"#utility.yul\":5301:5338   */\n  tag_102\n    /* \"#utility.yul\":5334:5337   */\n  dup3\n    /* \"#utility.yul\":5301:5338   */\n  tag_19\n  jump\t// in\ntag_102:\n    /* \"#utility.yul\":5403:5421   */\n  0xffffffffffffffff\n    /* \"#utility.yul\":5395:5401   */\n  dup2\n    /* \"#utility.yul\":5392:5422   */\n  gt\n    /* \"#utility.yul\":5389:5445   */\n  iszero\n  tag_103\n  jumpi\n    /* \"#utility.yul\":5425:5443   */\n  tag_104\n  tag_20\n  jump\t// in\ntag_104:\n    /* \"#utility.yul\":5389:5445   */\ntag_103:\n    /* \"#utility.yul\":5469:5507   */\n  tag_105\n    /* \"#utility.yul\":5501:5505   */\n  dup3\n    /* \"#utility.yul\":5495:5506   */\n  sload\n    /* \"#utility.yul\":5469:5507   */\n  tag_22\n  jump\t// in\ntag_105:\n    /* \"#utility.yul\":5554:5621   */\n  tag_106\n    /* \"#utility.yul\":5614:5620   */\n  dup3\n    /* \"#utility.yul\":5606:5612   */\n  dup3\n    /* \"#utility.yul\":5600:5604   */\n  dup6\n    /* \"#utility.yul\":5554:5621   */\n  tag_35\n  jump\t// in\ntag_106:\n    /* \"#utility.yul\":5648:5649   */\n  0x00\n    /* \"#utility.yul\":5672:5676   */\n  0x20\n    /* \"#utility.yul\":5659:5676   */\n  swap1\n  pop\n    /* \"#utility.yul\":5704:5706   */\n  0x1f\n    /* \"#utility.yul\":5696:5702   */\n  dup4\n    /* \"#utility.yul\":5693:5707   */\n  gt\n    /* \"#utility.yul\":5721:5722   */\n  0x01\n    /* \"#utility.yul\":5716:6334   */\n  dup2\n  eq\n  tag_108\n  jumpi\n    /* \"#utility.yul\":6378:6379   */\n  0x00\n    /* \"#utility.yul\":6395:6401   */\n  dup5\n    /* \"#utility.yul\":6392:6469   */\n  iszero\n  tag_109\n  jumpi\n    /* \"#utility.yul\":6444:6453   */\n  dup3\n    /* \"#utility.yul\":6439:6442   */\n  dup8\n    /* \"#utility.yul\":6435:6454   */\n  add\n    /* \"#utility.yul\":6429:6455   */\n  mload\n    /* \"#utility.yul\":6420:6455   */\n  swap1\n  pop\n    /* \"#utility.yul\":6392:6469   */\ntag_109:\n    /* \"#utility.yul\":6495:6562   */\n  tag_110\n    /* \"#utility.yul\":6555:6561   */\n  dup6\n    /* \"#utility.yul\":6548:6553   */\n  dup3\n    /* \"#utility.yul\":6495:6562   */\n  tag_38\n  jump\t// in\ntag_110:\n    /* \"#utility.yul\":6489:6493   */\n  dup7\n    /* \"#utility.yul\":6482:6563   */\n  sstore\n    /* \"#utility.yul\":6351:6573   */\n  pop\n    /* \"#utility.yul\":5686:6573   */\n  jump(tag_107)\n    /* \"#utility.yul\":5716:6334   */\ntag_108:\n    /* \"#utility.yul\":5768:5772   */\n  0x1f\n    /* \"#utility.yul\":5764:5773   */\n  not\n    /* \"#utility.yul\":5756:5762   */\n  dup5\n    /* \"#utility.yul\":5752:5774   */\n  and\n    /* \"#utility.yul\":5802:5839   */\n  tag_111\n    /* \"#utility.yul\":5834:5838   */\n  dup7\n    /* \"#utility.yul\":5802:5839   */\n  tag_23\n  jump\t// in\ntag_111:\n    /* \"#utility.yul\":5861:5862   */\n  0x00\n    /* \"#utility.yul\":5875:6083   */\ntag_112:\n    /* \"#utility.yul\":5889:5896   */\n  dup3\n    /* \"#utility.yul\":5886:5887   */\n  dup2\n    /* \"#utility.yul\":5883:5897   */\n  lt\n    /* \"#utility.yul\":5875:6083   */\n  iszero\n  tag_114\n  jumpi\n    /* \"#utility.yul\":5968:5977   */\n  dup5\n    /* \"#utility.yul\":5963:5966   */\n  dup10\n    /* \"#utility.yul\":5959:5978   */\n  add\n    /* \"#utility.yul\":5953:5979   */\n  mload\n    /* \"#utility.yul\":5945:5951   */\n  dup3\n    /* \"#utility.yul\":5938:5980   */\n  sstore\n    /* \"#utility.yul\":6019:6020   */\n  0x01\n    /* \"#utility.yul\":6011:6017   */\n  dup3\n    /* \"#utility.yul\":6007:6021   */\n  add\n    /* \"#utility.yul\":5997:6021   */\n  swap2\n  pop\n    /* \"#utility.yul\":6066:6068   */\n  0x20\n    /* \"#utility.yul\":6055:6064   */\n  dup6\n    /* \"#utility.yul\":6051:6069   */\n  add\n    /* \"#utility.yul\":6038:6069   */\n  swap5\n  pop\n    /* \"#utility.yul\":5912:5916   */\n  0x20\n    /* \"#utility.yul\":5909:5910   */\n  dup2\n    /* \"#utility.yul\":5905:5917   */\n  add\n    /* \"#utility.yul\":5900:5917   */\n  swap1\n  pop\n    /* \"#utility.yul\":5875:6083   */\n  jump(tag_112)\ntag_114:\n    /* \"#utility.yul\":6111:6117   */\n  dup7\n    /* \"#utility.yul\":6102:6109   */\n  dup4\n    /* \"#utility.yul\":6099:6118   */\n  lt\n    /* \"#utility.yul\":6096:6275   */\n  iszero\n  tag_115\n  jumpi\n    /* \"#utility.yul\":6169:6178   */\n  dup5\n    /* \"#utility.yul\":6164:6167   */\n  dup10\n    /* \"#utility.yul\":6160:6179   */\n  add\n    /* \"#utility.yul\":6154:6180   */\n  mload\n    /* \"#utility.yul\":6212:6260   */\n  tag_116\n    /* \"#utility.yul\":6254:6258   */\n  0x1f\n    /* \"#utility.yul\":6246:6252   */\n  dup10\n    /* \"#utility.yul\":6242:6259   */\n  and\n    /* \"#utility.yul\":6231:6240   */\n  dup3\n    /* \"#utility.yul\":6212:6260   */\n  tag_37\n  jump\t// in\ntag_116:\n    /* \"#utility.yul\":6204:6210   */\n  dup4\n    /* \"#utility.yul\":6197:6261   */\n  sstore\n    /* \"#utility.yul\":6119:6275   */\n  pop\n    /* \"#utility.yul\":6096:6275   */\ntag_115:\n    /* \"#utility.yul\":6321:6322   */\n  0x01\n    /* \"#utility.yul\":6317:6318   */\n  0x02\n    /* \"#utility.yul\":6309:6315   */\n  dup9\n    /* \"#utility.yul\":6305:6319   */\n  mul\n    /* \"#utility.yul\":6301:6323   */\n  add\n    /* \"#utility.yul\":6295:6299   */\n  dup9\n    /* \"#utility.yul\":6288:6324   */\n  sstore\n    /* \"#utility.yul\":5723:6334   */\n  pop\n  pop\n  pop\n    /* \"#utility.yul\":5686:6573   */\ntag_107:\n  pop\n    /* \"#utility.yul\":5276:6579   */\n  pop\n  pop\n  pop\n    /* \"#utility.yul\":5184:6579   */\n  pop\n  pop\n  jump\t// out\n    /* \"LiquidityPool.sol\":177:13529  contract LiquidityPool is ERC20 {... */\ntag_11:\n  dataSize(sub_0)\n  dup1\n  dataOffset(sub_0)\n  0x00\n  codecopy\n  0x00\n  return\nstop\n\nsub_0: assembly {\n        /* \"LiquidityPool.sol\":177:13529  contract LiquidityPool is ERC20 {... */\n      mstore(0x40, 0x80)\n      callvalue\n      dup1\n      iszero\n      tag_1\n      jumpi\n      revert(0x00, 0x00)\n    tag_1:\n      pop\n      jumpi(tag_2, lt(calldatasize, 0x04))\n      shr(0xe0, calldataload(0x00))\n      dup1\n      0x5f64b55b\n      gt\n      tag_21\n      jumpi\n      dup1\n      0xac41865a\n      gt\n      tag_22\n      jumpi\n      dup1\n      0xac41865a\n      eq\n      tag_16\n      jumpi\n      dup1\n      0xbaa2abde\n      eq\n      tag_17\n      jumpi\n      dup1\n      0xdc5fa6c5\n      eq\n      tag_18\n      jumpi\n      dup1\n      0xdd62ed3e\n      eq\n      tag_19\n      jumpi\n      dup1\n      0xe8e33700\n      eq\n      tag_20\n      jumpi\n      jump(tag_2)\n    tag_22:\n      dup1\n      0x5f64b55b\n      eq\n      tag_12\n      jumpi\n      dup1\n      0x70a08231\n      eq\n      tag_13\n      jumpi\n      dup1\n      0x95d89b41\n      eq\n      tag_14\n      jumpi\n      dup1\n      0xa9059cbb\n      eq\n      tag_15\n      jumpi\n      jump(tag_2)\n    tag_21:\n      dup1\n      0x18160ddd\n      gt\n      tag_23\n      jumpi\n      dup1\n      0x18160ddd\n      eq\n      tag_7\n      jumpi\n      dup1\n      0x19e36f3b\n      eq\n      tag_8\n      jumpi\n      dup1\n      0x23b872dd\n      eq\n      tag_9\n      jumpi\n      dup1\n      0x313ce567\n      eq\n      tag_10\n      jumpi\n      dup1\n      0x38ed1739\n      eq\n      tag_11\n      jumpi\n      jump(tag_2)\n    tag_23:\n      dup1\n      0x054d50d4\n      eq\n      tag_3\n      jumpi\n      dup1\n      0x06fdde03\n      eq\n      tag_4\n      jumpi\n      dup1\n      0x095ea7b3\n      eq\n      tag_5\n      jumpi\n      dup1\n      0x0fc63d10\n      eq\n      tag_6\n      jumpi\n    tag_2:\n      revert(0x00, 0x00)\n        /* \"LiquidityPool.sol\":13033:13524  function getAmountOut(uint amountIn, uint reserveIn, uint reserveOut) external pure returns (uint amountOut) {... */\n    tag_3:\n      tag_24\n      0x04\n      dup1\n      calldatasize\n      sub\n      dup2\n      add\n      swap1\n      tag_25\n      swap2\n      swap1\n      tag_26\n      jump\t// in\n    tag_25:\n      tag_27\n      jump\t// in\n    tag_24:\n      mload(0x40)\n      tag_28\n      swap2\n      swap1\n      tag_29\n      jump\t// in\n    tag_28:\n      mload(0x40)\n      dup1\n      swap2\n      sub\n      swap1\n      return\n        /* \"@openzeppelin/contracts/token/ERC20/ERC20.sol\":1760:1849  function name() public view virtual returns (string memory) {... */\n    tag_4:\n      tag_30\n      tag_31\n      jump\t// in\n    tag_30:\n      mload(0x40)\n      tag_32\n      swap2\n      swap1\n      tag_33\n      jump\t// in\n    tag_32:\n      mload(0x40)\n      dup1\n      swap2\n      sub\n      swap1\n      return\n        /* \"@openzeppelin/contracts/token/ERC20/ERC20.sol\":3979:4165  function approve(address spender, uint256 value) public virtual returns (bool) {... */\n    tag_5:\n      tag_34\n      0x04\n      dup1\n      calldatasize\n      sub\n      dup2\n      add\n      swap1\n      tag_35\n      swap2\n      swap1\n      tag_36\n      jump\t// in\n    tag_35:\n      tag_37\n      jump\t// in\n    tag_34:\n      mload(0x40)\n      tag_38\n      swap2\n      swap1\n      tag_39\n      jump\t// in\n    tag_38:\n      mload(0x40)\n      dup1\n      swap2\n      sub\n      swap1\n      return\n        /* \"LiquidityPool.sol\":216:236  IERC20 public tokenA */\n    tag_6:\n      tag_40\n      tag_41\n      jump\t// in\n    tag_40:\n      mload(0x40)\n      tag_42\n      swap2\n      swap1\n      tag_43\n      jump\t// in\n    tag_42:\n      mload(0x40)\n      dup1\n      swap2\n      sub\n      swap1\n      return\n        /* \"@openzeppelin/contracts/token/ERC20/ERC20.sol\":2830:2927  function totalSupply() public view virtual returns (uint256) {... */\n    tag_7:\n      tag_44\n      tag_45\n      jump\t// in\n    tag_44:\n      mload(0x40)\n      tag_46\n      swap2\n      swap1\n      tag_29\n      jump\t// in\n    tag_46:\n      mload(0x40)\n      dup1\n      swap2\n      sub\n      swap1\n      return\n        /* \"LiquidityPool.sol\":362:385  uint256 public reserveB */\n    tag_8:\n      tag_47\n      tag_48\n      jump\t// in\n    tag_47:\n      mload(0x40)\n      tag_49\n      swap2\n      swap1\n      tag_29\n      jump\t// in\n    tag_49:\n      mload(0x40)\n      dup1\n      swap2\n      sub\n      swap1\n      return\n        /* \"@openzeppelin/contracts/token/ERC20/ERC20.sol\":4757:5001  function transferFrom(address from, address to, uint256 value) public virtual returns (bool) {... */\n    tag_9:\n      tag_50\n      0x04\n      dup1\n      calldatasize\n      sub\n      dup2\n      add\n      swap1\n      tag_51\n      swap2\n      swap1\n      tag_52\n      jump\t// in\n    tag_51:\n      tag_53\n      jump\t// in\n    tag_50:\n      mload(0x40)\n      tag_54\n      swap2\n      swap1\n      tag_39\n      jump\t// in\n    tag_54:\n      mload(0x40)\n      dup1\n      swap2\n      sub\n      swap1\n      return\n        /* \"@openzeppelin/contracts/token/ERC20/ERC20.sol\":2688:2770  function decimals() public view virtual returns (uint8) {... */\n    tag_10:\n      tag_55\n      tag_56\n      jump\t// in\n    tag_55:\n      mload(0x40)\n      tag_57\n      swap2\n      swap1\n      tag_58\n      jump\t// in\n    tag_57:\n      mload(0x40)\n      dup1\n      swap2\n      sub\n      swap1\n      return\n        /* \"LiquidityPool.sol\":7236:10240  function swapExactTokensForTokens(... */\n    tag_11:\n      tag_59\n      0x04\n      dup1\n      calldatasize\n      sub\n      dup2\n      add\n      swap1\n      tag_60\n      swap2\n      swap1\n      tag_61\n      jump\t// in\n    tag_60:\n      tag_62\n      jump\t// in\n    tag_59:\n      mload(0x40)\n      tag_63\n      swap2\n      swap1\n      tag_64\n      jump\t// in\n    tag_63:\n      mload(0x40)\n      dup1\n      swap2\n      sub\n      swap1\n      return\n        /* \"LiquidityPool.sol\":243:263  IERC20 public tokenB */\n    tag_12:\n      tag_65\n      tag_66\n      jump\t// in\n    tag_65:\n      mload(0x40)\n      tag_67\n      swap2\n      swap1\n      tag_43\n      jump\t// in\n    tag_67:\n      mload(0x40)\n      dup1\n      swap2\n      sub\n      swap1\n      return\n        /* \"@openzeppelin/contracts/token/ERC20/ERC20.sol\":2985:3101  function balanceOf(address account) public view virtual returns (uint256) {... */\n    tag_13:\n      tag_68\n      0x04\n      dup1\n      calldatasize\n      sub\n      dup2\n      add\n      swap1\n      tag_69\n      swap2\n      swap1\n      tag_70\n      jump\t// in\n    tag_69:\n      tag_71\n      jump\t// in\n    tag_68:\n      mload(0x40)\n      tag_72\n      swap2\n      swap1\n      tag_29\n      jump\t// in\n    tag_72:\n      mload(0x40)\n      dup1\n      swap2\n      sub\n      swap1\n      return\n        /* \"@openzeppelin/contracts/token/ERC20/ERC20.sol\":1962:2055  function symbol() public view virtual returns (string memory) {... */\n    tag_14:\n      tag_73\n      tag_74\n      jump\t// in\n    tag_73:\n      mload(0x40)\n      tag_75\n      swap2\n      swap1\n      tag_33\n      jump\t// in\n    tag_75:\n      mload(0x40)\n      dup1\n      swap2\n      sub\n      swap1\n      return\n        /* \"@openzeppelin/contracts/token/ERC20/ERC20.sol\":3296:3474  function transfer(address to, uint256 value) public virtual returns (bool) {... */\n    tag_15:\n      tag_76\n      0x04\n      dup1\n      calldatasize\n      sub\n      dup2\n      add\n      swap1\n      tag_77\n      swap2\n      swap1\n      tag_36\n      jump\t// in\n    tag_77:\n      tag_78\n      jump\t// in\n    tag_76:\n      mload(0x40)\n      tag_79\n      swap2\n      swap1\n      tag_39\n      jump\t// in\n    tag_79:\n      mload(0x40)\n      dup1\n      swap2\n      sub\n      swap1\n      return\n        /* \"LiquidityPool.sol\":11908:12422  function getPrice(... */\n    tag_16:\n      tag_80\n      0x04\n      dup1\n      calldatasize\n      sub\n      dup2\n      add\n      swap1\n      tag_81\n      swap2\n      swap1\n      tag_82\n      jump\t// in\n    tag_81:\n      tag_83\n      jump\t// in\n    tag_80:\n      mload(0x40)\n      tag_84\n      swap2\n      swap1\n      tag_29\n      jump\t// in\n    tag_84:\n      mload(0x40)\n      dup1\n      swap2\n      sub\n      swap1\n      return\n        /* \"LiquidityPool.sol\":3877:5987  function removeLiquidity(... */\n    tag_17:\n      tag_85\n      0x04\n      dup1\n      calldatasize\n      sub\n      dup2\n      add\n      swap1\n      tag_86\n      swap2\n      swap1\n      tag_87\n      jump\t// in\n    tag_86:\n      tag_88\n      jump\t// in\n    tag_85:\n      mload(0x40)\n      tag_89\n      swap3\n      swap2\n      swap1\n      tag_90\n      jump\t// in\n    tag_89:\n      mload(0x40)\n      dup1\n      swap2\n      sub\n      swap1\n      return\n        /* \"LiquidityPool.sol\":302:325  uint256 public reserveA */\n    tag_18:\n      tag_91\n      tag_92\n      jump\t// in\n    tag_91:\n      mload(0x40)\n      tag_93\n      swap2\n      swap1\n      tag_29\n      jump\t// in\n    tag_93:\n      mload(0x40)\n      dup1\n      swap2\n      sub\n      swap1\n      return\n        /* \"@openzeppelin/contracts/token/ERC20/ERC20.sol\":3532:3672  function allowance(address owner, address spender) public view virtual returns (uint256) {... */\n    tag_19:\n      tag_94\n      0x04\n      dup1\n      calldatasize\n      sub\n      dup2\n      add\n      swap1\n      tag_95\n      swap2\n      swap1\n      tag_82\n      jump\t// in\n    tag_95:\n      tag_96\n      jump\t// in\n    tag_94:\n      mload(0x40)\n      tag_97\n      swap2\n      swap1\n      tag_29\n      jump\t// in\n    tag_97:\n      mload(0x40)\n      dup1\n      swap2\n      sub\n      swap1\n      return\n        /* \"LiquidityPool.sol\":636:2473  function addLiquidity(... */\n    tag_20:\n      tag_98\n      0x04\n      dup1\n      calldatasize\n      sub\n      dup2\n      add\n      swap1\n      tag_99\n      swap2\n      swap1\n      tag_100\n      jump\t// in\n    tag_99:\n      tag_101\n      jump\t// in\n    tag_98:\n      mload(0x40)\n      tag_102\n      swap4\n      swap3\n      swap2\n      swap1\n      tag_103\n      jump\t// in\n    tag_102:\n      mload(0x40)\n      dup1\n      swap2\n      sub\n      swap1\n      return\n        /* \"LiquidityPool.sol\":13033:13524  function getAmountOut(uint amountIn, uint reserveIn, uint reserveOut) external pure returns (uint amountOut) {... */\n    tag_27:\n        /* \"LiquidityPool.sol\":13126:13140  uint amountOut */\n      0x00\n        /* \"LiquidityPool.sol\":13172:13173  0 */\n      0x00\n        /* \"LiquidityPool.sol\":13161:13169  amountIn */\n      dup5\n        /* \"LiquidityPool.sol\":13161:13173  amountIn > 0 */\n      gt\n        /* \"LiquidityPool.sol\":13153:13194  require(amountIn > 0, \"Invalid amountIn\") */\n      tag_105\n      jumpi\n      mload(0x40)\n      0x08c379a000000000000000000000000000000000000000000000000000000000\n      dup2\n      mstore\n      0x04\n      add\n      tag_106\n      swap1\n      tag_107\n      jump\t// in\n    tag_106:\n      mload(0x40)\n      dup1\n      swap2\n      sub\n      swap1\n      revert\n    tag_105:\n        /* \"LiquidityPool.sol\":13225:13226  0 */\n      0x00\n        /* \"LiquidityPool.sol\":13213:13222  reserveIn */\n      dup4\n        /* \"LiquidityPool.sol\":13213:13226  reserveIn > 0 */\n      gt\n        /* \"LiquidityPool.sol\":13205:13248  require(reserveIn > 0, \"Invalid reserveIn\") */\n      tag_108\n      jumpi\n      mload(0x40)\n      0x08c379a000000000000000000000000000000000000000000000000000000000\n      dup2\n      mstore\n      0x04\n      add\n      tag_109\n      swap1\n      tag_110\n      jump\t// in\n    tag_109:\n      mload(0x40)\n      dup1\n      swap2\n      sub\n      swap1\n      revert\n    tag_108:\n        /* \"LiquidityPool.sol\":13280:13281  0 */\n      0x00\n        /* \"LiquidityPool.sol\":13267:13277  reserveOut */\n      dup3\n        /* \"LiquidityPool.sol\":13267:13281  reserveOut > 0 */\n      gt\n        /* \"LiquidityPool.sol\":13259:13304  require(reserveOut > 0, \"Invalid reserveOut\") */\n      tag_111\n      jumpi\n      mload(0x40)\n      0x08c379a000000000000000000000000000000000000000000000000000000000\n      dup2\n      mstore\n      0x04\n      add\n      tag_112\n      swap1\n      tag_113\n      jump\t// in\n    tag_112:\n      mload(0x40)\n      dup1\n      swap2\n      sub\n      swap1\n      revert\n    tag_111:\n        /* \"LiquidityPool.sol\":13507:13515  amountIn */\n      dup4\n        /* \"LiquidityPool.sol\":13495:13504  reserveIn */\n      dup4\n        /* \"LiquidityPool.sol\":13495:13515  reserveIn + amountIn */\n      tag_114\n      swap2\n      swap1\n      tag_115\n      jump\t// in\n    tag_114:\n        /* \"LiquidityPool.sol\":13480:13490  reserveOut */\n      dup3\n        /* \"LiquidityPool.sol\":13469:13477  amountIn */\n      dup6\n        /* \"LiquidityPool.sol\":13469:13490  amountIn * reserveOut */\n      tag_116\n      swap2\n      swap1\n      tag_117\n      jump\t// in\n    tag_116:\n        /* \"LiquidityPool.sol\":13468:13516  (amountIn * reserveOut) / (reserveIn + amountIn) */\n      tag_118\n      swap2\n      swap1\n      tag_119\n      jump\t// in\n    tag_118:\n        /* \"LiquidityPool.sol\":13456:13516  amountOut = (amountIn * reserveOut) / (reserveIn + amountIn) */\n      swap1\n      pop\n        /* \"LiquidityPool.sol\":13033:13524  function getAmountOut(uint amountIn, uint reserveIn, uint reserveOut) external pure returns (uint amountOut) {... */\n      swap4\n      swap3\n      pop\n      pop\n      pop\n      jump\t// out\n        /* \"@openzeppelin/contracts/token/ERC20/ERC20.sol\":1760:1849  function name() public view virtual returns (string memory) {... */\n    tag_31:\n        /* \"@openzeppelin/contracts/token/ERC20/ERC20.sol\":1805:1818  string memory */\n      0x60\n        /* \"@openzeppelin/contracts/token/ERC20/ERC20.sol\":1837:1842  _name */\n      0x03\n        /* \"@openzeppelin/contracts/token/ERC20/ERC20.sol\":1830:1842  return _name */\n      dup1\n      sload\n      tag_121\n      swap1\n      tag_122\n      jump\t// in\n    tag_121:\n      dup1\n      0x1f\n      add\n      0x20\n      dup1\n      swap2\n      div\n      mul\n      0x20\n      add\n      mload(0x40)\n      swap1\n      dup2\n      add\n      0x40\n      mstore\n      dup1\n      swap3\n      swap2\n      swap1\n      dup2\n      dup2\n      mstore\n      0x20\n      add\n      dup3\n      dup1\n      sload\n      tag_123\n      swap1\n      tag_122\n      jump\t// in\n    tag_123:\n      dup1\n      iszero\n      tag_124\n      jumpi\n      dup1\n      0x1f\n      lt\n      tag_125\n      jumpi\n      0x0100\n      dup1\n      dup4\n      sload\n      div\n      mul\n      dup4\n      mstore\n      swap2\n      0x20\n      add\n      swap2\n      jump(tag_124)\n    tag_125:\n      dup3\n      add\n      swap2\n      swap1\n      0x00\n      mstore\n      keccak256(0x00, 0x20)\n      swap1\n    tag_126:\n      dup2\n      sload\n      dup2\n      mstore\n      swap1\n      0x01\n      add\n      swap1\n      0x20\n      add\n      dup1\n      dup4\n      gt\n      tag_126\n      jumpi\n      dup3\n      swap1\n      sub\n      0x1f\n      and\n      dup3\n      add\n      swap2\n    tag_124:\n      pop\n      pop\n      pop\n      pop\n      pop\n      swap1\n      pop\n        /* \"@openzeppelin/contracts/token/ERC20/ERC20.sol\":1760:1849  function name() public view virtual returns (string memory) {... */\n      swap1\n      jump\t// out\n        /* \"@openzeppelin/contracts/token/ERC20/ERC20.sol\":3979:4165  function approve(address spender, uint256 value) public virtual returns (bool) {... */\n    tag_37:\n        /* \"@openzeppelin/contracts/token/ERC20/ERC20.sol\":4052:4056  bool */\n      0x00\n        /* \"@openzeppelin/contracts/token/ERC20/ERC20.sol\":4068:4081  address owner */\n      0x00\n        /* \"@openzeppelin/contracts/token/ERC20/ERC20.sol\":4084:4096  _msgSender() */\n      tag_128\n        /* \"@openzeppelin/contracts/token/ERC20/ERC20.sol\":4084:4094  _msgSender */\n      tag_129\n        /* \"@openzeppelin/contracts/token/ERC20/ERC20.sol\":4084:4096  _msgSender() */\n      jump\t// in\n    tag_128:\n        /* \"@openzeppelin/contracts/token/ERC20/ERC20.sol\":4068:4096  address owner = _msgSender() */\n      swap1\n      pop\n        /* \"@openzeppelin/contracts/token/ERC20/ERC20.sol\":4106:4137  _approve(owner, spender, value) */\n      tag_130\n        /* \"@openzeppelin/contracts/token/ERC20/ERC20.sol\":4115:4120  owner */\n      dup2\n        /* \"@openzeppelin/contracts/token/ERC20/ERC20.sol\":4122:4129  spender */\n      dup6\n        /* \"@openzeppelin/contracts/token/ERC20/ERC20.sol\":4131:4136  value */\n      dup6\n        /* \"@openzeppelin/contracts/token/ERC20/ERC20.sol\":4106:4114  _approve */\n      tag_131\n        /* \"@openzeppelin/contracts/token/ERC20/ERC20.sol\":4106:4137  _approve(owner, spender, value) */\n      jump\t// in\n    tag_130:\n        /* \"@openzeppelin/contracts/token/ERC20/ERC20.sol\":4154:4158  true */\n      0x01\n        /* \"@openzeppelin/contracts/token/ERC20/ERC20.sol\":4147:4158  return true */\n      swap2\n      pop\n      pop\n        /* \"@openzeppelin/contracts/token/ERC20/ERC20.sol\":3979:4165  function approve(address spender, uint256 value) public virtual returns (bool) {... */\n      swap3\n      swap2\n      pop\n      pop\n      jump\t// out\n        /* \"LiquidityPool.sol\":216:236  IERC20 public tokenA */\n    tag_41:\n      0x05\n      0x00\n      swap1\n      sload\n      swap1\n      0x0100\n      exp\n      swap1\n      div\n      0xffffffffffffffffffffffffffffffffffffffff\n      and\n      dup2\n      jump\t// out\n        /* \"@openzeppelin/contracts/token/ERC20/ERC20.sol\":2830:2927  function totalSupply() public view virtual returns (uint256) {... */\n    tag_45:\n        /* \"@openzeppelin/contracts/token/ERC20/ERC20.sol\":2882:2889  uint256 */\n      0x00\n        /* \"@openzeppelin/contracts/token/ERC20/ERC20.sol\":2908:2920  _totalSupply */\n      sload(0x02)\n        /* \"@openzeppelin/contracts/token/ERC20/ERC20.sol\":2901:2920  return _totalSupply */\n      swap1\n      pop\n        /* \"@openzeppelin/contracts/token/ERC20/ERC20.sol\":2830:2927  function totalSupply() public view virtual returns (uint256) {... */\n      swap1\n      jump\t// out\n        /* \"LiquidityPool.sol\":362:385  uint256 public reserveB */\n    tag_48:\n      sload(0x08)\n      dup2\n      jump\t// out\n        /* \"@openzeppelin/contracts/token/ERC20/ERC20.sol\":4757:5001  function transferFrom(address from, address to, uint256 value) public virtual returns (bool) {... */\n    tag_53:\n        /* \"@openzeppelin/contracts/token/ERC20/ERC20.sol\":4844:4848  bool */\n      0x00\n        /* \"@openzeppelin/contracts/token/ERC20/ERC20.sol\":4860:4875  address spender */\n      0x00\n        /* \"@openzeppelin/contracts/token/ERC20/ERC20.sol\":4878:4890  _msgSender() */\n      tag_134\n        /* \"@openzeppelin/contracts/token/ERC20/ERC20.sol\":4878:4888  _msgSender */\n      tag_129\n        /* \"@openzeppelin/contracts/token/ERC20/ERC20.sol\":4878:4890  _msgSender() */\n      jump\t// in\n    tag_134:\n        /* \"@openzeppelin/contracts/token/ERC20/ERC20.sol\":4860:4890  address spender = _msgSender() */\n      swap1\n      pop\n        /* \"@openzeppelin/contracts/token/ERC20/ERC20.sol\":4900:4937  _spendAllowance(from, spender, value) */\n      tag_135\n        /* \"@openzeppelin/contracts/token/ERC20/ERC20.sol\":4916:4920  from */\n      dup6\n        /* \"@openzeppelin/contracts/token/ERC20/ERC20.sol\":4922:4929  spender */\n      dup3\n        /* \"@openzeppelin/contracts/token/ERC20/ERC20.sol\":4931:4936  value */\n      dup6\n        /* \"@openzeppelin/contracts/token/ERC20/ERC20.sol\":4900:4915  _spendAllowance */\n      tag_136\n        /* \"@openzeppelin/contracts/token/ERC20/ERC20.sol\":4900:4937  _spendAllowance(from, spender, value) */\n      jump\t// in\n    tag_135:\n        /* \"@openzeppelin/contracts/token/ERC20/ERC20.sol\":4947:4973  _transfer(from, to, value) */\n      tag_137\n        /* \"@openzeppelin/contracts/token/ERC20/ERC20.sol\":4957:4961  from */\n      dup6\n        /* \"@openzeppelin/contracts/token/ERC20/ERC20.sol\":4963:4965  to */\n      dup6\n        /* \"@openzeppelin/contracts/token/ERC20/ERC20.sol\":4967:4972  value */\n      dup6\n        /* \"@openzeppelin/contracts/token/ERC20/ERC20.sol\":4947:4956  _transfer */\n      tag_138\n        /* \"@openzeppelin/contracts/token/ERC20/ERC20.sol\":4947:4973  _transfer(from, to, value) */\n      jump\t// in\n    tag_137:\n        /* \"@openzeppelin/contracts/token/ERC20/ERC20.sol\":4990:4994  true */\n      0x01\n        /* \"@openzeppelin/contracts/token/ERC20/ERC20.sol\":4983:4994  return true */\n      swap2\n      pop\n      pop\n        /* \"@openzeppelin/contracts/token/ERC20/ERC20.sol\":4757:5001  function transferFrom(address from, address to, uint256 value) public virtual returns (bool) {... */\n      swap4\n      swap3\n      pop\n      pop\n      pop\n      jump\t// out\n        /* \"@openzeppelin/contracts/token/ERC20/ERC20.sol\":2688:2770  function decimals() public view virtual returns (uint8) {... */\n    tag_56:\n        /* \"@openzeppelin/contracts/token/ERC20/ERC20.sol\":2737:2742  uint8 */\n      0x00\n        /* \"@openzeppelin/contracts/token/ERC20/ERC20.sol\":2761:2763  18 */\n      0x12\n        /* \"@openzeppelin/contracts/token/ERC20/ERC20.sol\":2754:2763  return 18 */\n      swap1\n      pop\n        /* \"@openzeppelin/contracts/token/ERC20/ERC20.sol\":2688:2770  function decimals() public view virtual returns (uint8) {... */\n      swap1\n      jump\t// out\n        /* \"LiquidityPool.sol\":7236:10240  function swapExactTokensForTokens(... */\n    tag_62:\n        /* \"LiquidityPool.sol\":7430:7451  uint[] memory amounts */\n      0x60\n        /* \"LiquidityPool.sol\":7483:7484  0 */\n      0x00\n        /* \"LiquidityPool.sol\":7472:7480  amountIn */\n      dup8\n        /* \"LiquidityPool.sol\":7472:7484  amountIn > 0 */\n      gt\n        /* \"LiquidityPool.sol\":7472:7504  amountIn > 0 && amountOutMin > 0 */\n      dup1\n      iszero\n      tag_141\n      jumpi\n      pop\n        /* \"LiquidityPool.sol\":7503:7504  0 */\n      0x00\n        /* \"LiquidityPool.sol\":7488:7500  amountOutMin */\n      dup7\n        /* \"LiquidityPool.sol\":7488:7504  amountOutMin > 0 */\n      gt\n        /* \"LiquidityPool.sol\":7472:7504  amountIn > 0 && amountOutMin > 0 */\n    tag_141:\n        /* \"LiquidityPool.sol\":7464:7524  require(amountIn > 0 && amountOutMin > 0, \"Invalid amounts\") */\n      tag_142\n      jumpi\n      mload(0x40)\n      0x08c379a000000000000000000000000000000000000000000000000000000000\n      dup2\n      mstore\n      0x04\n      add\n      tag_143\n      swap1\n      tag_144\n      jump\t// in\n    tag_143:\n      mload(0x40)\n      dup1\n      swap2\n      sub\n      swap1\n      revert\n    tag_142:\n        /* \"LiquidityPool.sol\":7562:7570  deadline */\n      dup2\n        /* \"LiquidityPool.sol\":7543:7558  block.timestamp */\n      timestamp\n        /* \"LiquidityPool.sol\":7543:7570  block.timestamp <= deadline */\n      gt\n      iszero\n        /* \"LiquidityPool.sol\":7535:7594  require(block.timestamp <= deadline, \"Transaction expired\") */\n      tag_145\n      jumpi\n      mload(0x40)\n      0x08c379a000000000000000000000000000000000000000000000000000000000\n      dup2\n      mstore\n      0x04\n      add\n      tag_146\n      swap1\n      tag_147\n      jump\t// in\n    tag_146:\n      mload(0x40)\n      dup1\n      swap2\n      sub\n      swap1\n      revert\n    tag_145:\n        /* \"LiquidityPool.sol\":7628:7629  2 */\n      0x02\n        /* \"LiquidityPool.sol\":7613:7617  path */\n      dup6\n      dup6\n        /* \"LiquidityPool.sol\":7613:7624  path.length */\n      swap1\n      pop\n        /* \"LiquidityPool.sol\":7613:7629  path.length == 2 */\n      eq\n        /* \"LiquidityPool.sol\":7605:7654  require(path.length == 2, \"Invalid tokens count\") */\n      tag_148\n      jumpi\n      mload(0x40)\n      0x08c379a000000000000000000000000000000000000000000000000000000000\n      dup2\n      mstore\n      0x04\n      add\n      tag_149\n      swap1\n      tag_150\n      jump\t// in\n    tag_149:\n      mload(0x40)\n      dup1\n      swap2\n      sub\n      swap1\n      revert\n    tag_148:\n        /* \"LiquidityPool.sol\":7667:7686  address tokenInAddr */\n      0x00\n        /* \"LiquidityPool.sol\":7689:7693  path */\n      dup6\n      dup6\n        /* \"LiquidityPool.sol\":7694:7695  0 */\n      0x00\n        /* \"LiquidityPool.sol\":7689:7696  path[0] */\n      dup2\n      dup2\n      lt\n      tag_151\n      jumpi\n      tag_152\n      tag_153\n      jump\t// in\n    tag_152:\n    tag_151:\n      swap1\n      pop\n      0x20\n      mul\n      add\n      0x20\n      dup2\n      add\n      swap1\n      tag_154\n      swap2\n      swap1\n      tag_70\n      jump\t// in\n    tag_154:\n        /* \"LiquidityPool.sol\":7667:7696  address tokenInAddr = path[0] */\n      swap1\n      pop\n        /* \"LiquidityPool.sol\":7707:7727  address tokenOutAddr */\n      0x00\n        /* \"LiquidityPool.sol\":7730:7734  path */\n      dup7\n      dup7\n        /* \"LiquidityPool.sol\":7735:7736  1 */\n      0x01\n        /* \"LiquidityPool.sol\":7730:7737  path[1] */\n      dup2\n      dup2\n      lt\n      tag_155\n      jumpi\n      tag_156\n      tag_153\n      jump\t// in\n    tag_156:\n    tag_155:\n      swap1\n      pop\n      0x20\n      mul\n      add\n      0x20\n      dup2\n      add\n      swap1\n      tag_157\n      swap2\n      swap1\n      tag_70\n      jump\t// in\n    tag_157:\n        /* \"LiquidityPool.sol\":7707:7737  address tokenOutAddr = path[1] */\n      swap1\n      pop\n        /* \"LiquidityPool.sol\":7804:7810  tokenA */\n      0x05\n      0x00\n      swap1\n      sload\n      swap1\n      0x0100\n      exp\n      swap1\n      div\n      0xffffffffffffffffffffffffffffffffffffffff\n      and\n        /* \"LiquidityPool.sol\":7781:7811  tokenInAddr == address(tokenA) */\n      0xffffffffffffffffffffffffffffffffffffffff\n      and\n        /* \"LiquidityPool.sol\":7781:7792  tokenInAddr */\n      dup3\n        /* \"LiquidityPool.sol\":7781:7811  tokenInAddr == address(tokenA) */\n      0xffffffffffffffffffffffffffffffffffffffff\n      and\n      eq\n        /* \"LiquidityPool.sol\":7781:7846  tokenInAddr == address(tokenA) && tokenOutAddr == address(tokenB) */\n      dup1\n      iszero\n      tag_158\n      jumpi\n      pop\n        /* \"LiquidityPool.sol\":7839:7845  tokenB */\n      0x06\n      0x00\n      swap1\n      sload\n      swap1\n      0x0100\n      exp\n      swap1\n      div\n      0xffffffffffffffffffffffffffffffffffffffff\n      and\n        /* \"LiquidityPool.sol\":7815:7846  tokenOutAddr == address(tokenB) */\n      0xffffffffffffffffffffffffffffffffffffffff\n      and\n        /* \"LiquidityPool.sol\":7815:7827  tokenOutAddr */\n      dup2\n        /* \"LiquidityPool.sol\":7815:7846  tokenOutAddr == address(tokenB) */\n      0xffffffffffffffffffffffffffffffffffffffff\n      and\n      eq\n        /* \"LiquidityPool.sol\":7781:7846  tokenInAddr == address(tokenA) && tokenOutAddr == address(tokenB) */\n    tag_158:\n        /* \"LiquidityPool.sol\":7762:7866  require(... */\n      tag_159\n      jumpi\n      mload(0x40)\n      0x08c379a000000000000000000000000000000000000000000000000000000000\n      dup2\n      mstore\n      0x04\n      add\n      tag_160\n      swap1\n      tag_161\n      jump\t// in\n    tag_160:\n      mload(0x40)\n      dup1\n      swap2\n      sub\n      swap1\n      revert\n    tag_159:\n        /* \"LiquidityPool.sol\":7879:7896  IERC20 inputToken */\n      0x00\n        /* \"LiquidityPool.sol\":7906:7917  tokenInAddr */\n      dup3\n        /* \"LiquidityPool.sol\":7879:7918  IERC20 inputToken = IERC20(tokenInAddr) */\n      swap1\n      pop\n        /* \"LiquidityPool.sol\":7929:7947  IERC20 outputToken */\n      0x00\n        /* \"LiquidityPool.sol\":7957:7969  tokenOutAddr */\n      dup3\n        /* \"LiquidityPool.sol\":7929:7970  IERC20 outputToken = IERC20(tokenOutAddr) */\n      swap1\n      pop\n        /* \"LiquidityPool.sol\":7983:8000  uint256 reserveIn */\n      0x00\n        /* \"LiquidityPool.sol\":8003:8011  reserveA */\n      sload(0x07)\n        /* \"LiquidityPool.sol\":7983:8011  uint256 reserveIn = reserveA */\n      swap1\n      pop\n        /* \"LiquidityPool.sol\":8022:8040  uint256 reserveOut */\n      0x00\n        /* \"LiquidityPool.sol\":8043:8051  reserveB */\n      sload(0x08)\n        /* \"LiquidityPool.sol\":8022:8051  uint256 reserveOut = reserveB */\n      swap1\n      pop\n        /* \"LiquidityPool.sol\":8064:8083  uint256 amountIn256 */\n      0x00\n        /* \"LiquidityPool.sol\":8086:8094  amountIn */\n      dup14\n        /* \"LiquidityPool.sol\":8064:8094  uint256 amountIn256 = amountIn */\n      swap1\n      pop\n        /* \"LiquidityPool.sol\":8145:8155  inputToken */\n      dup5\n        /* \"LiquidityPool.sol\":8145:8168  inputToken.transferFrom */\n      0xffffffffffffffffffffffffffffffffffffffff\n      and\n      0x23b872dd\n        /* \"LiquidityPool.sol\":8169:8179  msg.sender */\n      caller\n        /* \"LiquidityPool.sol\":8189:8193  this */\n      address\n        /* \"LiquidityPool.sol\":8196:8207  amountIn256 */\n      dup5\n        /* \"LiquidityPool.sol\":8145:8208  inputToken.transferFrom(msg.sender, address(this), amountIn256) */\n      mload(0x40)\n      dup5\n      0xffffffff\n      and\n      0xe0\n      shl\n      dup2\n      mstore\n      0x04\n      add\n      tag_162\n      swap4\n      swap3\n      swap2\n      swap1\n      tag_163\n      jump\t// in\n    tag_162:\n      0x20\n      mload(0x40)\n      dup1\n      dup4\n      sub\n      dup2\n      0x00\n      dup8\n      gas\n      call\n      iszero\n      dup1\n      iszero\n      tag_165\n      jumpi\n      returndatacopy(0x00, 0x00, returndatasize)\n      revert(0x00, returndatasize)\n    tag_165:\n      pop\n      pop\n      pop\n      pop\n      mload(0x40)\n      returndatasize\n      not(0x1f)\n      0x1f\n      dup3\n      add\n      and\n      dup3\n      add\n      dup1\n      0x40\n      mstore\n      pop\n      dup2\n      add\n      swap1\n      tag_166\n      swap2\n      swap1\n      tag_167\n      jump\t// in\n    tag_166:\n        /* \"LiquidityPool.sol\":8137:8228  require(inputToken.transferFrom(msg.sender, address(this), amountIn256), \"Transfer failed\") */\n      tag_168\n      jumpi\n      mload(0x40)\n      0x08c379a000000000000000000000000000000000000000000000000000000000\n      dup2\n      mstore\n      0x04\n      add\n      tag_169\n      swap1\n      tag_170\n      jump\t// in\n    tag_169:\n      mload(0x40)\n      dup1\n      swap2\n      sub\n      swap1\n      revert\n    tag_168:\n        /* \"LiquidityPool.sol\":8241:8255  uint amountOut */\n      0x00\n        /* \"LiquidityPool.sol\":8300:8311  amountIn256 */\n      dup2\n        /* \"LiquidityPool.sol\":8288:8297  reserveIn */\n      dup5\n        /* \"LiquidityPool.sol\":8288:8311  reserveIn + amountIn256 */\n      tag_171\n      swap2\n      swap1\n      tag_115\n      jump\t// in\n    tag_171:\n        /* \"LiquidityPool.sol\":8273:8283  reserveOut */\n      dup4\n        /* \"LiquidityPool.sol\":8259:8270  amountIn256 */\n      dup4\n        /* \"LiquidityPool.sol\":8259:8283  amountIn256 * reserveOut */\n      tag_172\n      swap2\n      swap1\n      tag_117\n      jump\t// in\n    tag_172:\n        /* \"LiquidityPool.sol\":8258:8312  (amountIn256 * reserveOut) / (reserveIn + amountIn256) */\n      tag_173\n      swap2\n      swap1\n      tag_119\n      jump\t// in\n    tag_173:\n        /* \"LiquidityPool.sol\":8241:8312  uint amountOut = (amountIn256 * reserveOut) / (reserveIn + amountIn256) */\n      swap1\n      pop\n        /* \"LiquidityPool.sol\":8344:8356  amountOutMin */\n      dup14\n        /* \"LiquidityPool.sol\":8331:8340  amountOut */\n      dup2\n        /* \"LiquidityPool.sol\":8331:8356  amountOut >= amountOutMin */\n      lt\n      iszero\n        /* \"LiquidityPool.sol\":8323:8387  require(amountOut >= amountOutMin, \"Insufficient output amount\") */\n      tag_174\n      jumpi\n      mload(0x40)\n      0x08c379a000000000000000000000000000000000000000000000000000000000\n      dup2\n      mstore\n      0x04\n      add\n      tag_175\n      swap1\n      tag_176\n      jump\t// in\n    tag_175:\n      mload(0x40)\n      dup1\n      swap2\n      sub\n      swap1\n      revert\n    tag_174:\n        /* \"LiquidityPool.sol\":8408:8419  outputToken */\n      dup5\n        /* \"LiquidityPool.sol\":8408:8428  outputToken.transfer */\n      0xffffffffffffffffffffffffffffffffffffffff\n      and\n      0xa9059cbb\n        /* \"LiquidityPool.sol\":8429:8431  to */\n      dup13\n        /* \"LiquidityPool.sol\":8433:8442  amountOut */\n      dup4\n        /* \"LiquidityPool.sol\":8408:8443  outputToken.transfer(to, amountOut) */\n      mload(0x40)\n      dup4\n      0xffffffff\n      and\n      0xe0\n      shl\n      dup2\n      mstore\n      0x04\n      add\n      tag_177\n      swap3\n      swap2\n      swap1\n      tag_178\n      jump\t// in\n    tag_177:\n      0x20\n      mload(0x40)\n      dup1\n      dup4\n      sub\n      dup2\n      0x00\n      dup8\n      gas\n      call\n      iszero\n      dup1\n      iszero\n      tag_180\n      jumpi\n      returndatacopy(0x00, 0x00, returndatasize)\n      revert(0x00, returndatasize)\n    tag_180:\n      pop\n      pop\n      pop\n      pop\n      mload(0x40)\n      returndatasize\n      not(0x1f)\n      0x1f\n      dup3\n      add\n      and\n      dup3\n      add\n      dup1\n      0x40\n      mstore\n      pop\n      dup2\n      add\n      swap1\n      tag_181\n      swap2\n      swap1\n      tag_167\n      jump\t// in\n    tag_181:\n        /* \"LiquidityPool.sol\":8400:8463  require(outputToken.transfer(to, amountOut), \"Transfer failed\") */\n      tag_182\n      jumpi\n      mload(0x40)\n      0x08c379a000000000000000000000000000000000000000000000000000000000\n      dup2\n      mstore\n      0x04\n      add\n      tag_183\n      swap1\n      tag_170\n      jump\t// in\n    tag_183:\n      mload(0x40)\n      dup1\n      swap2\n      sub\n      swap1\n      revert\n    tag_182:\n        /* \"LiquidityPool.sol\":8488:8496  amountIn */\n      dup15\n        /* \"LiquidityPool.sol\":8476:8484  reserveA */\n      0x07\n      0x00\n        /* \"LiquidityPool.sol\":8476:8496  reserveA += amountIn */\n      dup3\n      dup3\n      sload\n      tag_184\n      swap2\n      swap1\n      tag_115\n      jump\t// in\n    tag_184:\n      swap3\n      pop\n      pop\n      dup2\n      swap1\n      sstore\n      pop\n        /* \"LiquidityPool.sol\":8519:8528  amountOut */\n      dup1\n        /* \"LiquidityPool.sol\":8507:8515  reserveB */\n      0x08\n      0x00\n        /* \"LiquidityPool.sol\":8507:8528  reserveB -= amountOut */\n      dup3\n      dup3\n      sload\n      tag_185\n      swap2\n      swap1\n      tag_186\n      jump\t// in\n    tag_185:\n      swap3\n      pop\n      pop\n      dup2\n      swap1\n      sstore\n      pop\n        /* \"LiquidityPool.sol\":8589:8590  2 */\n      0x02\n        /* \"LiquidityPool.sol\":8578:8591  new uint[](2) */\n      0xffffffffffffffff\n      dup2\n      gt\n      iszero\n      tag_187\n      jumpi\n      tag_188\n      tag_189\n      jump\t// in\n    tag_188:\n    tag_187:\n      mload(0x40)\n      swap1\n      dup1\n      dup3\n      mstore\n      dup1\n      0x20\n      mul\n      0x20\n      add\n      dup3\n      add\n      0x40\n      mstore\n      dup1\n      iszero\n      tag_190\n      jumpi\n      dup2\n      0x20\n      add\n      0x20\n      dup3\n      mul\n      dup1\n      calldatasize\n      dup4\n      calldatacopy\n      dup1\n      dup3\n      add\n      swap2\n      pop\n      pop\n      swap1\n      pop\n    tag_190:\n      pop\n        /* \"LiquidityPool.sol\":8568:8591  amounts = new uint[](2) */\n      swap9\n      pop\n        /* \"LiquidityPool.sol\":8615:8623  amountIn */\n      dup15\n        /* \"LiquidityPool.sol\":8602:8609  amounts */\n      dup10\n        /* \"LiquidityPool.sol\":8610:8611  0 */\n      0x00\n        /* \"LiquidityPool.sol\":8602:8612  amounts[0] */\n      dup2\n      mload\n      dup2\n      lt\n      tag_191\n      jumpi\n      tag_192\n      tag_153\n      jump\t// in\n    tag_192:\n    tag_191:\n      0x20\n      mul\n      0x20\n      add\n      add\n        /* \"LiquidityPool.sol\":8602:8623  amounts[0] = amountIn */\n      dup2\n      dup2\n      mstore\n      pop\n      pop\n        /* \"LiquidityPool.sol\":8647:8656  amountOut */\n      dup1\n        /* \"LiquidityPool.sol\":8634:8641  amounts */\n      dup10\n        /* \"LiquidityPool.sol\":8642:8643  1 */\n      0x01\n        /* \"LiquidityPool.sol\":8634:8644  amounts[1] */\n      dup2\n      mload\n      dup2\n      lt\n      tag_193\n      jumpi\n      tag_194\n      tag_153\n      jump\t// in\n    tag_194:\n    tag_193:\n      0x20\n      mul\n      0x20\n      add\n      add\n        /* \"LiquidityPool.sol\":8634:8656  amounts[1] = amountOut */\n      dup2\n      dup2\n      mstore\n      pop\n      pop\n        /* \"LiquidityPool.sol\":10165:10166  2 */\n      0x02\n        /* \"LiquidityPool.sol\":10154:10167  new uint[](2) */\n      0xffffffffffffffff\n      dup2\n      gt\n      iszero\n      tag_195\n      jumpi\n      tag_196\n      tag_189\n      jump\t// in\n    tag_196:\n    tag_195:\n      mload(0x40)\n      swap1\n      dup1\n      dup3\n      mstore\n      dup1\n      0x20\n      mul\n      0x20\n      add\n      dup3\n      add\n      0x40\n      mstore\n      dup1\n      iszero\n      tag_197\n      jumpi\n      dup2\n      0x20\n      add\n      0x20\n      dup3\n      mul\n      dup1\n      calldatasize\n      dup4\n      calldatacopy\n      dup1\n      dup3\n      add\n      swap2\n      pop\n      pop\n      swap1\n      pop\n    tag_197:\n      pop\n        /* \"LiquidityPool.sol\":10144:10167  amounts = new uint[](2) */\n      swap9\n      pop\n        /* \"LiquidityPool.sol\":10191:10199  amountIn */\n      dup15\n        /* \"LiquidityPool.sol\":10178:10185  amounts */\n      dup10\n        /* \"LiquidityPool.sol\":10186:10187  0 */\n      0x00\n        /* \"LiquidityPool.sol\":10178:10188  amounts[0] */\n      dup2\n      mload\n      dup2\n      lt\n      tag_198\n      jumpi\n      tag_199\n      tag_153\n      jump\t// in\n    tag_199:\n    tag_198:\n      0x20\n      mul\n      0x20\n      add\n      add\n        /* \"LiquidityPool.sol\":10178:10199  amounts[0] = amountIn */\n      dup2\n      dup2\n      mstore\n      pop\n      pop\n        /* \"LiquidityPool.sol\":10223:10232  amountOut */\n      dup1\n        /* \"LiquidityPool.sol\":10210:10217  amounts */\n      dup10\n        /* \"LiquidityPool.sol\":10218:10219  1 */\n      0x01\n        /* \"LiquidityPool.sol\":10210:10220  amounts[1] */\n      dup2\n      mload\n      dup2\n      lt\n      tag_200\n      jumpi\n      tag_201\n      tag_153\n      jump\t// in\n    tag_201:\n    tag_200:\n      0x20\n      mul\n      0x20\n      add\n      add\n        /* \"LiquidityPool.sol\":10210:10232  amounts[1] = amountOut */\n      dup2\n      dup2\n      mstore\n      pop\n      pop\n        /* \"LiquidityPool.sol\":7453:10240  {... */\n      pop\n      pop\n      pop\n      pop\n      pop\n      pop\n      pop\n      pop\n        /* \"LiquidityPool.sol\":7236:10240  function swapExactTokensForTokens(... */\n      swap7\n      swap6\n      pop\n      pop\n      pop\n      pop\n      pop\n      pop\n      jump\t// out\n        /* \"LiquidityPool.sol\":243:263  IERC20 public tokenB */\n    tag_66:\n      0x06\n      0x00\n      swap1\n      sload\n      swap1\n      0x0100\n      exp\n      swap1\n      div\n      0xffffffffffffffffffffffffffffffffffffffff\n      and\n      dup2\n      jump\t// out\n        /* \"@openzeppelin/contracts/token/ERC20/ERC20.sol\":2985:3101  function balanceOf(address account) public view virtual returns (uint256) {... */\n    tag_71:\n        /* \"@openzeppelin/contracts/token/ERC20/ERC20.sol\":3050:3057  uint256 */\n      0x00\n        /* \"@openzeppelin/contracts/token/ERC20/ERC20.sol\":3076:3085  _balances */\n      0x00\n        /* \"@openzeppelin/contracts/token/ERC20/ERC20.sol\":3076:3094  _balances[account] */\n      0x00\n        /* \"@openzeppelin/contracts/token/ERC20/ERC20.sol\":3086:3093  account */\n      dup4\n        /* \"@openzeppelin/contracts/token/ERC20/ERC20.sol\":3076:3094  _balances[account] */\n      0xffffffffffffffffffffffffffffffffffffffff\n      and\n      0xffffffffffffffffffffffffffffffffffffffff\n      and\n      dup2\n      mstore\n      0x20\n      add\n      swap1\n      dup2\n      mstore\n      0x20\n      add\n      0x00\n      keccak256\n      sload\n        /* \"@openzeppelin/contracts/token/ERC20/ERC20.sol\":3069:3094  return _balances[account] */\n      swap1\n      pop\n        /* \"@openzeppelin/contracts/token/ERC20/ERC20.sol\":2985:3101  function balanceOf(address account) public view virtual returns (uint256) {... */\n      swap2\n      swap1\n      pop\n      jump\t// out\n        /* \"@openzeppelin/contracts/token/ERC20/ERC20.sol\":1962:2055  function symbol() public view virtual returns (string memory) {... */\n    tag_74:\n        /* \"@openzeppelin/contracts/token/ERC20/ERC20.sol\":2009:2022  string memory */\n      0x60\n        /* \"@openzeppelin/contracts/token/ERC20/ERC20.sol\":2041:2048  _symbol */\n      0x04\n        /* \"@openzeppelin/contracts/token/ERC20/ERC20.sol\":2034:2048  return _symbol */\n      dup1\n      sload\n      tag_204\n      swap1\n      tag_122\n      jump\t// in\n    tag_204:\n      dup1\n      0x1f\n      add\n      0x20\n      dup1\n      swap2\n      div\n      mul\n      0x20\n      add\n      mload(0x40)\n      swap1\n      dup2\n      add\n      0x40\n      mstore\n      dup1\n      swap3\n      swap2\n      swap1\n      dup2\n      dup2\n      mstore\n      0x20\n      add\n      dup3\n      dup1\n      sload\n      tag_205\n      swap1\n      tag_122\n      jump\t// in\n    tag_205:\n      dup1\n      iszero\n      tag_206\n      jumpi\n      dup1\n      0x1f\n      lt\n      tag_207\n      jumpi\n      0x0100\n      dup1\n      dup4\n      sload\n      div\n      mul\n      dup4\n      mstore\n      swap2\n      0x20\n      add\n      swap2\n      jump(tag_206)\n    tag_207:\n      dup3\n      add\n      swap2\n      swap1\n      0x00\n      mstore\n      keccak256(0x00, 0x20)\n      swap1\n    tag_208:\n      dup2\n      sload\n      dup2\n      mstore\n      swap1\n      0x01\n      add\n      swap1\n      0x20\n      add\n      dup1\n      dup4\n      gt\n      tag_208\n      jumpi\n      dup3\n      swap1\n      sub\n      0x1f\n      and\n      dup3\n      add\n      swap2\n    tag_206:\n      pop\n      pop\n      pop\n      pop\n      pop\n      swap1\n      pop\n        /* \"@openzeppelin/contracts/token/ERC20/ERC20.sol\":1962:2055  function symbol() public view virtual returns (string memory) {... */\n      swap1\n      jump\t// out\n        /* \"@openzeppelin/contracts/token/ERC20/ERC20.sol\":3296:3474  function transfer(address to, uint256 value) public virtual returns (bool) {... */\n    tag_78:\n        /* \"@openzeppelin/contracts/token/ERC20/ERC20.sol\":3365:3369  bool */\n      0x00\n        /* \"@openzeppelin/contracts/token/ERC20/ERC20.sol\":3381:3394  address owner */\n      0x00\n        /* \"@openzeppelin/contracts/token/ERC20/ERC20.sol\":3397:3409  _msgSender() */\n      tag_210\n        /* \"@openzeppelin/contracts/token/ERC20/ERC20.sol\":3397:3407  _msgSender */\n      tag_129\n        /* \"@openzeppelin/contracts/token/ERC20/ERC20.sol\":3397:3409  _msgSender() */\n      jump\t// in\n    tag_210:\n        /* \"@openzeppelin/contracts/token/ERC20/ERC20.sol\":3381:3409  address owner = _msgSender() */\n      swap1\n      pop\n        /* \"@openzeppelin/contracts/token/ERC20/ERC20.sol\":3419:3446  _transfer(owner, to, value) */\n      tag_211\n        /* \"@openzeppelin/contracts/token/ERC20/ERC20.sol\":3429:3434  owner */\n      dup2\n        /* \"@openzeppelin/contracts/token/ERC20/ERC20.sol\":3436:3438  to */\n      dup6\n        /* \"@openzeppelin/contracts/token/ERC20/ERC20.sol\":3440:3445  value */\n      dup6\n        /* \"@openzeppelin/contracts/token/ERC20/ERC20.sol\":3419:3428  _transfer */\n      tag_138\n        /* \"@openzeppelin/contracts/token/ERC20/ERC20.sol\":3419:3446  _transfer(owner, to, value) */\n      jump\t// in\n    tag_211:\n        /* \"@openzeppelin/contracts/token/ERC20/ERC20.sol\":3463:3467  true */\n      0x01\n        /* \"@openzeppelin/contracts/token/ERC20/ERC20.sol\":3456:3467  return true */\n      swap2\n      pop\n      pop\n        /* \"@openzeppelin/contracts/token/ERC20/ERC20.sol\":3296:3474  function transfer(address to, uint256 value) public virtual returns (bool) {... */\n      swap3\n      swap2\n      pop\n      pop\n      jump\t// out\n        /* \"LiquidityPool.sol\":11908:12422  function getPrice(... */\n    tag_83:\n        /* \"LiquidityPool.sol\":12009:12019  uint price */\n      0x00\n        /* \"LiquidityPool.sol\":12088:12094  tokenA */\n      0x05\n      0x00\n      swap1\n      sload\n      swap1\n      0x0100\n      exp\n      swap1\n      div\n      0xffffffffffffffffffffffffffffffffffffffff\n      and\n        /* \"LiquidityPool.sol\":12069:12095  _tokenA == address(tokenA) */\n      0xffffffffffffffffffffffffffffffffffffffff\n      and\n        /* \"LiquidityPool.sol\":12069:12076  _tokenA */\n      dup4\n        /* \"LiquidityPool.sol\":12069:12095  _tokenA == address(tokenA) */\n      0xffffffffffffffffffffffffffffffffffffffff\n      and\n      eq\n        /* \"LiquidityPool.sol\":12069:12125  _tokenA == address(tokenA) && _tokenB == address(tokenB) */\n      dup1\n      iszero\n      tag_213\n      jumpi\n      pop\n        /* \"LiquidityPool.sol\":12118:12124  tokenB */\n      0x06\n      0x00\n      swap1\n      sload\n      swap1\n      0x0100\n      exp\n      swap1\n      div\n      0xffffffffffffffffffffffffffffffffffffffff\n      and\n        /* \"LiquidityPool.sol\":12099:12125  _tokenB == address(tokenB) */\n      0xffffffffffffffffffffffffffffffffffffffff\n      and\n        /* \"LiquidityPool.sol\":12099:12106  _tokenB */\n      dup3\n        /* \"LiquidityPool.sol\":12099:12125  _tokenB == address(tokenB) */\n      0xffffffffffffffffffffffffffffffffffffffff\n      and\n      eq\n        /* \"LiquidityPool.sol\":12069:12125  _tokenA == address(tokenA) && _tokenB == address(tokenB) */\n    tag_213:\n        /* \"LiquidityPool.sol\":12061:12144  require(_tokenA == address(tokenA) && _tokenB == address(tokenB), \"Invalid tokens\") */\n      tag_214\n      jumpi\n      mload(0x40)\n      0x08c379a000000000000000000000000000000000000000000000000000000000\n      dup2\n      mstore\n      0x04\n      add\n      tag_215\n      swap1\n      tag_161\n      jump\t// in\n    tag_215:\n      mload(0x40)\n      dup1\n      swap2\n      sub\n      swap1\n      revert\n    tag_214:\n        /* \"LiquidityPool.sol\":12174:12175  0 */\n      0x00\n        /* \"LiquidityPool.sol\":12163:12171  reserveA */\n      sload(0x07)\n        /* \"LiquidityPool.sol\":12163:12175  reserveA > 0 */\n      gt\n        /* \"LiquidityPool.sol\":12155:12196  require(reserveA > 0, \"Invalid reservaA\") */\n      tag_216\n      jumpi\n      mload(0x40)\n      0x08c379a000000000000000000000000000000000000000000000000000000000\n      dup2\n      mstore\n      0x04\n      add\n      tag_217\n      swap1\n      tag_218\n      jump\t// in\n    tag_217:\n      mload(0x40)\n      dup1\n      swap2\n      sub\n      swap1\n      revert\n    tag_216:\n        /* \"LiquidityPool.sol\":12226:12227  0 */\n      0x00\n        /* \"LiquidityPool.sol\":12215:12223  reserveB */\n      sload(0x08)\n        /* \"LiquidityPool.sol\":12215:12227  reserveB > 0 */\n      gt\n        /* \"LiquidityPool.sol\":12207:12248  require(reserveB > 0, \"Invalid reservaB\") */\n      tag_219\n      jumpi\n      mload(0x40)\n      0x08c379a000000000000000000000000000000000000000000000000000000000\n      dup2\n      mstore\n      0x04\n      add\n      tag_220\n      swap1\n      tag_221\n      jump\t// in\n    tag_220:\n      mload(0x40)\n      dup1\n      swap2\n      sub\n      swap1\n      revert\n    tag_219:\n        /* \"LiquidityPool.sol\":12346:12354  reserveA */\n      sload(0x07)\n        /* \"LiquidityPool.sol\":12338:12342  1e18 */\n      0x0de0b6b3a7640000\n        /* \"LiquidityPool.sol\":12327:12335  reserveB */\n      sload(0x08)\n        /* \"LiquidityPool.sol\":12327:12342  reserveB * 1e18 */\n      tag_222\n      swap2\n      swap1\n      tag_117\n      jump\t// in\n    tag_222:\n        /* \"LiquidityPool.sol\":12326:12354  (reserveB * 1e18) / reserveA */\n      tag_223\n      swap2\n      swap1\n      tag_119\n      jump\t// in\n    tag_223:\n        /* \"LiquidityPool.sol\":12318:12354  price = (reserveB * 1e18) / reserveA */\n      swap1\n      pop\n        /* \"LiquidityPool.sol\":11908:12422  function getPrice(... */\n      swap3\n      swap2\n      pop\n      pop\n      jump\t// out\n        /* \"LiquidityPool.sol\":3877:5987  function removeLiquidity(... */\n    tag_88:\n        /* \"LiquidityPool.sol\":4107:4119  uint amountA */\n      0x00\n        /* \"LiquidityPool.sol\":4121:4133  uint amountB */\n      0x00\n        /* \"LiquidityPool.sol\":4173:4179  tokenA */\n      0x05\n      0x00\n      swap1\n      sload\n      swap1\n      0x0100\n      exp\n      swap1\n      div\n      0xffffffffffffffffffffffffffffffffffffffff\n      and\n        /* \"LiquidityPool.sol\":4154:4180  _tokenA == address(tokenA) */\n      0xffffffffffffffffffffffffffffffffffffffff\n      and\n        /* \"LiquidityPool.sol\":4154:4161  _tokenA */\n      dup10\n        /* \"LiquidityPool.sol\":4154:4180  _tokenA == address(tokenA) */\n      0xffffffffffffffffffffffffffffffffffffffff\n      and\n      eq\n        /* \"LiquidityPool.sol\":4154:4210  _tokenA == address(tokenA) && _tokenB == address(tokenB) */\n      dup1\n      iszero\n      tag_225\n      jumpi\n      pop\n        /* \"LiquidityPool.sol\":4203:4209  tokenB */\n      0x06\n      0x00\n      swap1\n      sload\n      swap1\n      0x0100\n      exp\n      swap1\n      div\n      0xffffffffffffffffffffffffffffffffffffffff\n      and\n        /* \"LiquidityPool.sol\":4184:4210  _tokenB == address(tokenB) */\n      0xffffffffffffffffffffffffffffffffffffffff\n      and\n        /* \"LiquidityPool.sol\":4184:4191  _tokenB */\n      dup9\n        /* \"LiquidityPool.sol\":4184:4210  _tokenB == address(tokenB) */\n      0xffffffffffffffffffffffffffffffffffffffff\n      and\n      eq\n        /* \"LiquidityPool.sol\":4154:4210  _tokenA == address(tokenA) && _tokenB == address(tokenB) */\n    tag_225:\n        /* \"LiquidityPool.sol\":4146:4229  require(_tokenA == address(tokenA) && _tokenB == address(tokenB), \"Invalid tokens\") */\n      tag_226\n      jumpi\n      mload(0x40)\n      0x08c379a000000000000000000000000000000000000000000000000000000000\n      dup2\n      mstore\n      0x04\n      add\n      tag_227\n      swap1\n      tag_161\n      jump\t// in\n    tag_227:\n      mload(0x40)\n      dup1\n      swap2\n      sub\n      swap1\n      revert\n    tag_226:\n        /* \"LiquidityPool.sol\":4267:4275  deadline */\n      dup3\n        /* \"LiquidityPool.sol\":4248:4263  block.timestamp */\n      timestamp\n        /* \"LiquidityPool.sol\":4248:4275  block.timestamp <= deadline */\n      gt\n      iszero\n        /* \"LiquidityPool.sol\":4240:4299  require(block.timestamp <= deadline, \"Transaction expired\") */\n      tag_228\n      jumpi\n      mload(0x40)\n      0x08c379a000000000000000000000000000000000000000000000000000000000\n      dup2\n      mstore\n      0x04\n      add\n      tag_229\n      swap1\n      tag_147\n      jump\t// in\n    tag_229:\n      mload(0x40)\n      dup1\n      swap2\n      sub\n      swap1\n      revert\n    tag_228:\n        /* \"LiquidityPool.sol\":4330:4331  0 */\n      0x00\n        /* \"LiquidityPool.sol\":4318:4327  liquidity */\n      dup8\n        /* \"LiquidityPool.sol\":4318:4331  liquidity > 0 */\n      gt\n        /* \"LiquidityPool.sol\":4310:4353  require(liquidity > 0, \"Invalid liquidity\") */\n      tag_230\n      jumpi\n      mload(0x40)\n      0x08c379a000000000000000000000000000000000000000000000000000000000\n      dup2\n      mstore\n      0x04\n      add\n      tag_231\n      swap1\n      tag_232\n      jump\t// in\n    tag_231:\n      mload(0x40)\n      dup1\n      swap2\n      sub\n      swap1\n      revert\n    tag_230:\n        /* \"LiquidityPool.sol\":4386:4387  0 */\n      0x00\n        /* \"LiquidityPool.sol\":4372:4382  amountBMin */\n      dup6\n        /* \"LiquidityPool.sol\":4372:4387  amountBMin >= 0 */\n      lt\n      iszero\n        /* \"LiquidityPool.sol\":4364:4410  require(amountBMin >= 0, \"Invalid amountBMin\") */\n      tag_233\n      jumpi\n      mload(0x40)\n      0x08c379a000000000000000000000000000000000000000000000000000000000\n      dup2\n      mstore\n      0x04\n      add\n      tag_234\n      swap1\n      tag_235\n      jump\t// in\n    tag_234:\n      mload(0x40)\n      dup1\n      swap2\n      sub\n      swap1\n      revert\n    tag_233:\n        /* \"LiquidityPool.sol\":4470:4471  0 */\n      0x00\n        /* \"LiquidityPool.sol\":4456:4466  amountAMin */\n      dup7\n        /* \"LiquidityPool.sol\":4456:4471  amountAMin >= 0 */\n      lt\n      iszero\n        /* \"LiquidityPool.sol\":4448:4494  require(amountAMin >= 0, \"Invalid amountAMin\") */\n      tag_236\n      jumpi\n      mload(0x40)\n      0x08c379a000000000000000000000000000000000000000000000000000000000\n      dup2\n      mstore\n      0x04\n      add\n      tag_237\n      swap1\n      tag_238\n      jump\t// in\n    tag_237:\n      mload(0x40)\n      dup1\n      swap2\n      sub\n      swap1\n      revert\n    tag_236:\n        /* \"LiquidityPool.sol\":4539:4583  Debug(\"removeLiquidity - antes totalSupply\") */\n      0x7cdb51e9dbbc205231228146c3246e7f914aa6d4a33170e43ecc8e3593481d1a\n      mload(0x40)\n      tag_239\n      swap1\n      tag_240\n      jump\t// in\n    tag_239:\n      mload(0x40)\n      dup1\n      swap2\n      sub\n      swap1\n      log1\n        /* \"LiquidityPool.sol\":4678:4696  uint totalLPTokens */\n      0x00\n        /* \"LiquidityPool.sol\":4699:4712  totalSupply() */\n      tag_241\n        /* \"LiquidityPool.sol\":4699:4710  totalSupply */\n      tag_45\n        /* \"LiquidityPool.sol\":4699:4712  totalSupply() */\n      jump\t// in\n    tag_241:\n        /* \"LiquidityPool.sol\":4678:4712  uint totalLPTokens = totalSupply() */\n      swap1\n      pop\n        /* \"LiquidityPool.sol\":4747:4748  0 */\n      0x00\n        /* \"LiquidityPool.sol\":4731:4744  totalLPTokens */\n      dup2\n        /* \"LiquidityPool.sol\":4731:4748  totalLPTokens > 0 */\n      gt\n        /* \"LiquidityPool.sol\":4723:4767  require(totalLPTokens > 0, \"Invalid supply\") */\n      tag_242\n      jumpi\n      mload(0x40)\n      0x08c379a000000000000000000000000000000000000000000000000000000000\n      dup2\n      mstore\n      0x04\n      add\n      tag_243\n      swap1\n      tag_244\n      jump\t// in\n    tag_243:\n      mload(0x40)\n      dup1\n      swap2\n      sub\n      swap1\n      revert\n    tag_242:\n        /* \"LiquidityPool.sol\":4873:4886  totalLPTokens */\n      dup1\n        /* \"LiquidityPool.sol\":4861:4869  reserveA */\n      sload(0x07)\n        /* \"LiquidityPool.sol\":4849:4858  liquidity */\n      dup10\n        /* \"LiquidityPool.sol\":4849:4869  liquidity * reserveA */\n      tag_245\n      swap2\n      swap1\n      tag_117\n      jump\t// in\n    tag_245:\n        /* \"LiquidityPool.sol\":4848:4886  (liquidity * reserveA) / totalLPTokens */\n      tag_246\n      swap2\n      swap1\n      tag_119\n      jump\t// in\n    tag_246:\n        /* \"LiquidityPool.sol\":4838:4886  amountA = (liquidity * reserveA) / totalLPTokens */\n      swap3\n      pop\n        /* \"LiquidityPool.sol\":4932:4945  totalLPTokens */\n      dup1\n        /* \"LiquidityPool.sol\":4920:4928  reserveB */\n      sload(0x08)\n        /* \"LiquidityPool.sol\":4908:4917  liquidity */\n      dup10\n        /* \"LiquidityPool.sol\":4908:4928  liquidity * reserveB */\n      tag_247\n      swap2\n      swap1\n      tag_117\n      jump\t// in\n    tag_247:\n        /* \"LiquidityPool.sol\":4907:4945  (liquidity * reserveB) / totalLPTokens */\n      tag_248\n      swap2\n      swap1\n      tag_119\n      jump\t// in\n    tag_248:\n        /* \"LiquidityPool.sol\":4897:4945  amountB = (liquidity * reserveB) / totalLPTokens */\n      swap2\n      pop\n        /* \"LiquidityPool.sol\":5161:5171  amountAMin */\n      dup7\n        /* \"LiquidityPool.sol\":5150:5157  amountA */\n      dup4\n        /* \"LiquidityPool.sol\":5150:5171  amountA >= amountAMin */\n      lt\n      iszero\n        /* \"LiquidityPool.sol\":5142:5193  require(amountA >= amountAMin, \"amountA below min\") */\n      tag_249\n      jumpi\n      mload(0x40)\n      0x08c379a000000000000000000000000000000000000000000000000000000000\n      dup2\n      mstore\n      0x04\n      add\n      tag_250\n      swap1\n      tag_251\n      jump\t// in\n    tag_250:\n      mload(0x40)\n      dup1\n      swap2\n      sub\n      swap1\n      revert\n    tag_249:\n        /* \"LiquidityPool.sol\":5223:5233  amountBMin */\n      dup6\n        /* \"LiquidityPool.sol\":5212:5219  amountB */\n      dup3\n        /* \"LiquidityPool.sol\":5212:5233  amountB >= amountBMin */\n      lt\n      iszero\n        /* \"LiquidityPool.sol\":5204:5255  require(amountB >= amountBMin, \"amountB below min\") */\n      tag_252\n      jumpi\n      mload(0x40)\n      0x08c379a000000000000000000000000000000000000000000000000000000000\n      dup2\n      mstore\n      0x04\n      add\n      tag_253\n      swap1\n      tag_254\n      jump\t// in\n    tag_253:\n      mload(0x40)\n      dup1\n      swap2\n      sub\n      swap1\n      revert\n    tag_252:\n        /* \"LiquidityPool.sol\":5389:5430  Debug(\"removeLiquidity - antes transfer\") */\n      0x7cdb51e9dbbc205231228146c3246e7f914aa6d4a33170e43ecc8e3593481d1a\n      mload(0x40)\n      tag_255\n      swap1\n      tag_256\n      jump\t// in\n    tag_255:\n      mload(0x40)\n      dup1\n      swap2\n      sub\n      swap1\n      log1\n        /* \"LiquidityPool.sol\":5459:5465  tokenA */\n      0x05\n      0x00\n      swap1\n      sload\n      swap1\n      0x0100\n      exp\n      swap1\n      div\n      0xffffffffffffffffffffffffffffffffffffffff\n      and\n        /* \"LiquidityPool.sol\":5459:5474  tokenA.transfer */\n      0xffffffffffffffffffffffffffffffffffffffff\n      and\n      0xa9059cbb\n        /* \"LiquidityPool.sol\":5475:5477  to */\n      dup7\n        /* \"LiquidityPool.sol\":5479:5486  amountA */\n      dup6\n        /* \"LiquidityPool.sol\":5459:5487  tokenA.transfer(to, amountA) */\n      mload(0x40)\n      dup4\n      0xffffffff\n      and\n      0xe0\n      shl\n      dup2\n      mstore\n      0x04\n      add\n      tag_257\n      swap3\n      swap2\n      swap1\n      tag_178\n      jump\t// in\n    tag_257:\n      0x20\n      mload(0x40)\n      dup1\n      dup4\n      sub\n      dup2\n      0x00\n      dup8\n      gas\n      call\n      iszero\n      dup1\n      iszero\n      tag_259\n      jumpi\n      returndatacopy(0x00, 0x00, returndatasize)\n      revert(0x00, returndatasize)\n    tag_259:\n      pop\n      pop\n      pop\n      pop\n      mload(0x40)\n      returndatasize\n      not(0x1f)\n      0x1f\n      dup3\n      add\n      and\n      dup3\n      add\n      dup1\n      0x40\n      mstore\n      pop\n      dup2\n      add\n      swap1\n      tag_260\n      swap2\n      swap1\n      tag_167\n      jump\t// in\n    tag_260:\n        /* \"LiquidityPool.sol\":5451:5514  require(tokenA.transfer(to, amountA), \"Transfer tokenA failed\") */\n      tag_261\n      jumpi\n      mload(0x40)\n      0x08c379a000000000000000000000000000000000000000000000000000000000\n      dup2\n      mstore\n      0x04\n      add\n      tag_262\n      swap1\n      tag_263\n      jump\t// in\n    tag_262:\n      mload(0x40)\n      dup1\n      swap2\n      sub\n      swap1\n      revert\n    tag_261:\n        /* \"LiquidityPool.sol\":5533:5539  tokenB */\n      0x06\n      0x00\n      swap1\n      sload\n      swap1\n      0x0100\n      exp\n      swap1\n      div\n      0xffffffffffffffffffffffffffffffffffffffff\n      and\n        /* \"LiquidityPool.sol\":5533:5548  tokenB.transfer */\n      0xffffffffffffffffffffffffffffffffffffffff\n      and\n      0xa9059cbb\n        /* \"LiquidityPool.sol\":5549:5551  to */\n      dup7\n        /* \"LiquidityPool.sol\":5553:5560  amountB */\n      dup5\n        /* \"LiquidityPool.sol\":5533:5561  tokenB.transfer(to, amountB) */\n      mload(0x40)\n      dup4\n      0xffffffff\n      and\n      0xe0\n      shl\n      dup2\n      mstore\n      0x04\n      add\n      tag_264\n      swap3\n      swap2\n      swap1\n      tag_178\n      jump\t// in\n    tag_264:\n      0x20\n      mload(0x40)\n      dup1\n      dup4\n      sub\n      dup2\n      0x00\n      dup8\n      gas\n      call\n      iszero\n      dup1\n      iszero\n      tag_266\n      jumpi\n      returndatacopy(0x00, 0x00, returndatasize)\n      revert(0x00, returndatasize)\n    tag_266:\n      pop\n      pop\n      pop\n      pop\n      mload(0x40)\n      returndatasize\n      not(0x1f)\n      0x1f\n      dup3\n      add\n      and\n      dup3\n      add\n      dup1\n      0x40\n      mstore\n      pop\n      dup2\n      add\n      swap1\n      tag_267\n      swap2\n      swap1\n      tag_167\n      jump\t// in\n    tag_267:\n        /* \"LiquidityPool.sol\":5525:5588  require(tokenB.transfer(to, amountB), \"Transfer tokenB failed\") */\n      tag_268\n      jumpi\n      mload(0x40)\n      0x08c379a000000000000000000000000000000000000000000000000000000000\n      dup2\n      mstore\n      0x04\n      add\n      tag_269\n      swap1\n      tag_270\n      jump\t// in\n    tag_269:\n      mload(0x40)\n      dup1\n      swap2\n      sub\n      swap1\n      revert\n    tag_268:\n        /* \"LiquidityPool.sol\":5606:5643  Debug(\"removeLiquidity - antes burn\") */\n      0x7cdb51e9dbbc205231228146c3246e7f914aa6d4a33170e43ecc8e3593481d1a\n      mload(0x40)\n      tag_271\n      swap1\n      tag_272\n      jump\t// in\n    tag_271:\n      mload(0x40)\n      dup1\n      swap2\n      sub\n      swap1\n      log1\n        /* \"LiquidityPool.sol\":5725:5745  _burn(to, liquidity) */\n      tag_273\n        /* \"LiquidityPool.sol\":5731:5733  to */\n      dup6\n        /* \"LiquidityPool.sol\":5735:5744  liquidity */\n      dup10\n        /* \"LiquidityPool.sol\":5725:5730  _burn */\n      tag_274\n        /* \"LiquidityPool.sol\":5725:5745  _burn(to, liquidity) */\n      jump\t// in\n    tag_273:\n        /* \"LiquidityPool.sol\":5804:5843  Debug(\"removeLiquidity - despues burn\") */\n      0x7cdb51e9dbbc205231228146c3246e7f914aa6d4a33170e43ecc8e3593481d1a\n      mload(0x40)\n      tag_275\n      swap1\n      tag_276\n      jump\t// in\n    tag_275:\n      mload(0x40)\n      dup1\n      swap2\n      sub\n      swap1\n      log1\n        /* \"LiquidityPool.sol\":5896:5903  amountA */\n      dup3\n        /* \"LiquidityPool.sol\":5884:5892  reserveA */\n      0x07\n      0x00\n        /* \"LiquidityPool.sol\":5884:5903  reserveA -= amountA */\n      dup3\n      dup3\n      sload\n      tag_277\n      swap2\n      swap1\n      tag_186\n      jump\t// in\n    tag_277:\n      swap3\n      pop\n      pop\n      dup2\n      swap1\n      sstore\n      pop\n        /* \"LiquidityPool.sol\":5926:5933  amountB */\n      dup2\n        /* \"LiquidityPool.sol\":5914:5922  reserveB */\n      0x08\n      0x00\n        /* \"LiquidityPool.sol\":5914:5933  reserveB -= amountB */\n      dup3\n      dup3\n      sload\n      tag_278\n      swap2\n      swap1\n      tag_186\n      jump\t// in\n    tag_278:\n      swap3\n      pop\n      pop\n      dup2\n      swap1\n      sstore\n      pop\n        /* \"LiquidityPool.sol\":5949:5979  Debug(\"removeLiquidity - END\") */\n      0x7cdb51e9dbbc205231228146c3246e7f914aa6d4a33170e43ecc8e3593481d1a\n      mload(0x40)\n      tag_279\n      swap1\n      tag_280\n      jump\t// in\n    tag_279:\n      mload(0x40)\n      dup1\n      swap2\n      sub\n      swap1\n      log1\n        /* \"LiquidityPool.sol\":4135:5987  {... */\n      pop\n        /* \"LiquidityPool.sol\":3877:5987  function removeLiquidity(... */\n      swap8\n      pop\n      swap8\n      swap6\n      pop\n      pop\n      pop\n      pop\n      pop\n      pop\n      jump\t// out\n        /* \"LiquidityPool.sol\":302:325  uint256 public reserveA */\n    tag_92:\n      sload(0x07)\n      dup2\n      jump\t// out\n        /* \"@openzeppelin/contracts/token/ERC20/ERC20.sol\":3532:3672  function allowance(address owner, address spender) public view virtual returns (uint256) {... */\n    tag_96:\n        /* \"@openzeppelin/contracts/token/ERC20/ERC20.sol\":3612:3619  uint256 */\n      0x00\n        /* \"@openzeppelin/contracts/token/ERC20/ERC20.sol\":3638:3649  _allowances */\n      0x01\n        /* \"@openzeppelin/contracts/token/ERC20/ERC20.sol\":3638:3656  _allowances[owner] */\n      0x00\n        /* \"@openzeppelin/contracts/token/ERC20/ERC20.sol\":3650:3655  owner */\n      dup5\n        /* \"@openzeppelin/contracts/token/ERC20/ERC20.sol\":3638:3656  _allowances[owner] */\n      0xffffffffffffffffffffffffffffffffffffffff\n      and\n      0xffffffffffffffffffffffffffffffffffffffff\n      and\n      dup2\n      mstore\n      0x20\n      add\n      swap1\n      dup2\n      mstore\n      0x20\n      add\n      0x00\n      keccak256\n        /* \"@openzeppelin/contracts/token/ERC20/ERC20.sol\":3638:3665  _allowances[owner][spender] */\n      0x00\n        /* \"@openzeppelin/contracts/token/ERC20/ERC20.sol\":3657:3664  spender */\n      dup4\n        /* \"@openzeppelin/contracts/token/ERC20/ERC20.sol\":3638:3665  _allowances[owner][spender] */\n      0xffffffffffffffffffffffffffffffffffffffff\n      and\n      0xffffffffffffffffffffffffffffffffffffffff\n      and\n      dup2\n      mstore\n      0x20\n      add\n      swap1\n      dup2\n      mstore\n      0x20\n      add\n      0x00\n      keccak256\n      sload\n        /* \"@openzeppelin/contracts/token/ERC20/ERC20.sol\":3631:3665  return _allowances[owner][spender] */\n      swap1\n      pop\n        /* \"@openzeppelin/contracts/token/ERC20/ERC20.sol\":3532:3672  function allowance(address owner, address spender) public view virtual returns (uint256) {... */\n      swap3\n      swap2\n      pop\n      pop\n      jump\t// out\n        /* \"LiquidityPool.sol\":636:2473  function addLiquidity(... */\n    tag_101:\n        /* \"LiquidityPool.sol\":892:904  uint amountA */\n      0x00\n        /* \"LiquidityPool.sol\":906:918  uint amountB */\n      0x00\n        /* \"LiquidityPool.sol\":920:934  uint liquidity */\n      0x00\n        /* \"LiquidityPool.sol\":974:982  deadline */\n      dup4\n        /* \"LiquidityPool.sol\":955:970  block.timestamp */\n      timestamp\n        /* \"LiquidityPool.sol\":955:982  block.timestamp <= deadline */\n      gt\n      iszero\n        /* \"LiquidityPool.sol\":947:1006  require(block.timestamp <= deadline, \"Transaction expired\") */\n      tag_283\n      jumpi\n      mload(0x40)\n      0x08c379a000000000000000000000000000000000000000000000000000000000\n      dup2\n      mstore\n      0x04\n      add\n      tag_284\n      swap1\n      tag_147\n      jump\t// in\n    tag_284:\n      mload(0x40)\n      dup1\n      swap2\n      sub\n      swap1\n      revert\n    tag_283:\n        /* \"LiquidityPool.sol\":1044:1050  tokenA */\n      0x05\n      0x00\n      swap1\n      sload\n      swap1\n      0x0100\n      exp\n      swap1\n      div\n      0xffffffffffffffffffffffffffffffffffffffff\n      and\n        /* \"LiquidityPool.sol\":1025:1051  _tokenA == address(tokenA) */\n      0xffffffffffffffffffffffffffffffffffffffff\n      and\n        /* \"LiquidityPool.sol\":1025:1032  _tokenA */\n      dup12\n        /* \"LiquidityPool.sol\":1025:1051  _tokenA == address(tokenA) */\n      0xffffffffffffffffffffffffffffffffffffffff\n      and\n      eq\n        /* \"LiquidityPool.sol\":1025:1081  _tokenA == address(tokenA) && _tokenB == address(tokenB) */\n      dup1\n      iszero\n      tag_285\n      jumpi\n      pop\n        /* \"LiquidityPool.sol\":1074:1080  tokenB */\n      0x06\n      0x00\n      swap1\n      sload\n      swap1\n      0x0100\n      exp\n      swap1\n      div\n      0xffffffffffffffffffffffffffffffffffffffff\n      and\n        /* \"LiquidityPool.sol\":1055:1081  _tokenB == address(tokenB) */\n      0xffffffffffffffffffffffffffffffffffffffff\n      and\n        /* \"LiquidityPool.sol\":1055:1062  _tokenB */\n      dup11\n        /* \"LiquidityPool.sol\":1055:1081  _tokenB == address(tokenB) */\n      0xffffffffffffffffffffffffffffffffffffffff\n      and\n      eq\n        /* \"LiquidityPool.sol\":1025:1081  _tokenA == address(tokenA) && _tokenB == address(tokenB) */\n    tag_285:\n        /* \"LiquidityPool.sol\":1017:1100  require(_tokenA == address(tokenA) && _tokenB == address(tokenB), \"Invalid tokens\") */\n      tag_286\n      jumpi\n      mload(0x40)\n      0x08c379a000000000000000000000000000000000000000000000000000000000\n      dup2\n      mstore\n      0x04\n      add\n      tag_287\n      swap1\n      tag_161\n      jump\t// in\n    tag_287:\n      mload(0x40)\n      dup1\n      swap2\n      sub\n      swap1\n      revert\n    tag_286:\n        /* \"LiquidityPool.sol\":1153:1226  _calculateAmounts(amountADesired, amountBDesired, amountAMin, amountBMin) */\n      tag_288\n        /* \"LiquidityPool.sol\":1171:1185  amountADesired */\n      dup10\n        /* \"LiquidityPool.sol\":1187:1201  amountBDesired */\n      dup10\n        /* \"LiquidityPool.sol\":1203:1213  amountAMin */\n      dup10\n        /* \"LiquidityPool.sol\":1215:1225  amountBMin */\n      dup10\n        /* \"LiquidityPool.sol\":1153:1170  _calculateAmounts */\n      tag_289\n        /* \"LiquidityPool.sol\":1153:1226  _calculateAmounts(amountADesired, amountBDesired, amountAMin, amountBMin) */\n      jump\t// in\n    tag_288:\n        /* \"LiquidityPool.sol\":1132:1226  (amountA, amountB) = _calculateAmounts(amountADesired, amountBDesired, amountAMin, amountBMin) */\n      dup1\n      swap4\n      pop\n      dup2\n      swap5\n      pop\n      pop\n      pop\n        /* \"LiquidityPool.sol\":1244:1282  Debug(\"addLiquidity - antes transfer\") */\n      0x7cdb51e9dbbc205231228146c3246e7f914aa6d4a33170e43ecc8e3593481d1a\n      mload(0x40)\n      tag_290\n      swap1\n      tag_291\n      jump\t// in\n    tag_290:\n      mload(0x40)\n      dup1\n      swap2\n      sub\n      swap1\n      log1\n        /* \"LiquidityPool.sol\":1356:1362  tokenA */\n      0x05\n      0x00\n      swap1\n      sload\n      swap1\n      0x0100\n      exp\n      swap1\n      div\n      0xffffffffffffffffffffffffffffffffffffffff\n      and\n        /* \"LiquidityPool.sol\":1356:1375  tokenA.transferFrom */\n      0xffffffffffffffffffffffffffffffffffffffff\n      and\n      0x23b872dd\n        /* \"LiquidityPool.sol\":1376:1386  msg.sender */\n      caller\n        /* \"LiquidityPool.sol\":1396:1400  this */\n      address\n        /* \"LiquidityPool.sol\":1403:1410  amountA */\n      dup7\n        /* \"LiquidityPool.sol\":1356:1411  tokenA.transferFrom(msg.sender, address(this), amountA) */\n      mload(0x40)\n      dup5\n      0xffffffff\n      and\n      0xe0\n      shl\n      dup2\n      mstore\n      0x04\n      add\n      tag_292\n      swap4\n      swap3\n      swap2\n      swap1\n      tag_163\n      jump\t// in\n    tag_292:\n      0x20\n      mload(0x40)\n      dup1\n      dup4\n      sub\n      dup2\n      0x00\n      dup8\n      gas\n      call\n      iszero\n      dup1\n      iszero\n      tag_294\n      jumpi\n      returndatacopy(0x00, 0x00, returndatasize)\n      revert(0x00, returndatasize)\n    tag_294:\n      pop\n      pop\n      pop\n      pop\n      mload(0x40)\n      returndatasize\n      not(0x1f)\n      0x1f\n      dup3\n      add\n      and\n      dup3\n      add\n      dup1\n      0x40\n      mstore\n      pop\n      dup2\n      add\n      swap1\n      tag_295\n      swap2\n      swap1\n      tag_167\n      jump\t// in\n    tag_295:\n        /* \"LiquidityPool.sol\":1348:1438  require(tokenA.transferFrom(msg.sender, address(this), amountA), \"tokenA transfer failed\") */\n      tag_296\n      jumpi\n      mload(0x40)\n      0x08c379a000000000000000000000000000000000000000000000000000000000\n      dup2\n      mstore\n      0x04\n      add\n      tag_297\n      swap1\n      tag_298\n      jump\t// in\n    tag_297:\n      mload(0x40)\n      dup1\n      swap2\n      sub\n      swap1\n      revert\n    tag_296:\n        /* \"LiquidityPool.sol\":1457:1463  tokenB */\n      0x06\n      0x00\n      swap1\n      sload\n      swap1\n      0x0100\n      exp\n      swap1\n      div\n      0xffffffffffffffffffffffffffffffffffffffff\n      and\n        /* \"LiquidityPool.sol\":1457:1476  tokenB.transferFrom */\n      0xffffffffffffffffffffffffffffffffffffffff\n      and\n      0x23b872dd\n        /* \"LiquidityPool.sol\":1477:1487  msg.sender */\n      caller\n        /* \"LiquidityPool.sol\":1497:1501  this */\n      address\n        /* \"LiquidityPool.sol\":1504:1511  amountB */\n      dup6\n        /* \"LiquidityPool.sol\":1457:1512  tokenB.transferFrom(msg.sender, address(this), amountB) */\n      mload(0x40)\n      dup5\n      0xffffffff\n      and\n      0xe0\n      shl\n      dup2\n      mstore\n      0x04\n      add\n      tag_299\n      swap4\n      swap3\n      swap2\n      swap1\n      tag_163\n      jump\t// in\n    tag_299:\n      0x20\n      mload(0x40)\n      dup1\n      dup4\n      sub\n      dup2\n      0x00\n      dup8\n      gas\n      call\n      iszero\n      dup1\n      iszero\n      tag_301\n      jumpi\n      returndatacopy(0x00, 0x00, returndatasize)\n      revert(0x00, returndatasize)\n    tag_301:\n      pop\n      pop\n      pop\n      pop\n      mload(0x40)\n      returndatasize\n      not(0x1f)\n      0x1f\n      dup3\n      add\n      and\n      dup3\n      add\n      dup1\n      0x40\n      mstore\n      pop\n      dup2\n      add\n      swap1\n      tag_302\n      swap2\n      swap1\n      tag_167\n      jump\t// in\n    tag_302:\n        /* \"LiquidityPool.sol\":1449:1539  require(tokenB.transferFrom(msg.sender, address(this), amountB), \"tokenB transfer failed\") */\n      tag_303\n      jumpi\n      mload(0x40)\n      0x08c379a000000000000000000000000000000000000000000000000000000000\n      dup2\n      mstore\n      0x04\n      add\n      tag_304\n      swap1\n      tag_305\n      jump\t// in\n    tag_304:\n      mload(0x40)\n      dup1\n      swap2\n      sub\n      swap1\n      revert\n    tag_303:\n        /* \"LiquidityPool.sol\":1648:1649  0 */\n      0x00\n        /* \"LiquidityPool.sol\":1631:1644  totalSupply() */\n      tag_306\n        /* \"LiquidityPool.sol\":1631:1642  totalSupply */\n      tag_45\n        /* \"LiquidityPool.sol\":1631:1644  totalSupply() */\n      jump\t// in\n    tag_306:\n        /* \"LiquidityPool.sol\":1631:1649  totalSupply() == 0 */\n      sub\n        /* \"LiquidityPool.sol\":1627:1888  if (totalSupply() == 0) {... */\n      tag_307\n      jumpi\n        /* \"LiquidityPool.sol\":1678:1702  _sqrt(amountA * amountB) */\n      tag_308\n        /* \"LiquidityPool.sol\":1694:1701  amountB */\n      dup3\n        /* \"LiquidityPool.sol\":1684:1691  amountA */\n      dup5\n        /* \"LiquidityPool.sol\":1684:1701  amountA * amountB */\n      tag_309\n      swap2\n      swap1\n      tag_117\n      jump\t// in\n    tag_309:\n        /* \"LiquidityPool.sol\":1678:1683  _sqrt */\n      tag_310\n        /* \"LiquidityPool.sol\":1678:1702  _sqrt(amountA * amountB) */\n      jump\t// in\n    tag_308:\n        /* \"LiquidityPool.sol\":1666:1702  liquidity = _sqrt(amountA * amountB) */\n      swap1\n      pop\n        /* \"LiquidityPool.sol\":1627:1888  if (totalSupply() == 0) {... */\n      jump(tag_311)\n    tag_307:\n        /* \"LiquidityPool.sol\":1747:1876  _min(... */\n      tag_312\n        /* \"LiquidityPool.sol\":1798:1806  reserveA */\n      sload(0x07)\n        /* \"LiquidityPool.sol\":1781:1794  totalSupply() */\n      tag_313\n        /* \"LiquidityPool.sol\":1781:1792  totalSupply */\n      tag_45\n        /* \"LiquidityPool.sol\":1781:1794  totalSupply() */\n      jump\t// in\n    tag_313:\n        /* \"LiquidityPool.sol\":1771:1778  amountA */\n      dup6\n        /* \"LiquidityPool.sol\":1771:1794  amountA * totalSupply() */\n      tag_314\n      swap2\n      swap1\n      tag_117\n      jump\t// in\n    tag_314:\n        /* \"LiquidityPool.sol\":1770:1806  (amountA * totalSupply()) / reserveA */\n      tag_315\n      swap2\n      swap1\n      tag_119\n      jump\t// in\n    tag_315:\n        /* \"LiquidityPool.sol\":1853:1861  reserveB */\n      sload(0x08)\n        /* \"LiquidityPool.sol\":1836:1849  totalSupply() */\n      tag_316\n        /* \"LiquidityPool.sol\":1836:1847  totalSupply */\n      tag_45\n        /* \"LiquidityPool.sol\":1836:1849  totalSupply() */\n      jump\t// in\n    tag_316:\n        /* \"LiquidityPool.sol\":1826:1833  amountB */\n      dup6\n        /* \"LiquidityPool.sol\":1826:1849  amountB * totalSupply() */\n      tag_317\n      swap2\n      swap1\n      tag_117\n      jump\t// in\n    tag_317:\n        /* \"LiquidityPool.sol\":1825:1861  (amountB * totalSupply()) / reserveB */\n      tag_318\n      swap2\n      swap1\n      tag_119\n      jump\t// in\n    tag_318:\n        /* \"LiquidityPool.sol\":1747:1751  _min */\n      tag_319\n        /* \"LiquidityPool.sol\":1747:1876  _min(... */\n      jump\t// in\n    tag_312:\n        /* \"LiquidityPool.sol\":1735:1876  liquidity = _min(... */\n      swap1\n      pop\n        /* \"LiquidityPool.sol\":1627:1888  if (totalSupply() == 0) {... */\n    tag_311:\n        /* \"LiquidityPool.sol\":2294:2295  0 */\n      0x00\n        /* \"LiquidityPool.sol\":2282:2291  liquidity */\n      dup2\n        /* \"LiquidityPool.sol\":2282:2295  liquidity > 0 */\n      gt\n        /* \"LiquidityPool.sol\":2274:2317  require(liquidity > 0, \"Invalid liquidity\") */\n      tag_320\n      jumpi\n      mload(0x40)\n      0x08c379a000000000000000000000000000000000000000000000000000000000\n      dup2\n      mstore\n      0x04\n      add\n      tag_321\n      swap1\n      tag_232\n      jump\t// in\n    tag_321:\n      mload(0x40)\n      dup1\n      swap2\n      sub\n      swap1\n      revert\n    tag_320:\n        /* \"LiquidityPool.sol\":2355:2375  _mint(to, liquidity) */\n      tag_322\n        /* \"LiquidityPool.sol\":2361:2363  to */\n      dup6\n        /* \"LiquidityPool.sol\":2365:2374  liquidity */\n      dup3\n        /* \"LiquidityPool.sol\":2355:2360  _mint */\n      tag_323\n        /* \"LiquidityPool.sol\":2355:2375  _mint(to, liquidity) */\n      jump\t// in\n    tag_322:\n        /* \"LiquidityPool.sol\":2428:2435  amountA */\n      dup3\n        /* \"LiquidityPool.sol\":2416:2424  reserveA */\n      0x07\n      0x00\n        /* \"LiquidityPool.sol\":2416:2435  reserveA += amountA */\n      dup3\n      dup3\n      sload\n      tag_324\n      swap2\n      swap1\n      tag_115\n      jump\t// in\n    tag_324:\n      swap3\n      pop\n      pop\n      dup2\n      swap1\n      sstore\n      pop\n        /* \"LiquidityPool.sol\":2458:2465  amountB */\n      dup2\n        /* \"LiquidityPool.sol\":2446:2454  reserveB */\n      0x08\n      0x00\n        /* \"LiquidityPool.sol\":2446:2465  reserveB += amountB */\n      dup3\n      dup3\n      sload\n      tag_325\n      swap2\n      swap1\n      tag_115\n      jump\t// in\n    tag_325:\n      swap3\n      pop\n      pop\n      dup2\n      swap1\n      sstore\n      pop\n        /* \"LiquidityPool.sol\":636:2473  function addLiquidity(... */\n      swap9\n      pop\n      swap9\n      pop\n      swap9\n      swap6\n      pop\n      pop\n      pop\n      pop\n      pop\n      pop\n      jump\t// out\n        /* \"@openzeppelin/contracts/utils/Context.sol\":656:752  function _msgSender() internal view virtual returns (address) {... */\n    tag_129:\n        /* \"@openzeppelin/contracts/utils/Context.sol\":709:716  address */\n      0x00\n        /* \"@openzeppelin/contracts/utils/Context.sol\":735:745  msg.sender */\n      caller\n        /* \"@openzeppelin/contracts/utils/Context.sol\":728:745  return msg.sender */\n      swap1\n      pop\n        /* \"@openzeppelin/contracts/utils/Context.sol\":656:752  function _msgSender() internal view virtual returns (address) {... */\n      swap1\n      jump\t// out\n        /* \"@openzeppelin/contracts/token/ERC20/ERC20.sol\":8707:8835  function _approve(address owner, address spender, uint256 value) internal {... */\n    tag_131:\n        /* \"@openzeppelin/contracts/token/ERC20/ERC20.sol\":8791:8828  _approve(owner, spender, value, true) */\n      tag_328\n        /* \"@openzeppelin/contracts/token/ERC20/ERC20.sol\":8800:8805  owner */\n      dup4\n        /* \"@openzeppelin/contracts/token/ERC20/ERC20.sol\":8807:8814  spender */\n      dup4\n        /* \"@openzeppelin/contracts/token/ERC20/ERC20.sol\":8816:8821  value */\n      dup4\n        /* \"@openzeppelin/contracts/token/ERC20/ERC20.sol\":8823:8827  true */\n      0x01\n        /* \"@openzeppelin/contracts/token/ERC20/ERC20.sol\":8791:8799  _approve */\n      tag_329\n        /* \"@openzeppelin/contracts/token/ERC20/ERC20.sol\":8791:8828  _approve(owner, spender, value, true) */\n      jump\t// in\n    tag_328:\n        /* \"@openzeppelin/contracts/token/ERC20/ERC20.sol\":8707:8835  function _approve(address owner, address spender, uint256 value) internal {... */\n      pop\n      pop\n      pop\n      jump\t// out\n        /* \"@openzeppelin/contracts/token/ERC20/ERC20.sol\":10396:10872  function _spendAllowance(address owner, address spender, uint256 value) internal virtual {... */\n    tag_136:\n        /* \"@openzeppelin/contracts/token/ERC20/ERC20.sol\":10495:10519  uint256 currentAllowance */\n      0x00\n        /* \"@openzeppelin/contracts/token/ERC20/ERC20.sol\":10522:10547  allowance(owner, spender) */\n      tag_331\n        /* \"@openzeppelin/contracts/token/ERC20/ERC20.sol\":10532:10537  owner */\n      dup5\n        /* \"@openzeppelin/contracts/token/ERC20/ERC20.sol\":10539:10546  spender */\n      dup5\n        /* \"@openzeppelin/contracts/token/ERC20/ERC20.sol\":10522:10531  allowance */\n      tag_96\n        /* \"@openzeppelin/contracts/token/ERC20/ERC20.sol\":10522:10547  allowance(owner, spender) */\n      jump\t// in\n    tag_331:\n        /* \"@openzeppelin/contracts/token/ERC20/ERC20.sol\":10495:10547  uint256 currentAllowance = allowance(owner, spender) */\n      swap1\n      pop\n        /* \"@openzeppelin/contracts/token/ERC20/ERC20.sol\":10580:10597  type(uint256).max */\n      0xffffffffffffffffffffffffffffffffffffffffffffffffffffffffffffffff\n        /* \"@openzeppelin/contracts/token/ERC20/ERC20.sol\":10561:10577  currentAllowance */\n      dup2\n        /* \"@openzeppelin/contracts/token/ERC20/ERC20.sol\":10561:10597  currentAllowance < type(uint256).max */\n      lt\n        /* \"@openzeppelin/contracts/token/ERC20/ERC20.sol\":10557:10866  if (currentAllowance < type(uint256).max) {... */\n      iszero\n      tag_332\n      jumpi\n        /* \"@openzeppelin/contracts/token/ERC20/ERC20.sol\":10636:10641  value */\n      dup2\n        /* \"@openzeppelin/contracts/token/ERC20/ERC20.sol\":10617:10633  currentAllowance */\n      dup2\n        /* \"@openzeppelin/contracts/token/ERC20/ERC20.sol\":10617:10641  currentAllowance < value */\n      lt\n        /* \"@openzeppelin/contracts/token/ERC20/ERC20.sol\":10613:10743  if (currentAllowance < value) {... */\n      iszero\n      tag_333\n      jumpi\n        /* \"@openzeppelin/contracts/token/ERC20/ERC20.sol\":10695:10702  spender */\n      dup3\n        /* \"@openzeppelin/contracts/token/ERC20/ERC20.sol\":10704:10720  currentAllowance */\n      dup2\n        /* \"@openzeppelin/contracts/token/ERC20/ERC20.sol\":10722:10727  value */\n      dup4\n        /* \"@openzeppelin/contracts/token/ERC20/ERC20.sol\":10668:10728  ERC20InsufficientAllowance(spender, currentAllowance, value) */\n      mload(0x40)\n      0xfb8f41b200000000000000000000000000000000000000000000000000000000\n      dup2\n      mstore\n      0x04\n      add\n      tag_334\n      swap4\n      swap3\n      swap2\n      swap1\n      tag_335\n      jump\t// in\n    tag_334:\n      mload(0x40)\n      dup1\n      swap2\n      sub\n      swap1\n      revert\n        /* \"@openzeppelin/contracts/token/ERC20/ERC20.sol\":10613:10743  if (currentAllowance < value) {... */\n    tag_333:\n        /* \"@openzeppelin/contracts/token/ERC20/ERC20.sol\":10784:10841  _approve(owner, spender, currentAllowance - value, false) */\n      tag_336\n        /* \"@openzeppelin/contracts/token/ERC20/ERC20.sol\":10793:10798  owner */\n      dup5\n        /* \"@openzeppelin/contracts/token/ERC20/ERC20.sol\":10800:10807  spender */\n      dup5\n        /* \"@openzeppelin/contracts/token/ERC20/ERC20.sol\":10828:10833  value */\n      dup5\n        /* \"@openzeppelin/contracts/token/ERC20/ERC20.sol\":10809:10825  currentAllowance */\n      dup5\n        /* \"@openzeppelin/contracts/token/ERC20/ERC20.sol\":10809:10833  currentAllowance - value */\n      sub\n        /* \"@openzeppelin/contracts/token/ERC20/ERC20.sol\":10835:10840  false */\n      0x00\n        /* \"@openzeppelin/contracts/token/ERC20/ERC20.sol\":10784:10792  _approve */\n      tag_329\n        /* \"@openzeppelin/contracts/token/ERC20/ERC20.sol\":10784:10841  _approve(owner, spender, currentAllowance - value, false) */\n      jump\t// in\n    tag_336:\n        /* \"@openzeppelin/contracts/token/ERC20/ERC20.sol\":10557:10866  if (currentAllowance < type(uint256).max) {... */\n    tag_332:\n        /* \"@openzeppelin/contracts/token/ERC20/ERC20.sol\":10485:10872  {... */\n      pop\n        /* \"@openzeppelin/contracts/token/ERC20/ERC20.sol\":10396:10872  function _spendAllowance(address owner, address spender, uint256 value) internal virtual {... */\n      pop\n      pop\n      pop\n      jump\t// out\n        /* \"@openzeppelin/contracts/token/ERC20/ERC20.sol\":5374:5674  function _transfer(address from, address to, uint256 value) internal {... */\n    tag_138:\n        /* \"@openzeppelin/contracts/token/ERC20/ERC20.sol\":5473:5474  0 */\n      0x00\n        /* \"@openzeppelin/contracts/token/ERC20/ERC20.sol\":5457:5475  from == address(0) */\n      0xffffffffffffffffffffffffffffffffffffffff\n      and\n        /* \"@openzeppelin/contracts/token/ERC20/ERC20.sol\":5457:5461  from */\n      dup4\n        /* \"@openzeppelin/contracts/token/ERC20/ERC20.sol\":5457:5475  from == address(0) */\n      0xffffffffffffffffffffffffffffffffffffffff\n      and\n      sub\n        /* \"@openzeppelin/contracts/token/ERC20/ERC20.sol\":5453:5539  if (from == address(0)) {... */\n      tag_338\n      jumpi\n        /* \"@openzeppelin/contracts/token/ERC20/ERC20.sol\":5525:5526  0 */\n      0x00\n        /* \"@openzeppelin/contracts/token/ERC20/ERC20.sol\":5498:5528  ERC20InvalidSender(address(0)) */\n      mload(0x40)\n      0x96c6fd1e00000000000000000000000000000000000000000000000000000000\n      dup2\n      mstore\n      0x04\n      add\n      tag_339\n      swap2\n      swap1\n      tag_340\n      jump\t// in\n    tag_339:\n      mload(0x40)\n      dup1\n      swap2\n      sub\n      swap1\n      revert\n        /* \"@openzeppelin/contracts/token/ERC20/ERC20.sol\":5453:5539  if (from == address(0)) {... */\n    tag_338:\n        /* \"@openzeppelin/contracts/token/ERC20/ERC20.sol\":5566:5567  0 */\n      0x00\n        /* \"@openzeppelin/contracts/token/ERC20/ERC20.sol\":5552:5568  to == address(0) */\n      0xffffffffffffffffffffffffffffffffffffffff\n      and\n        /* \"@openzeppelin/contracts/token/ERC20/ERC20.sol\":5552:5554  to */\n      dup3\n        /* \"@openzeppelin/contracts/token/ERC20/ERC20.sol\":5552:5568  to == address(0) */\n      0xffffffffffffffffffffffffffffffffffffffff\n      and\n      sub\n        /* \"@openzeppelin/contracts/token/ERC20/ERC20.sol\":5548:5634  if (to == address(0)) {... */\n      tag_341\n      jumpi\n        /* \"@openzeppelin/contracts/token/ERC20/ERC20.sol\":5620:5621  0 */\n      0x00\n        /* \"@openzeppelin/contracts/token/ERC20/ERC20.sol\":5591:5623  ERC20InvalidReceiver(address(0)) */\n      mload(0x40)\n      0xec442f0500000000000000000000000000000000000000000000000000000000\n      dup2\n      mstore\n      0x04\n      add\n      tag_342\n      swap2\n      swap1\n      tag_340\n      jump\t// in\n    tag_342:\n      mload(0x40)\n      dup1\n      swap2\n      sub\n      swap1\n      revert\n        /* \"@openzeppelin/contracts/token/ERC20/ERC20.sol\":5548:5634  if (to == address(0)) {... */\n    tag_341:\n        /* \"@openzeppelin/contracts/token/ERC20/ERC20.sol\":5643:5667  _update(from, to, value) */\n      tag_343\n        /* \"@openzeppelin/contracts/token/ERC20/ERC20.sol\":5651:5655  from */\n      dup4\n        /* \"@openzeppelin/contracts/token/ERC20/ERC20.sol\":5657:5659  to */\n      dup4\n        /* \"@openzeppelin/contracts/token/ERC20/ERC20.sol\":5661:5666  value */\n      dup4\n        /* \"@openzeppelin/contracts/token/ERC20/ERC20.sol\":5643:5650  _update */\n      tag_344\n        /* \"@openzeppelin/contracts/token/ERC20/ERC20.sol\":5643:5667  _update(from, to, value) */\n      jump\t// in\n    tag_343:\n        /* \"@openzeppelin/contracts/token/ERC20/ERC20.sol\":5374:5674  function _transfer(address from, address to, uint256 value) internal {... */\n      pop\n      pop\n      pop\n      jump\t// out\n        /* \"@openzeppelin/contracts/token/ERC20/ERC20.sol\":7965:8171  function _burn(address account, uint256 value) internal {... */\n    tag_274:\n        /* \"@openzeppelin/contracts/token/ERC20/ERC20.sol\":8054:8055  0 */\n      0x00\n        /* \"@openzeppelin/contracts/token/ERC20/ERC20.sol\":8035:8056  account == address(0) */\n      0xffffffffffffffffffffffffffffffffffffffff\n      and\n        /* \"@openzeppelin/contracts/token/ERC20/ERC20.sol\":8035:8042  account */\n      dup3\n        /* \"@openzeppelin/contracts/token/ERC20/ERC20.sol\":8035:8056  account == address(0) */\n      0xffffffffffffffffffffffffffffffffffffffff\n      and\n      sub\n        /* \"@openzeppelin/contracts/token/ERC20/ERC20.sol\":8031:8120  if (account == address(0)) {... */\n      tag_346\n      jumpi\n        /* \"@openzeppelin/contracts/token/ERC20/ERC20.sol\":8106:8107  0 */\n      0x00\n        /* \"@openzeppelin/contracts/token/ERC20/ERC20.sol\":8079:8109  ERC20InvalidSender(address(0)) */\n      mload(0x40)\n      0x96c6fd1e00000000000000000000000000000000000000000000000000000000\n      dup2\n      mstore\n      0x04\n      add\n      tag_347\n      swap2\n      swap1\n      tag_340\n      jump\t// in\n    tag_347:\n      mload(0x40)\n      dup1\n      swap2\n      sub\n      swap1\n      revert\n        /* \"@openzeppelin/contracts/token/ERC20/ERC20.sol\":8031:8120  if (account == address(0)) {... */\n    tag_346:\n        /* \"@openzeppelin/contracts/token/ERC20/ERC20.sol\":8129:8164  _update(account, address(0), value) */\n      tag_348\n        /* \"@openzeppelin/contracts/token/ERC20/ERC20.sol\":8137:8144  account */\n      dup3\n        /* \"@openzeppelin/contracts/token/ERC20/ERC20.sol\":8154:8155  0 */\n      0x00\n        /* \"@openzeppelin/contracts/token/ERC20/ERC20.sol\":8158:8163  value */\n      dup4\n        /* \"@openzeppelin/contracts/token/ERC20/ERC20.sol\":8129:8136  _update */\n      tag_344\n        /* \"@openzeppelin/contracts/token/ERC20/ERC20.sol\":8129:8164  _update(account, address(0), value) */\n      jump\t// in\n    tag_348:\n        /* \"@openzeppelin/contracts/token/ERC20/ERC20.sol\":7965:8171  function _burn(address account, uint256 value) internal {... */\n      pop\n      pop\n      jump\t// out\n        /* \"LiquidityPool.sol\":2481:3406  function _calculateAmounts(... */\n    tag_289:\n        /* \"LiquidityPool.sol\":2650:2662  uint amountA */\n      0x00\n        /* \"LiquidityPool.sol\":2664:2676  uint amountB */\n      0x00\n        /* \"LiquidityPool.sol\":2705:2706  0 */\n      0x00\n        /* \"LiquidityPool.sol\":2693:2701  reserveA */\n      sload(0x07)\n        /* \"LiquidityPool.sol\":2693:2706  reserveA == 0 */\n      eq\n        /* \"LiquidityPool.sol\":2693:2723  reserveA == 0 && reserveB == 0 */\n      dup1\n      iszero\n      tag_350\n      jumpi\n      pop\n        /* \"LiquidityPool.sol\":2722:2723  0 */\n      0x00\n        /* \"LiquidityPool.sol\":2710:2718  reserveB */\n      sload(0x08)\n        /* \"LiquidityPool.sol\":2710:2723  reserveB == 0 */\n      eq\n        /* \"LiquidityPool.sol\":2693:2723  reserveA == 0 && reserveB == 0 */\n    tag_350:\n        /* \"LiquidityPool.sol\":2689:3399  if (reserveA == 0 && reserveB == 0) {... */\n      iszero\n      tag_351\n      jumpi\n        /* \"LiquidityPool.sol\":2750:2764  amountADesired */\n      dup6\n        /* \"LiquidityPool.sol\":2740:2764  amountA = amountADesired */\n      swap2\n      pop\n        /* \"LiquidityPool.sol\":2789:2803  amountBDesired */\n      dup5\n        /* \"LiquidityPool.sol\":2779:2803  amountB = amountBDesired */\n      swap1\n      pop\n        /* \"LiquidityPool.sol\":2689:3399  if (reserveA == 0 && reserveB == 0) {... */\n      jump(tag_352)\n    tag_351:\n        /* \"LiquidityPool.sol\":2836:2855  uint amountBOptimal */\n      0x00\n        /* \"LiquidityPool.sol\":2888:2896  reserveA */\n      sload(0x07)\n        /* \"LiquidityPool.sol\":2876:2884  reserveB */\n      sload(0x08)\n        /* \"LiquidityPool.sol\":2859:2873  amountADesired */\n      dup9\n        /* \"LiquidityPool.sol\":2859:2884  amountADesired * reserveB */\n      tag_353\n      swap2\n      swap1\n      tag_117\n      jump\t// in\n    tag_353:\n        /* \"LiquidityPool.sol\":2858:2896  (amountADesired * reserveB) / reserveA */\n      tag_354\n      swap2\n      swap1\n      tag_119\n      jump\t// in\n    tag_354:\n        /* \"LiquidityPool.sol\":2836:2896  uint amountBOptimal = (amountADesired * reserveB) / reserveA */\n      swap1\n      pop\n        /* \"LiquidityPool.sol\":2933:2947  amountBDesired */\n      dup6\n        /* \"LiquidityPool.sol\":2915:2929  amountBOptimal */\n      dup2\n        /* \"LiquidityPool.sol\":2915:2947  amountBOptimal <= amountBDesired */\n      gt\n        /* \"LiquidityPool.sol\":2911:3388  if (amountBOptimal <= amountBDesired) {... */\n      tag_355\n      jumpi\n        /* \"LiquidityPool.sol\":2994:3004  amountBMin */\n      dup4\n        /* \"LiquidityPool.sol\":2976:2990  amountBOptimal */\n      dup2\n        /* \"LiquidityPool.sol\":2976:3004  amountBOptimal >= amountBMin */\n      lt\n      iszero\n        /* \"LiquidityPool.sol\":2968:3024  require(amountBOptimal >= amountBMin, \"amountB too low\") */\n      tag_356\n      jumpi\n      mload(0x40)\n      0x08c379a000000000000000000000000000000000000000000000000000000000\n      dup2\n      mstore\n      0x04\n      add\n      tag_357\n      swap1\n      tag_358\n      jump\t// in\n    tag_357:\n      mload(0x40)\n      dup1\n      swap2\n      sub\n      swap1\n      revert\n    tag_356:\n        /* \"LiquidityPool.sol\":3053:3067  amountADesired */\n      dup7\n        /* \"LiquidityPool.sol\":3043:3067  amountA = amountADesired */\n      swap3\n      pop\n        /* \"LiquidityPool.sol\":3096:3110  amountBOptimal */\n      dup1\n        /* \"LiquidityPool.sol\":3086:3110  amountB = amountBOptimal */\n      swap2\n      pop\n        /* \"LiquidityPool.sol\":2911:3388  if (amountBOptimal <= amountBDesired) {... */\n      jump(tag_359)\n    tag_355:\n        /* \"LiquidityPool.sol\":3151:3170  uint amountAOptimal */\n      0x00\n        /* \"LiquidityPool.sol\":3203:3211  reserveB */\n      sload(0x08)\n        /* \"LiquidityPool.sol\":3191:3199  reserveA */\n      sload(0x07)\n        /* \"LiquidityPool.sol\":3174:3188  amountBDesired */\n      dup9\n        /* \"LiquidityPool.sol\":3174:3199  amountBDesired * reserveA */\n      tag_360\n      swap2\n      swap1\n      tag_117\n      jump\t// in\n    tag_360:\n        /* \"LiquidityPool.sol\":3173:3211  (amountBDesired * reserveA) / reserveB */\n      tag_361\n      swap2\n      swap1\n      tag_119\n      jump\t// in\n    tag_361:\n        /* \"LiquidityPool.sol\":3151:3211  uint amountAOptimal = (amountBDesired * reserveA) / reserveB */\n      swap1\n      pop\n        /* \"LiquidityPool.sol\":3256:3266  amountAMin */\n      dup6\n        /* \"LiquidityPool.sol\":3238:3252  amountAOptimal */\n      dup2\n        /* \"LiquidityPool.sol\":3238:3266  amountAOptimal >= amountAMin */\n      lt\n      iszero\n        /* \"LiquidityPool.sol\":3230:3286  require(amountAOptimal >= amountAMin, \"amountA too low\") */\n      tag_362\n      jumpi\n      mload(0x40)\n      0x08c379a000000000000000000000000000000000000000000000000000000000\n      dup2\n      mstore\n      0x04\n      add\n      tag_363\n      swap1\n      tag_364\n      jump\t// in\n    tag_363:\n      mload(0x40)\n      dup1\n      swap2\n      sub\n      swap1\n      revert\n    tag_362:\n        /* \"LiquidityPool.sol\":3315:3329  amountAOptimal */\n      dup1\n        /* \"LiquidityPool.sol\":3305:3329  amountA = amountAOptimal */\n      swap4\n      pop\n        /* \"LiquidityPool.sol\":3358:3372  amountBDesired */\n      dup7\n        /* \"LiquidityPool.sol\":3348:3372  amountB = amountBDesired */\n      swap3\n      pop\n        /* \"LiquidityPool.sol\":3132:3388  {... */\n      pop\n        /* \"LiquidityPool.sol\":2911:3388  if (amountBOptimal <= amountBDesired) {... */\n    tag_359:\n        /* \"LiquidityPool.sol\":2821:3399  {... */\n      pop\n        /* \"LiquidityPool.sol\":2689:3399  if (reserveA == 0 && reserveB == 0) {... */\n    tag_352:\n        /* \"LiquidityPool.sol\":2481:3406  function _calculateAmounts(... */\n      swap5\n      pop\n      swap5\n      swap3\n      pop\n      pop\n      pop\n      jump\t// out\n        /* \"LiquidityPool.sol\":3520:3824  function _sqrt(uint y) internal pure returns (uint z) {... */\n    tag_310:\n        /* \"LiquidityPool.sol\":3566:3572  uint z */\n      0x00\n        /* \"LiquidityPool.sol\":3593:3594  3 */\n      0x03\n        /* \"LiquidityPool.sol\":3589:3590  y */\n      dup3\n        /* \"LiquidityPool.sol\":3589:3594  y > 3 */\n      gt\n        /* \"LiquidityPool.sol\":3585:3817  if (y > 3) {... */\n      iszero\n      tag_366\n      jumpi\n        /* \"LiquidityPool.sol\":3615:3616  y */\n      dup2\n        /* \"LiquidityPool.sol\":3611:3616  z = y */\n      swap1\n      pop\n        /* \"LiquidityPool.sol\":3631:3637  uint x */\n      0x00\n        /* \"LiquidityPool.sol\":3648:3649  1 */\n      0x01\n        /* \"LiquidityPool.sol\":3644:3645  2 */\n      0x02\n        /* \"LiquidityPool.sol\":3640:3641  y */\n      dup5\n        /* \"LiquidityPool.sol\":3640:3645  y / 2 */\n      tag_367\n      swap2\n      swap1\n      tag_119\n      jump\t// in\n    tag_367:\n        /* \"LiquidityPool.sol\":3640:3649  y / 2 + 1 */\n      tag_368\n      swap2\n      swap1\n      tag_115\n      jump\t// in\n    tag_368:\n        /* \"LiquidityPool.sol\":3631:3649  uint x = y / 2 + 1 */\n      swap1\n      pop\n        /* \"LiquidityPool.sol\":3664:3756  while (x < z) {... */\n    tag_369:\n        /* \"LiquidityPool.sol\":3675:3676  z */\n      dup2\n        /* \"LiquidityPool.sol\":3671:3672  x */\n      dup2\n        /* \"LiquidityPool.sol\":3671:3676  x < z */\n      lt\n        /* \"LiquidityPool.sol\":3664:3756  while (x < z) {... */\n      iszero\n      tag_370\n      jumpi\n        /* \"LiquidityPool.sol\":3701:3702  x */\n      dup1\n        /* \"LiquidityPool.sol\":3697:3702  z = x */\n      swap2\n      pop\n        /* \"LiquidityPool.sol\":3739:3740  2 */\n      0x02\n        /* \"LiquidityPool.sol\":3734:3735  x */\n      dup2\n        /* \"LiquidityPool.sol\":3730:3731  x */\n      dup3\n        /* \"LiquidityPool.sol\":3726:3727  y */\n      dup6\n        /* \"LiquidityPool.sol\":3726:3731  y / x */\n      tag_371\n      swap2\n      swap1\n      tag_119\n      jump\t// in\n    tag_371:\n        /* \"LiquidityPool.sol\":3726:3735  y / x + x */\n      tag_372\n      swap2\n      swap1\n      tag_115\n      jump\t// in\n    tag_372:\n        /* \"LiquidityPool.sol\":3725:3740  (y / x + x) / 2 */\n      tag_373\n      swap2\n      swap1\n      tag_119\n      jump\t// in\n    tag_373:\n        /* \"LiquidityPool.sol\":3721:3740  x = (y / x + x) / 2 */\n      swap1\n      pop\n        /* \"LiquidityPool.sol\":3664:3756  while (x < z) {... */\n      jump(tag_369)\n    tag_370:\n        /* \"LiquidityPool.sol\":3596:3767  {... */\n      pop\n        /* \"LiquidityPool.sol\":3585:3817  if (y > 3) {... */\n      jump(tag_374)\n    tag_366:\n        /* \"LiquidityPool.sol\":3782:3783  0 */\n      0x00\n        /* \"LiquidityPool.sol\":3777:3778  y */\n      dup3\n        /* \"LiquidityPool.sol\":3777:3783  y != 0 */\n      eq\n        /* \"LiquidityPool.sol\":3773:3817  if (y != 0) {... */\n      tag_375\n      jumpi\n        /* \"LiquidityPool.sol\":3804:3805  1 */\n      0x01\n        /* \"LiquidityPool.sol\":3800:3805  z = 1 */\n      swap1\n      pop\n        /* \"LiquidityPool.sol\":3773:3817  if (y != 0) {... */\n    tag_375:\n        /* \"LiquidityPool.sol\":3585:3817  if (y > 3) {... */\n    tag_374:\n        /* \"LiquidityPool.sol\":3520:3824  function _sqrt(uint y) internal pure returns (uint z) {... */\n      swap2\n      swap1\n      pop\n      jump\t// out\n        /* \"LiquidityPool.sol\":3414:3512  function _min(uint x, uint y) internal pure returns (uint) {... */\n    tag_319:\n        /* \"LiquidityPool.sol\":3467:3471  uint */\n      0x00\n        /* \"LiquidityPool.sol\":3495:3496  y */\n      dup2\n        /* \"LiquidityPool.sol\":3491:3492  x */\n      dup4\n        /* \"LiquidityPool.sol\":3491:3496  x < y */\n      lt\n        /* \"LiquidityPool.sol\":3491:3504  x < y ? x : y */\n      tag_377\n      jumpi\n        /* \"LiquidityPool.sol\":3503:3504  y */\n      dup2\n        /* \"LiquidityPool.sol\":3491:3504  x < y ? x : y */\n      jump(tag_378)\n    tag_377:\n        /* \"LiquidityPool.sol\":3499:3500  x */\n      dup3\n        /* \"LiquidityPool.sol\":3491:3504  x < y ? x : y */\n    tag_378:\n        /* \"LiquidityPool.sol\":3484:3504  return x < y ? x : y */\n      swap1\n      pop\n        /* \"LiquidityPool.sol\":3414:3512  function _min(uint x, uint y) internal pure returns (uint) {... */\n      swap3\n      swap2\n      pop\n      pop\n      jump\t// out\n        /* \"@openzeppelin/contracts/token/ERC20/ERC20.sol\":7439:7647  function _mint(address account, uint256 value) internal {... */\n    tag_323:\n        /* \"@openzeppelin/contracts/token/ERC20/ERC20.sol\":7528:7529  0 */\n      0x00\n        /* \"@openzeppelin/contracts/token/ERC20/ERC20.sol\":7509:7530  account == address(0) */\n      0xffffffffffffffffffffffffffffffffffffffff\n      and\n        /* \"@openzeppelin/contracts/token/ERC20/ERC20.sol\":7509:7516  account */\n      dup3\n        /* \"@openzeppelin/contracts/token/ERC20/ERC20.sol\":7509:7530  account == address(0) */\n      0xffffffffffffffffffffffffffffffffffffffff\n      and\n      sub\n        /* \"@openzeppelin/contracts/token/ERC20/ERC20.sol\":7505:7596  if (account == address(0)) {... */\n      tag_380\n      jumpi\n        /* \"@openzeppelin/contracts/token/ERC20/ERC20.sol\":7582:7583  0 */\n      0x00\n        /* \"@openzeppelin/contracts/token/ERC20/ERC20.sol\":7553:7585  ERC20InvalidReceiver(address(0)) */\n      mload(0x40)\n      0xec442f0500000000000000000000000000000000000000000000000000000000\n      dup2\n      mstore\n      0x04\n      add\n      tag_381\n      swap2\n      swap1\n      tag_340\n      jump\t// in\n    tag_381:\n      mload(0x40)\n      dup1\n      swap2\n      sub\n      swap1\n      revert\n        /* \"@openzeppelin/contracts/token/ERC20/ERC20.sol\":7505:7596  if (account == address(0)) {... */\n    tag_380:\n        /* \"@openzeppelin/contracts/token/ERC20/ERC20.sol\":7605:7640  _update(address(0), account, value) */\n      tag_382\n        /* \"@openzeppelin/contracts/token/ERC20/ERC20.sol\":7621:7622  0 */\n      0x00\n        /* \"@openzeppelin/contracts/token/ERC20/ERC20.sol\":7625:7632  account */\n      dup4\n        /* \"@openzeppelin/contracts/token/ERC20/ERC20.sol\":7634:7639  value */\n      dup4\n        /* \"@openzeppelin/contracts/token/ERC20/ERC20.sol\":7605:7612  _update */\n      tag_344\n        /* \"@openzeppelin/contracts/token/ERC20/ERC20.sol\":7605:7640  _update(address(0), account, value) */\n      jump\t// in\n    tag_382:\n        /* \"@openzeppelin/contracts/token/ERC20/ERC20.sol\":7439:7647  function _mint(address account, uint256 value) internal {... */\n      pop\n      pop\n      jump\t// out\n        /* \"@openzeppelin/contracts/token/ERC20/ERC20.sol\":9682:10114  function _approve(address owner, address spender, uint256 value, bool emitEvent) internal virtual {... */\n    tag_329:\n        /* \"@openzeppelin/contracts/token/ERC20/ERC20.sol\":9811:9812  0 */\n      0x00\n        /* \"@openzeppelin/contracts/token/ERC20/ERC20.sol\":9794:9813  owner == address(0) */\n      0xffffffffffffffffffffffffffffffffffffffff\n      and\n        /* \"@openzeppelin/contracts/token/ERC20/ERC20.sol\":9794:9799  owner */\n      dup5\n        /* \"@openzeppelin/contracts/token/ERC20/ERC20.sol\":9794:9813  owner == address(0) */\n      0xffffffffffffffffffffffffffffffffffffffff\n      and\n      sub\n        /* \"@openzeppelin/contracts/token/ERC20/ERC20.sol\":9790:9879  if (owner == address(0)) {... */\n      tag_384\n      jumpi\n        /* \"@openzeppelin/contracts/token/ERC20/ERC20.sol\":9865:9866  0 */\n      0x00\n        /* \"@openzeppelin/contracts/token/ERC20/ERC20.sol\":9836:9868  ERC20InvalidApprover(address(0)) */\n      mload(0x40)\n      0xe602df0500000000000000000000000000000000000000000000000000000000\n      dup2\n      mstore\n      0x04\n      add\n      tag_385\n      swap2\n      swap1\n      tag_340\n      jump\t// in\n    tag_385:\n      mload(0x40)\n      dup1\n      swap2\n      sub\n      swap1\n      revert\n        /* \"@openzeppelin/contracts/token/ERC20/ERC20.sol\":9790:9879  if (owner == address(0)) {... */\n    tag_384:\n        /* \"@openzeppelin/contracts/token/ERC20/ERC20.sol\":9911:9912  0 */\n      0x00\n        /* \"@openzeppelin/contracts/token/ERC20/ERC20.sol\":9892:9913  spender == address(0) */\n      0xffffffffffffffffffffffffffffffffffffffff\n      and\n        /* \"@openzeppelin/contracts/token/ERC20/ERC20.sol\":9892:9899  spender */\n      dup4\n        /* \"@openzeppelin/contracts/token/ERC20/ERC20.sol\":9892:9913  spender == address(0) */\n      0xffffffffffffffffffffffffffffffffffffffff\n      and\n      sub\n        /* \"@openzeppelin/contracts/token/ERC20/ERC20.sol\":9888:9978  if (spender == address(0)) {... */\n      tag_386\n      jumpi\n        /* \"@openzeppelin/contracts/token/ERC20/ERC20.sol\":9964:9965  0 */\n      0x00\n        /* \"@openzeppelin/contracts/token/ERC20/ERC20.sol\":9936:9967  ERC20InvalidSpender(address(0)) */\n      mload(0x40)\n      0x94280d6200000000000000000000000000000000000000000000000000000000\n      dup2\n      mstore\n      0x04\n      add\n      tag_387\n      swap2\n      swap1\n      tag_340\n      jump\t// in\n    tag_387:\n      mload(0x40)\n      dup1\n      swap2\n      sub\n      swap1\n      revert\n        /* \"@openzeppelin/contracts/token/ERC20/ERC20.sol\":9888:9978  if (spender == address(0)) {... */\n    tag_386:\n        /* \"@openzeppelin/contracts/token/ERC20/ERC20.sol\":10017:10022  value */\n      dup2\n        /* \"@openzeppelin/contracts/token/ERC20/ERC20.sol\":9987:9998  _allowances */\n      0x01\n        /* \"@openzeppelin/contracts/token/ERC20/ERC20.sol\":9987:10005  _allowances[owner] */\n      0x00\n        /* \"@openzeppelin/contracts/token/ERC20/ERC20.sol\":9999:10004  owner */\n      dup7\n        /* \"@openzeppelin/contracts/token/ERC20/ERC20.sol\":9987:10005  _allowances[owner] */\n      0xffffffffffffffffffffffffffffffffffffffff\n      and\n      0xffffffffffffffffffffffffffffffffffffffff\n      and\n      dup2\n      mstore\n      0x20\n      add\n      swap1\n      dup2\n      mstore\n      0x20\n      add\n      0x00\n      keccak256\n        /* \"@openzeppelin/contracts/token/ERC20/ERC20.sol\":9987:10014  _allowances[owner][spender] */\n      0x00\n        /* \"@openzeppelin/contracts/token/ERC20/ERC20.sol\":10006:10013  spender */\n      dup6\n        /* \"@openzeppelin/contracts/token/ERC20/ERC20.sol\":9987:10014  _allowances[owner][spender] */\n      0xffffffffffffffffffffffffffffffffffffffff\n      and\n      0xffffffffffffffffffffffffffffffffffffffff\n      and\n      dup2\n      mstore\n      0x20\n      add\n      swap1\n      dup2\n      mstore\n      0x20\n      add\n      0x00\n      keccak256\n        /* \"@openzeppelin/contracts/token/ERC20/ERC20.sol\":9987:10022  _allowances[owner][spender] = value */\n      dup2\n      swap1\n      sstore\n      pop\n        /* \"@openzeppelin/contracts/token/ERC20/ERC20.sol\":10036:10045  emitEvent */\n      dup1\n        /* \"@openzeppelin/contracts/token/ERC20/ERC20.sol\":10032:10108  if (emitEvent) {... */\n      iszero\n      tag_388\n      jumpi\n        /* \"@openzeppelin/contracts/token/ERC20/ERC20.sol\":10082:10089  spender */\n      dup3\n        /* \"@openzeppelin/contracts/token/ERC20/ERC20.sol\":10066:10097  Approval(owner, spender, value) */\n      0xffffffffffffffffffffffffffffffffffffffff\n      and\n        /* \"@openzeppelin/contracts/token/ERC20/ERC20.sol\":10075:10080  owner */\n      dup5\n        /* \"@openzeppelin/contracts/token/ERC20/ERC20.sol\":10066:10097  Approval(owner, spender, value) */\n      0xffffffffffffffffffffffffffffffffffffffff\n      and\n      0x8c5be1e5ebec7d5bd14f71427d1e84f3dd0314c0f7b2291e5b200ac8c7c3b925\n        /* \"@openzeppelin/contracts/token/ERC20/ERC20.sol\":10091:10096  value */\n      dup5\n        /* \"@openzeppelin/contracts/token/ERC20/ERC20.sol\":10066:10097  Approval(owner, spender, value) */\n      mload(0x40)\n      tag_389\n      swap2\n      swap1\n      tag_29\n      jump\t// in\n    tag_389:\n      mload(0x40)\n      dup1\n      swap2\n      sub\n      swap1\n      log3\n        /* \"@openzeppelin/contracts/token/ERC20/ERC20.sol\":10032:10108  if (emitEvent) {... */\n    tag_388:\n        /* \"@openzeppelin/contracts/token/ERC20/ERC20.sol\":9682:10114  function _approve(address owner, address spender, uint256 value, bool emitEvent) internal virtual {... */\n      pop\n      pop\n      pop\n      pop\n      jump\t// out\n        /* \"@openzeppelin/contracts/token/ERC20/ERC20.sol\":5989:7096  function _update(address from, address to, uint256 value) internal virtual {... */\n    tag_344:\n        /* \"@openzeppelin/contracts/token/ERC20/ERC20.sol\":6094:6095  0 */\n      0x00\n        /* \"@openzeppelin/contracts/token/ERC20/ERC20.sol\":6078:6096  from == address(0) */\n      0xffffffffffffffffffffffffffffffffffffffff\n      and\n        /* \"@openzeppelin/contracts/token/ERC20/ERC20.sol\":6078:6082  from */\n      dup4\n        /* \"@openzeppelin/contracts/token/ERC20/ERC20.sol\":6078:6096  from == address(0) */\n      0xffffffffffffffffffffffffffffffffffffffff\n      and\n      sub\n        /* \"@openzeppelin/contracts/token/ERC20/ERC20.sol\":6074:6614  if (from == address(0)) {... */\n      tag_391\n      jumpi\n        /* \"@openzeppelin/contracts/token/ERC20/ERC20.sol\":6230:6235  value */\n      dup1\n        /* \"@openzeppelin/contracts/token/ERC20/ERC20.sol\":6214:6226  _totalSupply */\n      0x02\n      0x00\n        /* \"@openzeppelin/contracts/token/ERC20/ERC20.sol\":6214:6235  _totalSupply += value */\n      dup3\n      dup3\n      sload\n      tag_392\n      swap2\n      swap1\n      tag_115\n      jump\t// in\n    tag_392:\n      swap3\n      pop\n      pop\n      dup2\n      swap1\n      sstore\n      pop\n        /* \"@openzeppelin/contracts/token/ERC20/ERC20.sol\":6074:6614  if (from == address(0)) {... */\n      jump(tag_393)\n    tag_391:\n        /* \"@openzeppelin/contracts/token/ERC20/ERC20.sol\":6266:6285  uint256 fromBalance */\n      0x00\n        /* \"@openzeppelin/contracts/token/ERC20/ERC20.sol\":6288:6297  _balances */\n      0x00\n        /* \"@openzeppelin/contracts/token/ERC20/ERC20.sol\":6288:6303  _balances[from] */\n      0x00\n        /* \"@openzeppelin/contracts/token/ERC20/ERC20.sol\":6298:6302  from */\n      dup6\n        /* \"@openzeppelin/contracts/token/ERC20/ERC20.sol\":6288:6303  _balances[from] */\n      0xffffffffffffffffffffffffffffffffffffffff\n      and\n      0xffffffffffffffffffffffffffffffffffffffff\n      and\n      dup2\n      mstore\n      0x20\n      add\n      swap1\n      dup2\n      mstore\n      0x20\n      add\n      0x00\n      keccak256\n      sload\n        /* \"@openzeppelin/contracts/token/ERC20/ERC20.sol\":6266:6303  uint256 fromBalance = _balances[from] */\n      swap1\n      pop\n        /* \"@openzeppelin/contracts/token/ERC20/ERC20.sol\":6335:6340  value */\n      dup2\n        /* \"@openzeppelin/contracts/token/ERC20/ERC20.sol\":6321:6332  fromBalance */\n      dup2\n        /* \"@openzeppelin/contracts/token/ERC20/ERC20.sol\":6321:6340  fromBalance < value */\n      lt\n        /* \"@openzeppelin/contracts/token/ERC20/ERC20.sol\":6317:6432  if (fromBalance < value) {... */\n      iszero\n      tag_394\n      jumpi\n        /* \"@openzeppelin/contracts/token/ERC20/ERC20.sol\":6392:6396  from */\n      dup4\n        /* \"@openzeppelin/contracts/token/ERC20/ERC20.sol\":6398:6409  fromBalance */\n      dup2\n        /* \"@openzeppelin/contracts/token/ERC20/ERC20.sol\":6411:6416  value */\n      dup4\n        /* \"@openzeppelin/contracts/token/ERC20/ERC20.sol\":6367:6417  ERC20InsufficientBalance(from, fromBalance, value) */\n      mload(0x40)\n      0xe450d38c00000000000000000000000000000000000000000000000000000000\n      dup2\n      mstore\n      0x04\n      add\n      tag_395\n      swap4\n      swap3\n      swap2\n      swap1\n      tag_335\n      jump\t// in\n    tag_395:\n      mload(0x40)\n      dup1\n      swap2\n      sub\n      swap1\n      revert\n        /* \"@openzeppelin/contracts/token/ERC20/ERC20.sol\":6317:6432  if (fromBalance < value) {... */\n    tag_394:\n        /* \"@openzeppelin/contracts/token/ERC20/ERC20.sol\":6584:6589  value */\n      dup2\n        /* \"@openzeppelin/contracts/token/ERC20/ERC20.sol\":6570:6581  fromBalance */\n      dup2\n        /* \"@openzeppelin/contracts/token/ERC20/ERC20.sol\":6570:6589  fromBalance - value */\n      sub\n        /* \"@openzeppelin/contracts/token/ERC20/ERC20.sol\":6552:6561  _balances */\n      0x00\n        /* \"@openzeppelin/contracts/token/ERC20/ERC20.sol\":6552:6567  _balances[from] */\n      0x00\n        /* \"@openzeppelin/contracts/token/ERC20/ERC20.sol\":6562:6566  from */\n      dup7\n        /* \"@openzeppelin/contracts/token/ERC20/ERC20.sol\":6552:6567  _balances[from] */\n      0xffffffffffffffffffffffffffffffffffffffff\n      and\n      0xffffffffffffffffffffffffffffffffffffffff\n      and\n      dup2\n      mstore\n      0x20\n      add\n      swap1\n      dup2\n      mstore\n      0x20\n      add\n      0x00\n      keccak256\n        /* \"@openzeppelin/contracts/token/ERC20/ERC20.sol\":6552:6589  _balances[from] = fromBalance - value */\n      dup2\n      swap1\n      sstore\n      pop\n        /* \"@openzeppelin/contracts/token/ERC20/ERC20.sol\":6252:6614  {... */\n      pop\n        /* \"@openzeppelin/contracts/token/ERC20/ERC20.sol\":6074:6614  if (from == address(0)) {... */\n    tag_393:\n        /* \"@openzeppelin/contracts/token/ERC20/ERC20.sol\":6642:6643  0 */\n      0x00\n        /* \"@openzeppelin/contracts/token/ERC20/ERC20.sol\":6628:6644  to == address(0) */\n      0xffffffffffffffffffffffffffffffffffffffff\n      and\n        /* \"@openzeppelin/contracts/token/ERC20/ERC20.sol\":6628:6630  to */\n      dup3\n        /* \"@openzeppelin/contracts/token/ERC20/ERC20.sol\":6628:6644  to == address(0) */\n      0xffffffffffffffffffffffffffffffffffffffff\n      and\n      sub\n        /* \"@openzeppelin/contracts/token/ERC20/ERC20.sol\":6624:7049  if (to == address(0)) {... */\n      tag_396\n      jumpi\n        /* \"@openzeppelin/contracts/token/ERC20/ERC20.sol\":6807:6812  value */\n      dup1\n        /* \"@openzeppelin/contracts/token/ERC20/ERC20.sol\":6791:6803  _totalSupply */\n      0x02\n      0x00\n        /* \"@openzeppelin/contracts/token/ERC20/ERC20.sol\":6791:6812  _totalSupply -= value */\n      dup3\n      dup3\n      sload\n      sub\n      swap3\n      pop\n      pop\n      dup2\n      swap1\n      sstore\n      pop\n        /* \"@openzeppelin/contracts/token/ERC20/ERC20.sol\":6624:7049  if (to == address(0)) {... */\n      jump(tag_397)\n    tag_396:\n        /* \"@openzeppelin/contracts/token/ERC20/ERC20.sol\":7019:7024  value */\n      dup1\n        /* \"@openzeppelin/contracts/token/ERC20/ERC20.sol\":7002:7011  _balances */\n      0x00\n        /* \"@openzeppelin/contracts/token/ERC20/ERC20.sol\":7002:7015  _balances[to] */\n      0x00\n        /* \"@openzeppelin/contracts/token/ERC20/ERC20.sol\":7012:7014  to */\n      dup5\n        /* \"@openzeppelin/contracts/token/ERC20/ERC20.sol\":7002:7015  _balances[to] */\n      0xffffffffffffffffffffffffffffffffffffffff\n      and\n      0xffffffffffffffffffffffffffffffffffffffff\n      and\n      dup2\n      mstore\n      0x20\n      add\n      swap1\n      dup2\n      mstore\n      0x20\n      add\n      0x00\n      keccak256\n      0x00\n        /* \"@openzeppelin/contracts/token/ERC20/ERC20.sol\":7002:7024  _balances[to] += value */\n      dup3\n      dup3\n      sload\n      add\n      swap3\n      pop\n      pop\n      dup2\n      swap1\n      sstore\n      pop\n        /* \"@openzeppelin/contracts/token/ERC20/ERC20.sol\":6624:7049  if (to == address(0)) {... */\n    tag_397:\n        /* \"@openzeppelin/contracts/token/ERC20/ERC20.sol\":7079:7081  to */\n      dup2\n        /* \"@openzeppelin/contracts/token/ERC20/ERC20.sol\":7064:7089  Transfer(from, to, value) */\n      0xffffffffffffffffffffffffffffffffffffffff\n      and\n        /* \"@openzeppelin/contracts/token/ERC20/ERC20.sol\":7073:7077  from */\n      dup4\n        /* \"@openzeppelin/contracts/token/ERC20/ERC20.sol\":7064:7089  Transfer(from, to, value) */\n      0xffffffffffffffffffffffffffffffffffffffff\n      and\n      0xddf252ad1be2c89b69c2b068fc378daa952ba7f163c4a11628f55a4df523b3ef\n        /* \"@openzeppelin/contracts/token/ERC20/ERC20.sol\":7083:7088  value */\n      dup4\n        /* \"@openzeppelin/contracts/token/ERC20/ERC20.sol\":7064:7089  Transfer(from, to, value) */\n      mload(0x40)\n      tag_398\n      swap2\n      swap1\n      tag_29\n      jump\t// in\n    tag_398:\n      mload(0x40)\n      dup1\n      swap2\n      sub\n      swap1\n      log3\n        /* \"@openzeppelin/contracts/token/ERC20/ERC20.sol\":5989:7096  function _update(address from, address to, uint256 value) internal virtual {... */\n      pop\n      pop\n      pop\n      jump\t// out\n        /* \"#utility.yul\":88:205   */\n    tag_400:\n        /* \"#utility.yul\":197:198   */\n      0x00\n        /* \"#utility.yul\":194:195   */\n      0x00\n        /* \"#utility.yul\":187:199   */\n      revert\n        /* \"#utility.yul\":211:328   */\n    tag_401:\n        /* \"#utility.yul\":320:321   */\n      0x00\n        /* \"#utility.yul\":317:318   */\n      0x00\n        /* \"#utility.yul\":310:322   */\n      revert\n        /* \"#utility.yul\":334:411   */\n    tag_402:\n        /* \"#utility.yul\":371:378   */\n      0x00\n        /* \"#utility.yul\":400:405   */\n      dup2\n        /* \"#utility.yul\":389:405   */\n      swap1\n      pop\n        /* \"#utility.yul\":334:411   */\n      swap2\n      swap1\n      pop\n      jump\t// out\n        /* \"#utility.yul\":417:539   */\n    tag_403:\n        /* \"#utility.yul\":490:514   */\n      tag_505\n        /* \"#utility.yul\":508:513   */\n      dup2\n        /* \"#utility.yul\":490:514   */\n      tag_402\n      jump\t// in\n    tag_505:\n        /* \"#utility.yul\":483:488   */\n      dup2\n        /* \"#utility.yul\":480:515   */\n      eq\n        /* \"#utility.yul\":470:533   */\n      tag_506\n      jumpi\n        /* \"#utility.yul\":529:530   */\n      0x00\n        /* \"#utility.yul\":526:527   */\n      0x00\n        /* \"#utility.yul\":519:531   */\n      revert\n        /* \"#utility.yul\":470:533   */\n    tag_506:\n        /* \"#utility.yul\":417:539   */\n      pop\n      jump\t// out\n        /* \"#utility.yul\":545:684   */\n    tag_404:\n        /* \"#utility.yul\":591:596   */\n      0x00\n        /* \"#utility.yul\":629:635   */\n      dup2\n        /* \"#utility.yul\":616:636   */\n      calldataload\n        /* \"#utility.yul\":607:636   */\n      swap1\n      pop\n        /* \"#utility.yul\":645:678   */\n      tag_508\n        /* \"#utility.yul\":672:677   */\n      dup2\n        /* \"#utility.yul\":645:678   */\n      tag_403\n      jump\t// in\n    tag_508:\n        /* \"#utility.yul\":545:684   */\n      swap3\n      swap2\n      pop\n      pop\n      jump\t// out\n        /* \"#utility.yul\":690:1309   */\n    tag_26:\n        /* \"#utility.yul\":767:773   */\n      0x00\n        /* \"#utility.yul\":775:781   */\n      0x00\n        /* \"#utility.yul\":783:789   */\n      0x00\n        /* \"#utility.yul\":832:834   */\n      0x60\n        /* \"#utility.yul\":820:829   */\n      dup5\n        /* \"#utility.yul\":811:818   */\n      dup7\n        /* \"#utility.yul\":807:830   */\n      sub\n        /* \"#utility.yul\":803:835   */\n      slt\n        /* \"#utility.yul\":800:919   */\n      iszero\n      tag_510\n      jumpi\n        /* \"#utility.yul\":838:917   */\n      tag_511\n      tag_400\n      jump\t// in\n    tag_511:\n        /* \"#utility.yul\":800:919   */\n    tag_510:\n        /* \"#utility.yul\":958:959   */\n      0x00\n        /* \"#utility.yul\":983:1036   */\n      tag_512\n        /* \"#utility.yul\":1028:1035   */\n      dup7\n        /* \"#utility.yul\":1019:1025   */\n      dup3\n        /* \"#utility.yul\":1008:1017   */\n      dup8\n        /* \"#utility.yul\":1004:1026   */\n      add\n        /* \"#utility.yul\":983:1036   */\n      tag_404\n      jump\t// in\n    tag_512:\n        /* \"#utility.yul\":973:1036   */\n      swap4\n      pop\n        /* \"#utility.yul\":929:1046   */\n      pop\n        /* \"#utility.yul\":1085:1087   */\n      0x20\n        /* \"#utility.yul\":1111:1164   */\n      tag_513\n        /* \"#utility.yul\":1156:1163   */\n      dup7\n        /* \"#utility.yul\":1147:1153   */\n      dup3\n        /* \"#utility.yul\":1136:1145   */\n      dup8\n        /* \"#utility.yul\":1132:1154   */\n      add\n        /* \"#utility.yul\":1111:1164   */\n      tag_404\n      jump\t// in\n    tag_513:\n        /* \"#utility.yul\":1101:1164   */\n      swap3\n      pop\n        /* \"#utility.yul\":1056:1174   */\n      pop\n        /* \"#utility.yul\":1213:1215   */\n      0x40\n        /* \"#utility.yul\":1239:1292   */\n      tag_514\n        /* \"#utility.yul\":1284:1291   */\n      dup7\n        /* \"#utility.yul\":1275:1281   */\n      dup3\n        /* \"#utility.yul\":1264:1273   */\n      dup8\n        /* \"#utility.yul\":1260:1282   */\n      add\n        /* \"#utility.yul\":1239:1292   */\n      tag_404\n      jump\t// in\n    tag_514:\n        /* \"#utility.yul\":1229:1292   */\n      swap2\n      pop\n        /* \"#utility.yul\":1184:1302   */\n      pop\n        /* \"#utility.yul\":690:1309   */\n      swap3\n      pop\n      swap3\n      pop\n      swap3\n      jump\t// out\n        /* \"#utility.yul\":1315:1433   */\n    tag_405:\n        /* \"#utility.yul\":1402:1426   */\n      tag_516\n        /* \"#utility.yul\":1420:1425   */\n      dup2\n        /* \"#utility.yul\":1402:1426   */\n      tag_402\n      jump\t// in\n    tag_516:\n        /* \"#utility.yul\":1397:1400   */\n      dup3\n        /* \"#utility.yul\":1390:1427   */\n      mstore\n        /* \"#utility.yul\":1315:1433   */\n      pop\n      pop\n      jump\t// out\n        /* \"#utility.yul\":1439:1661   */\n    tag_29:\n        /* \"#utility.yul\":1532:1536   */\n      0x00\n        /* \"#utility.yul\":1570:1572   */\n      0x20\n        /* \"#utility.yul\":1559:1568   */\n      dup3\n        /* \"#utility.yul\":1555:1573   */\n      add\n        /* \"#utility.yul\":1547:1573   */\n      swap1\n      pop\n        /* \"#utility.yul\":1583:1654   */\n      tag_518\n        /* \"#utility.yul\":1651:1652   */\n      0x00\n        /* \"#utility.yul\":1640:1649   */\n      dup4\n        /* \"#utility.yul\":1636:1653   */\n      add\n        /* \"#utility.yul\":1627:1633   */\n      dup5\n        /* \"#utility.yul\":1583:1654   */\n      tag_405\n      jump\t// in\n    tag_518:\n        /* \"#utility.yul\":1439:1661   */\n      swap3\n      swap2\n      pop\n      pop\n      jump\t// out\n        /* \"#utility.yul\":1667:1766   */\n    tag_406:\n        /* \"#utility.yul\":1719:1725   */\n      0x00\n        /* \"#utility.yul\":1753:1758   */\n      dup2\n        /* \"#utility.yul\":1747:1759   */\n      mload\n        /* \"#utility.yul\":1737:1759   */\n      swap1\n      pop\n        /* \"#utility.yul\":1667:1766   */\n      swap2\n      swap1\n      pop\n      jump\t// out\n        /* \"#utility.yul\":1772:1941   */\n    tag_407:\n        /* \"#utility.yul\":1856:1867   */\n      0x00\n        /* \"#utility.yul\":1890:1896   */\n      dup3\n        /* \"#utility.yul\":1885:1888   */\n      dup3\n        /* \"#utility.yul\":1878:1897   */\n      mstore\n        /* \"#utility.yul\":1930:1934   */\n      0x20\n        /* \"#utility.yul\":1925:1928   */\n      dup3\n        /* \"#utility.yul\":1921:1935   */\n      add\n        /* \"#utility.yul\":1906:1935   */\n      swap1\n      pop\n        /* \"#utility.yul\":1772:1941   */\n      swap3\n      swap2\n      pop\n      pop\n      jump\t// out\n        /* \"#utility.yul\":1947:2086   */\n    tag_408:\n        /* \"#utility.yul\":2036:2042   */\n      dup3\n        /* \"#utility.yul\":2031:2034   */\n      dup2\n        /* \"#utility.yul\":2026:2029   */\n      dup4\n        /* \"#utility.yul\":2020:2043   */\n      mcopy\n        /* \"#utility.yul\":2077:2078   */\n      0x00\n        /* \"#utility.yul\":2068:2074   */\n      dup4\n        /* \"#utility.yul\":2063:2066   */\n      dup4\n        /* \"#utility.yul\":2059:2075   */\n      add\n        /* \"#utility.yul\":2052:2079   */\n      mstore\n        /* \"#utility.yul\":1947:2086   */\n      pop\n      pop\n      pop\n      jump\t// out\n        /* \"#utility.yul\":2092:2194   */\n    tag_409:\n        /* \"#utility.yul\":2133:2139   */\n      0x00\n        /* \"#utility.yul\":2184:2186   */\n      0x1f\n        /* \"#utility.yul\":2180:2187   */\n      not\n        /* \"#utility.yul\":2175:2177   */\n      0x1f\n        /* \"#utility.yul\":2168:2173   */\n      dup4\n        /* \"#utility.yul\":2164:2178   */\n      add\n        /* \"#utility.yul\":2160:2188   */\n      and\n        /* \"#utility.yul\":2150:2188   */\n      swap1\n      pop\n        /* \"#utility.yul\":2092:2194   */\n      swap2\n      swap1\n      pop\n      jump\t// out\n        /* \"#utility.yul\":2200:2577   */\n    tag_410:\n        /* \"#utility.yul\":2288:2291   */\n      0x00\n        /* \"#utility.yul\":2316:2355   */\n      tag_524\n        /* \"#utility.yul\":2349:2354   */\n      dup3\n        /* \"#utility.yul\":2316:2355   */\n      tag_406\n      jump\t// in\n    tag_524:\n        /* \"#utility.yul\":2371:2442   */\n      tag_525\n        /* \"#utility.yul\":2435:2441   */\n      dup2\n        /* \"#utility.yul\":2430:2433   */\n      dup6\n        /* \"#utility.yul\":2371:2442   */\n      tag_407\n      jump\t// in\n    tag_525:\n        /* \"#utility.yul\":2364:2442   */\n      swap4\n      pop\n        /* \"#utility.yul\":2451:2516   */\n      tag_526\n        /* \"#utility.yul\":2509:2515   */\n      dup2\n        /* \"#utility.yul\":2504:2507   */\n      dup6\n        /* \"#utility.yul\":2497:2501   */\n      0x20\n        /* \"#utility.yul\":2490:2495   */\n      dup7\n        /* \"#utility.yul\":2486:2502   */\n      add\n        /* \"#utility.yul\":2451:2516   */\n      tag_408\n      jump\t// in\n    tag_526:\n        /* \"#utility.yul\":2541:2570   */\n      tag_527\n        /* \"#utility.yul\":2563:2569   */\n      dup2\n        /* \"#utility.yul\":2541:2570   */\n      tag_409\n      jump\t// in\n    tag_527:\n        /* \"#utility.yul\":2536:2539   */\n      dup5\n        /* \"#utility.yul\":2532:2571   */\n      add\n        /* \"#utility.yul\":2525:2571   */\n      swap2\n      pop\n        /* \"#utility.yul\":2292:2577   */\n      pop\n        /* \"#utility.yul\":2200:2577   */\n      swap3\n      swap2\n      pop\n      pop\n      jump\t// out\n        /* \"#utility.yul\":2583:2896   */\n    tag_33:\n        /* \"#utility.yul\":2696:2700   */\n      0x00\n        /* \"#utility.yul\":2734:2736   */\n      0x20\n        /* \"#utility.yul\":2723:2732   */\n      dup3\n        /* \"#utility.yul\":2719:2737   */\n      add\n        /* \"#utility.yul\":2711:2737   */\n      swap1\n      pop\n        /* \"#utility.yul\":2783:2792   */\n      dup2\n        /* \"#utility.yul\":2777:2781   */\n      dup2\n        /* \"#utility.yul\":2773:2793   */\n      sub\n        /* \"#utility.yul\":2769:2770   */\n      0x00\n        /* \"#utility.yul\":2758:2767   */\n      dup4\n        /* \"#utility.yul\":2754:2771   */\n      add\n        /* \"#utility.yul\":2747:2794   */\n      mstore\n        /* \"#utility.yul\":2811:2889   */\n      tag_529\n        /* \"#utility.yul\":2884:2888   */\n      dup2\n        /* \"#utility.yul\":2875:2881   */\n      dup5\n        /* \"#utility.yul\":2811:2889   */\n      tag_410\n      jump\t// in\n    tag_529:\n        /* \"#utility.yul\":2803:2889   */\n      swap1\n      pop\n        /* \"#utility.yul\":2583:2896   */\n      swap3\n      swap2\n      pop\n      pop\n      jump\t// out\n        /* \"#utility.yul\":2902:3028   */\n    tag_411:\n        /* \"#utility.yul\":2939:2946   */\n      0x00\n        /* \"#utility.yul\":2979:3021   */\n      0xffffffffffffffffffffffffffffffffffffffff\n        /* \"#utility.yul\":2972:2977   */\n      dup3\n        /* \"#utility.yul\":2968:3022   */\n      and\n        /* \"#utility.yul\":2957:3022   */\n      swap1\n      pop\n        /* \"#utility.yul\":2902:3028   */\n      swap2\n      swap1\n      pop\n      jump\t// out\n        /* \"#utility.yul\":3034:3130   */\n    tag_412:\n        /* \"#utility.yul\":3071:3078   */\n      0x00\n        /* \"#utility.yul\":3100:3124   */\n      tag_532\n        /* \"#utility.yul\":3118:3123   */\n      dup3\n        /* \"#utility.yul\":3100:3124   */\n      tag_411\n      jump\t// in\n    tag_532:\n        /* \"#utility.yul\":3089:3124   */\n      swap1\n      pop\n        /* \"#utility.yul\":3034:3130   */\n      swap2\n      swap1\n      pop\n      jump\t// out\n        /* \"#utility.yul\":3136:3258   */\n    tag_413:\n        /* \"#utility.yul\":3209:3233   */\n      tag_534\n        /* \"#utility.yul\":3227:3232   */\n      dup2\n        /* \"#utility.yul\":3209:3233   */\n      tag_412\n      jump\t// in\n    tag_534:\n        /* \"#utility.yul\":3202:3207   */\n      dup2\n        /* \"#utility.yul\":3199:3234   */\n      eq\n        /* \"#utility.yul\":3189:3252   */\n      tag_535\n      jumpi\n        /* \"#utility.yul\":3248:3249   */\n      0x00\n        /* \"#utility.yul\":3245:3246   */\n      0x00\n        /* \"#utility.yul\":3238:3250   */\n      revert\n        /* \"#utility.yul\":3189:3252   */\n    tag_535:\n        /* \"#utility.yul\":3136:3258   */\n      pop\n      jump\t// out\n        /* \"#utility.yul\":3264:3403   */\n    tag_414:\n        /* \"#utility.yul\":3310:3315   */\n      0x00\n        /* \"#utility.yul\":3348:3354   */\n      dup2\n        /* \"#utility.yul\":3335:3355   */\n      calldataload\n        /* \"#utility.yul\":3326:3355   */\n      swap1\n      pop\n        /* \"#utility.yul\":3364:3397   */\n      tag_537\n        /* \"#utility.yul\":3391:3396   */\n      dup2\n        /* \"#utility.yul\":3364:3397   */\n      tag_413\n      jump\t// in\n    tag_537:\n        /* \"#utility.yul\":3264:3403   */\n      swap3\n      swap2\n      pop\n      pop\n      jump\t// out\n        /* \"#utility.yul\":3409:3883   */\n    tag_36:\n        /* \"#utility.yul\":3477:3483   */\n      0x00\n        /* \"#utility.yul\":3485:3491   */\n      0x00\n        /* \"#utility.yul\":3534:3536   */\n      0x40\n        /* \"#utility.yul\":3522:3531   */\n      dup4\n        /* \"#utility.yul\":3513:3520   */\n      dup6\n        /* \"#utility.yul\":3509:3532   */\n      sub\n        /* \"#utility.yul\":3505:3537   */\n      slt\n        /* \"#utility.yul\":3502:3621   */\n      iszero\n      tag_539\n      jumpi\n        /* \"#utility.yul\":3540:3619   */\n      tag_540\n      tag_400\n      jump\t// in\n    tag_540:\n        /* \"#utility.yul\":3502:3621   */\n    tag_539:\n        /* \"#utility.yul\":3660:3661   */\n      0x00\n        /* \"#utility.yul\":3685:3738   */\n      tag_541\n        /* \"#utility.yul\":3730:3737   */\n      dup6\n        /* \"#utility.yul\":3721:3727   */\n      dup3\n        /* \"#utility.yul\":3710:3719   */\n      dup7\n        /* \"#utility.yul\":3706:3728   */\n      add\n        /* \"#utility.yul\":3685:3738   */\n      tag_414\n      jump\t// in\n    tag_541:\n        /* \"#utility.yul\":3675:3738   */\n      swap3\n      pop\n        /* \"#utility.yul\":3631:3748   */\n      pop\n        /* \"#utility.yul\":3787:3789   */\n      0x20\n        /* \"#utility.yul\":3813:3866   */\n      tag_542\n        /* \"#utility.yul\":3858:3865   */\n      dup6\n        /* \"#utility.yul\":3849:3855   */\n      dup3\n        /* \"#utility.yul\":3838:3847   */\n      dup7\n        /* \"#utility.yul\":3834:3856   */\n      add\n        /* \"#utility.yul\":3813:3866   */\n      tag_404\n      jump\t// in\n    tag_542:\n        /* \"#utility.yul\":3803:3866   */\n      swap2\n      pop\n        /* \"#utility.yul\":3758:3876   */\n      pop\n        /* \"#utility.yul\":3409:3883   */\n      swap3\n      pop\n      swap3\n      swap1\n      pop\n      jump\t// out\n        /* \"#utility.yul\":3889:3979   */\n    tag_415:\n        /* \"#utility.yul\":3923:3930   */\n      0x00\n        /* \"#utility.yul\":3966:3971   */\n      dup2\n        /* \"#utility.yul\":3959:3972   */\n      iszero\n        /* \"#utility.yul\":3952:3973   */\n      iszero\n        /* \"#utility.yul\":3941:3973   */\n      swap1\n      pop\n        /* \"#utility.yul\":3889:3979   */\n      swap2\n      swap1\n      pop\n      jump\t// out\n        /* \"#utility.yul\":3985:4094   */\n    tag_416:\n        /* \"#utility.yul\":4066:4087   */\n      tag_545\n        /* \"#utility.yul\":4081:4086   */\n      dup2\n        /* \"#utility.yul\":4066:4087   */\n      tag_415\n      jump\t// in\n    tag_545:\n        /* \"#utility.yul\":4061:4064   */\n      dup3\n        /* \"#utility.yul\":4054:4088   */\n      mstore\n        /* \"#utility.yul\":3985:4094   */\n      pop\n      pop\n      jump\t// out\n        /* \"#utility.yul\":4100:4310   */\n    tag_39:\n        /* \"#utility.yul\":4187:4191   */\n      0x00\n        /* \"#utility.yul\":4225:4227   */\n      0x20\n        /* \"#utility.yul\":4214:4223   */\n      dup3\n        /* \"#utility.yul\":4210:4228   */\n      add\n        /* \"#utility.yul\":4202:4228   */\n      swap1\n      pop\n        /* \"#utility.yul\":4238:4303   */\n      tag_547\n        /* \"#utility.yul\":4300:4301   */\n      0x00\n        /* \"#utility.yul\":4289:4298   */\n      dup4\n        /* \"#utility.yul\":4285:4302   */\n      add\n        /* \"#utility.yul\":4276:4282   */\n      dup5\n        /* \"#utility.yul\":4238:4303   */\n      tag_416\n      jump\t// in\n    tag_547:\n        /* \"#utility.yul\":4100:4310   */\n      swap3\n      swap2\n      pop\n      pop\n      jump\t// out\n        /* \"#utility.yul\":4316:4376   */\n    tag_417:\n        /* \"#utility.yul\":4344:4347   */\n      0x00\n        /* \"#utility.yul\":4365:4370   */\n      dup2\n        /* \"#utility.yul\":4358:4370   */\n      swap1\n      pop\n        /* \"#utility.yul\":4316:4376   */\n      swap2\n      swap1\n      pop\n      jump\t// out\n        /* \"#utility.yul\":4382:4524   */\n    tag_418:\n        /* \"#utility.yul\":4432:4441   */\n      0x00\n        /* \"#utility.yul\":4465:4518   */\n      tag_550\n        /* \"#utility.yul\":4483:4517   */\n      tag_551\n        /* \"#utility.yul\":4492:4516   */\n      tag_552\n        /* \"#utility.yul\":4510:4515   */\n      dup5\n        /* \"#utility.yul\":4492:4516   */\n      tag_411\n      jump\t// in\n    tag_552:\n        /* \"#utility.yul\":4483:4517   */\n      tag_417\n      jump\t// in\n    tag_551:\n        /* \"#utility.yul\":4465:4518   */\n      tag_411\n      jump\t// in\n    tag_550:\n        /* \"#utility.yul\":4452:4518   */\n      swap1\n      pop\n        /* \"#utility.yul\":4382:4524   */\n      swap2\n      swap1\n      pop\n      jump\t// out\n        /* \"#utility.yul\":4530:4656   */\n    tag_419:\n        /* \"#utility.yul\":4580:4589   */\n      0x00\n        /* \"#utility.yul\":4613:4650   */\n      tag_554\n        /* \"#utility.yul\":4644:4649   */\n      dup3\n        /* \"#utility.yul\":4613:4650   */\n      tag_418\n      jump\t// in\n    tag_554:\n        /* \"#utility.yul\":4600:4650   */\n      swap1\n      pop\n        /* \"#utility.yul\":4530:4656   */\n      swap2\n      swap1\n      pop\n      jump\t// out\n        /* \"#utility.yul\":4662:4802   */\n    tag_420:\n        /* \"#utility.yul\":4726:4735   */\n      0x00\n        /* \"#utility.yul\":4759:4796   */\n      tag_556\n        /* \"#utility.yul\":4790:4795   */\n      dup3\n        /* \"#utility.yul\":4759:4796   */\n      tag_419\n      jump\t// in\n    tag_556:\n        /* \"#utility.yul\":4746:4796   */\n      swap1\n      pop\n        /* \"#utility.yul\":4662:4802   */\n      swap2\n      swap1\n      pop\n      jump\t// out\n        /* \"#utility.yul\":4808:4967   */\n    tag_421:\n        /* \"#utility.yul\":4909:4960   */\n      tag_558\n        /* \"#utility.yul\":4954:4959   */\n      dup2\n        /* \"#utility.yul\":4909:4960   */\n      tag_420\n      jump\t// in\n    tag_558:\n        /* \"#utility.yul\":4904:4907   */\n      dup3\n        /* \"#utility.yul\":4897:4961   */\n      mstore\n        /* \"#utility.yul\":4808:4967   */\n      pop\n      pop\n      jump\t// out\n        /* \"#utility.yul\":4973:5223   */\n    tag_43:\n        /* \"#utility.yul\":5080:5084   */\n      0x00\n        /* \"#utility.yul\":5118:5120   */\n      0x20\n        /* \"#utility.yul\":5107:5116   */\n      dup3\n        /* \"#utility.yul\":5103:5121   */\n      add\n        /* \"#utility.yul\":5095:5121   */\n      swap1\n      pop\n        /* \"#utility.yul\":5131:5216   */\n      tag_560\n        /* \"#utility.yul\":5213:5214   */\n      0x00\n        /* \"#utility.yul\":5202:5211   */\n      dup4\n        /* \"#utility.yul\":5198:5215   */\n      add\n        /* \"#utility.yul\":5189:5195   */\n      dup5\n        /* \"#utility.yul\":5131:5216   */\n      tag_421\n      jump\t// in\n    tag_560:\n        /* \"#utility.yul\":4973:5223   */\n      swap3\n      swap2\n      pop\n      pop\n      jump\t// out\n        /* \"#utility.yul\":5229:5848   */\n    tag_52:\n        /* \"#utility.yul\":5306:5312   */\n      0x00\n        /* \"#utility.yul\":5314:5320   */\n      0x00\n        /* \"#utility.yul\":5322:5328   */\n      0x00\n        /* \"#utility.yul\":5371:5373   */\n      0x60\n        /* \"#utility.yul\":5359:5368   */\n      dup5\n        /* \"#utility.yul\":5350:5357   */\n      dup7\n        /* \"#utility.yul\":5346:5369   */\n      sub\n        /* \"#utility.yul\":5342:5374   */\n      slt\n        /* \"#utility.yul\":5339:5458   */\n      iszero\n      tag_562\n      jumpi\n        /* \"#utility.yul\":5377:5456   */\n      tag_563\n      tag_400\n      jump\t// in\n    tag_563:\n        /* \"#utility.yul\":5339:5458   */\n    tag_562:\n        /* \"#utility.yul\":5497:5498   */\n      0x00\n        /* \"#utility.yul\":5522:5575   */\n      tag_564\n        /* \"#utility.yul\":5567:5574   */\n      dup7\n        /* \"#utility.yul\":5558:5564   */\n      dup3\n        /* \"#utility.yul\":5547:5556   */\n      dup8\n        /* \"#utility.yul\":5543:5565   */\n      add\n        /* \"#utility.yul\":5522:5575   */\n      tag_414\n      jump\t// in\n    tag_564:\n        /* \"#utility.yul\":5512:5575   */\n      swap4\n      pop\n        /* \"#utility.yul\":5468:5585   */\n      pop\n        /* \"#utility.yul\":5624:5626   */\n      0x20\n        /* \"#utility.yul\":5650:5703   */\n      tag_565\n        /* \"#utility.yul\":5695:5702   */\n      dup7\n        /* \"#utility.yul\":5686:5692   */\n      dup3\n        /* \"#utility.yul\":5675:5684   */\n      dup8\n        /* \"#utility.yul\":5671:5693   */\n      add\n        /* \"#utility.yul\":5650:5703   */\n      tag_414\n      jump\t// in\n    tag_565:\n        /* \"#utility.yul\":5640:5703   */\n      swap3\n      pop\n        /* \"#utility.yul\":5595:5713   */\n      pop\n        /* \"#utility.yul\":5752:5754   */\n      0x40\n        /* \"#utility.yul\":5778:5831   */\n      tag_566\n        /* \"#utility.yul\":5823:5830   */\n      dup7\n        /* \"#utility.yul\":5814:5820   */\n      dup3\n        /* \"#utility.yul\":5803:5812   */\n      dup8\n        /* \"#utility.yul\":5799:5821   */\n      add\n        /* \"#utility.yul\":5778:5831   */\n      tag_404\n      jump\t// in\n    tag_566:\n        /* \"#utility.yul\":5768:5831   */\n      swap2\n      pop\n        /* \"#utility.yul\":5723:5841   */\n      pop\n        /* \"#utility.yul\":5229:5848   */\n      swap3\n      pop\n      swap3\n      pop\n      swap3\n      jump\t// out\n        /* \"#utility.yul\":5854:5940   */\n    tag_422:\n        /* \"#utility.yul\":5889:5896   */\n      0x00\n        /* \"#utility.yul\":5929:5933   */\n      0xff\n        /* \"#utility.yul\":5922:5927   */\n      dup3\n        /* \"#utility.yul\":5918:5934   */\n      and\n        /* \"#utility.yul\":5907:5934   */\n      swap1\n      pop\n        /* \"#utility.yul\":5854:5940   */\n      swap2\n      swap1\n      pop\n      jump\t// out\n        /* \"#utility.yul\":5946:6058   */\n    tag_423:\n        /* \"#utility.yul\":6029:6051   */\n      tag_569\n        /* \"#utility.yul\":6045:6050   */\n      dup2\n        /* \"#utility.yul\":6029:6051   */\n      tag_422\n      jump\t// in\n    tag_569:\n        /* \"#utility.yul\":6024:6027   */\n      dup3\n        /* \"#utility.yul\":6017:6052   */\n      mstore\n        /* \"#utility.yul\":5946:6058   */\n      pop\n      pop\n      jump\t// out\n        /* \"#utility.yul\":6064:6278   */\n    tag_58:\n        /* \"#utility.yul\":6153:6157   */\n      0x00\n        /* \"#utility.yul\":6191:6193   */\n      0x20\n        /* \"#utility.yul\":6180:6189   */\n      dup3\n        /* \"#utility.yul\":6176:6194   */\n      add\n        /* \"#utility.yul\":6168:6194   */\n      swap1\n      pop\n        /* \"#utility.yul\":6204:6271   */\n      tag_571\n        /* \"#utility.yul\":6268:6269   */\n      0x00\n        /* \"#utility.yul\":6257:6266   */\n      dup4\n        /* \"#utility.yul\":6253:6270   */\n      add\n        /* \"#utility.yul\":6244:6250   */\n      dup5\n        /* \"#utility.yul\":6204:6271   */\n      tag_423\n      jump\t// in\n    tag_571:\n        /* \"#utility.yul\":6064:6278   */\n      swap3\n      swap2\n      pop\n      pop\n      jump\t// out\n        /* \"#utility.yul\":6284:6401   */\n    tag_424:\n        /* \"#utility.yul\":6393:6394   */\n      0x00\n        /* \"#utility.yul\":6390:6391   */\n      0x00\n        /* \"#utility.yul\":6383:6395   */\n      revert\n        /* \"#utility.yul\":6407:6524   */\n    tag_425:\n        /* \"#utility.yul\":6516:6517   */\n      0x00\n        /* \"#utility.yul\":6513:6514   */\n      0x00\n        /* \"#utility.yul\":6506:6518   */\n      revert\n        /* \"#utility.yul\":6530:6647   */\n    tag_426:\n        /* \"#utility.yul\":6639:6640   */\n      0x00\n        /* \"#utility.yul\":6636:6637   */\n      0x00\n        /* \"#utility.yul\":6629:6641   */\n      revert\n        /* \"#utility.yul\":6670:7238   */\n    tag_427:\n        /* \"#utility.yul\":6743:6751   */\n      0x00\n        /* \"#utility.yul\":6753:6759   */\n      0x00\n        /* \"#utility.yul\":6803:6806   */\n      dup4\n        /* \"#utility.yul\":6796:6800   */\n      0x1f\n        /* \"#utility.yul\":6788:6794   */\n      dup5\n        /* \"#utility.yul\":6784:6801   */\n      add\n        /* \"#utility.yul\":6780:6807   */\n      slt\n        /* \"#utility.yul\":6770:6892   */\n      tag_576\n      jumpi\n        /* \"#utility.yul\":6811:6890   */\n      tag_577\n      tag_424\n      jump\t// in\n    tag_577:\n        /* \"#utility.yul\":6770:6892   */\n    tag_576:\n        /* \"#utility.yul\":6924:6930   */\n      dup3\n        /* \"#utility.yul\":6911:6931   */\n      calldataload\n        /* \"#utility.yul\":6901:6931   */\n      swap1\n      pop\n        /* \"#utility.yul\":6954:6972   */\n      0xffffffffffffffff\n        /* \"#utility.yul\":6946:6952   */\n      dup2\n        /* \"#utility.yul\":6943:6973   */\n      gt\n        /* \"#utility.yul\":6940:7057   */\n      iszero\n      tag_578\n      jumpi\n        /* \"#utility.yul\":6976:7055   */\n      tag_579\n      tag_425\n      jump\t// in\n    tag_579:\n        /* \"#utility.yul\":6940:7057   */\n    tag_578:\n        /* \"#utility.yul\":7090:7094   */\n      0x20\n        /* \"#utility.yul\":7082:7088   */\n      dup4\n        /* \"#utility.yul\":7078:7095   */\n      add\n        /* \"#utility.yul\":7066:7095   */\n      swap2\n      pop\n        /* \"#utility.yul\":7144:7147   */\n      dup4\n        /* \"#utility.yul\":7136:7140   */\n      0x20\n        /* \"#utility.yul\":7128:7134   */\n      dup3\n        /* \"#utility.yul\":7124:7141   */\n      mul\n        /* \"#utility.yul\":7114:7122   */\n      dup4\n        /* \"#utility.yul\":7110:7142   */\n      add\n        /* \"#utility.yul\":7107:7148   */\n      gt\n        /* \"#utility.yul\":7104:7232   */\n      iszero\n      tag_580\n      jumpi\n        /* \"#utility.yul\":7151:7230   */\n      tag_581\n      tag_426\n      jump\t// in\n    tag_581:\n        /* \"#utility.yul\":7104:7232   */\n    tag_580:\n        /* \"#utility.yul\":6670:7238   */\n      swap3\n      pop\n      swap3\n      swap1\n      pop\n      jump\t// out\n        /* \"#utility.yul\":7244:8385   */\n    tag_61:\n        /* \"#utility.yul\":7366:7372   */\n      0x00\n        /* \"#utility.yul\":7374:7380   */\n      0x00\n        /* \"#utility.yul\":7382:7388   */\n      0x00\n        /* \"#utility.yul\":7390:7396   */\n      0x00\n        /* \"#utility.yul\":7398:7404   */\n      0x00\n        /* \"#utility.yul\":7406:7412   */\n      0x00\n        /* \"#utility.yul\":7455:7458   */\n      0xa0\n        /* \"#utility.yul\":7443:7452   */\n      dup8\n        /* \"#utility.yul\":7434:7441   */\n      dup10\n        /* \"#utility.yul\":7430:7453   */\n      sub\n        /* \"#utility.yul\":7426:7459   */\n      slt\n        /* \"#utility.yul\":7423:7543   */\n      iszero\n      tag_583\n      jumpi\n        /* \"#utility.yul\":7462:7541   */\n      tag_584\n      tag_400\n      jump\t// in\n    tag_584:\n        /* \"#utility.yul\":7423:7543   */\n    tag_583:\n        /* \"#utility.yul\":7582:7583   */\n      0x00\n        /* \"#utility.yul\":7607:7660   */\n      tag_585\n        /* \"#utility.yul\":7652:7659   */\n      dup10\n        /* \"#utility.yul\":7643:7649   */\n      dup3\n        /* \"#utility.yul\":7632:7641   */\n      dup11\n        /* \"#utility.yul\":7628:7650   */\n      add\n        /* \"#utility.yul\":7607:7660   */\n      tag_404\n      jump\t// in\n    tag_585:\n        /* \"#utility.yul\":7597:7660   */\n      swap7\n      pop\n        /* \"#utility.yul\":7553:7670   */\n      pop\n        /* \"#utility.yul\":7709:7711   */\n      0x20\n        /* \"#utility.yul\":7735:7788   */\n      tag_586\n        /* \"#utility.yul\":7780:7787   */\n      dup10\n        /* \"#utility.yul\":7771:7777   */\n      dup3\n        /* \"#utility.yul\":7760:7769   */\n      dup11\n        /* \"#utility.yul\":7756:7778   */\n      add\n        /* \"#utility.yul\":7735:7788   */\n      tag_404\n      jump\t// in\n    tag_586:\n        /* \"#utility.yul\":7725:7788   */\n      swap6\n      pop\n        /* \"#utility.yul\":7680:7798   */\n      pop\n        /* \"#utility.yul\":7865:7867   */\n      0x40\n        /* \"#utility.yul\":7854:7863   */\n      dup8\n        /* \"#utility.yul\":7850:7868   */\n      add\n        /* \"#utility.yul\":7837:7869   */\n      calldataload\n        /* \"#utility.yul\":7896:7914   */\n      0xffffffffffffffff\n        /* \"#utility.yul\":7888:7894   */\n      dup2\n        /* \"#utility.yul\":7885:7915   */\n      gt\n        /* \"#utility.yul\":7882:7999   */\n      iszero\n      tag_587\n      jumpi\n        /* \"#utility.yul\":7918:7997   */\n      tag_588\n      tag_401\n      jump\t// in\n    tag_588:\n        /* \"#utility.yul\":7882:7999   */\n    tag_587:\n        /* \"#utility.yul\":8031:8111   */\n      tag_589\n        /* \"#utility.yul\":8103:8110   */\n      dup10\n        /* \"#utility.yul\":8094:8100   */\n      dup3\n        /* \"#utility.yul\":8083:8092   */\n      dup11\n        /* \"#utility.yul\":8079:8101   */\n      add\n        /* \"#utility.yul\":8031:8111   */\n      tag_427\n      jump\t// in\n    tag_589:\n        /* \"#utility.yul\":8013:8111   */\n      swap5\n      pop\n      swap5\n      pop\n        /* \"#utility.yul\":7808:8121   */\n      pop\n        /* \"#utility.yul\":8160:8162   */\n      0x60\n        /* \"#utility.yul\":8186:8239   */\n      tag_590\n        /* \"#utility.yul\":8231:8238   */\n      dup10\n        /* \"#utility.yul\":8222:8228   */\n      dup3\n        /* \"#utility.yul\":8211:8220   */\n      dup11\n        /* \"#utility.yul\":8207:8229   */\n      add\n        /* \"#utility.yul\":8186:8239   */\n      tag_414\n      jump\t// in\n    tag_590:\n        /* \"#utility.yul\":8176:8239   */\n      swap3\n      pop\n        /* \"#utility.yul\":8131:8249   */\n      pop\n        /* \"#utility.yul\":8288:8291   */\n      0x80\n        /* \"#utility.yul\":8315:8368   */\n      tag_591\n        /* \"#utility.yul\":8360:8367   */\n      dup10\n        /* \"#utility.yul\":8351:8357   */\n      dup3\n        /* \"#utility.yul\":8340:8349   */\n      dup11\n        /* \"#utility.yul\":8336:8358   */\n      add\n        /* \"#utility.yul\":8315:8368   */\n      tag_404\n      jump\t// in\n    tag_591:\n        /* \"#utility.yul\":8305:8368   */\n      swap2\n      pop\n        /* \"#utility.yul\":8259:8378   */\n      pop\n        /* \"#utility.yul\":7244:8385   */\n      swap3\n      swap6\n      pop\n      swap3\n      swap6\n      pop\n      swap3\n      swap6\n      jump\t// out\n        /* \"#utility.yul\":8391:8505   */\n    tag_428:\n        /* \"#utility.yul\":8458:8464   */\n      0x00\n        /* \"#utility.yul\":8492:8497   */\n      dup2\n        /* \"#utility.yul\":8486:8498   */\n      mload\n        /* \"#utility.yul\":8476:8498   */\n      swap1\n      pop\n        /* \"#utility.yul\":8391:8505   */\n      swap2\n      swap1\n      pop\n      jump\t// out\n        /* \"#utility.yul\":8511:8695   */\n    tag_429:\n        /* \"#utility.yul\":8610:8621   */\n      0x00\n        /* \"#utility.yul\":8644:8650   */\n      dup3\n        /* \"#utility.yul\":8639:8642   */\n      dup3\n        /* \"#utility.yul\":8632:8651   */\n      mstore\n        /* \"#utility.yul\":8684:8688   */\n      0x20\n        /* \"#utility.yul\":8679:8682   */\n      dup3\n        /* \"#utility.yul\":8675:8689   */\n      add\n        /* \"#utility.yul\":8660:8689   */\n      swap1\n      pop\n        /* \"#utility.yul\":8511:8695   */\n      swap3\n      swap2\n      pop\n      pop\n      jump\t// out\n        /* \"#utility.yul\":8701:8833   */\n    tag_430:\n        /* \"#utility.yul\":8768:8772   */\n      0x00\n        /* \"#utility.yul\":8791:8794   */\n      dup2\n        /* \"#utility.yul\":8783:8794   */\n      swap1\n      pop\n        /* \"#utility.yul\":8821:8825   */\n      0x20\n        /* \"#utility.yul\":8816:8819   */\n      dup3\n        /* \"#utility.yul\":8812:8826   */\n      add\n        /* \"#utility.yul\":8804:8826   */\n      swap1\n      pop\n        /* \"#utility.yul\":8701:8833   */\n      swap2\n      swap1\n      pop\n      jump\t// out\n        /* \"#utility.yul\":8839:8947   */\n    tag_431:\n        /* \"#utility.yul\":8916:8940   */\n      tag_596\n        /* \"#utility.yul\":8934:8939   */\n      dup2\n        /* \"#utility.yul\":8916:8940   */\n      tag_402\n      jump\t// in\n    tag_596:\n        /* \"#utility.yul\":8911:8914   */\n      dup3\n        /* \"#utility.yul\":8904:8941   */\n      mstore\n        /* \"#utility.yul\":8839:8947   */\n      pop\n      pop\n      jump\t// out\n        /* \"#utility.yul\":8953:9132   */\n    tag_432:\n        /* \"#utility.yul\":9022:9032   */\n      0x00\n        /* \"#utility.yul\":9043:9089   */\n      tag_598\n        /* \"#utility.yul\":9085:9088   */\n      dup4\n        /* \"#utility.yul\":9077:9083   */\n      dup4\n        /* \"#utility.yul\":9043:9089   */\n      tag_431\n      jump\t// in\n    tag_598:\n        /* \"#utility.yul\":9121:9125   */\n      0x20\n        /* \"#utility.yul\":9116:9119   */\n      dup4\n        /* \"#utility.yul\":9112:9126   */\n      add\n        /* \"#utility.yul\":9098:9126   */\n      swap1\n      pop\n        /* \"#utility.yul\":8953:9132   */\n      swap3\n      swap2\n      pop\n      pop\n      jump\t// out\n        /* \"#utility.yul\":9138:9251   */\n    tag_433:\n        /* \"#utility.yul\":9208:9212   */\n      0x00\n        /* \"#utility.yul\":9240:9244   */\n      0x20\n        /* \"#utility.yul\":9235:9238   */\n      dup3\n        /* \"#utility.yul\":9231:9245   */\n      add\n        /* \"#utility.yul\":9223:9245   */\n      swap1\n      pop\n        /* \"#utility.yul\":9138:9251   */\n      swap2\n      swap1\n      pop\n      jump\t// out\n        /* \"#utility.yul\":9287:10019   */\n    tag_434:\n        /* \"#utility.yul\":9406:9409   */\n      0x00\n        /* \"#utility.yul\":9435:9489   */\n      tag_601\n        /* \"#utility.yul\":9483:9488   */\n      dup3\n        /* \"#utility.yul\":9435:9489   */\n      tag_428\n      jump\t// in\n    tag_601:\n        /* \"#utility.yul\":9505:9591   */\n      tag_602\n        /* \"#utility.yul\":9584:9590   */\n      dup2\n        /* \"#utility.yul\":9579:9582   */\n      dup6\n        /* \"#utility.yul\":9505:9591   */\n      tag_429\n      jump\t// in\n    tag_602:\n        /* \"#utility.yul\":9498:9591   */\n      swap4\n      pop\n        /* \"#utility.yul\":9615:9671   */\n      tag_603\n        /* \"#utility.yul\":9665:9670   */\n      dup4\n        /* \"#utility.yul\":9615:9671   */\n      tag_430\n      jump\t// in\n    tag_603:\n        /* \"#utility.yul\":9694:9701   */\n      dup1\n        /* \"#utility.yul\":9725:9726   */\n      0x00\n        /* \"#utility.yul\":9710:9994   */\n    tag_604:\n        /* \"#utility.yul\":9735:9741   */\n      dup4\n        /* \"#utility.yul\":9732:9733   */\n      dup2\n        /* \"#utility.yul\":9729:9742   */\n      lt\n        /* \"#utility.yul\":9710:9994   */\n      iszero\n      tag_606\n      jumpi\n        /* \"#utility.yul\":9811:9817   */\n      dup2\n        /* \"#utility.yul\":9805:9818   */\n      mload\n        /* \"#utility.yul\":9838:9901   */\n      tag_607\n        /* \"#utility.yul\":9897:9900   */\n      dup9\n        /* \"#utility.yul\":9882:9895   */\n      dup3\n        /* \"#utility.yul\":9838:9901   */\n      tag_432\n      jump\t// in\n    tag_607:\n        /* \"#utility.yul\":9831:9901   */\n      swap8\n      pop\n        /* \"#utility.yul\":9924:9984   */\n      tag_608\n        /* \"#utility.yul\":9977:9983   */\n      dup4\n        /* \"#utility.yul\":9924:9984   */\n      tag_433\n      jump\t// in\n    tag_608:\n        /* \"#utility.yul\":9914:9984   */\n      swap3\n      pop\n        /* \"#utility.yul\":9770:9994   */\n      pop\n        /* \"#utility.yul\":9757:9758   */\n      0x01\n        /* \"#utility.yul\":9754:9755   */\n      dup2\n        /* \"#utility.yul\":9750:9759   */\n      add\n        /* \"#utility.yul\":9745:9759   */\n      swap1\n      pop\n        /* \"#utility.yul\":9710:9994   */\n      jump(tag_604)\n    tag_606:\n        /* \"#utility.yul\":9714:9728   */\n      pop\n        /* \"#utility.yul\":10010:10013   */\n      dup6\n        /* \"#utility.yul\":10003:10013   */\n      swap4\n      pop\n        /* \"#utility.yul\":9411:10019   */\n      pop\n      pop\n      pop\n        /* \"#utility.yul\":9287:10019   */\n      swap3\n      swap2\n      pop\n      pop\n      jump\t// out\n        /* \"#utility.yul\":10025:10398   */\n    tag_64:\n        /* \"#utility.yul\":10168:10172   */\n      0x00\n        /* \"#utility.yul\":10206:10208   */\n      0x20\n        /* \"#utility.yul\":10195:10204   */\n      dup3\n        /* \"#utility.yul\":10191:10209   */\n      add\n        /* \"#utility.yul\":10183:10209   */\n      swap1\n      pop\n        /* \"#utility.yul\":10255:10264   */\n      dup2\n        /* \"#utility.yul\":10249:10253   */\n      dup2\n        /* \"#utility.yul\":10245:10265   */\n      sub\n        /* \"#utility.yul\":10241:10242   */\n      0x00\n        /* \"#utility.yul\":10230:10239   */\n      dup4\n        /* \"#utility.yul\":10226:10243   */\n      add\n        /* \"#utility.yul\":10219:10266   */\n      mstore\n        /* \"#utility.yul\":10283:10391   */\n      tag_610\n        /* \"#utility.yul\":10386:10390   */\n      dup2\n        /* \"#utility.yul\":10377:10383   */\n      dup5\n        /* \"#utility.yul\":10283:10391   */\n      tag_434\n      jump\t// in\n    tag_610:\n        /* \"#utility.yul\":10275:10391   */\n      swap1\n      pop\n        /* \"#utility.yul\":10025:10398   */\n      swap3\n      swap2\n      pop\n      pop\n      jump\t// out\n        /* \"#utility.yul\":10404:10733   */\n    tag_70:\n        /* \"#utility.yul\":10463:10469   */\n      0x00\n        /* \"#utility.yul\":10512:10514   */\n      0x20\n        /* \"#utility.yul\":10500:10509   */\n      dup3\n        /* \"#utility.yul\":10491:10498   */\n      dup5\n        /* \"#utility.yul\":10487:10510   */\n      sub\n        /* \"#utility.yul\":10483:10515   */\n      slt\n        /* \"#utility.yul\":10480:10599   */\n      iszero\n      tag_612\n      jumpi\n        /* \"#utility.yul\":10518:10597   */\n      tag_613\n      tag_400\n      jump\t// in\n    tag_613:\n        /* \"#utility.yul\":10480:10599   */\n    tag_612:\n        /* \"#utility.yul\":10638:10639   */\n      0x00\n        /* \"#utility.yul\":10663:10716   */\n      tag_614\n        /* \"#utility.yul\":10708:10715   */\n      dup5\n        /* \"#utility.yul\":10699:10705   */\n      dup3\n        /* \"#utility.yul\":10688:10697   */\n      dup6\n        /* \"#utility.yul\":10684:10706   */\n      add\n        /* \"#utility.yul\":10663:10716   */\n      tag_414\n      jump\t// in\n    tag_614:\n        /* \"#utility.yul\":10653:10716   */\n      swap2\n      pop\n        /* \"#utility.yul\":10609:10726   */\n      pop\n        /* \"#utility.yul\":10404:10733   */\n      swap3\n      swap2\n      pop\n      pop\n      jump\t// out\n        /* \"#utility.yul\":10739:11213   */\n    tag_82:\n        /* \"#utility.yul\":10807:10813   */\n      0x00\n        /* \"#utility.yul\":10815:10821   */\n      0x00\n        /* \"#utility.yul\":10864:10866   */\n      0x40\n        /* \"#utility.yul\":10852:10861   */\n      dup4\n        /* \"#utility.yul\":10843:10850   */\n      dup6\n        /* \"#utility.yul\":10839:10862   */\n      sub\n        /* \"#utility.yul\":10835:10867   */\n      slt\n        /* \"#utility.yul\":10832:10951   */\n      iszero\n      tag_616\n      jumpi\n        /* \"#utility.yul\":10870:10949   */\n      tag_617\n      tag_400\n      jump\t// in\n    tag_617:\n        /* \"#utility.yul\":10832:10951   */\n    tag_616:\n        /* \"#utility.yul\":10990:10991   */\n      0x00\n        /* \"#utility.yul\":11015:11068   */\n      tag_618\n        /* \"#utility.yul\":11060:11067   */\n      dup6\n        /* \"#utility.yul\":11051:11057   */\n      dup3\n        /* \"#utility.yul\":11040:11049   */\n      dup7\n        /* \"#utility.yul\":11036:11058   */\n      add\n        /* \"#utility.yul\":11015:11068   */\n      tag_414\n      jump\t// in\n    tag_618:\n        /* \"#utility.yul\":11005:11068   */\n      swap3\n      pop\n        /* \"#utility.yul\":10961:11078   */\n      pop\n        /* \"#utility.yul\":11117:11119   */\n      0x20\n        /* \"#utility.yul\":11143:11196   */\n      tag_619\n        /* \"#utility.yul\":11188:11195   */\n      dup6\n        /* \"#utility.yul\":11179:11185   */\n      dup3\n        /* \"#utility.yul\":11168:11177   */\n      dup7\n        /* \"#utility.yul\":11164:11186   */\n      add\n        /* \"#utility.yul\":11143:11196   */\n      tag_414\n      jump\t// in\n    tag_619:\n        /* \"#utility.yul\":11133:11196   */\n      swap2\n      pop\n        /* \"#utility.yul\":11088:11206   */\n      pop\n        /* \"#utility.yul\":10739:11213   */\n      swap3\n      pop\n      swap3\n      swap1\n      pop\n      jump\t// out\n        /* \"#utility.yul\":11219:12422   */\n    tag_87:\n        /* \"#utility.yul\":11332:11338   */\n      0x00\n        /* \"#utility.yul\":11340:11346   */\n      0x00\n        /* \"#utility.yul\":11348:11354   */\n      0x00\n        /* \"#utility.yul\":11356:11362   */\n      0x00\n        /* \"#utility.yul\":11364:11370   */\n      0x00\n        /* \"#utility.yul\":11372:11378   */\n      0x00\n        /* \"#utility.yul\":11380:11386   */\n      0x00\n        /* \"#utility.yul\":11429:11432   */\n      0xe0\n        /* \"#utility.yul\":11417:11426   */\n      dup9\n        /* \"#utility.yul\":11408:11415   */\n      dup11\n        /* \"#utility.yul\":11404:11427   */\n      sub\n        /* \"#utility.yul\":11400:11433   */\n      slt\n        /* \"#utility.yul\":11397:11517   */\n      iszero\n      tag_621\n      jumpi\n        /* \"#utility.yul\":11436:11515   */\n      tag_622\n      tag_400\n      jump\t// in\n    tag_622:\n        /* \"#utility.yul\":11397:11517   */\n    tag_621:\n        /* \"#utility.yul\":11556:11557   */\n      0x00\n        /* \"#utility.yul\":11581:11634   */\n      tag_623\n        /* \"#utility.yul\":11626:11633   */\n      dup11\n        /* \"#utility.yul\":11617:11623   */\n      dup3\n        /* \"#utility.yul\":11606:11615   */\n      dup12\n        /* \"#utility.yul\":11602:11624   */\n      add\n        /* \"#utility.yul\":11581:11634   */\n      tag_414\n      jump\t// in\n    tag_623:\n        /* \"#utility.yul\":11571:11634   */\n      swap8\n      pop\n        /* \"#utility.yul\":11527:11644   */\n      pop\n        /* \"#utility.yul\":11683:11685   */\n      0x20\n        /* \"#utility.yul\":11709:11762   */\n      tag_624\n        /* \"#utility.yul\":11754:11761   */\n      dup11\n        /* \"#utility.yul\":11745:11751   */\n      dup3\n        /* \"#utility.yul\":11734:11743   */\n      dup12\n        /* \"#utility.yul\":11730:11752   */\n      add\n        /* \"#utility.yul\":11709:11762   */\n      tag_414\n      jump\t// in\n    tag_624:\n        /* \"#utility.yul\":11699:11762   */\n      swap7\n      pop\n        /* \"#utility.yul\":11654:11772   */\n      pop\n        /* \"#utility.yul\":11811:11813   */\n      0x40\n        /* \"#utility.yul\":11837:11890   */\n      tag_625\n        /* \"#utility.yul\":11882:11889   */\n      dup11\n        /* \"#utility.yul\":11873:11879   */\n      dup3\n        /* \"#utility.yul\":11862:11871   */\n      dup12\n        /* \"#utility.yul\":11858:11880   */\n      add\n        /* \"#utility.yul\":11837:11890   */\n      tag_404\n      jump\t// in\n    tag_625:\n        /* \"#utility.yul\":11827:11890   */\n      swap6\n      pop\n        /* \"#utility.yul\":11782:11900   */\n      pop\n        /* \"#utility.yul\":11939:11941   */\n      0x60\n        /* \"#utility.yul\":11965:12018   */\n      tag_626\n        /* \"#utility.yul\":12010:12017   */\n      dup11\n        /* \"#utility.yul\":12001:12007   */\n      dup3\n        /* \"#utility.yul\":11990:11999   */\n      dup12\n        /* \"#utility.yul\":11986:12008   */\n      add\n        /* \"#utility.yul\":11965:12018   */\n      tag_404\n      jump\t// in\n    tag_626:\n        /* \"#utility.yul\":11955:12018   */\n      swap5\n      pop\n        /* \"#utility.yul\":11910:12028   */\n      pop\n        /* \"#utility.yul\":12067:12070   */\n      0x80\n        /* \"#utility.yul\":12094:12147   */\n      tag_627\n        /* \"#utility.yul\":12139:12146   */\n      dup11\n        /* \"#utility.yul\":12130:12136   */\n      dup3\n        /* \"#utility.yul\":12119:12128   */\n      dup12\n        /* \"#utility.yul\":12115:12137   */\n      add\n        /* \"#utility.yul\":12094:12147   */\n      tag_404\n      jump\t// in\n    tag_627:\n        /* \"#utility.yul\":12084:12147   */\n      swap4\n      pop\n        /* \"#utility.yul\":12038:12157   */\n      pop\n        /* \"#utility.yul\":12196:12199   */\n      0xa0\n        /* \"#utility.yul\":12223:12276   */\n      tag_628\n        /* \"#utility.yul\":12268:12275   */\n      dup11\n        /* \"#utility.yul\":12259:12265   */\n      dup3\n        /* \"#utility.yul\":12248:12257   */\n      dup12\n        /* \"#utility.yul\":12244:12266   */\n      add\n        /* \"#utility.yul\":12223:12276   */\n      tag_414\n      jump\t// in\n    tag_628:\n        /* \"#utility.yul\":12213:12276   */\n      swap3\n      pop\n        /* \"#utility.yul\":12167:12286   */\n      pop\n        /* \"#utility.yul\":12325:12328   */\n      0xc0\n        /* \"#utility.yul\":12352:12405   */\n      tag_629\n        /* \"#utility.yul\":12397:12404   */\n      dup11\n        /* \"#utility.yul\":12388:12394   */\n      dup3\n        /* \"#utility.yul\":12377:12386   */\n      dup12\n        /* \"#utility.yul\":12373:12395   */\n      add\n        /* \"#utility.yul\":12352:12405   */\n      tag_404\n      jump\t// in\n    tag_629:\n        /* \"#utility.yul\":12342:12405   */\n      swap2\n      pop\n        /* \"#utility.yul\":12296:12415   */\n      pop\n        /* \"#utility.yul\":11219:12422   */\n      swap3\n      swap6\n      swap9\n      swap2\n      swap5\n      swap8\n      pop\n      swap3\n      swap6\n      pop\n      jump\t// out\n        /* \"#utility.yul\":12428:12760   */\n    tag_90:\n        /* \"#utility.yul\":12549:12553   */\n      0x00\n        /* \"#utility.yul\":12587:12589   */\n      0x40\n        /* \"#utility.yul\":12576:12585   */\n      dup3\n        /* \"#utility.yul\":12572:12590   */\n      add\n        /* \"#utility.yul\":12564:12590   */\n      swap1\n      pop\n        /* \"#utility.yul\":12600:12671   */\n      tag_631\n        /* \"#utility.yul\":12668:12669   */\n      0x00\n        /* \"#utility.yul\":12657:12666   */\n      dup4\n        /* \"#utility.yul\":12653:12670   */\n      add\n        /* \"#utility.yul\":12644:12650   */\n      dup6\n        /* \"#utility.yul\":12600:12671   */\n      tag_405\n      jump\t// in\n    tag_631:\n        /* \"#utility.yul\":12681:12753   */\n      tag_632\n        /* \"#utility.yul\":12749:12751   */\n      0x20\n        /* \"#utility.yul\":12738:12747   */\n      dup4\n        /* \"#utility.yul\":12734:12752   */\n      add\n        /* \"#utility.yul\":12725:12731   */\n      dup5\n        /* \"#utility.yul\":12681:12753   */\n      tag_405\n      jump\t// in\n    tag_632:\n        /* \"#utility.yul\":12428:12760   */\n      swap4\n      swap3\n      pop\n      pop\n      pop\n      jump\t// out\n        /* \"#utility.yul\":12766:14115   */\n    tag_100:\n        /* \"#utility.yul\":12888:12894   */\n      0x00\n        /* \"#utility.yul\":12896:12902   */\n      0x00\n        /* \"#utility.yul\":12904:12910   */\n      0x00\n        /* \"#utility.yul\":12912:12918   */\n      0x00\n        /* \"#utility.yul\":12920:12926   */\n      0x00\n        /* \"#utility.yul\":12928:12934   */\n      0x00\n        /* \"#utility.yul\":12936:12942   */\n      0x00\n        /* \"#utility.yul\":12944:12950   */\n      0x00\n        /* \"#utility.yul\":12993:12996   */\n      0x0100\n        /* \"#utility.yul\":12981:12990   */\n      dup10\n        /* \"#utility.yul\":12972:12979   */\n      dup12\n        /* \"#utility.yul\":12968:12991   */\n      sub\n        /* \"#utility.yul\":12964:12997   */\n      slt\n        /* \"#utility.yul\":12961:13081   */\n      iszero\n      tag_634\n      jumpi\n        /* \"#utility.yul\":13000:13079   */\n      tag_635\n      tag_400\n      jump\t// in\n    tag_635:\n        /* \"#utility.yul\":12961:13081   */\n    tag_634:\n        /* \"#utility.yul\":13120:13121   */\n      0x00\n        /* \"#utility.yul\":13145:13198   */\n      tag_636\n        /* \"#utility.yul\":13190:13197   */\n      dup12\n        /* \"#utility.yul\":13181:13187   */\n      dup3\n        /* \"#utility.yul\":13170:13179   */\n      dup13\n        /* \"#utility.yul\":13166:13188   */\n      add\n        /* \"#utility.yul\":13145:13198   */\n      tag_414\n      jump\t// in\n    tag_636:\n        /* \"#utility.yul\":13135:13198   */\n      swap9\n      pop\n        /* \"#utility.yul\":13091:13208   */\n      pop\n        /* \"#utility.yul\":13247:13249   */\n      0x20\n        /* \"#utility.yul\":13273:13326   */\n      tag_637\n        /* \"#utility.yul\":13318:13325   */\n      dup12\n        /* \"#utility.yul\":13309:13315   */\n      dup3\n        /* \"#utility.yul\":13298:13307   */\n      dup13\n        /* \"#utility.yul\":13294:13316   */\n      add\n        /* \"#utility.yul\":13273:13326   */\n      tag_414\n      jump\t// in\n    tag_637:\n        /* \"#utility.yul\":13263:13326   */\n      swap8\n      pop\n        /* \"#utility.yul\":13218:13336   */\n      pop\n        /* \"#utility.yul\":13375:13377   */\n      0x40\n        /* \"#utility.yul\":13401:13454   */\n      tag_638\n        /* \"#utility.yul\":13446:13453   */\n      dup12\n        /* \"#utility.yul\":13437:13443   */\n      dup3\n        /* \"#utility.yul\":13426:13435   */\n      dup13\n        /* \"#utility.yul\":13422:13444   */\n      add\n        /* \"#utility.yul\":13401:13454   */\n      tag_404\n      jump\t// in\n    tag_638:\n        /* \"#utility.yul\":13391:13454   */\n      swap7\n      pop\n        /* \"#utility.yul\":13346:13464   */\n      pop\n        /* \"#utility.yul\":13503:13505   */\n      0x60\n        /* \"#utility.yul\":13529:13582   */\n      tag_639\n        /* \"#utility.yul\":13574:13581   */\n      dup12\n        /* \"#utility.yul\":13565:13571   */\n      dup3\n        /* \"#utility.yul\":13554:13563   */\n      dup13\n        /* \"#utility.yul\":13550:13572   */\n      add\n        /* \"#utility.yul\":13529:13582   */\n      tag_404\n      jump\t// in\n    tag_639:\n        /* \"#utility.yul\":13519:13582   */\n      swap6\n      pop\n        /* \"#utility.yul\":13474:13592   */\n      pop\n        /* \"#utility.yul\":13631:13634   */\n      0x80\n        /* \"#utility.yul\":13658:13711   */\n      tag_640\n        /* \"#utility.yul\":13703:13710   */\n      dup12\n        /* \"#utility.yul\":13694:13700   */\n      dup3\n        /* \"#utility.yul\":13683:13692   */\n      dup13\n        /* \"#utility.yul\":13679:13701   */\n      add\n        /* \"#utility.yul\":13658:13711   */\n      tag_404\n      jump\t// in\n    tag_640:\n        /* \"#utility.yul\":13648:13711   */\n      swap5\n      pop\n        /* \"#utility.yul\":13602:13721   */\n      pop\n        /* \"#utility.yul\":13760:13763   */\n      0xa0\n        /* \"#utility.yul\":13787:13840   */\n      tag_641\n        /* \"#utility.yul\":13832:13839   */\n      dup12\n        /* \"#utility.yul\":13823:13829   */\n      dup3\n        /* \"#utility.yul\":13812:13821   */\n      dup13\n        /* \"#utility.yul\":13808:13830   */\n      add\n        /* \"#utility.yul\":13787:13840   */\n      tag_404\n      jump\t// in\n    tag_641:\n        /* \"#utility.yul\":13777:13840   */\n      swap4\n      pop\n        /* \"#utility.yul\":13731:13850   */\n      pop\n        /* \"#utility.yul\":13889:13892   */\n      0xc0\n        /* \"#utility.yul\":13916:13969   */\n      tag_642\n        /* \"#utility.yul\":13961:13968   */\n      dup12\n        /* \"#utility.yul\":13952:13958   */\n      dup3\n        /* \"#utility.yul\":13941:13950   */\n      dup13\n        /* \"#utility.yul\":13937:13959   */\n      add\n        /* \"#utility.yul\":13916:13969   */\n      tag_414\n      jump\t// in\n    tag_642:\n        /* \"#utility.yul\":13906:13969   */\n      swap3\n      pop\n        /* \"#utility.yul\":13860:13979   */\n      pop\n        /* \"#utility.yul\":14018:14021   */\n      0xe0\n        /* \"#utility.yul\":14045:14098   */\n      tag_643\n        /* \"#utility.yul\":14090:14097   */\n      dup12\n        /* \"#utility.yul\":14081:14087   */\n      dup3\n        /* \"#utility.yul\":14070:14079   */\n      dup13\n        /* \"#utility.yul\":14066:14088   */\n      add\n        /* \"#utility.yul\":14045:14098   */\n      tag_404\n      jump\t// in\n    tag_643:\n        /* \"#utility.yul\":14035:14098   */\n      swap2\n      pop\n        /* \"#utility.yul\":13989:14108   */\n      pop\n        /* \"#utility.yul\":12766:14115   */\n      swap3\n      swap6\n      swap9\n      pop\n      swap3\n      swap6\n      swap9\n      swap1\n      swap4\n      swap7\n      pop\n      jump\t// out\n        /* \"#utility.yul\":14121:14563   */\n    tag_103:\n        /* \"#utility.yul\":14270:14274   */\n      0x00\n        /* \"#utility.yul\":14308:14310   */\n      0x60\n        /* \"#utility.yul\":14297:14306   */\n      dup3\n        /* \"#utility.yul\":14293:14311   */\n      add\n        /* \"#utility.yul\":14285:14311   */\n      swap1\n      pop\n        /* \"#utility.yul\":14321:14392   */\n      tag_645\n        /* \"#utility.yul\":14389:14390   */\n      0x00\n        /* \"#utility.yul\":14378:14387   */\n      dup4\n        /* \"#utility.yul\":14374:14391   */\n      add\n        /* \"#utility.yul\":14365:14371   */\n      dup7\n        /* \"#utility.yul\":14321:14392   */\n      tag_405\n      jump\t// in\n    tag_645:\n        /* \"#utility.yul\":14402:14474   */\n      tag_646\n        /* \"#utility.yul\":14470:14472   */\n      0x20\n        /* \"#utility.yul\":14459:14468   */\n      dup4\n        /* \"#utility.yul\":14455:14473   */\n      add\n        /* \"#utility.yul\":14446:14452   */\n      dup6\n        /* \"#utility.yul\":14402:14474   */\n      tag_405\n      jump\t// in\n    tag_646:\n        /* \"#utility.yul\":14484:14556   */\n      tag_647\n        /* \"#utility.yul\":14552:14554   */\n      0x40\n        /* \"#utility.yul\":14541:14550   */\n      dup4\n        /* \"#utility.yul\":14537:14555   */\n      add\n        /* \"#utility.yul\":14528:14534   */\n      dup5\n        /* \"#utility.yul\":14484:14556   */\n      tag_405\n      jump\t// in\n    tag_647:\n        /* \"#utility.yul\":14121:14563   */\n      swap5\n      swap4\n      pop\n      pop\n      pop\n      pop\n      jump\t// out\n        /* \"#utility.yul\":14569:14735   */\n    tag_435:\n        /* \"#utility.yul\":14709:14727   */\n      0x496e76616c696420616d6f756e74496e00000000000000000000000000000000\n        /* \"#utility.yul\":14705:14706   */\n      0x00\n        /* \"#utility.yul\":14697:14703   */\n      dup3\n        /* \"#utility.yul\":14693:14707   */\n      add\n        /* \"#utility.yul\":14686:14728   */\n      mstore\n        /* \"#utility.yul\":14569:14735   */\n      pop\n      jump\t// out\n        /* \"#utility.yul\":14741:15107   */\n    tag_436:\n        /* \"#utility.yul\":14883:14886   */\n      0x00\n        /* \"#utility.yul\":14904:14971   */\n      tag_650\n        /* \"#utility.yul\":14968:14970   */\n      0x10\n        /* \"#utility.yul\":14963:14966   */\n      dup4\n        /* \"#utility.yul\":14904:14971   */\n      tag_407\n      jump\t// in\n    tag_650:\n        /* \"#utility.yul\":14897:14971   */\n      swap2\n      pop\n        /* \"#utility.yul\":14980:15073   */\n      tag_651\n        /* \"#utility.yul\":15069:15072   */\n      dup3\n        /* \"#utility.yul\":14980:15073   */\n      tag_435\n      jump\t// in\n    tag_651:\n        /* \"#utility.yul\":15098:15100   */\n      0x20\n        /* \"#utility.yul\":15093:15096   */\n      dup3\n        /* \"#utility.yul\":15089:15101   */\n      add\n        /* \"#utility.yul\":15082:15101   */\n      swap1\n      pop\n        /* \"#utility.yul\":14741:15107   */\n      swap2\n      swap1\n      pop\n      jump\t// out\n        /* \"#utility.yul\":15113:15532   */\n    tag_107:\n        /* \"#utility.yul\":15279:15283   */\n      0x00\n        /* \"#utility.yul\":15317:15319   */\n      0x20\n        /* \"#utility.yul\":15306:15315   */\n      dup3\n        /* \"#utility.yul\":15302:15320   */\n      add\n        /* \"#utility.yul\":15294:15320   */\n      swap1\n      pop\n        /* \"#utility.yul\":15366:15375   */\n      dup2\n        /* \"#utility.yul\":15360:15364   */\n      dup2\n        /* \"#utility.yul\":15356:15376   */\n      sub\n        /* \"#utility.yul\":15352:15353   */\n      0x00\n        /* \"#utility.yul\":15341:15350   */\n      dup4\n        /* \"#utility.yul\":15337:15354   */\n      add\n        /* \"#utility.yul\":15330:15377   */\n      mstore\n        /* \"#utility.yul\":15394:15525   */\n      tag_653\n        /* \"#utility.yul\":15520:15524   */\n      dup2\n        /* \"#utility.yul\":15394:15525   */\n      tag_436\n      jump\t// in\n    tag_653:\n        /* \"#utility.yul\":15386:15525   */\n      swap1\n      pop\n        /* \"#utility.yul\":15113:15532   */\n      swap2\n      swap1\n      pop\n      jump\t// out\n        /* \"#utility.yul\":15538:15705   */\n    tag_437:\n        /* \"#utility.yul\":15678:15697   */\n      0x496e76616c69642072657365727665496e000000000000000000000000000000\n        /* \"#utility.yul\":15674:15675   */\n      0x00\n        /* \"#utility.yul\":15666:15672   */\n      dup3\n        /* \"#utility.yul\":15662:15676   */\n      add\n        /* \"#utility.yul\":15655:15698   */\n      mstore\n        /* \"#utility.yul\":15538:15705   */\n      pop\n      jump\t// out\n        /* \"#utility.yul\":15711:16077   */\n    tag_438:\n        /* \"#utility.yul\":15853:15856   */\n      0x00\n        /* \"#utility.yul\":15874:15941   */\n      tag_656\n        /* \"#utility.yul\":15938:15940   */\n      0x11\n        /* \"#utility.yul\":15933:15936   */\n      dup4\n        /* \"#utility.yul\":15874:15941   */\n      tag_407\n      jump\t// in\n    tag_656:\n        /* \"#utility.yul\":15867:15941   */\n      swap2\n      pop\n        /* \"#utility.yul\":15950:16043   */\n      tag_657\n        /* \"#utility.yul\":16039:16042   */\n      dup3\n        /* \"#utility.yul\":15950:16043   */\n      tag_437\n      jump\t// in\n    tag_657:\n        /* \"#utility.yul\":16068:16070   */\n      0x20\n        /* \"#utility.yul\":16063:16066   */\n      dup3\n        /* \"#utility.yul\":16059:16071   */\n      add\n        /* \"#utility.yul\":16052:16071   */\n      swap1\n      pop\n        /* \"#utility.yul\":15711:16077   */\n      swap2\n      swap1\n      pop\n      jump\t// out\n        /* \"#utility.yul\":16083:16502   */\n    tag_110:\n        /* \"#utility.yul\":16249:16253   */\n      0x00\n        /* \"#utility.yul\":16287:16289   */\n      0x20\n        /* \"#utility.yul\":16276:16285   */\n      dup3\n        /* \"#utility.yul\":16272:16290   */\n      add\n        /* \"#utility.yul\":16264:16290   */\n      swap1\n      pop\n        /* \"#utility.yul\":16336:16345   */\n      dup2\n        /* \"#utility.yul\":16330:16334   */\n      dup2\n        /* \"#utility.yul\":16326:16346   */\n      sub\n        /* \"#utility.yul\":16322:16323   */\n      0x00\n        /* \"#utility.yul\":16311:16320   */\n      dup4\n        /* \"#utility.yul\":16307:16324   */\n      add\n        /* \"#utility.yul\":16300:16347   */\n      mstore\n        /* \"#utility.yul\":16364:16495   */\n      tag_659\n        /* \"#utility.yul\":16490:16494   */\n      dup2\n        /* \"#utility.yul\":16364:16495   */\n      tag_438\n      jump\t// in\n    tag_659:\n        /* \"#utility.yul\":16356:16495   */\n      swap1\n      pop\n        /* \"#utility.yul\":16083:16502   */\n      swap2\n      swap1\n      pop\n      jump\t// out\n        /* \"#utility.yul\":16508:16676   */\n    tag_439:\n        /* \"#utility.yul\":16648:16668   */\n      0x496e76616c696420726573657276654f75740000000000000000000000000000\n        /* \"#utility.yul\":16644:16645   */\n      0x00\n        /* \"#utility.yul\":16636:16642   */\n      dup3\n        /* \"#utility.yul\":16632:16646   */\n      add\n        /* \"#utility.yul\":16625:16669   */\n      mstore\n        /* \"#utility.yul\":16508:16676   */\n      pop\n      jump\t// out\n        /* \"#utility.yul\":16682:17048   */\n    tag_440:\n        /* \"#utility.yul\":16824:16827   */\n      0x00\n        /* \"#utility.yul\":16845:16912   */\n      tag_662\n        /* \"#utility.yul\":16909:16911   */\n      0x12\n        /* \"#utility.yul\":16904:16907   */\n      dup4\n        /* \"#utility.yul\":16845:16912   */\n      tag_407\n      jump\t// in\n    tag_662:\n        /* \"#utility.yul\":16838:16912   */\n      swap2\n      pop\n        /* \"#utility.yul\":16921:17014   */\n      tag_663\n        /* \"#utility.yul\":17010:17013   */\n      dup3\n        /* \"#utility.yul\":16921:17014   */\n      tag_439\n      jump\t// in\n    tag_663:\n        /* \"#utility.yul\":17039:17041   */\n      0x20\n        /* \"#utility.yul\":17034:17037   */\n      dup3\n        /* \"#utility.yul\":17030:17042   */\n      add\n        /* \"#utility.yul\":17023:17042   */\n      swap1\n      pop\n        /* \"#utility.yul\":16682:17048   */\n      swap2\n      swap1\n      pop\n      jump\t// out\n        /* \"#utility.yul\":17054:17473   */\n    tag_113:\n        /* \"#utility.yul\":17220:17224   */\n      0x00\n        /* \"#utility.yul\":17258:17260   */\n      0x20\n        /* \"#utility.yul\":17247:17256   */\n      dup3\n        /* \"#utility.yul\":17243:17261   */\n      add\n        /* \"#utility.yul\":17235:17261   */\n      swap1\n      pop\n        /* \"#utility.yul\":17307:17316   */\n      dup2\n        /* \"#utility.yul\":17301:17305   */\n      dup2\n        /* \"#utility.yul\":17297:17317   */\n      sub\n        /* \"#utility.yul\":17293:17294   */\n      0x00\n        /* \"#utility.yul\":17282:17291   */\n      dup4\n        /* \"#utility.yul\":17278:17295   */\n      add\n        /* \"#utility.yul\":17271:17318   */\n      mstore\n        /* \"#utility.yul\":17335:17466   */\n      tag_665\n        /* \"#utility.yul\":17461:17465   */\n      dup2\n        /* \"#utility.yul\":17335:17466   */\n      tag_440\n      jump\t// in\n    tag_665:\n        /* \"#utility.yul\":17327:17466   */\n      swap1\n      pop\n        /* \"#utility.yul\":17054:17473   */\n      swap2\n      swap1\n      pop\n      jump\t// out\n        /* \"#utility.yul\":17479:17659   */\n    tag_441:\n        /* \"#utility.yul\":17527:17604   */\n      0x4e487b7100000000000000000000000000000000000000000000000000000000\n        /* \"#utility.yul\":17524:17525   */\n      0x00\n        /* \"#utility.yul\":17517:17605   */\n      mstore\n        /* \"#utility.yul\":17624:17628   */\n      0x11\n        /* \"#utility.yul\":17621:17622   */\n      0x04\n        /* \"#utility.yul\":17614:17629   */\n      mstore\n        /* \"#utility.yul\":17648:17652   */\n      0x24\n        /* \"#utility.yul\":17645:17646   */\n      0x00\n        /* \"#utility.yul\":17638:17653   */\n      revert\n        /* \"#utility.yul\":17665:17856   */\n    tag_115:\n        /* \"#utility.yul\":17705:17708   */\n      0x00\n        /* \"#utility.yul\":17724:17744   */\n      tag_668\n        /* \"#utility.yul\":17742:17743   */\n      dup3\n        /* \"#utility.yul\":17724:17744   */\n      tag_402\n      jump\t// in\n    tag_668:\n        /* \"#utility.yul\":17719:17744   */\n      swap2\n      pop\n        /* \"#utility.yul\":17758:17778   */\n      tag_669\n        /* \"#utility.yul\":17776:17777   */\n      dup4\n        /* \"#utility.yul\":17758:17778   */\n      tag_402\n      jump\t// in\n    tag_669:\n        /* \"#utility.yul\":17753:17778   */\n      swap3\n      pop\n        /* \"#utility.yul\":17801:17802   */\n      dup3\n        /* \"#utility.yul\":17798:17799   */\n      dup3\n        /* \"#utility.yul\":17794:17803   */\n      add\n        /* \"#utility.yul\":17787:17803   */\n      swap1\n      pop\n        /* \"#utility.yul\":17822:17825   */\n      dup1\n        /* \"#utility.yul\":17819:17820   */\n      dup3\n        /* \"#utility.yul\":17816:17826   */\n      gt\n        /* \"#utility.yul\":17813:17849   */\n      iszero\n      tag_670\n      jumpi\n        /* \"#utility.yul\":17829:17847   */\n      tag_671\n      tag_441\n      jump\t// in\n    tag_671:\n        /* \"#utility.yul\":17813:17849   */\n    tag_670:\n        /* \"#utility.yul\":17665:17856   */\n      swap3\n      swap2\n      pop\n      pop\n      jump\t// out\n        /* \"#utility.yul\":17862:18272   */\n    tag_117:\n        /* \"#utility.yul\":17902:17909   */\n      0x00\n        /* \"#utility.yul\":17925:17945   */\n      tag_673\n        /* \"#utility.yul\":17943:17944   */\n      dup3\n        /* \"#utility.yul\":17925:17945   */\n      tag_402\n      jump\t// in\n    tag_673:\n        /* \"#utility.yul\":17920:17945   */\n      swap2\n      pop\n        /* \"#utility.yul\":17959:17979   */\n      tag_674\n        /* \"#utility.yul\":17977:17978   */\n      dup4\n        /* \"#utility.yul\":17959:17979   */\n      tag_402\n      jump\t// in\n    tag_674:\n        /* \"#utility.yul\":17954:17979   */\n      swap3\n      pop\n        /* \"#utility.yul\":18014:18015   */\n      dup3\n        /* \"#utility.yul\":18011:18012   */\n      dup3\n        /* \"#utility.yul\":18007:18016   */\n      mul\n        /* \"#utility.yul\":18036:18066   */\n      tag_675\n        /* \"#utility.yul\":18054:18065   */\n      dup2\n        /* \"#utility.yul\":18036:18066   */\n      tag_402\n      jump\t// in\n    tag_675:\n        /* \"#utility.yul\":18025:18066   */\n      swap2\n      pop\n        /* \"#utility.yul\":18215:18216   */\n      dup3\n        /* \"#utility.yul\":18206:18213   */\n      dup3\n        /* \"#utility.yul\":18202:18217   */\n      div\n        /* \"#utility.yul\":18199:18200   */\n      dup5\n        /* \"#utility.yul\":18196:18218   */\n      eq\n        /* \"#utility.yul\":18176:18177   */\n      dup4\n        /* \"#utility.yul\":18169:18178   */\n      iszero\n        /* \"#utility.yul\":18149:18232   */\n      or\n        /* \"#utility.yul\":18126:18265   */\n      tag_676\n      jumpi\n        /* \"#utility.yul\":18245:18263   */\n      tag_677\n      tag_441\n      jump\t// in\n    tag_677:\n        /* \"#utility.yul\":18126:18265   */\n    tag_676:\n        /* \"#utility.yul\":17910:18272   */\n      pop\n        /* \"#utility.yul\":17862:18272   */\n      swap3\n      swap2\n      pop\n      pop\n      jump\t// out\n        /* \"#utility.yul\":18278:18458   */\n    tag_442:\n        /* \"#utility.yul\":18326:18403   */\n      0x4e487b7100000000000000000000000000000000000000000000000000000000\n        /* \"#utility.yul\":18323:18324   */\n      0x00\n        /* \"#utility.yul\":18316:18404   */\n      mstore\n        /* \"#utility.yul\":18423:18427   */\n      0x12\n        /* \"#utility.yul\":18420:18421   */\n      0x04\n        /* \"#utility.yul\":18413:18428   */\n      mstore\n        /* \"#utility.yul\":18447:18451   */\n      0x24\n        /* \"#utility.yul\":18444:18445   */\n      0x00\n        /* \"#utility.yul\":18437:18452   */\n      revert\n        /* \"#utility.yul\":18464:18649   */\n    tag_119:\n        /* \"#utility.yul\":18504:18505   */\n      0x00\n        /* \"#utility.yul\":18521:18541   */\n      tag_680\n        /* \"#utility.yul\":18539:18540   */\n      dup3\n        /* \"#utility.yul\":18521:18541   */\n      tag_402\n      jump\t// in\n    tag_680:\n        /* \"#utility.yul\":18516:18541   */\n      swap2\n      pop\n        /* \"#utility.yul\":18555:18575   */\n      tag_681\n        /* \"#utility.yul\":18573:18574   */\n      dup4\n        /* \"#utility.yul\":18555:18575   */\n      tag_402\n      jump\t// in\n    tag_681:\n        /* \"#utility.yul\":18550:18575   */\n      swap3\n      pop\n        /* \"#utility.yul\":18594:18595   */\n      dup3\n        /* \"#utility.yul\":18584:18619   */\n      tag_682\n      jumpi\n        /* \"#utility.yul\":18599:18617   */\n      tag_683\n      tag_442\n      jump\t// in\n    tag_683:\n        /* \"#utility.yul\":18584:18619   */\n    tag_682:\n        /* \"#utility.yul\":18641:18642   */\n      dup3\n        /* \"#utility.yul\":18638:18639   */\n      dup3\n        /* \"#utility.yul\":18634:18643   */\n      div\n        /* \"#utility.yul\":18629:18643   */\n      swap1\n      pop\n        /* \"#utility.yul\":18464:18649   */\n      swap3\n      swap2\n      pop\n      pop\n      jump\t// out\n        /* \"#utility.yul\":18655:18835   */\n    tag_443:\n        /* \"#utility.yul\":18703:18780   */\n      0x4e487b7100000000000000000000000000000000000000000000000000000000\n        /* \"#utility.yul\":18700:18701   */\n      0x00\n        /* \"#utility.yul\":18693:18781   */\n      mstore\n        /* \"#utility.yul\":18800:18804   */\n      0x22\n        /* \"#utility.yul\":18797:18798   */\n      0x04\n        /* \"#utility.yul\":18790:18805   */\n      mstore\n        /* \"#utility.yul\":18824:18828   */\n      0x24\n        /* \"#utility.yul\":18821:18822   */\n      0x00\n        /* \"#utility.yul\":18814:18829   */\n      revert\n        /* \"#utility.yul\":18841:19161   */\n    tag_122:\n        /* \"#utility.yul\":18885:18891   */\n      0x00\n        /* \"#utility.yul\":18922:18923   */\n      0x02\n        /* \"#utility.yul\":18916:18920   */\n      dup3\n        /* \"#utility.yul\":18912:18924   */\n      div\n        /* \"#utility.yul\":18902:18924   */\n      swap1\n      pop\n        /* \"#utility.yul\":18969:18970   */\n      0x01\n        /* \"#utility.yul\":18963:18967   */\n      dup3\n        /* \"#utility.yul\":18959:18971   */\n      and\n        /* \"#utility.yul\":18990:19008   */\n      dup1\n        /* \"#utility.yul\":18980:19061   */\n      tag_686\n      jumpi\n        /* \"#utility.yul\":19046:19050   */\n      0x7f\n        /* \"#utility.yul\":19038:19044   */\n      dup3\n        /* \"#utility.yul\":19034:19051   */\n      and\n        /* \"#utility.yul\":19024:19051   */\n      swap2\n      pop\n        /* \"#utility.yul\":18980:19061   */\n    tag_686:\n        /* \"#utility.yul\":19108:19110   */\n      0x20\n        /* \"#utility.yul\":19100:19106   */\n      dup3\n        /* \"#utility.yul\":19097:19111   */\n      lt\n        /* \"#utility.yul\":19077:19095   */\n      dup2\n        /* \"#utility.yul\":19074:19112   */\n      sub\n        /* \"#utility.yul\":19071:19155   */\n      tag_687\n      jumpi\n        /* \"#utility.yul\":19127:19145   */\n      tag_688\n      tag_443\n      jump\t// in\n    tag_688:\n        /* \"#utility.yul\":19071:19155   */\n    tag_687:\n        /* \"#utility.yul\":18892:19161   */\n      pop\n        /* \"#utility.yul\":18841:19161   */\n      swap2\n      swap1\n      pop\n      jump\t// out\n        /* \"#utility.yul\":19167:19332   */\n    tag_444:\n        /* \"#utility.yul\":19307:19324   */\n      0x496e76616c696420616d6f756e74730000000000000000000000000000000000\n        /* \"#utility.yul\":19303:19304   */\n      0x00\n        /* \"#utility.yul\":19295:19301   */\n      dup3\n        /* \"#utility.yul\":19291:19305   */\n      add\n        /* \"#utility.yul\":19284:19325   */\n      mstore\n        /* \"#utility.yul\":19167:19332   */\n      pop\n      jump\t// out\n        /* \"#utility.yul\":19338:19704   */\n    tag_445:\n        /* \"#utility.yul\":19480:19483   */\n      0x00\n        /* \"#utility.yul\":19501:19568   */\n      tag_691\n        /* \"#utility.yul\":19565:19567   */\n      0x0f\n        /* \"#utility.yul\":19560:19563   */\n      dup4\n        /* \"#utility.yul\":19501:19568   */\n      tag_407\n      jump\t// in\n    tag_691:\n        /* \"#utility.yul\":19494:19568   */\n      swap2\n      pop\n        /* \"#utility.yul\":19577:19670   */\n      tag_692\n        /* \"#utility.yul\":19666:19669   */\n      dup3\n        /* \"#utility.yul\":19577:19670   */\n      tag_444\n      jump\t// in\n    tag_692:\n        /* \"#utility.yul\":19695:19697   */\n      0x20\n        /* \"#utility.yul\":19690:19693   */\n      dup3\n        /* \"#utility.yul\":19686:19698   */\n      add\n        /* \"#utility.yul\":19679:19698   */\n      swap1\n      pop\n        /* \"#utility.yul\":19338:19704   */\n      swap2\n      swap1\n      pop\n      jump\t// out\n        /* \"#utility.yul\":19710:20129   */\n    tag_144:\n        /* \"#utility.yul\":19876:19880   */\n      0x00\n        /* \"#utility.yul\":19914:19916   */\n      0x20\n        /* \"#utility.yul\":19903:19912   */\n      dup3\n        /* \"#utility.yul\":19899:19917   */\n      add\n        /* \"#utility.yul\":19891:19917   */\n      swap1\n      pop\n        /* \"#utility.yul\":19963:19972   */\n      dup2\n        /* \"#utility.yul\":19957:19961   */\n      dup2\n        /* \"#utility.yul\":19953:19973   */\n      sub\n        /* \"#utility.yul\":19949:19950   */\n      0x00\n        /* \"#utility.yul\":19938:19947   */\n      dup4\n        /* \"#utility.yul\":19934:19951   */\n      add\n        /* \"#utility.yul\":19927:19974   */\n      mstore\n        /* \"#utility.yul\":19991:20122   */\n      tag_694\n        /* \"#utility.yul\":20117:20121   */\n      dup2\n        /* \"#utility.yul\":19991:20122   */\n      tag_445\n      jump\t// in\n    tag_694:\n        /* \"#utility.yul\":19983:20122   */\n      swap1\n      pop\n        /* \"#utility.yul\":19710:20129   */\n      swap2\n      swap1\n      pop\n      jump\t// out\n        /* \"#utility.yul\":20135:20304   */\n    tag_446:\n        /* \"#utility.yul\":20275:20296   */\n      0x5472616e73616374696f6e206578706972656400000000000000000000000000\n        /* \"#utility.yul\":20271:20272   */\n      0x00\n        /* \"#utility.yul\":20263:20269   */\n      dup3\n        /* \"#utility.yul\":20259:20273   */\n      add\n        /* \"#utility.yul\":20252:20297   */\n      mstore\n        /* \"#utility.yul\":20135:20304   */\n      pop\n      jump\t// out\n        /* \"#utility.yul\":20310:20676   */\n    tag_447:\n        /* \"#utility.yul\":20452:20455   */\n      0x00\n        /* \"#utility.yul\":20473:20540   */\n      tag_697\n        /* \"#utility.yul\":20537:20539   */\n      0x13\n        /* \"#utility.yul\":20532:20535   */\n      dup4\n        /* \"#utility.yul\":20473:20540   */\n      tag_407\n      jump\t// in\n    tag_697:\n        /* \"#utility.yul\":20466:20540   */\n      swap2\n      pop\n        /* \"#utility.yul\":20549:20642   */\n      tag_698\n        /* \"#utility.yul\":20638:20641   */\n      dup3\n        /* \"#utility.yul\":20549:20642   */\n      tag_446\n      jump\t// in\n    tag_698:\n        /* \"#utility.yul\":20667:20669   */\n      0x20\n        /* \"#utility.yul\":20662:20665   */\n      dup3\n        /* \"#utility.yul\":20658:20670   */\n      add\n        /* \"#utility.yul\":20651:20670   */\n      swap1\n      pop\n        /* \"#utility.yul\":20310:20676   */\n      swap2\n      swap1\n      pop\n      jump\t// out\n        /* \"#utility.yul\":20682:21101   */\n    tag_147:\n        /* \"#utility.yul\":20848:20852   */\n      0x00\n        /* \"#utility.yul\":20886:20888   */\n      0x20\n        /* \"#utility.yul\":20875:20884   */\n      dup3\n        /* \"#utility.yul\":20871:20889   */\n      add\n        /* \"#utility.yul\":20863:20889   */\n      swap1\n      pop\n        /* \"#utility.yul\":20935:20944   */\n      dup2\n        /* \"#utility.yul\":20929:20933   */\n      dup2\n        /* \"#utility.yul\":20925:20945   */\n      sub\n        /* \"#utility.yul\":20921:20922   */\n      0x00\n        /* \"#utility.yul\":20910:20919   */\n      dup4\n        /* \"#utility.yul\":20906:20923   */\n      add\n        /* \"#utility.yul\":20899:20946   */\n      mstore\n        /* \"#utility.yul\":20963:21094   */\n      tag_700\n        /* \"#utility.yul\":21089:21093   */\n      dup2\n        /* \"#utility.yul\":20963:21094   */\n      tag_447\n      jump\t// in\n    tag_700:\n        /* \"#utility.yul\":20955:21094   */\n      swap1\n      pop\n        /* \"#utility.yul\":20682:21101   */\n      swap2\n      swap1\n      pop\n      jump\t// out\n        /* \"#utility.yul\":21107:21277   */\n    tag_448:\n        /* \"#utility.yul\":21247:21269   */\n      0x496e76616c696420746f6b656e7320636f756e74000000000000000000000000\n        /* \"#utility.yul\":21243:21244   */\n      0x00\n        /* \"#utility.yul\":21235:21241   */\n      dup3\n        /* \"#utility.yul\":21231:21245   */\n      add\n        /* \"#utility.yul\":21224:21270   */\n      mstore\n        /* \"#utility.yul\":21107:21277   */\n      pop\n      jump\t// out\n        /* \"#utility.yul\":21283:21649   */\n    tag_449:\n        /* \"#utility.yul\":21425:21428   */\n      0x00\n        /* \"#utility.yul\":21446:21513   */\n      tag_703\n        /* \"#utility.yul\":21510:21512   */\n      0x14\n        /* \"#utility.yul\":21505:21508   */\n      dup4\n        /* \"#utility.yul\":21446:21513   */\n      tag_407\n      jump\t// in\n    tag_703:\n        /* \"#utility.yul\":21439:21513   */\n      swap2\n      pop\n        /* \"#utility.yul\":21522:21615   */\n      tag_704\n        /* \"#utility.yul\":21611:21614   */\n      dup3\n        /* \"#utility.yul\":21522:21615   */\n      tag_448\n      jump\t// in\n    tag_704:\n        /* \"#utility.yul\":21640:21642   */\n      0x20\n        /* \"#utility.yul\":21635:21638   */\n      dup3\n        /* \"#utility.yul\":21631:21643   */\n      add\n        /* \"#utility.yul\":21624:21643   */\n      swap1\n      pop\n        /* \"#utility.yul\":21283:21649   */\n      swap2\n      swap1\n      pop\n      jump\t// out\n        /* \"#utility.yul\":21655:22074   */\n    tag_150:\n        /* \"#utility.yul\":21821:21825   */\n      0x00\n        /* \"#utility.yul\":21859:21861   */\n      0x20\n        /* \"#utility.yul\":21848:21857   */\n      dup3\n        /* \"#utility.yul\":21844:21862   */\n      add\n        /* \"#utility.yul\":21836:21862   */\n      swap1\n      pop\n        /* \"#utility.yul\":21908:21917   */\n      dup2\n        /* \"#utility.yul\":21902:21906   */\n      dup2\n        /* \"#utility.yul\":21898:21918   */\n      sub\n        /* \"#utility.yul\":21894:21895   */\n      0x00\n        /* \"#utility.yul\":21883:21892   */\n      dup4\n        /* \"#utility.yul\":21879:21896   */\n      add\n        /* \"#utility.yul\":21872:21919   */\n      mstore\n        /* \"#utility.yul\":21936:22067   */\n      tag_706\n        /* \"#utility.yul\":22062:22066   */\n      dup2\n        /* \"#utility.yul\":21936:22067   */\n      tag_449\n      jump\t// in\n    tag_706:\n        /* \"#utility.yul\":21928:22067   */\n      swap1\n      pop\n        /* \"#utility.yul\":21655:22074   */\n      swap2\n      swap1\n      pop\n      jump\t// out\n        /* \"#utility.yul\":22080:22260   */\n    tag_153:\n        /* \"#utility.yul\":22128:22205   */\n      0x4e487b7100000000000000000000000000000000000000000000000000000000\n        /* \"#utility.yul\":22125:22126   */\n      0x00\n        /* \"#utility.yul\":22118:22206   */\n      mstore\n        /* \"#utility.yul\":22225:22229   */\n      0x32\n        /* \"#utility.yul\":22222:22223   */\n      0x04\n        /* \"#utility.yul\":22215:22230   */\n      mstore\n        /* \"#utility.yul\":22249:22253   */\n      0x24\n        /* \"#utility.yul\":22246:22247   */\n      0x00\n        /* \"#utility.yul\":22239:22254   */\n      revert\n        /* \"#utility.yul\":22266:22430   */\n    tag_450:\n        /* \"#utility.yul\":22406:22422   */\n      0x496e76616c696420746f6b656e73000000000000000000000000000000000000\n        /* \"#utility.yul\":22402:22403   */\n      0x00\n        /* \"#utility.yul\":22394:22400   */\n      dup3\n        /* \"#utility.yul\":22390:22404   */\n      add\n        /* \"#utility.yul\":22383:22423   */\n      mstore\n        /* \"#utility.yul\":22266:22430   */\n      pop\n      jump\t// out\n        /* \"#utility.yul\":22436:22802   */\n    tag_451:\n        /* \"#utility.yul\":22578:22581   */\n      0x00\n        /* \"#utility.yul\":22599:22666   */\n      tag_710\n        /* \"#utility.yul\":22663:22665   */\n      0x0e\n        /* \"#utility.yul\":22658:22661   */\n      dup4\n        /* \"#utility.yul\":22599:22666   */\n      tag_407\n      jump\t// in\n    tag_710:\n        /* \"#utility.yul\":22592:22666   */\n      swap2\n      pop\n        /* \"#utility.yul\":22675:22768   */\n      tag_711\n        /* \"#utility.yul\":22764:22767   */\n      dup3\n        /* \"#utility.yul\":22675:22768   */\n      tag_450\n      jump\t// in\n    tag_711:\n        /* \"#utility.yul\":22793:22795   */\n      0x20\n        /* \"#utility.yul\":22788:22791   */\n      dup3\n        /* \"#utility.yul\":22784:22796   */\n      add\n        /* \"#utility.yul\":22777:22796   */\n      swap1\n      pop\n        /* \"#utility.yul\":22436:22802   */\n      swap2\n      swap1\n      pop\n      jump\t// out\n        /* \"#utility.yul\":22808:23227   */\n    tag_161:\n        /* \"#utility.yul\":22974:22978   */\n      0x00\n        /* \"#utility.yul\":23012:23014   */\n      0x20\n        /* \"#utility.yul\":23001:23010   */\n      dup3\n        /* \"#utility.yul\":22997:23015   */\n      add\n        /* \"#utility.yul\":22989:23015   */\n      swap1\n      pop\n        /* \"#utility.yul\":23061:23070   */\n      dup2\n        /* \"#utility.yul\":23055:23059   */\n      dup2\n        /* \"#utility.yul\":23051:23071   */\n      sub\n        /* \"#utility.yul\":23047:23048   */\n      0x00\n        /* \"#utility.yul\":23036:23045   */\n      dup4\n        /* \"#utility.yul\":23032:23049   */\n      add\n        /* \"#utility.yul\":23025:23072   */\n      mstore\n        /* \"#utility.yul\":23089:23220   */\n      tag_713\n        /* \"#utility.yul\":23215:23219   */\n      dup2\n        /* \"#utility.yul\":23089:23220   */\n      tag_451\n      jump\t// in\n    tag_713:\n        /* \"#utility.yul\":23081:23220   */\n      swap1\n      pop\n        /* \"#utility.yul\":22808:23227   */\n      swap2\n      swap1\n      pop\n      jump\t// out\n        /* \"#utility.yul\":23233:23351   */\n    tag_452:\n        /* \"#utility.yul\":23320:23344   */\n      tag_715\n        /* \"#utility.yul\":23338:23343   */\n      dup2\n        /* \"#utility.yul\":23320:23344   */\n      tag_412\n      jump\t// in\n    tag_715:\n        /* \"#utility.yul\":23315:23318   */\n      dup3\n        /* \"#utility.yul\":23308:23345   */\n      mstore\n        /* \"#utility.yul\":23233:23351   */\n      pop\n      pop\n      jump\t// out\n        /* \"#utility.yul\":23357:23799   */\n    tag_163:\n        /* \"#utility.yul\":23506:23510   */\n      0x00\n        /* \"#utility.yul\":23544:23546   */\n      0x60\n        /* \"#utility.yul\":23533:23542   */\n      dup3\n        /* \"#utility.yul\":23529:23547   */\n      add\n        /* \"#utility.yul\":23521:23547   */\n      swap1\n      pop\n        /* \"#utility.yul\":23557:23628   */\n      tag_717\n        /* \"#utility.yul\":23625:23626   */\n      0x00\n        /* \"#utility.yul\":23614:23623   */\n      dup4\n        /* \"#utility.yul\":23610:23627   */\n      add\n        /* \"#utility.yul\":23601:23607   */\n      dup7\n        /* \"#utility.yul\":23557:23628   */\n      tag_452\n      jump\t// in\n    tag_717:\n        /* \"#utility.yul\":23638:23710   */\n      tag_718\n        /* \"#utility.yul\":23706:23708   */\n      0x20\n        /* \"#utility.yul\":23695:23704   */\n      dup4\n        /* \"#utility.yul\":23691:23709   */\n      add\n        /* \"#utility.yul\":23682:23688   */\n      dup6\n        /* \"#utility.yul\":23638:23710   */\n      tag_452\n      jump\t// in\n    tag_718:\n        /* \"#utility.yul\":23720:23792   */\n      tag_719\n        /* \"#utility.yul\":23788:23790   */\n      0x40\n        /* \"#utility.yul\":23777:23786   */\n      dup4\n        /* \"#utility.yul\":23773:23791   */\n      add\n        /* \"#utility.yul\":23764:23770   */\n      dup5\n        /* \"#utility.yul\":23720:23792   */\n      tag_405\n      jump\t// in\n    tag_719:\n        /* \"#utility.yul\":23357:23799   */\n      swap5\n      swap4\n      pop\n      pop\n      pop\n      pop\n      jump\t// out\n        /* \"#utility.yul\":23805:23921   */\n    tag_453:\n        /* \"#utility.yul\":23875:23896   */\n      tag_721\n        /* \"#utility.yul\":23890:23895   */\n      dup2\n        /* \"#utility.yul\":23875:23896   */\n      tag_415\n      jump\t// in\n    tag_721:\n        /* \"#utility.yul\":23868:23873   */\n      dup2\n        /* \"#utility.yul\":23865:23897   */\n      eq\n        /* \"#utility.yul\":23855:23915   */\n      tag_722\n      jumpi\n        /* \"#utility.yul\":23911:23912   */\n      0x00\n        /* \"#utility.yul\":23908:23909   */\n      0x00\n        /* \"#utility.yul\":23901:23913   */\n      revert\n        /* \"#utility.yul\":23855:23915   */\n    tag_722:\n        /* \"#utility.yul\":23805:23921   */\n      pop\n      jump\t// out\n        /* \"#utility.yul\":23927:24064   */\n    tag_454:\n        /* \"#utility.yul\":23981:23986   */\n      0x00\n        /* \"#utility.yul\":24012:24018   */\n      dup2\n        /* \"#utility.yul\":24006:24019   */\n      mload\n        /* \"#utility.yul\":23997:24019   */\n      swap1\n      pop\n        /* \"#utility.yul\":24028:24058   */\n      tag_724\n        /* \"#utility.yul\":24052:24057   */\n      dup2\n        /* \"#utility.yul\":24028:24058   */\n      tag_453\n      jump\t// in\n    tag_724:\n        /* \"#utility.yul\":23927:24064   */\n      swap3\n      swap2\n      pop\n      pop\n      jump\t// out\n        /* \"#utility.yul\":24070:24415   */\n    tag_167:\n        /* \"#utility.yul\":24137:24143   */\n      0x00\n        /* \"#utility.yul\":24186:24188   */\n      0x20\n        /* \"#utility.yul\":24174:24183   */\n      dup3\n        /* \"#utility.yul\":24165:24172   */\n      dup5\n        /* \"#utility.yul\":24161:24184   */\n      sub\n        /* \"#utility.yul\":24157:24189   */\n      slt\n        /* \"#utility.yul\":24154:24273   */\n      iszero\n      tag_726\n      jumpi\n        /* \"#utility.yul\":24192:24271   */\n      tag_727\n      tag_400\n      jump\t// in\n    tag_727:\n        /* \"#utility.yul\":24154:24273   */\n    tag_726:\n        /* \"#utility.yul\":24312:24313   */\n      0x00\n        /* \"#utility.yul\":24337:24398   */\n      tag_728\n        /* \"#utility.yul\":24390:24397   */\n      dup5\n        /* \"#utility.yul\":24381:24387   */\n      dup3\n        /* \"#utility.yul\":24370:24379   */\n      dup6\n        /* \"#utility.yul\":24366:24388   */\n      add\n        /* \"#utility.yul\":24337:24398   */\n      tag_454\n      jump\t// in\n    tag_728:\n        /* \"#utility.yul\":24327:24398   */\n      swap2\n      pop\n        /* \"#utility.yul\":24283:24408   */\n      pop\n        /* \"#utility.yul\":24070:24415   */\n      swap3\n      swap2\n      pop\n      pop\n      jump\t// out\n        /* \"#utility.yul\":24421:24586   */\n    tag_455:\n        /* \"#utility.yul\":24561:24578   */\n      0x5472616e73666572206661696c65640000000000000000000000000000000000\n        /* \"#utility.yul\":24557:24558   */\n      0x00\n        /* \"#utility.yul\":24549:24555   */\n      dup3\n        /* \"#utility.yul\":24545:24559   */\n      add\n        /* \"#utility.yul\":24538:24579   */\n      mstore\n        /* \"#utility.yul\":24421:24586   */\n      pop\n      jump\t// out\n        /* \"#utility.yul\":24592:24958   */\n    tag_456:\n        /* \"#utility.yul\":24734:24737   */\n      0x00\n        /* \"#utility.yul\":24755:24822   */\n      tag_731\n        /* \"#utility.yul\":24819:24821   */\n      0x0f\n        /* \"#utility.yul\":24814:24817   */\n      dup4\n        /* \"#utility.yul\":24755:24822   */\n      tag_407\n      jump\t// in\n    tag_731:\n        /* \"#utility.yul\":24748:24822   */\n      swap2\n      pop\n        /* \"#utility.yul\":24831:24924   */\n      tag_732\n        /* \"#utility.yul\":24920:24923   */\n      dup3\n        /* \"#utility.yul\":24831:24924   */\n      tag_455\n      jump\t// in\n    tag_732:\n        /* \"#utility.yul\":24949:24951   */\n      0x20\n        /* \"#utility.yul\":24944:24947   */\n      dup3\n        /* \"#utility.yul\":24940:24952   */\n      add\n        /* \"#utility.yul\":24933:24952   */\n      swap1\n      pop\n        /* \"#utility.yul\":24592:24958   */\n      swap2\n      swap1\n      pop\n      jump\t// out\n        /* \"#utility.yul\":24964:25383   */\n    tag_170:\n        /* \"#utility.yul\":25130:25134   */\n      0x00\n        /* \"#utility.yul\":25168:25170   */\n      0x20\n        /* \"#utility.yul\":25157:25166   */\n      dup3\n        /* \"#utility.yul\":25153:25171   */\n      add\n        /* \"#utility.yul\":25145:25171   */\n      swap1\n      pop\n        /* \"#utility.yul\":25217:25226   */\n      dup2\n        /* \"#utility.yul\":25211:25215   */\n      dup2\n        /* \"#utility.yul\":25207:25227   */\n      sub\n        /* \"#utility.yul\":25203:25204   */\n      0x00\n        /* \"#utility.yul\":25192:25201   */\n      dup4\n        /* \"#utility.yul\":25188:25205   */\n      add\n        /* \"#utility.yul\":25181:25228   */\n      mstore\n        /* \"#utility.yul\":25245:25376   */\n      tag_734\n        /* \"#utility.yul\":25371:25375   */\n      dup2\n        /* \"#utility.yul\":25245:25376   */\n      tag_456\n      jump\t// in\n    tag_734:\n        /* \"#utility.yul\":25237:25376   */\n      swap1\n      pop\n        /* \"#utility.yul\":24964:25383   */\n      swap2\n      swap1\n      pop\n      jump\t// out\n        /* \"#utility.yul\":25389:25565   */\n    tag_457:\n        /* \"#utility.yul\":25529:25557   */\n      0x496e73756666696369656e74206f757470757420616d6f756e74000000000000\n        /* \"#utility.yul\":25525:25526   */\n      0x00\n        /* \"#utility.yul\":25517:25523   */\n      dup3\n        /* \"#utility.yul\":25513:25527   */\n      add\n        /* \"#utility.yul\":25506:25558   */\n      mstore\n        /* \"#utility.yul\":25389:25565   */\n      pop\n      jump\t// out\n        /* \"#utility.yul\":25571:25937   */\n    tag_458:\n        /* \"#utility.yul\":25713:25716   */\n      0x00\n        /* \"#utility.yul\":25734:25801   */\n      tag_737\n        /* \"#utility.yul\":25798:25800   */\n      0x1a\n        /* \"#utility.yul\":25793:25796   */\n      dup4\n        /* \"#utility.yul\":25734:25801   */\n      tag_407\n      jump\t// in\n    tag_737:\n        /* \"#utility.yul\":25727:25801   */\n      swap2\n      pop\n        /* \"#utility.yul\":25810:25903   */\n      tag_738\n        /* \"#utility.yul\":25899:25902   */\n      dup3\n        /* \"#utility.yul\":25810:25903   */\n      tag_457\n      jump\t// in\n    tag_738:\n        /* \"#utility.yul\":25928:25930   */\n      0x20\n        /* \"#utility.yul\":25923:25926   */\n      dup3\n        /* \"#utility.yul\":25919:25931   */\n      add\n        /* \"#utility.yul\":25912:25931   */\n      swap1\n      pop\n        /* \"#utility.yul\":25571:25937   */\n      swap2\n      swap1\n      pop\n      jump\t// out\n        /* \"#utility.yul\":25943:26362   */\n    tag_176:\n        /* \"#utility.yul\":26109:26113   */\n      0x00\n        /* \"#utility.yul\":26147:26149   */\n      0x20\n        /* \"#utility.yul\":26136:26145   */\n      dup3\n        /* \"#utility.yul\":26132:26150   */\n      add\n        /* \"#utility.yul\":26124:26150   */\n      swap1\n      pop\n        /* \"#utility.yul\":26196:26205   */\n      dup2\n        /* \"#utility.yul\":26190:26194   */\n      dup2\n        /* \"#utility.yul\":26186:26206   */\n      sub\n        /* \"#utility.yul\":26182:26183   */\n      0x00\n        /* \"#utility.yul\":26171:26180   */\n      dup4\n        /* \"#utility.yul\":26167:26184   */\n      add\n        /* \"#utility.yul\":26160:26207   */\n      mstore\n        /* \"#utility.yul\":26224:26355   */\n      tag_740\n        /* \"#utility.yul\":26350:26354   */\n      dup2\n        /* \"#utility.yul\":26224:26355   */\n      tag_458\n      jump\t// in\n    tag_740:\n        /* \"#utility.yul\":26216:26355   */\n      swap1\n      pop\n        /* \"#utility.yul\":25943:26362   */\n      swap2\n      swap1\n      pop\n      jump\t// out\n        /* \"#utility.yul\":26368:26700   */\n    tag_178:\n        /* \"#utility.yul\":26489:26493   */\n      0x00\n        /* \"#utility.yul\":26527:26529   */\n      0x40\n        /* \"#utility.yul\":26516:26525   */\n      dup3\n        /* \"#utility.yul\":26512:26530   */\n      add\n        /* \"#utility.yul\":26504:26530   */\n      swap1\n      pop\n        /* \"#utility.yul\":26540:26611   */\n      tag_742\n        /* \"#utility.yul\":26608:26609   */\n      0x00\n        /* \"#utility.yul\":26597:26606   */\n      dup4\n        /* \"#utility.yul\":26593:26610   */\n      add\n        /* \"#utility.yul\":26584:26590   */\n      dup6\n        /* \"#utility.yul\":26540:26611   */\n      tag_452\n      jump\t// in\n    tag_742:\n        /* \"#utility.yul\":26621:26693   */\n      tag_743\n        /* \"#utility.yul\":26689:26691   */\n      0x20\n        /* \"#utility.yul\":26678:26687   */\n      dup4\n        /* \"#utility.yul\":26674:26692   */\n      add\n        /* \"#utility.yul\":26665:26671   */\n      dup5\n        /* \"#utility.yul\":26621:26693   */\n      tag_405\n      jump\t// in\n    tag_743:\n        /* \"#utility.yul\":26368:26700   */\n      swap4\n      swap3\n      pop\n      pop\n      pop\n      jump\t// out\n        /* \"#utility.yul\":26706:26900   */\n    tag_186:\n        /* \"#utility.yul\":26746:26750   */\n      0x00\n        /* \"#utility.yul\":26766:26786   */\n      tag_745\n        /* \"#utility.yul\":26784:26785   */\n      dup3\n        /* \"#utility.yul\":26766:26786   */\n      tag_402\n      jump\t// in\n    tag_745:\n        /* \"#utility.yul\":26761:26786   */\n      swap2\n      pop\n        /* \"#utility.yul\":26800:26820   */\n      tag_746\n        /* \"#utility.yul\":26818:26819   */\n      dup4\n        /* \"#utility.yul\":26800:26820   */\n      tag_402\n      jump\t// in\n    tag_746:\n        /* \"#utility.yul\":26795:26820   */\n      swap3\n      pop\n        /* \"#utility.yul\":26844:26845   */\n      dup3\n        /* \"#utility.yul\":26841:26842   */\n      dup3\n        /* \"#utility.yul\":26837:26846   */\n      sub\n        /* \"#utility.yul\":26829:26846   */\n      swap1\n      pop\n        /* \"#utility.yul\":26868:26869   */\n      dup2\n        /* \"#utility.yul\":26862:26866   */\n      dup2\n        /* \"#utility.yul\":26859:26870   */\n      gt\n        /* \"#utility.yul\":26856:26893   */\n      iszero\n      tag_747\n      jumpi\n        /* \"#utility.yul\":26873:26891   */\n      tag_748\n      tag_441\n      jump\t// in\n    tag_748:\n        /* \"#utility.yul\":26856:26893   */\n    tag_747:\n        /* \"#utility.yul\":26706:26900   */\n      swap3\n      swap2\n      pop\n      pop\n      jump\t// out\n        /* \"#utility.yul\":26906:27086   */\n    tag_189:\n        /* \"#utility.yul\":26954:27031   */\n      0x4e487b7100000000000000000000000000000000000000000000000000000000\n        /* \"#utility.yul\":26951:26952   */\n      0x00\n        /* \"#utility.yul\":26944:27032   */\n      mstore\n        /* \"#utility.yul\":27051:27055   */\n      0x41\n        /* \"#utility.yul\":27048:27049   */\n      0x04\n        /* \"#utility.yul\":27041:27056   */\n      mstore\n        /* \"#utility.yul\":27075:27079   */\n      0x24\n        /* \"#utility.yul\":27072:27073   */\n      0x00\n        /* \"#utility.yul\":27065:27080   */\n      revert\n        /* \"#utility.yul\":27092:27258   */\n    tag_459:\n        /* \"#utility.yul\":27232:27250   */\n      0x496e76616c696420726573657276614100000000000000000000000000000000\n        /* \"#utility.yul\":27228:27229   */\n      0x00\n        /* \"#utility.yul\":27220:27226   */\n      dup3\n        /* \"#utility.yul\":27216:27230   */\n      add\n        /* \"#utility.yul\":27209:27251   */\n      mstore\n        /* \"#utility.yul\":27092:27258   */\n      pop\n      jump\t// out\n        /* \"#utility.yul\":27264:27630   */\n    tag_460:\n        /* \"#utility.yul\":27406:27409   */\n      0x00\n        /* \"#utility.yul\":27427:27494   */\n      tag_752\n        /* \"#utility.yul\":27491:27493   */\n      0x10\n        /* \"#utility.yul\":27486:27489   */\n      dup4\n        /* \"#utility.yul\":27427:27494   */\n      tag_407\n      jump\t// in\n    tag_752:\n        /* \"#utility.yul\":27420:27494   */\n      swap2\n      pop\n        /* \"#utility.yul\":27503:27596   */\n      tag_753\n        /* \"#utility.yul\":27592:27595   */\n      dup3\n        /* \"#utility.yul\":27503:27596   */\n      tag_459\n      jump\t// in\n    tag_753:\n        /* \"#utility.yul\":27621:27623   */\n      0x20\n        /* \"#utility.yul\":27616:27619   */\n      dup3\n        /* \"#utility.yul\":27612:27624   */\n      add\n        /* \"#utility.yul\":27605:27624   */\n      swap1\n      pop\n        /* \"#utility.yul\":27264:27630   */\n      swap2\n      swap1\n      pop\n      jump\t// out\n        /* \"#utility.yul\":27636:28055   */\n    tag_218:\n        /* \"#utility.yul\":27802:27806   */\n      0x00\n        /* \"#utility.yul\":27840:27842   */\n      0x20\n        /* \"#utility.yul\":27829:27838   */\n      dup3\n        /* \"#utility.yul\":27825:27843   */\n      add\n        /* \"#utility.yul\":27817:27843   */\n      swap1\n      pop\n        /* \"#utility.yul\":27889:27898   */\n      dup2\n        /* \"#utility.yul\":27883:27887   */\n      dup2\n        /* \"#utility.yul\":27879:27899   */\n      sub\n        /* \"#utility.yul\":27875:27876   */\n      0x00\n        /* \"#utility.yul\":27864:27873   */\n      dup4\n        /* \"#utility.yul\":27860:27877   */\n      add\n        /* \"#utility.yul\":27853:27900   */\n      mstore\n        /* \"#utility.yul\":27917:28048   */\n      tag_755\n        /* \"#utility.yul\":28043:28047   */\n      dup2\n        /* \"#utility.yul\":27917:28048   */\n      tag_460\n      jump\t// in\n    tag_755:\n        /* \"#utility.yul\":27909:28048   */\n      swap1\n      pop\n        /* \"#utility.yul\":27636:28055   */\n      swap2\n      swap1\n      pop\n      jump\t// out\n        /* \"#utility.yul\":28061:28227   */\n    tag_461:\n        /* \"#utility.yul\":28201:28219   */\n      0x496e76616c696420726573657276614200000000000000000000000000000000\n        /* \"#utility.yul\":28197:28198   */\n      0x00\n        /* \"#utility.yul\":28189:28195   */\n      dup3\n        /* \"#utility.yul\":28185:28199   */\n      add\n        /* \"#utility.yul\":28178:28220   */\n      mstore\n        /* \"#utility.yul\":28061:28227   */\n      pop\n      jump\t// out\n        /* \"#utility.yul\":28233:28599   */\n    tag_462:\n        /* \"#utility.yul\":28375:28378   */\n      0x00\n        /* \"#utility.yul\":28396:28463   */\n      tag_758\n        /* \"#utility.yul\":28460:28462   */\n      0x10\n        /* \"#utility.yul\":28455:28458   */\n      dup4\n        /* \"#utility.yul\":28396:28463   */\n      tag_407\n      jump\t// in\n    tag_758:\n        /* \"#utility.yul\":28389:28463   */\n      swap2\n      pop\n        /* \"#utility.yul\":28472:28565   */\n      tag_759\n        /* \"#utility.yul\":28561:28564   */\n      dup3\n        /* \"#utility.yul\":28472:28565   */\n      tag_461\n      jump\t// in\n    tag_759:\n        /* \"#utility.yul\":28590:28592   */\n      0x20\n        /* \"#utility.yul\":28585:28588   */\n      dup3\n        /* \"#utility.yul\":28581:28593   */\n      add\n        /* \"#utility.yul\":28574:28593   */\n      swap1\n      pop\n        /* \"#utility.yul\":28233:28599   */\n      swap2\n      swap1\n      pop\n      jump\t// out\n        /* \"#utility.yul\":28605:29024   */\n    tag_221:\n        /* \"#utility.yul\":28771:28775   */\n      0x00\n        /* \"#utility.yul\":28809:28811   */\n      0x20\n        /* \"#utility.yul\":28798:28807   */\n      dup3\n        /* \"#utility.yul\":28794:28812   */\n      add\n        /* \"#utility.yul\":28786:28812   */\n      swap1\n      pop\n        /* \"#utility.yul\":28858:28867   */\n      dup2\n        /* \"#utility.yul\":28852:28856   */\n      dup2\n        /* \"#utility.yul\":28848:28868   */\n      sub\n        /* \"#utility.yul\":28844:28845   */\n      0x00\n        /* \"#utility.yul\":28833:28842   */\n      dup4\n        /* \"#utility.yul\":28829:28846   */\n      add\n        /* \"#utility.yul\":28822:28869   */\n      mstore\n        /* \"#utility.yul\":28886:29017   */\n      tag_761\n        /* \"#utility.yul\":29012:29016   */\n      dup2\n        /* \"#utility.yul\":28886:29017   */\n      tag_462\n      jump\t// in\n    tag_761:\n        /* \"#utility.yul\":28878:29017   */\n      swap1\n      pop\n        /* \"#utility.yul\":28605:29024   */\n      swap2\n      swap1\n      pop\n      jump\t// out\n        /* \"#utility.yul\":29030:29197   */\n    tag_463:\n        /* \"#utility.yul\":29170:29189   */\n      0x496e76616c6964206c6971756964697479000000000000000000000000000000\n        /* \"#utility.yul\":29166:29167   */\n      0x00\n        /* \"#utility.yul\":29158:29164   */\n      dup3\n        /* \"#utility.yul\":29154:29168   */\n      add\n        /* \"#utility.yul\":29147:29190   */\n      mstore\n        /* \"#utility.yul\":29030:29197   */\n      pop\n      jump\t// out\n        /* \"#utility.yul\":29203:29569   */\n    tag_464:\n        /* \"#utility.yul\":29345:29348   */\n      0x00\n        /* \"#utility.yul\":29366:29433   */\n      tag_764\n        /* \"#utility.yul\":29430:29432   */\n      0x11\n        /* \"#utility.yul\":29425:29428   */\n      dup4\n        /* \"#utility.yul\":29366:29433   */\n      tag_407\n      jump\t// in\n    tag_764:\n        /* \"#utility.yul\":29359:29433   */\n      swap2\n      pop\n        /* \"#utility.yul\":29442:29535   */\n      tag_765\n        /* \"#utility.yul\":29531:29534   */\n      dup3\n        /* \"#utility.yul\":29442:29535   */\n      tag_463\n      jump\t// in\n    tag_765:\n        /* \"#utility.yul\":29560:29562   */\n      0x20\n        /* \"#utility.yul\":29555:29558   */\n      dup3\n        /* \"#utility.yul\":29551:29563   */\n      add\n        /* \"#utility.yul\":29544:29563   */\n      swap1\n      pop\n        /* \"#utility.yul\":29203:29569   */\n      swap2\n      swap1\n      pop\n      jump\t// out\n        /* \"#utility.yul\":29575:29994   */\n    tag_232:\n        /* \"#utility.yul\":29741:29745   */\n      0x00\n        /* \"#utility.yul\":29779:29781   */\n      0x20\n        /* \"#utility.yul\":29768:29777   */\n      dup3\n        /* \"#utility.yul\":29764:29782   */\n      add\n        /* \"#utility.yul\":29756:29782   */\n      swap1\n      pop\n        /* \"#utility.yul\":29828:29837   */\n      dup2\n        /* \"#utility.yul\":29822:29826   */\n      dup2\n        /* \"#utility.yul\":29818:29838   */\n      sub\n        /* \"#utility.yul\":29814:29815   */\n      0x00\n        /* \"#utility.yul\":29803:29812   */\n      dup4\n        /* \"#utility.yul\":29799:29816   */\n      add\n        /* \"#utility.yul\":29792:29839   */\n      mstore\n        /* \"#utility.yul\":29856:29987   */\n      tag_767\n        /* \"#utility.yul\":29982:29986   */\n      dup2\n        /* \"#utility.yul\":29856:29987   */\n      tag_464\n      jump\t// in\n    tag_767:\n        /* \"#utility.yul\":29848:29987   */\n      swap1\n      pop\n        /* \"#utility.yul\":29575:29994   */\n      swap2\n      swap1\n      pop\n      jump\t// out\n        /* \"#utility.yul\":30000:30168   */\n    tag_465:\n        /* \"#utility.yul\":30140:30160   */\n      0x496e76616c696420616d6f756e74424d696e0000000000000000000000000000\n        /* \"#utility.yul\":30136:30137   */\n      0x00\n        /* \"#utility.yul\":30128:30134   */\n      dup3\n        /* \"#utility.yul\":30124:30138   */\n      add\n        /* \"#utility.yul\":30117:30161   */\n      mstore\n        /* \"#utility.yul\":30000:30168   */\n      pop\n      jump\t// out\n        /* \"#utility.yul\":30174:30540   */\n    tag_466:\n        /* \"#utility.yul\":30316:30319   */\n      0x00\n        /* \"#utility.yul\":30337:30404   */\n      tag_770\n        /* \"#utility.yul\":30401:30403   */\n      0x12\n        /* \"#utility.yul\":30396:30399   */\n      dup4\n        /* \"#utility.yul\":30337:30404   */\n      tag_407\n      jump\t// in\n    tag_770:\n        /* \"#utility.yul\":30330:30404   */\n      swap2\n      pop\n        /* \"#utility.yul\":30413:30506   */\n      tag_771\n        /* \"#utility.yul\":30502:30505   */\n      dup3\n        /* \"#utility.yul\":30413:30506   */\n      tag_465\n      jump\t// in\n    tag_771:\n        /* \"#utility.yul\":30531:30533   */\n      0x20\n        /* \"#utility.yul\":30526:30529   */\n      dup3\n        /* \"#utility.yul\":30522:30534   */\n      add\n        /* \"#utility.yul\":30515:30534   */\n      swap1\n      pop\n        /* \"#utility.yul\":30174:30540   */\n      swap2\n      swap1\n      pop\n      jump\t// out\n        /* \"#utility.yul\":30546:30965   */\n    tag_235:\n        /* \"#utility.yul\":30712:30716   */\n      0x00\n        /* \"#utility.yul\":30750:30752   */\n      0x20\n        /* \"#utility.yul\":30739:30748   */\n      dup3\n        /* \"#utility.yul\":30735:30753   */\n      add\n        /* \"#utility.yul\":30727:30753   */\n      swap1\n      pop\n        /* \"#utility.yul\":30799:30808   */\n      dup2\n        /* \"#utility.yul\":30793:30797   */\n      dup2\n        /* \"#utility.yul\":30789:30809   */\n      sub\n        /* \"#utility.yul\":30785:30786   */\n      0x00\n        /* \"#utility.yul\":30774:30783   */\n      dup4\n        /* \"#utility.yul\":30770:30787   */\n      add\n        /* \"#utility.yul\":30763:30810   */\n      mstore\n        /* \"#utility.yul\":30827:30958   */\n      tag_773\n        /* \"#utility.yul\":30953:30957   */\n      dup2\n        /* \"#utility.yul\":30827:30958   */\n      tag_466\n      jump\t// in\n    tag_773:\n        /* \"#utility.yul\":30819:30958   */\n      swap1\n      pop\n        /* \"#utility.yul\":30546:30965   */\n      swap2\n      swap1\n      pop\n      jump\t// out\n        /* \"#utility.yul\":30971:31139   */\n    tag_467:\n        /* \"#utility.yul\":31111:31131   */\n      0x496e76616c696420616d6f756e74414d696e0000000000000000000000000000\n        /* \"#utility.yul\":31107:31108   */\n      0x00\n        /* \"#utility.yul\":31099:31105   */\n      dup3\n        /* \"#utility.yul\":31095:31109   */\n      add\n        /* \"#utility.yul\":31088:31132   */\n      mstore\n        /* \"#utility.yul\":30971:31139   */\n      pop\n      jump\t// out\n        /* \"#utility.yul\":31145:31511   */\n    tag_468:\n        /* \"#utility.yul\":31287:31290   */\n      0x00\n        /* \"#utility.yul\":31308:31375   */\n      tag_776\n        /* \"#utility.yul\":31372:31374   */\n      0x12\n        /* \"#utility.yul\":31367:31370   */\n      dup4\n        /* \"#utility.yul\":31308:31375   */\n      tag_407\n      jump\t// in\n    tag_776:\n        /* \"#utility.yul\":31301:31375   */\n      swap2\n      pop\n        /* \"#utility.yul\":31384:31477   */\n      tag_777\n        /* \"#utility.yul\":31473:31476   */\n      dup3\n        /* \"#utility.yul\":31384:31477   */\n      tag_467\n      jump\t// in\n    tag_777:\n        /* \"#utility.yul\":31502:31504   */\n      0x20\n        /* \"#utility.yul\":31497:31500   */\n      dup3\n        /* \"#utility.yul\":31493:31505   */\n      add\n        /* \"#utility.yul\":31486:31505   */\n      swap1\n      pop\n        /* \"#utility.yul\":31145:31511   */\n      swap2\n      swap1\n      pop\n      jump\t// out\n        /* \"#utility.yul\":31517:31936   */\n    tag_238:\n        /* \"#utility.yul\":31683:31687   */\n      0x00\n        /* \"#utility.yul\":31721:31723   */\n      0x20\n        /* \"#utility.yul\":31710:31719   */\n      dup3\n        /* \"#utility.yul\":31706:31724   */\n      add\n        /* \"#utility.yul\":31698:31724   */\n      swap1\n      pop\n        /* \"#utility.yul\":31770:31779   */\n      dup2\n        /* \"#utility.yul\":31764:31768   */\n      dup2\n        /* \"#utility.yul\":31760:31780   */\n      sub\n        /* \"#utility.yul\":31756:31757   */\n      0x00\n        /* \"#utility.yul\":31745:31754   */\n      dup4\n        /* \"#utility.yul\":31741:31758   */\n      add\n        /* \"#utility.yul\":31734:31781   */\n      mstore\n        /* \"#utility.yul\":31798:31929   */\n      tag_779\n        /* \"#utility.yul\":31924:31928   */\n      dup2\n        /* \"#utility.yul\":31798:31929   */\n      tag_468\n      jump\t// in\n    tag_779:\n        /* \"#utility.yul\":31790:31929   */\n      swap1\n      pop\n        /* \"#utility.yul\":31517:31936   */\n      swap2\n      swap1\n      pop\n      jump\t// out\n        /* \"#utility.yul\":31942:32164   */\n    tag_469:\n        /* \"#utility.yul\":32082:32116   */\n      0x72656d6f76654c6971756964697479202d20616e74657320746f74616c537570\n        /* \"#utility.yul\":32078:32079   */\n      0x00\n        /* \"#utility.yul\":32070:32076   */\n      dup3\n        /* \"#utility.yul\":32066:32080   */\n      add\n        /* \"#utility.yul\":32059:32117   */\n      mstore\n        /* \"#utility.yul\":32151:32156   */\n      0x706c790000000000000000000000000000000000000000000000000000000000\n        /* \"#utility.yul\":32146:32148   */\n      0x20\n        /* \"#utility.yul\":32138:32144   */\n      dup3\n        /* \"#utility.yul\":32134:32149   */\n      add\n        /* \"#utility.yul\":32127:32157   */\n      mstore\n        /* \"#utility.yul\":31942:32164   */\n      pop\n      jump\t// out\n        /* \"#utility.yul\":32170:32536   */\n    tag_470:\n        /* \"#utility.yul\":32312:32315   */\n      0x00\n        /* \"#utility.yul\":32333:32400   */\n      tag_782\n        /* \"#utility.yul\":32397:32399   */\n      0x23\n        /* \"#utility.yul\":32392:32395   */\n      dup4\n        /* \"#utility.yul\":32333:32400   */\n      tag_407\n      jump\t// in\n    tag_782:\n        /* \"#utility.yul\":32326:32400   */\n      swap2\n      pop\n        /* \"#utility.yul\":32409:32502   */\n      tag_783\n        /* \"#utility.yul\":32498:32501   */\n      dup3\n        /* \"#utility.yul\":32409:32502   */\n      tag_469\n      jump\t// in\n    tag_783:\n        /* \"#utility.yul\":32527:32529   */\n      0x40\n        /* \"#utility.yul\":32522:32525   */\n      dup3\n        /* \"#utility.yul\":32518:32530   */\n      add\n        /* \"#utility.yul\":32511:32530   */\n      swap1\n      pop\n        /* \"#utility.yul\":32170:32536   */\n      swap2\n      swap1\n      pop\n      jump\t// out\n        /* \"#utility.yul\":32542:32961   */\n    tag_240:\n        /* \"#utility.yul\":32708:32712   */\n      0x00\n        /* \"#utility.yul\":32746:32748   */\n      0x20\n        /* \"#utility.yul\":32735:32744   */\n      dup3\n        /* \"#utility.yul\":32731:32749   */\n      add\n        /* \"#utility.yul\":32723:32749   */\n      swap1\n      pop\n        /* \"#utility.yul\":32795:32804   */\n      dup2\n        /* \"#utility.yul\":32789:32793   */\n      dup2\n        /* \"#utility.yul\":32785:32805   */\n      sub\n        /* \"#utility.yul\":32781:32782   */\n      0x00\n        /* \"#utility.yul\":32770:32779   */\n      dup4\n        /* \"#utility.yul\":32766:32783   */\n      add\n        /* \"#utility.yul\":32759:32806   */\n      mstore\n        /* \"#utility.yul\":32823:32954   */\n      tag_785\n        /* \"#utility.yul\":32949:32953   */\n      dup2\n        /* \"#utility.yul\":32823:32954   */\n      tag_470\n      jump\t// in\n    tag_785:\n        /* \"#utility.yul\":32815:32954   */\n      swap1\n      pop\n        /* \"#utility.yul\":32542:32961   */\n      swap2\n      swap1\n      pop\n      jump\t// out\n        /* \"#utility.yul\":32967:33131   */\n    tag_471:\n        /* \"#utility.yul\":33107:33123   */\n      0x496e76616c696420737570706c79000000000000000000000000000000000000\n        /* \"#utility.yul\":33103:33104   */\n      0x00\n        /* \"#utility.yul\":33095:33101   */\n      dup3\n        /* \"#utility.yul\":33091:33105   */\n      add\n        /* \"#utility.yul\":33084:33124   */\n      mstore\n        /* \"#utility.yul\":32967:33131   */\n      pop\n      jump\t// out\n        /* \"#utility.yul\":33137:33503   */\n    tag_472:\n        /* \"#utility.yul\":33279:33282   */\n      0x00\n        /* \"#utility.yul\":33300:33367   */\n      tag_788\n        /* \"#utility.yul\":33364:33366   */\n      0x0e\n        /* \"#utility.yul\":33359:33362   */\n      dup4\n        /* \"#utility.yul\":33300:33367   */\n      tag_407\n      jump\t// in\n    tag_788:\n        /* \"#utility.yul\":33293:33367   */\n      swap2\n      pop\n        /* \"#utility.yul\":33376:33469   */\n      tag_789\n        /* \"#utility.yul\":33465:33468   */\n      dup3\n        /* \"#utility.yul\":33376:33469   */\n      tag_471\n      jump\t// in\n    tag_789:\n        /* \"#utility.yul\":33494:33496   */\n      0x20\n        /* \"#utility.yul\":33489:33492   */\n      dup3\n        /* \"#utility.yul\":33485:33497   */\n      add\n        /* \"#utility.yul\":33478:33497   */\n      swap1\n      pop\n        /* \"#utility.yul\":33137:33503   */\n      swap2\n      swap1\n      pop\n      jump\t// out\n        /* \"#utility.yul\":33509:33928   */\n    tag_244:\n        /* \"#utility.yul\":33675:33679   */\n      0x00\n        /* \"#utility.yul\":33713:33715   */\n      0x20\n        /* \"#utility.yul\":33702:33711   */\n      dup3\n        /* \"#utility.yul\":33698:33716   */\n      add\n        /* \"#utility.yul\":33690:33716   */\n      swap1\n      pop\n        /* \"#utility.yul\":33762:33771   */\n      dup2\n        /* \"#utility.yul\":33756:33760   */\n      dup2\n        /* \"#utility.yul\":33752:33772   */\n      sub\n        /* \"#utility.yul\":33748:33749   */\n      0x00\n        /* \"#utility.yul\":33737:33746   */\n      dup4\n        /* \"#utility.yul\":33733:33750   */\n      add\n        /* \"#utility.yul\":33726:33773   */\n      mstore\n        /* \"#utility.yul\":33790:33921   */\n      tag_791\n        /* \"#utility.yul\":33916:33920   */\n      dup2\n        /* \"#utility.yul\":33790:33921   */\n      tag_472\n      jump\t// in\n    tag_791:\n        /* \"#utility.yul\":33782:33921   */\n      swap1\n      pop\n        /* \"#utility.yul\":33509:33928   */\n      swap2\n      swap1\n      pop\n      jump\t// out\n        /* \"#utility.yul\":33934:34101   */\n    tag_473:\n        /* \"#utility.yul\":34074:34093   */\n      0x616d6f756e74412062656c6f77206d696e000000000000000000000000000000\n        /* \"#utility.yul\":34070:34071   */\n      0x00\n        /* \"#utility.yul\":34062:34068   */\n      dup3\n        /* \"#utility.yul\":34058:34072   */\n      add\n        /* \"#utility.yul\":34051:34094   */\n      mstore\n        /* \"#utility.yul\":33934:34101   */\n      pop\n      jump\t// out\n        /* \"#utility.yul\":34107:34473   */\n    tag_474:\n        /* \"#utility.yul\":34249:34252   */\n      0x00\n        /* \"#utility.yul\":34270:34337   */\n      tag_794\n        /* \"#utility.yul\":34334:34336   */\n      0x11\n        /* \"#utility.yul\":34329:34332   */\n      dup4\n        /* \"#utility.yul\":34270:34337   */\n      tag_407\n      jump\t// in\n    tag_794:\n        /* \"#utility.yul\":34263:34337   */\n      swap2\n      pop\n        /* \"#utility.yul\":34346:34439   */\n      tag_795\n        /* \"#utility.yul\":34435:34438   */\n      dup3\n        /* \"#utility.yul\":34346:34439   */\n      tag_473\n      jump\t// in\n    tag_795:\n        /* \"#utility.yul\":34464:34466   */\n      0x20\n        /* \"#utility.yul\":34459:34462   */\n      dup3\n        /* \"#utility.yul\":34455:34467   */\n      add\n        /* \"#utility.yul\":34448:34467   */\n      swap1\n      pop\n        /* \"#utility.yul\":34107:34473   */\n      swap2\n      swap1\n      pop\n      jump\t// out\n        /* \"#utility.yul\":34479:34898   */\n    tag_251:\n        /* \"#utility.yul\":34645:34649   */\n      0x00\n        /* \"#utility.yul\":34683:34685   */\n      0x20\n        /* \"#utility.yul\":34672:34681   */\n      dup3\n        /* \"#utility.yul\":34668:34686   */\n      add\n        /* \"#utility.yul\":34660:34686   */\n      swap1\n      pop\n        /* \"#utility.yul\":34732:34741   */\n      dup2\n        /* \"#utility.yul\":34726:34730   */\n      dup2\n        /* \"#utility.yul\":34722:34742   */\n      sub\n        /* \"#utility.yul\":34718:34719   */\n      0x00\n        /* \"#utility.yul\":34707:34716   */\n      dup4\n        /* \"#utility.yul\":34703:34720   */\n      add\n        /* \"#utility.yul\":34696:34743   */\n      mstore\n        /* \"#utility.yul\":34760:34891   */\n      tag_797\n        /* \"#utility.yul\":34886:34890   */\n      dup2\n        /* \"#utility.yul\":34760:34891   */\n      tag_474\n      jump\t// in\n    tag_797:\n        /* \"#utility.yul\":34752:34891   */\n      swap1\n      pop\n        /* \"#utility.yul\":34479:34898   */\n      swap2\n      swap1\n      pop\n      jump\t// out\n        /* \"#utility.yul\":34904:35071   */\n    tag_475:\n        /* \"#utility.yul\":35044:35063   */\n      0x616d6f756e74422062656c6f77206d696e000000000000000000000000000000\n        /* \"#utility.yul\":35040:35041   */\n      0x00\n        /* \"#utility.yul\":35032:35038   */\n      dup3\n        /* \"#utility.yul\":35028:35042   */\n      add\n        /* \"#utility.yul\":35021:35064   */\n      mstore\n        /* \"#utility.yul\":34904:35071   */\n      pop\n      jump\t// out\n        /* \"#utility.yul\":35077:35443   */\n    tag_476:\n        /* \"#utility.yul\":35219:35222   */\n      0x00\n        /* \"#utility.yul\":35240:35307   */\n      tag_800\n        /* \"#utility.yul\":35304:35306   */\n      0x11\n        /* \"#utility.yul\":35299:35302   */\n      dup4\n        /* \"#utility.yul\":35240:35307   */\n      tag_407\n      jump\t// in\n    tag_800:\n        /* \"#utility.yul\":35233:35307   */\n      swap2\n      pop\n        /* \"#utility.yul\":35316:35409   */\n      tag_801\n        /* \"#utility.yul\":35405:35408   */\n      dup3\n        /* \"#utility.yul\":35316:35409   */\n      tag_475\n      jump\t// in\n    tag_801:\n        /* \"#utility.yul\":35434:35436   */\n      0x20\n        /* \"#utility.yul\":35429:35432   */\n      dup3\n        /* \"#utility.yul\":35425:35437   */\n      add\n        /* \"#utility.yul\":35418:35437   */\n      swap1\n      pop\n        /* \"#utility.yul\":35077:35443   */\n      swap2\n      swap1\n      pop\n      jump\t// out\n        /* \"#utility.yul\":35449:35868   */\n    tag_254:\n        /* \"#utility.yul\":35615:35619   */\n      0x00\n        /* \"#utility.yul\":35653:35655   */\n      0x20\n        /* \"#utility.yul\":35642:35651   */\n      dup3\n        /* \"#utility.yul\":35638:35656   */\n      add\n        /* \"#utility.yul\":35630:35656   */\n      swap1\n      pop\n        /* \"#utility.yul\":35702:35711   */\n      dup2\n        /* \"#utility.yul\":35696:35700   */\n      dup2\n        /* \"#utility.yul\":35692:35712   */\n      sub\n        /* \"#utility.yul\":35688:35689   */\n      0x00\n        /* \"#utility.yul\":35677:35686   */\n      dup4\n        /* \"#utility.yul\":35673:35690   */\n      add\n        /* \"#utility.yul\":35666:35713   */\n      mstore\n        /* \"#utility.yul\":35730:35861   */\n      tag_803\n        /* \"#utility.yul\":35856:35860   */\n      dup2\n        /* \"#utility.yul\":35730:35861   */\n      tag_476\n      jump\t// in\n    tag_803:\n        /* \"#utility.yul\":35722:35861   */\n      swap1\n      pop\n        /* \"#utility.yul\":35449:35868   */\n      swap2\n      swap1\n      pop\n      jump\t// out\n        /* \"#utility.yul\":35874:36056   */\n    tag_477:\n        /* \"#utility.yul\":36014:36048   */\n      0x72656d6f76654c6971756964697479202d20616e746573207472616e73666572\n        /* \"#utility.yul\":36010:36011   */\n      0x00\n        /* \"#utility.yul\":36002:36008   */\n      dup3\n        /* \"#utility.yul\":35998:36012   */\n      add\n        /* \"#utility.yul\":35991:36049   */\n      mstore\n        /* \"#utility.yul\":35874:36056   */\n      pop\n      jump\t// out\n        /* \"#utility.yul\":36062:36428   */\n    tag_478:\n        /* \"#utility.yul\":36204:36207   */\n      0x00\n        /* \"#utility.yul\":36225:36292   */\n      tag_806\n        /* \"#utility.yul\":36289:36291   */\n      0x20\n        /* \"#utility.yul\":36284:36287   */\n      dup4\n        /* \"#utility.yul\":36225:36292   */\n      tag_407\n      jump\t// in\n    tag_806:\n        /* \"#utility.yul\":36218:36292   */\n      swap2\n      pop\n        /* \"#utility.yul\":36301:36394   */\n      tag_807\n        /* \"#utility.yul\":36390:36393   */\n      dup3\n        /* \"#utility.yul\":36301:36394   */\n      tag_477\n      jump\t// in\n    tag_807:\n        /* \"#utility.yul\":36419:36421   */\n      0x20\n        /* \"#utility.yul\":36414:36417   */\n      dup3\n        /* \"#utility.yul\":36410:36422   */\n      add\n        /* \"#utility.yul\":36403:36422   */\n      swap1\n      pop\n        /* \"#utility.yul\":36062:36428   */\n      swap2\n      swap1\n      pop\n      jump\t// out\n        /* \"#utility.yul\":36434:36853   */\n    tag_256:\n        /* \"#utility.yul\":36600:36604   */\n      0x00\n        /* \"#utility.yul\":36638:36640   */\n      0x20\n        /* \"#utility.yul\":36627:36636   */\n      dup3\n        /* \"#utility.yul\":36623:36641   */\n      add\n        /* \"#utility.yul\":36615:36641   */\n      swap1\n      pop\n        /* \"#utility.yul\":36687:36696   */\n      dup2\n        /* \"#utility.yul\":36681:36685   */\n      dup2\n        /* \"#utility.yul\":36677:36697   */\n      sub\n        /* \"#utility.yul\":36673:36674   */\n      0x00\n        /* \"#utility.yul\":36662:36671   */\n      dup4\n        /* \"#utility.yul\":36658:36675   */\n      add\n        /* \"#utility.yul\":36651:36698   */\n      mstore\n        /* \"#utility.yul\":36715:36846   */\n      tag_809\n        /* \"#utility.yul\":36841:36845   */\n      dup2\n        /* \"#utility.yul\":36715:36846   */\n      tag_478\n      jump\t// in\n    tag_809:\n        /* \"#utility.yul\":36707:36846   */\n      swap1\n      pop\n        /* \"#utility.yul\":36434:36853   */\n      swap2\n      swap1\n      pop\n      jump\t// out\n        /* \"#utility.yul\":36859:37031   */\n    tag_479:\n        /* \"#utility.yul\":36999:37023   */\n      0x5472616e7366657220746f6b656e41206661696c656400000000000000000000\n        /* \"#utility.yul\":36995:36996   */\n      0x00\n        /* \"#utility.yul\":36987:36993   */\n      dup3\n        /* \"#utility.yul\":36983:36997   */\n      add\n        /* \"#utility.yul\":36976:37024   */\n      mstore\n        /* \"#utility.yul\":36859:37031   */\n      pop\n      jump\t// out\n        /* \"#utility.yul\":37037:37403   */\n    tag_480:\n        /* \"#utility.yul\":37179:37182   */\n      0x00\n        /* \"#utility.yul\":37200:37267   */\n      tag_812\n        /* \"#utility.yul\":37264:37266   */\n      0x16\n        /* \"#utility.yul\":37259:37262   */\n      dup4\n        /* \"#utility.yul\":37200:37267   */\n      tag_407\n      jump\t// in\n    tag_812:\n        /* \"#utility.yul\":37193:37267   */\n      swap2\n      pop\n        /* \"#utility.yul\":37276:37369   */\n      tag_813\n        /* \"#utility.yul\":37365:37368   */\n      dup3\n        /* \"#utility.yul\":37276:37369   */\n      tag_479\n      jump\t// in\n    tag_813:\n        /* \"#utility.yul\":37394:37396   */\n      0x20\n        /* \"#utility.yul\":37389:37392   */\n      dup3\n        /* \"#utility.yul\":37385:37397   */\n      add\n        /* \"#utility.yul\":37378:37397   */\n      swap1\n      pop\n        /* \"#utility.yul\":37037:37403   */\n      swap2\n      swap1\n      pop\n      jump\t// out\n        /* \"#utility.yul\":37409:37828   */\n    tag_263:\n        /* \"#utility.yul\":37575:37579   */\n      0x00\n        /* \"#utility.yul\":37613:37615   */\n      0x20\n        /* \"#utility.yul\":37602:37611   */\n      dup3\n        /* \"#utility.yul\":37598:37616   */\n      add\n        /* \"#utility.yul\":37590:37616   */\n      swap1\n      pop\n        /* \"#utility.yul\":37662:37671   */\n      dup2\n        /* \"#utility.yul\":37656:37660   */\n      dup2\n        /* \"#utility.yul\":37652:37672   */\n      sub\n        /* \"#utility.yul\":37648:37649   */\n      0x00\n        /* \"#utility.yul\":37637:37646   */\n      dup4\n        /* \"#utility.yul\":37633:37650   */\n      add\n        /* \"#utility.yul\":37626:37673   */\n      mstore\n        /* \"#utility.yul\":37690:37821   */\n      tag_815\n        /* \"#utility.yul\":37816:37820   */\n      dup2\n        /* \"#utility.yul\":37690:37821   */\n      tag_480\n      jump\t// in\n    tag_815:\n        /* \"#utility.yul\":37682:37821   */\n      swap1\n      pop\n        /* \"#utility.yul\":37409:37828   */\n      swap2\n      swap1\n      pop\n      jump\t// out\n        /* \"#utility.yul\":37834:38006   */\n    tag_481:\n        /* \"#utility.yul\":37974:37998   */\n      0x5472616e7366657220746f6b656e42206661696c656400000000000000000000\n        /* \"#utility.yul\":37970:37971   */\n      0x00\n        /* \"#utility.yul\":37962:37968   */\n      dup3\n        /* \"#utility.yul\":37958:37972   */\n      add\n        /* \"#utility.yul\":37951:37999   */\n      mstore\n        /* \"#utility.yul\":37834:38006   */\n      pop\n      jump\t// out\n        /* \"#utility.yul\":38012:38378   */\n    tag_482:\n        /* \"#utility.yul\":38154:38157   */\n      0x00\n        /* \"#utility.yul\":38175:38242   */\n      tag_818\n        /* \"#utility.yul\":38239:38241   */\n      0x16\n        /* \"#utility.yul\":38234:38237   */\n      dup4\n        /* \"#utility.yul\":38175:38242   */\n      tag_407\n      jump\t// in\n    tag_818:\n        /* \"#utility.yul\":38168:38242   */\n      swap2\n      pop\n        /* \"#utility.yul\":38251:38344   */\n      tag_819\n        /* \"#utility.yul\":38340:38343   */\n      dup3\n        /* \"#utility.yul\":38251:38344   */\n      tag_481\n      jump\t// in\n    tag_819:\n        /* \"#utility.yul\":38369:38371   */\n      0x20\n        /* \"#utility.yul\":38364:38367   */\n      dup3\n        /* \"#utility.yul\":38360:38372   */\n      add\n        /* \"#utility.yul\":38353:38372   */\n      swap1\n      pop\n        /* \"#utility.yul\":38012:38378   */\n      swap2\n      swap1\n      pop\n      jump\t// out\n        /* \"#utility.yul\":38384:38803   */\n    tag_270:\n        /* \"#utility.yul\":38550:38554   */\n      0x00\n        /* \"#utility.yul\":38588:38590   */\n      0x20\n        /* \"#utility.yul\":38577:38586   */\n      dup3\n        /* \"#utility.yul\":38573:38591   */\n      add\n        /* \"#utility.yul\":38565:38591   */\n      swap1\n      pop\n        /* \"#utility.yul\":38637:38646   */\n      dup2\n        /* \"#utility.yul\":38631:38635   */\n      dup2\n        /* \"#utility.yul\":38627:38647   */\n      sub\n        /* \"#utility.yul\":38623:38624   */\n      0x00\n        /* \"#utility.yul\":38612:38621   */\n      dup4\n        /* \"#utility.yul\":38608:38625   */\n      add\n        /* \"#utility.yul\":38601:38648   */\n      mstore\n        /* \"#utility.yul\":38665:38796   */\n      tag_821\n        /* \"#utility.yul\":38791:38795   */\n      dup2\n        /* \"#utility.yul\":38665:38796   */\n      tag_482\n      jump\t// in\n    tag_821:\n        /* \"#utility.yul\":38657:38796   */\n      swap1\n      pop\n        /* \"#utility.yul\":38384:38803   */\n      swap2\n      swap1\n      pop\n      jump\t// out\n        /* \"#utility.yul\":38809:38987   */\n    tag_483:\n        /* \"#utility.yul\":38949:38979   */\n      0x72656d6f76654c6971756964697479202d20616e746573206275726e00000000\n        /* \"#utility.yul\":38945:38946   */\n      0x00\n        /* \"#utility.yul\":38937:38943   */\n      dup3\n        /* \"#utility.yul\":38933:38947   */\n      add\n        /* \"#utility.yul\":38926:38980   */\n      mstore\n        /* \"#utility.yul\":38809:38987   */\n      pop\n      jump\t// out\n        /* \"#utility.yul\":38993:39359   */\n    tag_484:\n        /* \"#utility.yul\":39135:39138   */\n      0x00\n        /* \"#utility.yul\":39156:39223   */\n      tag_824\n        /* \"#utility.yul\":39220:39222   */\n      0x1c\n        /* \"#utility.yul\":39215:39218   */\n      dup4\n        /* \"#utility.yul\":39156:39223   */\n      tag_407\n      jump\t// in\n    tag_824:\n        /* \"#utility.yul\":39149:39223   */\n      swap2\n      pop\n        /* \"#utility.yul\":39232:39325   */\n      tag_825\n        /* \"#utility.yul\":39321:39324   */\n      dup3\n        /* \"#utility.yul\":39232:39325   */\n      tag_483\n      jump\t// in\n    tag_825:\n        /* \"#utility.yul\":39350:39352   */\n      0x20\n        /* \"#utility.yul\":39345:39348   */\n      dup3\n        /* \"#utility.yul\":39341:39353   */\n      add\n        /* \"#utility.yul\":39334:39353   */\n      swap1\n      pop\n        /* \"#utility.yul\":38993:39359   */\n      swap2\n      swap1\n      pop\n      jump\t// out\n        /* \"#utility.yul\":39365:39784   */\n    tag_272:\n        /* \"#utility.yul\":39531:39535   */\n      0x00\n        /* \"#utility.yul\":39569:39571   */\n      0x20\n        /* \"#utility.yul\":39558:39567   */\n      dup3\n        /* \"#utility.yul\":39554:39572   */\n      add\n        /* \"#utility.yul\":39546:39572   */\n      swap1\n      pop\n        /* \"#utility.yul\":39618:39627   */\n      dup2\n        /* \"#utility.yul\":39612:39616   */\n      dup2\n        /* \"#utility.yul\":39608:39628   */\n      sub\n        /* \"#utility.yul\":39604:39605   */\n      0x00\n        /* \"#utility.yul\":39593:39602   */\n      dup4\n        /* \"#utility.yul\":39589:39606   */\n      add\n        /* \"#utility.yul\":39582:39629   */\n      mstore\n        /* \"#utility.yul\":39646:39777   */\n      tag_827\n        /* \"#utility.yul\":39772:39776   */\n      dup2\n        /* \"#utility.yul\":39646:39777   */\n      tag_484\n      jump\t// in\n    tag_827:\n        /* \"#utility.yul\":39638:39777   */\n      swap1\n      pop\n        /* \"#utility.yul\":39365:39784   */\n      swap2\n      swap1\n      pop\n      jump\t// out\n        /* \"#utility.yul\":39790:39970   */\n    tag_485:\n        /* \"#utility.yul\":39930:39962   */\n      0x72656d6f76654c6971756964697479202d2064657370756573206275726e0000\n        /* \"#utility.yul\":39926:39927   */\n      0x00\n        /* \"#utility.yul\":39918:39924   */\n      dup3\n        /* \"#utility.yul\":39914:39928   */\n      add\n        /* \"#utility.yul\":39907:39963   */\n      mstore\n        /* \"#utility.yul\":39790:39970   */\n      pop\n      jump\t// out\n        /* \"#utility.yul\":39976:40342   */\n    tag_486:\n        /* \"#utility.yul\":40118:40121   */\n      0x00\n        /* \"#utility.yul\":40139:40206   */\n      tag_830\n        /* \"#utility.yul\":40203:40205   */\n      0x1e\n        /* \"#utility.yul\":40198:40201   */\n      dup4\n        /* \"#utility.yul\":40139:40206   */\n      tag_407\n      jump\t// in\n    tag_830:\n        /* \"#utility.yul\":40132:40206   */\n      swap2\n      pop\n        /* \"#utility.yul\":40215:40308   */\n      tag_831\n        /* \"#utility.yul\":40304:40307   */\n      dup3\n        /* \"#utility.yul\":40215:40308   */\n      tag_485\n      jump\t// in\n    tag_831:\n        /* \"#utility.yul\":40333:40335   */\n      0x20\n        /* \"#utility.yul\":40328:40331   */\n      dup3\n        /* \"#utility.yul\":40324:40336   */\n      add\n        /* \"#utility.yul\":40317:40336   */\n      swap1\n      pop\n        /* \"#utility.yul\":39976:40342   */\n      swap2\n      swap1\n      pop\n      jump\t// out\n        /* \"#utility.yul\":40348:40767   */\n    tag_276:\n        /* \"#utility.yul\":40514:40518   */\n      0x00\n        /* \"#utility.yul\":40552:40554   */\n      0x20\n        /* \"#utility.yul\":40541:40550   */\n      dup3\n        /* \"#utility.yul\":40537:40555   */\n      add\n        /* \"#utility.yul\":40529:40555   */\n      swap1\n      pop\n        /* \"#utility.yul\":40601:40610   */\n      dup2\n        /* \"#utility.yul\":40595:40599   */\n      dup2\n        /* \"#utility.yul\":40591:40611   */\n      sub\n        /* \"#utility.yul\":40587:40588   */\n      0x00\n        /* \"#utility.yul\":40576:40585   */\n      dup4\n        /* \"#utility.yul\":40572:40589   */\n      add\n        /* \"#utility.yul\":40565:40612   */\n      mstore\n        /* \"#utility.yul\":40629:40760   */\n      tag_833\n        /* \"#utility.yul\":40755:40759   */\n      dup2\n        /* \"#utility.yul\":40629:40760   */\n      tag_486\n      jump\t// in\n    tag_833:\n        /* \"#utility.yul\":40621:40760   */\n      swap1\n      pop\n        /* \"#utility.yul\":40348:40767   */\n      swap2\n      swap1\n      pop\n      jump\t// out\n        /* \"#utility.yul\":40773:40944   */\n    tag_487:\n        /* \"#utility.yul\":40913:40936   */\n      0x72656d6f76654c6971756964697479202d20454e440000000000000000000000\n        /* \"#utility.yul\":40909:40910   */\n      0x00\n        /* \"#utility.yul\":40901:40907   */\n      dup3\n        /* \"#utility.yul\":40897:40911   */\n      add\n        /* \"#utility.yul\":40890:40937   */\n      mstore\n        /* \"#utility.yul\":40773:40944   */\n      pop\n      jump\t// out\n        /* \"#utility.yul\":40950:41316   */\n    tag_488:\n        /* \"#utility.yul\":41092:41095   */\n      0x00\n        /* \"#utility.yul\":41113:41180   */\n      tag_836\n        /* \"#utility.yul\":41177:41179   */\n      0x15\n        /* \"#utility.yul\":41172:41175   */\n      dup4\n        /* \"#utility.yul\":41113:41180   */\n      tag_407\n      jump\t// in\n    tag_836:\n        /* \"#utility.yul\":41106:41180   */\n      swap2\n      pop\n        /* \"#utility.yul\":41189:41282   */\n      tag_837\n        /* \"#utility.yul\":41278:41281   */\n      dup3\n        /* \"#utility.yul\":41189:41282   */\n      tag_487\n      jump\t// in\n    tag_837:\n        /* \"#utility.yul\":41307:41309   */\n      0x20\n        /* \"#utility.yul\":41302:41305   */\n      dup3\n        /* \"#utility.yul\":41298:41310   */\n      add\n        /* \"#utility.yul\":41291:41310   */\n      swap1\n      pop\n        /* \"#utility.yul\":40950:41316   */\n      swap2\n      swap1\n      pop\n      jump\t// out\n        /* \"#utility.yul\":41322:41741   */\n    tag_280:\n        /* \"#utility.yul\":41488:41492   */\n      0x00\n        /* \"#utility.yul\":41526:41528   */\n      0x20\n        /* \"#utility.yul\":41515:41524   */\n      dup3\n        /* \"#utility.yul\":41511:41529   */\n      add\n        /* \"#utility.yul\":41503:41529   */\n      swap1\n      pop\n        /* \"#utility.yul\":41575:41584   */\n      dup2\n        /* \"#utility.yul\":41569:41573   */\n      dup2\n        /* \"#utility.yul\":41565:41585   */\n      sub\n        /* \"#utility.yul\":41561:41562   */\n      0x00\n        /* \"#utility.yul\":41550:41559   */\n      dup4\n        /* \"#utility.yul\":41546:41563   */\n      add\n        /* \"#utility.yul\":41539:41586   */\n      mstore\n        /* \"#utility.yul\":41603:41734   */\n      tag_839\n        /* \"#utility.yul\":41729:41733   */\n      dup2\n        /* \"#utility.yul\":41603:41734   */\n      tag_488\n      jump\t// in\n    tag_839:\n        /* \"#utility.yul\":41595:41734   */\n      swap1\n      pop\n        /* \"#utility.yul\":41322:41741   */\n      swap2\n      swap1\n      pop\n      jump\t// out\n        /* \"#utility.yul\":41747:41926   */\n    tag_489:\n        /* \"#utility.yul\":41887:41918   */\n      0x6164644c6971756964697479202d20616e746573207472616e73666572000000\n        /* \"#utility.yul\":41883:41884   */\n      0x00\n        /* \"#utility.yul\":41875:41881   */\n      dup3\n        /* \"#utility.yul\":41871:41885   */\n      add\n        /* \"#utility.yul\":41864:41919   */\n      mstore\n        /* \"#utility.yul\":41747:41926   */\n      pop\n      jump\t// out\n        /* \"#utility.yul\":41932:42298   */\n    tag_490:\n        /* \"#utility.yul\":42074:42077   */\n      0x00\n        /* \"#utility.yul\":42095:42162   */\n      tag_842\n        /* \"#utility.yul\":42159:42161   */\n      0x1d\n        /* \"#utility.yul\":42154:42157   */\n      dup4\n        /* \"#utility.yul\":42095:42162   */\n      tag_407\n      jump\t// in\n    tag_842:\n        /* \"#utility.yul\":42088:42162   */\n      swap2\n      pop\n        /* \"#utility.yul\":42171:42264   */\n      tag_843\n        /* \"#utility.yul\":42260:42263   */\n      dup3\n        /* \"#utility.yul\":42171:42264   */\n      tag_489\n      jump\t// in\n    tag_843:\n        /* \"#utility.yul\":42289:42291   */\n      0x20\n        /* \"#utility.yul\":42284:42287   */\n      dup3\n        /* \"#utility.yul\":42280:42292   */\n      add\n        /* \"#utility.yul\":42273:42292   */\n      swap1\n      pop\n        /* \"#utility.yul\":41932:42298   */\n      swap2\n      swap1\n      pop\n      jump\t// out\n        /* \"#utility.yul\":42304:42723   */\n    tag_291:\n        /* \"#utility.yul\":42470:42474   */\n      0x00\n        /* \"#utility.yul\":42508:42510   */\n      0x20\n        /* \"#utility.yul\":42497:42506   */\n      dup3\n        /* \"#utility.yul\":42493:42511   */\n      add\n        /* \"#utility.yul\":42485:42511   */\n      swap1\n      pop\n        /* \"#utility.yul\":42557:42566   */\n      dup2\n        /* \"#utility.yul\":42551:42555   */\n      dup2\n        /* \"#utility.yul\":42547:42567   */\n      sub\n        /* \"#utility.yul\":42543:42544   */\n      0x00\n        /* \"#utility.yul\":42532:42541   */\n      dup4\n        /* \"#utility.yul\":42528:42545   */\n      add\n        /* \"#utility.yul\":42521:42568   */\n      mstore\n        /* \"#utility.yul\":42585:42716   */\n      tag_845\n        /* \"#utility.yul\":42711:42715   */\n      dup2\n        /* \"#utility.yul\":42585:42716   */\n      tag_490\n      jump\t// in\n    tag_845:\n        /* \"#utility.yul\":42577:42716   */\n      swap1\n      pop\n        /* \"#utility.yul\":42304:42723   */\n      swap2\n      swap1\n      pop\n      jump\t// out\n        /* \"#utility.yul\":42729:42901   */\n    tag_491:\n        /* \"#utility.yul\":42869:42893   */\n      0x746f6b656e41207472616e73666572206661696c656400000000000000000000\n        /* \"#utility.yul\":42865:42866   */\n      0x00\n        /* \"#utility.yul\":42857:42863   */\n      dup3\n        /* \"#utility.yul\":42853:42867   */\n      add\n        /* \"#utility.yul\":42846:42894   */\n      mstore\n        /* \"#utility.yul\":42729:42901   */\n      pop\n      jump\t// out\n        /* \"#utility.yul\":42907:43273   */\n    tag_492:\n        /* \"#utility.yul\":43049:43052   */\n      0x00\n        /* \"#utility.yul\":43070:43137   */\n      tag_848\n        /* \"#utility.yul\":43134:43136   */\n      0x16\n        /* \"#utility.yul\":43129:43132   */\n      dup4\n        /* \"#utility.yul\":43070:43137   */\n      tag_407\n      jump\t// in\n    tag_848:\n        /* \"#utility.yul\":43063:43137   */\n      swap2\n      pop\n        /* \"#utility.yul\":43146:43239   */\n      tag_849\n        /* \"#utility.yul\":43235:43238   */\n      dup3\n        /* \"#utility.yul\":43146:43239   */\n      tag_491\n      jump\t// in\n    tag_849:\n        /* \"#utility.yul\":43264:43266   */\n      0x20\n        /* \"#utility.yul\":43259:43262   */\n      dup3\n        /* \"#utility.yul\":43255:43267   */\n      add\n        /* \"#utility.yul\":43248:43267   */\n      swap1\n      pop\n        /* \"#utility.yul\":42907:43273   */\n      swap2\n      swap1\n      pop\n      jump\t// out\n        /* \"#utility.yul\":43279:43698   */\n    tag_298:\n        /* \"#utility.yul\":43445:43449   */\n      0x00\n        /* \"#utility.yul\":43483:43485   */\n      0x20\n        /* \"#utility.yul\":43472:43481   */\n      dup3\n        /* \"#utility.yul\":43468:43486   */\n      add\n        /* \"#utility.yul\":43460:43486   */\n      swap1\n      pop\n        /* \"#utility.yul\":43532:43541   */\n      dup2\n        /* \"#utility.yul\":43526:43530   */\n      dup2\n        /* \"#utility.yul\":43522:43542   */\n      sub\n        /* \"#utility.yul\":43518:43519   */\n      0x00\n        /* \"#utility.yul\":43507:43516   */\n      dup4\n        /* \"#utility.yul\":43503:43520   */\n      add\n        /* \"#utility.yul\":43496:43543   */\n      mstore\n        /* \"#utility.yul\":43560:43691   */\n      tag_851\n        /* \"#utility.yul\":43686:43690   */\n      dup2\n        /* \"#utility.yul\":43560:43691   */\n      tag_492\n      jump\t// in\n    tag_851:\n        /* \"#utility.yul\":43552:43691   */\n      swap1\n      pop\n        /* \"#utility.yul\":43279:43698   */\n      swap2\n      swap1\n      pop\n      jump\t// out\n        /* \"#utility.yul\":43704:43876   */\n    tag_493:\n        /* \"#utility.yul\":43844:43868   */\n      0x746f6b656e42207472616e73666572206661696c656400000000000000000000\n        /* \"#utility.yul\":43840:43841   */\n      0x00\n        /* \"#utility.yul\":43832:43838   */\n      dup3\n        /* \"#utility.yul\":43828:43842   */\n      add\n        /* \"#utility.yul\":43821:43869   */\n      mstore\n        /* \"#utility.yul\":43704:43876   */\n      pop\n      jump\t// out\n        /* \"#utility.yul\":43882:44248   */\n    tag_494:\n        /* \"#utility.yul\":44024:44027   */\n      0x00\n        /* \"#utility.yul\":44045:44112   */\n      tag_854\n        /* \"#utility.yul\":44109:44111   */\n      0x16\n        /* \"#utility.yul\":44104:44107   */\n      dup4\n        /* \"#utility.yul\":44045:44112   */\n      tag_407\n      jump\t// in\n    tag_854:\n        /* \"#utility.yul\":44038:44112   */\n      swap2\n      pop\n        /* \"#utility.yul\":44121:44214   */\n      tag_855\n        /* \"#utility.yul\":44210:44213   */\n      dup3\n        /* \"#utility.yul\":44121:44214   */\n      tag_493\n      jump\t// in\n    tag_855:\n        /* \"#utility.yul\":44239:44241   */\n      0x20\n        /* \"#utility.yul\":44234:44237   */\n      dup3\n        /* \"#utility.yul\":44230:44242   */\n      add\n        /* \"#utility.yul\":44223:44242   */\n      swap1\n      pop\n        /* \"#utility.yul\":43882:44248   */\n      swap2\n      swap1\n      pop\n      jump\t// out\n        /* \"#utility.yul\":44254:44673   */\n    tag_305:\n        /* \"#utility.yul\":44420:44424   */\n      0x00\n        /* \"#utility.yul\":44458:44460   */\n      0x20\n        /* \"#utility.yul\":44447:44456   */\n      dup3\n        /* \"#utility.yul\":44443:44461   */\n      add\n        /* \"#utility.yul\":44435:44461   */\n      swap1\n      pop\n        /* \"#utility.yul\":44507:44516   */\n      dup2\n        /* \"#utility.yul\":44501:44505   */\n      dup2\n        /* \"#utility.yul\":44497:44517   */\n      sub\n        /* \"#utility.yul\":44493:44494   */\n      0x00\n        /* \"#utility.yul\":44482:44491   */\n      dup4\n        /* \"#utility.yul\":44478:44495   */\n      add\n        /* \"#utility.yul\":44471:44518   */\n      mstore\n        /* \"#utility.yul\":44535:44666   */\n      tag_857\n        /* \"#utility.yul\":44661:44665   */\n      dup2\n        /* \"#utility.yul\":44535:44666   */\n      tag_494\n      jump\t// in\n    tag_857:\n        /* \"#utility.yul\":44527:44666   */\n      swap1\n      pop\n        /* \"#utility.yul\":44254:44673   */\n      swap2\n      swap1\n      pop\n      jump\t// out\n        /* \"#utility.yul\":44679:45121   */\n    tag_335:\n        /* \"#utility.yul\":44828:44832   */\n      0x00\n        /* \"#utility.yul\":44866:44868   */\n      0x60\n        /* \"#utility.yul\":44855:44864   */\n      dup3\n        /* \"#utility.yul\":44851:44869   */\n      add\n        /* \"#utility.yul\":44843:44869   */\n      swap1\n      pop\n        /* \"#utility.yul\":44879:44950   */\n      tag_859\n        /* \"#utility.yul\":44947:44948   */\n      0x00\n        /* \"#utility.yul\":44936:44945   */\n      dup4\n        /* \"#utility.yul\":44932:44949   */\n      add\n        /* \"#utility.yul\":44923:44929   */\n      dup7\n        /* \"#utility.yul\":44879:44950   */\n      tag_452\n      jump\t// in\n    tag_859:\n        /* \"#utility.yul\":44960:45032   */\n      tag_860\n        /* \"#utility.yul\":45028:45030   */\n      0x20\n        /* \"#utility.yul\":45017:45026   */\n      dup4\n        /* \"#utility.yul\":45013:45031   */\n      add\n        /* \"#utility.yul\":45004:45010   */\n      dup6\n        /* \"#utility.yul\":44960:45032   */\n      tag_405\n      jump\t// in\n    tag_860:\n        /* \"#utility.yul\":45042:45114   */\n      tag_861\n        /* \"#utility.yul\":45110:45112   */\n      0x40\n        /* \"#utility.yul\":45099:45108   */\n      dup4\n        /* \"#utility.yul\":45095:45113   */\n      add\n        /* \"#utility.yul\":45086:45092   */\n      dup5\n        /* \"#utility.yul\":45042:45114   */\n      tag_405\n      jump\t// in\n    tag_861:\n        /* \"#utility.yul\":44679:45121   */\n      swap5\n      swap4\n      pop\n      pop\n      pop\n      pop\n      jump\t// out\n        /* \"#utility.yul\":45127:45349   */\n    tag_340:\n        /* \"#utility.yul\":45220:45224   */\n      0x00\n        /* \"#utility.yul\":45258:45260   */\n      0x20\n        /* \"#utility.yul\":45247:45256   */\n      dup3\n        /* \"#utility.yul\":45243:45261   */\n      add\n        /* \"#utility.yul\":45235:45261   */\n      swap1\n      pop\n        /* \"#utility.yul\":45271:45342   */\n      tag_863\n        /* \"#utility.yul\":45339:45340   */\n      0x00\n        /* \"#utility.yul\":45328:45337   */\n      dup4\n        /* \"#utility.yul\":45324:45341   */\n      add\n        /* \"#utility.yul\":45315:45321   */\n      dup5\n        /* \"#utility.yul\":45271:45342   */\n      tag_452\n      jump\t// in\n    tag_863:\n        /* \"#utility.yul\":45127:45349   */\n      swap3\n      swap2\n      pop\n      pop\n      jump\t// out\n        /* \"#utility.yul\":45355:45520   */\n    tag_495:\n        /* \"#utility.yul\":45495:45512   */\n      0x616d6f756e744220746f6f206c6f770000000000000000000000000000000000\n        /* \"#utility.yul\":45491:45492   */\n      0x00\n        /* \"#utility.yul\":45483:45489   */\n      dup3\n        /* \"#utility.yul\":45479:45493   */\n      add\n        /* \"#utility.yul\":45472:45513   */\n      mstore\n        /* \"#utility.yul\":45355:45520   */\n      pop\n      jump\t// out\n        /* \"#utility.yul\":45526:45892   */\n    tag_496:\n        /* \"#utility.yul\":45668:45671   */\n      0x00\n        /* \"#utility.yul\":45689:45756   */\n      tag_866\n        /* \"#utility.yul\":45753:45755   */\n      0x0f\n        /* \"#utility.yul\":45748:45751   */\n      dup4\n        /* \"#utility.yul\":45689:45756   */\n      tag_407\n      jump\t// in\n    tag_866:\n        /* \"#utility.yul\":45682:45756   */\n      swap2\n      pop\n        /* \"#utility.yul\":45765:45858   */\n      tag_867\n        /* \"#utility.yul\":45854:45857   */\n      dup3\n        /* \"#utility.yul\":45765:45858   */\n      tag_495\n      jump\t// in\n    tag_867:\n        /* \"#utility.yul\":45883:45885   */\n      0x20\n        /* \"#utility.yul\":45878:45881   */\n      dup3\n        /* \"#utility.yul\":45874:45886   */\n      add\n        /* \"#utility.yul\":45867:45886   */\n      swap1\n      pop\n        /* \"#utility.yul\":45526:45892   */\n      swap2\n      swap1\n      pop\n      jump\t// out\n        /* \"#utility.yul\":45898:46317   */\n    tag_358:\n        /* \"#utility.yul\":46064:46068   */\n      0x00\n        /* \"#utility.yul\":46102:46104   */\n      0x20\n        /* \"#utility.yul\":46091:46100   */\n      dup3\n        /* \"#utility.yul\":46087:46105   */\n      add\n        /* \"#utility.yul\":46079:46105   */\n      swap1\n      pop\n        /* \"#utility.yul\":46151:46160   */\n      dup2\n        /* \"#utility.yul\":46145:46149   */\n      dup2\n        /* \"#utility.yul\":46141:46161   */\n      sub\n        /* \"#utility.yul\":46137:46138   */\n      0x00\n        /* \"#utility.yul\":46126:46135   */\n      dup4\n        /* \"#utility.yul\":46122:46139   */\n      add\n        /* \"#utility.yul\":46115:46162   */\n      mstore\n        /* \"#utility.yul\":46179:46310   */\n      tag_869\n        /* \"#utility.yul\":46305:46309   */\n      dup2\n        /* \"#utility.yul\":46179:46310   */\n      tag_496\n      jump\t// in\n    tag_869:\n        /* \"#utility.yul\":46171:46310   */\n      swap1\n      pop\n        /* \"#utility.yul\":45898:46317   */\n      swap2\n      swap1\n      pop\n      jump\t// out\n        /* \"#utility.yul\":46323:46488   */\n    tag_497:\n        /* \"#utility.yul\":46463:46480   */\n      0x616d6f756e744120746f6f206c6f770000000000000000000000000000000000\n        /* \"#utility.yul\":46459:46460   */\n      0x00\n        /* \"#utility.yul\":46451:46457   */\n      dup3\n        /* \"#utility.yul\":46447:46461   */\n      add\n        /* \"#utility.yul\":46440:46481   */\n      mstore\n        /* \"#utility.yul\":46323:46488   */\n      pop\n      jump\t// out\n        /* \"#utility.yul\":46494:46860   */\n    tag_498:\n        /* \"#utility.yul\":46636:46639   */\n      0x00\n        /* \"#utility.yul\":46657:46724   */\n      tag_872\n        /* \"#utility.yul\":46721:46723   */\n      0x0f\n        /* \"#utility.yul\":46716:46719   */\n      dup4\n        /* \"#utility.yul\":46657:46724   */\n      tag_407\n      jump\t// in\n    tag_872:\n        /* \"#utility.yul\":46650:46724   */\n      swap2\n      pop\n        /* \"#utility.yul\":46733:46826   */\n      tag_873\n        /* \"#utility.yul\":46822:46825   */\n      dup3\n        /* \"#utility.yul\":46733:46826   */\n      tag_497\n      jump\t// in\n    tag_873:\n        /* \"#utility.yul\":46851:46853   */\n      0x20\n        /* \"#utility.yul\":46846:46849   */\n      dup3\n        /* \"#utility.yul\":46842:46854   */\n      add\n        /* \"#utility.yul\":46835:46854   */\n      swap1\n      pop\n        /* \"#utility.yul\":46494:46860   */\n      swap2\n      swap1\n      pop\n      jump\t// out\n        /* \"#utility.yul\":46866:47285   */\n    tag_364:\n        /* \"#utility.yul\":47032:47036   */\n      0x00\n        /* \"#utility.yul\":47070:47072   */\n      0x20\n        /* \"#utility.yul\":47059:47068   */\n      dup3\n        /* \"#utility.yul\":47055:47073   */\n      add\n        /* \"#utility.yul\":47047:47073   */\n      swap1\n      pop\n        /* \"#utility.yul\":47119:47128   */\n      dup2\n        /* \"#utility.yul\":47113:47117   */\n      dup2\n        /* \"#utility.yul\":47109:47129   */\n      sub\n        /* \"#utility.yul\":47105:47106   */\n      0x00\n        /* \"#utility.yul\":47094:47103   */\n      dup4\n        /* \"#utility.yul\":47090:47107   */\n      add\n        /* \"#utility.yul\":47083:47130   */\n      mstore\n        /* \"#utility.yul\":47147:47278   */\n      tag_875\n        /* \"#utility.yul\":47273:47277   */\n      dup2\n        /* \"#utility.yul\":47147:47278   */\n      tag_498\n      jump\t// in\n    tag_875:\n        /* \"#utility.yul\":47139:47278   */\n      swap1\n      pop\n        /* \"#utility.yul\":46866:47285   */\n      swap2\n      swap1\n      pop\n      jump\t// out\n\n    auxdata: 0xa26469706673582212201e0136dd215024aea890870b6e36205ec6cc3a9cfea963c482469675e1df5a8664736f6c634300081e0033\n}\n",
				"bytecode": {
					"linkReferences": {},
					"object": "608060405234801561000f575f5ffd5b50604051613be9380380613be9833981810160405281019061003191906101a4565b6040518060400160405280600881526020017f4c5020546f6b656e0000000000000000000000000000000000000000000000008152506040518060400160405280600381526020017f4c5054000000000000000000000000000000000000000000000000000000000081525081600390816100ac919061041f565b5080600490816100bc919061041f565b5050508160055f6101000a81548173ffffffffffffffffffffffffffffffffffffffff021916908373ffffffffffffffffffffffffffffffffffffffff1602179055508060065f6101000a81548173ffffffffffffffffffffffffffffffffffffffff021916908373ffffffffffffffffffffffffffffffffffffffff16021790555050506104ee565b5f5ffd5b5f73ffffffffffffffffffffffffffffffffffffffff82169050919050565b5f6101738261014a565b9050919050565b61018381610169565b811461018d575f5ffd5b50565b5f8151905061019e8161017a565b92915050565b5f5f604083850312156101ba576101b9610146565b5b5f6101c785828601610190565b92505060206101d885828601610190565b9150509250929050565b5f81519050919050565b7f4e487b71000000000000000000000000000000000000000000000000000000005f52604160045260245ffd5b7f4e487b71000000000000000000000000000000000000000000000000000000005f52602260045260245ffd5b5f600282049050600182168061025d57607f821691505b6020821081036102705761026f610219565b5b50919050565b5f819050815f5260205f209050919050565b5f6020601f8301049050919050565b5f82821b905092915050565b5f600883026102d27fffffffffffffffffffffffffffffffffffffffffffffffffffffffffffffffff82610297565b6102dc8683610297565b95508019841693508086168417925050509392505050565b5f819050919050565b5f819050919050565b5f61032061031b610316846102f4565b6102fd565b6102f4565b9050919050565b5f819050919050565b61033983610306565b61034d61034582610327565b8484546102a3565b825550505050565b5f5f905090565b610364610355565b61036f818484610330565b505050565b5b81811015610392576103875f8261035c565b600181019050610375565b5050565b601f8211156103d7576103a881610276565b6103b184610288565b810160208510156103c0578190505b6103d46103cc85610288565b830182610374565b50505b505050565b5f82821c905092915050565b5f6103f75f19846008026103dc565b1980831691505092915050565b5f61040f83836103e8565b9150826002028217905092915050565b610428826101e2565b67ffffffffffffffff811115610441576104406101ec565b5b61044b8254610246565b610456828285610396565b5f60209050601f831160018114610487575f8415610475578287015190505b61047f8582610404565b8655506104e6565b601f19841661049586610276565b5f5b828110156104bc57848901518255600182019150602085019450602081019050610497565b868310156104d957848901516104d5601f8916826103e8565b8355505b6001600288020188555050505b505050505050565b6136ee806104fb5f395ff3fe608060405234801561000f575f5ffd5b5060043610610114575f3560e01c80635f64b55b116100a0578063ac41865a1161006f578063ac41865a1461030a578063baa2abde1461033a578063dc5fa6c51461036b578063dd62ed3e14610389578063e8e33700146103b957610114565b80635f64b55b1461026e57806370a082311461028c57806395d89b41146102bc578063a9059cbb146102da57610114565b806318160ddd116100e757806318160ddd146101b457806319e36f3b146101d257806323b872dd146101f0578063313ce5671461022057806338ed17391461023e57610114565b8063054d50d41461011857806306fdde0314610148578063095ea7b3146101665780630fc63d1014610196575b5f5ffd5b610132600480360381019061012d9190612128565b6103eb565b60405161013f9190612187565b60405180910390f35b6101506104dd565b60405161015d9190612210565b60405180910390f35b610180600480360381019061017b919061228a565b61056d565b60405161018d91906122e2565b60405180910390f35b61019e61058f565b6040516101ab9190612356565b60405180910390f35b6101bc6105b4565b6040516101c99190612187565b60405180910390f35b6101da6105bd565b6040516101e79190612187565b60405180910390f35b61020a6004803603810190610205919061236f565b6105c3565b60405161021791906122e2565b60405180910390f35b6102286105f1565b60405161023591906123da565b60405180910390f35b61025860048036038101906102539190612454565b6105f9565b60405161026591906125a1565b60405180910390f35b610276610b61565b6040516102839190612356565b60405180910390f35b6102a660048036038101906102a191906125c1565b610b86565b6040516102b39190612187565b60405180910390f35b6102c4610bcb565b6040516102d19190612210565b60405180910390f35b6102f460048036038101906102ef919061228a565b610c5b565b60405161030191906122e2565b60405180910390f35b610324600480360381019061031f91906125ec565b610c7d565b6040516103319190612187565b60405180910390f35b610354600480360381019061034f919061262a565b610e18565b6040516103629291906126c7565b60405180910390f35b61037361141b565b6040516103809190612187565b60405180910390f35b6103a3600480360381019061039e91906125ec565b611421565b6040516103b09190612187565b60405180910390f35b6103d360048036038101906103ce91906126ee565b6114a3565b6040516103e29392919061279f565b60405180910390f35b5f5f841161042e576040517f08c379a00000000000000000000000000000000000000000000000000000000081526004016104259061281e565b60405180910390fd5b5f8311610470576040517f08c379a000000000000000000000000000000000000000000000000000000000815260040161046790612886565b60405180910390fd5b5f82116104b2576040517f08c379a00000000000000000000000000000000000000000000000000000000081526004016104a9906128ee565b60405180910390fd5b83836104be9190612939565b82856104ca919061296c565b6104d491906129da565b90509392505050565b6060600380546104ec90612a37565b80601f016020809104026020016040519081016040528092919081815260200182805461051890612a37565b80156105635780601f1061053a57610100808354040283529160200191610563565b820191905f5260205f20905b81548152906001019060200180831161054657829003601f168201915b5050505050905090565b5f5f6105776118d1565b90506105848185856118d8565b600191505092915050565b60055f9054906101000a900473ffffffffffffffffffffffffffffffffffffffff1681565b5f600254905090565b60085481565b5f5f6105cd6118d1565b90506105da8582856118ea565b6105e585858561197d565b60019150509392505050565b5f6012905090565b60605f8711801561060957505f86115b610648576040517f08c379a000000000000000000000000000000000000000000000000000000000815260040161063f90612ab1565b60405180910390fd5b8142111561068b576040517f08c379a000000000000000000000000000000000000000000000000000000000815260040161068290612b19565b60405180910390fd5b600285859050146106d1576040517f08c379a00000000000000000000000000000000000000000000000000000000081526004016106c890612b81565b60405180910390fd5b5f85855f8181106106e5576106e4612b9f565b5b90506020020160208101906106fa91906125c1565b90505f8686600181811061071157610710612b9f565b5b905060200201602081019061072691906125c1565b905060055f9054906101000a900473ffffffffffffffffffffffffffffffffffffffff1673ffffffffffffffffffffffffffffffffffffffff168273ffffffffffffffffffffffffffffffffffffffff161480156107d0575060065f9054906101000a900473ffffffffffffffffffffffffffffffffffffffff1673ffffffffffffffffffffffffffffffffffffffff168173ffffffffffffffffffffffffffffffffffffffff16145b61080f576040517f08c379a000000000000000000000000000000000000000000000000000000000815260040161080690612c16565b60405180910390fd5b5f8290505f8290505f60075490505f60085490505f8d90508473ffffffffffffffffffffffffffffffffffffffff166323b872dd3330846040518463ffffffff1660e01b815260040161086493929190612c43565b6020604051808303815f875af1158015610880573d5f5f3e3d5ffd5b505050506040513d601f19601f820116820180604052508101906108a49190612ca2565b6108e3576040517f08c379a00000000000000000000000000000000000000000000000000000000081526004016108da90612d17565b60405180910390fd5b5f81846108f09190612939565b83836108fc919061296c565b61090691906129da565b90508d81101561094b576040517f08c379a000000000000000000000000000000000000000000000000000000000815260040161094290612d7f565b60405180910390fd5b8473ffffffffffffffffffffffffffffffffffffffff1663a9059cbb8c836040518363ffffffff1660e01b8152600401610986929190612d9d565b6020604051808303815f875af11580156109a2573d5f5f3e3d5ffd5b505050506040513d601f19601f820116820180604052508101906109c69190612ca2565b610a05576040517f08c379a00000000000000000000000000000000000000000000000000000000081526004016109fc90612d17565b60405180910390fd5b8e60075f828254610a169190612939565b925050819055508060085f828254610a2e9190612dc4565b92505081905550600267ffffffffffffffff811115610a5057610a4f612df7565b5b604051908082528060200260200182016040528015610a7e5781602001602082028036833780820191505090505b5098508e895f81518110610a9557610a94612b9f565b5b6020026020010181815250508089600181518110610ab657610ab5612b9f565b5b602002602001018181525050600267ffffffffffffffff811115610add57610adc612df7565b5b604051908082528060200260200182016040528015610b0b5781602001602082028036833780820191505090505b5098508e895f81518110610b2257610b21612b9f565b5b6020026020010181815250508089600181518110610b4357610b42612b9f565b5b60200260200101818152505050505050505050509695505050505050565b60065f9054906101000a900473ffffffffffffffffffffffffffffffffffffffff1681565b5f5f5f8373ffffffffffffffffffffffffffffffffffffffff1673ffffffffffffffffffffffffffffffffffffffff1681526020019081526020015f20549050919050565b606060048054610bda90612a37565b80601f0160208091040260200160405190810160405280929190818152602001828054610c0690612a37565b8015610c515780601f10610c2857610100808354040283529160200191610c51565b820191905f5260205f20905b815481529060010190602001808311610c3457829003601f168201915b5050505050905090565b5f5f610c656118d1565b9050610c7281858561197d565b600191505092915050565b5f60055f9054906101000a900473ffffffffffffffffffffffffffffffffffffffff1673ffffffffffffffffffffffffffffffffffffffff168373ffffffffffffffffffffffffffffffffffffffff16148015610d26575060065f9054906101000a900473ffffffffffffffffffffffffffffffffffffffff1673ffffffffffffffffffffffffffffffffffffffff168273ffffffffffffffffffffffffffffffffffffffff16145b610d65576040517f08c379a0000000000000000000000000000000000000000000000000000000008152600401610d5c90612c16565b60405180910390fd5b5f60075411610da9576040517f08c379a0000000000000000000000000000000000000000000000000000000008152600401610da090612e6e565b60405180910390fd5b5f60085411610ded576040517f08c379a0000000000000000000000000000000000000000000000000000000008152600401610de490612ed6565b60405180910390fd5b600754670de0b6b3a7640000600854610e06919061296c565b610e1091906129da565b905092915050565b5f5f60055f9054906101000a900473ffffffffffffffffffffffffffffffffffffffff1673ffffffffffffffffffffffffffffffffffffffff168973ffffffffffffffffffffffffffffffffffffffff16148015610ec2575060065f9054906101000a900473ffffffffffffffffffffffffffffffffffffffff1673ffffffffffffffffffffffffffffffffffffffff168873ffffffffffffffffffffffffffffffffffffffff16145b610f01576040517f08c379a0000000000000000000000000000000000000000000000000000000008152600401610ef890612c16565b60405180910390fd5b82421115610f44576040517f08c379a0000000000000000000000000000000000000000000000000000000008152600401610f3b90612b19565b60405180910390fd5b5f8711610f86576040517f08c379a0000000000000000000000000000000000000000000000000000000008152600401610f7d90612f3e565b60405180910390fd5b5f851015610fc9576040517f08c379a0000000000000000000000000000000000000000000000000000000008152600401610fc090612fa6565b60405180910390fd5b5f86101561100c576040517f08c379a00000000000000000000000000000000000000000000000000000000081526004016110039061300e565b60405180910390fd5b7f7cdb51e9dbbc205231228146c3246e7f914aa6d4a33170e43ecc8e3593481d1a6040516110399061309c565b60405180910390a15f61104a6105b4565b90505f811161108e576040517f08c379a000000000000000000000000000000000000000000000000000000000815260040161108590613104565b60405180910390fd5b806007548961109d919061296c565b6110a791906129da565b925080600854896110b8919061296c565b6110c291906129da565b915086831015611107576040517f08c379a00000000000000000000000000000000000000000000000000000000081526004016110fe9061316c565b60405180910390fd5b8582101561114a576040517f08c379a0000000000000000000000000000000000000000000000000000000008152600401611141906131d4565b60405180910390fd5b7f7cdb51e9dbbc205231228146c3246e7f914aa6d4a33170e43ecc8e3593481d1a6040516111779061323c565b60405180910390a160055f9054906101000a900473ffffffffffffffffffffffffffffffffffffffff1673ffffffffffffffffffffffffffffffffffffffff1663a9059cbb86856040518363ffffffff1660e01b81526004016111db929190612d9d565b6020604051808303815f875af11580156111f7573d5f5f3e3d5ffd5b505050506040513d601f19601f8201168201806040525081019061121b9190612ca2565b61125a576040517f08c379a0000000000000000000000000000000000000000000000000000000008152600401611251906132a4565b60405180910390fd5b60065f9054906101000a900473ffffffffffffffffffffffffffffffffffffffff1673ffffffffffffffffffffffffffffffffffffffff1663a9059cbb86846040518363ffffffff1660e01b81526004016112b6929190612d9d565b6020604051808303815f875af11580156112d2573d5f5f3e3d5ffd5b505050506040513d601f19601f820116820180604052508101906112f69190612ca2565b611335576040517f08c379a000000000000000000000000000000000000000000000000000000000815260040161132c9061330c565b60405180910390fd5b7f7cdb51e9dbbc205231228146c3246e7f914aa6d4a33170e43ecc8e3593481d1a60405161136290613374565b60405180910390a16113748589611a6d565b7f7cdb51e9dbbc205231228146c3246e7f914aa6d4a33170e43ecc8e3593481d1a6040516113a1906133dc565b60405180910390a18260075f8282546113ba9190612dc4565b925050819055508160085f8282546113d29190612dc4565b925050819055507f7cdb51e9dbbc205231228146c3246e7f914aa6d4a33170e43ecc8e3593481d1a60405161140690613444565b60405180910390a15097509795505050505050565b60075481565b5f60015f8473ffffffffffffffffffffffffffffffffffffffff1673ffffffffffffffffffffffffffffffffffffffff1681526020019081526020015f205f8373ffffffffffffffffffffffffffffffffffffffff1673ffffffffffffffffffffffffffffffffffffffff1681526020019081526020015f2054905092915050565b5f5f5f834211156114e9576040517f08c379a00000000000000000000000000000000000000000000000000000000081526004016114e090612b19565b60405180910390fd5b60055f9054906101000a900473ffffffffffffffffffffffffffffffffffffffff1673ffffffffffffffffffffffffffffffffffffffff168b73ffffffffffffffffffffffffffffffffffffffff16148015611591575060065f9054906101000a900473ffffffffffffffffffffffffffffffffffffffff1673ffffffffffffffffffffffffffffffffffffffff168a73ffffffffffffffffffffffffffffffffffffffff16145b6115d0576040517f08c379a00000000000000000000000000000000000000000000000000000000081526004016115c790612c16565b60405180910390fd5b6115dc89898989611aec565b80935081945050507f7cdb51e9dbbc205231228146c3246e7f914aa6d4a33170e43ecc8e3593481d1a604051611611906134ac565b60405180910390a160055f9054906101000a900473ffffffffffffffffffffffffffffffffffffffff1673ffffffffffffffffffffffffffffffffffffffff166323b872dd3330866040518463ffffffff1660e01b815260040161167793929190612c43565b6020604051808303815f875af1158015611693573d5f5f3e3d5ffd5b505050506040513d601f19601f820116820180604052508101906116b79190612ca2565b6116f6576040517f08c379a00000000000000000000000000000000000000000000000000000000081526004016116ed90613514565b60405180910390fd5b60065f9054906101000a900473ffffffffffffffffffffffffffffffffffffffff1673ffffffffffffffffffffffffffffffffffffffff166323b872dd3330856040518463ffffffff1660e01b815260040161175493929190612c43565b6020604051808303815f875af1158015611770573d5f5f3e3d5ffd5b505050506040513d601f19601f820116820180604052508101906117949190612ca2565b6117d3576040517f08c379a00000000000000000000000000000000000000000000000000000000081526004016117ca9061357c565b60405180910390fd5b5f6117dc6105b4565b036117fc576117f582846117f0919061296c565b611bf7565b9050611847565b61184460075461180a6105b4565b85611815919061296c565b61181f91906129da565b60085461182a6105b4565b85611835919061296c565b61183f91906129da565b611c6e565b90505b5f8111611889576040517f08c379a000000000000000000000000000000000000000000000000000000000815260040161188090612f3e565b60405180910390fd5b6118938582611c86565b8260075f8282546118a49190612939565b925050819055508160085f8282546118bc9190612939565b92505081905550985098509895505050505050565b5f33905090565b6118e58383836001611d05565b505050565b5f6118f58484611421565b90507fffffffffffffffffffffffffffffffffffffffffffffffffffffffffffffffff8110156119775781811015611968578281836040517ffb8f41b200000000000000000000000000000000000000000000000000000000815260040161195f9392919061359a565b60405180910390fd5b61197684848484035f611d05565b5b50505050565b5f73ffffffffffffffffffffffffffffffffffffffff168373ffffffffffffffffffffffffffffffffffffffff16036119ed575f6040517f96c6fd1e0000000000000000000000000000000000000000000000000000000081526004016119e491906135cf565b60405180910390fd5b5f73ffffffffffffffffffffffffffffffffffffffff168273ffffffffffffffffffffffffffffffffffffffff1603611a5d575f6040517fec442f05000000000000000000000000000000000000000000000000000000008152600401611a5491906135cf565b60405180910390fd5b611a68838383611ed4565b505050565b5f73ffffffffffffffffffffffffffffffffffffffff168273ffffffffffffffffffffffffffffffffffffffff1603611add575f6040517f96c6fd1e000000000000000000000000000000000000000000000000000000008152600401611ad491906135cf565b60405180910390fd5b611ae8825f83611ed4565b5050565b5f5f5f600754148015611b0057505f600854145b15611b1057859150849050611bee565b5f60075460085488611b22919061296c565b611b2c91906129da565b9050858111611b835783811015611b78576040517f08c379a0000000000000000000000000000000000000000000000000000000008152600401611b6f90613632565b60405180910390fd5b869250809150611bec565b5f60085460075488611b95919061296c565b611b9f91906129da565b905085811015611be4576040517f08c379a0000000000000000000000000000000000000000000000000000000008152600401611bdb9061369a565b60405180910390fd5b809350869250505b505b94509492505050565b5f6003821115611c5c578190505f6001600284611c1491906129da565b611c1e9190612939565b90505b81811015611c56578091506002818285611c3b91906129da565b611c459190612939565b611c4f91906129da565b9050611c21565b50611c69565b5f8214611c6857600190505b5b919050565b5f818310611c7c5781611c7e565b825b905092915050565b5f73ffffffffffffffffffffffffffffffffffffffff168273ffffffffffffffffffffffffffffffffffffffff1603611cf6575f6040517fec442f05000000000000000000000000000000000000000000000000000000008152600401611ced91906135cf565b60405180910390fd5b611d015f8383611ed4565b5050565b5f73ffffffffffffffffffffffffffffffffffffffff168473ffffffffffffffffffffffffffffffffffffffff1603611d75575f6040517fe602df05000000000000000000000000000000000000000000000000000000008152600401611d6c91906135cf565b60405180910390fd5b5f73ffffffffffffffffffffffffffffffffffffffff168373ffffffffffffffffffffffffffffffffffffffff1603611de5575f6040517f94280d62000000000000000000000000000000000000000000000000000000008152600401611ddc91906135cf565b60405180910390fd5b8160015f8673ffffffffffffffffffffffffffffffffffffffff1673ffffffffffffffffffffffffffffffffffffffff1681526020019081526020015f205f8573ffffffffffffffffffffffffffffffffffffffff1673ffffffffffffffffffffffffffffffffffffffff1681526020019081526020015f20819055508015611ece578273ffffffffffffffffffffffffffffffffffffffff168473ffffffffffffffffffffffffffffffffffffffff167f8c5be1e5ebec7d5bd14f71427d1e84f3dd0314c0f7b2291e5b200ac8c7c3b92584604051611ec59190612187565b60405180910390a35b50505050565b5f73ffffffffffffffffffffffffffffffffffffffff168373ffffffffffffffffffffffffffffffffffffffff1603611f24578060025f828254611f189190612939565b92505081905550611ff2565b5f5f5f8573ffffffffffffffffffffffffffffffffffffffff1673ffffffffffffffffffffffffffffffffffffffff1681526020019081526020015f2054905081811015611fad578381836040517fe450d38c000000000000000000000000000000000000000000000000000000008152600401611fa49392919061359a565b60405180910390fd5b8181035f5f8673ffffffffffffffffffffffffffffffffffffffff1673ffffffffffffffffffffffffffffffffffffffff1681526020019081526020015f2081905550505b5f73ffffffffffffffffffffffffffffffffffffffff168273ffffffffffffffffffffffffffffffffffffffff1603612039578060025f8282540392505081905550612083565b805f5f8473ffffffffffffffffffffffffffffffffffffffff1673ffffffffffffffffffffffffffffffffffffffff1681526020019081526020015f205f82825401925050819055505b8173ffffffffffffffffffffffffffffffffffffffff168373ffffffffffffffffffffffffffffffffffffffff167fddf252ad1be2c89b69c2b068fc378daa952ba7f163c4a11628f55a4df523b3ef836040516120e09190612187565b60405180910390a3505050565b5f5ffd5b5f5ffd5b5f819050919050565b612107816120f5565b8114612111575f5ffd5b50565b5f81359050612122816120fe565b92915050565b5f5f5f6060848603121561213f5761213e6120ed565b5b5f61214c86828701612114565b935050602061215d86828701612114565b925050604061216e86828701612114565b9150509250925092565b612181816120f5565b82525050565b5f60208201905061219a5f830184612178565b92915050565b5f81519050919050565b5f82825260208201905092915050565b8281835e5f83830152505050565b5f601f19601f8301169050919050565b5f6121e2826121a0565b6121ec81856121aa565b93506121fc8185602086016121ba565b612205816121c8565b840191505092915050565b5f6020820190508181035f83015261222881846121d8565b905092915050565b5f73ffffffffffffffffffffffffffffffffffffffff82169050919050565b5f61225982612230565b9050919050565b6122698161224f565b8114612273575f5ffd5b50565b5f8135905061228481612260565b92915050565b5f5f604083850312156122a05761229f6120ed565b5b5f6122ad85828601612276565b92505060206122be85828601612114565b9150509250929050565b5f8115159050919050565b6122dc816122c8565b82525050565b5f6020820190506122f55f8301846122d3565b92915050565b5f819050919050565b5f61231e61231961231484612230565b6122fb565b612230565b9050919050565b5f61232f82612304565b9050919050565b5f61234082612325565b9050919050565b61235081612336565b82525050565b5f6020820190506123695f830184612347565b92915050565b5f5f5f60608486031215612386576123856120ed565b5b5f61239386828701612276565b93505060206123a486828701612276565b92505060406123b586828701612114565b9150509250925092565b5f60ff82169050919050565b6123d4816123bf565b82525050565b5f6020820190506123ed5f8301846123cb565b92915050565b5f5ffd5b5f5ffd5b5f5ffd5b5f5f83601f840112612414576124136123f3565b5b8235905067ffffffffffffffff811115612431576124306123f7565b5b60208301915083602082028301111561244d5761244c6123fb565b5b9250929050565b5f5f5f5f5f5f60a0878903121561246e5761246d6120ed565b5b5f61247b89828a01612114565b965050602061248c89828a01612114565b955050604087013567ffffffffffffffff8111156124ad576124ac6120f1565b5b6124b989828a016123ff565b945094505060606124cc89828a01612276565b92505060806124dd89828a01612114565b9150509295509295509295565b5f81519050919050565b5f82825260208201905092915050565b5f819050602082019050919050565b61251c816120f5565b82525050565b5f61252d8383612513565b60208301905092915050565b5f602082019050919050565b5f61254f826124ea565b61255981856124f4565b935061256483612504565b805f5b8381101561259457815161257b8882612522565b975061258683612539565b925050600181019050612567565b5085935050505092915050565b5f6020820190508181035f8301526125b98184612545565b905092915050565b5f602082840312156125d6576125d56120ed565b5b5f6125e384828501612276565b91505092915050565b5f5f60408385031215612602576126016120ed565b5b5f61260f85828601612276565b925050602061262085828601612276565b9150509250929050565b5f5f5f5f5f5f5f60e0888a031215612645576126446120ed565b5b5f6126528a828b01612276565b97505060206126638a828b01612276565b96505060406126748a828b01612114565b95505060606126858a828b01612114565b94505060806126968a828b01612114565b93505060a06126a78a828b01612276565b92505060c06126b88a828b01612114565b91505092959891949750929550565b5f6040820190506126da5f830185612178565b6126e76020830184612178565b9392505050565b5f5f5f5f5f5f5f5f610100898b03121561270b5761270a6120ed565b5b5f6127188b828c01612276565b98505060206127298b828c01612276565b975050604061273a8b828c01612114565b965050606061274b8b828c01612114565b955050608061275c8b828c01612114565b94505060a061276d8b828c01612114565b93505060c061277e8b828c01612276565b92505060e061278f8b828c01612114565b9150509295985092959890939650565b5f6060820190506127b25f830186612178565b6127bf6020830185612178565b6127cc6040830184612178565b949350505050565b7f496e76616c696420616d6f756e74496e000000000000000000000000000000005f82015250565b5f6128086010836121aa565b9150612813826127d4565b602082019050919050565b5f6020820190508181035f830152612835816127fc565b9050919050565b7f496e76616c69642072657365727665496e0000000000000000000000000000005f82015250565b5f6128706011836121aa565b915061287b8261283c565b602082019050919050565b5f6020820190508181035f83015261289d81612864565b9050919050565b7f496e76616c696420726573657276654f757400000000000000000000000000005f82015250565b5f6128d86012836121aa565b91506128e3826128a4565b602082019050919050565b5f6020820190508181035f830152612905816128cc565b9050919050565b7f4e487b71000000000000000000000000000000000000000000000000000000005f52601160045260245ffd5b5f612943826120f5565b915061294e836120f5565b92508282019050808211156129665761296561290c565b5b92915050565b5f612976826120f5565b9150612981836120f5565b925082820261298f816120f5565b915082820484148315176129a6576129a561290c565b5b5092915050565b7f4e487b71000000000000000000000000000000000000000000000000000000005f52601260045260245ffd5b5f6129e4826120f5565b91506129ef836120f5565b9250826129ff576129fe6129ad565b5b828204905092915050565b7f4e487b71000000000000000000000000000000000000000000000000000000005f52602260045260245ffd5b5f6002820490506001821680612a4e57607f821691505b602082108103612a6157612a60612a0a565b5b50919050565b7f496e76616c696420616d6f756e747300000000000000000000000000000000005f82015250565b5f612a9b600f836121aa565b9150612aa682612a67565b602082019050919050565b5f6020820190508181035f830152612ac881612a8f565b9050919050565b7f5472616e73616374696f6e2065787069726564000000000000000000000000005f82015250565b5f612b036013836121aa565b9150612b0e82612acf565b602082019050919050565b5f6020820190508181035f830152612b3081612af7565b9050919050565b7f496e76616c696420746f6b656e7320636f756e740000000000000000000000005f82015250565b5f612b6b6014836121aa565b9150612b7682612b37565b602082019050919050565b5f6020820190508181035f830152612b9881612b5f565b9050919050565b7f4e487b71000000000000000000000000000000000000000000000000000000005f52603260045260245ffd5b7f496e76616c696420746f6b656e730000000000000000000000000000000000005f82015250565b5f612c00600e836121aa565b9150612c0b82612bcc565b602082019050919050565b5f6020820190508181035f830152612c2d81612bf4565b9050919050565b612c3d8161224f565b82525050565b5f606082019050612c565f830186612c34565b612c636020830185612c34565b612c706040830184612178565b949350505050565b612c81816122c8565b8114612c8b575f5ffd5b50565b5f81519050612c9c81612c78565b92915050565b5f60208284031215612cb757612cb66120ed565b5b5f612cc484828501612c8e565b91505092915050565b7f5472616e73666572206661696c656400000000000000000000000000000000005f82015250565b5f612d01600f836121aa565b9150612d0c82612ccd565b602082019050919050565b5f6020820190508181035f830152612d2e81612cf5565b9050919050565b7f496e73756666696369656e74206f757470757420616d6f756e740000000000005f82015250565b5f612d69601a836121aa565b9150612d7482612d35565b602082019050919050565b5f6020820190508181035f830152612d9681612d5d565b9050919050565b5f604082019050612db05f830185612c34565b612dbd6020830184612178565b9392505050565b5f612dce826120f5565b9150612dd9836120f5565b9250828203905081811115612df157612df061290c565b5b92915050565b7f4e487b71000000000000000000000000000000000000000000000000000000005f52604160045260245ffd5b7f496e76616c6964207265736572766141000000000000000000000000000000005f82015250565b5f612e586010836121aa565b9150612e6382612e24565b602082019050919050565b5f6020820190508181035f830152612e8581612e4c565b9050919050565b7f496e76616c6964207265736572766142000000000000000000000000000000005f82015250565b5f612ec06010836121aa565b9150612ecb82612e8c565b602082019050919050565b5f6020820190508181035f830152612eed81612eb4565b9050919050565b7f496e76616c6964206c69717569646974790000000000000000000000000000005f82015250565b5f612f286011836121aa565b9150612f3382612ef4565b602082019050919050565b5f6020820190508181035f830152612f5581612f1c565b9050919050565b7f496e76616c696420616d6f756e74424d696e00000000000000000000000000005f82015250565b5f612f906012836121aa565b9150612f9b82612f5c565b602082019050919050565b5f6020820190508181035f830152612fbd81612f84565b9050919050565b7f496e76616c696420616d6f756e74414d696e00000000000000000000000000005f82015250565b5f612ff86012836121aa565b915061300382612fc4565b602082019050919050565b5f6020820190508181035f83015261302581612fec565b9050919050565b7f72656d6f76654c6971756964697479202d20616e74657320746f74616c5375705f8201527f706c790000000000000000000000000000000000000000000000000000000000602082015250565b5f6130866023836121aa565b91506130918261302c565b604082019050919050565b5f6020820190508181035f8301526130b38161307a565b9050919050565b7f496e76616c696420737570706c790000000000000000000000000000000000005f82015250565b5f6130ee600e836121aa565b91506130f9826130ba565b602082019050919050565b5f6020820190508181035f83015261311b816130e2565b9050919050565b7f616d6f756e74412062656c6f77206d696e0000000000000000000000000000005f82015250565b5f6131566011836121aa565b915061316182613122565b602082019050919050565b5f6020820190508181035f8301526131838161314a565b9050919050565b7f616d6f756e74422062656c6f77206d696e0000000000000000000000000000005f82015250565b5f6131be6011836121aa565b91506131c98261318a565b602082019050919050565b5f6020820190508181035f8301526131eb816131b2565b9050919050565b7f72656d6f76654c6971756964697479202d20616e746573207472616e736665725f82015250565b5f6132266020836121aa565b9150613231826131f2565b602082019050919050565b5f6020820190508181035f8301526132538161321a565b9050919050565b7f5472616e7366657220746f6b656e41206661696c6564000000000000000000005f82015250565b5f61328e6016836121aa565b91506132998261325a565b602082019050919050565b5f6020820190508181035f8301526132bb81613282565b9050919050565b7f5472616e7366657220746f6b656e42206661696c6564000000000000000000005f82015250565b5f6132f66016836121aa565b9150613301826132c2565b602082019050919050565b5f6020820190508181035f830152613323816132ea565b9050919050565b7f72656d6f76654c6971756964697479202d20616e746573206275726e000000005f82015250565b5f61335e601c836121aa565b91506133698261332a565b602082019050919050565b5f6020820190508181035f83015261338b81613352565b9050919050565b7f72656d6f76654c6971756964697479202d2064657370756573206275726e00005f82015250565b5f6133c6601e836121aa565b91506133d182613392565b602082019050919050565b5f6020820190508181035f8301526133f3816133ba565b9050919050565b7f72656d6f76654c6971756964697479202d20454e4400000000000000000000005f82015250565b5f61342e6015836121aa565b9150613439826133fa565b602082019050919050565b5f6020820190508181035f83015261345b81613422565b9050919050565b7f6164644c6971756964697479202d20616e746573207472616e736665720000005f82015250565b5f613496601d836121aa565b91506134a182613462565b602082019050919050565b5f6020820190508181035f8301526134c38161348a565b9050919050565b7f746f6b656e41207472616e73666572206661696c6564000000000000000000005f82015250565b5f6134fe6016836121aa565b9150613509826134ca565b602082019050919050565b5f6020820190508181035f83015261352b816134f2565b9050919050565b7f746f6b656e42207472616e73666572206661696c6564000000000000000000005f82015250565b5f6135666016836121aa565b915061357182613532565b602082019050919050565b5f6020820190508181035f8301526135938161355a565b9050919050565b5f6060820190506135ad5f830186612c34565b6135ba6020830185612178565b6135c76040830184612178565b949350505050565b5f6020820190506135e25f830184612c34565b92915050565b7f616d6f756e744220746f6f206c6f7700000000000000000000000000000000005f82015250565b5f61361c600f836121aa565b9150613627826135e8565b602082019050919050565b5f6020820190508181035f83015261364981613610565b9050919050565b7f616d6f756e744120746f6f206c6f7700000000000000000000000000000000005f82015250565b5f613684600f836121aa565b915061368f82613650565b602082019050919050565b5f6020820190508181035f8301526136b181613678565b905091905056fea26469706673582212201e0136dd215024aea890870b6e36205ec6cc3a9cfea963c482469675e1df5a8664736f6c634300081e0033",
					"opcodes": "PUSH1 0x80 PUSH1 0x40 MSTORE CALLVALUE DUP1 ISZERO PUSH2 0xF JUMPI PUSH0 PUSH0 REVERT JUMPDEST POP PUSH1 0x40 MLOAD PUSH2 0x3BE9 CODESIZE SUB DUP1 PUSH2 0x3BE9 DUP4 CODECOPY DUP2 DUP2 ADD PUSH1 0x40 MSTORE DUP2 ADD SWAP1 PUSH2 0x31 SWAP2 SWAP1 PUSH2 0x1A4 JUMP JUMPDEST PUSH1 0x40 MLOAD DUP1 PUSH1 0x40 ADD PUSH1 0x40 MSTORE DUP1 PUSH1 0x8 DUP2 MSTORE PUSH1 0x20 ADD PUSH32 0x4C5020546F6B656E000000000000000000000000000000000000000000000000 DUP2 MSTORE POP PUSH1 0x40 MLOAD DUP1 PUSH1 0x40 ADD PUSH1 0x40 MSTORE DUP1 PUSH1 0x3 DUP2 MSTORE PUSH1 0x20 ADD PUSH32 0x4C50540000000000000000000000000000000000000000000000000000000000 DUP2 MSTORE POP DUP2 PUSH1 0x3 SWAP1 DUP2 PUSH2 0xAC SWAP2 SWAP1 PUSH2 0x41F JUMP JUMPDEST POP DUP1 PUSH1 0x4 SWAP1 DUP2 PUSH2 0xBC SWAP2 SWAP1 PUSH2 0x41F JUMP JUMPDEST POP POP POP DUP2 PUSH1 0x5 PUSH0 PUSH2 0x100 EXP DUP2 SLOAD DUP2 PUSH20 0xFFFFFFFFFFFFFFFFFFFFFFFFFFFFFFFFFFFFFFFF MUL NOT AND SWAP1 DUP4 PUSH20 0xFFFFFFFFFFFFFFFFFFFFFFFFFFFFFFFFFFFFFFFF AND MUL OR SWAP1 SSTORE POP DUP1 PUSH1 0x6 PUSH0 PUSH2 0x100 EXP DUP2 SLOAD DUP2 PUSH20 0xFFFFFFFFFFFFFFFFFFFFFFFFFFFFFFFFFFFFFFFF MUL NOT AND SWAP1 DUP4 PUSH20 0xFFFFFFFFFFFFFFFFFFFFFFFFFFFFFFFFFFFFFFFF AND MUL OR SWAP1 SSTORE POP POP POP PUSH2 0x4EE JUMP JUMPDEST PUSH0 PUSH0 REVERT JUMPDEST PUSH0 PUSH20 0xFFFFFFFFFFFFFFFFFFFFFFFFFFFFFFFFFFFFFFFF DUP3 AND SWAP1 POP SWAP2 SWAP1 POP JUMP JUMPDEST PUSH0 PUSH2 0x173 DUP3 PUSH2 0x14A JUMP JUMPDEST SWAP1 POP SWAP2 SWAP1 POP JUMP JUMPDEST PUSH2 0x183 DUP2 PUSH2 0x169 JUMP JUMPDEST DUP2 EQ PUSH2 0x18D JUMPI PUSH0 PUSH0 REVERT JUMPDEST POP JUMP JUMPDEST PUSH0 DUP2 MLOAD SWAP1 POP PUSH2 0x19E DUP2 PUSH2 0x17A JUMP JUMPDEST SWAP3 SWAP2 POP POP JUMP JUMPDEST PUSH0 PUSH0 PUSH1 0x40 DUP4 DUP6 SUB SLT ISZERO PUSH2 0x1BA JUMPI PUSH2 0x1B9 PUSH2 0x146 JUMP JUMPDEST JUMPDEST PUSH0 PUSH2 0x1C7 DUP6 DUP3 DUP7 ADD PUSH2 0x190 JUMP JUMPDEST SWAP3 POP POP PUSH1 0x20 PUSH2 0x1D8 DUP6 DUP3 DUP7 ADD PUSH2 0x190 JUMP JUMPDEST SWAP2 POP POP SWAP3 POP SWAP3 SWAP1 POP JUMP JUMPDEST PUSH0 DUP2 MLOAD SWAP1 POP SWAP2 SWAP1 POP JUMP JUMPDEST PUSH32 0x4E487B7100000000000000000000000000000000000000000000000000000000 PUSH0 MSTORE PUSH1 0x41 PUSH1 0x4 MSTORE PUSH1 0x24 PUSH0 REVERT JUMPDEST PUSH32 0x4E487B7100000000000000000000000000000000000000000000000000000000 PUSH0 MSTORE PUSH1 0x22 PUSH1 0x4 MSTORE PUSH1 0x24 PUSH0 REVERT JUMPDEST PUSH0 PUSH1 0x2 DUP3 DIV SWAP1 POP PUSH1 0x1 DUP3 AND DUP1 PUSH2 0x25D JUMPI PUSH1 0x7F DUP3 AND SWAP2 POP JUMPDEST PUSH1 0x20 DUP3 LT DUP2 SUB PUSH2 0x270 JUMPI PUSH2 0x26F PUSH2 0x219 JUMP JUMPDEST JUMPDEST POP SWAP2 SWAP1 POP JUMP JUMPDEST PUSH0 DUP2 SWAP1 POP DUP2 PUSH0 MSTORE PUSH1 0x20 PUSH0 KECCAK256 SWAP1 POP SWAP2 SWAP1 POP JUMP JUMPDEST PUSH0 PUSH1 0x20 PUSH1 0x1F DUP4 ADD DIV SWAP1 POP SWAP2 SWAP1 POP JUMP JUMPDEST PUSH0 DUP3 DUP3 SHL SWAP1 POP SWAP3 SWAP2 POP POP JUMP JUMPDEST PUSH0 PUSH1 0x8 DUP4 MUL PUSH2 0x2D2 PUSH32 0xFFFFFFFFFFFFFFFFFFFFFFFFFFFFFFFFFFFFFFFFFFFFFFFFFFFFFFFFFFFFFFFF DUP3 PUSH2 0x297 JUMP JUMPDEST PUSH2 0x2DC DUP7 DUP4 PUSH2 0x297 JUMP JUMPDEST SWAP6 POP DUP1 NOT DUP5 AND SWAP4 POP DUP1 DUP7 AND DUP5 OR SWAP3 POP POP POP SWAP4 SWAP3 POP POP POP JUMP JUMPDEST PUSH0 DUP2 SWAP1 POP SWAP2 SWAP1 POP JUMP JUMPDEST PUSH0 DUP2 SWAP1 POP SWAP2 SWAP1 POP JUMP JUMPDEST PUSH0 PUSH2 0x320 PUSH2 0x31B PUSH2 0x316 DUP5 PUSH2 0x2F4 JUMP JUMPDEST PUSH2 0x2FD JUMP JUMPDEST PUSH2 0x2F4 JUMP JUMPDEST SWAP1 POP SWAP2 SWAP1 POP JUMP JUMPDEST PUSH0 DUP2 SWAP1 POP SWAP2 SWAP1 POP JUMP JUMPDEST PUSH2 0x339 DUP4 PUSH2 0x306 JUMP JUMPDEST PUSH2 0x34D PUSH2 0x345 DUP3 PUSH2 0x327 JUMP JUMPDEST DUP5 DUP5 SLOAD PUSH2 0x2A3 JUMP JUMPDEST DUP3 SSTORE POP POP POP POP JUMP JUMPDEST PUSH0 PUSH0 SWAP1 POP SWAP1 JUMP JUMPDEST PUSH2 0x364 PUSH2 0x355 JUMP JUMPDEST PUSH2 0x36F DUP2 DUP5 DUP5 PUSH2 0x330 JUMP JUMPDEST POP POP POP JUMP JUMPDEST JUMPDEST DUP2 DUP2 LT ISZERO PUSH2 0x392 JUMPI PUSH2 0x387 PUSH0 DUP3 PUSH2 0x35C JUMP JUMPDEST PUSH1 0x1 DUP2 ADD SWAP1 POP PUSH2 0x375 JUMP JUMPDEST POP POP JUMP JUMPDEST PUSH1 0x1F DUP3 GT ISZERO PUSH2 0x3D7 JUMPI PUSH2 0x3A8 DUP2 PUSH2 0x276 JUMP JUMPDEST PUSH2 0x3B1 DUP5 PUSH2 0x288 JUMP JUMPDEST DUP2 ADD PUSH1 0x20 DUP6 LT ISZERO PUSH2 0x3C0 JUMPI DUP2 SWAP1 POP JUMPDEST PUSH2 0x3D4 PUSH2 0x3CC DUP6 PUSH2 0x288 JUMP JUMPDEST DUP4 ADD DUP3 PUSH2 0x374 JUMP JUMPDEST POP POP JUMPDEST POP POP POP JUMP JUMPDEST PUSH0 DUP3 DUP3 SHR SWAP1 POP SWAP3 SWAP2 POP POP JUMP JUMPDEST PUSH0 PUSH2 0x3F7 PUSH0 NOT DUP5 PUSH1 0x8 MUL PUSH2 0x3DC JUMP JUMPDEST NOT DUP1 DUP4 AND SWAP2 POP POP SWAP3 SWAP2 POP POP JUMP JUMPDEST PUSH0 PUSH2 0x40F DUP4 DUP4 PUSH2 0x3E8 JUMP JUMPDEST SWAP2 POP DUP3 PUSH1 0x2 MUL DUP3 OR SWAP1 POP SWAP3 SWAP2 POP POP JUMP JUMPDEST PUSH2 0x428 DUP3 PUSH2 0x1E2 JUMP JUMPDEST PUSH8 0xFFFFFFFFFFFFFFFF DUP2 GT ISZERO PUSH2 0x441 JUMPI PUSH2 0x440 PUSH2 0x1EC JUMP JUMPDEST JUMPDEST PUSH2 0x44B DUP3 SLOAD PUSH2 0x246 JUMP JUMPDEST PUSH2 0x456 DUP3 DUP3 DUP6 PUSH2 0x396 JUMP JUMPDEST PUSH0 PUSH1 0x20 SWAP1 POP PUSH1 0x1F DUP4 GT PUSH1 0x1 DUP2 EQ PUSH2 0x487 JUMPI PUSH0 DUP5 ISZERO PUSH2 0x475 JUMPI DUP3 DUP8 ADD MLOAD SWAP1 POP JUMPDEST PUSH2 0x47F DUP6 DUP3 PUSH2 0x404 JUMP JUMPDEST DUP7 SSTORE POP PUSH2 0x4E6 JUMP JUMPDEST PUSH1 0x1F NOT DUP5 AND PUSH2 0x495 DUP7 PUSH2 0x276 JUMP JUMPDEST PUSH0 JUMPDEST DUP3 DUP2 LT ISZERO PUSH2 0x4BC JUMPI DUP5 DUP10 ADD MLOAD DUP3 SSTORE PUSH1 0x1 DUP3 ADD SWAP2 POP PUSH1 0x20 DUP6 ADD SWAP5 POP PUSH1 0x20 DUP2 ADD SWAP1 POP PUSH2 0x497 JUMP JUMPDEST DUP7 DUP4 LT ISZERO PUSH2 0x4D9 JUMPI DUP5 DUP10 ADD MLOAD PUSH2 0x4D5 PUSH1 0x1F DUP10 AND DUP3 PUSH2 0x3E8 JUMP JUMPDEST DUP4 SSTORE POP JUMPDEST PUSH1 0x1 PUSH1 0x2 DUP9 MUL ADD DUP9 SSTORE POP POP POP JUMPDEST POP POP POP POP POP POP JUMP JUMPDEST PUSH2 0x36EE DUP1 PUSH2 0x4FB PUSH0 CODECOPY PUSH0 RETURN INVALID PUSH1 0x80 PUSH1 0x40 MSTORE CALLVALUE DUP1 ISZERO PUSH2 0xF JUMPI PUSH0 PUSH0 REVERT JUMPDEST POP PUSH1 0x4 CALLDATASIZE LT PUSH2 0x114 JUMPI PUSH0 CALLDATALOAD PUSH1 0xE0 SHR DUP1 PUSH4 0x5F64B55B GT PUSH2 0xA0 JUMPI DUP1 PUSH4 0xAC41865A GT PUSH2 0x6F JUMPI DUP1 PUSH4 0xAC41865A EQ PUSH2 0x30A JUMPI DUP1 PUSH4 0xBAA2ABDE EQ PUSH2 0x33A JUMPI DUP1 PUSH4 0xDC5FA6C5 EQ PUSH2 0x36B JUMPI DUP1 PUSH4 0xDD62ED3E EQ PUSH2 0x389 JUMPI DUP1 PUSH4 0xE8E33700 EQ PUSH2 0x3B9 JUMPI PUSH2 0x114 JUMP JUMPDEST DUP1 PUSH4 0x5F64B55B EQ PUSH2 0x26E JUMPI DUP1 PUSH4 0x70A08231 EQ PUSH2 0x28C JUMPI DUP1 PUSH4 0x95D89B41 EQ PUSH2 0x2BC JUMPI DUP1 PUSH4 0xA9059CBB EQ PUSH2 0x2DA JUMPI PUSH2 0x114 JUMP JUMPDEST DUP1 PUSH4 0x18160DDD GT PUSH2 0xE7 JUMPI DUP1 PUSH4 0x18160DDD EQ PUSH2 0x1B4 JUMPI DUP1 PUSH4 0x19E36F3B EQ PUSH2 0x1D2 JUMPI DUP1 PUSH4 0x23B872DD EQ PUSH2 0x1F0 JUMPI DUP1 PUSH4 0x313CE567 EQ PUSH2 0x220 JUMPI DUP1 PUSH4 0x38ED1739 EQ PUSH2 0x23E JUMPI PUSH2 0x114 JUMP JUMPDEST DUP1 PUSH4 0x54D50D4 EQ PUSH2 0x118 JUMPI DUP1 PUSH4 0x6FDDE03 EQ PUSH2 0x148 JUMPI DUP1 PUSH4 0x95EA7B3 EQ PUSH2 0x166 JUMPI DUP1 PUSH4 0xFC63D10 EQ PUSH2 0x196 JUMPI JUMPDEST PUSH0 PUSH0 REVERT JUMPDEST PUSH2 0x132 PUSH1 0x4 DUP1 CALLDATASIZE SUB DUP2 ADD SWAP1 PUSH2 0x12D SWAP2 SWAP1 PUSH2 0x2128 JUMP JUMPDEST PUSH2 0x3EB JUMP JUMPDEST PUSH1 0x40 MLOAD PUSH2 0x13F SWAP2 SWAP1 PUSH2 0x2187 JUMP JUMPDEST PUSH1 0x40 MLOAD DUP1 SWAP2 SUB SWAP1 RETURN JUMPDEST PUSH2 0x150 PUSH2 0x4DD JUMP JUMPDEST PUSH1 0x40 MLOAD PUSH2 0x15D SWAP2 SWAP1 PUSH2 0x2210 JUMP JUMPDEST PUSH1 0x40 MLOAD DUP1 SWAP2 SUB SWAP1 RETURN JUMPDEST PUSH2 0x180 PUSH1 0x4 DUP1 CALLDATASIZE SUB DUP2 ADD SWAP1 PUSH2 0x17B SWAP2 SWAP1 PUSH2 0x228A JUMP JUMPDEST PUSH2 0x56D JUMP JUMPDEST PUSH1 0x40 MLOAD PUSH2 0x18D SWAP2 SWAP1 PUSH2 0x22E2 JUMP JUMPDEST PUSH1 0x40 MLOAD DUP1 SWAP2 SUB SWAP1 RETURN JUMPDEST PUSH2 0x19E PUSH2 0x58F JUMP JUMPDEST PUSH1 0x40 MLOAD PUSH2 0x1AB SWAP2 SWAP1 PUSH2 0x2356 JUMP JUMPDEST PUSH1 0x40 MLOAD DUP1 SWAP2 SUB SWAP1 RETURN JUMPDEST PUSH2 0x1BC PUSH2 0x5B4 JUMP JUMPDEST PUSH1 0x40 MLOAD PUSH2 0x1C9 SWAP2 SWAP1 PUSH2 0x2187 JUMP JUMPDEST PUSH1 0x40 MLOAD DUP1 SWAP2 SUB SWAP1 RETURN JUMPDEST PUSH2 0x1DA PUSH2 0x5BD JUMP JUMPDEST PUSH1 0x40 MLOAD PUSH2 0x1E7 SWAP2 SWAP1 PUSH2 0x2187 JUMP JUMPDEST PUSH1 0x40 MLOAD DUP1 SWAP2 SUB SWAP1 RETURN JUMPDEST PUSH2 0x20A PUSH1 0x4 DUP1 CALLDATASIZE SUB DUP2 ADD SWAP1 PUSH2 0x205 SWAP2 SWAP1 PUSH2 0x236F JUMP JUMPDEST PUSH2 0x5C3 JUMP JUMPDEST PUSH1 0x40 MLOAD PUSH2 0x217 SWAP2 SWAP1 PUSH2 0x22E2 JUMP JUMPDEST PUSH1 0x40 MLOAD DUP1 SWAP2 SUB SWAP1 RETURN JUMPDEST PUSH2 0x228 PUSH2 0x5F1 JUMP JUMPDEST PUSH1 0x40 MLOAD PUSH2 0x235 SWAP2 SWAP1 PUSH2 0x23DA JUMP JUMPDEST PUSH1 0x40 MLOAD DUP1 SWAP2 SUB SWAP1 RETURN JUMPDEST PUSH2 0x258 PUSH1 0x4 DUP1 CALLDATASIZE SUB DUP2 ADD SWAP1 PUSH2 0x253 SWAP2 SWAP1 PUSH2 0x2454 JUMP JUMPDEST PUSH2 0x5F9 JUMP JUMPDEST PUSH1 0x40 MLOAD PUSH2 0x265 SWAP2 SWAP1 PUSH2 0x25A1 JUMP JUMPDEST PUSH1 0x40 MLOAD DUP1 SWAP2 SUB SWAP1 RETURN JUMPDEST PUSH2 0x276 PUSH2 0xB61 JUMP JUMPDEST PUSH1 0x40 MLOAD PUSH2 0x283 SWAP2 SWAP1 PUSH2 0x2356 JUMP JUMPDEST PUSH1 0x40 MLOAD DUP1 SWAP2 SUB SWAP1 RETURN JUMPDEST PUSH2 0x2A6 PUSH1 0x4 DUP1 CALLDATASIZE SUB DUP2 ADD SWAP1 PUSH2 0x2A1 SWAP2 SWAP1 PUSH2 0x25C1 JUMP JUMPDEST PUSH2 0xB86 JUMP JUMPDEST PUSH1 0x40 MLOAD PUSH2 0x2B3 SWAP2 SWAP1 PUSH2 0x2187 JUMP JUMPDEST PUSH1 0x40 MLOAD DUP1 SWAP2 SUB SWAP1 RETURN JUMPDEST PUSH2 0x2C4 PUSH2 0xBCB JUMP JUMPDEST PUSH1 0x40 MLOAD PUSH2 0x2D1 SWAP2 SWAP1 PUSH2 0x2210 JUMP JUMPDEST PUSH1 0x40 MLOAD DUP1 SWAP2 SUB SWAP1 RETURN JUMPDEST PUSH2 0x2F4 PUSH1 0x4 DUP1 CALLDATASIZE SUB DUP2 ADD SWAP1 PUSH2 0x2EF SWAP2 SWAP1 PUSH2 0x228A JUMP JUMPDEST PUSH2 0xC5B JUMP JUMPDEST PUSH1 0x40 MLOAD PUSH2 0x301 SWAP2 SWAP1 PUSH2 0x22E2 JUMP JUMPDEST PUSH1 0x40 MLOAD DUP1 SWAP2 SUB SWAP1 RETURN JUMPDEST PUSH2 0x324 PUSH1 0x4 DUP1 CALLDATASIZE SUB DUP2 ADD SWAP1 PUSH2 0x31F SWAP2 SWAP1 PUSH2 0x25EC JUMP JUMPDEST PUSH2 0xC7D JUMP JUMPDEST PUSH1 0x40 MLOAD PUSH2 0x331 SWAP2 SWAP1 PUSH2 0x2187 JUMP JUMPDEST PUSH1 0x40 MLOAD DUP1 SWAP2 SUB SWAP1 RETURN JUMPDEST PUSH2 0x354 PUSH1 0x4 DUP1 CALLDATASIZE SUB DUP2 ADD SWAP1 PUSH2 0x34F SWAP2 SWAP1 PUSH2 0x262A JUMP JUMPDEST PUSH2 0xE18 JUMP JUMPDEST PUSH1 0x40 MLOAD PUSH2 0x362 SWAP3 SWAP2 SWAP1 PUSH2 0x26C7 JUMP JUMPDEST PUSH1 0x40 MLOAD DUP1 SWAP2 SUB SWAP1 RETURN JUMPDEST PUSH2 0x373 PUSH2 0x141B JUMP JUMPDEST PUSH1 0x40 MLOAD PUSH2 0x380 SWAP2 SWAP1 PUSH2 0x2187 JUMP JUMPDEST PUSH1 0x40 MLOAD DUP1 SWAP2 SUB SWAP1 RETURN JUMPDEST PUSH2 0x3A3 PUSH1 0x4 DUP1 CALLDATASIZE SUB DUP2 ADD SWAP1 PUSH2 0x39E SWAP2 SWAP1 PUSH2 0x25EC JUMP JUMPDEST PUSH2 0x1421 JUMP JUMPDEST PUSH1 0x40 MLOAD PUSH2 0x3B0 SWAP2 SWAP1 PUSH2 0x2187 JUMP JUMPDEST PUSH1 0x40 MLOAD DUP1 SWAP2 SUB SWAP1 RETURN JUMPDEST PUSH2 0x3D3 PUSH1 0x4 DUP1 CALLDATASIZE SUB DUP2 ADD SWAP1 PUSH2 0x3CE SWAP2 SWAP1 PUSH2 0x26EE JUMP JUMPDEST PUSH2 0x14A3 JUMP JUMPDEST PUSH1 0x40 MLOAD PUSH2 0x3E2 SWAP4 SWAP3 SWAP2 SWAP1 PUSH2 0x279F JUMP JUMPDEST PUSH1 0x40 MLOAD DUP1 SWAP2 SUB SWAP1 RETURN JUMPDEST PUSH0 PUSH0 DUP5 GT PUSH2 0x42E JUMPI PUSH1 0x40 MLOAD PUSH32 0x8C379A000000000000000000000000000000000000000000000000000000000 DUP2 MSTORE PUSH1 0x4 ADD PUSH2 0x425 SWAP1 PUSH2 0x281E JUMP JUMPDEST PUSH1 0x40 MLOAD DUP1 SWAP2 SUB SWAP1 REVERT JUMPDEST PUSH0 DUP4 GT PUSH2 0x470 JUMPI PUSH1 0x40 MLOAD PUSH32 0x8C379A000000000000000000000000000000000000000000000000000000000 DUP2 MSTORE PUSH1 0x4 ADD PUSH2 0x467 SWAP1 PUSH2 0x2886 JUMP JUMPDEST PUSH1 0x40 MLOAD DUP1 SWAP2 SUB SWAP1 REVERT JUMPDEST PUSH0 DUP3 GT PUSH2 0x4B2 JUMPI PUSH1 0x40 MLOAD PUSH32 0x8C379A000000000000000000000000000000000000000000000000000000000 DUP2 MSTORE PUSH1 0x4 ADD PUSH2 0x4A9 SWAP1 PUSH2 0x28EE JUMP JUMPDEST PUSH1 0x40 MLOAD DUP1 SWAP2 SUB SWAP1 REVERT JUMPDEST DUP4 DUP4 PUSH2 0x4BE SWAP2 SWAP1 PUSH2 0x2939 JUMP JUMPDEST DUP3 DUP6 PUSH2 0x4CA SWAP2 SWAP1 PUSH2 0x296C JUMP JUMPDEST PUSH2 0x4D4 SWAP2 SWAP1 PUSH2 0x29DA JUMP JUMPDEST SWAP1 POP SWAP4 SWAP3 POP POP POP JUMP JUMPDEST PUSH1 0x60 PUSH1 0x3 DUP1 SLOAD PUSH2 0x4EC SWAP1 PUSH2 0x2A37 JUMP JUMPDEST DUP1 PUSH1 0x1F ADD PUSH1 0x20 DUP1 SWAP2 DIV MUL PUSH1 0x20 ADD PUSH1 0x40 MLOAD SWAP1 DUP2 ADD PUSH1 0x40 MSTORE DUP1 SWAP3 SWAP2 SWAP1 DUP2 DUP2 MSTORE PUSH1 0x20 ADD DUP3 DUP1 SLOAD PUSH2 0x518 SWAP1 PUSH2 0x2A37 JUMP JUMPDEST DUP1 ISZERO PUSH2 0x563 JUMPI DUP1 PUSH1 0x1F LT PUSH2 0x53A JUMPI PUSH2 0x100 DUP1 DUP4 SLOAD DIV MUL DUP4 MSTORE SWAP2 PUSH1 0x20 ADD SWAP2 PUSH2 0x563 JUMP JUMPDEST DUP3 ADD SWAP2 SWAP1 PUSH0 MSTORE PUSH1 0x20 PUSH0 KECCAK256 SWAP1 JUMPDEST DUP2 SLOAD DUP2 MSTORE SWAP1 PUSH1 0x1 ADD SWAP1 PUSH1 0x20 ADD DUP1 DUP4 GT PUSH2 0x546 JUMPI DUP3 SWAP1 SUB PUSH1 0x1F AND DUP3 ADD SWAP2 JUMPDEST POP POP POP POP POP SWAP1 POP SWAP1 JUMP JUMPDEST PUSH0 PUSH0 PUSH2 0x577 PUSH2 0x18D1 JUMP JUMPDEST SWAP1 POP PUSH2 0x584 DUP2 DUP6 DUP6 PUSH2 0x18D8 JUMP JUMPDEST PUSH1 0x1 SWAP2 POP POP SWAP3 SWAP2 POP POP JUMP JUMPDEST PUSH1 0x5 PUSH0 SWAP1 SLOAD SWAP1 PUSH2 0x100 EXP SWAP1 DIV PUSH20 0xFFFFFFFFFFFFFFFFFFFFFFFFFFFFFFFFFFFFFFFF AND DUP2 JUMP JUMPDEST PUSH0 PUSH1 0x2 SLOAD SWAP1 POP SWAP1 JUMP JUMPDEST PUSH1 0x8 SLOAD DUP2 JUMP JUMPDEST PUSH0 PUSH0 PUSH2 0x5CD PUSH2 0x18D1 JUMP JUMPDEST SWAP1 POP PUSH2 0x5DA DUP6 DUP3 DUP6 PUSH2 0x18EA JUMP JUMPDEST PUSH2 0x5E5 DUP6 DUP6 DUP6 PUSH2 0x197D JUMP JUMPDEST PUSH1 0x1 SWAP2 POP POP SWAP4 SWAP3 POP POP POP JUMP JUMPDEST PUSH0 PUSH1 0x12 SWAP1 POP SWAP1 JUMP JUMPDEST PUSH1 0x60 PUSH0 DUP8 GT DUP1 ISZERO PUSH2 0x609 JUMPI POP PUSH0 DUP7 GT JUMPDEST PUSH2 0x648 JUMPI PUSH1 0x40 MLOAD PUSH32 0x8C379A000000000000000000000000000000000000000000000000000000000 DUP2 MSTORE PUSH1 0x4 ADD PUSH2 0x63F SWAP1 PUSH2 0x2AB1 JUMP JUMPDEST PUSH1 0x40 MLOAD DUP1 SWAP2 SUB SWAP1 REVERT JUMPDEST DUP2 TIMESTAMP GT ISZERO PUSH2 0x68B JUMPI PUSH1 0x40 MLOAD PUSH32 0x8C379A000000000000000000000000000000000000000000000000000000000 DUP2 MSTORE PUSH1 0x4 ADD PUSH2 0x682 SWAP1 PUSH2 0x2B19 JUMP JUMPDEST PUSH1 0x40 MLOAD DUP1 SWAP2 SUB SWAP1 REVERT JUMPDEST PUSH1 0x2 DUP6 DUP6 SWAP1 POP EQ PUSH2 0x6D1 JUMPI PUSH1 0x40 MLOAD PUSH32 0x8C379A000000000000000000000000000000000000000000000000000000000 DUP2 MSTORE PUSH1 0x4 ADD PUSH2 0x6C8 SWAP1 PUSH2 0x2B81 JUMP JUMPDEST PUSH1 0x40 MLOAD DUP1 SWAP2 SUB SWAP1 REVERT JUMPDEST PUSH0 DUP6 DUP6 PUSH0 DUP2 DUP2 LT PUSH2 0x6E5 JUMPI PUSH2 0x6E4 PUSH2 0x2B9F JUMP JUMPDEST JUMPDEST SWAP1 POP PUSH1 0x20 MUL ADD PUSH1 0x20 DUP2 ADD SWAP1 PUSH2 0x6FA SWAP2 SWAP1 PUSH2 0x25C1 JUMP JUMPDEST SWAP1 POP PUSH0 DUP7 DUP7 PUSH1 0x1 DUP2 DUP2 LT PUSH2 0x711 JUMPI PUSH2 0x710 PUSH2 0x2B9F JUMP JUMPDEST JUMPDEST SWAP1 POP PUSH1 0x20 MUL ADD PUSH1 0x20 DUP2 ADD SWAP1 PUSH2 0x726 SWAP2 SWAP1 PUSH2 0x25C1 JUMP JUMPDEST SWAP1 POP PUSH1 0x5 PUSH0 SWAP1 SLOAD SWAP1 PUSH2 0x100 EXP SWAP1 DIV PUSH20 0xFFFFFFFFFFFFFFFFFFFFFFFFFFFFFFFFFFFFFFFF AND PUSH20 0xFFFFFFFFFFFFFFFFFFFFFFFFFFFFFFFFFFFFFFFF AND DUP3 PUSH20 0xFFFFFFFFFFFFFFFFFFFFFFFFFFFFFFFFFFFFFFFF AND EQ DUP1 ISZERO PUSH2 0x7D0 JUMPI POP PUSH1 0x6 PUSH0 SWAP1 SLOAD SWAP1 PUSH2 0x100 EXP SWAP1 DIV PUSH20 0xFFFFFFFFFFFFFFFFFFFFFFFFFFFFFFFFFFFFFFFF AND PUSH20 0xFFFFFFFFFFFFFFFFFFFFFFFFFFFFFFFFFFFFFFFF AND DUP2 PUSH20 0xFFFFFFFFFFFFFFFFFFFFFFFFFFFFFFFFFFFFFFFF AND EQ JUMPDEST PUSH2 0x80F JUMPI PUSH1 0x40 MLOAD PUSH32 0x8C379A000000000000000000000000000000000000000000000000000000000 DUP2 MSTORE PUSH1 0x4 ADD PUSH2 0x806 SWAP1 PUSH2 0x2C16 JUMP JUMPDEST PUSH1 0x40 MLOAD DUP1 SWAP2 SUB SWAP1 REVERT JUMPDEST PUSH0 DUP3 SWAP1 POP PUSH0 DUP3 SWAP1 POP PUSH0 PUSH1 0x7 SLOAD SWAP1 POP PUSH0 PUSH1 0x8 SLOAD SWAP1 POP PUSH0 DUP14 SWAP1 POP DUP5 PUSH20 0xFFFFFFFFFFFFFFFFFFFFFFFFFFFFFFFFFFFFFFFF AND PUSH4 0x23B872DD CALLER ADDRESS DUP5 PUSH1 0x40 MLOAD DUP5 PUSH4 0xFFFFFFFF AND PUSH1 0xE0 SHL DUP2 MSTORE PUSH1 0x4 ADD PUSH2 0x864 SWAP4 SWAP3 SWAP2 SWAP1 PUSH2 0x2C43 JUMP JUMPDEST PUSH1 0x20 PUSH1 0x40 MLOAD DUP1 DUP4 SUB DUP2 PUSH0 DUP8 GAS CALL ISZERO DUP1 ISZERO PUSH2 0x880 JUMPI RETURNDATASIZE PUSH0 PUSH0 RETURNDATACOPY RETURNDATASIZE PUSH0 REVERT JUMPDEST POP POP POP POP PUSH1 0x40 MLOAD RETURNDATASIZE PUSH1 0x1F NOT PUSH1 0x1F DUP3 ADD AND DUP3 ADD DUP1 PUSH1 0x40 MSTORE POP DUP2 ADD SWAP1 PUSH2 0x8A4 SWAP2 SWAP1 PUSH2 0x2CA2 JUMP JUMPDEST PUSH2 0x8E3 JUMPI PUSH1 0x40 MLOAD PUSH32 0x8C379A000000000000000000000000000000000000000000000000000000000 DUP2 MSTORE PUSH1 0x4 ADD PUSH2 0x8DA SWAP1 PUSH2 0x2D17 JUMP JUMPDEST PUSH1 0x40 MLOAD DUP1 SWAP2 SUB SWAP1 REVERT JUMPDEST PUSH0 DUP2 DUP5 PUSH2 0x8F0 SWAP2 SWAP1 PUSH2 0x2939 JUMP JUMPDEST DUP4 DUP4 PUSH2 0x8FC SWAP2 SWAP1 PUSH2 0x296C JUMP JUMPDEST PUSH2 0x906 SWAP2 SWAP1 PUSH2 0x29DA JUMP JUMPDEST SWAP1 POP DUP14 DUP2 LT ISZERO PUSH2 0x94B JUMPI PUSH1 0x40 MLOAD PUSH32 0x8C379A000000000000000000000000000000000000000000000000000000000 DUP2 MSTORE PUSH1 0x4 ADD PUSH2 0x942 SWAP1 PUSH2 0x2D7F JUMP JUMPDEST PUSH1 0x40 MLOAD DUP1 SWAP2 SUB SWAP1 REVERT JUMPDEST DUP5 PUSH20 0xFFFFFFFFFFFFFFFFFFFFFFFFFFFFFFFFFFFFFFFF AND PUSH4 0xA9059CBB DUP13 DUP4 PUSH1 0x40 MLOAD DUP4 PUSH4 0xFFFFFFFF AND PUSH1 0xE0 SHL DUP2 MSTORE PUSH1 0x4 ADD PUSH2 0x986 SWAP3 SWAP2 SWAP1 PUSH2 0x2D9D JUMP JUMPDEST PUSH1 0x20 PUSH1 0x40 MLOAD DUP1 DUP4 SUB DUP2 PUSH0 DUP8 GAS CALL ISZERO DUP1 ISZERO PUSH2 0x9A2 JUMPI RETURNDATASIZE PUSH0 PUSH0 RETURNDATACOPY RETURNDATASIZE PUSH0 REVERT JUMPDEST POP POP POP POP PUSH1 0x40 MLOAD RETURNDATASIZE PUSH1 0x1F NOT PUSH1 0x1F DUP3 ADD AND DUP3 ADD DUP1 PUSH1 0x40 MSTORE POP DUP2 ADD SWAP1 PUSH2 0x9C6 SWAP2 SWAP1 PUSH2 0x2CA2 JUMP JUMPDEST PUSH2 0xA05 JUMPI PUSH1 0x40 MLOAD PUSH32 0x8C379A000000000000000000000000000000000000000000000000000000000 DUP2 MSTORE PUSH1 0x4 ADD PUSH2 0x9FC SWAP1 PUSH2 0x2D17 JUMP JUMPDEST PUSH1 0x40 MLOAD DUP1 SWAP2 SUB SWAP1 REVERT JUMPDEST DUP15 PUSH1 0x7 PUSH0 DUP3 DUP3 SLOAD PUSH2 0xA16 SWAP2 SWAP1 PUSH2 0x2939 JUMP JUMPDEST SWAP3 POP POP DUP2 SWAP1 SSTORE POP DUP1 PUSH1 0x8 PUSH0 DUP3 DUP3 SLOAD PUSH2 0xA2E SWAP2 SWAP1 PUSH2 0x2DC4 JUMP JUMPDEST SWAP3 POP POP DUP2 SWAP1 SSTORE POP PUSH1 0x2 PUSH8 0xFFFFFFFFFFFFFFFF DUP2 GT ISZERO PUSH2 0xA50 JUMPI PUSH2 0xA4F PUSH2 0x2DF7 JUMP JUMPDEST JUMPDEST PUSH1 0x40 MLOAD SWAP1 DUP1 DUP3 MSTORE DUP1 PUSH1 0x20 MUL PUSH1 0x20 ADD DUP3 ADD PUSH1 0x40 MSTORE DUP1 ISZERO PUSH2 0xA7E JUMPI DUP2 PUSH1 0x20 ADD PUSH1 0x20 DUP3 MUL DUP1 CALLDATASIZE DUP4 CALLDATACOPY DUP1 DUP3 ADD SWAP2 POP POP SWAP1 POP JUMPDEST POP SWAP9 POP DUP15 DUP10 PUSH0 DUP2 MLOAD DUP2 LT PUSH2 0xA95 JUMPI PUSH2 0xA94 PUSH2 0x2B9F JUMP JUMPDEST JUMPDEST PUSH1 0x20 MUL PUSH1 0x20 ADD ADD DUP2 DUP2 MSTORE POP POP DUP1 DUP10 PUSH1 0x1 DUP2 MLOAD DUP2 LT PUSH2 0xAB6 JUMPI PUSH2 0xAB5 PUSH2 0x2B9F JUMP JUMPDEST JUMPDEST PUSH1 0x20 MUL PUSH1 0x20 ADD ADD DUP2 DUP2 MSTORE POP POP PUSH1 0x2 PUSH8 0xFFFFFFFFFFFFFFFF DUP2 GT ISZERO PUSH2 0xADD JUMPI PUSH2 0xADC PUSH2 0x2DF7 JUMP JUMPDEST JUMPDEST PUSH1 0x40 MLOAD SWAP1 DUP1 DUP3 MSTORE DUP1 PUSH1 0x20 MUL PUSH1 0x20 ADD DUP3 ADD PUSH1 0x40 MSTORE DUP1 ISZERO PUSH2 0xB0B JUMPI DUP2 PUSH1 0x20 ADD PUSH1 0x20 DUP3 MUL DUP1 CALLDATASIZE DUP4 CALLDATACOPY DUP1 DUP3 ADD SWAP2 POP POP SWAP1 POP JUMPDEST POP SWAP9 POP DUP15 DUP10 PUSH0 DUP2 MLOAD DUP2 LT PUSH2 0xB22 JUMPI PUSH2 0xB21 PUSH2 0x2B9F JUMP JUMPDEST JUMPDEST PUSH1 0x20 MUL PUSH1 0x20 ADD ADD DUP2 DUP2 MSTORE POP POP DUP1 DUP10 PUSH1 0x1 DUP2 MLOAD DUP2 LT PUSH2 0xB43 JUMPI PUSH2 0xB42 PUSH2 0x2B9F JUMP JUMPDEST JUMPDEST PUSH1 0x20 MUL PUSH1 0x20 ADD ADD DUP2 DUP2 MSTORE POP POP POP POP POP POP POP POP POP POP SWAP7 SWAP6 POP POP POP POP POP POP JUMP JUMPDEST PUSH1 0x6 PUSH0 SWAP1 SLOAD SWAP1 PUSH2 0x100 EXP SWAP1 DIV PUSH20 0xFFFFFFFFFFFFFFFFFFFFFFFFFFFFFFFFFFFFFFFF AND DUP2 JUMP JUMPDEST PUSH0 PUSH0 PUSH0 DUP4 PUSH20 0xFFFFFFFFFFFFFFFFFFFFFFFFFFFFFFFFFFFFFFFF AND PUSH20 0xFFFFFFFFFFFFFFFFFFFFFFFFFFFFFFFFFFFFFFFF AND DUP2 MSTORE PUSH1 0x20 ADD SWAP1 DUP2 MSTORE PUSH1 0x20 ADD PUSH0 KECCAK256 SLOAD SWAP1 POP SWAP2 SWAP1 POP JUMP JUMPDEST PUSH1 0x60 PUSH1 0x4 DUP1 SLOAD PUSH2 0xBDA SWAP1 PUSH2 0x2A37 JUMP JUMPDEST DUP1 PUSH1 0x1F ADD PUSH1 0x20 DUP1 SWAP2 DIV MUL PUSH1 0x20 ADD PUSH1 0x40 MLOAD SWAP1 DUP2 ADD PUSH1 0x40 MSTORE DUP1 SWAP3 SWAP2 SWAP1 DUP2 DUP2 MSTORE PUSH1 0x20 ADD DUP3 DUP1 SLOAD PUSH2 0xC06 SWAP1 PUSH2 0x2A37 JUMP JUMPDEST DUP1 ISZERO PUSH2 0xC51 JUMPI DUP1 PUSH1 0x1F LT PUSH2 0xC28 JUMPI PUSH2 0x100 DUP1 DUP4 SLOAD DIV MUL DUP4 MSTORE SWAP2 PUSH1 0x20 ADD SWAP2 PUSH2 0xC51 JUMP JUMPDEST DUP3 ADD SWAP2 SWAP1 PUSH0 MSTORE PUSH1 0x20 PUSH0 KECCAK256 SWAP1 JUMPDEST DUP2 SLOAD DUP2 MSTORE SWAP1 PUSH1 0x1 ADD SWAP1 PUSH1 0x20 ADD DUP1 DUP4 GT PUSH2 0xC34 JUMPI DUP3 SWAP1 SUB PUSH1 0x1F AND DUP3 ADD SWAP2 JUMPDEST POP POP POP POP POP SWAP1 POP SWAP1 JUMP JUMPDEST PUSH0 PUSH0 PUSH2 0xC65 PUSH2 0x18D1 JUMP JUMPDEST SWAP1 POP PUSH2 0xC72 DUP2 DUP6 DUP6 PUSH2 0x197D JUMP JUMPDEST PUSH1 0x1 SWAP2 POP POP SWAP3 SWAP2 POP POP JUMP JUMPDEST PUSH0 PUSH1 0x5 PUSH0 SWAP1 SLOAD SWAP1 PUSH2 0x100 EXP SWAP1 DIV PUSH20 0xFFFFFFFFFFFFFFFFFFFFFFFFFFFFFFFFFFFFFFFF AND PUSH20 0xFFFFFFFFFFFFFFFFFFFFFFFFFFFFFFFFFFFFFFFF AND DUP4 PUSH20 0xFFFFFFFFFFFFFFFFFFFFFFFFFFFFFFFFFFFFFFFF AND EQ DUP1 ISZERO PUSH2 0xD26 JUMPI POP PUSH1 0x6 PUSH0 SWAP1 SLOAD SWAP1 PUSH2 0x100 EXP SWAP1 DIV PUSH20 0xFFFFFFFFFFFFFFFFFFFFFFFFFFFFFFFFFFFFFFFF AND PUSH20 0xFFFFFFFFFFFFFFFFFFFFFFFFFFFFFFFFFFFFFFFF AND DUP3 PUSH20 0xFFFFFFFFFFFFFFFFFFFFFFFFFFFFFFFFFFFFFFFF AND EQ JUMPDEST PUSH2 0xD65 JUMPI PUSH1 0x40 MLOAD PUSH32 0x8C379A000000000000000000000000000000000000000000000000000000000 DUP2 MSTORE PUSH1 0x4 ADD PUSH2 0xD5C SWAP1 PUSH2 0x2C16 JUMP JUMPDEST PUSH1 0x40 MLOAD DUP1 SWAP2 SUB SWAP1 REVERT JUMPDEST PUSH0 PUSH1 0x7 SLOAD GT PUSH2 0xDA9 JUMPI PUSH1 0x40 MLOAD PUSH32 0x8C379A000000000000000000000000000000000000000000000000000000000 DUP2 MSTORE PUSH1 0x4 ADD PUSH2 0xDA0 SWAP1 PUSH2 0x2E6E JUMP JUMPDEST PUSH1 0x40 MLOAD DUP1 SWAP2 SUB SWAP1 REVERT JUMPDEST PUSH0 PUSH1 0x8 SLOAD GT PUSH2 0xDED JUMPI PUSH1 0x40 MLOAD PUSH32 0x8C379A000000000000000000000000000000000000000000000000000000000 DUP2 MSTORE PUSH1 0x4 ADD PUSH2 0xDE4 SWAP1 PUSH2 0x2ED6 JUMP JUMPDEST PUSH1 0x40 MLOAD DUP1 SWAP2 SUB SWAP1 REVERT JUMPDEST PUSH1 0x7 SLOAD PUSH8 0xDE0B6B3A7640000 PUSH1 0x8 SLOAD PUSH2 0xE06 SWAP2 SWAP1 PUSH2 0x296C JUMP JUMPDEST PUSH2 0xE10 SWAP2 SWAP1 PUSH2 0x29DA JUMP JUMPDEST SWAP1 POP SWAP3 SWAP2 POP POP JUMP JUMPDEST PUSH0 PUSH0 PUSH1 0x5 PUSH0 SWAP1 SLOAD SWAP1 PUSH2 0x100 EXP SWAP1 DIV PUSH20 0xFFFFFFFFFFFFFFFFFFFFFFFFFFFFFFFFFFFFFFFF AND PUSH20 0xFFFFFFFFFFFFFFFFFFFFFFFFFFFFFFFFFFFFFFFF AND DUP10 PUSH20 0xFFFFFFFFFFFFFFFFFFFFFFFFFFFFFFFFFFFFFFFF AND EQ DUP1 ISZERO PUSH2 0xEC2 JUMPI POP PUSH1 0x6 PUSH0 SWAP1 SLOAD SWAP1 PUSH2 0x100 EXP SWAP1 DIV PUSH20 0xFFFFFFFFFFFFFFFFFFFFFFFFFFFFFFFFFFFFFFFF AND PUSH20 0xFFFFFFFFFFFFFFFFFFFFFFFFFFFFFFFFFFFFFFFF AND DUP9 PUSH20 0xFFFFFFFFFFFFFFFFFFFFFFFFFFFFFFFFFFFFFFFF AND EQ JUMPDEST PUSH2 0xF01 JUMPI PUSH1 0x40 MLOAD PUSH32 0x8C379A000000000000000000000000000000000000000000000000000000000 DUP2 MSTORE PUSH1 0x4 ADD PUSH2 0xEF8 SWAP1 PUSH2 0x2C16 JUMP JUMPDEST PUSH1 0x40 MLOAD DUP1 SWAP2 SUB SWAP1 REVERT JUMPDEST DUP3 TIMESTAMP GT ISZERO PUSH2 0xF44 JUMPI PUSH1 0x40 MLOAD PUSH32 0x8C379A000000000000000000000000000000000000000000000000000000000 DUP2 MSTORE PUSH1 0x4 ADD PUSH2 0xF3B SWAP1 PUSH2 0x2B19 JUMP JUMPDEST PUSH1 0x40 MLOAD DUP1 SWAP2 SUB SWAP1 REVERT JUMPDEST PUSH0 DUP8 GT PUSH2 0xF86 JUMPI PUSH1 0x40 MLOAD PUSH32 0x8C379A000000000000000000000000000000000000000000000000000000000 DUP2 MSTORE PUSH1 0x4 ADD PUSH2 0xF7D SWAP1 PUSH2 0x2F3E JUMP JUMPDEST PUSH1 0x40 MLOAD DUP1 SWAP2 SUB SWAP1 REVERT JUMPDEST PUSH0 DUP6 LT ISZERO PUSH2 0xFC9 JUMPI PUSH1 0x40 MLOAD PUSH32 0x8C379A000000000000000000000000000000000000000000000000000000000 DUP2 MSTORE PUSH1 0x4 ADD PUSH2 0xFC0 SWAP1 PUSH2 0x2FA6 JUMP JUMPDEST PUSH1 0x40 MLOAD DUP1 SWAP2 SUB SWAP1 REVERT JUMPDEST PUSH0 DUP7 LT ISZERO PUSH2 0x100C JUMPI PUSH1 0x40 MLOAD PUSH32 0x8C379A000000000000000000000000000000000000000000000000000000000 DUP2 MSTORE PUSH1 0x4 ADD PUSH2 0x1003 SWAP1 PUSH2 0x300E JUMP JUMPDEST PUSH1 0x40 MLOAD DUP1 SWAP2 SUB SWAP1 REVERT JUMPDEST PUSH32 0x7CDB51E9DBBC205231228146C3246E7F914AA6D4A33170E43ECC8E3593481D1A PUSH1 0x40 MLOAD PUSH2 0x1039 SWAP1 PUSH2 0x309C JUMP JUMPDEST PUSH1 0x40 MLOAD DUP1 SWAP2 SUB SWAP1 LOG1 PUSH0 PUSH2 0x104A PUSH2 0x5B4 JUMP JUMPDEST SWAP1 POP PUSH0 DUP2 GT PUSH2 0x108E JUMPI PUSH1 0x40 MLOAD PUSH32 0x8C379A000000000000000000000000000000000000000000000000000000000 DUP2 MSTORE PUSH1 0x4 ADD PUSH2 0x1085 SWAP1 PUSH2 0x3104 JUMP JUMPDEST PUSH1 0x40 MLOAD DUP1 SWAP2 SUB SWAP1 REVERT JUMPDEST DUP1 PUSH1 0x7 SLOAD DUP10 PUSH2 0x109D SWAP2 SWAP1 PUSH2 0x296C JUMP JUMPDEST PUSH2 0x10A7 SWAP2 SWAP1 PUSH2 0x29DA JUMP JUMPDEST SWAP3 POP DUP1 PUSH1 0x8 SLOAD DUP10 PUSH2 0x10B8 SWAP2 SWAP1 PUSH2 0x296C JUMP JUMPDEST PUSH2 0x10C2 SWAP2 SWAP1 PUSH2 0x29DA JUMP JUMPDEST SWAP2 POP DUP7 DUP4 LT ISZERO PUSH2 0x1107 JUMPI PUSH1 0x40 MLOAD PUSH32 0x8C379A000000000000000000000000000000000000000000000000000000000 DUP2 MSTORE PUSH1 0x4 ADD PUSH2 0x10FE SWAP1 PUSH2 0x316C JUMP JUMPDEST PUSH1 0x40 MLOAD DUP1 SWAP2 SUB SWAP1 REVERT JUMPDEST DUP6 DUP3 LT ISZERO PUSH2 0x114A JUMPI PUSH1 0x40 MLOAD PUSH32 0x8C379A000000000000000000000000000000000000000000000000000000000 DUP2 MSTORE PUSH1 0x4 ADD PUSH2 0x1141 SWAP1 PUSH2 0x31D4 JUMP JUMPDEST PUSH1 0x40 MLOAD DUP1 SWAP2 SUB SWAP1 REVERT JUMPDEST PUSH32 0x7CDB51E9DBBC205231228146C3246E7F914AA6D4A33170E43ECC8E3593481D1A PUSH1 0x40 MLOAD PUSH2 0x1177 SWAP1 PUSH2 0x323C JUMP JUMPDEST PUSH1 0x40 MLOAD DUP1 SWAP2 SUB SWAP1 LOG1 PUSH1 0x5 PUSH0 SWAP1 SLOAD SWAP1 PUSH2 0x100 EXP SWAP1 DIV PUSH20 0xFFFFFFFFFFFFFFFFFFFFFFFFFFFFFFFFFFFFFFFF AND PUSH20 0xFFFFFFFFFFFFFFFFFFFFFFFFFFFFFFFFFFFFFFFF AND PUSH4 0xA9059CBB DUP7 DUP6 PUSH1 0x40 MLOAD DUP4 PUSH4 0xFFFFFFFF AND PUSH1 0xE0 SHL DUP2 MSTORE PUSH1 0x4 ADD PUSH2 0x11DB SWAP3 SWAP2 SWAP1 PUSH2 0x2D9D JUMP JUMPDEST PUSH1 0x20 PUSH1 0x40 MLOAD DUP1 DUP4 SUB DUP2 PUSH0 DUP8 GAS CALL ISZERO DUP1 ISZERO PUSH2 0x11F7 JUMPI RETURNDATASIZE PUSH0 PUSH0 RETURNDATACOPY RETURNDATASIZE PUSH0 REVERT JUMPDEST POP POP POP POP PUSH1 0x40 MLOAD RETURNDATASIZE PUSH1 0x1F NOT PUSH1 0x1F DUP3 ADD AND DUP3 ADD DUP1 PUSH1 0x40 MSTORE POP DUP2 ADD SWAP1 PUSH2 0x121B SWAP2 SWAP1 PUSH2 0x2CA2 JUMP JUMPDEST PUSH2 0x125A JUMPI PUSH1 0x40 MLOAD PUSH32 0x8C379A000000000000000000000000000000000000000000000000000000000 DUP2 MSTORE PUSH1 0x4 ADD PUSH2 0x1251 SWAP1 PUSH2 0x32A4 JUMP JUMPDEST PUSH1 0x40 MLOAD DUP1 SWAP2 SUB SWAP1 REVERT JUMPDEST PUSH1 0x6 PUSH0 SWAP1 SLOAD SWAP1 PUSH2 0x100 EXP SWAP1 DIV PUSH20 0xFFFFFFFFFFFFFFFFFFFFFFFFFFFFFFFFFFFFFFFF AND PUSH20 0xFFFFFFFFFFFFFFFFFFFFFFFFFFFFFFFFFFFFFFFF AND PUSH4 0xA9059CBB DUP7 DUP5 PUSH1 0x40 MLOAD DUP4 PUSH4 0xFFFFFFFF AND PUSH1 0xE0 SHL DUP2 MSTORE PUSH1 0x4 ADD PUSH2 0x12B6 SWAP3 SWAP2 SWAP1 PUSH2 0x2D9D JUMP JUMPDEST PUSH1 0x20 PUSH1 0x40 MLOAD DUP1 DUP4 SUB DUP2 PUSH0 DUP8 GAS CALL ISZERO DUP1 ISZERO PUSH2 0x12D2 JUMPI RETURNDATASIZE PUSH0 PUSH0 RETURNDATACOPY RETURNDATASIZE PUSH0 REVERT JUMPDEST POP POP POP POP PUSH1 0x40 MLOAD RETURNDATASIZE PUSH1 0x1F NOT PUSH1 0x1F DUP3 ADD AND DUP3 ADD DUP1 PUSH1 0x40 MSTORE POP DUP2 ADD SWAP1 PUSH2 0x12F6 SWAP2 SWAP1 PUSH2 0x2CA2 JUMP JUMPDEST PUSH2 0x1335 JUMPI PUSH1 0x40 MLOAD PUSH32 0x8C379A000000000000000000000000000000000000000000000000000000000 DUP2 MSTORE PUSH1 0x4 ADD PUSH2 0x132C SWAP1 PUSH2 0x330C JUMP JUMPDEST PUSH1 0x40 MLOAD DUP1 SWAP2 SUB SWAP1 REVERT JUMPDEST PUSH32 0x7CDB51E9DBBC205231228146C3246E7F914AA6D4A33170E43ECC8E3593481D1A PUSH1 0x40 MLOAD PUSH2 0x1362 SWAP1 PUSH2 0x3374 JUMP JUMPDEST PUSH1 0x40 MLOAD DUP1 SWAP2 SUB SWAP1 LOG1 PUSH2 0x1374 DUP6 DUP10 PUSH2 0x1A6D JUMP JUMPDEST PUSH32 0x7CDB51E9DBBC205231228146C3246E7F914AA6D4A33170E43ECC8E3593481D1A PUSH1 0x40 MLOAD PUSH2 0x13A1 SWAP1 PUSH2 0x33DC JUMP JUMPDEST PUSH1 0x40 MLOAD DUP1 SWAP2 SUB SWAP1 LOG1 DUP3 PUSH1 0x7 PUSH0 DUP3 DUP3 SLOAD PUSH2 0x13BA SWAP2 SWAP1 PUSH2 0x2DC4 JUMP JUMPDEST SWAP3 POP POP DUP2 SWAP1 SSTORE POP DUP2 PUSH1 0x8 PUSH0 DUP3 DUP3 SLOAD PUSH2 0x13D2 SWAP2 SWAP1 PUSH2 0x2DC4 JUMP JUMPDEST SWAP3 POP POP DUP2 SWAP1 SSTORE POP PUSH32 0x7CDB51E9DBBC205231228146C3246E7F914AA6D4A33170E43ECC8E3593481D1A PUSH1 0x40 MLOAD PUSH2 0x1406 SWAP1 PUSH2 0x3444 JUMP JUMPDEST PUSH1 0x40 MLOAD DUP1 SWAP2 SUB SWAP1 LOG1 POP SWAP8 POP SWAP8 SWAP6 POP POP POP POP POP POP JUMP JUMPDEST PUSH1 0x7 SLOAD DUP2 JUMP JUMPDEST PUSH0 PUSH1 0x1 PUSH0 DUP5 PUSH20 0xFFFFFFFFFFFFFFFFFFFFFFFFFFFFFFFFFFFFFFFF AND PUSH20 0xFFFFFFFFFFFFFFFFFFFFFFFFFFFFFFFFFFFFFFFF AND DUP2 MSTORE PUSH1 0x20 ADD SWAP1 DUP2 MSTORE PUSH1 0x20 ADD PUSH0 KECCAK256 PUSH0 DUP4 PUSH20 0xFFFFFFFFFFFFFFFFFFFFFFFFFFFFFFFFFFFFFFFF AND PUSH20 0xFFFFFFFFFFFFFFFFFFFFFFFFFFFFFFFFFFFFFFFF AND DUP2 MSTORE PUSH1 0x20 ADD SWAP1 DUP2 MSTORE PUSH1 0x20 ADD PUSH0 KECCAK256 SLOAD SWAP1 POP SWAP3 SWAP2 POP POP JUMP JUMPDEST PUSH0 PUSH0 PUSH0 DUP4 TIMESTAMP GT ISZERO PUSH2 0x14E9 JUMPI PUSH1 0x40 MLOAD PUSH32 0x8C379A000000000000000000000000000000000000000000000000000000000 DUP2 MSTORE PUSH1 0x4 ADD PUSH2 0x14E0 SWAP1 PUSH2 0x2B19 JUMP JUMPDEST PUSH1 0x40 MLOAD DUP1 SWAP2 SUB SWAP1 REVERT JUMPDEST PUSH1 0x5 PUSH0 SWAP1 SLOAD SWAP1 PUSH2 0x100 EXP SWAP1 DIV PUSH20 0xFFFFFFFFFFFFFFFFFFFFFFFFFFFFFFFFFFFFFFFF AND PUSH20 0xFFFFFFFFFFFFFFFFFFFFFFFFFFFFFFFFFFFFFFFF AND DUP12 PUSH20 0xFFFFFFFFFFFFFFFFFFFFFFFFFFFFFFFFFFFFFFFF AND EQ DUP1 ISZERO PUSH2 0x1591 JUMPI POP PUSH1 0x6 PUSH0 SWAP1 SLOAD SWAP1 PUSH2 0x100 EXP SWAP1 DIV PUSH20 0xFFFFFFFFFFFFFFFFFFFFFFFFFFFFFFFFFFFFFFFF AND PUSH20 0xFFFFFFFFFFFFFFFFFFFFFFFFFFFFFFFFFFFFFFFF AND DUP11 PUSH20 0xFFFFFFFFFFFFFFFFFFFFFFFFFFFFFFFFFFFFFFFF AND EQ JUMPDEST PUSH2 0x15D0 JUMPI PUSH1 0x40 MLOAD PUSH32 0x8C379A000000000000000000000000000000000000000000000000000000000 DUP2 MSTORE PUSH1 0x4 ADD PUSH2 0x15C7 SWAP1 PUSH2 0x2C16 JUMP JUMPDEST PUSH1 0x40 MLOAD DUP1 SWAP2 SUB SWAP1 REVERT JUMPDEST PUSH2 0x15DC DUP10 DUP10 DUP10 DUP10 PUSH2 0x1AEC JUMP JUMPDEST DUP1 SWAP4 POP DUP2 SWAP5 POP POP POP PUSH32 0x7CDB51E9DBBC205231228146C3246E7F914AA6D4A33170E43ECC8E3593481D1A PUSH1 0x40 MLOAD PUSH2 0x1611 SWAP1 PUSH2 0x34AC JUMP JUMPDEST PUSH1 0x40 MLOAD DUP1 SWAP2 SUB SWAP1 LOG1 PUSH1 0x5 PUSH0 SWAP1 SLOAD SWAP1 PUSH2 0x100 EXP SWAP1 DIV PUSH20 0xFFFFFFFFFFFFFFFFFFFFFFFFFFFFFFFFFFFFFFFF AND PUSH20 0xFFFFFFFFFFFFFFFFFFFFFFFFFFFFFFFFFFFFFFFF AND PUSH4 0x23B872DD CALLER ADDRESS DUP7 PUSH1 0x40 MLOAD DUP5 PUSH4 0xFFFFFFFF AND PUSH1 0xE0 SHL DUP2 MSTORE PUSH1 0x4 ADD PUSH2 0x1677 SWAP4 SWAP3 SWAP2 SWAP1 PUSH2 0x2C43 JUMP JUMPDEST PUSH1 0x20 PUSH1 0x40 MLOAD DUP1 DUP4 SUB DUP2 PUSH0 DUP8 GAS CALL ISZERO DUP1 ISZERO PUSH2 0x1693 JUMPI RETURNDATASIZE PUSH0 PUSH0 RETURNDATACOPY RETURNDATASIZE PUSH0 REVERT JUMPDEST POP POP POP POP PUSH1 0x40 MLOAD RETURNDATASIZE PUSH1 0x1F NOT PUSH1 0x1F DUP3 ADD AND DUP3 ADD DUP1 PUSH1 0x40 MSTORE POP DUP2 ADD SWAP1 PUSH2 0x16B7 SWAP2 SWAP1 PUSH2 0x2CA2 JUMP JUMPDEST PUSH2 0x16F6 JUMPI PUSH1 0x40 MLOAD PUSH32 0x8C379A000000000000000000000000000000000000000000000000000000000 DUP2 MSTORE PUSH1 0x4 ADD PUSH2 0x16ED SWAP1 PUSH2 0x3514 JUMP JUMPDEST PUSH1 0x40 MLOAD DUP1 SWAP2 SUB SWAP1 REVERT JUMPDEST PUSH1 0x6 PUSH0 SWAP1 SLOAD SWAP1 PUSH2 0x100 EXP SWAP1 DIV PUSH20 0xFFFFFFFFFFFFFFFFFFFFFFFFFFFFFFFFFFFFFFFF AND PUSH20 0xFFFFFFFFFFFFFFFFFFFFFFFFFFFFFFFFFFFFFFFF AND PUSH4 0x23B872DD CALLER ADDRESS DUP6 PUSH1 0x40 MLOAD DUP5 PUSH4 0xFFFFFFFF AND PUSH1 0xE0 SHL DUP2 MSTORE PUSH1 0x4 ADD PUSH2 0x1754 SWAP4 SWAP3 SWAP2 SWAP1 PUSH2 0x2C43 JUMP JUMPDEST PUSH1 0x20 PUSH1 0x40 MLOAD DUP1 DUP4 SUB DUP2 PUSH0 DUP8 GAS CALL ISZERO DUP1 ISZERO PUSH2 0x1770 JUMPI RETURNDATASIZE PUSH0 PUSH0 RETURNDATACOPY RETURNDATASIZE PUSH0 REVERT JUMPDEST POP POP POP POP PUSH1 0x40 MLOAD RETURNDATASIZE PUSH1 0x1F NOT PUSH1 0x1F DUP3 ADD AND DUP3 ADD DUP1 PUSH1 0x40 MSTORE POP DUP2 ADD SWAP1 PUSH2 0x1794 SWAP2 SWAP1 PUSH2 0x2CA2 JUMP JUMPDEST PUSH2 0x17D3 JUMPI PUSH1 0x40 MLOAD PUSH32 0x8C379A000000000000000000000000000000000000000000000000000000000 DUP2 MSTORE PUSH1 0x4 ADD PUSH2 0x17CA SWAP1 PUSH2 0x357C JUMP JUMPDEST PUSH1 0x40 MLOAD DUP1 SWAP2 SUB SWAP1 REVERT JUMPDEST PUSH0 PUSH2 0x17DC PUSH2 0x5B4 JUMP JUMPDEST SUB PUSH2 0x17FC JUMPI PUSH2 0x17F5 DUP3 DUP5 PUSH2 0x17F0 SWAP2 SWAP1 PUSH2 0x296C JUMP JUMPDEST PUSH2 0x1BF7 JUMP JUMPDEST SWAP1 POP PUSH2 0x1847 JUMP JUMPDEST PUSH2 0x1844 PUSH1 0x7 SLOAD PUSH2 0x180A PUSH2 0x5B4 JUMP JUMPDEST DUP6 PUSH2 0x1815 SWAP2 SWAP1 PUSH2 0x296C JUMP JUMPDEST PUSH2 0x181F SWAP2 SWAP1 PUSH2 0x29DA JUMP JUMPDEST PUSH1 0x8 SLOAD PUSH2 0x182A PUSH2 0x5B4 JUMP JUMPDEST DUP6 PUSH2 0x1835 SWAP2 SWAP1 PUSH2 0x296C JUMP JUMPDEST PUSH2 0x183F SWAP2 SWAP1 PUSH2 0x29DA JUMP JUMPDEST PUSH2 0x1C6E JUMP JUMPDEST SWAP1 POP JUMPDEST PUSH0 DUP2 GT PUSH2 0x1889 JUMPI PUSH1 0x40 MLOAD PUSH32 0x8C379A000000000000000000000000000000000000000000000000000000000 DUP2 MSTORE PUSH1 0x4 ADD PUSH2 0x1880 SWAP1 PUSH2 0x2F3E JUMP JUMPDEST PUSH1 0x40 MLOAD DUP1 SWAP2 SUB SWAP1 REVERT JUMPDEST PUSH2 0x1893 DUP6 DUP3 PUSH2 0x1C86 JUMP JUMPDEST DUP3 PUSH1 0x7 PUSH0 DUP3 DUP3 SLOAD PUSH2 0x18A4 SWAP2 SWAP1 PUSH2 0x2939 JUMP JUMPDEST SWAP3 POP POP DUP2 SWAP1 SSTORE POP DUP2 PUSH1 0x8 PUSH0 DUP3 DUP3 SLOAD PUSH2 0x18BC SWAP2 SWAP1 PUSH2 0x2939 JUMP JUMPDEST SWAP3 POP POP DUP2 SWAP1 SSTORE POP SWAP9 POP SWAP9 POP SWAP9 SWAP6 POP POP POP POP POP POP JUMP JUMPDEST PUSH0 CALLER SWAP1 POP SWAP1 JUMP JUMPDEST PUSH2 0x18E5 DUP4 DUP4 DUP4 PUSH1 0x1 PUSH2 0x1D05 JUMP JUMPDEST POP POP POP JUMP JUMPDEST PUSH0 PUSH2 0x18F5 DUP5 DUP5 PUSH2 0x1421 JUMP JUMPDEST SWAP1 POP PUSH32 0xFFFFFFFFFFFFFFFFFFFFFFFFFFFFFFFFFFFFFFFFFFFFFFFFFFFFFFFFFFFFFFFF DUP2 LT ISZERO PUSH2 0x1977 JUMPI DUP2 DUP2 LT ISZERO PUSH2 0x1968 JUMPI DUP3 DUP2 DUP4 PUSH1 0x40 MLOAD PUSH32 0xFB8F41B200000000000000000000000000000000000000000000000000000000 DUP2 MSTORE PUSH1 0x4 ADD PUSH2 0x195F SWAP4 SWAP3 SWAP2 SWAP1 PUSH2 0x359A JUMP JUMPDEST PUSH1 0x40 MLOAD DUP1 SWAP2 SUB SWAP1 REVERT JUMPDEST PUSH2 0x1976 DUP5 DUP5 DUP5 DUP5 SUB PUSH0 PUSH2 0x1D05 JUMP JUMPDEST JUMPDEST POP POP POP POP JUMP JUMPDEST PUSH0 PUSH20 0xFFFFFFFFFFFFFFFFFFFFFFFFFFFFFFFFFFFFFFFF AND DUP4 PUSH20 0xFFFFFFFFFFFFFFFFFFFFFFFFFFFFFFFFFFFFFFFF AND SUB PUSH2 0x19ED JUMPI PUSH0 PUSH1 0x40 MLOAD PUSH32 0x96C6FD1E00000000000000000000000000000000000000000000000000000000 DUP2 MSTORE PUSH1 0x4 ADD PUSH2 0x19E4 SWAP2 SWAP1 PUSH2 0x35CF JUMP JUMPDEST PUSH1 0x40 MLOAD DUP1 SWAP2 SUB SWAP1 REVERT JUMPDEST PUSH0 PUSH20 0xFFFFFFFFFFFFFFFFFFFFFFFFFFFFFFFFFFFFFFFF AND DUP3 PUSH20 0xFFFFFFFFFFFFFFFFFFFFFFFFFFFFFFFFFFFFFFFF AND SUB PUSH2 0x1A5D JUMPI PUSH0 PUSH1 0x40 MLOAD PUSH32 0xEC442F0500000000000000000000000000000000000000000000000000000000 DUP2 MSTORE PUSH1 0x4 ADD PUSH2 0x1A54 SWAP2 SWAP1 PUSH2 0x35CF JUMP JUMPDEST PUSH1 0x40 MLOAD DUP1 SWAP2 SUB SWAP1 REVERT JUMPDEST PUSH2 0x1A68 DUP4 DUP4 DUP4 PUSH2 0x1ED4 JUMP JUMPDEST POP POP POP JUMP JUMPDEST PUSH0 PUSH20 0xFFFFFFFFFFFFFFFFFFFFFFFFFFFFFFFFFFFFFFFF AND DUP3 PUSH20 0xFFFFFFFFFFFFFFFFFFFFFFFFFFFFFFFFFFFFFFFF AND SUB PUSH2 0x1ADD JUMPI PUSH0 PUSH1 0x40 MLOAD PUSH32 0x96C6FD1E00000000000000000000000000000000000000000000000000000000 DUP2 MSTORE PUSH1 0x4 ADD PUSH2 0x1AD4 SWAP2 SWAP1 PUSH2 0x35CF JUMP JUMPDEST PUSH1 0x40 MLOAD DUP1 SWAP2 SUB SWAP1 REVERT JUMPDEST PUSH2 0x1AE8 DUP3 PUSH0 DUP4 PUSH2 0x1ED4 JUMP JUMPDEST POP POP JUMP JUMPDEST PUSH0 PUSH0 PUSH0 PUSH1 0x7 SLOAD EQ DUP1 ISZERO PUSH2 0x1B00 JUMPI POP PUSH0 PUSH1 0x8 SLOAD EQ JUMPDEST ISZERO PUSH2 0x1B10 JUMPI DUP6 SWAP2 POP DUP5 SWAP1 POP PUSH2 0x1BEE JUMP JUMPDEST PUSH0 PUSH1 0x7 SLOAD PUSH1 0x8 SLOAD DUP9 PUSH2 0x1B22 SWAP2 SWAP1 PUSH2 0x296C JUMP JUMPDEST PUSH2 0x1B2C SWAP2 SWAP1 PUSH2 0x29DA JUMP JUMPDEST SWAP1 POP DUP6 DUP2 GT PUSH2 0x1B83 JUMPI DUP4 DUP2 LT ISZERO PUSH2 0x1B78 JUMPI PUSH1 0x40 MLOAD PUSH32 0x8C379A000000000000000000000000000000000000000000000000000000000 DUP2 MSTORE PUSH1 0x4 ADD PUSH2 0x1B6F SWAP1 PUSH2 0x3632 JUMP JUMPDEST PUSH1 0x40 MLOAD DUP1 SWAP2 SUB SWAP1 REVERT JUMPDEST DUP7 SWAP3 POP DUP1 SWAP2 POP PUSH2 0x1BEC JUMP JUMPDEST PUSH0 PUSH1 0x8 SLOAD PUSH1 0x7 SLOAD DUP9 PUSH2 0x1B95 SWAP2 SWAP1 PUSH2 0x296C JUMP JUMPDEST PUSH2 0x1B9F SWAP2 SWAP1 PUSH2 0x29DA JUMP JUMPDEST SWAP1 POP DUP6 DUP2 LT ISZERO PUSH2 0x1BE4 JUMPI PUSH1 0x40 MLOAD PUSH32 0x8C379A000000000000000000000000000000000000000000000000000000000 DUP2 MSTORE PUSH1 0x4 ADD PUSH2 0x1BDB SWAP1 PUSH2 0x369A JUMP JUMPDEST PUSH1 0x40 MLOAD DUP1 SWAP2 SUB SWAP1 REVERT JUMPDEST DUP1 SWAP4 POP DUP7 SWAP3 POP POP JUMPDEST POP JUMPDEST SWAP5 POP SWAP5 SWAP3 POP POP POP JUMP JUMPDEST PUSH0 PUSH1 0x3 DUP3 GT ISZERO PUSH2 0x1C5C JUMPI DUP2 SWAP1 POP PUSH0 PUSH1 0x1 PUSH1 0x2 DUP5 PUSH2 0x1C14 SWAP2 SWAP1 PUSH2 0x29DA JUMP JUMPDEST PUSH2 0x1C1E SWAP2 SWAP1 PUSH2 0x2939 JUMP JUMPDEST SWAP1 POP JUMPDEST DUP2 DUP2 LT ISZERO PUSH2 0x1C56 JUMPI DUP1 SWAP2 POP PUSH1 0x2 DUP2 DUP3 DUP6 PUSH2 0x1C3B SWAP2 SWAP1 PUSH2 0x29DA JUMP JUMPDEST PUSH2 0x1C45 SWAP2 SWAP1 PUSH2 0x2939 JUMP JUMPDEST PUSH2 0x1C4F SWAP2 SWAP1 PUSH2 0x29DA JUMP JUMPDEST SWAP1 POP PUSH2 0x1C21 JUMP JUMPDEST POP PUSH2 0x1C69 JUMP JUMPDEST PUSH0 DUP3 EQ PUSH2 0x1C68 JUMPI PUSH1 0x1 SWAP1 POP JUMPDEST JUMPDEST SWAP2 SWAP1 POP JUMP JUMPDEST PUSH0 DUP2 DUP4 LT PUSH2 0x1C7C JUMPI DUP2 PUSH2 0x1C7E JUMP JUMPDEST DUP3 JUMPDEST SWAP1 POP SWAP3 SWAP2 POP POP JUMP JUMPDEST PUSH0 PUSH20 0xFFFFFFFFFFFFFFFFFFFFFFFFFFFFFFFFFFFFFFFF AND DUP3 PUSH20 0xFFFFFFFFFFFFFFFFFFFFFFFFFFFFFFFFFFFFFFFF AND SUB PUSH2 0x1CF6 JUMPI PUSH0 PUSH1 0x40 MLOAD PUSH32 0xEC442F0500000000000000000000000000000000000000000000000000000000 DUP2 MSTORE PUSH1 0x4 ADD PUSH2 0x1CED SWAP2 SWAP1 PUSH2 0x35CF JUMP JUMPDEST PUSH1 0x40 MLOAD DUP1 SWAP2 SUB SWAP1 REVERT JUMPDEST PUSH2 0x1D01 PUSH0 DUP4 DUP4 PUSH2 0x1ED4 JUMP JUMPDEST POP POP JUMP JUMPDEST PUSH0 PUSH20 0xFFFFFFFFFFFFFFFFFFFFFFFFFFFFFFFFFFFFFFFF AND DUP5 PUSH20 0xFFFFFFFFFFFFFFFFFFFFFFFFFFFFFFFFFFFFFFFF AND SUB PUSH2 0x1D75 JUMPI PUSH0 PUSH1 0x40 MLOAD PUSH32 0xE602DF0500000000000000000000000000000000000000000000000000000000 DUP2 MSTORE PUSH1 0x4 ADD PUSH2 0x1D6C SWAP2 SWAP1 PUSH2 0x35CF JUMP JUMPDEST PUSH1 0x40 MLOAD DUP1 SWAP2 SUB SWAP1 REVERT JUMPDEST PUSH0 PUSH20 0xFFFFFFFFFFFFFFFFFFFFFFFFFFFFFFFFFFFFFFFF AND DUP4 PUSH20 0xFFFFFFFFFFFFFFFFFFFFFFFFFFFFFFFFFFFFFFFF AND SUB PUSH2 0x1DE5 JUMPI PUSH0 PUSH1 0x40 MLOAD PUSH32 0x94280D6200000000000000000000000000000000000000000000000000000000 DUP2 MSTORE PUSH1 0x4 ADD PUSH2 0x1DDC SWAP2 SWAP1 PUSH2 0x35CF JUMP JUMPDEST PUSH1 0x40 MLOAD DUP1 SWAP2 SUB SWAP1 REVERT JUMPDEST DUP2 PUSH1 0x1 PUSH0 DUP7 PUSH20 0xFFFFFFFFFFFFFFFFFFFFFFFFFFFFFFFFFFFFFFFF AND PUSH20 0xFFFFFFFFFFFFFFFFFFFFFFFFFFFFFFFFFFFFFFFF AND DUP2 MSTORE PUSH1 0x20 ADD SWAP1 DUP2 MSTORE PUSH1 0x20 ADD PUSH0 KECCAK256 PUSH0 DUP6 PUSH20 0xFFFFFFFFFFFFFFFFFFFFFFFFFFFFFFFFFFFFFFFF AND PUSH20 0xFFFFFFFFFFFFFFFFFFFFFFFFFFFFFFFFFFFFFFFF AND DUP2 MSTORE PUSH1 0x20 ADD SWAP1 DUP2 MSTORE PUSH1 0x20 ADD PUSH0 KECCAK256 DUP2 SWAP1 SSTORE POP DUP1 ISZERO PUSH2 0x1ECE JUMPI DUP3 PUSH20 0xFFFFFFFFFFFFFFFFFFFFFFFFFFFFFFFFFFFFFFFF AND DUP5 PUSH20 0xFFFFFFFFFFFFFFFFFFFFFFFFFFFFFFFFFFFFFFFF AND PUSH32 0x8C5BE1E5EBEC7D5BD14F71427D1E84F3DD0314C0F7B2291E5B200AC8C7C3B925 DUP5 PUSH1 0x40 MLOAD PUSH2 0x1EC5 SWAP2 SWAP1 PUSH2 0x2187 JUMP JUMPDEST PUSH1 0x40 MLOAD DUP1 SWAP2 SUB SWAP1 LOG3 JUMPDEST POP POP POP POP JUMP JUMPDEST PUSH0 PUSH20 0xFFFFFFFFFFFFFFFFFFFFFFFFFFFFFFFFFFFFFFFF AND DUP4 PUSH20 0xFFFFFFFFFFFFFFFFFFFFFFFFFFFFFFFFFFFFFFFF AND SUB PUSH2 0x1F24 JUMPI DUP1 PUSH1 0x2 PUSH0 DUP3 DUP3 SLOAD PUSH2 0x1F18 SWAP2 SWAP1 PUSH2 0x2939 JUMP JUMPDEST SWAP3 POP POP DUP2 SWAP1 SSTORE POP PUSH2 0x1FF2 JUMP JUMPDEST PUSH0 PUSH0 PUSH0 DUP6 PUSH20 0xFFFFFFFFFFFFFFFFFFFFFFFFFFFFFFFFFFFFFFFF AND PUSH20 0xFFFFFFFFFFFFFFFFFFFFFFFFFFFFFFFFFFFFFFFF AND DUP2 MSTORE PUSH1 0x20 ADD SWAP1 DUP2 MSTORE PUSH1 0x20 ADD PUSH0 KECCAK256 SLOAD SWAP1 POP DUP2 DUP2 LT ISZERO PUSH2 0x1FAD JUMPI DUP4 DUP2 DUP4 PUSH1 0x40 MLOAD PUSH32 0xE450D38C00000000000000000000000000000000000000000000000000000000 DUP2 MSTORE PUSH1 0x4 ADD PUSH2 0x1FA4 SWAP4 SWAP3 SWAP2 SWAP1 PUSH2 0x359A JUMP JUMPDEST PUSH1 0x40 MLOAD DUP1 SWAP2 SUB SWAP1 REVERT JUMPDEST DUP2 DUP2 SUB PUSH0 PUSH0 DUP7 PUSH20 0xFFFFFFFFFFFFFFFFFFFFFFFFFFFFFFFFFFFFFFFF AND PUSH20 0xFFFFFFFFFFFFFFFFFFFFFFFFFFFFFFFFFFFFFFFF AND DUP2 MSTORE PUSH1 0x20 ADD SWAP1 DUP2 MSTORE PUSH1 0x20 ADD PUSH0 KECCAK256 DUP2 SWAP1 SSTORE POP POP JUMPDEST PUSH0 PUSH20 0xFFFFFFFFFFFFFFFFFFFFFFFFFFFFFFFFFFFFFFFF AND DUP3 PUSH20 0xFFFFFFFFFFFFFFFFFFFFFFFFFFFFFFFFFFFFFFFF AND SUB PUSH2 0x2039 JUMPI DUP1 PUSH1 0x2 PUSH0 DUP3 DUP3 SLOAD SUB SWAP3 POP POP DUP2 SWAP1 SSTORE POP PUSH2 0x2083 JUMP JUMPDEST DUP1 PUSH0 PUSH0 DUP5 PUSH20 0xFFFFFFFFFFFFFFFFFFFFFFFFFFFFFFFFFFFFFFFF AND PUSH20 0xFFFFFFFFFFFFFFFFFFFFFFFFFFFFFFFFFFFFFFFF AND DUP2 MSTORE PUSH1 0x20 ADD SWAP1 DUP2 MSTORE PUSH1 0x20 ADD PUSH0 KECCAK256 PUSH0 DUP3 DUP3 SLOAD ADD SWAP3 POP POP DUP2 SWAP1 SSTORE POP JUMPDEST DUP2 PUSH20 0xFFFFFFFFFFFFFFFFFFFFFFFFFFFFFFFFFFFFFFFF AND DUP4 PUSH20 0xFFFFFFFFFFFFFFFFFFFFFFFFFFFFFFFFFFFFFFFF AND PUSH32 0xDDF252AD1BE2C89B69C2B068FC378DAA952BA7F163C4A11628F55A4DF523B3EF DUP4 PUSH1 0x40 MLOAD PUSH2 0x20E0 SWAP2 SWAP1 PUSH2 0x2187 JUMP JUMPDEST PUSH1 0x40 MLOAD DUP1 SWAP2 SUB SWAP1 LOG3 POP POP POP JUMP JUMPDEST PUSH0 PUSH0 REVERT JUMPDEST PUSH0 PUSH0 REVERT JUMPDEST PUSH0 DUP2 SWAP1 POP SWAP2 SWAP1 POP JUMP JUMPDEST PUSH2 0x2107 DUP2 PUSH2 0x20F5 JUMP JUMPDEST DUP2 EQ PUSH2 0x2111 JUMPI PUSH0 PUSH0 REVERT JUMPDEST POP JUMP JUMPDEST PUSH0 DUP2 CALLDATALOAD SWAP1 POP PUSH2 0x2122 DUP2 PUSH2 0x20FE JUMP JUMPDEST SWAP3 SWAP2 POP POP JUMP JUMPDEST PUSH0 PUSH0 PUSH0 PUSH1 0x60 DUP5 DUP7 SUB SLT ISZERO PUSH2 0x213F JUMPI PUSH2 0x213E PUSH2 0x20ED JUMP JUMPDEST JUMPDEST PUSH0 PUSH2 0x214C DUP7 DUP3 DUP8 ADD PUSH2 0x2114 JUMP JUMPDEST SWAP4 POP POP PUSH1 0x20 PUSH2 0x215D DUP7 DUP3 DUP8 ADD PUSH2 0x2114 JUMP JUMPDEST SWAP3 POP POP PUSH1 0x40 PUSH2 0x216E DUP7 DUP3 DUP8 ADD PUSH2 0x2114 JUMP JUMPDEST SWAP2 POP POP SWAP3 POP SWAP3 POP SWAP3 JUMP JUMPDEST PUSH2 0x2181 DUP2 PUSH2 0x20F5 JUMP JUMPDEST DUP3 MSTORE POP POP JUMP JUMPDEST PUSH0 PUSH1 0x20 DUP3 ADD SWAP1 POP PUSH2 0x219A PUSH0 DUP4 ADD DUP5 PUSH2 0x2178 JUMP JUMPDEST SWAP3 SWAP2 POP POP JUMP JUMPDEST PUSH0 DUP2 MLOAD SWAP1 POP SWAP2 SWAP1 POP JUMP JUMPDEST PUSH0 DUP3 DUP3 MSTORE PUSH1 0x20 DUP3 ADD SWAP1 POP SWAP3 SWAP2 POP POP JUMP JUMPDEST DUP3 DUP2 DUP4 MCOPY PUSH0 DUP4 DUP4 ADD MSTORE POP POP POP JUMP JUMPDEST PUSH0 PUSH1 0x1F NOT PUSH1 0x1F DUP4 ADD AND SWAP1 POP SWAP2 SWAP1 POP JUMP JUMPDEST PUSH0 PUSH2 0x21E2 DUP3 PUSH2 0x21A0 JUMP JUMPDEST PUSH2 0x21EC DUP2 DUP6 PUSH2 0x21AA JUMP JUMPDEST SWAP4 POP PUSH2 0x21FC DUP2 DUP6 PUSH1 0x20 DUP7 ADD PUSH2 0x21BA JUMP JUMPDEST PUSH2 0x2205 DUP2 PUSH2 0x21C8 JUMP JUMPDEST DUP5 ADD SWAP2 POP POP SWAP3 SWAP2 POP POP JUMP JUMPDEST PUSH0 PUSH1 0x20 DUP3 ADD SWAP1 POP DUP2 DUP2 SUB PUSH0 DUP4 ADD MSTORE PUSH2 0x2228 DUP2 DUP5 PUSH2 0x21D8 JUMP JUMPDEST SWAP1 POP SWAP3 SWAP2 POP POP JUMP JUMPDEST PUSH0 PUSH20 0xFFFFFFFFFFFFFFFFFFFFFFFFFFFFFFFFFFFFFFFF DUP3 AND SWAP1 POP SWAP2 SWAP1 POP JUMP JUMPDEST PUSH0 PUSH2 0x2259 DUP3 PUSH2 0x2230 JUMP JUMPDEST SWAP1 POP SWAP2 SWAP1 POP JUMP JUMPDEST PUSH2 0x2269 DUP2 PUSH2 0x224F JUMP JUMPDEST DUP2 EQ PUSH2 0x2273 JUMPI PUSH0 PUSH0 REVERT JUMPDEST POP JUMP JUMPDEST PUSH0 DUP2 CALLDATALOAD SWAP1 POP PUSH2 0x2284 DUP2 PUSH2 0x2260 JUMP JUMPDEST SWAP3 SWAP2 POP POP JUMP JUMPDEST PUSH0 PUSH0 PUSH1 0x40 DUP4 DUP6 SUB SLT ISZERO PUSH2 0x22A0 JUMPI PUSH2 0x229F PUSH2 0x20ED JUMP JUMPDEST JUMPDEST PUSH0 PUSH2 0x22AD DUP6 DUP3 DUP7 ADD PUSH2 0x2276 JUMP JUMPDEST SWAP3 POP POP PUSH1 0x20 PUSH2 0x22BE DUP6 DUP3 DUP7 ADD PUSH2 0x2114 JUMP JUMPDEST SWAP2 POP POP SWAP3 POP SWAP3 SWAP1 POP JUMP JUMPDEST PUSH0 DUP2 ISZERO ISZERO SWAP1 POP SWAP2 SWAP1 POP JUMP JUMPDEST PUSH2 0x22DC DUP2 PUSH2 0x22C8 JUMP JUMPDEST DUP3 MSTORE POP POP JUMP JUMPDEST PUSH0 PUSH1 0x20 DUP3 ADD SWAP1 POP PUSH2 0x22F5 PUSH0 DUP4 ADD DUP5 PUSH2 0x22D3 JUMP JUMPDEST SWAP3 SWAP2 POP POP JUMP JUMPDEST PUSH0 DUP2 SWAP1 POP SWAP2 SWAP1 POP JUMP JUMPDEST PUSH0 PUSH2 0x231E PUSH2 0x2319 PUSH2 0x2314 DUP5 PUSH2 0x2230 JUMP JUMPDEST PUSH2 0x22FB JUMP JUMPDEST PUSH2 0x2230 JUMP JUMPDEST SWAP1 POP SWAP2 SWAP1 POP JUMP JUMPDEST PUSH0 PUSH2 0x232F DUP3 PUSH2 0x2304 JUMP JUMPDEST SWAP1 POP SWAP2 SWAP1 POP JUMP JUMPDEST PUSH0 PUSH2 0x2340 DUP3 PUSH2 0x2325 JUMP JUMPDEST SWAP1 POP SWAP2 SWAP1 POP JUMP JUMPDEST PUSH2 0x2350 DUP2 PUSH2 0x2336 JUMP JUMPDEST DUP3 MSTORE POP POP JUMP JUMPDEST PUSH0 PUSH1 0x20 DUP3 ADD SWAP1 POP PUSH2 0x2369 PUSH0 DUP4 ADD DUP5 PUSH2 0x2347 JUMP JUMPDEST SWAP3 SWAP2 POP POP JUMP JUMPDEST PUSH0 PUSH0 PUSH0 PUSH1 0x60 DUP5 DUP7 SUB SLT ISZERO PUSH2 0x2386 JUMPI PUSH2 0x2385 PUSH2 0x20ED JUMP JUMPDEST JUMPDEST PUSH0 PUSH2 0x2393 DUP7 DUP3 DUP8 ADD PUSH2 0x2276 JUMP JUMPDEST SWAP4 POP POP PUSH1 0x20 PUSH2 0x23A4 DUP7 DUP3 DUP8 ADD PUSH2 0x2276 JUMP JUMPDEST SWAP3 POP POP PUSH1 0x40 PUSH2 0x23B5 DUP7 DUP3 DUP8 ADD PUSH2 0x2114 JUMP JUMPDEST SWAP2 POP POP SWAP3 POP SWAP3 POP SWAP3 JUMP JUMPDEST PUSH0 PUSH1 0xFF DUP3 AND SWAP1 POP SWAP2 SWAP1 POP JUMP JUMPDEST PUSH2 0x23D4 DUP2 PUSH2 0x23BF JUMP JUMPDEST DUP3 MSTORE POP POP JUMP JUMPDEST PUSH0 PUSH1 0x20 DUP3 ADD SWAP1 POP PUSH2 0x23ED PUSH0 DUP4 ADD DUP5 PUSH2 0x23CB JUMP JUMPDEST SWAP3 SWAP2 POP POP JUMP JUMPDEST PUSH0 PUSH0 REVERT JUMPDEST PUSH0 PUSH0 REVERT JUMPDEST PUSH0 PUSH0 REVERT JUMPDEST PUSH0 PUSH0 DUP4 PUSH1 0x1F DUP5 ADD SLT PUSH2 0x2414 JUMPI PUSH2 0x2413 PUSH2 0x23F3 JUMP JUMPDEST JUMPDEST DUP3 CALLDATALOAD SWAP1 POP PUSH8 0xFFFFFFFFFFFFFFFF DUP2 GT ISZERO PUSH2 0x2431 JUMPI PUSH2 0x2430 PUSH2 0x23F7 JUMP JUMPDEST JUMPDEST PUSH1 0x20 DUP4 ADD SWAP2 POP DUP4 PUSH1 0x20 DUP3 MUL DUP4 ADD GT ISZERO PUSH2 0x244D JUMPI PUSH2 0x244C PUSH2 0x23FB JUMP JUMPDEST JUMPDEST SWAP3 POP SWAP3 SWAP1 POP JUMP JUMPDEST PUSH0 PUSH0 PUSH0 PUSH0 PUSH0 PUSH0 PUSH1 0xA0 DUP8 DUP10 SUB SLT ISZERO PUSH2 0x246E JUMPI PUSH2 0x246D PUSH2 0x20ED JUMP JUMPDEST JUMPDEST PUSH0 PUSH2 0x247B DUP10 DUP3 DUP11 ADD PUSH2 0x2114 JUMP JUMPDEST SWAP7 POP POP PUSH1 0x20 PUSH2 0x248C DUP10 DUP3 DUP11 ADD PUSH2 0x2114 JUMP JUMPDEST SWAP6 POP POP PUSH1 0x40 DUP8 ADD CALLDATALOAD PUSH8 0xFFFFFFFFFFFFFFFF DUP2 GT ISZERO PUSH2 0x24AD JUMPI PUSH2 0x24AC PUSH2 0x20F1 JUMP JUMPDEST JUMPDEST PUSH2 0x24B9 DUP10 DUP3 DUP11 ADD PUSH2 0x23FF JUMP JUMPDEST SWAP5 POP SWAP5 POP POP PUSH1 0x60 PUSH2 0x24CC DUP10 DUP3 DUP11 ADD PUSH2 0x2276 JUMP JUMPDEST SWAP3 POP POP PUSH1 0x80 PUSH2 0x24DD DUP10 DUP3 DUP11 ADD PUSH2 0x2114 JUMP JUMPDEST SWAP2 POP POP SWAP3 SWAP6 POP SWAP3 SWAP6 POP SWAP3 SWAP6 JUMP JUMPDEST PUSH0 DUP2 MLOAD SWAP1 POP SWAP2 SWAP1 POP JUMP JUMPDEST PUSH0 DUP3 DUP3 MSTORE PUSH1 0x20 DUP3 ADD SWAP1 POP SWAP3 SWAP2 POP POP JUMP JUMPDEST PUSH0 DUP2 SWAP1 POP PUSH1 0x20 DUP3 ADD SWAP1 POP SWAP2 SWAP1 POP JUMP JUMPDEST PUSH2 0x251C DUP2 PUSH2 0x20F5 JUMP JUMPDEST DUP3 MSTORE POP POP JUMP JUMPDEST PUSH0 PUSH2 0x252D DUP4 DUP4 PUSH2 0x2513 JUMP JUMPDEST PUSH1 0x20 DUP4 ADD SWAP1 POP SWAP3 SWAP2 POP POP JUMP JUMPDEST PUSH0 PUSH1 0x20 DUP3 ADD SWAP1 POP SWAP2 SWAP1 POP JUMP JUMPDEST PUSH0 PUSH2 0x254F DUP3 PUSH2 0x24EA JUMP JUMPDEST PUSH2 0x2559 DUP2 DUP6 PUSH2 0x24F4 JUMP JUMPDEST SWAP4 POP PUSH2 0x2564 DUP4 PUSH2 0x2504 JUMP JUMPDEST DUP1 PUSH0 JUMPDEST DUP4 DUP2 LT ISZERO PUSH2 0x2594 JUMPI DUP2 MLOAD PUSH2 0x257B DUP9 DUP3 PUSH2 0x2522 JUMP JUMPDEST SWAP8 POP PUSH2 0x2586 DUP4 PUSH2 0x2539 JUMP JUMPDEST SWAP3 POP POP PUSH1 0x1 DUP2 ADD SWAP1 POP PUSH2 0x2567 JUMP JUMPDEST POP DUP6 SWAP4 POP POP POP POP SWAP3 SWAP2 POP POP JUMP JUMPDEST PUSH0 PUSH1 0x20 DUP3 ADD SWAP1 POP DUP2 DUP2 SUB PUSH0 DUP4 ADD MSTORE PUSH2 0x25B9 DUP2 DUP5 PUSH2 0x2545 JUMP JUMPDEST SWAP1 POP SWAP3 SWAP2 POP POP JUMP JUMPDEST PUSH0 PUSH1 0x20 DUP3 DUP5 SUB SLT ISZERO PUSH2 0x25D6 JUMPI PUSH2 0x25D5 PUSH2 0x20ED JUMP JUMPDEST JUMPDEST PUSH0 PUSH2 0x25E3 DUP5 DUP3 DUP6 ADD PUSH2 0x2276 JUMP JUMPDEST SWAP2 POP POP SWAP3 SWAP2 POP POP JUMP JUMPDEST PUSH0 PUSH0 PUSH1 0x40 DUP4 DUP6 SUB SLT ISZERO PUSH2 0x2602 JUMPI PUSH2 0x2601 PUSH2 0x20ED JUMP JUMPDEST JUMPDEST PUSH0 PUSH2 0x260F DUP6 DUP3 DUP7 ADD PUSH2 0x2276 JUMP JUMPDEST SWAP3 POP POP PUSH1 0x20 PUSH2 0x2620 DUP6 DUP3 DUP7 ADD PUSH2 0x2276 JUMP JUMPDEST SWAP2 POP POP SWAP3 POP SWAP3 SWAP1 POP JUMP JUMPDEST PUSH0 PUSH0 PUSH0 PUSH0 PUSH0 PUSH0 PUSH0 PUSH1 0xE0 DUP9 DUP11 SUB SLT ISZERO PUSH2 0x2645 JUMPI PUSH2 0x2644 PUSH2 0x20ED JUMP JUMPDEST JUMPDEST PUSH0 PUSH2 0x2652 DUP11 DUP3 DUP12 ADD PUSH2 0x2276 JUMP JUMPDEST SWAP8 POP POP PUSH1 0x20 PUSH2 0x2663 DUP11 DUP3 DUP12 ADD PUSH2 0x2276 JUMP JUMPDEST SWAP7 POP POP PUSH1 0x40 PUSH2 0x2674 DUP11 DUP3 DUP12 ADD PUSH2 0x2114 JUMP JUMPDEST SWAP6 POP POP PUSH1 0x60 PUSH2 0x2685 DUP11 DUP3 DUP12 ADD PUSH2 0x2114 JUMP JUMPDEST SWAP5 POP POP PUSH1 0x80 PUSH2 0x2696 DUP11 DUP3 DUP12 ADD PUSH2 0x2114 JUMP JUMPDEST SWAP4 POP POP PUSH1 0xA0 PUSH2 0x26A7 DUP11 DUP3 DUP12 ADD PUSH2 0x2276 JUMP JUMPDEST SWAP3 POP POP PUSH1 0xC0 PUSH2 0x26B8 DUP11 DUP3 DUP12 ADD PUSH2 0x2114 JUMP JUMPDEST SWAP2 POP POP SWAP3 SWAP6 SWAP9 SWAP2 SWAP5 SWAP8 POP SWAP3 SWAP6 POP JUMP JUMPDEST PUSH0 PUSH1 0x40 DUP3 ADD SWAP1 POP PUSH2 0x26DA PUSH0 DUP4 ADD DUP6 PUSH2 0x2178 JUMP JUMPDEST PUSH2 0x26E7 PUSH1 0x20 DUP4 ADD DUP5 PUSH2 0x2178 JUMP JUMPDEST SWAP4 SWAP3 POP POP POP JUMP JUMPDEST PUSH0 PUSH0 PUSH0 PUSH0 PUSH0 PUSH0 PUSH0 PUSH0 PUSH2 0x100 DUP10 DUP12 SUB SLT ISZERO PUSH2 0x270B JUMPI PUSH2 0x270A PUSH2 0x20ED JUMP JUMPDEST JUMPDEST PUSH0 PUSH2 0x2718 DUP12 DUP3 DUP13 ADD PUSH2 0x2276 JUMP JUMPDEST SWAP9 POP POP PUSH1 0x20 PUSH2 0x2729 DUP12 DUP3 DUP13 ADD PUSH2 0x2276 JUMP JUMPDEST SWAP8 POP POP PUSH1 0x40 PUSH2 0x273A DUP12 DUP3 DUP13 ADD PUSH2 0x2114 JUMP JUMPDEST SWAP7 POP POP PUSH1 0x60 PUSH2 0x274B DUP12 DUP3 DUP13 ADD PUSH2 0x2114 JUMP JUMPDEST SWAP6 POP POP PUSH1 0x80 PUSH2 0x275C DUP12 DUP3 DUP13 ADD PUSH2 0x2114 JUMP JUMPDEST SWAP5 POP POP PUSH1 0xA0 PUSH2 0x276D DUP12 DUP3 DUP13 ADD PUSH2 0x2114 JUMP JUMPDEST SWAP4 POP POP PUSH1 0xC0 PUSH2 0x277E DUP12 DUP3 DUP13 ADD PUSH2 0x2276 JUMP JUMPDEST SWAP3 POP POP PUSH1 0xE0 PUSH2 0x278F DUP12 DUP3 DUP13 ADD PUSH2 0x2114 JUMP JUMPDEST SWAP2 POP POP SWAP3 SWAP6 SWAP9 POP SWAP3 SWAP6 SWAP9 SWAP1 SWAP4 SWAP7 POP JUMP JUMPDEST PUSH0 PUSH1 0x60 DUP3 ADD SWAP1 POP PUSH2 0x27B2 PUSH0 DUP4 ADD DUP7 PUSH2 0x2178 JUMP JUMPDEST PUSH2 0x27BF PUSH1 0x20 DUP4 ADD DUP6 PUSH2 0x2178 JUMP JUMPDEST PUSH2 0x27CC PUSH1 0x40 DUP4 ADD DUP5 PUSH2 0x2178 JUMP JUMPDEST SWAP5 SWAP4 POP POP POP POP JUMP JUMPDEST PUSH32 0x496E76616C696420616D6F756E74496E00000000000000000000000000000000 PUSH0 DUP3 ADD MSTORE POP JUMP JUMPDEST PUSH0 PUSH2 0x2808 PUSH1 0x10 DUP4 PUSH2 0x21AA JUMP JUMPDEST SWAP2 POP PUSH2 0x2813 DUP3 PUSH2 0x27D4 JUMP JUMPDEST PUSH1 0x20 DUP3 ADD SWAP1 POP SWAP2 SWAP1 POP JUMP JUMPDEST PUSH0 PUSH1 0x20 DUP3 ADD SWAP1 POP DUP2 DUP2 SUB PUSH0 DUP4 ADD MSTORE PUSH2 0x2835 DUP2 PUSH2 0x27FC JUMP JUMPDEST SWAP1 POP SWAP2 SWAP1 POP JUMP JUMPDEST PUSH32 0x496E76616C69642072657365727665496E000000000000000000000000000000 PUSH0 DUP3 ADD MSTORE POP JUMP JUMPDEST PUSH0 PUSH2 0x2870 PUSH1 0x11 DUP4 PUSH2 0x21AA JUMP JUMPDEST SWAP2 POP PUSH2 0x287B DUP3 PUSH2 0x283C JUMP JUMPDEST PUSH1 0x20 DUP3 ADD SWAP1 POP SWAP2 SWAP1 POP JUMP JUMPDEST PUSH0 PUSH1 0x20 DUP3 ADD SWAP1 POP DUP2 DUP2 SUB PUSH0 DUP4 ADD MSTORE PUSH2 0x289D DUP2 PUSH2 0x2864 JUMP JUMPDEST SWAP1 POP SWAP2 SWAP1 POP JUMP JUMPDEST PUSH32 0x496E76616C696420726573657276654F75740000000000000000000000000000 PUSH0 DUP3 ADD MSTORE POP JUMP JUMPDEST PUSH0 PUSH2 0x28D8 PUSH1 0x12 DUP4 PUSH2 0x21AA JUMP JUMPDEST SWAP2 POP PUSH2 0x28E3 DUP3 PUSH2 0x28A4 JUMP JUMPDEST PUSH1 0x20 DUP3 ADD SWAP1 POP SWAP2 SWAP1 POP JUMP JUMPDEST PUSH0 PUSH1 0x20 DUP3 ADD SWAP1 POP DUP2 DUP2 SUB PUSH0 DUP4 ADD MSTORE PUSH2 0x2905 DUP2 PUSH2 0x28CC JUMP JUMPDEST SWAP1 POP SWAP2 SWAP1 POP JUMP JUMPDEST PUSH32 0x4E487B7100000000000000000000000000000000000000000000000000000000 PUSH0 MSTORE PUSH1 0x11 PUSH1 0x4 MSTORE PUSH1 0x24 PUSH0 REVERT JUMPDEST PUSH0 PUSH2 0x2943 DUP3 PUSH2 0x20F5 JUMP JUMPDEST SWAP2 POP PUSH2 0x294E DUP4 PUSH2 0x20F5 JUMP JUMPDEST SWAP3 POP DUP3 DUP3 ADD SWAP1 POP DUP1 DUP3 GT ISZERO PUSH2 0x2966 JUMPI PUSH2 0x2965 PUSH2 0x290C JUMP JUMPDEST JUMPDEST SWAP3 SWAP2 POP POP JUMP JUMPDEST PUSH0 PUSH2 0x2976 DUP3 PUSH2 0x20F5 JUMP JUMPDEST SWAP2 POP PUSH2 0x2981 DUP4 PUSH2 0x20F5 JUMP JUMPDEST SWAP3 POP DUP3 DUP3 MUL PUSH2 0x298F DUP2 PUSH2 0x20F5 JUMP JUMPDEST SWAP2 POP DUP3 DUP3 DIV DUP5 EQ DUP4 ISZERO OR PUSH2 0x29A6 JUMPI PUSH2 0x29A5 PUSH2 0x290C JUMP JUMPDEST JUMPDEST POP SWAP3 SWAP2 POP POP JUMP JUMPDEST PUSH32 0x4E487B7100000000000000000000000000000000000000000000000000000000 PUSH0 MSTORE PUSH1 0x12 PUSH1 0x4 MSTORE PUSH1 0x24 PUSH0 REVERT JUMPDEST PUSH0 PUSH2 0x29E4 DUP3 PUSH2 0x20F5 JUMP JUMPDEST SWAP2 POP PUSH2 0x29EF DUP4 PUSH2 0x20F5 JUMP JUMPDEST SWAP3 POP DUP3 PUSH2 0x29FF JUMPI PUSH2 0x29FE PUSH2 0x29AD JUMP JUMPDEST JUMPDEST DUP3 DUP3 DIV SWAP1 POP SWAP3 SWAP2 POP POP JUMP JUMPDEST PUSH32 0x4E487B7100000000000000000000000000000000000000000000000000000000 PUSH0 MSTORE PUSH1 0x22 PUSH1 0x4 MSTORE PUSH1 0x24 PUSH0 REVERT JUMPDEST PUSH0 PUSH1 0x2 DUP3 DIV SWAP1 POP PUSH1 0x1 DUP3 AND DUP1 PUSH2 0x2A4E JUMPI PUSH1 0x7F DUP3 AND SWAP2 POP JUMPDEST PUSH1 0x20 DUP3 LT DUP2 SUB PUSH2 0x2A61 JUMPI PUSH2 0x2A60 PUSH2 0x2A0A JUMP JUMPDEST JUMPDEST POP SWAP2 SWAP1 POP JUMP JUMPDEST PUSH32 0x496E76616C696420616D6F756E74730000000000000000000000000000000000 PUSH0 DUP3 ADD MSTORE POP JUMP JUMPDEST PUSH0 PUSH2 0x2A9B PUSH1 0xF DUP4 PUSH2 0x21AA JUMP JUMPDEST SWAP2 POP PUSH2 0x2AA6 DUP3 PUSH2 0x2A67 JUMP JUMPDEST PUSH1 0x20 DUP3 ADD SWAP1 POP SWAP2 SWAP1 POP JUMP JUMPDEST PUSH0 PUSH1 0x20 DUP3 ADD SWAP1 POP DUP2 DUP2 SUB PUSH0 DUP4 ADD MSTORE PUSH2 0x2AC8 DUP2 PUSH2 0x2A8F JUMP JUMPDEST SWAP1 POP SWAP2 SWAP1 POP JUMP JUMPDEST PUSH32 0x5472616E73616374696F6E206578706972656400000000000000000000000000 PUSH0 DUP3 ADD MSTORE POP JUMP JUMPDEST PUSH0 PUSH2 0x2B03 PUSH1 0x13 DUP4 PUSH2 0x21AA JUMP JUMPDEST SWAP2 POP PUSH2 0x2B0E DUP3 PUSH2 0x2ACF JUMP JUMPDEST PUSH1 0x20 DUP3 ADD SWAP1 POP SWAP2 SWAP1 POP JUMP JUMPDEST PUSH0 PUSH1 0x20 DUP3 ADD SWAP1 POP DUP2 DUP2 SUB PUSH0 DUP4 ADD MSTORE PUSH2 0x2B30 DUP2 PUSH2 0x2AF7 JUMP JUMPDEST SWAP1 POP SWAP2 SWAP1 POP JUMP JUMPDEST PUSH32 0x496E76616C696420746F6B656E7320636F756E74000000000000000000000000 PUSH0 DUP3 ADD MSTORE POP JUMP JUMPDEST PUSH0 PUSH2 0x2B6B PUSH1 0x14 DUP4 PUSH2 0x21AA JUMP JUMPDEST SWAP2 POP PUSH2 0x2B76 DUP3 PUSH2 0x2B37 JUMP JUMPDEST PUSH1 0x20 DUP3 ADD SWAP1 POP SWAP2 SWAP1 POP JUMP JUMPDEST PUSH0 PUSH1 0x20 DUP3 ADD SWAP1 POP DUP2 DUP2 SUB PUSH0 DUP4 ADD MSTORE PUSH2 0x2B98 DUP2 PUSH2 0x2B5F JUMP JUMPDEST SWAP1 POP SWAP2 SWAP1 POP JUMP JUMPDEST PUSH32 0x4E487B7100000000000000000000000000000000000000000000000000000000 PUSH0 MSTORE PUSH1 0x32 PUSH1 0x4 MSTORE PUSH1 0x24 PUSH0 REVERT JUMPDEST PUSH32 0x496E76616C696420746F6B656E73000000000000000000000000000000000000 PUSH0 DUP3 ADD MSTORE POP JUMP JUMPDEST PUSH0 PUSH2 0x2C00 PUSH1 0xE DUP4 PUSH2 0x21AA JUMP JUMPDEST SWAP2 POP PUSH2 0x2C0B DUP3 PUSH2 0x2BCC JUMP JUMPDEST PUSH1 0x20 DUP3 ADD SWAP1 POP SWAP2 SWAP1 POP JUMP JUMPDEST PUSH0 PUSH1 0x20 DUP3 ADD SWAP1 POP DUP2 DUP2 SUB PUSH0 DUP4 ADD MSTORE PUSH2 0x2C2D DUP2 PUSH2 0x2BF4 JUMP JUMPDEST SWAP1 POP SWAP2 SWAP1 POP JUMP JUMPDEST PUSH2 0x2C3D DUP2 PUSH2 0x224F JUMP JUMPDEST DUP3 MSTORE POP POP JUMP JUMPDEST PUSH0 PUSH1 0x60 DUP3 ADD SWAP1 POP PUSH2 0x2C56 PUSH0 DUP4 ADD DUP7 PUSH2 0x2C34 JUMP JUMPDEST PUSH2 0x2C63 PUSH1 0x20 DUP4 ADD DUP6 PUSH2 0x2C34 JUMP JUMPDEST PUSH2 0x2C70 PUSH1 0x40 DUP4 ADD DUP5 PUSH2 0x2178 JUMP JUMPDEST SWAP5 SWAP4 POP POP POP POP JUMP JUMPDEST PUSH2 0x2C81 DUP2 PUSH2 0x22C8 JUMP JUMPDEST DUP2 EQ PUSH2 0x2C8B JUMPI PUSH0 PUSH0 REVERT JUMPDEST POP JUMP JUMPDEST PUSH0 DUP2 MLOAD SWAP1 POP PUSH2 0x2C9C DUP2 PUSH2 0x2C78 JUMP JUMPDEST SWAP3 SWAP2 POP POP JUMP JUMPDEST PUSH0 PUSH1 0x20 DUP3 DUP5 SUB SLT ISZERO PUSH2 0x2CB7 JUMPI PUSH2 0x2CB6 PUSH2 0x20ED JUMP JUMPDEST JUMPDEST PUSH0 PUSH2 0x2CC4 DUP5 DUP3 DUP6 ADD PUSH2 0x2C8E JUMP JUMPDEST SWAP2 POP POP SWAP3 SWAP2 POP POP JUMP JUMPDEST PUSH32 0x5472616E73666572206661696C65640000000000000000000000000000000000 PUSH0 DUP3 ADD MSTORE POP JUMP JUMPDEST PUSH0 PUSH2 0x2D01 PUSH1 0xF DUP4 PUSH2 0x21AA JUMP JUMPDEST SWAP2 POP PUSH2 0x2D0C DUP3 PUSH2 0x2CCD JUMP JUMPDEST PUSH1 0x20 DUP3 ADD SWAP1 POP SWAP2 SWAP1 POP JUMP JUMPDEST PUSH0 PUSH1 0x20 DUP3 ADD SWAP1 POP DUP2 DUP2 SUB PUSH0 DUP4 ADD MSTORE PUSH2 0x2D2E DUP2 PUSH2 0x2CF5 JUMP JUMPDEST SWAP1 POP SWAP2 SWAP1 POP JUMP JUMPDEST PUSH32 0x496E73756666696369656E74206F757470757420616D6F756E74000000000000 PUSH0 DUP3 ADD MSTORE POP JUMP JUMPDEST PUSH0 PUSH2 0x2D69 PUSH1 0x1A DUP4 PUSH2 0x21AA JUMP JUMPDEST SWAP2 POP PUSH2 0x2D74 DUP3 PUSH2 0x2D35 JUMP JUMPDEST PUSH1 0x20 DUP3 ADD SWAP1 POP SWAP2 SWAP1 POP JUMP JUMPDEST PUSH0 PUSH1 0x20 DUP3 ADD SWAP1 POP DUP2 DUP2 SUB PUSH0 DUP4 ADD MSTORE PUSH2 0x2D96 DUP2 PUSH2 0x2D5D JUMP JUMPDEST SWAP1 POP SWAP2 SWAP1 POP JUMP JUMPDEST PUSH0 PUSH1 0x40 DUP3 ADD SWAP1 POP PUSH2 0x2DB0 PUSH0 DUP4 ADD DUP6 PUSH2 0x2C34 JUMP JUMPDEST PUSH2 0x2DBD PUSH1 0x20 DUP4 ADD DUP5 PUSH2 0x2178 JUMP JUMPDEST SWAP4 SWAP3 POP POP POP JUMP JUMPDEST PUSH0 PUSH2 0x2DCE DUP3 PUSH2 0x20F5 JUMP JUMPDEST SWAP2 POP PUSH2 0x2DD9 DUP4 PUSH2 0x20F5 JUMP JUMPDEST SWAP3 POP DUP3 DUP3 SUB SWAP1 POP DUP2 DUP2 GT ISZERO PUSH2 0x2DF1 JUMPI PUSH2 0x2DF0 PUSH2 0x290C JUMP JUMPDEST JUMPDEST SWAP3 SWAP2 POP POP JUMP JUMPDEST PUSH32 0x4E487B7100000000000000000000000000000000000000000000000000000000 PUSH0 MSTORE PUSH1 0x41 PUSH1 0x4 MSTORE PUSH1 0x24 PUSH0 REVERT JUMPDEST PUSH32 0x496E76616C696420726573657276614100000000000000000000000000000000 PUSH0 DUP3 ADD MSTORE POP JUMP JUMPDEST PUSH0 PUSH2 0x2E58 PUSH1 0x10 DUP4 PUSH2 0x21AA JUMP JUMPDEST SWAP2 POP PUSH2 0x2E63 DUP3 PUSH2 0x2E24 JUMP JUMPDEST PUSH1 0x20 DUP3 ADD SWAP1 POP SWAP2 SWAP1 POP JUMP JUMPDEST PUSH0 PUSH1 0x20 DUP3 ADD SWAP1 POP DUP2 DUP2 SUB PUSH0 DUP4 ADD MSTORE PUSH2 0x2E85 DUP2 PUSH2 0x2E4C JUMP JUMPDEST SWAP1 POP SWAP2 SWAP1 POP JUMP JUMPDEST PUSH32 0x496E76616C696420726573657276614200000000000000000000000000000000 PUSH0 DUP3 ADD MSTORE POP JUMP JUMPDEST PUSH0 PUSH2 0x2EC0 PUSH1 0x10 DUP4 PUSH2 0x21AA JUMP JUMPDEST SWAP2 POP PUSH2 0x2ECB DUP3 PUSH2 0x2E8C JUMP JUMPDEST PUSH1 0x20 DUP3 ADD SWAP1 POP SWAP2 SWAP1 POP JUMP JUMPDEST PUSH0 PUSH1 0x20 DUP3 ADD SWAP1 POP DUP2 DUP2 SUB PUSH0 DUP4 ADD MSTORE PUSH2 0x2EED DUP2 PUSH2 0x2EB4 JUMP JUMPDEST SWAP1 POP SWAP2 SWAP1 POP JUMP JUMPDEST PUSH32 0x496E76616C6964206C6971756964697479000000000000000000000000000000 PUSH0 DUP3 ADD MSTORE POP JUMP JUMPDEST PUSH0 PUSH2 0x2F28 PUSH1 0x11 DUP4 PUSH2 0x21AA JUMP JUMPDEST SWAP2 POP PUSH2 0x2F33 DUP3 PUSH2 0x2EF4 JUMP JUMPDEST PUSH1 0x20 DUP3 ADD SWAP1 POP SWAP2 SWAP1 POP JUMP JUMPDEST PUSH0 PUSH1 0x20 DUP3 ADD SWAP1 POP DUP2 DUP2 SUB PUSH0 DUP4 ADD MSTORE PUSH2 0x2F55 DUP2 PUSH2 0x2F1C JUMP JUMPDEST SWAP1 POP SWAP2 SWAP1 POP JUMP JUMPDEST PUSH32 0x496E76616C696420616D6F756E74424D696E0000000000000000000000000000 PUSH0 DUP3 ADD MSTORE POP JUMP JUMPDEST PUSH0 PUSH2 0x2F90 PUSH1 0x12 DUP4 PUSH2 0x21AA JUMP JUMPDEST SWAP2 POP PUSH2 0x2F9B DUP3 PUSH2 0x2F5C JUMP JUMPDEST PUSH1 0x20 DUP3 ADD SWAP1 POP SWAP2 SWAP1 POP JUMP JUMPDEST PUSH0 PUSH1 0x20 DUP3 ADD SWAP1 POP DUP2 DUP2 SUB PUSH0 DUP4 ADD MSTORE PUSH2 0x2FBD DUP2 PUSH2 0x2F84 JUMP JUMPDEST SWAP1 POP SWAP2 SWAP1 POP JUMP JUMPDEST PUSH32 0x496E76616C696420616D6F756E74414D696E0000000000000000000000000000 PUSH0 DUP3 ADD MSTORE POP JUMP JUMPDEST PUSH0 PUSH2 0x2FF8 PUSH1 0x12 DUP4 PUSH2 0x21AA JUMP JUMPDEST SWAP2 POP PUSH2 0x3003 DUP3 PUSH2 0x2FC4 JUMP JUMPDEST PUSH1 0x20 DUP3 ADD SWAP1 POP SWAP2 SWAP1 POP JUMP JUMPDEST PUSH0 PUSH1 0x20 DUP3 ADD SWAP1 POP DUP2 DUP2 SUB PUSH0 DUP4 ADD MSTORE PUSH2 0x3025 DUP2 PUSH2 0x2FEC JUMP JUMPDEST SWAP1 POP SWAP2 SWAP1 POP JUMP JUMPDEST PUSH32 0x72656D6F76654C6971756964697479202D20616E74657320746F74616C537570 PUSH0 DUP3 ADD MSTORE PUSH32 0x706C790000000000000000000000000000000000000000000000000000000000 PUSH1 0x20 DUP3 ADD MSTORE POP JUMP JUMPDEST PUSH0 PUSH2 0x3086 PUSH1 0x23 DUP4 PUSH2 0x21AA JUMP JUMPDEST SWAP2 POP PUSH2 0x3091 DUP3 PUSH2 0x302C JUMP JUMPDEST PUSH1 0x40 DUP3 ADD SWAP1 POP SWAP2 SWAP1 POP JUMP JUMPDEST PUSH0 PUSH1 0x20 DUP3 ADD SWAP1 POP DUP2 DUP2 SUB PUSH0 DUP4 ADD MSTORE PUSH2 0x30B3 DUP2 PUSH2 0x307A JUMP JUMPDEST SWAP1 POP SWAP2 SWAP1 POP JUMP JUMPDEST PUSH32 0x496E76616C696420737570706C79000000000000000000000000000000000000 PUSH0 DUP3 ADD MSTORE POP JUMP JUMPDEST PUSH0 PUSH2 0x30EE PUSH1 0xE DUP4 PUSH2 0x21AA JUMP JUMPDEST SWAP2 POP PUSH2 0x30F9 DUP3 PUSH2 0x30BA JUMP JUMPDEST PUSH1 0x20 DUP3 ADD SWAP1 POP SWAP2 SWAP1 POP JUMP JUMPDEST PUSH0 PUSH1 0x20 DUP3 ADD SWAP1 POP DUP2 DUP2 SUB PUSH0 DUP4 ADD MSTORE PUSH2 0x311B DUP2 PUSH2 0x30E2 JUMP JUMPDEST SWAP1 POP SWAP2 SWAP1 POP JUMP JUMPDEST PUSH32 0x616D6F756E74412062656C6F77206D696E000000000000000000000000000000 PUSH0 DUP3 ADD MSTORE POP JUMP JUMPDEST PUSH0 PUSH2 0x3156 PUSH1 0x11 DUP4 PUSH2 0x21AA JUMP JUMPDEST SWAP2 POP PUSH2 0x3161 DUP3 PUSH2 0x3122 JUMP JUMPDEST PUSH1 0x20 DUP3 ADD SWAP1 POP SWAP2 SWAP1 POP JUMP JUMPDEST PUSH0 PUSH1 0x20 DUP3 ADD SWAP1 POP DUP2 DUP2 SUB PUSH0 DUP4 ADD MSTORE PUSH2 0x3183 DUP2 PUSH2 0x314A JUMP JUMPDEST SWAP1 POP SWAP2 SWAP1 POP JUMP JUMPDEST PUSH32 0x616D6F756E74422062656C6F77206D696E000000000000000000000000000000 PUSH0 DUP3 ADD MSTORE POP JUMP JUMPDEST PUSH0 PUSH2 0x31BE PUSH1 0x11 DUP4 PUSH2 0x21AA JUMP JUMPDEST SWAP2 POP PUSH2 0x31C9 DUP3 PUSH2 0x318A JUMP JUMPDEST PUSH1 0x20 DUP3 ADD SWAP1 POP SWAP2 SWAP1 POP JUMP JUMPDEST PUSH0 PUSH1 0x20 DUP3 ADD SWAP1 POP DUP2 DUP2 SUB PUSH0 DUP4 ADD MSTORE PUSH2 0x31EB DUP2 PUSH2 0x31B2 JUMP JUMPDEST SWAP1 POP SWAP2 SWAP1 POP JUMP JUMPDEST PUSH32 0x72656D6F76654C6971756964697479202D20616E746573207472616E73666572 PUSH0 DUP3 ADD MSTORE POP JUMP JUMPDEST PUSH0 PUSH2 0x3226 PUSH1 0x20 DUP4 PUSH2 0x21AA JUMP JUMPDEST SWAP2 POP PUSH2 0x3231 DUP3 PUSH2 0x31F2 JUMP JUMPDEST PUSH1 0x20 DUP3 ADD SWAP1 POP SWAP2 SWAP1 POP JUMP JUMPDEST PUSH0 PUSH1 0x20 DUP3 ADD SWAP1 POP DUP2 DUP2 SUB PUSH0 DUP4 ADD MSTORE PUSH2 0x3253 DUP2 PUSH2 0x321A JUMP JUMPDEST SWAP1 POP SWAP2 SWAP1 POP JUMP JUMPDEST PUSH32 0x5472616E7366657220746F6B656E41206661696C656400000000000000000000 PUSH0 DUP3 ADD MSTORE POP JUMP JUMPDEST PUSH0 PUSH2 0x328E PUSH1 0x16 DUP4 PUSH2 0x21AA JUMP JUMPDEST SWAP2 POP PUSH2 0x3299 DUP3 PUSH2 0x325A JUMP JUMPDEST PUSH1 0x20 DUP3 ADD SWAP1 POP SWAP2 SWAP1 POP JUMP JUMPDEST PUSH0 PUSH1 0x20 DUP3 ADD SWAP1 POP DUP2 DUP2 SUB PUSH0 DUP4 ADD MSTORE PUSH2 0x32BB DUP2 PUSH2 0x3282 JUMP JUMPDEST SWAP1 POP SWAP2 SWAP1 POP JUMP JUMPDEST PUSH32 0x5472616E7366657220746F6B656E42206661696C656400000000000000000000 PUSH0 DUP3 ADD MSTORE POP JUMP JUMPDEST PUSH0 PUSH2 0x32F6 PUSH1 0x16 DUP4 PUSH2 0x21AA JUMP JUMPDEST SWAP2 POP PUSH2 0x3301 DUP3 PUSH2 0x32C2 JUMP JUMPDEST PUSH1 0x20 DUP3 ADD SWAP1 POP SWAP2 SWAP1 POP JUMP JUMPDEST PUSH0 PUSH1 0x20 DUP3 ADD SWAP1 POP DUP2 DUP2 SUB PUSH0 DUP4 ADD MSTORE PUSH2 0x3323 DUP2 PUSH2 0x32EA JUMP JUMPDEST SWAP1 POP SWAP2 SWAP1 POP JUMP JUMPDEST PUSH32 0x72656D6F76654C6971756964697479202D20616E746573206275726E00000000 PUSH0 DUP3 ADD MSTORE POP JUMP JUMPDEST PUSH0 PUSH2 0x335E PUSH1 0x1C DUP4 PUSH2 0x21AA JUMP JUMPDEST SWAP2 POP PUSH2 0x3369 DUP3 PUSH2 0x332A JUMP JUMPDEST PUSH1 0x20 DUP3 ADD SWAP1 POP SWAP2 SWAP1 POP JUMP JUMPDEST PUSH0 PUSH1 0x20 DUP3 ADD SWAP1 POP DUP2 DUP2 SUB PUSH0 DUP4 ADD MSTORE PUSH2 0x338B DUP2 PUSH2 0x3352 JUMP JUMPDEST SWAP1 POP SWAP2 SWAP1 POP JUMP JUMPDEST PUSH32 0x72656D6F76654C6971756964697479202D2064657370756573206275726E0000 PUSH0 DUP3 ADD MSTORE POP JUMP JUMPDEST PUSH0 PUSH2 0x33C6 PUSH1 0x1E DUP4 PUSH2 0x21AA JUMP JUMPDEST SWAP2 POP PUSH2 0x33D1 DUP3 PUSH2 0x3392 JUMP JUMPDEST PUSH1 0x20 DUP3 ADD SWAP1 POP SWAP2 SWAP1 POP JUMP JUMPDEST PUSH0 PUSH1 0x20 DUP3 ADD SWAP1 POP DUP2 DUP2 SUB PUSH0 DUP4 ADD MSTORE PUSH2 0x33F3 DUP2 PUSH2 0x33BA JUMP JUMPDEST SWAP1 POP SWAP2 SWAP1 POP JUMP JUMPDEST PUSH32 0x72656D6F76654C6971756964697479202D20454E440000000000000000000000 PUSH0 DUP3 ADD MSTORE POP JUMP JUMPDEST PUSH0 PUSH2 0x342E PUSH1 0x15 DUP4 PUSH2 0x21AA JUMP JUMPDEST SWAP2 POP PUSH2 0x3439 DUP3 PUSH2 0x33FA JUMP JUMPDEST PUSH1 0x20 DUP3 ADD SWAP1 POP SWAP2 SWAP1 POP JUMP JUMPDEST PUSH0 PUSH1 0x20 DUP3 ADD SWAP1 POP DUP2 DUP2 SUB PUSH0 DUP4 ADD MSTORE PUSH2 0x345B DUP2 PUSH2 0x3422 JUMP JUMPDEST SWAP1 POP SWAP2 SWAP1 POP JUMP JUMPDEST PUSH32 0x6164644C6971756964697479202D20616E746573207472616E73666572000000 PUSH0 DUP3 ADD MSTORE POP JUMP JUMPDEST PUSH0 PUSH2 0x3496 PUSH1 0x1D DUP4 PUSH2 0x21AA JUMP JUMPDEST SWAP2 POP PUSH2 0x34A1 DUP3 PUSH2 0x3462 JUMP JUMPDEST PUSH1 0x20 DUP3 ADD SWAP1 POP SWAP2 SWAP1 POP JUMP JUMPDEST PUSH0 PUSH1 0x20 DUP3 ADD SWAP1 POP DUP2 DUP2 SUB PUSH0 DUP4 ADD MSTORE PUSH2 0x34C3 DUP2 PUSH2 0x348A JUMP JUMPDEST SWAP1 POP SWAP2 SWAP1 POP JUMP JUMPDEST PUSH32 0x746F6B656E41207472616E73666572206661696C656400000000000000000000 PUSH0 DUP3 ADD MSTORE POP JUMP JUMPDEST PUSH0 PUSH2 0x34FE PUSH1 0x16 DUP4 PUSH2 0x21AA JUMP JUMPDEST SWAP2 POP PUSH2 0x3509 DUP3 PUSH2 0x34CA JUMP JUMPDEST PUSH1 0x20 DUP3 ADD SWAP1 POP SWAP2 SWAP1 POP JUMP JUMPDEST PUSH0 PUSH1 0x20 DUP3 ADD SWAP1 POP DUP2 DUP2 SUB PUSH0 DUP4 ADD MSTORE PUSH2 0x352B DUP2 PUSH2 0x34F2 JUMP JUMPDEST SWAP1 POP SWAP2 SWAP1 POP JUMP JUMPDEST PUSH32 0x746F6B656E42207472616E73666572206661696C656400000000000000000000 PUSH0 DUP3 ADD MSTORE POP JUMP JUMPDEST PUSH0 PUSH2 0x3566 PUSH1 0x16 DUP4 PUSH2 0x21AA JUMP JUMPDEST SWAP2 POP PUSH2 0x3571 DUP3 PUSH2 0x3532 JUMP JUMPDEST PUSH1 0x20 DUP3 ADD SWAP1 POP SWAP2 SWAP1 POP JUMP JUMPDEST PUSH0 PUSH1 0x20 DUP3 ADD SWAP1 POP DUP2 DUP2 SUB PUSH0 DUP4 ADD MSTORE PUSH2 0x3593 DUP2 PUSH2 0x355A JUMP JUMPDEST SWAP1 POP SWAP2 SWAP1 POP JUMP JUMPDEST PUSH0 PUSH1 0x60 DUP3 ADD SWAP1 POP PUSH2 0x35AD PUSH0 DUP4 ADD DUP7 PUSH2 0x2C34 JUMP JUMPDEST PUSH2 0x35BA PUSH1 0x20 DUP4 ADD DUP6 PUSH2 0x2178 JUMP JUMPDEST PUSH2 0x35C7 PUSH1 0x40 DUP4 ADD DUP5 PUSH2 0x2178 JUMP JUMPDEST SWAP5 SWAP4 POP POP POP POP JUMP JUMPDEST PUSH0 PUSH1 0x20 DUP3 ADD SWAP1 POP PUSH2 0x35E2 PUSH0 DUP4 ADD DUP5 PUSH2 0x2C34 JUMP JUMPDEST SWAP3 SWAP2 POP POP JUMP JUMPDEST PUSH32 0x616D6F756E744220746F6F206C6F770000000000000000000000000000000000 PUSH0 DUP3 ADD MSTORE POP JUMP JUMPDEST PUSH0 PUSH2 0x361C PUSH1 0xF DUP4 PUSH2 0x21AA JUMP JUMPDEST SWAP2 POP PUSH2 0x3627 DUP3 PUSH2 0x35E8 JUMP JUMPDEST PUSH1 0x20 DUP3 ADD SWAP1 POP SWAP2 SWAP1 POP JUMP JUMPDEST PUSH0 PUSH1 0x20 DUP3 ADD SWAP1 POP DUP2 DUP2 SUB PUSH0 DUP4 ADD MSTORE PUSH2 0x3649 DUP2 PUSH2 0x3610 JUMP JUMPDEST SWAP1 POP SWAP2 SWAP1 POP JUMP JUMPDEST PUSH32 0x616D6F756E744120746F6F206C6F770000000000000000000000000000000000 PUSH0 DUP3 ADD MSTORE POP JUMP JUMPDEST PUSH0 PUSH2 0x3684 PUSH1 0xF DUP4 PUSH2 0x21AA JUMP JUMPDEST SWAP2 POP PUSH2 0x368F DUP3 PUSH2 0x3650 JUMP JUMPDEST PUSH1 0x20 DUP3 ADD SWAP1 POP SWAP2 SWAP1 POP JUMP JUMPDEST PUSH0 PUSH1 0x20 DUP3 ADD SWAP1 POP DUP2 DUP2 SUB PUSH0 DUP4 ADD MSTORE PUSH2 0x36B1 DUP2 PUSH2 0x3678 JUMP JUMPDEST SWAP1 POP SWAP2 SWAP1 POP JUMP INVALID LOG2 PUSH5 0x6970667358 0x22 SLT KECCAK256 0x1E ADD CALLDATASIZE 0xDD 0x21 POP 0x24 0xAE 0xA8 SWAP1 DUP8 SIGNEXTEND PUSH15 0x36205EC6CC3A9CFEA963C482469675 RJUMPI 0xDF5A DUP7 PUSH5 0x736F6C6343 STOP ADDMOD 0x1E STOP CALLER "
				},
				"gasEstimates": {
					"creation": {
						"codeDepositCost": "2812400",
						"executionCost": "infinite",
						"totalCost": "infinite"
					},
					"external": {
						"addLiquidity(address,address,uint256,uint256,uint256,uint256,address,uint256)": "infinite",
						"allowance(address,address)": "infinite",
						"approve(address,uint256)": "infinite",
						"balanceOf(address)": "2873",
						"decimals()": "427",
						"getAmountOut(uint256,uint256,uint256)": "infinite",
						"getPrice(address,address)": "infinite",
						"name()": "infinite",
						"removeLiquidity(address,address,uint256,uint256,uint256,address,uint256)": "infinite",
						"reserveA()": "2491",
						"reserveB()": "2470",
						"swapExactTokensForTokens(uint256,uint256,address[],address,uint256)": "infinite",
						"symbol()": "infinite",
						"tokenA()": "infinite",
						"tokenB()": "infinite",
						"totalSupply()": "2455",
						"transfer(address,uint256)": "infinite",
						"transferFrom(address,address,uint256)": "infinite"
					},
					"internal": {
						"_calculateAmounts(uint256,uint256,uint256,uint256)": "infinite",
						"_min(uint256,uint256)": "63",
						"_sqrt(uint256)": "infinite"
					}
				},
				"methodIdentifiers": {
					"addLiquidity(address,address,uint256,uint256,uint256,uint256,address,uint256)": "e8e33700",
					"allowance(address,address)": "dd62ed3e",
					"approve(address,uint256)": "095ea7b3",
					"balanceOf(address)": "70a08231",
					"decimals()": "313ce567",
					"getAmountOut(uint256,uint256,uint256)": "054d50d4",
					"getPrice(address,address)": "ac41865a",
					"name()": "06fdde03",
					"removeLiquidity(address,address,uint256,uint256,uint256,address,uint256)": "baa2abde",
					"reserveA()": "dc5fa6c5",
					"reserveB()": "19e36f3b",
					"swapExactTokensForTokens(uint256,uint256,address[],address,uint256)": "38ed1739",
					"symbol()": "95d89b41",
					"tokenA()": "0fc63d10",
					"tokenB()": "5f64b55b",
					"totalSupply()": "18160ddd",
					"transfer(address,uint256)": "a9059cbb",
					"transferFrom(address,address,uint256)": "23b872dd"
				}
			},
			"storageLayout": {
				"storage": [
					{
						"astId": 159,
						"contract": "LiquidityPool.sol:LiquidityPool",
						"label": "_balances",
						"offset": 0,
						"slot": "0",
						"type": "t_mapping(t_address,t_uint256)"
					},
					{
						"astId": 165,
						"contract": "LiquidityPool.sol:LiquidityPool",
						"label": "_allowances",
						"offset": 0,
						"slot": "1",
						"type": "t_mapping(t_address,t_mapping(t_address,t_uint256))"
					},
					{
						"astId": 167,
						"contract": "LiquidityPool.sol:LiquidityPool",
						"label": "_totalSupply",
						"offset": 0,
						"slot": "2",
						"type": "t_uint256"
					},
					{
						"astId": 169,
						"contract": "LiquidityPool.sol:LiquidityPool",
						"label": "_name",
						"offset": 0,
						"slot": "3",
						"type": "t_string_storage"
					},
					{
						"astId": 171,
						"contract": "LiquidityPool.sol:LiquidityPool",
						"label": "_symbol",
						"offset": 0,
						"slot": "4",
						"type": "t_string_storage"
					},
					{
						"astId": 794,
						"contract": "LiquidityPool.sol:LiquidityPool",
						"label": "tokenA",
						"offset": 0,
						"slot": "5",
						"type": "t_contract(IERC20)729"
					},
					{
						"astId": 797,
						"contract": "LiquidityPool.sol:LiquidityPool",
						"label": "tokenB",
						"offset": 0,
						"slot": "6",
						"type": "t_contract(IERC20)729"
					},
					{
						"astId": 799,
						"contract": "LiquidityPool.sol:LiquidityPool",
						"label": "reserveA",
						"offset": 0,
						"slot": "7",
						"type": "t_uint256"
					},
					{
						"astId": 801,
						"contract": "LiquidityPool.sol:LiquidityPool",
						"label": "reserveB",
						"offset": 0,
						"slot": "8",
						"type": "t_uint256"
					}
				],
				"types": {
					"t_address": {
						"encoding": "inplace",
						"label": "address",
						"numberOfBytes": "20"
					},
					"t_contract(IERC20)729": {
						"encoding": "inplace",
						"label": "contract IERC20",
						"numberOfBytes": "20"
					},
					"t_mapping(t_address,t_mapping(t_address,t_uint256))": {
						"encoding": "mapping",
						"key": "t_address",
						"label": "mapping(address => mapping(address => uint256))",
						"numberOfBytes": "32",
						"value": "t_mapping(t_address,t_uint256)"
					},
					"t_mapping(t_address,t_uint256)": {
						"encoding": "mapping",
						"key": "t_address",
						"label": "mapping(address => uint256)",
						"numberOfBytes": "32",
						"value": "t_uint256"
					},
					"t_string_storage": {
						"encoding": "bytes",
						"label": "string",
						"numberOfBytes": "32"
					},
					"t_uint256": {
						"encoding": "inplace",
						"label": "uint256",
						"numberOfBytes": "32"
					}
				}
			},
			"userdoc": {
				"kind": "user",
				"methods": {},
				"version": 1
			}
		}
	}
}